{
  "_format": "hh-sol-artifact-1",
  "contractName": "Coupon",
  "sourceName": "contracts/tokens/Coupon.sol",
  "abi": [
    {
      "inputs": [
        {
          "internalType": "address",
          "name": "feeTo_",
          "type": "address"
        },
        {
          "internalType": "address",
          "name": "grantToken_",
          "type": "address"
        },
        {
          "internalType": "uint256",
          "name": "feeRatio_",
          "type": "uint256"
        }
      ],
      "stateMutability": "nonpayable",
      "type": "constructor"
    },
    {
      "anonymous": false,
      "inputs": [
        {
          "indexed": true,
          "internalType": "address",
          "name": "owner",
          "type": "address"
        },
        {
          "indexed": true,
          "internalType": "address",
          "name": "approved",
          "type": "address"
        },
        {
          "indexed": true,
          "internalType": "uint256",
          "name": "tokenId",
          "type": "uint256"
        }
      ],
      "name": "Approval",
      "type": "event"
    },
    {
      "anonymous": false,
      "inputs": [
        {
          "indexed": true,
          "internalType": "address",
          "name": "owner",
          "type": "address"
        },
        {
          "indexed": true,
          "internalType": "address",
          "name": "operator",
          "type": "address"
        },
        {
          "indexed": false,
          "internalType": "bool",
          "name": "approved",
          "type": "bool"
        }
      ],
      "name": "ApprovalForAll",
      "type": "event"
    },
    {
      "anonymous": false,
      "inputs": [
        {
          "indexed": true,
          "internalType": "address",
          "name": "account_",
          "type": "address"
        },
        {
          "indexed": true,
          "internalType": "uint256",
          "name": "id_",
          "type": "uint256"
        },
        {
          "indexed": false,
          "internalType": "uint256",
          "name": "amount",
          "type": "uint256"
        }
      ],
      "name": "Borrow",
      "type": "event"
    },
    {
      "anonymous": false,
      "inputs": [
        {
          "indexed": true,
          "internalType": "address",
          "name": "account_",
          "type": "address"
        },
        {
          "indexed": true,
          "internalType": "uint256",
          "name": "id_",
          "type": "uint256"
        }
      ],
      "name": "Close",
      "type": "event"
    },
    {
      "anonymous": false,
      "inputs": [
        {
          "indexed": true,
          "internalType": "address",
          "name": "account_",
          "type": "address"
        },
        {
          "indexed": true,
          "internalType": "uint256",
          "name": "id_",
          "type": "uint256"
        },
        {
          "indexed": false,
          "internalType": "uint256",
          "name": "amount",
          "type": "uint256"
        }
      ],
      "name": "Deposit",
      "type": "event"
    },
    {
      "anonymous": false,
      "inputs": [
        {
          "indexed": true,
          "internalType": "address",
          "name": "account_",
          "type": "address"
        },
        {
          "indexed": true,
          "internalType": "uint256",
          "name": "id_",
          "type": "uint256"
        }
      ],
      "name": "Open",
      "type": "event"
    },
    {
      "anonymous": false,
      "inputs": [
        {
          "indexed": true,
          "internalType": "address",
          "name": "previousOwner",
          "type": "address"
        },
        {
          "indexed": true,
          "internalType": "address",
          "name": "newOwner",
          "type": "address"
        }
      ],
      "name": "OwnershipTransferred",
      "type": "event"
    },
    {
      "anonymous": false,
      "inputs": [
        {
          "indexed": false,
          "internalType": "address",
          "name": "account",
          "type": "address"
        }
      ],
      "name": "Paused",
      "type": "event"
    },
    {
      "anonymous": false,
      "inputs": [
        {
          "indexed": true,
          "internalType": "address",
          "name": "account_",
          "type": "address"
        },
        {
          "indexed": true,
          "internalType": "uint256",
          "name": "id_",
          "type": "uint256"
        },
        {
          "indexed": false,
          "internalType": "uint256",
          "name": "amount",
          "type": "uint256"
        }
      ],
      "name": "Repay",
      "type": "event"
    },
    {
      "anonymous": false,
      "inputs": [
        {
          "indexed": false,
          "internalType": "uint256",
          "name": "prevFeeRatio",
          "type": "uint256"
        },
        {
          "indexed": false,
          "internalType": "uint256",
          "name": "currFeeRatio",
          "type": "uint256"
        }
      ],
      "name": "SetFeeRatio",
      "type": "event"
    },
    {
      "anonymous": false,
      "inputs": [
        {
          "indexed": false,
          "internalType": "address",
          "name": "prevFeeTo",
          "type": "address"
        },
        {
          "indexed": false,
          "internalType": "address",
          "name": "currFeeTo",
          "type": "address"
        }
      ],
      "name": "SetFeeTo",
      "type": "event"
    },
    {
      "anonymous": false,
      "inputs": [
        {
          "indexed": true,
          "internalType": "address",
          "name": "from",
          "type": "address"
        },
        {
          "indexed": true,
          "internalType": "address",
          "name": "to",
          "type": "address"
        },
        {
          "indexed": true,
          "internalType": "uint256",
          "name": "tokenId",
          "type": "uint256"
        }
      ],
      "name": "Transfer",
      "type": "event"
    },
    {
      "anonymous": false,
      "inputs": [
        {
          "indexed": false,
          "internalType": "address",
          "name": "account",
          "type": "address"
        }
      ],
      "name": "Unpaused",
      "type": "event"
    },
    {
      "anonymous": false,
      "inputs": [
        {
          "indexed": true,
          "internalType": "uint256",
          "name": "id_",
          "type": "uint256"
        },
        {
          "indexed": false,
          "internalType": "uint256",
          "name": "prevFee",
          "type": "uint256"
        },
        {
          "indexed": false,
          "internalType": "uint256",
          "name": "currFee",
          "type": "uint256"
        },
        {
          "indexed": false,
          "internalType": "uint256",
          "name": "prevTimestamp",
          "type": "uint256"
        },
        {
          "indexed": false,
          "internalType": "uint256",
          "name": "currTimestamp",
          "type": "uint256"
        }
      ],
      "name": "Update",
      "type": "event"
    },
    {
      "anonymous": false,
      "inputs": [
        {
          "indexed": true,
          "internalType": "address",
          "name": "account_",
          "type": "address"
        },
        {
          "indexed": true,
          "internalType": "uint256",
          "name": "id_",
          "type": "uint256"
        },
        {
          "indexed": false,
          "internalType": "uint256",
          "name": "amount",
          "type": "uint256"
        }
      ],
      "name": "Withdraw",
      "type": "event"
    },
    {
      "inputs": [
        {
          "internalType": "address",
          "name": "to",
          "type": "address"
        },
        {
          "internalType": "uint256",
          "name": "tokenId",
          "type": "uint256"
        }
      ],
      "name": "approve",
      "outputs": [],
      "stateMutability": "nonpayable",
      "type": "function"
    },
    {
      "inputs": [
        {
          "internalType": "address",
          "name": "owner",
          "type": "address"
        }
      ],
      "name": "balanceOf",
      "outputs": [
        {
          "internalType": "uint256",
          "name": "",
          "type": "uint256"
        }
      ],
      "stateMutability": "view",
      "type": "function"
    },
    {
      "inputs": [
        {
          "internalType": "uint256",
          "name": "id_",
          "type": "uint256"
        }
      ],
      "name": "burn",
      "outputs": [
        {
          "internalType": "uint256",
          "name": "shareAmount_",
          "type": "uint256"
        },
        {
          "internalType": "uint256",
          "name": "grantAmount_",
          "type": "uint256"
        }
      ],
      "stateMutability": "nonpayable",
      "type": "function"
    },
    {
      "inputs": [
        {
          "internalType": "uint256",
          "name": "tokenId",
          "type": "uint256"
        }
      ],
      "name": "getApproved",
      "outputs": [
        {
          "internalType": "address",
          "name": "",
          "type": "address"
        }
      ],
      "stateMutability": "view",
      "type": "function"
    },
    {
      "inputs": [],
      "name": "id",
      "outputs": [
        {
          "internalType": "uint256",
          "name": "",
          "type": "uint256"
        }
      ],
      "stateMutability": "view",
      "type": "function"
    },
    {
      "inputs": [
        {
          "internalType": "address",
          "name": "owner",
          "type": "address"
        },
        {
          "internalType": "address",
          "name": "operator",
          "type": "address"
        }
      ],
      "name": "isApprovedForAll",
      "outputs": [
        {
          "internalType": "bool",
          "name": "",
          "type": "bool"
        }
      ],
      "stateMutability": "view",
      "type": "function"
    },
    {
      "inputs": [
        {
          "internalType": "address",
          "name": "toAccount_",
          "type": "address"
        },
        {
          "internalType": "uint256",
          "name": "shareAmount_",
          "type": "uint256"
        },
        {
          "internalType": "uint256",
          "name": "grantAmount_",
          "type": "uint256"
        }
      ],
      "name": "mintTo",
      "outputs": [
        {
          "internalType": "uint256",
          "name": "id_",
          "type": "uint256"
        }
      ],
      "stateMutability": "nonpayable",
      "type": "function"
    },
    {
      "inputs": [],
      "name": "name",
      "outputs": [
        {
          "internalType": "string",
          "name": "",
          "type": "string"
        }
      ],
      "stateMutability": "view",
      "type": "function"
    },
    {
      "inputs": [],
      "name": "owner",
      "outputs": [
        {
          "internalType": "address",
          "name": "",
          "type": "address"
        }
      ],
      "stateMutability": "view",
      "type": "function"
    },
    {
      "inputs": [
        {
          "internalType": "uint256",
          "name": "tokenId",
          "type": "uint256"
        }
      ],
      "name": "ownerOf",
      "outputs": [
        {
          "internalType": "address",
          "name": "",
          "type": "address"
        }
      ],
      "stateMutability": "view",
      "type": "function"
    },
    {
      "inputs": [],
      "name": "pause",
      "outputs": [],
      "stateMutability": "nonpayable",
      "type": "function"
    },
    {
      "inputs": [],
      "name": "paused",
      "outputs": [
        {
          "internalType": "bool",
          "name": "",
          "type": "bool"
        }
      ],
      "stateMutability": "view",
      "type": "function"
    },
    {
      "inputs": [
        {
          "internalType": "uint256",
          "name": "id_",
          "type": "uint256"
        }
      ],
      "name": "pdc",
      "outputs": [
        {
          "components": [
            {
              "internalType": "uint256",
              "name": "share",
              "type": "uint256"
            },
            {
              "internalType": "uint256",
              "name": "grant",
              "type": "uint256"
            },
            {
              "internalType": "uint256",
              "name": "fee",
              "type": "uint256"
            },
            {
              "internalType": "uint256",
              "name": "latestUpdate",
              "type": "uint256"
            }
          ],
          "internalType": "struct ICoupon.PositionDiscountCoupon",
          "name": "",
          "type": "tuple"
        }
      ],
      "stateMutability": "view",
      "type": "function"
    },
    {
      "inputs": [],
      "name": "renounceOwnership",
      "outputs": [],
      "stateMutability": "nonpayable",
      "type": "function"
    },
    {
      "inputs": [
        {
          "internalType": "address",
          "name": "from",
          "type": "address"
        },
        {
          "internalType": "address",
          "name": "to",
          "type": "address"
        },
        {
          "internalType": "uint256",
          "name": "tokenId",
          "type": "uint256"
        }
      ],
      "name": "safeTransferFrom",
      "outputs": [],
      "stateMutability": "nonpayable",
      "type": "function"
    },
    {
      "inputs": [
        {
          "internalType": "address",
          "name": "from",
          "type": "address"
        },
        {
          "internalType": "address",
          "name": "to",
          "type": "address"
        },
        {
          "internalType": "uint256",
          "name": "tokenId",
          "type": "uint256"
        },
        {
          "internalType": "bytes",
          "name": "data",
          "type": "bytes"
        }
      ],
      "name": "safeTransferFrom",
      "outputs": [],
      "stateMutability": "nonpayable",
      "type": "function"
    },
    {
      "inputs": [
        {
          "internalType": "address",
          "name": "operator",
          "type": "address"
        },
        {
          "internalType": "bool",
          "name": "approved",
          "type": "bool"
        }
      ],
      "name": "setApprovalForAll",
      "outputs": [],
      "stateMutability": "nonpayable",
      "type": "function"
    },
    {
      "inputs": [
        {
          "internalType": "uint256",
          "name": "newFeeRatio",
          "type": "uint256"
        }
      ],
      "name": "setFeeRatio",
      "outputs": [],
      "stateMutability": "nonpayable",
      "type": "function"
    },
    {
      "inputs": [
        {
          "internalType": "address",
          "name": "newFeeTo",
          "type": "address"
        }
      ],
      "name": "setFeeTo",
      "outputs": [],
      "stateMutability": "nonpayable",
      "type": "function"
    },
    {
      "inputs": [
        {
          "internalType": "bytes4",
          "name": "interfaceId",
          "type": "bytes4"
        }
      ],
      "name": "supportsInterface",
      "outputs": [
        {
          "internalType": "bool",
          "name": "",
          "type": "bool"
        }
      ],
      "stateMutability": "view",
      "type": "function"
    },
    {
      "inputs": [],
      "name": "symbol",
      "outputs": [
        {
          "internalType": "string",
          "name": "",
          "type": "string"
        }
      ],
      "stateMutability": "view",
      "type": "function"
    },
    {
      "inputs": [
        {
          "internalType": "uint256",
          "name": "index",
          "type": "uint256"
        }
      ],
      "name": "tokenByIndex",
      "outputs": [
        {
          "internalType": "uint256",
          "name": "",
          "type": "uint256"
        }
      ],
      "stateMutability": "view",
      "type": "function"
    },
    {
      "inputs": [
        {
          "internalType": "address",
          "name": "owner",
          "type": "address"
        },
        {
          "internalType": "uint256",
          "name": "index",
          "type": "uint256"
        }
      ],
      "name": "tokenOfOwnerByIndex",
      "outputs": [
        {
          "internalType": "uint256",
          "name": "",
          "type": "uint256"
        }
      ],
      "stateMutability": "view",
      "type": "function"
    },
    {
      "inputs": [
        {
          "internalType": "uint256",
          "name": "tokenId",
          "type": "uint256"
        }
      ],
      "name": "tokenURI",
      "outputs": [
        {
          "internalType": "string",
          "name": "",
          "type": "string"
        }
      ],
      "stateMutability": "view",
      "type": "function"
    },
    {
      "inputs": [],
      "name": "totalFee",
      "outputs": [
        {
          "internalType": "uint256",
          "name": "",
          "type": "uint256"
        }
      ],
      "stateMutability": "view",
      "type": "function"
    },
    {
      "inputs": [],
      "name": "totalGrant",
      "outputs": [
        {
          "internalType": "uint256",
          "name": "",
          "type": "uint256"
        }
      ],
      "stateMutability": "view",
      "type": "function"
    },
    {
      "inputs": [],
      "name": "totalShare",
      "outputs": [
        {
          "internalType": "uint256",
          "name": "",
          "type": "uint256"
        }
      ],
      "stateMutability": "view",
      "type": "function"
    },
    {
      "inputs": [],
      "name": "totalSupply",
      "outputs": [
        {
          "internalType": "uint256",
          "name": "",
          "type": "uint256"
        }
      ],
      "stateMutability": "view",
      "type": "function"
    },
    {
      "inputs": [
        {
          "internalType": "address",
          "name": "from",
          "type": "address"
        },
        {
          "internalType": "address",
          "name": "to",
          "type": "address"
        },
        {
          "internalType": "uint256",
          "name": "tokenId",
          "type": "uint256"
        }
      ],
      "name": "transferFrom",
      "outputs": [],
      "stateMutability": "nonpayable",
      "type": "function"
    },
    {
      "inputs": [
        {
          "internalType": "address",
          "name": "newOwner",
          "type": "address"
        }
      ],
      "name": "transferOwnership",
      "outputs": [],
      "stateMutability": "nonpayable",
      "type": "function"
    },
    {
      "inputs": [],
      "name": "unpause",
      "outputs": [],
      "stateMutability": "nonpayable",
      "type": "function"
    },
    {
      "inputs": [
        {
          "internalType": "uint256",
          "name": "id_",
          "type": "uint256"
        }
      ],
      "name": "updateFee",
      "outputs": [
        {
          "internalType": "uint256",
          "name": "additionalFee",
          "type": "uint256"
        }
      ],
      "stateMutability": "nonpayable",
      "type": "function"
    }
  ],
  "bytecode": "0x60a06040523480156200001157600080fd5b50604051620027f8380380620027f883398101604081905262000034916200026e565b604080518082018252600b81526a466f784661726d2050444360a81b60208083019182528351808501909452600384526250444360e81b9084015281519192916200008291600091620001ab565b50805162000098906001906020840190620001ab565b5050600a805460ff1916905550620000b03362000151565b816001600160a01b038116620001265760405162461bcd60e51b815260206004820152603160248201527f4e6f6e7a65726f3a3a6e6f6e7a65726f416464726573733a204163636f756e746044820152701036bab9ba103132903737b73d32b9379760791b606482015260840160405180910390fd5b50600b80546001600160a01b0319166001600160a01b039485161790559116608052600c55620002ec565b600a80546001600160a01b03838116610100818102610100600160a81b031985161790945560405193909204169182907f8be0079c531659141344cd1fd0a4f28419497f9722a3daafe3b4186f6b6457e090600090a35050565b828054620001b990620002af565b90600052602060002090601f016020900481019282620001dd576000855562000228565b82601f10620001f857805160ff191683800117855562000228565b8280016001018555821562000228579182015b82811115620002285782518255916020019190600101906200020b565b50620002369291506200023a565b5090565b5b808211156200023657600081556001016200023b565b80516001600160a01b03811681146200026957600080fd5b919050565b6000806000606084860312156200028457600080fd5b6200028f8462000251565b92506200029f6020850162000251565b9150604084015190509250925092565b600181811c90821680620002c457607f821691505b60208210811415620002e657634e487b7160e01b600052602260045260246000fd5b50919050565b6080516124e96200030f600039600081816108600152610aaf01526124e96000f3fe608060405234801561001057600080fd5b50600436106101f05760003560e01c80636352211e1161010f578063a22cb465116100a2578063c9d61fcd11610071578063c9d61fcd14610436578063e985e9c51461043f578063f2fde38b1461047b578063f46901ed1461048e57600080fd5b8063a22cb465146103f4578063af640d0f14610407578063b88d4fde14610410578063c87b56dd1461042357600080fd5b80638456cb59116100de5780638456cb59146103bb5780638da5cb5b146103c35780639012c4a8146103d957806395d89b41146103ec57600080fd5b80636352211e1461034757806363da3b7f1461035a57806370a08231146103a0578063715018a6146103b357600080fd5b806323b872dd1161018757806342842e0e1161015657806342842e0e146102ee57806342966c68146103015780634f6ccce7146103295780635c975abb1461033c57600080fd5b806323b872dd146102ad5780632baf2acb146102c05780632f745c59146102d35780633f4ba83a146102e657600080fd5b8063095ea7b3116101c3578063095ea7b31461027457806318160ddd1461028957806319f4ff2f146102915780631df4ccfc146102a457600080fd5b806301ffc9a7146101f5578063026c42071461021d57806306fdde0314610234578063081812fc14610249575b600080fd5b610208610203366004611f6c565b6104a1565b60405190151581526020015b60405180910390f35b610226600f5481565b604051908152602001610214565b61023c6104cc565b6040516102149190611fe1565b61025c610257366004611ff4565b61055e565b6040516001600160a01b039091168152602001610214565b610287610282366004612029565b610585565b005b600854610226565b61028761029f366004611ff4565b6106a0565b61022660115481565b6102876102bb366004612053565b6106ee565b6102266102ce36600461208f565b61071f565b6102266102e1366004612029565b610911565b6102876109a7565b6102876102fc366004612053565b6109b9565b61031461030f366004611ff4565b6109d4565b60408051928352602083019190915201610214565b610226610337366004611ff4565b610c6f565b600a5460ff16610208565b61025c610355366004611ff4565b610d02565b61036d610368366004611ff4565b610d62565b60405161021491908151815260208083015190820152604080830151908201526060918201519181019190915260800190565b6102266103ae3660046120c2565b610e3d565b610287610ec3565b610287610ed5565b600a5461010090046001600160a01b031661025c565b6102266103e7366004611ff4565b610ee5565b61023c610ef0565b6102876104023660046120dd565b610eff565b610226600e5481565b61028761041e36600461212f565b610f0e565b61023c610431366004611ff4565b610f46565b61022660105481565b61020861044d36600461220b565b6001600160a01b03918216600090815260056020908152604080832093909416825291909152205460ff1690565b6102876104893660046120c2565b610fba565b61028761049c3660046120c2565b611033565b60006001600160e01b0319821663780e9d6360e01b14806104c657506104c682611095565b92915050565b6060600080546104db9061223e565b80601f01602080910402602001604051908101604052809291908181526020018280546105079061223e565b80156105545780601f1061052957610100808354040283529160200191610554565b820191906000526020600020905b81548152906001019060200180831161053757829003601f168201915b5050505050905090565b6000610569826110e5565b506000908152600460205260409020546001600160a01b031690565b600061059082610d02565b9050806001600160a01b0316836001600160a01b031614156106035760405162461bcd60e51b815260206004820152602160248201527f4552433732313a20617070726f76616c20746f2063757272656e74206f776e656044820152603960f91b60648201526084015b60405180910390fd5b336001600160a01b038216148061061f575061061f813361044d565b6106915760405162461bcd60e51b815260206004820152603d60248201527f4552433732313a20617070726f76652063616c6c6572206973206e6f7420746f60448201527f6b656e206f776e6572206f7220617070726f76656420666f7220616c6c00000060648201526084016105fa565b61069b8383611144565b505050565b6106a86111b2565b600c80549082905560408051828152602081018490527f249ce3aa19ca005081b3e7143ee5f00395d8ac801e1fd05ec532b214a56420f991015b60405180910390a15050565b6106f83382611212565b6107145760405162461bcd60e51b81526004016105fa90612279565b61069b838383611291565b6000610729611402565b6107316111b2565b600e805433916000610742836122dc565b9190505591506107528583611448565b60405182906001600160a01b038316907f50042401acb675fedd6dd939fccc629832ce60fa4185df25c01b20e8def195bf90600090a361079182611462565b506000828152600d602052604081208054909186918391906107b49084906122f7565b9250508190555084600f60008282546107cd91906122f7565b909155505060405185815283906001600160a01b038416907f90890809c654f11d6e72a28fa60149770a0d11ec6c92319d6ceb2bb0a4ea1a159060200160405180910390a38381600101600082825461082691906122f7565b92505081905550836010600082825461083f91906122f7565b90915550506040516308934a5f60e31b8152306004820152602481018590527f00000000000000000000000000000000000000000000000000000000000000006001600160a01b03169063449a52f890604401600060405180830381600087803b1580156108ac57600080fd5b505af11580156108c0573d6000803e3d6000fd5b5050505082826001600160a01b03167fe1979fe4c35e0cef342fef5668e2c8e7a7e9f5d5d1ca8fee0ac6c427fa4153af8660405161090091815260200190565b60405180910390a350509392505050565b600061091c83610e3d565b821061097e5760405162461bcd60e51b815260206004820152602b60248201527f455243373231456e756d657261626c653a206f776e657220696e646578206f7560448201526a74206f6620626f756e647360a81b60648201526084016105fa565b506001600160a01b03919091166000908152600660209081526040808320938352929052205490565b6109af6111b2565b6109b761156d565b565b61069b83838360405180602001604052806000815250610f0e565b6000806109df611402565b33836109eb8282611212565b610a535760405162461bcd60e51b815260206004820152603360248201527f436f75706f6e3a3a6f6e6c79506463417070726f7665644f724f776e65723a206044820152722737ba1030903b30b634b21031b0b63632b91760691b60648201526084016105fa565b610a5c85611462565b506000858152600d6020526040902060028101548154600b54909650339291906001600160a01b0316610a93578160010154610aa3565b808260010154610aa3919061230f565b95506001600160a01b037f0000000000000000000000000000000000000000000000000000000000000000166379cc679030610adf848a6122f7565b6040516001600160e01b031960e085901b1681526001600160a01b0390921660048301526024820152604401600060405180830381600087803b158015610b2557600080fd5b505af1158015610b39573d6000803e3d6000fd5b505050508560106000828254610b4f919061230f565b925050819055508060116000828254610b68919061230f565b909155505060405186815288906001600160a01b038516907f77c6871227e5d2dec8dadd5354f78453203e22e669cd0ec4c19d9a8c5edb31d09060200160405180910390a386600f6000828254610bbf919061230f565b909155505060405187815288906001600160a01b038516907ff279e6a1f5e320cca91135676d9cb6e44ca8a08c0b88342bcdb1144f6511b5689060200160405180910390a3610c0d886115bf565b6000888152600d602052604080822082815560018101839055600281018390556003018290555189916001600160a01b038616917f684222b0069d4a2e5e0d986611cc5182d543904c4e4264bf770d4e51faefc8229190a35050505050915091565b6000610c7a60085490565b8210610cdd5760405162461bcd60e51b815260206004820152602c60248201527f455243373231456e756d657261626c653a20676c6f62616c20696e646578206f60448201526b7574206f6620626f756e647360a01b60648201526084016105fa565b60088281548110610cf057610cf0612326565b90600052602060002001549050919050565b6000818152600260205260408120546001600160a01b0316806104c65760405162461bcd60e51b8152602060048201526018602482015277115490cdcc8c4e881a5b9d985b1a59081d1bdad95b88125160421b60448201526064016105fa565b610d8d6040518060800160405280600081526020016000815260200160008152602001600081525090565b6000828152600d60209081526040918290208251608081018452815481526001820154928101929092526002810154928201929092526003909101546060820152610ddc61271061016d61233c565b610de790601861233c565b610df290603c61233c565b610dfd90603c61233c565b600c546060830151610e0f904261230f565b8360200151610e1e919061233c565b610e28919061233c565b610e32919061235b565b604082015292915050565b60006001600160a01b038216610ea75760405162461bcd60e51b815260206004820152602960248201527f4552433732313a2061646472657373207a65726f206973206e6f7420612076616044820152683634b21037bbb732b960b91b60648201526084016105fa565b506001600160a01b031660009081526003602052604090205490565b610ecb6111b2565b6109b76000611662565b610edd6111b2565b6109b76116bc565b60006104c682611462565b6060600180546104db9061223e565b610f0a3383836116f9565b5050565b610f183383611212565b610f345760405162461bcd60e51b81526004016105fa90612279565b610f40848484846117c8565b50505050565b6060610f51826110e5565b6000610f6860408051602081019091526000815290565b90506000815111610f885760405180602001604052806000815250610fb3565b80610f92846117fb565b604051602001610fa392919061237d565b6040516020818303038152906040525b9392505050565b610fc26111b2565b6001600160a01b0381166110275760405162461bcd60e51b815260206004820152602660248201527f4f776e61626c653a206e6577206f776e657220697320746865207a65726f206160448201526564647265737360d01b60648201526084016105fa565b61103081611662565b50565b61103b6111b2565b600b80546001600160a01b038381166001600160a01b031983168117909355604080519190921680825260208201939093527f41d2755f00068d89c23ebc6f1e73ce119a6236a44517ca061f544a3f91c9bca491016106e2565b60006001600160e01b031982166380ac58cd60e01b14806110c657506001600160e01b03198216635b5e139f60e01b145b806104c657506301ffc9a760e01b6001600160e01b03198316146104c6565b6000818152600260205260409020546001600160a01b03166110305760405162461bcd60e51b8152602060048201526018602482015277115490cdcc8c4e881a5b9d985b1a59081d1bdad95b88125160421b60448201526064016105fa565b600081815260046020526040902080546001600160a01b0319166001600160a01b038416908117909155819061117982610d02565b6001600160a01b03167f8c5be1e5ebec7d5bd14f71427d1e84f3dd0314c0f7b2291e5b200ac8c7c3b92560405160405180910390a45050565b600a546001600160a01b036101009091041633146109b75760405162461bcd60e51b815260206004820181905260248201527f4f776e61626c653a2063616c6c6572206973206e6f7420746865206f776e657260448201526064016105fa565b60008061121e83610d02565b9050806001600160a01b0316846001600160a01b0316148061126557506001600160a01b0380821660009081526005602090815260408083209388168352929052205460ff165b806112895750836001600160a01b031661127e8461055e565b6001600160a01b0316145b949350505050565b826001600160a01b03166112a482610d02565b6001600160a01b0316146112ca5760405162461bcd60e51b81526004016105fa906123ac565b6001600160a01b03821661132c5760405162461bcd60e51b8152602060048201526024808201527f4552433732313a207472616e7366657220746f20746865207a65726f206164646044820152637265737360e01b60648201526084016105fa565b6113398383836001611898565b826001600160a01b031661134c82610d02565b6001600160a01b0316146113725760405162461bcd60e51b81526004016105fa906123ac565b600081815260046020908152604080832080546001600160a01b03199081169091556001600160a01b0387811680865260038552838620805460001901905590871680865283862080546001019055868652600290945282852080549092168417909155905184937fddf252ad1be2c89b69c2b068fc378daa952ba7f163c4a11628f55a4df523b3ef91a4505050565b600a5460ff16156109b75760405162461bcd60e51b815260206004820152601060248201526f14185d5cd8589b194e881c185d5cd95960821b60448201526064016105fa565b610f0a8282604051806020016040528060008152506119cc565b6000818152600d602052604081206003810154600282015461148861271061016d61233c565b61149390601861233c565b61149e90603c61233c565b6114a990603c61233c565b600c546114b6844261230f565b85600101546114c5919061233c565b6114cf919061233c565b6114d9919061235b565b9350838360020160008282546114ef91906122f7565b92505081905550836011600082825461150891906122f7565b9091555050426003840181905560028401546040805184815260208101929092528101849052606081019190915285907f058060763f0c6ae3b30d3624dbb6899601ed67b215a0b7591707778c7218db2f9060800160405180910390a2505050919050565b6115756119ff565b600a805460ff191690557f5db9ee0a495bf2e6ff9c91a7834c1ba4fdd244a5e8aa4e537bd38aeae4b073aa335b6040516001600160a01b03909116815260200160405180910390a1565b60006115ca82610d02565b90506115da816000846001611898565b6115e382610d02565b600083815260046020908152604080832080546001600160a01b03199081169091556001600160a01b0385168085526003845282852080546000190190558785526002909352818420805490911690555192935084927fddf252ad1be2c89b69c2b068fc378daa952ba7f163c4a11628f55a4df523b3ef908390a45050565b600a80546001600160a01b03838116610100818102610100600160a81b031985161790945560405193909204169182907f8be0079c531659141344cd1fd0a4f28419497f9722a3daafe3b4186f6b6457e090600090a35050565b6116c4611402565b600a805460ff191660011790557f62e78cea01bee320cd4e420270b5ea74000d11b0c9f74754ebdbfc544b05a2586115a23390565b816001600160a01b0316836001600160a01b0316141561175b5760405162461bcd60e51b815260206004820152601960248201527f4552433732313a20617070726f766520746f2063616c6c65720000000000000060448201526064016105fa565b6001600160a01b03838116600081815260056020908152604080832094871680845294825291829020805460ff191686151590811790915591519182527f17307eab39ab6107e8899845ad3d59bd9653f200f220920489ca2b5937696c31910160405180910390a3505050565b6117d3848484611291565b6117df84848484611a48565b610f405760405162461bcd60e51b81526004016105fa906123f1565b6060600061180883611b55565b600101905060008167ffffffffffffffff81111561182857611828612119565b6040519080825280601f01601f191660200182016040528015611852576020820181803683370190505b5090508181016020015b600019016f181899199a1a9b1b9c1cb0b131b232b360811b600a86061a8153600a850494508461188b57611890565b61185c565b509392505050565b60018111156119075760405162461bcd60e51b815260206004820152603560248201527f455243373231456e756d657261626c653a20636f6e7365637574697665207472604482015274185b9cd9995c9cc81b9bdd081cdd5c1c1bdc9d1959605a1b60648201526084016105fa565b816001600160a01b0385166119635761195e81600880546000838152600960205260408120829055600182018355919091527ff3f7a9fe364faab93b216da50a3214154f22a0a2b415b23a84c8169e8b636ee30155565b611986565b836001600160a01b0316856001600160a01b031614611986576119868582611c2d565b6001600160a01b0384166119a25761199d81611cca565b6119c5565b846001600160a01b0316846001600160a01b0316146119c5576119c58482611d79565b5050505050565b6119d68383611dbd565b6119e36000848484611a48565b61069b5760405162461bcd60e51b81526004016105fa906123f1565b600a5460ff166109b75760405162461bcd60e51b815260206004820152601460248201527314185d5cd8589b194e881b9bdd081c185d5cd95960621b60448201526064016105fa565b60006001600160a01b0384163b15611b4a57604051630a85bd0160e11b81526001600160a01b0385169063150b7a0290611a8c903390899088908890600401612443565b602060405180830381600087803b158015611aa657600080fd5b505af1925050508015611ad6575060408051601f3d908101601f19168201909252611ad391810190612480565b60015b611b30573d808015611b04576040519150601f19603f3d011682016040523d82523d6000602084013e611b09565b606091505b508051611b285760405162461bcd60e51b81526004016105fa906123f1565b805181602001fd5b6001600160e01b031916630a85bd0160e11b149050611289565b506001949350505050565b60008072184f03e93ff9f4daa797ed6e38ed64bf6a1f0160401b8310611b945772184f03e93ff9f4daa797ed6e38ed64bf6a1f0160401b830492506040015b6d04ee2d6d415b85acef81000000008310611bc0576d04ee2d6d415b85acef8100000000830492506020015b662386f26fc100008310611bde57662386f26fc10000830492506010015b6305f5e1008310611bf6576305f5e100830492506008015b6127108310611c0a57612710830492506004015b60648310611c1c576064830492506002015b600a83106104c65760010192915050565b60006001611c3a84610e3d565b611c44919061230f565b600083815260076020526040902054909150808214611c97576001600160a01b03841660009081526006602090815260408083208584528252808320548484528184208190558352600790915290208190555b5060009182526007602090815260408084208490556001600160a01b039094168352600681528383209183525290812055565b600854600090611cdc9060019061230f565b60008381526009602052604081205460088054939450909284908110611d0457611d04612326565b906000526020600020015490508060088381548110611d2557611d25612326565b6000918252602080832090910192909255828152600990915260408082208490558582528120556008805480611d5d57611d5d61249d565b6001900381819060005260206000200160009055905550505050565b6000611d8483610e3d565b6001600160a01b039093166000908152600660209081526040808320868452825280832085905593825260079052919091209190915550565b6001600160a01b038216611e135760405162461bcd60e51b815260206004820181905260248201527f4552433732313a206d696e7420746f20746865207a65726f206164647265737360448201526064016105fa565b6000818152600260205260409020546001600160a01b031615611e785760405162461bcd60e51b815260206004820152601c60248201527f4552433732313a20746f6b656e20616c7265616479206d696e7465640000000060448201526064016105fa565b611e86600083836001611898565b6000818152600260205260409020546001600160a01b031615611eeb5760405162461bcd60e51b815260206004820152601c60248201527f4552433732313a20746f6b656e20616c7265616479206d696e7465640000000060448201526064016105fa565b6001600160a01b038216600081815260036020908152604080832080546001019055848352600290915280822080546001600160a01b0319168417905551839291907fddf252ad1be2c89b69c2b068fc378daa952ba7f163c4a11628f55a4df523b3ef908290a45050565b6001600160e01b03198116811461103057600080fd5b600060208284031215611f7e57600080fd5b8135610fb381611f56565b60005b83811015611fa4578181015183820152602001611f8c565b83811115610f405750506000910152565b60008151808452611fcd816020860160208601611f89565b601f01601f19169290920160200192915050565b602081526000610fb36020830184611fb5565b60006020828403121561200657600080fd5b5035919050565b80356001600160a01b038116811461202457600080fd5b919050565b6000806040838503121561203c57600080fd5b6120458361200d565b946020939093013593505050565b60008060006060848603121561206857600080fd5b6120718461200d565b925061207f6020850161200d565b9150604084013590509250925092565b6000806000606084860312156120a457600080fd5b6120ad8461200d565b95602085013595506040909401359392505050565b6000602082840312156120d457600080fd5b610fb38261200d565b600080604083850312156120f057600080fd5b6120f98361200d565b91506020830135801515811461210e57600080fd5b809150509250929050565b634e487b7160e01b600052604160045260246000fd5b6000806000806080858703121561214557600080fd5b61214e8561200d565b935061215c6020860161200d565b925060408501359150606085013567ffffffffffffffff8082111561218057600080fd5b818701915087601f83011261219457600080fd5b8135818111156121a6576121a6612119565b604051601f8201601f19908116603f011681019083821181831017156121ce576121ce612119565b816040528281528a60208487010111156121e757600080fd5b82602086016020830137600060208483010152809550505050505092959194509250565b6000806040838503121561221e57600080fd5b6122278361200d565b91506122356020840161200d565b90509250929050565b600181811c9082168061225257607f821691505b6020821081141561227357634e487b7160e01b600052602260045260246000fd5b50919050565b6020808252602d908201527f4552433732313a2063616c6c6572206973206e6f7420746f6b656e206f776e6560408201526c1c881bdc88185c1c1c9bdd9959609a1b606082015260800190565b634e487b7160e01b600052601160045260246000fd5b60006000198214156122f0576122f06122c6565b5060010190565b6000821982111561230a5761230a6122c6565b500190565b600082821015612321576123216122c6565b500390565b634e487b7160e01b600052603260045260246000fd5b6000816000190483118215151615612356576123566122c6565b500290565b60008261237857634e487b7160e01b600052601260045260246000fd5b500490565b6000835161238f818460208801611f89565b8351908301906123a3818360208801611f89565b01949350505050565b60208082526025908201527f4552433732313a207472616e736665722066726f6d20696e636f72726563742060408201526437bbb732b960d91b606082015260800190565b60208082526032908201527f4552433732313a207472616e7366657220746f206e6f6e20455243373231526560408201527131b2b4bb32b91034b6b83632b6b2b73a32b960711b606082015260800190565b6001600160a01b038581168252841660208201526040810183905260806060820181905260009061247690830184611fb5565b9695505050505050565b60006020828403121561249257600080fd5b8151610fb381611f56565b634e487b7160e01b600052603160045260246000fdfea2646970667358221220a3a4a67d3d585d3be262fdebdb9e1dc2cf167e9b93280d3396126426c70ac84864736f6c63430008090033",
  "linkReferences": {},
  "deployedLinkReferences": {}
}