{
  "_format": "hh-sol-artifact-1",
  "contractName": "FOX",
  "sourceName": "contracts/tokens/FOX.sol",
  "abi": [
    {
      "inputs": [
        {
          "internalType": "address",
          "name": "oracleFeeder_",
          "type": "address"
        },
        {
          "internalType": "address",
          "name": "feeTo_",
          "type": "address"
        },
        {
          "internalType": "address",
          "name": "debtToken_",
          "type": "address"
        },
        {
          "internalType": "address",
          "name": "shareToken_",
          "type": "address"
        },
        {
          "internalType": "uint256",
          "name": "mintFeeRatio_",
          "type": "uint256"
        },
        {
          "internalType": "uint256",
          "name": "burnFeeRatio_",
          "type": "uint256"
        },
        {
          "internalType": "uint256",
          "name": "bonusRatio_",
          "type": "uint256"
        }
      ],
      "stateMutability": "nonpayable",
      "type": "constructor"
    },
    {
      "anonymous": false,
      "inputs": [
        {
          "indexed": true,
          "internalType": "address",
          "name": "owner",
          "type": "address"
        },
        {
          "indexed": true,
          "internalType": "address",
          "name": "spender",
          "type": "address"
        },
        {
          "indexed": false,
          "internalType": "uint256",
          "name": "value",
          "type": "uint256"
        }
      ],
      "name": "Approval",
      "type": "event"
    },
    {
      "anonymous": false,
      "inputs": [
        {
          "indexed": true,
          "internalType": "address",
          "name": "foxFarm",
          "type": "address"
        }
      ],
      "name": "Initialize",
      "type": "event"
    },
    {
      "anonymous": false,
      "inputs": [
        {
          "indexed": true,
          "internalType": "address",
          "name": "previousOwner",
          "type": "address"
        },
        {
          "indexed": true,
          "internalType": "address",
          "name": "newOwner",
          "type": "address"
        }
      ],
      "name": "OwnershipTransferred",
      "type": "event"
    },
    {
      "anonymous": false,
      "inputs": [
        {
          "indexed": false,
          "internalType": "address",
          "name": "account",
          "type": "address"
        }
      ],
      "name": "Paused",
      "type": "event"
    },
    {
      "anonymous": false,
      "inputs": [
        {
          "indexed": false,
          "internalType": "uint256",
          "name": "prevBonusRatio",
          "type": "uint256"
        },
        {
          "indexed": false,
          "internalType": "uint256",
          "name": "currBonusRatio",
          "type": "uint256"
        }
      ],
      "name": "SetBonusRatio",
      "type": "event"
    },
    {
      "anonymous": false,
      "inputs": [
        {
          "indexed": false,
          "internalType": "uint256",
          "name": "prevBurnFeeRatio",
          "type": "uint256"
        },
        {
          "indexed": false,
          "internalType": "uint256",
          "name": "currBurnFeeRatio",
          "type": "uint256"
        }
      ],
      "name": "SetBurnFeeRatio",
      "type": "event"
    },
    {
      "anonymous": false,
      "inputs": [
        {
          "indexed": false,
          "internalType": "address",
          "name": "prevFeeTo",
          "type": "address"
        },
        {
          "indexed": false,
          "internalType": "address",
          "name": "currFeeTo",
          "type": "address"
        }
      ],
      "name": "SetFeeTo",
      "type": "event"
    },
    {
      "anonymous": false,
      "inputs": [
        {
          "indexed": false,
          "internalType": "uint256",
          "name": "prevMintFeeRatio",
          "type": "uint256"
        },
        {
          "indexed": false,
          "internalType": "uint256",
          "name": "currMintFeeRatio",
          "type": "uint256"
        }
      ],
      "name": "SetMintFeeRatio",
      "type": "event"
    },
    {
      "anonymous": false,
      "inputs": [
        {
          "indexed": true,
          "internalType": "address",
          "name": "from",
          "type": "address"
        },
        {
          "indexed": true,
          "internalType": "address",
          "name": "to",
          "type": "address"
        },
        {
          "indexed": false,
          "internalType": "uint256",
          "name": "value",
          "type": "uint256"
        }
      ],
      "name": "Transfer",
      "type": "event"
    },
    {
      "anonymous": false,
      "inputs": [
        {
          "indexed": false,
          "internalType": "address",
          "name": "account",
          "type": "address"
        }
      ],
      "name": "Unpaused",
      "type": "event"
    },
    {
      "anonymous": false,
      "inputs": [
        {
          "indexed": false,
          "internalType": "address",
          "name": "prevOracleFeeder",
          "type": "address"
        },
        {
          "indexed": false,
          "internalType": "address",
          "name": "currOracle",
          "type": "address"
        }
      ],
      "name": "UpdateOracleFeeder",
      "type": "event"
    },
    {
      "anonymous": false,
      "inputs": [
        {
          "indexed": true,
          "internalType": "address",
          "name": "token",
          "type": "address"
        },
        {
          "indexed": false,
          "internalType": "uint256",
          "name": "prevPrice",
          "type": "uint256"
        },
        {
          "indexed": false,
          "internalType": "uint256",
          "name": "currPrice",
          "type": "uint256"
        }
      ],
      "name": "UpdatePrice",
      "type": "event"
    },
    {
      "inputs": [
        {
          "internalType": "address",
          "name": "owner",
          "type": "address"
        },
        {
          "internalType": "address",
          "name": "spender",
          "type": "address"
        }
      ],
      "name": "allowance",
      "outputs": [
        {
          "internalType": "uint256",
          "name": "",
          "type": "uint256"
        }
      ],
      "stateMutability": "view",
      "type": "function"
    },
    {
      "inputs": [
        {
          "internalType": "address",
          "name": "spender",
          "type": "address"
        },
        {
          "internalType": "uint256",
          "name": "amount",
          "type": "uint256"
        }
      ],
      "name": "approve",
      "outputs": [
        {
          "internalType": "bool",
          "name": "",
          "type": "bool"
        }
      ],
      "stateMutability": "nonpayable",
      "type": "function"
    },
    {
      "inputs": [
        {
          "internalType": "address",
          "name": "spender",
          "type": "address"
        }
      ],
      "name": "approveMax",
      "outputs": [],
      "stateMutability": "nonpayable",
      "type": "function"
    },
    {
      "inputs": [
        {
          "internalType": "address",
          "name": "account",
          "type": "address"
        }
      ],
      "name": "balanceOf",
      "outputs": [
        {
          "internalType": "uint256",
          "name": "",
          "type": "uint256"
        }
      ],
      "stateMutability": "view",
      "type": "function"
    },
    {
      "inputs": [],
      "name": "bonusRatio",
      "outputs": [
        {
          "internalType": "uint256",
          "name": "",
          "type": "uint256"
        }
      ],
      "stateMutability": "view",
      "type": "function"
    },
    {
      "inputs": [],
      "name": "burnFeeRatio",
      "outputs": [
        {
          "internalType": "uint256",
          "name": "",
          "type": "uint256"
        }
      ],
      "stateMutability": "view",
      "type": "function"
    },
    {
      "inputs": [
        {
          "internalType": "address",
          "name": "toAccount_",
          "type": "address"
        },
        {
          "internalType": "uint256",
          "name": "shareAmount_",
          "type": "uint256"
        }
      ],
      "name": "buyback",
      "outputs": [
        {
          "internalType": "uint256",
          "name": "debtAmount_",
          "type": "uint256"
        }
      ],
      "stateMutability": "nonpayable",
      "type": "function"
    },
    {
      "inputs": [],
      "name": "currentTrustLevel",
      "outputs": [
        {
          "internalType": "uint256",
          "name": "",
          "type": "uint256"
        }
      ],
      "stateMutability": "view",
      "type": "function"
    },
    {
      "inputs": [],
      "name": "decimals",
      "outputs": [
        {
          "internalType": "uint8",
          "name": "",
          "type": "uint8"
        }
      ],
      "stateMutability": "view",
      "type": "function"
    },
    {
      "inputs": [
        {
          "internalType": "address",
          "name": "spender",
          "type": "address"
        },
        {
          "internalType": "uint256",
          "name": "subtractedValue",
          "type": "uint256"
        }
      ],
      "name": "decreaseAllowance",
      "outputs": [
        {
          "internalType": "bool",
          "name": "",
          "type": "bool"
        }
      ],
      "stateMutability": "nonpayable",
      "type": "function"
    },
    {
      "inputs": [],
      "name": "deltaTrust",
      "outputs": [
        {
          "internalType": "int256",
          "name": "",
          "type": "int256"
        }
      ],
      "stateMutability": "view",
      "type": "function"
    },
    {
      "inputs": [],
      "name": "deltaTrustLevel",
      "outputs": [
        {
          "internalType": "int256",
          "name": "",
          "type": "int256"
        }
      ],
      "stateMutability": "view",
      "type": "function"
    },
    {
      "inputs": [
        {
          "internalType": "uint256",
          "name": "shareAmount_",
          "type": "uint256"
        }
      ],
      "name": "exchangedDebtAmountFromShare",
      "outputs": [
        {
          "internalType": "uint256",
          "name": "debtAmount_",
          "type": "uint256"
        }
      ],
      "stateMutability": "view",
      "type": "function"
    },
    {
      "inputs": [
        {
          "internalType": "uint256",
          "name": "debtAmount_",
          "type": "uint256"
        }
      ],
      "name": "exchangedShareAmountFromDebt",
      "outputs": [
        {
          "internalType": "uint256",
          "name": "shareAmount_",
          "type": "uint256"
        }
      ],
      "stateMutability": "view",
      "type": "function"
    },
    {
      "inputs": [
        {
          "internalType": "uint256",
          "name": "debtAmount_",
          "type": "uint256"
        }
      ],
      "name": "exchangedShareAmountFromDebtWithBonus",
      "outputs": [
        {
          "internalType": "uint256",
          "name": "shareAmount_",
          "type": "uint256"
        }
      ],
      "stateMutability": "view",
      "type": "function"
    },
    {
      "inputs": [
        {
          "internalType": "uint256",
          "name": "debtAmount_",
          "type": "uint256"
        },
        {
          "internalType": "uint256",
          "name": "shareAmount_",
          "type": "uint256"
        }
      ],
      "name": "expectedMintAmount",
      "outputs": [
        {
          "internalType": "uint256",
          "name": "stableAmount_",
          "type": "uint256"
        }
      ],
      "stateMutability": "view",
      "type": "function"
    },
    {
      "inputs": [
        {
          "internalType": "uint256",
          "name": "debtAmount_",
          "type": "uint256"
        },
        {
          "internalType": "uint256",
          "name": "shareAmount_",
          "type": "uint256"
        }
      ],
      "name": "expectedMintAmountWithMintFee",
      "outputs": [
        {
          "internalType": "uint256",
          "name": "stableAmount_",
          "type": "uint256"
        },
        {
          "internalType": "uint256",
          "name": "mintFee_",
          "type": "uint256"
        }
      ],
      "stateMutability": "view",
      "type": "function"
    },
    {
      "inputs": [
        {
          "internalType": "uint256",
          "name": "stableAmount_",
          "type": "uint256"
        }
      ],
      "name": "expectedRedeemAmount",
      "outputs": [
        {
          "internalType": "uint256",
          "name": "debtAmount_",
          "type": "uint256"
        },
        {
          "internalType": "uint256",
          "name": "shareAmount_",
          "type": "uint256"
        }
      ],
      "stateMutability": "view",
      "type": "function"
    },
    {
      "inputs": [
        {
          "internalType": "uint256",
          "name": "stableAmount_",
          "type": "uint256"
        }
      ],
      "name": "expectedRedeemAmountWithBurnFee",
      "outputs": [
        {
          "internalType": "uint256",
          "name": "debtAmount_",
          "type": "uint256"
        },
        {
          "internalType": "uint256",
          "name": "shareAmount_",
          "type": "uint256"
        },
        {
          "internalType": "uint256",
          "name": "burnFee_",
          "type": "uint256"
        }
      ],
      "stateMutability": "view",
      "type": "function"
    },
    {
      "inputs": [
        {
          "internalType": "address",
          "name": "spender",
          "type": "address"
        },
        {
          "internalType": "uint256",
          "name": "addedValue",
          "type": "uint256"
        }
      ],
      "name": "increaseAllowance",
      "outputs": [
        {
          "internalType": "bool",
          "name": "",
          "type": "bool"
        }
      ],
      "stateMutability": "nonpayable",
      "type": "function"
    },
    {
      "inputs": [
        {
          "internalType": "address",
          "name": "foxFarm_",
          "type": "address"
        }
      ],
      "name": "initialize",
      "outputs": [],
      "stateMutability": "nonpayable",
      "type": "function"
    },
    {
      "inputs": [
        {
          "internalType": "uint256",
          "name": "TIME_PERIOD",
          "type": "uint256"
        }
      ],
      "name": "isPassInterval",
      "outputs": [
        {
          "internalType": "bool",
          "name": "",
          "type": "bool"
        }
      ],
      "stateMutability": "view",
      "type": "function"
    },
    {
      "inputs": [
        {
          "internalType": "address",
          "name": "toAccount_",
          "type": "address"
        },
        {
          "internalType": "uint256",
          "name": "debtAmount_",
          "type": "uint256"
        },
        {
          "internalType": "uint256",
          "name": "shareAmount_",
          "type": "uint256"
        }
      ],
      "name": "mint",
      "outputs": [
        {
          "internalType": "uint256",
          "name": "stableAmount_",
          "type": "uint256"
        }
      ],
      "stateMutability": "nonpayable",
      "type": "function"
    },
    {
      "inputs": [],
      "name": "mintFeeRatio",
      "outputs": [
        {
          "internalType": "uint256",
          "name": "",
          "type": "uint256"
        }
      ],
      "stateMutability": "view",
      "type": "function"
    },
    {
      "inputs": [],
      "name": "name",
      "outputs": [
        {
          "internalType": "string",
          "name": "",
          "type": "string"
        }
      ],
      "stateMutability": "view",
      "type": "function"
    },
    {
      "inputs": [],
      "name": "owner",
      "outputs": [
        {
          "internalType": "address",
          "name": "",
          "type": "address"
        }
      ],
      "stateMutability": "view",
      "type": "function"
    },
    {
      "inputs": [],
      "name": "pause",
      "outputs": [],
      "stateMutability": "nonpayable",
      "type": "function"
    },
    {
      "inputs": [],
      "name": "paused",
      "outputs": [
        {
          "internalType": "bool",
          "name": "",
          "type": "bool"
        }
      ],
      "stateMutability": "view",
      "type": "function"
    },
    {
      "inputs": [
        {
          "internalType": "address",
          "name": "toAccount_",
          "type": "address"
        },
        {
          "internalType": "uint256",
          "name": "debtAmount_",
          "type": "uint256"
        }
      ],
      "name": "recollateralize",
      "outputs": [
        {
          "internalType": "uint256",
          "name": "shareAmount_",
          "type": "uint256"
        },
        {
          "internalType": "uint256",
          "name": "bonusAmount_",
          "type": "uint256"
        }
      ],
      "stateMutability": "nonpayable",
      "type": "function"
    },
    {
      "inputs": [
        {
          "internalType": "address",
          "name": "toAccount_",
          "type": "address"
        },
        {
          "internalType": "uint256",
          "name": "stableAmount_",
          "type": "uint256"
        }
      ],
      "name": "redeem",
      "outputs": [
        {
          "internalType": "uint256",
          "name": "debtAmount_",
          "type": "uint256"
        },
        {
          "internalType": "uint256",
          "name": "shareAmount_",
          "type": "uint256"
        }
      ],
      "stateMutability": "nonpayable",
      "type": "function"
    },
    {
      "inputs": [],
      "name": "renounceOwnership",
      "outputs": [],
      "stateMutability": "nonpayable",
      "type": "function"
    },
    {
      "inputs": [
        {
          "internalType": "uint256",
          "name": "shareAmount_",
          "type": "uint256"
        }
      ],
      "name": "requiredDebtAmountFromShare",
      "outputs": [
        {
          "internalType": "uint256",
          "name": "debtAmount_",
          "type": "uint256"
        }
      ],
      "stateMutability": "view",
      "type": "function"
    },
    {
      "inputs": [
        {
          "internalType": "uint256",
          "name": "stableAmount_",
          "type": "uint256"
        }
      ],
      "name": "requiredDebtAmountFromStable",
      "outputs": [
        {
          "internalType": "uint256",
          "name": "debtAmount_",
          "type": "uint256"
        }
      ],
      "stateMutability": "view",
      "type": "function"
    },
    {
      "inputs": [
        {
          "internalType": "uint256",
          "name": "stableAmount_",
          "type": "uint256"
        }
      ],
      "name": "requiredDebtAmountFromStableWithBurnFee",
      "outputs": [
        {
          "internalType": "uint256",
          "name": "debtAmount_",
          "type": "uint256"
        }
      ],
      "stateMutability": "view",
      "type": "function"
    },
    {
      "inputs": [
        {
          "internalType": "uint256",
          "name": "stableAmount_",
          "type": "uint256"
        }
      ],
      "name": "requiredDebtAmountFromStableWithMintFee",
      "outputs": [
        {
          "internalType": "uint256",
          "name": "debtAmount_",
          "type": "uint256"
        }
      ],
      "stateMutability": "view",
      "type": "function"
    },
    {
      "inputs": [
        {
          "internalType": "uint256",
          "name": "debtAmount_",
          "type": "uint256"
        }
      ],
      "name": "requiredShareAmountFromDebt",
      "outputs": [
        {
          "internalType": "uint256",
          "name": "shareAmount_",
          "type": "uint256"
        }
      ],
      "stateMutability": "view",
      "type": "function"
    },
    {
      "inputs": [
        {
          "internalType": "uint256",
          "name": "stableAmount_",
          "type": "uint256"
        }
      ],
      "name": "requiredShareAmountFromStable",
      "outputs": [
        {
          "internalType": "uint256",
          "name": "shareAmount_",
          "type": "uint256"
        }
      ],
      "stateMutability": "view",
      "type": "function"
    },
    {
      "inputs": [
        {
          "internalType": "uint256",
          "name": "stableAmount_",
          "type": "uint256"
        }
      ],
      "name": "requiredShareAmountFromStableWithBurnFee",
      "outputs": [
        {
          "internalType": "uint256",
          "name": "shareAmount_",
          "type": "uint256"
        }
      ],
      "stateMutability": "view",
      "type": "function"
    },
    {
      "inputs": [
        {
          "internalType": "uint256",
          "name": "stableAmount_",
          "type": "uint256"
        }
      ],
      "name": "requiredShareAmountFromStableWithMintFee",
      "outputs": [
        {
          "internalType": "uint256",
          "name": "shareAmount_",
          "type": "uint256"
        }
      ],
      "stateMutability": "view",
      "type": "function"
    },
    {
      "inputs": [
        {
          "internalType": "uint256",
          "name": "debtAmount_",
          "type": "uint256"
        }
      ],
      "name": "requiredStableAmountFromDebt",
      "outputs": [
        {
          "internalType": "uint256",
          "name": "stableAmount_",
          "type": "uint256"
        }
      ],
      "stateMutability": "view",
      "type": "function"
    },
    {
      "inputs": [
        {
          "internalType": "uint256",
          "name": "debtAmount_",
          "type": "uint256"
        }
      ],
      "name": "requiredStableAmountFromDebtWithBurnFee",
      "outputs": [
        {
          "internalType": "uint256",
          "name": "stableAmount_",
          "type": "uint256"
        }
      ],
      "stateMutability": "view",
      "type": "function"
    },
    {
      "inputs": [
        {
          "internalType": "uint256",
          "name": "newBonusRatio",
          "type": "uint256"
        }
      ],
      "name": "setBonusRatio",
      "outputs": [],
      "stateMutability": "nonpayable",
      "type": "function"
    },
    {
      "inputs": [
        {
          "internalType": "uint256",
          "name": "newBunrFeeRatio",
          "type": "uint256"
        }
      ],
      "name": "setBurnFeeRatio",
      "outputs": [],
      "stateMutability": "nonpayable",
      "type": "function"
    },
    {
      "inputs": [
        {
          "internalType": "address",
          "name": "newFeeTo",
          "type": "address"
        }
      ],
      "name": "setFeeTo",
      "outputs": [],
      "stateMutability": "nonpayable",
      "type": "function"
    },
    {
      "inputs": [
        {
          "internalType": "uint256",
          "name": "newMintFeeRatio",
          "type": "uint256"
        }
      ],
      "name": "setMintFeeRatio",
      "outputs": [],
      "stateMutability": "nonpayable",
      "type": "function"
    },
    {
      "inputs": [],
      "name": "sharePrice",
      "outputs": [
        {
          "internalType": "uint256",
          "name": "",
          "type": "uint256"
        }
      ],
      "stateMutability": "view",
      "type": "function"
    },
    {
      "inputs": [],
      "name": "shortfallRecollateralizeAmount",
      "outputs": [
        {
          "internalType": "uint256",
          "name": "debtAmount_",
          "type": "uint256"
        }
      ],
      "stateMutability": "view",
      "type": "function"
    },
    {
      "inputs": [
        {
          "internalType": "address",
          "name": "toAccount_",
          "type": "address"
        }
      ],
      "name": "skim",
      "outputs": [
        {
          "internalType": "uint256",
          "name": "shareAmount_",
          "type": "uint256"
        }
      ],
      "stateMutability": "nonpayable",
      "type": "function"
    },
    {
      "inputs": [],
      "name": "stablePrice",
      "outputs": [
        {
          "internalType": "uint256",
          "name": "",
          "type": "uint256"
        }
      ],
      "stateMutability": "view",
      "type": "function"
    },
    {
      "inputs": [],
      "name": "step",
      "outputs": [
        {
          "internalType": "uint256",
          "name": "",
          "type": "uint256"
        }
      ],
      "stateMutability": "view",
      "type": "function"
    },
    {
      "inputs": [],
      "name": "surplusBuybackAmount",
      "outputs": [
        {
          "internalType": "uint256",
          "name": "debtAmount_",
          "type": "uint256"
        }
      ],
      "stateMutability": "view",
      "type": "function"
    },
    {
      "inputs": [],
      "name": "symbol",
      "outputs": [
        {
          "internalType": "string",
          "name": "",
          "type": "string"
        }
      ],
      "stateMutability": "view",
      "type": "function"
    },
    {
      "inputs": [],
      "name": "totalSupply",
      "outputs": [
        {
          "internalType": "uint256",
          "name": "",
          "type": "uint256"
        }
      ],
      "stateMutability": "view",
      "type": "function"
    },
    {
      "inputs": [
        {
          "internalType": "address",
          "name": "to",
          "type": "address"
        },
        {
          "internalType": "uint256",
          "name": "amount",
          "type": "uint256"
        }
      ],
      "name": "transfer",
      "outputs": [
        {
          "internalType": "bool",
          "name": "",
          "type": "bool"
        }
      ],
      "stateMutability": "nonpayable",
      "type": "function"
    },
    {
      "inputs": [
        {
          "internalType": "address",
          "name": "from",
          "type": "address"
        },
        {
          "internalType": "address",
          "name": "to",
          "type": "address"
        },
        {
          "internalType": "uint256",
          "name": "amount",
          "type": "uint256"
        }
      ],
      "name": "transferFrom",
      "outputs": [
        {
          "internalType": "bool",
          "name": "",
          "type": "bool"
        }
      ],
      "stateMutability": "nonpayable",
      "type": "function"
    },
    {
      "inputs": [
        {
          "internalType": "address",
          "name": "newOwner",
          "type": "address"
        }
      ],
      "name": "transferOwnership",
      "outputs": [],
      "stateMutability": "nonpayable",
      "type": "function"
    },
    {
      "inputs": [],
      "name": "trustLevel",
      "outputs": [
        {
          "internalType": "uint256",
          "name": "",
          "type": "uint256"
        }
      ],
      "stateMutability": "view",
      "type": "function"
    },
    {
      "inputs": [],
      "name": "unpause",
      "outputs": [],
      "stateMutability": "nonpayable",
      "type": "function"
    },
    {
      "inputs": [
        {
          "internalType": "address",
          "name": "newOracleFeeder",
          "type": "address"
        }
      ],
      "name": "updateOracleFeeder",
      "outputs": [],
      "stateMutability": "nonpayable",
      "type": "function"
    },
    {
      "inputs": [
        {
          "internalType": "uint256",
          "name": "newSharePrice",
          "type": "uint256"
        },
        {
          "internalType": "uint256",
          "name": "confidence",
          "type": "uint256"
        }
      ],
      "name": "updateSharePrice",
      "outputs": [],
      "stateMutability": "nonpayable",
      "type": "function"
    },
    {
      "inputs": [
        {
          "internalType": "uint256",
          "name": "newStablePrice",
          "type": "uint256"
        },
        {
          "internalType": "uint256",
          "name": "confidence",
          "type": "uint256"
        }
      ],
      "name": "updateStablePrice",
      "outputs": [],
      "stateMutability": "nonpayable",
      "type": "function"
    },
    {
      "inputs": [
        {
          "internalType": "uint256",
          "name": "newStablePrice",
          "type": "uint256"
        },
        {
          "internalType": "uint256",
          "name": "confidence",
          "type": "uint256"
        }
      ],
      "name": "updateStablePriceWithTrustLevel",
      "outputs": [],
      "stateMutability": "nonpayable",
      "type": "function"
    },
    {
      "inputs": [
        {
          "internalType": "enum IFOX.Step",
          "name": "step_",
          "type": "uint8"
        }
      ],
      "name": "updateStep",
      "outputs": [],
      "stateMutability": "nonpayable",
      "type": "function"
    },
    {
      "inputs": [],
      "name": "updateTrustLevel",
      "outputs": [],
      "stateMutability": "nonpayable",
      "type": "function"
    }
  ],
  "bytecode": "0x60c0604052612710600955610fa0600a556107d0600c553480156200002357600080fd5b5060405162002d8a38038062002d8a833981016040819052620000469162000379565b8660405180606001604052806029815260200162002d41602991396040518060400160405280600381526020016208c9eb60eb1b815250816003908051906020019062000095929190620002b6565b508051620000ab906004906020840190620002b6565b50506005805460ff1916905550620000c3336200025c565b600680546001600160a01b0319166001600160a01b039283161790554260075587908116620001425760405162461bcd60e51b8152602060048201526031602482015260008051602062002d6a8339815191526044820152701036bab9ba103132903737b73d32b9379760791b60648201526084015b60405180910390fd5b856001600160a01b038116620001a45760405162461bcd60e51b8152602060048201526031602482015260008051602062002d6a8339815191526044820152701036bab9ba103132903737b73d32b9379760791b606482015260840162000139565b856001600160a01b038116620002065760405162461bcd60e51b8152602060048201526031602482015260008051602062002d6a8339815191526044820152701036bab9ba103132903737b73d32b9379760791b606482015260840162000139565b600d80546001600160a01b0319166001600160a01b038b811691909117909155888116608052871660a0526200023f60196004620003f3565b600b55505050600e92909255600f55601055506200045e92505050565b600580546001600160a01b03838116610100818102610100600160a81b031985161790945560405193909204169182907f8be0079c531659141344cd1fd0a4f28419497f9722a3daafe3b4186f6b6457e090600090a35050565b828054620002c49062000421565b90600052602060002090601f016020900481019282620002e8576000855562000333565b82601f106200030357805160ff191683800117855562000333565b8280016001018555821562000333579182015b828111156200033357825182559160200191906001019062000316565b506200034192915062000345565b5090565b5b8082111562000341576000815560010162000346565b80516001600160a01b03811681146200037457600080fd5b919050565b600080600080600080600060e0888a0312156200039557600080fd5b620003a0886200035c565b9650620003b0602089016200035c565b9550620003c0604089016200035c565b9450620003d0606089016200035c565b93506080880151925060a0880151915060c0880151905092959891949750929550565b60008160001904831182151516156200041c57634e487b7160e01b600052601160045260246000fd5b500290565b600181811c908216806200043657607f821691505b602082108114156200045857634e487b7160e01b600052602260045260246000fd5b50919050565b60805160a051612877620004ca60003960008181610a9a01528181610bbc01528181610d0e01528181610eb30152611138015260008181610a5d01528181610cda01528181610e510152818161105b015281816111d601528181611620015261174501526128776000f3fe608060405234801561001057600080fd5b50600436106103d05760003560e01c806375c2f595116101ff578063cb5f12441161011a578063de1cf169116100ad578063e3cc56f01161007c578063e3cc56f01461080a578063f280db8a1461081d578063f2fde38b14610825578063f46901ed1461083857600080fd5b8063de1cf169146107d3578063e1a22dfe146107e6578063e2036fd0146107f9578063e25fe1751461080157600080fd5b8063db344ba3116100e9578063db344ba314610777578063db61e317146107a5578063db6583e3146107ad578063dd62ed3e146107c057600080fd5b8063cb5f124414610736578063d53839901461073e578063d54f166114610751578063d5aa33d21461076457600080fd5b806395b31b1111610192578063a9059cbb11610161578063a9059cbb146106f4578063bc25cf7714610707578063bf0b893a1461071a578063c4d66de81461072357600080fd5b806395b31b11146106c857806395d89b41146106d1578063a457c2d7146106d9578063a7dbb613146106ec57600080fd5b806387269729116101ce578063872697291461067c5780638828ad35146106845780638a8792191461068c5780638da5cb5b1461069f57600080fd5b806375c2f5951461063b5780637aa886081461064e5780637caa481b146106615780638456cb591461067457600080fd5b80632761d6ef116102ef5780634bca39d1116102825780635f92c30d116102515780635f92c30d146105ef578063655f767c146105f757806370a082311461060a578063715018a61461063357600080fd5b80634bca39d1146105ab5780634ef8ddb4146105be578063571ac8b0146105d15780635c975abb146105e457600080fd5b80633f4ba83a116102be5780633f4ba83a1461056a57806341c3dd0714610572578063423e7979146105855780634b974f4b1461059857600080fd5b80632761d6ef1461052c578063313ce567146105355780633381225114610544578063395093511461055757600080fd5b806318160ddd116103675780631e9a6950116103365780631e9a6950146104e057806323b872dd146104f3578063262daf8e146105065780632694d5e71461051957600080fd5b806318160ddd1461049f578063199d5257146104a75780631b1da1af146104ba5780631dc76313146104cd57600080fd5b8063095ea7b3116103a3578063095ea7b31461043f5780630f77858c14610462578063156e29f614610475578063171264491461049657600080fd5b806302d525ac146103d557806304df8862146103ea57806305e0e6a6146103fd57806306fdde031461042a575b600080fd5b6103e86103e33660046124be565b61084b565b005b6103e86103f83660046124e0565b6108d0565b61041061040b3660046124be565b61091e565b604080519283526020830191909152015b60405180910390f35b61043261095d565b6040516104219190612525565b61045261044d36600461256f565b6109ef565b6040519015158152602001610421565b6103e86104703660046124e0565b610a07565b610488610483366004612599565b610a4d565b604051908152602001610421565b610488600e5481565b600254610488565b6104886104b53660046124e0565b610b1f565b6103e86104c83660046124be565b610b71565b6104886104db3660046124e0565b610c11565b6104106104ee36600461256f565b610c69565b6104526105013660046125cc565b610d3c565b6103e8610514366004612608565b610d60565b6104886105273660046124e0565b610d74565b61048860105481565b60405160128152602001610421565b6104886105523660046124e0565b610d87565b61045261056536600461256f565b610da5565b6103e8610dc7565b6104886105803660046124e0565b610dd9565b61041061059336600461256f565b610e23565b6104526105a63660046124e0565b610f49565b6103e86105b93660046124e0565b610f61565b6103e86105cc3660046124be565b610fa7565b6103e86105df366004612608565b61102a565b60055460ff16610452565b610488611037565b61048861060536600461256f565b611103565b610488610618366004612608565b6001600160a01b031660009081526020819052604090205490565b6103e8611204565b6104886106493660046124e0565b611216565b61048861065c3660046124e0565b611246565b6103e861066f366004612623565b611271565b6103e8611366565b600a54610488565b6103e8611376565b61048861069a3660046124be565b611386565b60055461010090046001600160a01b03166040516001600160a01b039091168152602001610421565b610488600f5481565b6104326113e3565b6104526106e736600461256f565b6113f2565b61048861146d565b61045261070236600461256f565b61147f565b610488610715366004612608565b61148d565b610488600c5481565b6103e8610731366004612608565b61149c565b6104886114ee565b61048861074c3660046124e0565b611505565b61048861075f3660046124e0565b611535565b6104886107723660046124e0565b61154a565b61078a6107853660046124e0565b61155c565b60408051938452602084019290925290820152606001610421565b600954610488565b6104886107bb3660046124e0565b611597565b6104886107ce366004612644565b6115aa565b6104886107e13660046124e0565b6115d5565b6104106107f43660046124e0565b6115ea565b610488611608565b610488600b5481565b6104886108183660046124e0565b6116d6565b610488611704565b6103e8610833366004612608565b6117c7565b6103e8610846366004612608565b61183d565b6006546001600160a01b0316336001600160a01b0316146108875760405162461bcd60e51b815260040161087e90612677565b60405180910390fd5b6009805490839055604080518281526020810185905230917f7c3bda8adcb9df1edd0059da351d966538bcc99f067c0770872170ac97fb688791015b60405180910390a2505050565b6108d861189f565b600e80549082905560408051828152602081018490527f1d35e6551a082a9799480e6fa71f01ca141bdce96131962af7d8505fbfef407891015b60405180910390a15050565b60008061092b8484611386565b9150612710600e548361093e91906126ea565b6109489190612709565b9050610954818361272b565b91509250929050565b60606003805461096c90612742565b80601f016020809104026020016040519081016040528092919081815260200182805461099890612742565b80156109e55780601f106109ba576101008083540402835291602001916109e5565b820191906000526020600020905b8154815290600101906020018083116109c857829003601f168201915b5050505050905090565b6000336109fd8185856118ff565b5060019392505050565b610a0f61189f565b601080549082905560408051828152602081018490527fa9c225a7392b607bf3ccd4ffeedf2b9dfbd731451b86645d77f8e9261e5b84449101610912565b6000610a57611a23565b33610a8d7f00000000000000000000000000000000000000000000000000000000000000006001600160a01b0316823087611a69565b610ac26001600160a01b037f000000000000000000000000000000000000000000000000000000000000000016823086611a69565b600d546001600160a01b031615610b00576000610adf858561091e565b600d549194509150610afa906001600160a01b031682611ada565b50610b0d565b610b0a8484611386565b91505b610b178583611ada565b509392505050565b6000600f54612710610b31919061272b565b600c54610b409061271061272b565b610b4a91906126ea565b612710610b5781856126ea565b610b6191906126ea565b610b6b9190612709565b92915050565b6006546001600160a01b0316336001600160a01b031614610ba45760405162461bcd60e51b815260040161087e90612677565b600a8054908390556009546040516001600160a01b037f000000000000000000000000000000000000000000000000000000000000000016917f7c3bda8adcb9df1edd0059da351d966538bcc99f067c0770872170ac97fb6887916108c391858252602082015260400190565b600080612710600f5484610c2591906126ea565b610c2f9190612709565b9050612710600c54612710610c44919061272b565b610c4e838661272b565b610c5891906126ea565b610c629190612709565b9392505050565b600080610c74611a23565b610c7e3384611bb9565b600d546001600160a01b031615610cbe576000610c9a8461155c565b600d549295509093509150610cb8906001600160a01b031682611ada565b50610ccd565b610cc7836115ea565b90925090505b610d016001600160a01b037f0000000000000000000000000000000000000000000000000000000000000000168584611d07565b610d356001600160a01b037f0000000000000000000000000000000000000000000000000000000000000000168583611d07565b9250929050565b600033610d4a858285611d37565b610d55858585611dab565b506001949350505050565b610d6861189f565b610d7181611f79565b50565b6000612710600a5483610b6191906126ea565b6000600c54612710610d99919061272b565b610b61612710846126ea565b6000336109fd818585610db883836115aa565b610dc2919061277d565b6118ff565b610dcf61189f565b610dd7611fd3565b565b600080612710600f5484610ded91906126ea565b610df79190612709565b9050600a54612710610e0991906126ea565b600c54612710610e19848761272b565b610c4e91906126ea565b600080610e2e611a23565b6000610e38611608565b905083811015610e485780610e4a565b835b9050610e817f00000000000000000000000000000000000000000000000000000000000000006001600160a01b0316333084611a69565b610e8a8161154a565b925061271060105484610e9d91906126ea565b610ea79190612709565b91506001600160a01b037f00000000000000000000000000000000000000000000000000000000000000001663449a52f886610ee3858761277d565b6040516001600160e01b031960e085901b1681526001600160a01b0390921660048301526024820152604401600060405180830381600087803b158015610f2957600080fd5b505af1158015610f3d573d6000803e3d6000fd5b50505050509250929050565b600060075442610f59919061272b565b909110919050565b610f6961189f565b600f80549082905560408051828152602081018490527fc035e3b986f9c550aedf0774a0d767ebc85da4b25e629006bb36a4e454987e809101610912565b6006546001600160a01b0316336001600160a01b031614610fda5760405162461bcd60e51b815260040161087e90612677565b6009805490839055604080518281526020810185905230917f7c3bda8adcb9df1edd0059da351d966538bcc99f067c0770872170ac97fb6887910160405180910390a2611025612025565b505050565b610d7133826000196118ff565b600061104260025490565b6040516370a0823160e01b8152306004820152612710907f00000000000000000000000000000000000000000000000000000000000000006001600160a01b0316906370a082319060240160206040518083038186803b1580156110a557600080fd5b505afa1580156110b9573d6000803e3d6000fd5b505050506040513d601f19601f820116820180604052508101906110dd9190612795565b6002546110ea919061272b565b6110f491906126ea565b6110fe9190612709565b905090565b600061110d611a23565b600061111a610772611704565b90508281101561112a578061112c565b825b90506001600160a01b037f0000000000000000000000000000000000000000000000000000000000000000166379cc6790336040516001600160e01b031960e084901b1681526001600160a01b03909116600482015260248101849052604401600060405180830381600087803b1580156111a657600080fd5b505af11580156111ba573d6000803e3d6000fd5b505050506111c781610d74565b91506111fd6001600160a01b037f0000000000000000000000000000000000000000000000000000000000000000168584611d07565b5092915050565b61120c61189f565b610dd7600061218b565b6000612710600c5461122891906126ea565b600a5483600c5461271061123c919061272b565b610b5791906126ea565b6000600e54612710611258919061272b565b600c546112679061271061272b565b610b6190846126ea565b61127961189f565b600081600381111561128d5761128d6127ae565b141561129b576019600b5550565b60018160038111156112af576112af6127ae565b14156112c7576112c1601960026126ea565b600b5550565b60028160038111156112db576112db6127ae565b14156112ed576112c1601960036126ea565b6003816003811115611301576113016127ae565b1415611313576112c1601960046126ea565b60405162461bcd60e51b815260206004820152602260248201527f464f583a3a757064617465537465703a204e6f7420612076616c696420737465604482015261381760f11b606482015260840161087e565b61136e61189f565b610dd76121e5565b61137e61189f565b610dd7612025565b600080600061139485611505565b9050838111156113b1576113a784611216565b91508390506113b5565b8491505b612710600a54826113c691906126ea565b6113d09190612709565b6113da908361277d565b95945050505050565b60606004805461096c90612742565b6000338161140082866115aa565b9050838110156114605760405162461bcd60e51b815260206004820152602560248201527f45524332303a2064656372656173656420616c6c6f77616e63652062656c6f77604482015264207a65726f60d81b606482015260840161087e565b610d5582868684036118ff565b60006127106009546110fe91906127c4565b6000336109fd818585611dab565b6000611497611a23565b919050565b6114a461189f565b600880546001600160a01b0319166001600160a01b0383169081179091556040517f36b1453565f45af7b509b59d5e2eac8f1948ea9e3e193db6663b4101afb6382c90600090a250565b6000600c546114fb611037565b6110fe91906127c4565b6000600a54600c5461271061151a919061272b565b61152491906126ea565b612710600c5484610b5791906126ea565b6000600a54601054612710611267919061277d565b600a54600090610b61612710846126ea565b6000806000612710600f548561157291906126ea565b61157c9190612709565b905061158b6107f4828661272b565b90959094509092509050565b6000600a54600c5483610b6191906126ea565b6001600160a01b03918216600090815260016020908152604080832093909416825291909152205490565b6000612710600c54612710611267919061272b565b6000806115f6836115d5565b915061160183611597565b9050915091565b6040516370a0823160e01b81523060048201526000907f00000000000000000000000000000000000000000000000000000000000000006001600160a01b0316906370a082319060240160206040518083038186803b15801561166a57600080fd5b505afa15801561167e573d6000803e3d6000fd5b505050506040513d601f19601f820116820180604052508101906116a29190612795565b612710600c546127106116b5919061272b565b6002546116c291906126ea565b6116cc9190612709565b6110fe919061272b565b6000600a54600e546127106116eb919061272b565b6116f591906126ea565b600c54610b57612710856126ea565b6000612710600c54612710611719919061272b565b60025461172691906126ea565b6117309190612709565b6040516370a0823160e01b81523060048201527f00000000000000000000000000000000000000000000000000000000000000006001600160a01b0316906370a082319060240160206040518083038186803b15801561178f57600080fd5b505afa1580156117a3573d6000803e3d6000fd5b505050506040513d601f19601f820116820180604052508101906116cc9190612795565b6117cf61189f565b6001600160a01b0381166118345760405162461bcd60e51b815260206004820152602660248201527f4f776e61626c653a206e6577206f776e657220697320746865207a65726f206160448201526564647265737360d01b606482015260840161087e565b610d718161218b565b61184561189f565b600d80546001600160a01b038381166001600160a01b031983168117909355604080519190921680825260208201939093527f41d2755f00068d89c23ebc6f1e73ce119a6236a44517ca061f544a3f91c9bca49101610912565b6005546001600160a01b03610100909104163314610dd75760405162461bcd60e51b815260206004820181905260248201527f4f776e61626c653a2063616c6c6572206973206e6f7420746865206f776e6572604482015260640161087e565b6001600160a01b0383166119615760405162461bcd60e51b8152602060048201526024808201527f45524332303a20617070726f76652066726f6d20746865207a65726f206164646044820152637265737360e01b606482015260840161087e565b6001600160a01b0382166119c25760405162461bcd60e51b815260206004820152602260248201527f45524332303a20617070726f766520746f20746865207a65726f206164647265604482015261737360f01b606482015260840161087e565b6001600160a01b0383811660008181526001602090815260408083209487168084529482529182902085905590518481527f8c5be1e5ebec7d5bd14f71427d1e84f3dd0314c0f7b2291e5b200ac8c7c3b925910160405180910390a3505050565b60055460ff1615610dd75760405162461bcd60e51b815260206004820152601060248201526f14185d5cd8589b194e881c185d5cd95960821b604482015260640161087e565b6040516001600160a01b0380851660248301528316604482015260648101829052611ad49085906323b872dd60e01b906084015b60408051601f198184030181529190526020810180516001600160e01b03166001600160e01b031990931692909217909152612222565b50505050565b6001600160a01b038216611b305760405162461bcd60e51b815260206004820152601f60248201527f45524332303a206d696e7420746f20746865207a65726f206164647265737300604482015260640161087e565b8060026000828254611b42919061277d565b90915550506001600160a01b03821660009081526020819052604081208054839290611b6f90849061277d565b90915550506040518181526001600160a01b038316906000907fddf252ad1be2c89b69c2b068fc378daa952ba7f163c4a11628f55a4df523b3ef9060200160405180910390a35050565b6001600160a01b038216611c195760405162461bcd60e51b815260206004820152602160248201527f45524332303a206275726e2066726f6d20746865207a65726f206164647265736044820152607360f81b606482015260840161087e565b6001600160a01b03821660009081526020819052604090205481811015611c8d5760405162461bcd60e51b815260206004820152602260248201527f45524332303a206275726e20616d6f756e7420657863656564732062616c616e604482015261636560f01b606482015260840161087e565b6001600160a01b0383166000908152602081905260408120838303905560028054849290611cbc90849061272b565b90915550506040518281526000906001600160a01b038516907fddf252ad1be2c89b69c2b068fc378daa952ba7f163c4a11628f55a4df523b3ef9060200160405180910390a3505050565b6040516001600160a01b03831660248201526044810182905261102590849063a9059cbb60e01b90606401611a9d565b6000611d4384846115aa565b90506000198114611ad45781811015611d9e5760405162461bcd60e51b815260206004820152601d60248201527f45524332303a20696e73756666696369656e7420616c6c6f77616e6365000000604482015260640161087e565b611ad484848484036118ff565b6001600160a01b038316611e0f5760405162461bcd60e51b815260206004820152602560248201527f45524332303a207472616e736665722066726f6d20746865207a65726f206164604482015264647265737360d81b606482015260840161087e565b6001600160a01b038216611e715760405162461bcd60e51b815260206004820152602360248201527f45524332303a207472616e7366657220746f20746865207a65726f206164647260448201526265737360e81b606482015260840161087e565b6001600160a01b03831660009081526020819052604090205481811015611ee95760405162461bcd60e51b815260206004820152602660248201527f45524332303a207472616e7366657220616d6f756e7420657863656564732062604482015265616c616e636560d01b606482015260840161087e565b6001600160a01b03808516600090815260208190526040808220858503905591851681529081208054849290611f2090849061277d565b92505081905550826001600160a01b0316846001600160a01b03167fddf252ad1be2c89b69c2b068fc378daa952ba7f163c4a11628f55a4df523b3ef84604051611f6c91815260200190565b60405180910390a3611ad4565b600680546001600160a01b038381166001600160a01b031983168117909355604080519190921680825260208201939093527f6b2e9b3836edd552e454031d349dbf020544e4123c344f1ddb0a7a9a336adef99101610912565b611fdb6122f4565b6005805460ff191690557f5db9ee0a495bf2e6ff9c91a7834c1ba4fdd244a5e8aa4e537bd38aeae4b073aa335b6040516001600160a01b03909116815260200160405180910390a1565b610e1061203181610f49565b61207d5760405162461bcd60e51b815260206004820152601c60248201527f496e74657276616c3a3a696e74657276616c3a204e6f74207965742e00000000604482015260640161087e565b600061208761146d565b12156120ac57600b54600c60008282546120a1919061272b565b909155506121849050565b6008546001600160a01b031615806121655750612710600b54600c54600860009054906101000a90046001600160a01b03166001600160a01b031663f384bd056040518163ffffffff1660e01b815260040160206040518083038186803b15801561211657600080fd5b505afa15801561212a573d6000803e3d6000fd5b505050506040513d601f19601f8201168201806040525081019061214e9190612795565b612158919061277d565b612162919061277d565b11155b1561218457600b54600c600082825461217e919061277d565b90915550505b5042600755565b600580546001600160a01b03838116610100818102610100600160a81b031985161790945560405193909204169182907f8be0079c531659141344cd1fd0a4f28419497f9722a3daafe3b4186f6b6457e090600090a35050565b6121ed611a23565b6005805460ff191660011790557f62e78cea01bee320cd4e420270b5ea74000d11b0c9f74754ebdbfc544b05a2586120083390565b6000612277826040518060400160405280602081526020017f5361666545524332303a206c6f772d6c6576656c2063616c6c206661696c6564815250856001600160a01b031661233d9092919063ffffffff16565b80519091501561102557808060200190518101906122959190612803565b6110255760405162461bcd60e51b815260206004820152602a60248201527f5361666545524332303a204552433230206f7065726174696f6e20646964206e6044820152691bdd081cdd58d8d9595960b21b606482015260840161087e565b60055460ff16610dd75760405162461bcd60e51b815260206004820152601460248201527314185d5cd8589b194e881b9bdd081c185d5cd95960621b604482015260640161087e565b606061234c8484600085612354565b949350505050565b6060824710156123b55760405162461bcd60e51b815260206004820152602660248201527f416464726573733a20696e73756666696369656e742062616c616e636520666f6044820152651c8818d85b1b60d21b606482015260840161087e565b6001600160a01b0385163b61240c5760405162461bcd60e51b815260206004820152601d60248201527f416464726573733a2063616c6c20746f206e6f6e2d636f6e7472616374000000604482015260640161087e565b600080866001600160a01b031685876040516124289190612825565b60006040518083038185875af1925050503d8060008114612465576040519150601f19603f3d011682016040523d82523d6000602084013e61246a565b606091505b509150915061247a828286612485565b979650505050505050565b60608315612494575081610c62565b8251156124a45782518084602001fd5b8160405162461bcd60e51b815260040161087e9190612525565b600080604083850312156124d157600080fd5b50508035926020909101359150565b6000602082840312156124f257600080fd5b5035919050565b60005b838110156125145781810151838201526020016124fc565b83811115611ad45750506000910152565b60208152600082518060208401526125448160408501602087016124f9565b601f01601f19169190910160400192915050565b80356001600160a01b038116811461149757600080fd5b6000806040838503121561258257600080fd5b61258b83612558565b946020939093013593505050565b6000806000606084860312156125ae57600080fd5b6125b784612558565b95602085013595506040909401359392505050565b6000806000606084860312156125e157600080fd5b6125ea84612558565b92506125f860208501612558565b9150604084013590509250925092565b60006020828403121561261a57600080fd5b610c6282612558565b60006020828403121561263557600080fd5b813560048110610c6257600080fd5b6000806040838503121561265757600080fd5b61266083612558565b915061266e60208401612558565b90509250929050565b6020808252603f908201527f4f7261636c653a3a6f6e6c794f7261636c654665656465723a2053656e64657260408201527f206d7573742062652073616d65206173205f6f7261636c654665656465722e00606082015260800190565b634e487b7160e01b600052601160045260246000fd5b6000816000190483118215151615612704576127046126d4565b500290565b60008261272657634e487b7160e01b600052601260045260246000fd5b500490565b60008282101561273d5761273d6126d4565b500390565b600181811c9082168061275657607f821691505b6020821081141561277757634e487b7160e01b600052602260045260246000fd5b50919050565b60008219821115612790576127906126d4565b500190565b6000602082840312156127a757600080fd5b5051919050565b634e487b7160e01b600052602160045260246000fd5b60008083128015600160ff1b8501841216156127e2576127e26126d4565b6001600160ff1b03840183138116156127fd576127fd6126d4565b50500390565b60006020828403121561281557600080fd5b81518015158114610c6257600080fd5b600082516128378184602087016124f9565b919091019291505056fea2646970667358221220228230addc69e444ea23beb074105def7cccdac404db46ac22185dfe3e5c949c64736f6c634300080900334672616374696f6e616c204f76657220436f6c6c61746572616c697a656420537461626c65636f696e4e6f6e7a65726f3a3a6e6f6e7a65726f416464726573733a204163636f756e74",
  "linkReferences": {},
  "deployedLinkReferences": {}
}