{
  "_format": "hh-sol-artifact-1",
  "contractName": "FoxFarm",
  "sourceName": "contracts/FoxFarm.sol",
  "abi": [
    {
      "inputs": [
        {
          "internalType": "address",
          "name": "oracleFeeder_",
          "type": "address"
        },
        {
          "internalType": "address",
          "name": "feeTo_",
          "type": "address"
        },
        {
          "internalType": "address",
          "name": "collateralToken_",
          "type": "address"
        },
        {
          "internalType": "address",
          "name": "debtToken_",
          "type": "address"
        },
        {
          "internalType": "address",
          "name": "shareToken_",
          "type": "address"
        },
        {
          "internalType": "address",
          "name": "stableToken_",
          "type": "address"
        },
        {
          "internalType": "address",
          "name": "coupon_",
          "type": "address"
        },
        {
          "internalType": "uint256",
          "name": "maxLTV_",
          "type": "uint256"
        },
        {
          "internalType": "uint256",
          "name": "cap_",
          "type": "uint256"
        },
        {
          "internalType": "uint256",
          "name": "feeRatio_",
          "type": "uint256"
        },
        {
          "internalType": "uint256",
          "name": "liquidationPenaltyRatio_",
          "type": "uint256"
        },
        {
          "internalType": "uint256",
          "name": "liquidationBufferRatio_",
          "type": "uint256"
        }
      ],
      "stateMutability": "nonpayable",
      "type": "constructor"
    },
    {
      "anonymous": false,
      "inputs": [
        {
          "indexed": true,
          "internalType": "address",
          "name": "owner",
          "type": "address"
        },
        {
          "indexed": true,
          "internalType": "address",
          "name": "approved",
          "type": "address"
        },
        {
          "indexed": true,
          "internalType": "uint256",
          "name": "tokenId",
          "type": "uint256"
        }
      ],
      "name": "Approval",
      "type": "event"
    },
    {
      "anonymous": false,
      "inputs": [
        {
          "indexed": true,
          "internalType": "address",
          "name": "owner",
          "type": "address"
        },
        {
          "indexed": true,
          "internalType": "address",
          "name": "operator",
          "type": "address"
        },
        {
          "indexed": false,
          "internalType": "bool",
          "name": "approved",
          "type": "bool"
        }
      ],
      "name": "ApprovalForAll",
      "type": "event"
    },
    {
      "anonymous": false,
      "inputs": [
        {
          "indexed": true,
          "internalType": "address",
          "name": "account_",
          "type": "address"
        },
        {
          "indexed": true,
          "internalType": "uint256",
          "name": "id_",
          "type": "uint256"
        },
        {
          "indexed": false,
          "internalType": "uint256",
          "name": "amount",
          "type": "uint256"
        }
      ],
      "name": "Borrow",
      "type": "event"
    },
    {
      "anonymous": false,
      "inputs": [
        {
          "indexed": true,
          "internalType": "address",
          "name": "account_",
          "type": "address"
        },
        {
          "indexed": true,
          "internalType": "uint256",
          "name": "id_",
          "type": "uint256"
        }
      ],
      "name": "Close",
      "type": "event"
    },
    {
      "anonymous": false,
      "inputs": [
        {
          "indexed": true,
          "internalType": "address",
          "name": "account_",
          "type": "address"
        },
        {
          "indexed": true,
          "internalType": "uint256",
          "name": "id_",
          "type": "uint256"
        },
        {
          "indexed": false,
          "internalType": "uint256",
          "name": "amount",
          "type": "uint256"
        }
      ],
      "name": "Deposit",
      "type": "event"
    },
    {
      "anonymous": false,
      "inputs": [
        {
          "indexed": true,
          "internalType": "address",
          "name": "account_",
          "type": "address"
        },
        {
          "indexed": true,
          "internalType": "uint256",
          "name": "id_",
          "type": "uint256"
        },
        {
          "indexed": false,
          "internalType": "uint256",
          "name": "debtAmount_",
          "type": "uint256"
        },
        {
          "indexed": false,
          "internalType": "uint256",
          "name": "collateralAmount_",
          "type": "uint256"
        }
      ],
      "name": "Liquidate",
      "type": "event"
    },
    {
      "anonymous": false,
      "inputs": [
        {
          "indexed": true,
          "internalType": "address",
          "name": "account_",
          "type": "address"
        },
        {
          "indexed": true,
          "internalType": "uint256",
          "name": "id_",
          "type": "uint256"
        }
      ],
      "name": "Open",
      "type": "event"
    },
    {
      "anonymous": false,
      "inputs": [
        {
          "indexed": true,
          "internalType": "address",
          "name": "previousOwner",
          "type": "address"
        },
        {
          "indexed": true,
          "internalType": "address",
          "name": "newOwner",
          "type": "address"
        }
      ],
      "name": "OwnershipTransferred",
      "type": "event"
    },
    {
      "anonymous": false,
      "inputs": [
        {
          "indexed": false,
          "internalType": "address",
          "name": "account",
          "type": "address"
        }
      ],
      "name": "Paused",
      "type": "event"
    },
    {
      "anonymous": false,
      "inputs": [
        {
          "indexed": true,
          "internalType": "address",
          "name": "account_",
          "type": "address"
        },
        {
          "indexed": true,
          "internalType": "uint256",
          "name": "id_",
          "type": "uint256"
        },
        {
          "indexed": false,
          "internalType": "uint256",
          "name": "amount",
          "type": "uint256"
        }
      ],
      "name": "Repay",
      "type": "event"
    },
    {
      "anonymous": false,
      "inputs": [
        {
          "indexed": false,
          "internalType": "uint256",
          "name": "prevCap",
          "type": "uint256"
        },
        {
          "indexed": false,
          "internalType": "uint256",
          "name": "currCap",
          "type": "uint256"
        }
      ],
      "name": "SetCap",
      "type": "event"
    },
    {
      "anonymous": false,
      "inputs": [
        {
          "indexed": false,
          "internalType": "uint256",
          "name": "prevFeeRatio",
          "type": "uint256"
        },
        {
          "indexed": false,
          "internalType": "uint256",
          "name": "currFeeRatio",
          "type": "uint256"
        }
      ],
      "name": "SetFeeRatio",
      "type": "event"
    },
    {
      "anonymous": false,
      "inputs": [
        {
          "indexed": false,
          "internalType": "address",
          "name": "prevFeeTo",
          "type": "address"
        },
        {
          "indexed": false,
          "internalType": "address",
          "name": "currFeeTo",
          "type": "address"
        }
      ],
      "name": "SetFeeTo",
      "type": "event"
    },
    {
      "anonymous": false,
      "inputs": [
        {
          "indexed": false,
          "internalType": "uint256",
          "name": "prevLiquidationBufferRatio",
          "type": "uint256"
        },
        {
          "indexed": false,
          "internalType": "uint256",
          "name": "currLiquidationBufferRatio",
          "type": "uint256"
        }
      ],
      "name": "SetLiquidationBufferRatio",
      "type": "event"
    },
    {
      "anonymous": false,
      "inputs": [
        {
          "indexed": false,
          "internalType": "uint256",
          "name": "prevLiquidationPenaltyRatio",
          "type": "uint256"
        },
        {
          "indexed": false,
          "internalType": "uint256",
          "name": "currLiquidationPenaltyRatio",
          "type": "uint256"
        }
      ],
      "name": "SetLiquidationPenaltyRatio",
      "type": "event"
    },
    {
      "anonymous": false,
      "inputs": [
        {
          "indexed": false,
          "internalType": "uint256",
          "name": "prevLiquidationProtocolFeeRatio",
          "type": "uint256"
        },
        {
          "indexed": false,
          "internalType": "uint256",
          "name": "currLiquidationProtocolFeeRatio",
          "type": "uint256"
        }
      ],
      "name": "SetLiquidationProtocolFeeRatio",
      "type": "event"
    },
    {
      "anonymous": false,
      "inputs": [
        {
          "indexed": false,
          "internalType": "uint256",
          "name": "prevMaxLTV",
          "type": "uint256"
        },
        {
          "indexed": false,
          "internalType": "uint256",
          "name": "currMaxLTV",
          "type": "uint256"
        }
      ],
      "name": "SetMaxLTV",
      "type": "event"
    },
    {
      "anonymous": false,
      "inputs": [
        {
          "indexed": true,
          "internalType": "address",
          "name": "from",
          "type": "address"
        },
        {
          "indexed": true,
          "internalType": "address",
          "name": "to",
          "type": "address"
        },
        {
          "indexed": true,
          "internalType": "uint256",
          "name": "tokenId",
          "type": "uint256"
        }
      ],
      "name": "Transfer",
      "type": "event"
    },
    {
      "anonymous": false,
      "inputs": [
        {
          "indexed": false,
          "internalType": "address",
          "name": "account",
          "type": "address"
        }
      ],
      "name": "Unpaused",
      "type": "event"
    },
    {
      "anonymous": false,
      "inputs": [
        {
          "indexed": true,
          "internalType": "uint256",
          "name": "id_",
          "type": "uint256"
        },
        {
          "indexed": false,
          "internalType": "uint256",
          "name": "prevFee",
          "type": "uint256"
        },
        {
          "indexed": false,
          "internalType": "uint256",
          "name": "currFee",
          "type": "uint256"
        },
        {
          "indexed": false,
          "internalType": "uint256",
          "name": "prevTimestamp",
          "type": "uint256"
        },
        {
          "indexed": false,
          "internalType": "uint256",
          "name": "currTimestamp",
          "type": "uint256"
        }
      ],
      "name": "Update",
      "type": "event"
    },
    {
      "anonymous": false,
      "inputs": [
        {
          "indexed": false,
          "internalType": "address",
          "name": "prevOracleFeeder",
          "type": "address"
        },
        {
          "indexed": false,
          "internalType": "address",
          "name": "currOracle",
          "type": "address"
        }
      ],
      "name": "UpdateOracleFeeder",
      "type": "event"
    },
    {
      "anonymous": false,
      "inputs": [
        {
          "indexed": true,
          "internalType": "address",
          "name": "token",
          "type": "address"
        },
        {
          "indexed": false,
          "internalType": "uint256",
          "name": "prevPrice",
          "type": "uint256"
        },
        {
          "indexed": false,
          "internalType": "uint256",
          "name": "currPrice",
          "type": "uint256"
        }
      ],
      "name": "UpdatePrice",
      "type": "event"
    },
    {
      "anonymous": false,
      "inputs": [
        {
          "indexed": true,
          "internalType": "address",
          "name": "account_",
          "type": "address"
        },
        {
          "indexed": true,
          "internalType": "uint256",
          "name": "id_",
          "type": "uint256"
        },
        {
          "indexed": false,
          "internalType": "uint256",
          "name": "amount",
          "type": "uint256"
        }
      ],
      "name": "Withdraw",
      "type": "event"
    },
    {
      "inputs": [
        {
          "internalType": "address",
          "name": "to",
          "type": "address"
        },
        {
          "internalType": "uint256",
          "name": "tokenId",
          "type": "uint256"
        }
      ],
      "name": "approve",
      "outputs": [],
      "stateMutability": "nonpayable",
      "type": "function"
    },
    {
      "inputs": [
        {
          "internalType": "address",
          "name": "owner",
          "type": "address"
        }
      ],
      "name": "balanceOf",
      "outputs": [
        {
          "internalType": "uint256",
          "name": "",
          "type": "uint256"
        }
      ],
      "stateMutability": "view",
      "type": "function"
    },
    {
      "inputs": [
        {
          "internalType": "uint256",
          "name": "id_",
          "type": "uint256"
        },
        {
          "internalType": "uint256",
          "name": "amount_",
          "type": "uint256"
        }
      ],
      "name": "borrow",
      "outputs": [],
      "stateMutability": "nonpayable",
      "type": "function"
    },
    {
      "inputs": [
        {
          "internalType": "address",
          "name": "account_",
          "type": "address"
        },
        {
          "internalType": "uint256",
          "name": "id_",
          "type": "uint256"
        },
        {
          "internalType": "uint256",
          "name": "shareAmount_",
          "type": "uint256"
        },
        {
          "internalType": "uint256",
          "name": "ltv_",
          "type": "uint256"
        }
      ],
      "name": "buyback",
      "outputs": [
        {
          "internalType": "uint256",
          "name": "debtAmount_",
          "type": "uint256"
        }
      ],
      "stateMutability": "nonpayable",
      "type": "function"
    },
    {
      "inputs": [
        {
          "internalType": "address",
          "name": "account_",
          "type": "address"
        },
        {
          "internalType": "uint256",
          "name": "shareAmount_",
          "type": "uint256"
        }
      ],
      "name": "buybackCoupon",
      "outputs": [
        {
          "internalType": "uint256",
          "name": "pid_",
          "type": "uint256"
        },
        {
          "internalType": "uint256",
          "name": "debtAmount_",
          "type": "uint256"
        }
      ],
      "stateMutability": "nonpayable",
      "type": "function"
    },
    {
      "inputs": [
        {
          "internalType": "uint256",
          "name": "collateralAmount_",
          "type": "uint256"
        },
        {
          "internalType": "uint256",
          "name": "debtAmount_",
          "type": "uint256"
        }
      ],
      "name": "calculatedLtv",
      "outputs": [
        {
          "internalType": "uint256",
          "name": "ltv_",
          "type": "uint256"
        }
      ],
      "stateMutability": "view",
      "type": "function"
    },
    {
      "inputs": [],
      "name": "cap",
      "outputs": [
        {
          "internalType": "uint256",
          "name": "",
          "type": "uint256"
        }
      ],
      "stateMutability": "view",
      "type": "function"
    },
    {
      "inputs": [
        {
          "internalType": "uint256",
          "name": "id_",
          "type": "uint256"
        }
      ],
      "name": "cdp",
      "outputs": [
        {
          "components": [
            {
              "internalType": "uint256",
              "name": "collateral",
              "type": "uint256"
            },
            {
              "internalType": "uint256",
              "name": "debt",
              "type": "uint256"
            },
            {
              "internalType": "uint256",
              "name": "fee",
              "type": "uint256"
            },
            {
              "internalType": "uint256",
              "name": "latestUpdate",
              "type": "uint256"
            }
          ],
          "internalType": "struct ICDP.CollateralizedDebtPosition",
          "name": "",
          "type": "tuple"
        }
      ],
      "stateMutability": "view",
      "type": "function"
    },
    {
      "inputs": [
        {
          "internalType": "uint256",
          "name": "id_",
          "type": "uint256"
        }
      ],
      "name": "close",
      "outputs": [],
      "stateMutability": "nonpayable",
      "type": "function"
    },
    {
      "inputs": [
        {
          "internalType": "uint256",
          "name": "debtAmount_",
          "type": "uint256"
        },
        {
          "internalType": "uint256",
          "name": "ltv_",
          "type": "uint256"
        }
      ],
      "name": "collateralAmountFromDebtWithLtv",
      "outputs": [
        {
          "internalType": "uint256",
          "name": "collateralAmount_",
          "type": "uint256"
        }
      ],
      "stateMutability": "view",
      "type": "function"
    },
    {
      "inputs": [],
      "name": "collateralPrice",
      "outputs": [
        {
          "internalType": "uint256",
          "name": "",
          "type": "uint256"
        }
      ],
      "stateMutability": "view",
      "type": "function"
    },
    {
      "inputs": [],
      "name": "collateralToken",
      "outputs": [
        {
          "internalType": "address",
          "name": "",
          "type": "address"
        }
      ],
      "stateMutability": "view",
      "type": "function"
    },
    {
      "inputs": [
        {
          "internalType": "uint256",
          "name": "id_",
          "type": "uint256"
        }
      ],
      "name": "currentLTV",
      "outputs": [
        {
          "internalType": "uint256",
          "name": "ltv_",
          "type": "uint256"
        }
      ],
      "stateMutability": "view",
      "type": "function"
    },
    {
      "inputs": [
        {
          "internalType": "uint256",
          "name": "collateralAmount_",
          "type": "uint256"
        },
        {
          "internalType": "uint256",
          "name": "ltv_",
          "type": "uint256"
        }
      ],
      "name": "debtAmountFromCollateralToLtv",
      "outputs": [
        {
          "internalType": "uint256",
          "name": "debtAmount_",
          "type": "uint256"
        }
      ],
      "stateMutability": "view",
      "type": "function"
    },
    {
      "inputs": [
        {
          "internalType": "uint256",
          "name": "id_",
          "type": "uint256"
        }
      ],
      "name": "debtAmountRangeWhenLiquidate",
      "outputs": [
        {
          "internalType": "uint256",
          "name": "upperBound_",
          "type": "uint256"
        },
        {
          "internalType": "uint256",
          "name": "lowerBound_",
          "type": "uint256"
        }
      ],
      "stateMutability": "view",
      "type": "function"
    },
    {
      "inputs": [],
      "name": "debtToken",
      "outputs": [
        {
          "internalType": "address",
          "name": "",
          "type": "address"
        }
      ],
      "stateMutability": "view",
      "type": "function"
    },
    {
      "inputs": [
        {
          "internalType": "uint256",
          "name": "id_",
          "type": "uint256"
        },
        {
          "internalType": "uint256",
          "name": "amount_",
          "type": "uint256"
        }
      ],
      "name": "deposit",
      "outputs": [],
      "stateMutability": "nonpayable",
      "type": "function"
    },
    {
      "inputs": [
        {
          "internalType": "uint256",
          "name": "id_",
          "type": "uint256"
        },
        {
          "internalType": "uint256",
          "name": "depositAmount_",
          "type": "uint256"
        },
        {
          "internalType": "uint256",
          "name": "borrowAmount_",
          "type": "uint256"
        }
      ],
      "name": "depositAndBorrow",
      "outputs": [],
      "stateMutability": "nonpayable",
      "type": "function"
    },
    {
      "inputs": [
        {
          "internalType": "uint256",
          "name": "tokenId",
          "type": "uint256"
        }
      ],
      "name": "getApproved",
      "outputs": [
        {
          "internalType": "address",
          "name": "",
          "type": "address"
        }
      ],
      "stateMutability": "view",
      "type": "function"
    },
    {
      "inputs": [],
      "name": "globalHealthFactor",
      "outputs": [
        {
          "internalType": "uint256",
          "name": "health",
          "type": "uint256"
        }
      ],
      "stateMutability": "view",
      "type": "function"
    },
    {
      "inputs": [],
      "name": "globalLTV",
      "outputs": [
        {
          "internalType": "uint256",
          "name": "ltv_",
          "type": "uint256"
        }
      ],
      "stateMutability": "view",
      "type": "function"
    },
    {
      "inputs": [
        {
          "internalType": "uint256",
          "name": "id_",
          "type": "uint256"
        },
        {
          "internalType": "uint256",
          "name": "amount_",
          "type": "uint256"
        }
      ],
      "name": "globalLiquidate",
      "outputs": [],
      "stateMutability": "nonpayable",
      "type": "function"
    },
    {
      "inputs": [
        {
          "internalType": "uint256",
          "name": "id_",
          "type": "uint256"
        }
      ],
      "name": "healthFactor",
      "outputs": [
        {
          "internalType": "uint256",
          "name": "health",
          "type": "uint256"
        }
      ],
      "stateMutability": "view",
      "type": "function"
    },
    {
      "inputs": [],
      "name": "id",
      "outputs": [
        {
          "internalType": "uint256",
          "name": "",
          "type": "uint256"
        }
      ],
      "stateMutability": "view",
      "type": "function"
    },
    {
      "inputs": [],
      "name": "initialize",
      "outputs": [],
      "stateMutability": "nonpayable",
      "type": "function"
    },
    {
      "inputs": [
        {
          "internalType": "address",
          "name": "owner",
          "type": "address"
        },
        {
          "internalType": "address",
          "name": "operator",
          "type": "address"
        }
      ],
      "name": "isApprovedForAll",
      "outputs": [
        {
          "internalType": "bool",
          "name": "",
          "type": "bool"
        }
      ],
      "stateMutability": "view",
      "type": "function"
    },
    {
      "inputs": [
        {
          "internalType": "uint256",
          "name": "id_",
          "type": "uint256"
        }
      ],
      "name": "isSafe",
      "outputs": [
        {
          "internalType": "bool",
          "name": "",
          "type": "bool"
        }
      ],
      "stateMutability": "view",
      "type": "function"
    },
    {
      "inputs": [
        {
          "internalType": "uint256",
          "name": "id_",
          "type": "uint256"
        },
        {
          "internalType": "uint256",
          "name": "amount_",
          "type": "uint256"
        }
      ],
      "name": "liquidate",
      "outputs": [],
      "stateMutability": "nonpayable",
      "type": "function"
    },
    {
      "inputs": [],
      "name": "maxLTV",
      "outputs": [
        {
          "internalType": "uint256",
          "name": "",
          "type": "uint256"
        }
      ],
      "stateMutability": "view",
      "type": "function"
    },
    {
      "inputs": [],
      "name": "minimumCollateral",
      "outputs": [
        {
          "internalType": "uint256",
          "name": "",
          "type": "uint256"
        }
      ],
      "stateMutability": "view",
      "type": "function"
    },
    {
      "inputs": [
        {
          "internalType": "uint256",
          "name": "id_",
          "type": "uint256"
        },
        {
          "internalType": "uint256",
          "name": "depositAmount_",
          "type": "uint256"
        },
        {
          "internalType": "uint256",
          "name": "borrowAmount_",
          "type": "uint256"
        }
      ],
      "name": "mint",
      "outputs": [],
      "stateMutability": "nonpayable",
      "type": "function"
    },
    {
      "inputs": [],
      "name": "name",
      "outputs": [
        {
          "internalType": "string",
          "name": "",
          "type": "string"
        }
      ],
      "stateMutability": "view",
      "type": "function"
    },
    {
      "inputs": [],
      "name": "open",
      "outputs": [
        {
          "internalType": "uint256",
          "name": "id_",
          "type": "uint256"
        }
      ],
      "stateMutability": "nonpayable",
      "type": "function"
    },
    {
      "inputs": [
        {
          "internalType": "uint256",
          "name": "amount_",
          "type": "uint256"
        }
      ],
      "name": "openAndDeposit",
      "outputs": [
        {
          "internalType": "uint256",
          "name": "id_",
          "type": "uint256"
        }
      ],
      "stateMutability": "nonpayable",
      "type": "function"
    },
    {
      "inputs": [
        {
          "internalType": "uint256",
          "name": "depositAmount_",
          "type": "uint256"
        },
        {
          "internalType": "uint256",
          "name": "borrowAmount_",
          "type": "uint256"
        }
      ],
      "name": "openAndDepositAndBorrow",
      "outputs": [
        {
          "internalType": "uint256",
          "name": "id_",
          "type": "uint256"
        }
      ],
      "stateMutability": "nonpayable",
      "type": "function"
    },
    {
      "inputs": [],
      "name": "owner",
      "outputs": [
        {
          "internalType": "address",
          "name": "",
          "type": "address"
        }
      ],
      "stateMutability": "view",
      "type": "function"
    },
    {
      "inputs": [
        {
          "internalType": "uint256",
          "name": "tokenId",
          "type": "uint256"
        }
      ],
      "name": "ownerOf",
      "outputs": [
        {
          "internalType": "address",
          "name": "",
          "type": "address"
        }
      ],
      "stateMutability": "view",
      "type": "function"
    },
    {
      "inputs": [
        {
          "internalType": "uint256",
          "name": "cid_",
          "type": "uint256"
        },
        {
          "internalType": "uint256",
          "name": "pid_",
          "type": "uint256"
        }
      ],
      "name": "pairAnnihilation",
      "outputs": [],
      "stateMutability": "nonpayable",
      "type": "function"
    },
    {
      "inputs": [],
      "name": "pause",
      "outputs": [],
      "stateMutability": "nonpayable",
      "type": "function"
    },
    {
      "inputs": [],
      "name": "paused",
      "outputs": [
        {
          "internalType": "bool",
          "name": "",
          "type": "bool"
        }
      ],
      "stateMutability": "view",
      "type": "function"
    },
    {
      "inputs": [
        {
          "internalType": "address",
          "name": "account_",
          "type": "address"
        },
        {
          "internalType": "uint256",
          "name": "id_",
          "type": "uint256"
        },
        {
          "internalType": "uint256",
          "name": "collateralAmount_",
          "type": "uint256"
        },
        {
          "internalType": "uint256",
          "name": "ltv_",
          "type": "uint256"
        }
      ],
      "name": "recollateralize",
      "outputs": [
        {
          "internalType": "uint256",
          "name": "shareAmount_",
          "type": "uint256"
        },
        {
          "internalType": "uint256",
          "name": "bonusAmount_",
          "type": "uint256"
        }
      ],
      "stateMutability": "nonpayable",
      "type": "function"
    },
    {
      "inputs": [
        {
          "internalType": "uint256",
          "name": "id_",
          "type": "uint256"
        },
        {
          "internalType": "uint256",
          "name": "repayAmount_",
          "type": "uint256"
        },
        {
          "internalType": "uint256",
          "name": "withdrawAmount_",
          "type": "uint256"
        }
      ],
      "name": "redeem",
      "outputs": [],
      "stateMutability": "nonpayable",
      "type": "function"
    },
    {
      "inputs": [],
      "name": "renounceOwnership",
      "outputs": [],
      "stateMutability": "nonpayable",
      "type": "function"
    },
    {
      "inputs": [
        {
          "internalType": "uint256",
          "name": "id_",
          "type": "uint256"
        },
        {
          "internalType": "uint256",
          "name": "amount_",
          "type": "uint256"
        }
      ],
      "name": "repay",
      "outputs": [],
      "stateMutability": "nonpayable",
      "type": "function"
    },
    {
      "inputs": [
        {
          "internalType": "uint256",
          "name": "id_",
          "type": "uint256"
        },
        {
          "internalType": "uint256",
          "name": "repayAmount_",
          "type": "uint256"
        },
        {
          "internalType": "uint256",
          "name": "withdrawAmount_",
          "type": "uint256"
        }
      ],
      "name": "repayAndWithdraw",
      "outputs": [],
      "stateMutability": "nonpayable",
      "type": "function"
    },
    {
      "inputs": [
        {
          "internalType": "address",
          "name": "from",
          "type": "address"
        },
        {
          "internalType": "address",
          "name": "to",
          "type": "address"
        },
        {
          "internalType": "uint256",
          "name": "tokenId",
          "type": "uint256"
        }
      ],
      "name": "safeTransferFrom",
      "outputs": [],
      "stateMutability": "nonpayable",
      "type": "function"
    },
    {
      "inputs": [
        {
          "internalType": "address",
          "name": "from",
          "type": "address"
        },
        {
          "internalType": "address",
          "name": "to",
          "type": "address"
        },
        {
          "internalType": "uint256",
          "name": "tokenId",
          "type": "uint256"
        },
        {
          "internalType": "bytes",
          "name": "data",
          "type": "bytes"
        }
      ],
      "name": "safeTransferFrom",
      "outputs": [],
      "stateMutability": "nonpayable",
      "type": "function"
    },
    {
      "inputs": [
        {
          "internalType": "address",
          "name": "operator",
          "type": "address"
        },
        {
          "internalType": "bool",
          "name": "approved",
          "type": "bool"
        }
      ],
      "name": "setApprovalForAll",
      "outputs": [],
      "stateMutability": "nonpayable",
      "type": "function"
    },
    {
      "inputs": [
        {
          "internalType": "uint256",
          "name": "newCap",
          "type": "uint256"
        }
      ],
      "name": "setCap",
      "outputs": [],
      "stateMutability": "nonpayable",
      "type": "function"
    },
    {
      "inputs": [
        {
          "internalType": "uint256",
          "name": "newFeeRatio",
          "type": "uint256"
        }
      ],
      "name": "setFeeRatio",
      "outputs": [],
      "stateMutability": "nonpayable",
      "type": "function"
    },
    {
      "inputs": [
        {
          "internalType": "address",
          "name": "newFeeTo",
          "type": "address"
        }
      ],
      "name": "setFeeTo",
      "outputs": [],
      "stateMutability": "nonpayable",
      "type": "function"
    },
    {
      "inputs": [
        {
          "internalType": "uint256",
          "name": "newLiquidationBufferRatio",
          "type": "uint256"
        }
      ],
      "name": "setLiquidationBufferRatio",
      "outputs": [],
      "stateMutability": "nonpayable",
      "type": "function"
    },
    {
      "inputs": [
        {
          "internalType": "uint256",
          "name": "newLiquidationPenaltyRatio",
          "type": "uint256"
        }
      ],
      "name": "setLiquidationPenaltyRatio",
      "outputs": [],
      "stateMutability": "nonpayable",
      "type": "function"
    },
    {
      "inputs": [
        {
          "internalType": "uint256",
          "name": "newLiquidationProtocolFeeRatio",
          "type": "uint256"
        }
      ],
      "name": "setLiquidationProtocolFeeRatio",
      "outputs": [],
      "stateMutability": "nonpayable",
      "type": "function"
    },
    {
      "inputs": [
        {
          "internalType": "uint256",
          "name": "newMaxLTV",
          "type": "uint256"
        }
      ],
      "name": "setMaxLTV",
      "outputs": [],
      "stateMutability": "nonpayable",
      "type": "function"
    },
    {
      "inputs": [
        {
          "internalType": "bytes4",
          "name": "interfaceId",
          "type": "bytes4"
        }
      ],
      "name": "supportsInterface",
      "outputs": [
        {
          "internalType": "bool",
          "name": "",
          "type": "bool"
        }
      ],
      "stateMutability": "view",
      "type": "function"
    },
    {
      "inputs": [],
      "name": "symbol",
      "outputs": [
        {
          "internalType": "string",
          "name": "",
          "type": "string"
        }
      ],
      "stateMutability": "view",
      "type": "function"
    },
    {
      "inputs": [
        {
          "internalType": "uint256",
          "name": "index",
          "type": "uint256"
        }
      ],
      "name": "tokenByIndex",
      "outputs": [
        {
          "internalType": "uint256",
          "name": "",
          "type": "uint256"
        }
      ],
      "stateMutability": "view",
      "type": "function"
    },
    {
      "inputs": [
        {
          "internalType": "address",
          "name": "owner",
          "type": "address"
        },
        {
          "internalType": "uint256",
          "name": "index",
          "type": "uint256"
        }
      ],
      "name": "tokenOfOwnerByIndex",
      "outputs": [
        {
          "internalType": "uint256",
          "name": "",
          "type": "uint256"
        }
      ],
      "stateMutability": "view",
      "type": "function"
    },
    {
      "inputs": [
        {
          "internalType": "uint256",
          "name": "tokenId",
          "type": "uint256"
        }
      ],
      "name": "tokenURI",
      "outputs": [
        {
          "internalType": "string",
          "name": "",
          "type": "string"
        }
      ],
      "stateMutability": "view",
      "type": "function"
    },
    {
      "inputs": [],
      "name": "totalCollateral",
      "outputs": [
        {
          "internalType": "uint256",
          "name": "",
          "type": "uint256"
        }
      ],
      "stateMutability": "view",
      "type": "function"
    },
    {
      "inputs": [],
      "name": "totalDebt",
      "outputs": [
        {
          "internalType": "uint256",
          "name": "",
          "type": "uint256"
        }
      ],
      "stateMutability": "view",
      "type": "function"
    },
    {
      "inputs": [],
      "name": "totalFee",
      "outputs": [
        {
          "internalType": "uint256",
          "name": "",
          "type": "uint256"
        }
      ],
      "stateMutability": "view",
      "type": "function"
    },
    {
      "inputs": [],
      "name": "totalSupply",
      "outputs": [
        {
          "internalType": "uint256",
          "name": "",
          "type": "uint256"
        }
      ],
      "stateMutability": "view",
      "type": "function"
    },
    {
      "inputs": [
        {
          "internalType": "address",
          "name": "from",
          "type": "address"
        },
        {
          "internalType": "address",
          "name": "to",
          "type": "address"
        },
        {
          "internalType": "uint256",
          "name": "tokenId",
          "type": "uint256"
        }
      ],
      "name": "transferFrom",
      "outputs": [],
      "stateMutability": "nonpayable",
      "type": "function"
    },
    {
      "inputs": [
        {
          "internalType": "address",
          "name": "newOwner",
          "type": "address"
        }
      ],
      "name": "transferOwnership",
      "outputs": [],
      "stateMutability": "nonpayable",
      "type": "function"
    },
    {
      "inputs": [],
      "name": "unpause",
      "outputs": [],
      "stateMutability": "nonpayable",
      "type": "function"
    },
    {
      "inputs": [
        {
          "internalType": "uint256",
          "name": "newCollateralPrice",
          "type": "uint256"
        },
        {
          "internalType": "uint256",
          "name": "confidence",
          "type": "uint256"
        }
      ],
      "name": "updateCollateralPrice",
      "outputs": [],
      "stateMutability": "nonpayable",
      "type": "function"
    },
    {
      "inputs": [
        {
          "internalType": "uint256",
          "name": "id_",
          "type": "uint256"
        }
      ],
      "name": "updateFee",
      "outputs": [
        {
          "internalType": "uint256",
          "name": "additionalFee",
          "type": "uint256"
        }
      ],
      "stateMutability": "nonpayable",
      "type": "function"
    },
    {
      "inputs": [
        {
          "internalType": "address",
          "name": "newOracleFeeder",
          "type": "address"
        }
      ],
      "name": "updateOracleFeeder",
      "outputs": [],
      "stateMutability": "nonpayable",
      "type": "function"
    },
    {
      "inputs": [
        {
          "internalType": "uint256",
          "name": "id_",
          "type": "uint256"
        },
        {
          "internalType": "uint256",
          "name": "amount_",
          "type": "uint256"
        }
      ],
      "name": "withdraw",
      "outputs": [],
      "stateMutability": "nonpayable",
      "type": "function"
    }
  ],
  "bytecode": "0x610120604052617530600c553480156200001857600080fd5b5060405162005257380380620052578339810160408190526200003b916200056e565b6040518060400160405280600b81526020016a0466f784661726d204344560ac1b8152506040518060400160405280600381526020016204344560ec1b8152508d8d8d8d8a8a8a8a8a888b8b81600090805190602001906200009f929190620004ab565b508051620000b5906001906020840190620004ab565b5050600a805460ff1916905550620000cd3362000389565b600b80546001600160a01b03199081166001600160a01b0393841617909155600f80549091169982169990991790985595871660805293861660a052600d92909255600e556010556011556013558f93508316151591506200017c90505760405162461bcd60e51b815260206004820152603160248201526000805160206200523783398151915260448201526000805160206200521783398151915260648201526084015b60405180910390fd5b8a6001600160a01b038116620001d95760405162461bcd60e51b8152602060048201526031602482015260008051602062005237833981519152604482015260008051602062005217833981519152606482015260840162000173565b8a6001600160a01b038116620002365760405162461bcd60e51b8152602060048201526031602482015260008051602062005237833981519152604482015260008051602062005217833981519152606482015260840162000173565b8a6001600160a01b038116620002935760405162461bcd60e51b8152602060048201526031602482015260008051602062005237833981519152604482015260008051602062005217833981519152606482015260840162000173565b8a6001600160a01b038116620002f05760405162461bcd60e51b8152602060048201526031602482015260008051602062005237833981519152604482015260008051602062005217833981519152606482015260840162000173565b8a6001600160a01b0381166200034d5760405162461bcd60e51b8152602060048201526031602482015260008051602062005237833981519152604482015260008051602062005217833981519152606482015260840162000173565b6001600160a01b03808f1660c0528d811660e0528c166101005262000371620003e3565b50505050505050505050505050505050505062000673565b600a80546001600160a01b03838116610100818102610100600160a81b031985161790945560405193909204169182907f8be0079c531659141344cd1fd0a4f28419497f9722a3daafe3b4186f6b6457e090600090a35050565b60a05160e051604051630571ac8b60e41b81526001600160a01b03918216600482015291169063571ac8b090602401600060405180830381600087803b1580156200042d57600080fd5b505af115801562000442573d6000803e3d6000fd5b505060c05160e051604051630571ac8b60e41b81526001600160a01b0391821660048201529116925063571ac8b09150602401600060405180830381600087803b1580156200049057600080fd5b505af1158015620004a5573d6000803e3d6000fd5b50505050565b828054620004b99062000636565b90600052602060002090601f016020900481019282620004dd576000855562000528565b82601f10620004f857805160ff191683800117855562000528565b8280016001018555821562000528579182015b82811115620005285782518255916020019190600101906200050b565b50620005369291506200053a565b5090565b5b808211156200053657600081556001016200053b565b80516001600160a01b03811681146200056957600080fd5b919050565b6000806000806000806000806000806000806101808d8f0312156200059257600080fd5b6200059d8d62000551565b9b50620005ad60208e0162000551565b9a50620005bd60408e0162000551565b9950620005cd60608e0162000551565b9850620005dd60808e0162000551565b9750620005ed60a08e0162000551565b9650620005fd60c08e0162000551565b955060e08d015194506101008d015193506101208d015192506101408d015191506101608d015190509295989b509295989b509295989b565b600181811c908216806200064b57607f821691505b602082108114156200066d57634e487b7160e01b600052602260045260246000fd5b50919050565b60805160a05160c05160e05161010051614a946200078360003960008181610cef015261120a01526000818161115601528181611668015281816117fb0152818161189401528181611a4e01528181612505015281816125ab01528181612694015281816128f101528181612e440152612e9d01526000818161110a0152818161161c015281816118bc015281816126370152612f34015260008181610953015281816118230152818161324001528181613279015281816132c5015281816133050152818161337f0152818161349c0152818161365b01526137260152600081816107b6015281816120360152818161241401528181612b4d01528181612bf10152612fa90152614a946000f3fe608060405234801561001057600080fd5b506004361061041d5760003560e01c80636b7a4a441161022b578063bc61c46011610130578063e985e9c5116100b8578063f384bd0511610087578063f384bd0514610935578063f46901ed1461093e578063f8d8989814610951578063fc7b9c1814610977578063fcfff16f1461098057600080fd5b8063e985e9c5146108c0578063ee50e50b146108fc578063efb2654d1461090f578063f2fde38b1461092257600080fd5b8063cca3ad6f116100ff578063cca3ad6f1461086c578063d296d1f11461087f578063d8aed14514610892578063dd8a04b3146108a5578063e2bbb158146108ad57600080fd5b8063bc61c46014610820578063bc71054e14610833578063be9757a014610846578063c87b56dd1461085957600080fd5b80639f123698116101b3578063b2016bd411610182578063b2016bd4146107b4578063b8192205146107da578063b88d4fde146107ed578063babe7c7414610800578063bb23c7371461080d57600080fd5b80639f12369814610772578063a22cb46514610785578063a70a836b14610798578063af640d0f146107ab57600080fd5b80638456cb59116101fa5780638456cb59146107265780638da5cb5b1461072e5780639012c4a81461074457806395d89b41146107575780639760a42b1461075f57600080fd5b80636b7a4a44146106f057806370a0823114610703578063715018a6146107165780638129fc1c1461071e57600080fd5b80632905f9cd11610331578063441a3e70116102b95780634f6ccce7116102885780634f6ccce7146106a45780635803d145146106b75780635891de72146106ca5780635c975abb146106d25780636352211e146106dd57600080fd5b8063441a3e701461066257806347786d37146106755780634ac8eb5f146106885780634cb9c24a1461069157600080fd5b80633296af23116103005780633296af2314610618578063335771141461062b578063355274ea1461063e5780633f4ba83a1461064757806342842e0e1461064f57600080fd5b80632905f9cd146105b75780632e2ddd45146105ca5780632f297daa146105dd5780632f745c591461060557600080fd5b80630b068e9c116103b4578063191e6f7c11610383578063191e6f7c1461056257806319f4ff2f146105755780631df4ccfc1461058857806323b872dd14610591578063262daf8e146105a457600080fd5b80630b068e9c146104ee5780630ecbcdab14610501578063134bbd7b1461051457806318160ddd1461055a57600080fd5b8063083dd51b116103f0578063083dd51b1461049f57806308a0c375146104b5578063095ea7b3146104c85780630aebeb4e146104db57600080fd5b806301ffc9a71461042257806302acc94b1461044a57806306fdde031461045f578063081812fc14610474575b600080fd5b6104356104303660046143ba565b610988565b60405190151581526020015b60405180910390f35b61045d6104583660046143d7565b6109b3565b005b610467610a4c565b604051610441919061445b565b61048761048236600461446e565b610ade565b6040516001600160a01b039091168152602001610441565b6104a7610b05565b604051908152602001610441565b61045d6104c336600461446e565b610b22565b61045d6104d636600461449e565b610b70565b61045d6104e936600461446e565b610c86565b61045d6104fc3660046144c8565b610cc3565b61045d61050f3660046144c8565b610eab565b61052761052236600461446e565b610ef1565b60405161044191908151815260208083015190820152604080830151908201526060918201519181019190915260800190565b6008546104a7565b61045d6105703660046144c8565b610fcc565b61045d61058336600461446e565b610fed565b6104a760185481565b61045d61059f3660046144ea565b611033565b61045d6105b2366004614526565b611064565b6104a76105c53660046144c8565b611078565b61045d6105d83660046143d7565b6110b0565b6105f06105eb36600461449e565b6110d2565b60408051928352602083019190915201610441565b6104a761061336600461449e565b611291565b61045d61062636600461446e565b611327565b6104a761063936600461446e565b61136d565b6104a7600e5481565b61045d6113b2565b61045d61065d3660046144ea565b6113c4565b61045d6106703660046144c8565b6113df565b61045d61068336600461446e565b61141d565b6104a760165481565b61043561069f36600461446e565b611463565b6104a76106b236600461446e565b611478565b61045d6106c536600461446e565b61150b565b600c546104a7565b600a5460ff16610435565b6104876106eb36600461446e565b611551565b6104a76106fe366004614541565b6115b1565b6104a7610711366004614526565b61174c565b61045d6117d2565b61045d6117e4565b61045d611916565b600a5461010090046001600160a01b0316610487565b6104a761075236600461446e565b611926565b610467611931565b61045d61076d3660046143d7565b611940565b6105f0610780366004614541565b611999565b61045d610793366004614588565b611adb565b6105f06107a636600461446e565b611aea565b6104a760155481565b7f0000000000000000000000000000000000000000000000000000000000000000610487565b61045d6107e83660046143d7565b611bb2565b61045d6107fb3660046145d5565b611c20565b6611c37937e080006104a7565b6104a761081b36600461446e565b611c52565b6104a761082e3660046144c8565b611c83565b6104a761084136600461446e565b611ca0565b6104a76108543660046144c8565b611d30565b61046761086736600461446e565b611d4d565b61045d61087a36600461446e565b611dc0565b61045d61088d3660046144c8565b611e06565b61045d6108a03660046144c8565b611e9d565b6104a7611eb3565b61045d6108bb3660046144c8565b611f3a565b6104356108ce3660046146b1565b6001600160a01b03918216600090815260056020908152604080832093909416825291909152205460ff1690565b6104a761090a3660046144c8565b611f58565b61045d61091d3660046144c8565b611f95565b61045d610930366004614526565b61208f565b6104a7600d5481565b61045d61094c366004614526565b612105565b7f0000000000000000000000000000000000000000000000000000000000000000610487565b6104a760175481565b6104a7612167565b60006001600160e01b0319821663780e9d6360e01b14806109ad57506109ad8261218b565b92915050565b6109bb6121db565b6015543390841015610a1b576109d18185612221565b6109f65760405162461bcd60e51b81526004016109ed906146e4565b60405180910390fd5b6109ff846122a0565b50610a0b8185856123c6565b610a168185846124ec565b610a46565b610a2481612710565b9350610a2f846122a0565b50610a3b8185856123c6565b610a468185846124ec565b50505050565b606060008054610a5b90614734565b80601f0160208091040260200160405190810160405280929190818152602001828054610a8790614734565b8015610ad45780601f10610aa957610100808354040283529160200191610ad4565b820191906000526020600020905b815481529060010190602001808311610ab757829003601f168201915b5050505050905090565b6000610ae982612795565b506000908152600460205260409020546001600160a01b031690565b6000610b1d601654601854601754610854919061477f565b905090565b610b2a6127f4565b600d80549082905560408051828152602081018490527fe796e9ae748449310fcd1cc6718aab236c9b8d2e0e04dacb232ba564d5b338cc91015b60405180910390a15050565b6000610b7b82611551565b9050806001600160a01b0316836001600160a01b03161415610be95760405162461bcd60e51b815260206004820152602160248201527f4552433732313a20617070726f76616c20746f2063757272656e74206f776e656044820152603960f91b60648201526084016109ed565b336001600160a01b0382161480610c055750610c0581336108ce565b610c775760405162461bcd60e51b815260206004820152603d60248201527f4552433732313a20617070726f76652063616c6c6572206973206e6f7420746f60448201527f6b656e206f776e6572206f7220617070726f76656420666f7220616c6c00000060648201526084016109ed565b610c818383612854565b505050565b80610c90816122a0565b503382610c9d8282612221565b610cb95760405162461bcd60e51b81526004016109ed906146e4565b610a4633856128c2565b81610ccd816122a0565b50610cd66121db565b604051630852cd8d60e31b8152600481018390526000907f00000000000000000000000000000000000000000000000000000000000000006001600160a01b0316906342966c68906024016040805180830381600087803b158015610d3a57600080fd5b505af1158015610d4e573d6000803e3d6000fd5b505050506040513d601f19601f82011682018060405250810190610d729190614797565b6000868152601460205260409020600281015491935091508211610dcb5781816002016000828254610da491906147bb565b9091555050600281015460188054600090610dc09084906147bb565b90915550610ea49050565b8181600201548260010154610de0919061477f565b1015610e3457806001015460176000828254610dfc91906147bb565b9250508190555060008160010181905550806002015460186000828254610e2391906147bb565b909155505060006002820155610ea4565b6002810154610e4390836147bb565b816001016000828254610e5691906147bb565b90915550506002810154610e6a90836147bb565b60176000828254610e7b91906147bb565b9091555050600281015460188054600090610e979084906147bb565b9091555050600060028201555b5050505050565b81610eb5816122a0565b50610ebe6121db565b3383610eca8282612221565b610ee65760405162461bcd60e51b81526004016109ed906146e4565b610ea43386866124ec565b610f1c6040518060800160405280600081526020016000815260200160008152602001600081525090565b6000828152601460209081526040918290208251608081018452815481526001820154928101929092526002810154928201929092526003909101546060820152610f6b61271061016d6147d2565b610f769060186147d2565b610f8190603c6147d2565b610f8c90603c6147d2565b6010546060830151610f9e90426147bb565b8360200151610fad91906147d2565b610fb791906147d2565b610fc191906147f1565b604082015292915050565b81610fd6816122a0565b50610fdf612a21565b610c81338484600080612a6a565b610ff56127f4565b601080549082905560408051828152602081018490527f249ce3aa19ca005081b3e7143ee5f00395d8ac801e1fd05ec532b214a56420f99101610b64565b61103d3382612221565b6110595760405162461bcd60e51b81526004016109ed90614813565b610c81838383612c73565b61106c6127f4565b61107581612de4565b50565b6000611086612710806147d2565b82600c548561109591906147d2565b61109f91906147d2565b6110a991906147f1565b9392505050565b826110ba816122a0565b50336110c7818686612e3e565b610ea4818685612f5b565b6000806110dd6121db565b6127106110e8611eb3565b106111055760405162461bcd60e51b81526004016109ed90614860565b61113a7f00000000000000000000000000000000000000000000000000000000000000006001600160a01b03163330866130e9565b604051631957dd9f60e21b8152306004820152602481018490527f00000000000000000000000000000000000000000000000000000000000000006001600160a01b03169063655f767c90604401602060405180830381600087803b1580156111a257600080fd5b505af11580156111b6573d6000803e3d6000fd5b505050506040513d601f19601f820116820180604052508101906111da91906148a5565b604051632baf2acb60e01b81526001600160a01b03868116600483015260248201869052604482018390529192507f000000000000000000000000000000000000000000000000000000000000000090911690632baf2acb90606401602060405180830381600087803b15801561125057600080fd5b505af1158015611264573d6000803e3d6000fd5b505050506040513d601f19601f8201168201806040525081019061128891906148a5565b91509250929050565b600061129c8361174c565b82106112fe5760405162461bcd60e51b815260206004820152602b60248201527f455243373231456e756d657261626c653a206f776e657220696e646578206f7560448201526a74206f6620626f756e647360a81b60648201526084016109ed565b506001600160a01b03919091166000908152600660209081526040808320938352929052205490565b61132f6127f4565b601380549082905560408051828152602081018490527f0aa2054351d9389e87b38a613dd2d616351b5773ad459cd962ae13ab58be09799101610b64565b6000601554821061138057506000919050565b600061138b83610ef1565b90506113a9816000015182604001518360200151610854919061477f565b9150505b919050565b6113ba6127f4565b6113c2613154565b565b610c8183838360405180602001604052806000815250611c20565b816113e9816122a0565b5033836113f68282612221565b6114125760405162461bcd60e51b81526004016109ed906146e4565b610ea4338686612f5b565b6114256127f4565b600e80549082905560408051828152602081018490527fdbbbb176683582b710ef3349793b8d62658724a9d9b54deccf193c4b0aa90c4c9101610b64565b600061271061147183611ca0565b1092915050565b600061148360085490565b82106114e65760405162461bcd60e51b815260206004820152602c60248201527f455243373231456e756d657261626c653a20676c6f62616c20696e646578206f60448201526b7574206f6620626f756e647360a01b60648201526084016109ed565b600882815481106114f9576114f96148be565b90600052602060002001549050919050565b6115136127f4565b601280549082905560408051828152602081018490527fc50c6d38ff6cccebc793f34d953bfd12a87b9f7301f5df58df875d3eebf1d67a9101610b64565b6000818152600260205260408120546001600160a01b0316806109ad5760405162461bcd60e51b8152602060048201526018602482015277115490cdcc8c4e881a5b9d985b1a59081d1bdad95b88125160421b60448201526064016109ed565b6000836115bd816122a0565b506115c66121db565b33856115d28282612221565b6115ee5760405162461bcd60e51b81526004016109ed906146e4565b6127106115f9611eb3565b106116165760405162461bcd60e51b81526004016109ed90614860565b3361164c7f00000000000000000000000000000000000000000000000000000000000000006001600160a01b031682308a6130e9565b604051631957dd9f60e21b8152306004820152602481018890527f00000000000000000000000000000000000000000000000000000000000000006001600160a01b03169063655f767c90604401602060405180830381600087803b1580156116b457600080fd5b505af11580156116c8573d6000803e3d6000fd5b505050506040513d601f19601f820116820180604052508101906116ec91906148a5565b94506116f93089876131a6565b600061170489610ef1565b905060006117258260400151836020015161171f919061477f565b89611c83565b825161173191906147bb565b905061173e8b8b83612f5b565b505050505050949350505050565b60006001600160a01b0382166117b65760405162461bcd60e51b815260206004820152602960248201527f4552433732313a2061646472657373207a65726f206973206e6f7420612076616044820152683634b21037bbb732b960b91b60648201526084016109ed565b506001600160a01b031660009081526003602052604090205490565b6117da6127f4565b6113c26000613535565b604051630571ac8b60e41b81526001600160a01b037f0000000000000000000000000000000000000000000000000000000000000000811660048301527f0000000000000000000000000000000000000000000000000000000000000000169063571ac8b090602401600060405180830381600087803b15801561186757600080fd5b505af115801561187b573d6000803e3d6000fd5b5050604051630571ac8b60e41b81526001600160a01b037f0000000000000000000000000000000000000000000000000000000000000000811660048301527f000000000000000000000000000000000000000000000000000000000000000016925063571ac8b09150602401600060405180830381600087803b15801561190257600080fd5b505af1158015610a46573d6000803e3d6000fd5b61191e6127f4565b6113c261358f565b60006109ad826122a0565b606060018054610a5b90614734565b6119486121db565b82611952816122a0565b50338461195f8282612221565b61197b5760405162461bcd60e51b81526004016109ed906146e4565b6119863387876123c6565b6119913387866124ec565b505050505050565b600080846119a6816122a0565b506119af6121db565b33866119bb8282612221565b6119d75760405162461bcd60e51b81526004016109ed906146e4565b6119e23389896123c6565b60006119ed89610ef1565b9050600081604001518260200151611a05919061477f565b8251611a11908a611078565b611a1b91906147bb565b9050611a28308b836135cc565b60405163423e797960e01b81526001600160a01b038c81166004830152602482018390527f0000000000000000000000000000000000000000000000000000000000000000169063423e7979906044016040805180830381600087803b158015611a9157600080fd5b505af1158015611aa5573d6000803e3d6000fd5b505050506040513d601f19601f82011682018060405250810190611ac99190614797565b909c909b509950505050505050505050565b611ae6338383613850565b5050565b6000806000611af884610ef1565b905061271080601254601154611b0e919061477f565b611b18919061477f565b600d54611b2591906147d2565b611b31612710806147d2565b611b3b91906147bb565b611b4591906147d2565b612710601354611b55919061477f565b600c548351600d54611b6791906147d2565b611b7191906147d2565b6020840151611b82612710806147d2565b611b8c91906147d2565b611b9691906147bb565b611ba091906147d2565b611baa91906147f1565b925050915091565b611bba6121db565b6015543390841015611be657611bcf846122a0565b50611bdb818585612e3e565b610a16818584612f5b565b611bf08185612221565b611c0c5760405162461bcd60e51b81526004016109ed906146e4565b611c15846122a0565b50610a4681856128c2565b611c2a3383612221565b611c465760405162461bcd60e51b81526004016109ed90614813565b610a468484848461391f565b6000611c5c6121db565b33611c6681612710565b9150611c71826122a0565b50611c7d8183856123c6565b50919050565b6000600c5482611c9391906147d2565b61271061109581866147d2565b600080611cac83610ef1565b8051909150611cd1576020810151611cc75750600092915050565b5061271092915050565b600d54600c548251611ce391906147d2565b611ced91906147d2565b6127108061271084604001518560200151611d08919061477f565b611d1291906147d2565b611d1c91906147d2565b611d2691906147d2565b6113a991906147f1565b6000600c5483611d4091906147d2565b61271061109581856147d2565b6060611d5882612795565b6000611d6f60408051602081019091526000815290565b90506000815111611d8f57604051806020016040528060008152506113a9565b80611d9984613952565b604051602001611daa9291906148d4565b6040516020818303038152906040529392505050565b611dc86127f4565b601180549082905560408051828152602081018490527f2a77c2062e3e532581748c9dc351926d201b893d8292f4f6aedfd03ec77c2acf9101610b64565b81611e10816122a0565b50600080611e1d85611aea565b91509150838111158015611e315750818411155b611e8c5760405162461bcd60e51b815260206004820152602660248201527f4344503a3a6c69717569646174653a20616d6f756e74202d206f7574206f66206044820152653930b733b29760d11b60648201526084016109ed565b610ea4338686601154601254612a6a565b81611ea7816122a0565b50610c81338484612e3e565b6000601654600014158015611ec95750600c5415155b8015611ed65750600d5415155b15611f3757600d54600c54601654611eee91906147d2565b611ef891906147d2565b61271080612710601854601754611f0f919061477f565b611f1991906147d2565b611f2391906147d2565b611f2d91906147d2565b610b1d91906147f1565b90565b81611f44816122a0565b50611f4d6121db565b610c813384846123c6565b6000611f626121db565b33611f6c81612710565b9150611f77826122a0565b50611f838183866123c6565b611f8e8183856124ec565b5092915050565b600b546001600160a01b0316336001600160a01b03161461201e5760405162461bcd60e51b815260206004820152603f60248201527f4f7261636c653a3a6f6e6c794f7261636c654665656465723a2053656e64657260448201527f206d7573742062652073616d65206173205f6f7261636c654665656465722e0060648201526084016109ed565b600c80549083905560408051828152602081018590527f00000000000000000000000000000000000000000000000000000000000000006001600160a01b0316917f7c3bda8adcb9df1edd0059da351d966538bcc99f067c0770872170ac97fb6887910160405180910390a2505050565b6120976127f4565b6001600160a01b0381166120fc5760405162461bcd60e51b815260206004820152602660248201527f4f776e61626c653a206e6577206f776e657220697320746865207a65726f206160448201526564647265737360d01b60648201526084016109ed565b61107581613535565b61210d6127f4565b600f80546001600160a01b038381166001600160a01b031983168117909355604080519190921680825260208201939093527f41d2755f00068d89c23ebc6f1e73ce119a6236a44517ca061f544a3f91c9bca49101610b64565b6000806121726121db565b61217b33612710565b9150612186816122a0565b505090565b60006001600160e01b031982166380ac58cd60e01b14806121bc57506001600160e01b03198216635b5e139f60e01b145b806109ad57506301ffc9a760e01b6001600160e01b03198316146109ad565b600a5460ff16156113c25760405162461bcd60e51b815260206004820152601060248201526f14185d5cd8589b194e881c185d5cd95960821b60448201526064016109ed565b60008061222d83611551565b9050806001600160a01b0316846001600160a01b0316148061227457506001600160a01b0380821660009081526005602090815260408083209388168352929052205460ff165b806122985750836001600160a01b031661228d84610ade565b6001600160a01b0316145b949350505050565b600f546000906001600160a01b03166122bb57506000919050565b6000828152601460205260409020600381015460028201546122e161271061016d6147d2565b6122ec9060186147d2565b6122f790603c6147d2565b61230290603c6147d2565b60105461230f84426147bb565b856001015461231e91906147d2565b61232891906147d2565b61233291906147f1565b935083836002016000828254612348919061477f565b925050819055508360186000828254612361919061477f565b9091555050426003840181905560028401546040805184815260208101929092528101849052606081019190915285907f058060763f0c6ae3b30d3624dbb6899601ed67b215a0b7591707778c7218db2f9060800160405180910390a2505050919050565b60008281526014602052604081208054909183918391906123e890849061477f565b925050819055508160166000828254612401919061477f565b9091555061243c90506001600160a01b037f0000000000000000000000000000000000000000000000000000000000000000168530856130e9565b80546611c37937e0800011156124a25760405162461bcd60e51b815260206004820152602560248201527f4344503a3a5f6465706f7369743a204e6f7420656e6f75676820636f6c6c617460448201526432b930b61760d91b60648201526084016109ed565b82846001600160a01b03167f90890809c654f11d6e72a28fa60149770a0d11ec6c92319d6ceb2bb0a4ea1a15846040516124de91815260200190565b60405180910390a350505050565b604051630f5510c160e31b8152600481018290526000907f00000000000000000000000000000000000000000000000000000000000000006001600160a01b031690637aa886089060240160206040518083038186803b15801561254f57600080fd5b505afa158015612563573d6000803e3d6000fd5b505050506040513d601f19601f8201168201806040525081019061258791906148a5565b604051630e3cc56f60e41b8152600481018490529091506000906001600160a01b037f0000000000000000000000000000000000000000000000000000000000000000169063e3cc56f09060240160206040518083038186803b1580156125ed57600080fd5b505afa158015612601573d6000803e3d6000fd5b505050506040513d601f19601f8201168201806040525081019061262591906148a5565b90506126323085846135cc565b6126677f00000000000000000000000000000000000000000000000000000000000000006001600160a01b03163330846130e9565b604051630ab714fb60e11b81526001600160a01b03868116600483015260248201849052604482018390527f0000000000000000000000000000000000000000000000000000000000000000169063156e29f690606401602060405180830381600087803b1580156126d857600080fd5b505af11580156126ec573d6000803e3d6000fd5b505050506040513d601f19601f8201168201806040525081019061199191906148a5565b600061271061271d611eb3565b1061273a5760405162461bcd60e51b81526004016109ed90614860565b6015805490600061274a83614903565b91905055905061275a82826139ef565b60405181906001600160a01b038416907f50042401acb675fedd6dd939fccc629832ce60fa4185df25c01b20e8def195bf90600090a3919050565b6000818152600260205260409020546001600160a01b03166110755760405162461bcd60e51b8152602060048201526018602482015277115490cdcc8c4e881a5b9d985b1a59081d1bdad95b88125160421b60448201526064016109ed565b600a546001600160a01b036101009091041633146113c25760405162461bcd60e51b815260206004820181905260248201527f4f776e61626c653a2063616c6c6572206973206e6f7420746865206f776e657260448201526064016109ed565b600081815260046020526040902080546001600160a01b0319166001600160a01b038416908117909155819061288982611551565b6001600160a01b03167f8c5be1e5ebec7d5bd14f71427d1e84f3dd0314c0f7b2291e5b200ac8c7c3b92560405160405180910390a45050565b600081815260146020526040902060018101541515806128e55750600281015415155b156129a5576129a583837f00000000000000000000000000000000000000000000000000000000000000006001600160a01b031663199d525785600201548660010154612932919061477f565b6040518263ffffffff1660e01b815260040161295091815260200190565b60206040518083038186803b15801561296857600080fd5b505afa15801561297c573d6000803e3d6000fd5b505050506040513d601f19601f820116820180604052508101906129a091906148a5565b612e3e565b8054156129bb576129bb83838360000154612f5b565b6129c482613a09565b60008281526014602052604080822082815560018101839055600281018390556003018290555183916001600160a01b038616917f684222b0069d4a2e5e0d986611cc5182d543904c4e4264bf770d4e51faefc8229190a3505050565b600a5460ff166113c25760405162461bcd60e51b815260206004820152601460248201527314185d5cd8589b194e881b9bdd081c185d5cd95960621b60448201526064016109ed565b612a7384611463565b15612acc5760405162461bcd60e51b815260206004820152602360248201527f4344503a3a6c69717569646174653a20434450206d75737420626520756e736160448201526233329760e91b60648201526084016109ed565b612ad7858585612e3e565b6000848152601460205260408120600c54909190612af78561271061477f565b612b0190876147d2565b612b0b91906147f1565b905080826000016000828254612b2191906147bb565b925050819055508060166000828254612b3a91906147bb565b90915550612b7490506001600160a01b037f0000000000000000000000000000000000000000000000000000000000000000168883613aac565b600f546000906001600160a01b031615801590612b9057508315155b15612c1a57612710612ba285886147d2565b612bac91906147f1565b905080836000016000828254612bc291906147bb565b925050819055508060166000828254612bdb91906147bb565b9091555050600f54612c1a906001600160a01b037f00000000000000000000000000000000000000000000000000000000000000008116911683613aac565b866001600160a01b0389167f158ba9ab7bbbd08eeffa4753bad41f4d450e24831d293427308badf3eadd8c7688612c51858761477f565b6040805192835260208301919091520160405180910390a35050505050505050565b826001600160a01b0316612c8682611551565b6001600160a01b031614612cac5760405162461bcd60e51b81526004016109ed9061491e565b6001600160a01b038216612d0e5760405162461bcd60e51b8152602060048201526024808201527f4552433732313a207472616e7366657220746f20746865207a65726f206164646044820152637265737360e01b60648201526084016109ed565b612d1b8383836001613adc565b826001600160a01b0316612d2e82611551565b6001600160a01b031614612d545760405162461bcd60e51b81526004016109ed9061491e565b600081815260046020908152604080832080546001600160a01b03199081169091556001600160a01b0387811680865260038552838620805460001901905590871680865283862080546001019055868652600290945282852080549092168417909155905184937fddf252ad1be2c89b69c2b068fc378daa952ba7f163c4a11628f55a4df523b3ef91a4505050565b600b80546001600160a01b038381166001600160a01b031983168117909355604080519190921680825260208201939093527f6b2e9b3836edd552e454031d349dbf020544e4123c344f1ddb0a7a9a336adef99101610b64565b33612e747f00000000000000000000000000000000000000000000000000000000000000006001600160a01b03168230856130e9565b6040516301e9a69560e41b81523060048201526024810183905260009081906001600160a01b037f00000000000000000000000000000000000000000000000000000000000000001690631e9a6950906044016040805180830381600087803b158015612ee057600080fd5b505af1158015612ef4573d6000803e3d6000fd5b505050506040513d601f19601f82011682018060405250810190612f189190614797565b91509150612f273086846131a6565b6119916001600160a01b037f0000000000000000000000000000000000000000000000000000000000000000168783613aac565b6000828152601460205260408120805490918391839190612f7d9084906147bb565b925050819055508160166000828254612f9691906147bb565b90915550612fd090506001600160a01b037f0000000000000000000000000000000000000000000000000000000000000000168584613aac565b612fd983611463565b61303c5760405162461bcd60e51b815260206004820152602e60248201527f4344503a3a5f77697468647261773a20434450206f7065726174696f6e20657860448201526d31b2b2b2399036b0bc10262a2b1760911b60648201526084016109ed565b80541580613052575080546611c37937e0800011155b6130ad5760405162461bcd60e51b815260206004820152602660248201527f4344503a3a5f77697468647261773a204e6f7420656e6f75676820636f6c6c616044820152653a32b930b61760d11b60648201526084016109ed565b82846001600160a01b03167ff279e6a1f5e320cca91135676d9cb6e44ca8a08c0b88342bcdb1144f6511b568846040516124de91815260200190565b6040516001600160a01b0380851660248301528316604482015260648101829052610a469085906323b872dd60e01b906084015b60408051601f198184030181529190526020810180516001600160e01b03166001600160e01b031990931692909217909152613c09565b61315c612a21565b600a805460ff191690557f5db9ee0a495bf2e6ff9c91a7834c1ba4fdd244a5e8aa4e537bd38aeae4b073aa335b6040516001600160a01b03909116815260200160405180910390a1565b6000828152601460205260409020600f546001600160a01b0316158015906131d15750600281015415155b1561344457600f5460028201546001600160a01b039091169083116132a1578282600201600082825461320491906147bb565b92505081905550826018600082825461321d91906147bb565b90915550506001600160a01b03851630141561326c576132676001600160a01b037f0000000000000000000000000000000000000000000000000000000000000000168285613aac565b61343e565b6132676001600160a01b037f0000000000000000000000000000000000000000000000000000000000000000168683866130e9565b6001600160a01b0385163014156132f25760028201546132ed906001600160a01b037f000000000000000000000000000000000000000000000000000000000000000016908390613aac565b61332f565b600282015461332f906001600160a01b037f00000000000000000000000000000000000000000000000000000000000000001690879084906130e9565b600282015461333e90846147bb565b82600101600082825461335191906147bb565b9091555050600282015461336590846147bb565b6017600082825461337691906147bb565b925050819055507f00000000000000000000000000000000000000000000000000000000000000006001600160a01b03166379cc6790868460020154866133bd91906147bb565b6040516001600160e01b031960e085901b1681526001600160a01b0390921660048301526024820152604401600060405180830381600087803b15801561340357600080fd5b505af1158015613417573d6000803e3d6000fd5b5050505081600201546018600082825461343191906147bb565b9091555050600060028301555b506134f9565b8181600101600082825461345891906147bb565b92505081905550816017600082825461347191906147bb565b909155505060405163079cc67960e41b81526001600160a01b038581166004830152602482018490527f000000000000000000000000000000000000000000000000000000000000000016906379cc679090604401600060405180830381600087803b1580156134e057600080fd5b505af11580156134f4573d6000803e3d6000fd5b505050505b82846001600160a01b03167f77c6871227e5d2dec8dadd5354f78453203e22e669cd0ec4c19d9a8c5edb31d0846040516124de91815260200190565b600a80546001600160a01b03838116610100818102610100600160a81b031985161790945560405193909204169182907f8be0079c531659141344cd1fd0a4f28419497f9722a3daafe3b4186f6b6457e090600090a35050565b6135976121db565b600a805460ff191660011790557f62e78cea01bee320cd4e420270b5ea74000d11b0c9f74754ebdbfc544b05a2586131893390565b6127106135d7611eb3565b106135f45760405162461bcd60e51b81526004016109ed90614860565b60008281526014602052604081206001810180549192849261361790849061477f565b925050819055508160176000828254613630919061477f565b90915550506040516308934a5f60e31b81526001600160a01b038581166004830152602482018490527f0000000000000000000000000000000000000000000000000000000000000000169063449a52f890604401600060405180830381600087803b15801561369f57600080fd5b505af11580156136b3573d6000803e3d6000fd5b505050506136c083611463565b6137215760405162461bcd60e51b815260206004820152602c60248201527f4344503a3a5f626f72726f773a20434450206f7065726174696f6e206578636560448201526b32b2399036b0bc10262a2b1760a11b60648201526084016109ed565b600e547f00000000000000000000000000000000000000000000000000000000000000006001600160a01b03166318160ddd6040518163ffffffff1660e01b815260040160206040518083038186803b15801561377d57600080fd5b505afa158015613791573d6000803e3d6000fd5b505050506040513d601f19601f820116820180604052508101906137b591906148a5565b11156138145760405162461bcd60e51b815260206004820152602860248201527f4344503a3a5f626f72726f773a2043616e6e6f7420626f72726f772053494e2060448201526730b73cb6b7b9329760c11b60648201526084016109ed565b82846001600160a01b03167fe1979fe4c35e0cef342fef5668e2c8e7a7e9f5d5d1ca8fee0ac6c427fa4153af846040516124de91815260200190565b816001600160a01b0316836001600160a01b031614156138b25760405162461bcd60e51b815260206004820152601960248201527f4552433732313a20617070726f766520746f2063616c6c65720000000000000060448201526064016109ed565b6001600160a01b03838116600081815260056020908152604080832094871680845294825291829020805460ff191686151590811790915591519182527f17307eab39ab6107e8899845ad3d59bd9653f200f220920489ca2b5937696c31910160405180910390a3505050565b61392a848484612c73565b61393684848484613cde565b610a465760405162461bcd60e51b81526004016109ed90614963565b6060600061395f83613deb565b600101905060008167ffffffffffffffff81111561397f5761397f6145bf565b6040519080825280601f01601f1916602001820160405280156139a9576020820181803683370190505b5090508181016020015b600019016f181899199a1a9b1b9c1cb0b131b232b360811b600a86061a8153600a85049450846139e2576139e7565b6139b3565b509392505050565b611ae6828260405180602001604052806000815250613ec3565b6000613a1482611551565b9050613a24816000846001613adc565b613a2d82611551565b600083815260046020908152604080832080546001600160a01b03199081169091556001600160a01b0385168085526003845282852080546000190190558785526002909352818420805490911690555192935084927fddf252ad1be2c89b69c2b068fc378daa952ba7f163c4a11628f55a4df523b3ef908390a45050565b6040516001600160a01b038316602482015260448101829052610c8190849063a9059cbb60e01b9060640161311d565b6001811115613b4b5760405162461bcd60e51b815260206004820152603560248201527f455243373231456e756d657261626c653a20636f6e7365637574697665207472604482015274185b9cd9995c9cc81b9bdd081cdd5c1c1bdc9d1959605a1b60648201526084016109ed565b816001600160a01b038516613ba757613ba281600880546000838152600960205260408120829055600182018355919091527ff3f7a9fe364faab93b216da50a3214154f22a0a2b415b23a84c8169e8b636ee30155565b613bca565b836001600160a01b0316856001600160a01b031614613bca57613bca8582613ef6565b6001600160a01b038416613be657613be181613f93565b610ea4565b846001600160a01b0316846001600160a01b031614610ea457610ea48482614042565b6000613c5e826040518060400160405280602081526020017f5361666545524332303a206c6f772d6c6576656c2063616c6c206661696c6564815250856001600160a01b03166140869092919063ffffffff16565b9050805160001480613c7f575080806020019051810190613c7f91906149b5565b610c815760405162461bcd60e51b815260206004820152602a60248201527f5361666545524332303a204552433230206f7065726174696f6e20646964206e6044820152691bdd081cdd58d8d9595960b21b60648201526084016109ed565b60006001600160a01b0384163b15613de057604051630a85bd0160e11b81526001600160a01b0385169063150b7a0290613d229033908990889088906004016149d2565b602060405180830381600087803b158015613d3c57600080fd5b505af1925050508015613d6c575060408051601f3d908101601f19168201909252613d6991810190614a0f565b60015b613dc6573d808015613d9a576040519150601f19603f3d011682016040523d82523d6000602084013e613d9f565b606091505b508051613dbe5760405162461bcd60e51b81526004016109ed90614963565b805181602001fd5b6001600160e01b031916630a85bd0160e11b149050612298565b506001949350505050565b60008072184f03e93ff9f4daa797ed6e38ed64bf6a1f0160401b8310613e2a5772184f03e93ff9f4daa797ed6e38ed64bf6a1f0160401b830492506040015b6d04ee2d6d415b85acef81000000008310613e56576d04ee2d6d415b85acef8100000000830492506020015b662386f26fc100008310613e7457662386f26fc10000830492506010015b6305f5e1008310613e8c576305f5e100830492506008015b6127108310613ea057612710830492506004015b60648310613eb2576064830492506002015b600a83106109ad5760010192915050565b613ecd8383614095565b613eda6000848484613cde565b610c815760405162461bcd60e51b81526004016109ed90614963565b60006001613f038461174c565b613f0d91906147bb565b600083815260076020526040902054909150808214613f60576001600160a01b03841660009081526006602090815260408083208584528252808320548484528184208190558352600790915290208190555b5060009182526007602090815260408084208490556001600160a01b039094168352600681528383209183525290812055565b600854600090613fa5906001906147bb565b60008381526009602052604081205460088054939450909284908110613fcd57613fcd6148be565b906000526020600020015490508060088381548110613fee57613fee6148be565b600091825260208083209091019290925582815260099091526040808220849055858252812055600880548061402657614026614a2c565b6001900381819060005260206000200160009055905550505050565b600061404d8361174c565b6001600160a01b039093166000908152600660209081526040808320868452825280832085905593825260079052919091209190915550565b6060612298848460008561422e565b6001600160a01b0382166140eb5760405162461bcd60e51b815260206004820181905260248201527f4552433732313a206d696e7420746f20746865207a65726f206164647265737360448201526064016109ed565b6000818152600260205260409020546001600160a01b0316156141505760405162461bcd60e51b815260206004820152601c60248201527f4552433732313a20746f6b656e20616c7265616479206d696e7465640000000060448201526064016109ed565b61415e600083836001613adc565b6000818152600260205260409020546001600160a01b0316156141c35760405162461bcd60e51b815260206004820152601c60248201527f4552433732313a20746f6b656e20616c7265616479206d696e7465640000000060448201526064016109ed565b6001600160a01b038216600081815260036020908152604080832080546001019055848352600290915280822080546001600160a01b0319168417905551839291907fddf252ad1be2c89b69c2b068fc378daa952ba7f163c4a11628f55a4df523b3ef908290a45050565b60608247101561428f5760405162461bcd60e51b815260206004820152602660248201527f416464726573733a20696e73756666696369656e742062616c616e636520666f6044820152651c8818d85b1b60d21b60648201526084016109ed565b600080866001600160a01b031685876040516142ab9190614a42565b60006040518083038185875af1925050503d80600081146142e8576040519150601f19603f3d011682016040523d82523d6000602084013e6142ed565b606091505b50915091506142fe87838387614309565b979650505050505050565b6060831561437557825161436e576001600160a01b0385163b61436e5760405162461bcd60e51b815260206004820152601d60248201527f416464726573733a2063616c6c20746f206e6f6e2d636f6e747261637400000060448201526064016109ed565b5081612298565b612298838381511561438a5781518083602001fd5b8060405162461bcd60e51b81526004016109ed919061445b565b6001600160e01b03198116811461107557600080fd5b6000602082840312156143cc57600080fd5b81356110a9816143a4565b6000806000606084860312156143ec57600080fd5b505081359360208301359350604090920135919050565b60005b8381101561441e578181015183820152602001614406565b83811115610a465750506000910152565b60008151808452614447816020860160208601614403565b601f01601f19169290920160200192915050565b6020815260006110a9602083018461442f565b60006020828403121561448057600080fd5b5035919050565b80356001600160a01b03811681146113ad57600080fd5b600080604083850312156144b157600080fd5b6144ba83614487565b946020939093013593505050565b600080604083850312156144db57600080fd5b50508035926020909101359150565b6000806000606084860312156144ff57600080fd5b61450884614487565b925061451660208501614487565b9150604084013590509250925092565b60006020828403121561453857600080fd5b6110a982614487565b6000806000806080858703121561455757600080fd5b61456085614487565b966020860135965060408601359560600135945092505050565b801515811461107557600080fd5b6000806040838503121561459b57600080fd5b6145a483614487565b915060208301356145b48161457a565b809150509250929050565b634e487b7160e01b600052604160045260246000fd5b600080600080608085870312156145eb57600080fd5b6145f485614487565b935061460260208601614487565b925060408501359150606085013567ffffffffffffffff8082111561462657600080fd5b818701915087601f83011261463a57600080fd5b81358181111561464c5761464c6145bf565b604051601f8201601f19908116603f01168101908382118183101715614674576146746145bf565b816040528281528a602084870101111561468d57600080fd5b82602086016020830137600060208483010152809550505050505092959194509250565b600080604083850312156146c457600080fd5b6146cd83614487565b91506146db60208401614487565b90509250929050565b60208082526030908201527f4344503a3a6f6e6c79436470417070726f7665644f724f776e65723a204e6f7460408201526f1030903b30b634b21031b0b63632b91760811b606082015260800190565b600181811c9082168061474857607f821691505b60208210811415611c7d57634e487b7160e01b600052602260045260246000fd5b634e487b7160e01b600052601160045260246000fd5b6000821982111561479257614792614769565b500190565b600080604083850312156147aa57600080fd5b505080516020909101519092909150565b6000828210156147cd576147cd614769565b500390565b60008160001904831182151516156147ec576147ec614769565b500290565b60008261480e57634e487b7160e01b600052601260045260246000fd5b500490565b6020808252602d908201527f4552433732313a2063616c6c6572206973206e6f7420746f6b656e206f776e6560408201526c1c881bdc88185c1c1c9bdd9959609a1b606082015260800190565b60208082526025908201527f4344503a3a6f6e6c79476c6f62616c6c794865616c7468793a204e6f7420686560408201526430b63a3c9760d91b606082015260800190565b6000602082840312156148b757600080fd5b5051919050565b634e487b7160e01b600052603260045260246000fd5b600083516148e6818460208801614403565b8351908301906148fa818360208801614403565b01949350505050565b600060001982141561491757614917614769565b5060010190565b60208082526025908201527f4552433732313a207472616e736665722066726f6d20696e636f72726563742060408201526437bbb732b960d91b606082015260800190565b60208082526032908201527f4552433732313a207472616e7366657220746f206e6f6e20455243373231526560408201527131b2b4bb32b91034b6b83632b6b2b73a32b960711b606082015260800190565b6000602082840312156149c757600080fd5b81516110a98161457a565b6001600160a01b0385811682528416602082015260408101839052608060608201819052600090614a059083018461442f565b9695505050505050565b600060208284031215614a2157600080fd5b81516110a9816143a4565b634e487b7160e01b600052603160045260246000fd5b60008251614a54818460208701614403565b919091019291505056fea26469706673582212202a700f41d1a432d2c0c01d640685d9347d8afbd10424074d4abd44fa6218307964736f6c63430008090033206d757374206265206e6f6e7a65726f2e0000000000000000000000000000004e6f6e7a65726f3a3a6e6f6e7a65726f416464726573733a204163636f756e74",
  "linkReferences": {},
  "deployedLinkReferences": {}
}