{
  "_format": "hh-sol-artifact-1",
  "contractName": "FOXS",
  "sourceName": "contracts/tokens/FOXS.sol",
  "abi": [
    {
      "inputs": [],
      "stateMutability": "nonpayable",
      "type": "constructor"
    },
    {
      "anonymous": false,
      "inputs": [
        {
          "indexed": true,
          "internalType": "uint256",
          "name": "pid",
          "type": "uint256"
        },
        {
          "indexed": false,
          "internalType": "uint256",
          "name": "allocPoint",
          "type": "uint256"
        },
        {
          "indexed": true,
          "internalType": "contract IERC20",
          "name": "token",
          "type": "address"
        }
      ],
      "name": "AddPool",
      "type": "event"
    },
    {
      "anonymous": false,
      "inputs": [
        {
          "indexed": true,
          "internalType": "address",
          "name": "owner",
          "type": "address"
        },
        {
          "indexed": true,
          "internalType": "address",
          "name": "spender",
          "type": "address"
        },
        {
          "indexed": false,
          "internalType": "uint256",
          "name": "value",
          "type": "uint256"
        }
      ],
      "name": "Approval",
      "type": "event"
    },
    {
      "anonymous": false,
      "inputs": [
        {
          "indexed": true,
          "internalType": "address",
          "name": "user",
          "type": "address"
        },
        {
          "indexed": true,
          "internalType": "uint256",
          "name": "pid",
          "type": "uint256"
        },
        {
          "indexed": false,
          "internalType": "uint256",
          "name": "amount",
          "type": "uint256"
        },
        {
          "indexed": true,
          "internalType": "address",
          "name": "to",
          "type": "address"
        }
      ],
      "name": "Deposit",
      "type": "event"
    },
    {
      "anonymous": false,
      "inputs": [
        {
          "indexed": true,
          "internalType": "address",
          "name": "user",
          "type": "address"
        },
        {
          "indexed": true,
          "internalType": "uint256",
          "name": "pid",
          "type": "uint256"
        },
        {
          "indexed": false,
          "internalType": "uint256",
          "name": "amount",
          "type": "uint256"
        },
        {
          "indexed": true,
          "internalType": "address",
          "name": "to",
          "type": "address"
        }
      ],
      "name": "EmergencyWithdraw",
      "type": "event"
    },
    {
      "anonymous": false,
      "inputs": [
        {
          "indexed": true,
          "internalType": "address",
          "name": "user",
          "type": "address"
        },
        {
          "indexed": true,
          "internalType": "uint256",
          "name": "pid",
          "type": "uint256"
        },
        {
          "indexed": false,
          "internalType": "uint256",
          "name": "amount",
          "type": "uint256"
        },
        {
          "indexed": true,
          "internalType": "address",
          "name": "to",
          "type": "address"
        }
      ],
      "name": "Harvest",
      "type": "event"
    },
    {
      "anonymous": false,
      "inputs": [
        {
          "indexed": true,
          "internalType": "address",
          "name": "previousOwner",
          "type": "address"
        },
        {
          "indexed": true,
          "internalType": "address",
          "name": "newOwner",
          "type": "address"
        }
      ],
      "name": "OwnershipTransferred",
      "type": "event"
    },
    {
      "anonymous": false,
      "inputs": [
        {
          "indexed": true,
          "internalType": "uint256",
          "name": "pid",
          "type": "uint256"
        },
        {
          "indexed": false,
          "internalType": "uint256",
          "name": "allocPoint",
          "type": "uint256"
        }
      ],
      "name": "SetPool",
      "type": "event"
    },
    {
      "anonymous": false,
      "inputs": [
        {
          "indexed": true,
          "internalType": "address",
          "name": "from",
          "type": "address"
        },
        {
          "indexed": true,
          "internalType": "address",
          "name": "to",
          "type": "address"
        },
        {
          "indexed": false,
          "internalType": "uint256",
          "name": "value",
          "type": "uint256"
        }
      ],
      "name": "Transfer",
      "type": "event"
    },
    {
      "anonymous": false,
      "inputs": [
        {
          "indexed": true,
          "internalType": "uint256",
          "name": "pid",
          "type": "uint256"
        },
        {
          "indexed": false,
          "internalType": "uint256",
          "name": "lastRewardBlock",
          "type": "uint256"
        },
        {
          "indexed": false,
          "internalType": "uint256",
          "name": "totalDeposited",
          "type": "uint256"
        },
        {
          "indexed": false,
          "internalType": "uint256",
          "name": "accTokenPerShare",
          "type": "uint256"
        }
      ],
      "name": "Update",
      "type": "event"
    },
    {
      "anonymous": false,
      "inputs": [
        {
          "indexed": true,
          "internalType": "address",
          "name": "user",
          "type": "address"
        },
        {
          "indexed": true,
          "internalType": "uint256",
          "name": "pid",
          "type": "uint256"
        },
        {
          "indexed": false,
          "internalType": "uint256",
          "name": "amount",
          "type": "uint256"
        },
        {
          "indexed": true,
          "internalType": "address",
          "name": "to",
          "type": "address"
        }
      ],
      "name": "Withdraw",
      "type": "event"
    },
    {
      "inputs": [],
      "name": "TOKEN_PER_BLOCK",
      "outputs": [
        {
          "internalType": "uint256",
          "name": "",
          "type": "uint256"
        }
      ],
      "stateMutability": "view",
      "type": "function"
    },
    {
      "inputs": [
        {
          "internalType": "uint256",
          "name": "allocPoint_",
          "type": "uint256"
        },
        {
          "internalType": "contract IERC20",
          "name": "token_",
          "type": "address"
        }
      ],
      "name": "add",
      "outputs": [],
      "stateMutability": "nonpayable",
      "type": "function"
    },
    {
      "inputs": [
        {
          "internalType": "address",
          "name": "owner",
          "type": "address"
        },
        {
          "internalType": "address",
          "name": "spender",
          "type": "address"
        }
      ],
      "name": "allowance",
      "outputs": [
        {
          "internalType": "uint256",
          "name": "",
          "type": "uint256"
        }
      ],
      "stateMutability": "view",
      "type": "function"
    },
    {
      "inputs": [
        {
          "internalType": "address",
          "name": "spender",
          "type": "address"
        },
        {
          "internalType": "uint256",
          "name": "amount",
          "type": "uint256"
        }
      ],
      "name": "approve",
      "outputs": [
        {
          "internalType": "bool",
          "name": "",
          "type": "bool"
        }
      ],
      "stateMutability": "nonpayable",
      "type": "function"
    },
    {
      "inputs": [
        {
          "internalType": "address",
          "name": "spender",
          "type": "address"
        }
      ],
      "name": "approveMax",
      "outputs": [],
      "stateMutability": "nonpayable",
      "type": "function"
    },
    {
      "inputs": [
        {
          "internalType": "address",
          "name": "account",
          "type": "address"
        }
      ],
      "name": "balanceOf",
      "outputs": [
        {
          "internalType": "uint256",
          "name": "",
          "type": "uint256"
        }
      ],
      "stateMutability": "view",
      "type": "function"
    },
    {
      "inputs": [
        {
          "internalType": "uint256",
          "name": "amount",
          "type": "uint256"
        }
      ],
      "name": "burn",
      "outputs": [],
      "stateMutability": "nonpayable",
      "type": "function"
    },
    {
      "inputs": [
        {
          "internalType": "address",
          "name": "account",
          "type": "address"
        },
        {
          "internalType": "uint256",
          "name": "amount",
          "type": "uint256"
        }
      ],
      "name": "burnFrom",
      "outputs": [],
      "stateMutability": "nonpayable",
      "type": "function"
    },
    {
      "inputs": [],
      "name": "cap",
      "outputs": [
        {
          "internalType": "uint256",
          "name": "",
          "type": "uint256"
        }
      ],
      "stateMutability": "view",
      "type": "function"
    },
    {
      "inputs": [],
      "name": "decimals",
      "outputs": [
        {
          "internalType": "uint8",
          "name": "",
          "type": "uint8"
        }
      ],
      "stateMutability": "view",
      "type": "function"
    },
    {
      "inputs": [
        {
          "internalType": "address",
          "name": "spender",
          "type": "address"
        },
        {
          "internalType": "uint256",
          "name": "subtractedValue",
          "type": "uint256"
        }
      ],
      "name": "decreaseAllowance",
      "outputs": [
        {
          "internalType": "bool",
          "name": "",
          "type": "bool"
        }
      ],
      "stateMutability": "nonpayable",
      "type": "function"
    },
    {
      "inputs": [
        {
          "internalType": "uint256",
          "name": "pid_",
          "type": "uint256"
        },
        {
          "internalType": "uint256",
          "name": "amount_",
          "type": "uint256"
        },
        {
          "internalType": "address",
          "name": "to_",
          "type": "address"
        }
      ],
      "name": "deposit",
      "outputs": [],
      "stateMutability": "nonpayable",
      "type": "function"
    },
    {
      "inputs": [
        {
          "internalType": "uint256",
          "name": "pid_",
          "type": "uint256"
        },
        {
          "internalType": "address",
          "name": "to_",
          "type": "address"
        }
      ],
      "name": "emergencyWithdraw",
      "outputs": [],
      "stateMutability": "nonpayable",
      "type": "function"
    },
    {
      "inputs": [
        {
          "internalType": "uint256",
          "name": "pid_",
          "type": "uint256"
        },
        {
          "internalType": "address",
          "name": "to_",
          "type": "address"
        }
      ],
      "name": "harvest",
      "outputs": [],
      "stateMutability": "nonpayable",
      "type": "function"
    },
    {
      "inputs": [
        {
          "internalType": "address",
          "name": "spender",
          "type": "address"
        },
        {
          "internalType": "uint256",
          "name": "addedValue",
          "type": "uint256"
        }
      ],
      "name": "increaseAllowance",
      "outputs": [
        {
          "internalType": "bool",
          "name": "",
          "type": "bool"
        }
      ],
      "stateMutability": "nonpayable",
      "type": "function"
    },
    {
      "inputs": [
        {
          "internalType": "address",
          "name": "account",
          "type": "address"
        },
        {
          "internalType": "uint256",
          "name": "amount",
          "type": "uint256"
        }
      ],
      "name": "mint",
      "outputs": [],
      "stateMutability": "nonpayable",
      "type": "function"
    },
    {
      "inputs": [
        {
          "internalType": "address",
          "name": "account",
          "type": "address"
        },
        {
          "internalType": "uint256",
          "name": "amount",
          "type": "uint256"
        }
      ],
      "name": "mintTo",
      "outputs": [],
      "stateMutability": "nonpayable",
      "type": "function"
    },
    {
      "inputs": [],
      "name": "name",
      "outputs": [
        {
          "internalType": "string",
          "name": "",
          "type": "string"
        }
      ],
      "stateMutability": "view",
      "type": "function"
    },
    {
      "inputs": [],
      "name": "owner",
      "outputs": [
        {
          "internalType": "address",
          "name": "",
          "type": "address"
        }
      ],
      "stateMutability": "view",
      "type": "function"
    },
    {
      "inputs": [
        {
          "internalType": "uint256",
          "name": "pid_",
          "type": "uint256"
        },
        {
          "internalType": "address",
          "name": "user_",
          "type": "address"
        }
      ],
      "name": "pendingToken",
      "outputs": [
        {
          "internalType": "uint256",
          "name": "pending",
          "type": "uint256"
        }
      ],
      "stateMutability": "view",
      "type": "function"
    },
    {
      "inputs": [
        {
          "internalType": "uint256",
          "name": "",
          "type": "uint256"
        }
      ],
      "name": "poolInfo",
      "outputs": [
        {
          "internalType": "uint128",
          "name": "accTokenPerShare",
          "type": "uint128"
        },
        {
          "internalType": "uint64",
          "name": "lastRewardBlock",
          "type": "uint64"
        },
        {
          "internalType": "uint64",
          "name": "allocPoint",
          "type": "uint64"
        }
      ],
      "stateMutability": "view",
      "type": "function"
    },
    {
      "inputs": [],
      "name": "poolLength",
      "outputs": [
        {
          "internalType": "uint256",
          "name": "pools",
          "type": "uint256"
        }
      ],
      "stateMutability": "view",
      "type": "function"
    },
    {
      "inputs": [],
      "name": "renounceOwnership",
      "outputs": [],
      "stateMutability": "nonpayable",
      "type": "function"
    },
    {
      "inputs": [
        {
          "internalType": "uint256",
          "name": "pid_",
          "type": "uint256"
        },
        {
          "internalType": "uint256",
          "name": "allocPoint_",
          "type": "uint256"
        }
      ],
      "name": "set",
      "outputs": [],
      "stateMutability": "nonpayable",
      "type": "function"
    },
    {
      "inputs": [],
      "name": "symbol",
      "outputs": [
        {
          "internalType": "string",
          "name": "",
          "type": "string"
        }
      ],
      "stateMutability": "view",
      "type": "function"
    },
    {
      "inputs": [
        {
          "internalType": "uint256",
          "name": "",
          "type": "uint256"
        }
      ],
      "name": "token",
      "outputs": [
        {
          "internalType": "contract IERC20",
          "name": "",
          "type": "address"
        }
      ],
      "stateMutability": "view",
      "type": "function"
    },
    {
      "inputs": [],
      "name": "totalAllocPoint",
      "outputs": [
        {
          "internalType": "uint256",
          "name": "",
          "type": "uint256"
        }
      ],
      "stateMutability": "view",
      "type": "function"
    },
    {
      "inputs": [],
      "name": "totalSupply",
      "outputs": [
        {
          "internalType": "uint256",
          "name": "",
          "type": "uint256"
        }
      ],
      "stateMutability": "view",
      "type": "function"
    },
    {
      "inputs": [
        {
          "internalType": "address",
          "name": "to",
          "type": "address"
        },
        {
          "internalType": "uint256",
          "name": "amount",
          "type": "uint256"
        }
      ],
      "name": "transfer",
      "outputs": [
        {
          "internalType": "bool",
          "name": "",
          "type": "bool"
        }
      ],
      "stateMutability": "nonpayable",
      "type": "function"
    },
    {
      "inputs": [
        {
          "internalType": "address",
          "name": "from",
          "type": "address"
        },
        {
          "internalType": "address",
          "name": "to",
          "type": "address"
        },
        {
          "internalType": "uint256",
          "name": "amount",
          "type": "uint256"
        }
      ],
      "name": "transferFrom",
      "outputs": [
        {
          "internalType": "bool",
          "name": "",
          "type": "bool"
        }
      ],
      "stateMutability": "nonpayable",
      "type": "function"
    },
    {
      "inputs": [
        {
          "internalType": "address",
          "name": "newOwner",
          "type": "address"
        }
      ],
      "name": "transferOwnership",
      "outputs": [],
      "stateMutability": "nonpayable",
      "type": "function"
    },
    {
      "inputs": [
        {
          "internalType": "uint256",
          "name": "pid_",
          "type": "uint256"
        }
      ],
      "name": "update",
      "outputs": [
        {
          "components": [
            {
              "internalType": "uint128",
              "name": "accTokenPerShare",
              "type": "uint128"
            },
            {
              "internalType": "uint64",
              "name": "lastRewardBlock",
              "type": "uint64"
            },
            {
              "internalType": "uint64",
              "name": "allocPoint",
              "type": "uint64"
            }
          ],
          "internalType": "struct IFOXS.PoolInfo",
          "name": "pool",
          "type": "tuple"
        }
      ],
      "stateMutability": "nonpayable",
      "type": "function"
    },
    {
      "inputs": [
        {
          "internalType": "uint256",
          "name": "",
          "type": "uint256"
        },
        {
          "internalType": "address",
          "name": "",
          "type": "address"
        }
      ],
      "name": "userInfo",
      "outputs": [
        {
          "internalType": "uint256",
          "name": "amount",
          "type": "uint256"
        },
        {
          "internalType": "int256",
          "name": "rewardDebt",
          "type": "int256"
        }
      ],
      "stateMutability": "view",
      "type": "function"
    },
    {
      "inputs": [
        {
          "internalType": "uint256",
          "name": "pid_",
          "type": "uint256"
        },
        {
          "internalType": "uint256",
          "name": "amount_",
          "type": "uint256"
        },
        {
          "internalType": "address",
          "name": "to_",
          "type": "address"
        }
      ],
      "name": "withdraw",
      "outputs": [],
      "stateMutability": "nonpayable",
      "type": "function"
    },
    {
      "inputs": [
        {
          "internalType": "uint256",
          "name": "pid_",
          "type": "uint256"
        },
        {
          "internalType": "uint256",
          "name": "amount_",
          "type": "uint256"
        },
        {
          "internalType": "address",
          "name": "to_",
          "type": "address"
        }
      ],
      "name": "withdrawAndHarvest",
      "outputs": [],
      "stateMutability": "nonpayable",
      "type": "function"
    }
  ],
  "bytecode": "0x60a06040523480156200001157600080fd5b506040805180820182526009815268464f5820536861726560b81b602080830191825283518085019094526004845263464f585360e01b9084015281516b033b2e3c9fd0803ce800000093916200006c91600391906200032f565b508051620000829060049060208401906200032f565b50505060008111620000db5760405162461bcd60e51b815260206004820152601560248201527f45524332304361707065643a206361702069732030000000000000000000000060448201526064015b60405180910390fd5b608052620000e93362000105565b620000ff3369152d02c7e14af680000062000157565b6200045d565b600580546001600160a01b038381166001600160a01b0319831681179093556040519116919082907f8be0079c531659141344cd1fd0a4f28419497f9722a3daafe3b4186f6b6457e090600090a35050565b6080518162000170620001d860201b620007981760201c565b6200017c9190620003eb565b1115620001c157620001bd826200019d620001d860201b620007981760201c565b608051620001ac919062000406565b620001de60201b620012921760201c565b5050565b620001bd8282620001de60201b620012921760201c565b60025490565b60805181620001f7620001d860201b620007981760201c565b620002039190620003eb565b1115620002535760405162461bcd60e51b815260206004820152601960248201527f45524332304361707065643a20636170206578636565646564000000000000006044820152606401620000d2565b620001bd82826200026a60201b6200131b1760201c565b6001600160a01b038216620002c25760405162461bcd60e51b815260206004820152601f60248201527f45524332303a206d696e7420746f20746865207a65726f2061646472657373006044820152606401620000d2565b8060026000828254620002d69190620003eb565b90915550506001600160a01b038216600081815260208181526040808320805486019055518481527fddf252ad1be2c89b69c2b068fc378daa952ba7f163c4a11628f55a4df523b3ef910160405180910390a3620001bd565b8280546200033d9062000420565b90600052602060002090601f016020900481019282620003615760008555620003ac565b82601f106200037c57805160ff1916838001178555620003ac565b82800160010185558215620003ac579182015b82811115620003ac5782518255916020019190600101906200038f565b50620003ba929150620003be565b5090565b5b80821115620003ba5760008155600101620003bf565b634e487b7160e01b600052601160045260246000fd5b60008219821115620004015762000401620003d5565b500190565b6000828210156200041b576200041b620003d5565b500390565b600181811c908216806200043557607f821691505b602082108114156200045757634e487b7160e01b600052602260045260246000fd5b50919050565b6080516120606200048e600039600081816103680152818161129401528181611806015261185201526120606000f3fe608060405234801561001057600080fd5b50600436106102115760003560e01c806342966c68116101255780638dbdbe6d116100ad578063a457c2d71161007c578063a457c2d714610513578063a9059cbb14610526578063d1abb90714610539578063dd62ed3e1461054c578063f2fde38b1461055f57600080fd5b80638dbdbe6d146104a25780639319d3f7146104b557806393f1a40b146104c457806395d89b411461050b57600080fd5b806370a08231116100f457806370a08231146103fe578063715018a61461042757806379cc67901461042f57806382ab890a146104425780638da5cb5b1461049157600080fd5b806342966c68146103b2578063449a52f8146103c557806348e43af4146103d8578063571ac8b0146103eb57600080fd5b806318fccc76116101a85780632f940c70116101775780632f940c7014610344578063313ce56714610357578063355274ea14610366578063395093511461038c57806340c10f191461039f57600080fd5b806318fccc76146102f85780631ab06ee51461030b57806323b872dd1461031e5780632b8bbbe81461033157600080fd5b80630ad58d2f116101e45780630ad58d2f146102905780631526fe27146102a557806317caf6f1146102e757806318160ddd146102f057600080fd5b8063044215c61461021657806306fdde0314610246578063081e3eda1461025b578063095ea7b31461026d575b600080fd5b610229610224366004611c93565b610572565b6040516001600160a01b0390911681526020015b60405180910390f35b61024e61059c565b60405161023d9190611cd8565b6007545b60405190815260200161023d565b61028061027b366004611d20565b61062e565b604051901515815260200161023d565b6102a361029e366004611d4c565b610646565b005b6102b86102b3366004611c93565b610753565b604080516001600160801b0390941684526001600160401b03928316602085015291169082015260600161023d565b61025f60095481565b60025461025f565b6102a3610306366004611d85565b61079e565b6102a3610319366004611db5565b610876565b61028061032c366004611dd7565b61094e565b6102a361033f366004611d85565b610972565b6102a3610352366004611d85565b610ac9565b6040516012815260200161023d565b7f000000000000000000000000000000000000000000000000000000000000000061025f565b61028061039a366004611d20565b610b51565b6102a36103ad366004611d20565b610b73565b6102a36103c0366004611c93565b610b81565b6102a36103d3366004611d20565b610b8e565b61025f6103e6366004611d85565b610b96565b6102a36103f9366004611e18565b610d03565b61025f61040c366004611e18565b6001600160a01b031660009081526020819052604090205490565b6102a3610d10565b6102a361043d366004611d20565b610d24565b610455610450366004611c93565b610d36565b6040805182516001600160801b031681526020808401516001600160401b0390811691830191909152928201519092169082015260600161023d565b6005546001600160a01b0316610229565b6102a36104b0366004611d4c565b610ecf565b61025f670de0b6b3a764000081565b6104f66104d2366004611d85565b60066020908152600092835260408084209091529082529020805460019091015482565b6040805192835260208301919091520161023d565b61024e610fcd565b610280610521366004611d20565b610fdc565b610280610534366004611d20565b61105c565b6102a3610547366004611d4c565b61106a565b61025f61055a366004611e3c565b6111f1565b6102a361056d366004611e18565b61121c565b6008818154811061058257600080fd5b6000918252602090912001546001600160a01b0316905081565b6060600380546105ab90611e6a565b80601f01602080910402602001604051908101604052809291908181526020018280546105d790611e6a565b80156106245780601f106105f957610100808354040283529160200191610624565b820191906000526020600020905b81548152906001019060200180831161060757829003601f168201915b5050505050905090565b60003361063c8185856113da565b5060019392505050565b600061065184610d36565b60008581526006602090815260408083203380855292529091208251929350909164e8d4a510009061068c906001600160801b031687611ebb565b6106969190611eda565b8160010160008282546106a99190611efc565b90915550508054859082906000906106c2908490611f3b565b925050819055506106fd8486600889815481106106e1576106e1611f52565b6000918252602090912001546001600160a01b031691906114f6565b836001600160a01b031686836001600160a01b03167f8166bf25f8a2b7ed3c85049207da4358d16edbed977d23fa2ee6f0dde3ec21328860405161074391815260200190565b60405180910390a4505050505050565b6007818154811061076357600080fd5b6000918252602090912001546001600160801b03811691506001600160401b03600160801b8204811691600160c01b90041683565b60025490565b60006107a983610d36565b6000848152600660209081526040808320338085529252822083518154949550919390929164e8d4a51000916107e8916001600160801b031690611ebb565b6107f29190611eda565b905060008260010154826108069190611efc565b600184018390559050801561081f5761081f868261155e565b856001600160a01b031687856001600160a01b03167f21cbb56dd6543339d498c80d96e1552af32e753decefef74da4c5efef932dbd48460405161086591815260200190565b60405180910390a450505050505050565b61087e61158c565b806007838154811061089257610892611f52565b6000918252602090912001546009546108bb91600160c01b90046001600160401b031690611f3b565b6108c59190611f68565b60098190555080600783815481106108df576108df611f52565b9060005260206000200160000160186101000a8154816001600160401b0302191690836001600160401b03160217905550817fc0cfd54d2de2b55f1e6e108d3ec53ff0a1abe6055401d32c61e9433b747ef9f88260405161094291815260200190565b60405180910390a25050565b60003361095c8582856115e6565b610967858585611660565b506001949350505050565b61097a61158c565b600043905082600960008282546109919190611f68565b909155505060088054600181810183557ff3f7a9fe364faab93b216da50a3214154f22a0a2b415b23a84c8169e8b636ee390910180546001600160a01b0386166001600160a01b031990911681179091556040805160608101825260008082526001600160401b03808816602084019081528a8216948401948552600780548089018255935292517fa66cc928b5edb82af9bd49922954155ab7b0942694bea4ce44661d9a8736c6889092018054935194518216600160c01b026001600160c01b0395909216600160801b026001600160c01b03199094166001600160801b03939093169290921792909217929092161790559154610a909190611f3b565b6040518581527f44f06e62408d549dc25356ed3ab6326c665b66ce934c0e8d13bd1957a6031d4c906020015b60405180910390a3505050565b60008281526006602090815260408083203380855292528220805483825560018201939093559091610afc3085836114f6565b836001600160a01b031685846001600160a01b03167f2cac5e20e1541d836381527a43f651851e302817b71dc8e810284e69210c1c6b84604051610b4291815260200190565b60405180910390a45050505050565b60003361063c818585610b6483836111f1565b610b6e9190611f68565b6113da565b610b7d8282611804565b5050565b610b8b3382611885565b50565b610b7361158c565b60008060078481548110610bac57610bac611f52565b600091825260208083206040805160608101825293909101546001600160801b0380821685526001600160401b03600160801b8304811686860152600160c01b90920490911684830152888552600683528185206001600160a01b03891686528352818520845130875293869052918520549395509093911691905083602001516001600160401b031643118015610c4357508015155b15610ccb57600084602001516001600160401b031643610c639190611f3b565b9050600060095486604001516001600160401b0316670de0b6b3a764000084610c8c9190611ebb565b610c969190611ebb565b610ca09190611eda565b905082610cb264e8d4a5100083611ebb565b610cbc9190611eda565b610cc69085611f68565b935050505b6001830154835464e8d4a5100090610ce4908590611ebb565b610cee9190611eda565b610cf89190611efc565b979650505050505050565b610b8b33826000196113da565b610d1861158c565b610d2260006119b7565b565b610d2c61158c565b610b7d8282611885565b604080516060810182526000808252602082018190529181019190915260078281548110610d6657610d66611f52565b60009182526020918290206040805160608101825292909101546001600160801b03811683526001600160401b03600160801b82048116948401859052600160c01b90910416908201529150431115610eca57306000908152602081905260409020548015610e6b57600082602001516001600160401b031643610dea9190611f3b565b9050600060095484604001516001600160401b0316670de0b6b3a764000084610e139190611ebb565b610e1d9190611ebb565b610e279190611eda565b905082610e3964e8d4a5100083611ebb565b610e439190611eda565b84518590610e52908390611f80565b6001600160801b0316905250610e683082611804565b50505b436001600160401b031660208381018290528351604080519384529183018490526001600160801b03169082015283907fce49b138f2621300a7043a61f472ccfd643162bdf3efb11354e22d5273b77a719060600160405180910390a2505b919050565b6000610eda84610d36565b600085815260066020908152604080832033808552925282208054939450909290918691839190610f0c908490611f68565b9091555050825164e8d4a5100090610f2d906001600160801b031687611ebb565b610f379190611eda565b816001016000828254610f4a9190611fab565b92505081905550610f8782308760088a81548110610f6a57610f6a611f52565b6000918252602090912001546001600160a01b0316929190611a09565b836001600160a01b031686836001600160a01b03167f02d7e648dd130fc184d383e55bb126ac4c9c60e8f94bf05acdf557ba2d540b478860405161074391815260200190565b6060600480546105ab90611e6a565b60003381610fea82866111f1565b90508381101561104f5760405162461bcd60e51b815260206004820152602560248201527f45524332303a2064656372656173656420616c6c6f77616e63652062656c6f77604482015264207a65726f60d81b60648201526084015b60405180910390fd5b61096782868684036113da565b60003361063c818585611660565b600061107584610d36565b6000858152600660209081526040808320338085529252822083518154949550919390929164e8d4a51000916110b4916001600160801b031690611ebb565b6110be9190611eda565b905060008260010154826110d29190611efc565b855190915064e8d4a51000906110f1906001600160801b031689611ebb565b6110fb9190611eda565b6111059083611efc565b600184015582548790849060009061111e908490611f3b565b9091555050801561113357611133868261155e565b61114b868860088b815481106106e1576106e1611f52565b856001600160a01b031688856001600160a01b03167f8166bf25f8a2b7ed3c85049207da4358d16edbed977d23fa2ee6f0dde3ec21328a60405161119191815260200190565b60405180910390a4856001600160a01b031688856001600160a01b03167f21cbb56dd6543339d498c80d96e1552af32e753decefef74da4c5efef932dbd4846040516111df91815260200190565b60405180910390a45050505050505050565b6001600160a01b03918216600090815260016020908152604080832093909416825291909152205490565b61122461158c565b6001600160a01b0381166112895760405162461bcd60e51b815260206004820152602660248201527f4f776e61626c653a206e6577206f776e657220697320746865207a65726f206160448201526564647265737360d01b6064820152608401611046565b610b8b816119b7565b7f0000000000000000000000000000000000000000000000000000000000000000816112bd60025490565b6112c79190611f68565b11156113155760405162461bcd60e51b815260206004820152601960248201527f45524332304361707065643a20636170206578636565646564000000000000006044820152606401611046565b610b7d82825b6001600160a01b0382166113715760405162461bcd60e51b815260206004820152601f60248201527f45524332303a206d696e7420746f20746865207a65726f2061646472657373006044820152606401611046565b80600260008282546113839190611f68565b90915550506001600160a01b038216600081815260208181526040808320805486019055518481527fddf252ad1be2c89b69c2b068fc378daa952ba7f163c4a11628f55a4df523b3ef910160405180910390a35050565b6001600160a01b03831661143c5760405162461bcd60e51b8152602060048201526024808201527f45524332303a20617070726f76652066726f6d20746865207a65726f206164646044820152637265737360e01b6064820152608401611046565b6001600160a01b03821661149d5760405162461bcd60e51b815260206004820152602260248201527f45524332303a20617070726f766520746f20746865207a65726f206164647265604482015261737360f01b6064820152608401611046565b6001600160a01b0383811660008181526001602090815260408083209487168084529482529182902085905590518481527f8c5be1e5ebec7d5bd14f71427d1e84f3dd0314c0f7b2291e5b200ac8c7c3b9259101610abc565b6040516001600160a01b03831660248201526044810182905261155990849063a9059cbb60e01b906064015b60408051601f198184030181529190526020810180516001600160e01b03166001600160e01b031990931692909217909152611a41565b505050565b306000908152602081905260409020548082111561158157611559308483611660565b611559308484611660565b6005546001600160a01b03163314610d225760405162461bcd60e51b815260206004820181905260248201527f4f776e61626c653a2063616c6c6572206973206e6f7420746865206f776e65726044820152606401611046565b60006115f284846111f1565b9050600019811461165a578181101561164d5760405162461bcd60e51b815260206004820152601d60248201527f45524332303a20696e73756666696369656e7420616c6c6f77616e63650000006044820152606401611046565b61165a84848484036113da565b50505050565b6001600160a01b0383166116c45760405162461bcd60e51b815260206004820152602560248201527f45524332303a207472616e736665722066726f6d20746865207a65726f206164604482015264647265737360d81b6064820152608401611046565b6001600160a01b0382166117265760405162461bcd60e51b815260206004820152602360248201527f45524332303a207472616e7366657220746f20746865207a65726f206164647260448201526265737360e81b6064820152608401611046565b6001600160a01b0383166000908152602081905260409020548181101561179e5760405162461bcd60e51b815260206004820152602660248201527f45524332303a207472616e7366657220616d6f756e7420657863656564732062604482015265616c616e636560d01b6064820152608401611046565b6001600160a01b03848116600081815260208181526040808320878703905593871680835291849020805487019055925185815290927fddf252ad1be2c89b69c2b068fc378daa952ba7f163c4a11628f55a4df523b3ef910160405180910390a361165a565b7f00000000000000000000000000000000000000000000000000000000000000008161182f60025490565b6118399190611f68565b111561187b57610b7d8261184c60025490565b611876907f0000000000000000000000000000000000000000000000000000000000000000611f3b565b611292565b610b7d8282611292565b6001600160a01b0382166118e55760405162461bcd60e51b815260206004820152602160248201527f45524332303a206275726e2066726f6d20746865207a65726f206164647265736044820152607360f81b6064820152608401611046565b6001600160a01b038216600090815260208190526040902054818110156119595760405162461bcd60e51b815260206004820152602260248201527f45524332303a206275726e20616d6f756e7420657863656564732062616c616e604482015261636560f01b6064820152608401611046565b6001600160a01b0383166000818152602081815260408083208686039055600280548790039055518581529192917fddf252ad1be2c89b69c2b068fc378daa952ba7f163c4a11628f55a4df523b3ef910160405180910390a3505050565b600580546001600160a01b038381166001600160a01b0319831681179093556040519116919082907f8be0079c531659141344cd1fd0a4f28419497f9722a3daafe3b4186f6b6457e090600090a35050565b6040516001600160a01b038085166024830152831660448201526064810182905261165a9085906323b872dd60e01b90608401611522565b6000611a96826040518060400160405280602081526020017f5361666545524332303a206c6f772d6c6576656c2063616c6c206661696c6564815250856001600160a01b0316611b169092919063ffffffff16565b9050805160001480611ab7575080806020019051810190611ab79190611fec565b6115595760405162461bcd60e51b815260206004820152602a60248201527f5361666545524332303a204552433230206f7065726174696f6e20646964206e6044820152691bdd081cdd58d8d9595960b21b6064820152608401611046565b6060611b258484600085611b2d565b949350505050565b606082471015611b8e5760405162461bcd60e51b815260206004820152602660248201527f416464726573733a20696e73756666696369656e742062616c616e636520666f6044820152651c8818d85b1b60d21b6064820152608401611046565b600080866001600160a01b03168587604051611baa919061200e565b60006040518083038185875af1925050503d8060008114611be7576040519150601f19603f3d011682016040523d82523d6000602084013e611bec565b606091505b5091509150610cf88783838760608315611c64578251611c5d576001600160a01b0385163b611c5d5760405162461bcd60e51b815260206004820152601d60248201527f416464726573733a2063616c6c20746f206e6f6e2d636f6e74726163740000006044820152606401611046565b5081611b25565b611b258383815115611c795781518083602001fd5b8060405162461bcd60e51b81526004016110469190611cd8565b600060208284031215611ca557600080fd5b5035919050565b60005b83811015611cc7578181015183820152602001611caf565b8381111561165a5750506000910152565b6020815260008251806020840152611cf7816040850160208701611cac565b601f01601f19169190910160400192915050565b6001600160a01b0381168114610b8b57600080fd5b60008060408385031215611d3357600080fd5b8235611d3e81611d0b565b946020939093013593505050565b600080600060608486031215611d6157600080fd5b83359250602084013591506040840135611d7a81611d0b565b809150509250925092565b60008060408385031215611d9857600080fd5b823591506020830135611daa81611d0b565b809150509250929050565b60008060408385031215611dc857600080fd5b50508035926020909101359150565b600080600060608486031215611dec57600080fd5b8335611df781611d0b565b92506020840135611e0781611d0b565b929592945050506040919091013590565b600060208284031215611e2a57600080fd5b8135611e3581611d0b565b9392505050565b60008060408385031215611e4f57600080fd5b8235611e5a81611d0b565b91506020830135611daa81611d0b565b600181811c90821680611e7e57607f821691505b60208210811415611e9f57634e487b7160e01b600052602260045260246000fd5b50919050565b634e487b7160e01b600052601160045260246000fd5b6000816000190483118215151615611ed557611ed5611ea5565b500290565b600082611ef757634e487b7160e01b600052601260045260246000fd5b500490565b60008083128015600160ff1b850184121615611f1a57611f1a611ea5565b6001600160ff1b0384018313811615611f3557611f35611ea5565b50500390565b600082821015611f4d57611f4d611ea5565b500390565b634e487b7160e01b600052603260045260246000fd5b60008219821115611f7b57611f7b611ea5565b500190565b60006001600160801b03808316818516808303821115611fa257611fa2611ea5565b01949350505050565b600080821280156001600160ff1b0384900385131615611fcd57611fcd611ea5565b600160ff1b8390038412811615611fe657611fe6611ea5565b50500190565b600060208284031215611ffe57600080fd5b81518015158114611e3557600080fd5b60008251612020818460208701611cac565b919091019291505056fea264697066735822122044ce4716d653d6f835416bc8ae7e4a85782391c75420abb844ac87bce561214064736f6c63430008090033",
  "linkReferences": {},
  "deployedLinkReferences": {}
}