{
  "_format": "hh-sol-artifact-1",
  "contractName": "FOXS",
  "sourceName": "contracts/tokens/FOXS.sol",
  "abi": [
    {
      "inputs": [],
      "stateMutability": "nonpayable",
      "type": "constructor"
    },
    {
      "anonymous": false,
      "inputs": [
        {
          "indexed": true,
          "internalType": "uint256",
          "name": "pid",
          "type": "uint256"
        },
        {
          "indexed": false,
          "internalType": "uint256",
          "name": "allocPoint",
          "type": "uint256"
        },
        {
          "indexed": true,
          "internalType": "contract IERC20",
          "name": "token",
          "type": "address"
        }
      ],
      "name": "AddPool",
      "type": "event"
    },
    {
      "anonymous": false,
      "inputs": [
        {
          "indexed": true,
          "internalType": "address",
          "name": "owner",
          "type": "address"
        },
        {
          "indexed": true,
          "internalType": "address",
          "name": "spender",
          "type": "address"
        },
        {
          "indexed": false,
          "internalType": "uint256",
          "name": "value",
          "type": "uint256"
        }
      ],
      "name": "Approval",
      "type": "event"
    },
    {
      "anonymous": false,
      "inputs": [
        {
          "indexed": true,
          "internalType": "address",
          "name": "user",
          "type": "address"
        },
        {
          "indexed": true,
          "internalType": "uint256",
          "name": "pid",
          "type": "uint256"
        },
        {
          "indexed": false,
          "internalType": "uint256",
          "name": "amount",
          "type": "uint256"
        },
        {
          "indexed": true,
          "internalType": "address",
          "name": "to",
          "type": "address"
        }
      ],
      "name": "Deposit",
      "type": "event"
    },
    {
      "anonymous": false,
      "inputs": [
        {
          "indexed": true,
          "internalType": "address",
          "name": "user",
          "type": "address"
        },
        {
          "indexed": true,
          "internalType": "uint256",
          "name": "pid",
          "type": "uint256"
        },
        {
          "indexed": false,
          "internalType": "uint256",
          "name": "amount",
          "type": "uint256"
        },
        {
          "indexed": true,
          "internalType": "address",
          "name": "to",
          "type": "address"
        }
      ],
      "name": "EmergencyWithdraw",
      "type": "event"
    },
    {
      "anonymous": false,
      "inputs": [
        {
          "indexed": true,
          "internalType": "address",
          "name": "user",
          "type": "address"
        },
        {
          "indexed": true,
          "internalType": "uint256",
          "name": "pid",
          "type": "uint256"
        },
        {
          "indexed": false,
          "internalType": "uint256",
          "name": "amount",
          "type": "uint256"
        },
        {
          "indexed": true,
          "internalType": "address",
          "name": "to",
          "type": "address"
        }
      ],
      "name": "Harvest",
      "type": "event"
    },
    {
      "anonymous": false,
      "inputs": [
        {
          "indexed": true,
          "internalType": "address",
          "name": "previousOwner",
          "type": "address"
        },
        {
          "indexed": true,
          "internalType": "address",
          "name": "newOwner",
          "type": "address"
        }
      ],
      "name": "OwnershipTransferred",
      "type": "event"
    },
    {
      "anonymous": false,
      "inputs": [
        {
          "indexed": true,
          "internalType": "uint256",
          "name": "pid",
          "type": "uint256"
        },
        {
          "indexed": false,
          "internalType": "uint256",
          "name": "allocPoint",
          "type": "uint256"
        }
      ],
      "name": "SetPool",
      "type": "event"
    },
    {
      "anonymous": false,
      "inputs": [
        {
          "indexed": true,
          "internalType": "address",
          "name": "from",
          "type": "address"
        },
        {
          "indexed": true,
          "internalType": "address",
          "name": "to",
          "type": "address"
        },
        {
          "indexed": false,
          "internalType": "uint256",
          "name": "value",
          "type": "uint256"
        }
      ],
      "name": "Transfer",
      "type": "event"
    },
    {
      "anonymous": false,
      "inputs": [
        {
          "indexed": true,
          "internalType": "uint256",
          "name": "pid",
          "type": "uint256"
        },
        {
          "indexed": false,
          "internalType": "uint256",
          "name": "lastRewardBlock",
          "type": "uint256"
        },
        {
          "indexed": false,
          "internalType": "uint256",
          "name": "totalDeposited",
          "type": "uint256"
        },
        {
          "indexed": false,
          "internalType": "uint256",
          "name": "accTokenPerShare",
          "type": "uint256"
        }
      ],
      "name": "Update",
      "type": "event"
    },
    {
      "anonymous": false,
      "inputs": [
        {
          "indexed": true,
          "internalType": "address",
          "name": "user",
          "type": "address"
        },
        {
          "indexed": true,
          "internalType": "uint256",
          "name": "pid",
          "type": "uint256"
        },
        {
          "indexed": false,
          "internalType": "uint256",
          "name": "amount",
          "type": "uint256"
        },
        {
          "indexed": true,
          "internalType": "address",
          "name": "to",
          "type": "address"
        }
      ],
      "name": "Withdraw",
      "type": "event"
    },
    {
      "inputs": [],
      "name": "TOKEN_PER_BLOCK",
      "outputs": [
        {
          "internalType": "uint256",
          "name": "",
          "type": "uint256"
        }
      ],
      "stateMutability": "view",
      "type": "function"
    },
    {
      "inputs": [
        {
          "internalType": "uint256",
          "name": "allocPoint_",
          "type": "uint256"
        },
        {
          "internalType": "contract IERC20",
          "name": "token_",
          "type": "address"
        }
      ],
      "name": "add",
      "outputs": [],
      "stateMutability": "nonpayable",
      "type": "function"
    },
    {
      "inputs": [
        {
          "internalType": "address",
          "name": "owner",
          "type": "address"
        },
        {
          "internalType": "address",
          "name": "spender",
          "type": "address"
        }
      ],
      "name": "allowance",
      "outputs": [
        {
          "internalType": "uint256",
          "name": "",
          "type": "uint256"
        }
      ],
      "stateMutability": "view",
      "type": "function"
    },
    {
      "inputs": [
        {
          "internalType": "address",
          "name": "spender",
          "type": "address"
        },
        {
          "internalType": "uint256",
          "name": "amount",
          "type": "uint256"
        }
      ],
      "name": "approve",
      "outputs": [
        {
          "internalType": "bool",
          "name": "",
          "type": "bool"
        }
      ],
      "stateMutability": "nonpayable",
      "type": "function"
    },
    {
      "inputs": [
        {
          "internalType": "address",
          "name": "spender",
          "type": "address"
        }
      ],
      "name": "approveMax",
      "outputs": [],
      "stateMutability": "nonpayable",
      "type": "function"
    },
    {
      "inputs": [
        {
          "internalType": "address",
          "name": "account",
          "type": "address"
        }
      ],
      "name": "balanceOf",
      "outputs": [
        {
          "internalType": "uint256",
          "name": "",
          "type": "uint256"
        }
      ],
      "stateMutability": "view",
      "type": "function"
    },
    {
      "inputs": [
        {
          "internalType": "uint256",
          "name": "amount",
          "type": "uint256"
        }
      ],
      "name": "burn",
      "outputs": [],
      "stateMutability": "nonpayable",
      "type": "function"
    },
    {
      "inputs": [
        {
          "internalType": "address",
          "name": "account",
          "type": "address"
        },
        {
          "internalType": "uint256",
          "name": "amount",
          "type": "uint256"
        }
      ],
      "name": "burnFrom",
      "outputs": [],
      "stateMutability": "nonpayable",
      "type": "function"
    },
    {
      "inputs": [],
      "name": "cap",
      "outputs": [
        {
          "internalType": "uint256",
          "name": "",
          "type": "uint256"
        }
      ],
      "stateMutability": "view",
      "type": "function"
    },
    {
      "inputs": [],
      "name": "decimals",
      "outputs": [
        {
          "internalType": "uint8",
          "name": "",
          "type": "uint8"
        }
      ],
      "stateMutability": "view",
      "type": "function"
    },
    {
      "inputs": [
        {
          "internalType": "address",
          "name": "spender",
          "type": "address"
        },
        {
          "internalType": "uint256",
          "name": "subtractedValue",
          "type": "uint256"
        }
      ],
      "name": "decreaseAllowance",
      "outputs": [
        {
          "internalType": "bool",
          "name": "",
          "type": "bool"
        }
      ],
      "stateMutability": "nonpayable",
      "type": "function"
    },
    {
      "inputs": [
        {
          "internalType": "uint256",
          "name": "pid_",
          "type": "uint256"
        },
        {
          "internalType": "uint256",
          "name": "amount_",
          "type": "uint256"
        },
        {
          "internalType": "address",
          "name": "to_",
          "type": "address"
        }
      ],
      "name": "deposit",
      "outputs": [],
      "stateMutability": "nonpayable",
      "type": "function"
    },
    {
      "inputs": [
        {
          "internalType": "uint256",
          "name": "pid_",
          "type": "uint256"
        },
        {
          "internalType": "address",
          "name": "to_",
          "type": "address"
        }
      ],
      "name": "emergencyWithdraw",
      "outputs": [],
      "stateMutability": "nonpayable",
      "type": "function"
    },
    {
      "inputs": [
        {
          "internalType": "uint256",
          "name": "pid_",
          "type": "uint256"
        },
        {
          "internalType": "address",
          "name": "to_",
          "type": "address"
        }
      ],
      "name": "harvest",
      "outputs": [],
      "stateMutability": "nonpayable",
      "type": "function"
    },
    {
      "inputs": [
        {
          "internalType": "address",
          "name": "spender",
          "type": "address"
        },
        {
          "internalType": "uint256",
          "name": "addedValue",
          "type": "uint256"
        }
      ],
      "name": "increaseAllowance",
      "outputs": [
        {
          "internalType": "bool",
          "name": "",
          "type": "bool"
        }
      ],
      "stateMutability": "nonpayable",
      "type": "function"
    },
    {
      "inputs": [
        {
          "internalType": "address",
          "name": "account",
          "type": "address"
        },
        {
          "internalType": "uint256",
          "name": "amount",
          "type": "uint256"
        }
      ],
      "name": "mintTo",
      "outputs": [],
      "stateMutability": "nonpayable",
      "type": "function"
    },
    {
      "inputs": [],
      "name": "name",
      "outputs": [
        {
          "internalType": "string",
          "name": "",
          "type": "string"
        }
      ],
      "stateMutability": "view",
      "type": "function"
    },
    {
      "inputs": [],
      "name": "owner",
      "outputs": [
        {
          "internalType": "address",
          "name": "",
          "type": "address"
        }
      ],
      "stateMutability": "view",
      "type": "function"
    },
    {
      "inputs": [
        {
          "internalType": "uint256",
          "name": "pid_",
          "type": "uint256"
        },
        {
          "internalType": "address",
          "name": "user_",
          "type": "address"
        }
      ],
      "name": "pendingToken",
      "outputs": [
        {
          "internalType": "uint256",
          "name": "pending",
          "type": "uint256"
        }
      ],
      "stateMutability": "view",
      "type": "function"
    },
    {
      "inputs": [
        {
          "internalType": "uint256",
          "name": "",
          "type": "uint256"
        }
      ],
      "name": "poolInfo",
      "outputs": [
        {
          "internalType": "uint128",
          "name": "accTokenPerShare",
          "type": "uint128"
        },
        {
          "internalType": "uint64",
          "name": "lastRewardBlock",
          "type": "uint64"
        },
        {
          "internalType": "uint64",
          "name": "allocPoint",
          "type": "uint64"
        }
      ],
      "stateMutability": "view",
      "type": "function"
    },
    {
      "inputs": [],
      "name": "poolLength",
      "outputs": [
        {
          "internalType": "uint256",
          "name": "pools",
          "type": "uint256"
        }
      ],
      "stateMutability": "view",
      "type": "function"
    },
    {
      "inputs": [],
      "name": "renounceOwnership",
      "outputs": [],
      "stateMutability": "nonpayable",
      "type": "function"
    },
    {
      "inputs": [
        {
          "internalType": "uint256",
          "name": "pid_",
          "type": "uint256"
        },
        {
          "internalType": "uint256",
          "name": "allocPoint_",
          "type": "uint256"
        }
      ],
      "name": "set",
      "outputs": [],
      "stateMutability": "nonpayable",
      "type": "function"
    },
    {
      "inputs": [],
      "name": "symbol",
      "outputs": [
        {
          "internalType": "string",
          "name": "",
          "type": "string"
        }
      ],
      "stateMutability": "view",
      "type": "function"
    },
    {
      "inputs": [
        {
          "internalType": "uint256",
          "name": "",
          "type": "uint256"
        }
      ],
      "name": "token",
      "outputs": [
        {
          "internalType": "contract IERC20",
          "name": "",
          "type": "address"
        }
      ],
      "stateMutability": "view",
      "type": "function"
    },
    {
      "inputs": [],
      "name": "totalAllocPoint",
      "outputs": [
        {
          "internalType": "uint256",
          "name": "",
          "type": "uint256"
        }
      ],
      "stateMutability": "view",
      "type": "function"
    },
    {
      "inputs": [],
      "name": "totalSupply",
      "outputs": [
        {
          "internalType": "uint256",
          "name": "",
          "type": "uint256"
        }
      ],
      "stateMutability": "view",
      "type": "function"
    },
    {
      "inputs": [
        {
          "internalType": "address",
          "name": "to",
          "type": "address"
        },
        {
          "internalType": "uint256",
          "name": "amount",
          "type": "uint256"
        }
      ],
      "name": "transfer",
      "outputs": [
        {
          "internalType": "bool",
          "name": "",
          "type": "bool"
        }
      ],
      "stateMutability": "nonpayable",
      "type": "function"
    },
    {
      "inputs": [
        {
          "internalType": "address",
          "name": "from",
          "type": "address"
        },
        {
          "internalType": "address",
          "name": "to",
          "type": "address"
        },
        {
          "internalType": "uint256",
          "name": "amount",
          "type": "uint256"
        }
      ],
      "name": "transferFrom",
      "outputs": [
        {
          "internalType": "bool",
          "name": "",
          "type": "bool"
        }
      ],
      "stateMutability": "nonpayable",
      "type": "function"
    },
    {
      "inputs": [
        {
          "internalType": "address",
          "name": "newOwner",
          "type": "address"
        }
      ],
      "name": "transferOwnership",
      "outputs": [],
      "stateMutability": "nonpayable",
      "type": "function"
    },
    {
      "inputs": [
        {
          "internalType": "uint256",
          "name": "pid_",
          "type": "uint256"
        }
      ],
      "name": "update",
      "outputs": [
        {
          "components": [
            {
              "internalType": "uint128",
              "name": "accTokenPerShare",
              "type": "uint128"
            },
            {
              "internalType": "uint64",
              "name": "lastRewardBlock",
              "type": "uint64"
            },
            {
              "internalType": "uint64",
              "name": "allocPoint",
              "type": "uint64"
            }
          ],
          "internalType": "struct IFOXS.PoolInfo",
          "name": "pool",
          "type": "tuple"
        }
      ],
      "stateMutability": "nonpayable",
      "type": "function"
    },
    {
      "inputs": [
        {
          "internalType": "uint256",
          "name": "",
          "type": "uint256"
        },
        {
          "internalType": "address",
          "name": "",
          "type": "address"
        }
      ],
      "name": "userInfo",
      "outputs": [
        {
          "internalType": "uint256",
          "name": "amount",
          "type": "uint256"
        },
        {
          "internalType": "int256",
          "name": "rewardDebt",
          "type": "int256"
        }
      ],
      "stateMutability": "view",
      "type": "function"
    },
    {
      "inputs": [
        {
          "internalType": "uint256",
          "name": "pid_",
          "type": "uint256"
        },
        {
          "internalType": "uint256",
          "name": "amount_",
          "type": "uint256"
        },
        {
          "internalType": "address",
          "name": "to_",
          "type": "address"
        }
      ],
      "name": "withdraw",
      "outputs": [],
      "stateMutability": "nonpayable",
      "type": "function"
    },
    {
      "inputs": [
        {
          "internalType": "uint256",
          "name": "pid_",
          "type": "uint256"
        },
        {
          "internalType": "uint256",
          "name": "amount_",
          "type": "uint256"
        },
        {
          "internalType": "address",
          "name": "to_",
          "type": "address"
        }
      ],
      "name": "withdrawAndHarvest",
      "outputs": [],
      "stateMutability": "nonpayable",
      "type": "function"
    }
  ],
  "bytecode": "0x60a06040523480156200001157600080fd5b506040805180820182526009815268464f5820536861726560b81b602080830191825283518085019094526004845263464f585360e01b9084015281516b033b2e3c9fd0803ce800000093916200006c916003919062000351565b5080516200008290600490602084019062000351565b50505060008111620000db5760405162461bcd60e51b815260206004820152601560248201527f45524332304361707065643a206361702069732030000000000000000000000060448201526064015b60405180910390fd5b608052620000e93362000105565b620000ff3369152d02c7e14af680000062000157565b6200047f565b600580546001600160a01b038381166001600160a01b0319831681179093556040519116919082907f8be0079c531659141344cd1fd0a4f28419497f9722a3daafe3b4186f6b6457e090600090a35050565b6080518162000170620001d860201b6200077a1760201c565b6200017c91906200040d565b1115620001c157620001bd826200019d620001d860201b6200077a1760201c565b608051620001ac919062000428565b620001de60201b620012811760201c565b5050565b620001bd8282620001de60201b620012811760201c565b60025490565b60805181620001f7620001d860201b6200077a1760201c565b6200020391906200040d565b1115620002535760405162461bcd60e51b815260206004820152601960248201527f45524332304361707065643a20636170206578636565646564000000000000006044820152606401620000d2565b620001bd82826200026a60201b6200130a1760201c565b6001600160a01b038216620002c25760405162461bcd60e51b815260206004820152601f60248201527f45524332303a206d696e7420746f20746865207a65726f2061646472657373006044820152606401620000d2565b8060026000828254620002d691906200040d565b90915550506001600160a01b03821660009081526020819052604081208054839290620003059084906200040d565b90915550506040518181526001600160a01b038316906000907fddf252ad1be2c89b69c2b068fc378daa952ba7f163c4a11628f55a4df523b3ef9060200160405180910390a3620001bd565b8280546200035f9062000442565b90600052602060002090601f016020900481019282620003835760008555620003ce565b82601f106200039e57805160ff1916838001178555620003ce565b82800160010185558215620003ce579182015b82811115620003ce578251825591602001919060010190620003b1565b50620003dc929150620003e0565b5090565b5b80821115620003dc5760008155600101620003e1565b634e487b7160e01b600052601160045260246000fd5b60008219821115620004235762000423620003f7565b500190565b6000828210156200043d576200043d620003f7565b500390565b600181811c908216806200045757607f821691505b602082108114156200047957634e487b7160e01b600052602260045260246000fd5b50919050565b60805161209f620004b06000396000818161035d015281816112830152818161198d01526119d9015261209f6000f3fe608060405234801561001057600080fd5b50600436106102065760003560e01c8063449a52f81161011a5780638dbdbe6d116100ad578063a457c2d71161007c578063a457c2d7146104f5578063a9059cbb14610508578063d1abb9071461051b578063dd62ed3e1461052e578063f2fde38b1461054157600080fd5b80638dbdbe6d146104845780639319d3f71461049757806393f1a40b146104a657806395d89b41146104ed57600080fd5b8063715018a6116100e9578063715018a61461040957806379cc67901461041157806382ab890a146104245780638da5cb5b1461047357600080fd5b8063449a52f8146103a757806348e43af4146103ba578063571ac8b0146103cd57806370a08231146103e057600080fd5b806318fccc761161019d5780632f940c701161016c5780632f940c7014610339578063313ce5671461034c578063355274ea1461035b578063395093511461038157806342966c681461039457600080fd5b806318fccc76146102ed5780631ab06ee51461030057806323b872dd146103135780632b8bbbe81461032657600080fd5b80630ad58d2f116101d95780630ad58d2f146102855780631526fe271461029a57806317caf6f1146102dc57806318160ddd146102e557600080fd5b8063044215c61461020b57806306fdde031461023b578063081e3eda14610250578063095ea7b314610262575b600080fd5b61021e610219366004611cd9565b610554565b6040516001600160a01b0390911681526020015b60405180910390f35b61024361057e565b6040516102329190611d1e565b6007545b604051908152602001610232565b610275610270366004611d66565b610610565b6040519015158152602001610232565b610298610293366004611d92565b610628565b005b6102ad6102a8366004611cd9565b610735565b604080516001600160801b0390941684526001600160401b039283166020850152911690820152606001610232565b61025460095481565b600254610254565b6102986102fb366004611dcb565b610780565b61029861030e366004611dfb565b610858565b610275610321366004611e1d565b610930565b610298610334366004611dcb565b610956565b610298610347366004611dcb565b610aad565b60405160128152602001610232565b7f0000000000000000000000000000000000000000000000000000000000000000610254565b61027561038f366004611d66565b610b35565b6102986103a2366004611cd9565b610b57565b6102986103b5366004611d66565b610b64565b6102546103c8366004611dcb565b610b7a565b6102986103db366004611e5e565b610ce7565b6102546103ee366004611e5e565b6001600160a01b031660009081526020819052604090205490565b610298610cf4565b61029861041f366004611d66565b610d08565b610437610432366004611cd9565b610d1a565b6040805182516001600160801b031681526020808401516001600160401b03908116918301919091529282015190921690820152606001610232565b6005546001600160a01b031661021e565b610298610492366004611d92565b610eb3565b610254670de0b6b3a764000081565b6104d86104b4366004611dcb565b60066020908152600092835260408084209091529082529020805460019091015482565b60408051928352602083019190915201610232565b610243610fb1565b610275610503366004611d66565b610fc0565b610275610516366004611d66565b61104b565b610298610529366004611d92565b611059565b61025461053c366004611e7b565b6111e0565b61029861054f366004611e5e565b61120b565b6008818154811061056457600080fd5b6000918252602090912001546001600160a01b0316905081565b60606003805461058d90611ea9565b80601f01602080910402602001604051908101604052809291908181526020018280546105b990611ea9565b80156106065780601f106105db57610100808354040283529160200191610606565b820191906000526020600020905b8154815290600101906020018083116105e957829003601f168201915b5050505050905090565b60003361061e8185856113e9565b5060019392505050565b600061063384610d1a565b60008581526006602090815260408083203380855292529091208251929350909164e8d4a510009061066e906001600160801b031687611efa565b6106789190611f19565b81600101600082825461068b9190611f3b565b90915550508054859082906000906106a4908490611f7a565b925050819055506106df8486600889815481106106c3576106c3611f91565b6000918252602090912001546001600160a01b03169190611505565b836001600160a01b031686836001600160a01b03167f8166bf25f8a2b7ed3c85049207da4358d16edbed977d23fa2ee6f0dde3ec21328860405161072591815260200190565b60405180910390a4505050505050565b6007818154811061074557600080fd5b6000918252602090912001546001600160801b03811691506001600160401b03600160801b8204811691600160c01b90041683565b60025490565b600061078b83610d1a565b6000848152600660209081526040808320338085529252822083518154949550919390929164e8d4a51000916107ca916001600160801b031690611efa565b6107d49190611f19565b905060008260010154826107e89190611f3b565b600184018390559050801561080157610801868261156d565b856001600160a01b031687856001600160a01b03167f21cbb56dd6543339d498c80d96e1552af32e753decefef74da4c5efef932dbd48460405161084791815260200190565b60405180910390a450505050505050565b61086061159b565b806007838154811061087457610874611f91565b60009182526020909120015460095461089d91600160c01b90046001600160401b031690611f7a565b6108a79190611fa7565b60098190555080600783815481106108c1576108c1611f91565b9060005260206000200160000160186101000a8154816001600160401b0302191690836001600160401b03160217905550817fc0cfd54d2de2b55f1e6e108d3ec53ff0a1abe6055401d32c61e9433b747ef9f88260405161092491815260200190565b60405180910390a25050565b60003361093e8582856115f5565b61094985858561166f565b60019150505b9392505050565b61095e61159b565b600043905082600960008282546109759190611fa7565b909155505060088054600181810183557ff3f7a9fe364faab93b216da50a3214154f22a0a2b415b23a84c8169e8b636ee390910180546001600160a01b0386166001600160a01b031990911681179091556040805160608101825260008082526001600160401b03808816602084019081528a8216948401948552600780548089018255935292517fa66cc928b5edb82af9bd49922954155ab7b0942694bea4ce44661d9a8736c6889092018054935194518216600160c01b026001600160c01b0395909216600160801b026001600160c01b03199094166001600160801b03939093169290921792909217929092161790559154610a749190611f7a565b6040518581527f44f06e62408d549dc25356ed3ab6326c665b66ce934c0e8d13bd1957a6031d4c906020015b60405180910390a3505050565b60008281526006602090815260408083203380855292528220805483825560018201939093559091610ae0308583611505565b836001600160a01b031685846001600160a01b03167f2cac5e20e1541d836381527a43f651851e302817b71dc8e810284e69210c1c6b84604051610b2691815260200190565b60405180910390a45050505050565b60003361061e818585610b4883836111e0565b610b529190611fa7565b6113e9565b610b61338261183d565b50565b610b6c61159b565b610b76828261198b565b5050565b60008060078481548110610b9057610b90611f91565b600091825260208083206040805160608101825293909101546001600160801b0380821685526001600160401b03600160801b8304811686860152600160c01b90920490911684830152888552600683528185206001600160a01b03891686528352818520845130875293869052918520549395509093911691905083602001516001600160401b031643118015610c2757508015155b15610caf57600084602001516001600160401b031643610c479190611f7a565b9050600060095486604001516001600160401b0316670de0b6b3a764000084610c709190611efa565b610c7a9190611efa565b610c849190611f19565b905082610c9664e8d4a5100083611efa565b610ca09190611f19565b610caa9085611fa7565b935050505b6001830154835464e8d4a5100090610cc8908590611efa565b610cd29190611f19565b610cdc9190611f3b565b979650505050505050565b610b6133826000196113e9565b610cfc61159b565b610d066000611a0c565b565b610d1061159b565b610b76828261183d565b604080516060810182526000808252602082018190529181019190915260078281548110610d4a57610d4a611f91565b60009182526020918290206040805160608101825292909101546001600160801b03811683526001600160401b03600160801b82048116948401859052600160c01b90910416908201529150431115610eae57306000908152602081905260409020548015610e4f57600082602001516001600160401b031643610dce9190611f7a565b9050600060095484604001516001600160401b0316670de0b6b3a764000084610df79190611efa565b610e019190611efa565b610e0b9190611f19565b905082610e1d64e8d4a5100083611efa565b610e279190611f19565b84518590610e36908390611fbf565b6001600160801b0316905250610e4c308261198b565b50505b436001600160401b031660208381018290528351604080519384529183018490526001600160801b03169082015283907fce49b138f2621300a7043a61f472ccfd643162bdf3efb11354e22d5273b77a719060600160405180910390a2505b919050565b6000610ebe84610d1a565b600085815260066020908152604080832033808552925282208054939450909290918691839190610ef0908490611fa7565b9091555050825164e8d4a5100090610f11906001600160801b031687611efa565b610f1b9190611f19565b816001016000828254610f2e9190611fea565b92505081905550610f6b82308760088a81548110610f4e57610f4e611f91565b6000918252602090912001546001600160a01b0316929190611a5e565b836001600160a01b031686836001600160a01b03167f02d7e648dd130fc184d383e55bb126ac4c9c60e8f94bf05acdf557ba2d540b478860405161072591815260200190565b60606004805461058d90611ea9565b60003381610fce82866111e0565b9050838110156110335760405162461bcd60e51b815260206004820152602560248201527f45524332303a2064656372656173656420616c6c6f77616e63652062656c6f77604482015264207a65726f60d81b60648201526084015b60405180910390fd5b61104082868684036113e9565b506001949350505050565b60003361061e81858561166f565b600061106484610d1a565b6000858152600660209081526040808320338085529252822083518154949550919390929164e8d4a51000916110a3916001600160801b031690611efa565b6110ad9190611f19565b905060008260010154826110c19190611f3b565b855190915064e8d4a51000906110e0906001600160801b031689611efa565b6110ea9190611f19565b6110f49083611f3b565b600184015582548790849060009061110d908490611f7a565b9091555050801561112257611122868261156d565b61113a868860088b815481106106c3576106c3611f91565b856001600160a01b031688856001600160a01b03167f8166bf25f8a2b7ed3c85049207da4358d16edbed977d23fa2ee6f0dde3ec21328a60405161118091815260200190565b60405180910390a4856001600160a01b031688856001600160a01b03167f21cbb56dd6543339d498c80d96e1552af32e753decefef74da4c5efef932dbd4846040516111ce91815260200190565b60405180910390a45050505050505050565b6001600160a01b03918216600090815260016020908152604080832093909416825291909152205490565b61121361159b565b6001600160a01b0381166112785760405162461bcd60e51b815260206004820152602660248201527f4f776e61626c653a206e6577206f776e657220697320746865207a65726f206160448201526564647265737360d01b606482015260840161102a565b610b6181611a0c565b7f0000000000000000000000000000000000000000000000000000000000000000816112ac60025490565b6112b69190611fa7565b11156113045760405162461bcd60e51b815260206004820152601960248201527f45524332304361707065643a2063617020657863656564656400000000000000604482015260640161102a565b610b7682825b6001600160a01b0382166113605760405162461bcd60e51b815260206004820152601f60248201527f45524332303a206d696e7420746f20746865207a65726f206164647265737300604482015260640161102a565b80600260008282546113729190611fa7565b90915550506001600160a01b0382166000908152602081905260408120805483929061139f908490611fa7565b90915550506040518181526001600160a01b038316906000907fddf252ad1be2c89b69c2b068fc378daa952ba7f163c4a11628f55a4df523b3ef9060200160405180910390a35050565b6001600160a01b03831661144b5760405162461bcd60e51b8152602060048201526024808201527f45524332303a20617070726f76652066726f6d20746865207a65726f206164646044820152637265737360e01b606482015260840161102a565b6001600160a01b0382166114ac5760405162461bcd60e51b815260206004820152602260248201527f45524332303a20617070726f766520746f20746865207a65726f206164647265604482015261737360f01b606482015260840161102a565b6001600160a01b0383811660008181526001602090815260408083209487168084529482529182902085905590518481527f8c5be1e5ebec7d5bd14f71427d1e84f3dd0314c0f7b2291e5b200ac8c7c3b9259101610aa0565b6040516001600160a01b03831660248201526044810182905261156890849063a9059cbb60e01b906064015b60408051601f198184030181529190526020810180516001600160e01b03166001600160e01b031990931692909217909152611a96565b505050565b30600090815260208190526040902054808211156115905761156830848361166f565b61156830848461166f565b6005546001600160a01b03163314610d065760405162461bcd60e51b815260206004820181905260248201527f4f776e61626c653a2063616c6c6572206973206e6f7420746865206f776e6572604482015260640161102a565b600061160184846111e0565b90506000198114611669578181101561165c5760405162461bcd60e51b815260206004820152601d60248201527f45524332303a20696e73756666696369656e7420616c6c6f77616e6365000000604482015260640161102a565b61166984848484036113e9565b50505050565b6001600160a01b0383166116d35760405162461bcd60e51b815260206004820152602560248201527f45524332303a207472616e736665722066726f6d20746865207a65726f206164604482015264647265737360d81b606482015260840161102a565b6001600160a01b0382166117355760405162461bcd60e51b815260206004820152602360248201527f45524332303a207472616e7366657220746f20746865207a65726f206164647260448201526265737360e81b606482015260840161102a565b6001600160a01b038316600090815260208190526040902054818110156117ad5760405162461bcd60e51b815260206004820152602660248201527f45524332303a207472616e7366657220616d6f756e7420657863656564732062604482015265616c616e636560d01b606482015260840161102a565b6001600160a01b038085166000908152602081905260408082208585039055918516815290812080548492906117e4908490611fa7565b92505081905550826001600160a01b0316846001600160a01b03167fddf252ad1be2c89b69c2b068fc378daa952ba7f163c4a11628f55a4df523b3ef8460405161183091815260200190565b60405180910390a3611669565b6001600160a01b03821661189d5760405162461bcd60e51b815260206004820152602160248201527f45524332303a206275726e2066726f6d20746865207a65726f206164647265736044820152607360f81b606482015260840161102a565b6001600160a01b038216600090815260208190526040902054818110156119115760405162461bcd60e51b815260206004820152602260248201527f45524332303a206275726e20616d6f756e7420657863656564732062616c616e604482015261636560f01b606482015260840161102a565b6001600160a01b0383166000908152602081905260408120838303905560028054849290611940908490611f7a565b90915550506040518281526000906001600160a01b038516907fddf252ad1be2c89b69c2b068fc378daa952ba7f163c4a11628f55a4df523b3ef9060200160405180910390a3505050565b7f0000000000000000000000000000000000000000000000000000000000000000816119b660025490565b6119c09190611fa7565b1115611a0257610b76826119d360025490565b6119fd907f0000000000000000000000000000000000000000000000000000000000000000611f7a565b611281565b610b768282611281565b600580546001600160a01b038381166001600160a01b0319831681179093556040519116919082907f8be0079c531659141344cd1fd0a4f28419497f9722a3daafe3b4186f6b6457e090600090a35050565b6040516001600160a01b03808516602483015283166044820152606481018290526116699085906323b872dd60e01b90608401611531565b6000611aeb826040518060400160405280602081526020017f5361666545524332303a206c6f772d6c6576656c2063616c6c206661696c6564815250856001600160a01b0316611b689092919063ffffffff16565b8051909150156115685780806020019051810190611b09919061202b565b6115685760405162461bcd60e51b815260206004820152602a60248201527f5361666545524332303a204552433230206f7065726174696f6e20646964206e6044820152691bdd081cdd58d8d9595960b21b606482015260840161102a565b6060611b778484600085611b7f565b949350505050565b606082471015611be05760405162461bcd60e51b815260206004820152602660248201527f416464726573733a20696e73756666696369656e742062616c616e636520666f6044820152651c8818d85b1b60d21b606482015260840161102a565b6001600160a01b0385163b611c375760405162461bcd60e51b815260206004820152601d60248201527f416464726573733a2063616c6c20746f206e6f6e2d636f6e7472616374000000604482015260640161102a565b600080866001600160a01b03168587604051611c53919061204d565b60006040518083038185875af1925050503d8060008114611c90576040519150601f19603f3d011682016040523d82523d6000602084013e611c95565b606091505b5091509150610cdc82828660608315611caf57508161094f565b825115611cbf5782518084602001fd5b8160405162461bcd60e51b815260040161102a9190611d1e565b600060208284031215611ceb57600080fd5b5035919050565b60005b83811015611d0d578181015183820152602001611cf5565b838111156116695750506000910152565b6020815260008251806020840152611d3d816040850160208701611cf2565b601f01601f19169190910160400192915050565b6001600160a01b0381168114610b6157600080fd5b60008060408385031215611d7957600080fd5b8235611d8481611d51565b946020939093013593505050565b600080600060608486031215611da757600080fd5b83359250602084013591506040840135611dc081611d51565b809150509250925092565b60008060408385031215611dde57600080fd5b823591506020830135611df081611d51565b809150509250929050565b60008060408385031215611e0e57600080fd5b50508035926020909101359150565b600080600060608486031215611e3257600080fd5b8335611e3d81611d51565b92506020840135611e4d81611d51565b929592945050506040919091013590565b600060208284031215611e7057600080fd5b813561094f81611d51565b60008060408385031215611e8e57600080fd5b8235611e9981611d51565b91506020830135611df081611d51565b600181811c90821680611ebd57607f821691505b60208210811415611ede57634e487b7160e01b600052602260045260246000fd5b50919050565b634e487b7160e01b600052601160045260246000fd5b6000816000190483118215151615611f1457611f14611ee4565b500290565b600082611f3657634e487b7160e01b600052601260045260246000fd5b500490565b60008083128015600160ff1b850184121615611f5957611f59611ee4565b6001600160ff1b0384018313811615611f7457611f74611ee4565b50500390565b600082821015611f8c57611f8c611ee4565b500390565b634e487b7160e01b600052603260045260246000fd5b60008219821115611fba57611fba611ee4565b500190565b60006001600160801b03808316818516808303821115611fe157611fe1611ee4565b01949350505050565b600080821280156001600160ff1b038490038513161561200c5761200c611ee4565b600160ff1b839003841281161561202557612025611ee4565b50500190565b60006020828403121561203d57600080fd5b8151801515811461094f57600080fd5b6000825161205f818460208701611cf2565b919091019291505056fea26469706673582212205ed40de1510395a6020a19825b6565eb259606e1d03de8f1f3baeee6974da76c64736f6c63430008090033",
  "linkReferences": {},
  "deployedLinkReferences": {}
}