{
  "_format": "hh-sol-artifact-1",
  "contractName": "WETH",
  "sourceName": "contracts/tokens/WETH.sol",
  "abi": [
    {
      "anonymous": false,
      "inputs": [
        {
          "indexed": true,
          "internalType": "address",
          "name": "owner",
          "type": "address"
        },
        {
          "indexed": true,
          "internalType": "address",
          "name": "spender",
          "type": "address"
        },
        {
          "indexed": false,
          "internalType": "uint256",
          "name": "value",
          "type": "uint256"
        }
      ],
      "name": "Approval",
      "type": "event"
    },
    {
      "anonymous": false,
      "inputs": [
        {
          "indexed": true,
          "internalType": "address",
          "name": "account_",
          "type": "address"
        },
        {
          "indexed": false,
          "internalType": "uint256",
          "name": "amount_",
          "type": "uint256"
        }
      ],
      "name": "Deposit",
      "type": "event"
    },
    {
      "anonymous": false,
      "inputs": [
        {
          "indexed": true,
          "internalType": "address",
          "name": "from",
          "type": "address"
        },
        {
          "indexed": true,
          "internalType": "address",
          "name": "to",
          "type": "address"
        },
        {
          "indexed": false,
          "internalType": "uint256",
          "name": "value",
          "type": "uint256"
        }
      ],
      "name": "Transfer",
      "type": "event"
    },
    {
      "anonymous": false,
      "inputs": [
        {
          "indexed": true,
          "internalType": "address",
          "name": "account_",
          "type": "address"
        },
        {
          "indexed": false,
          "internalType": "uint256",
          "name": "amount_",
          "type": "uint256"
        }
      ],
      "name": "Withdraw",
      "type": "event"
    },
    {
      "stateMutability": "payable",
      "type": "fallback"
    },
    {
      "inputs": [
        {
          "internalType": "address",
          "name": "owner",
          "type": "address"
        },
        {
          "internalType": "address",
          "name": "spender",
          "type": "address"
        }
      ],
      "name": "allowance",
      "outputs": [
        {
          "internalType": "uint256",
          "name": "",
          "type": "uint256"
        }
      ],
      "stateMutability": "view",
      "type": "function"
    },
    {
      "inputs": [
        {
          "internalType": "address",
          "name": "spender",
          "type": "address"
        },
        {
          "internalType": "uint256",
          "name": "amount",
          "type": "uint256"
        }
      ],
      "name": "approve",
      "outputs": [
        {
          "internalType": "bool",
          "name": "",
          "type": "bool"
        }
      ],
      "stateMutability": "nonpayable",
      "type": "function"
    },
    {
      "inputs": [
        {
          "internalType": "address",
          "name": "spender",
          "type": "address"
        }
      ],
      "name": "approveMax",
      "outputs": [],
      "stateMutability": "nonpayable",
      "type": "function"
    },
    {
      "inputs": [
        {
          "internalType": "address",
          "name": "account",
          "type": "address"
        }
      ],
      "name": "balanceOf",
      "outputs": [
        {
          "internalType": "uint256",
          "name": "",
          "type": "uint256"
        }
      ],
      "stateMutability": "view",
      "type": "function"
    },
    {
      "inputs": [],
      "name": "decimals",
      "outputs": [
        {
          "internalType": "uint8",
          "name": "",
          "type": "uint8"
        }
      ],
      "stateMutability": "view",
      "type": "function"
    },
    {
      "inputs": [
        {
          "internalType": "address",
          "name": "spender",
          "type": "address"
        },
        {
          "internalType": "uint256",
          "name": "subtractedValue",
          "type": "uint256"
        }
      ],
      "name": "decreaseAllowance",
      "outputs": [
        {
          "internalType": "bool",
          "name": "",
          "type": "bool"
        }
      ],
      "stateMutability": "nonpayable",
      "type": "function"
    },
    {
      "inputs": [],
      "name": "deposit",
      "outputs": [],
      "stateMutability": "payable",
      "type": "function"
    },
    {
      "inputs": [
        {
          "internalType": "address",
          "name": "spender",
          "type": "address"
        },
        {
          "internalType": "uint256",
          "name": "addedValue",
          "type": "uint256"
        }
      ],
      "name": "increaseAllowance",
      "outputs": [
        {
          "internalType": "bool",
          "name": "",
          "type": "bool"
        }
      ],
      "stateMutability": "nonpayable",
      "type": "function"
    },
    {
      "inputs": [
        {
          "internalType": "address",
          "name": "account_",
          "type": "address"
        },
        {
          "internalType": "uint256",
          "name": "amount_",
          "type": "uint256"
        }
      ],
      "name": "mint",
      "outputs": [],
      "stateMutability": "payable",
      "type": "function"
    },
    {
      "inputs": [],
      "name": "name",
      "outputs": [
        {
          "internalType": "string",
          "name": "",
          "type": "string"
        }
      ],
      "stateMutability": "view",
      "type": "function"
    },
    {
      "inputs": [],
      "name": "symbol",
      "outputs": [
        {
          "internalType": "string",
          "name": "",
          "type": "string"
        }
      ],
      "stateMutability": "view",
      "type": "function"
    },
    {
      "inputs": [],
      "name": "totalSupply",
      "outputs": [
        {
          "internalType": "uint256",
          "name": "",
          "type": "uint256"
        }
      ],
      "stateMutability": "view",
      "type": "function"
    },
    {
      "inputs": [
        {
          "internalType": "address",
          "name": "to",
          "type": "address"
        },
        {
          "internalType": "uint256",
          "name": "amount",
          "type": "uint256"
        }
      ],
      "name": "transfer",
      "outputs": [
        {
          "internalType": "bool",
          "name": "",
          "type": "bool"
        }
      ],
      "stateMutability": "nonpayable",
      "type": "function"
    },
    {
      "inputs": [
        {
          "internalType": "address",
          "name": "from",
          "type": "address"
        },
        {
          "internalType": "address",
          "name": "to",
          "type": "address"
        },
        {
          "internalType": "uint256",
          "name": "amount",
          "type": "uint256"
        }
      ],
      "name": "transferFrom",
      "outputs": [
        {
          "internalType": "bool",
          "name": "",
          "type": "bool"
        }
      ],
      "stateMutability": "nonpayable",
      "type": "function"
    },
    {
      "inputs": [
        {
          "internalType": "uint256",
          "name": "amount_",
          "type": "uint256"
        }
      ],
      "name": "withdraw",
      "outputs": [],
      "stateMutability": "nonpayable",
      "type": "function"
    },
    {
      "stateMutability": "payable",
      "type": "receive"
    }
  ],
  "bytecode": "0x60806040523480156200001157600080fd5b50604080518082018252600b81526a0aee4c2e0e0cac8408aa8960ab1b6020808301918252835180850190945260048452630ae8aa8960e31b908401528151919291620000619160039162000080565b5080516200007790600490602084019062000080565b50505062000163565b8280546200008e9062000126565b90600052602060002090601f016020900481019282620000b25760008555620000fd565b82601f10620000cd57805160ff1916838001178555620000fd565b82800160010185558215620000fd579182015b82811115620000fd578251825591602001919060010190620000e0565b506200010b9291506200010f565b5090565b5b808211156200010b576000815560010162000110565b600181811c908216806200013b57607f821691505b602082108114156200015d57634e487b7160e01b600052602260045260246000fd5b50919050565b610d7f80620001736000396000f3fe6080604052600436106100ec5760003560e01c806340c10f191161008a578063a457c2d711610059578063a457c2d714610274578063a9059cbb14610294578063d0e30db0146100f6578063dd62ed3e146102b4576100f6565b806340c10f19146101f6578063571ac8b01461020957806370a082311461022957806395d89b411461025f576100f6565b806323b872dd116100c657806323b872dd1461017a5780632e1a7d4d1461019a578063313ce567146101ba57806339509351146101d6576100f6565b806306fdde0314610100578063095ea7b31461012b57806318160ddd1461015b576100f6565b366100f657600080fd5b6100fe6102d4565b005b34801561010c57600080fd5b50610115610315565b6040516101229190610b84565b60405180910390f35b34801561013757600080fd5b5061014b610146366004610bf5565b6103a7565b6040519015158152602001610122565b34801561016757600080fd5b506002545b604051908152602001610122565b34801561018657600080fd5b5061014b610195366004610c1f565b6103bf565b3480156101a657600080fd5b506100fe6101b5366004610c5b565b6103e3565b3480156101c657600080fd5b5060405160128152602001610122565b3480156101e257600080fd5b5061014b6101f1366004610bf5565b6104ef565b6100fe610204366004610bf5565b610511565b34801561021557600080fd5b506100fe610224366004610c74565b61051f565b34801561023557600080fd5b5061016c610244366004610c74565b6001600160a01b031660009081526020819052604090205490565b34801561026b57600080fd5b5061011561052f565b34801561028057600080fd5b5061014b61028f366004610bf5565b61053e565b3480156102a057600080fd5b5061014b6102af366004610bf5565b6105b9565b3480156102c057600080fd5b5061016c6102cf366004610c96565b6105c7565b6102de33346105f2565b60405134815233907fe1fffcc4923d04b559f4d29a8bfc6cda04eb5b0d3c460751c2402c5c5cc9109c9060200160405180910390a2565b60606003805461032490610cc9565b80601f016020809104026020016040519081016040528092919081815260200182805461035090610cc9565b801561039d5780601f106103725761010080835404028352916020019161039d565b820191906000526020600020905b81548152906001019060200180831161038057829003601f168201915b5050505050905090565b6000336103b58185856106d1565b5060019392505050565b6000336103cd8582856107f6565b6103d8858585610870565b506001949350505050565b806103ed33610244565b101561047f5760405162461bcd60e51b815260206004820152605060248201527f574554483a3a77697468647261773a20574554482062616c616e6365206f662060448201527f73656e646572206d7573742062652067726561746572207468616e206f72206560648201526f38bab0b6103a379030b6b7bab73a2f9760811b608482015260a4015b60405180910390fd5b6104893382610a3e565b604051339082156108fc029083906000818181858888f193505050501580156104b6573d6000803e3d6000fd5b5060405181815233907f884edad9ce6fa2440d8a54cc123490eb96d2768479d49ff9c7366125a94243649060200160405180910390a250565b6000336103b581858561050283836105c7565b61050c9190610d1a565b6106d1565b61051b82826105f2565b5050565b61052c33826000196106d1565b50565b60606004805461032490610cc9565b6000338161054c82866105c7565b9050838110156105ac5760405162461bcd60e51b815260206004820152602560248201527f45524332303a2064656372656173656420616c6c6f77616e63652062656c6f77604482015264207a65726f60d81b6064820152608401610476565b6103d882868684036106d1565b6000336103b5818585610870565b6001600160a01b03918216600090815260016020908152604080832093909416825291909152205490565b6001600160a01b0382166106485760405162461bcd60e51b815260206004820152601f60248201527f45524332303a206d696e7420746f20746865207a65726f2061646472657373006044820152606401610476565b806002600082825461065a9190610d1a565b90915550506001600160a01b03821660009081526020819052604081208054839290610687908490610d1a565b90915550506040518181526001600160a01b038316906000907fddf252ad1be2c89b69c2b068fc378daa952ba7f163c4a11628f55a4df523b3ef9060200160405180910390a35050565b6001600160a01b0383166107335760405162461bcd60e51b8152602060048201526024808201527f45524332303a20617070726f76652066726f6d20746865207a65726f206164646044820152637265737360e01b6064820152608401610476565b6001600160a01b0382166107945760405162461bcd60e51b815260206004820152602260248201527f45524332303a20617070726f766520746f20746865207a65726f206164647265604482015261737360f01b6064820152608401610476565b6001600160a01b0383811660008181526001602090815260408083209487168084529482529182902085905590518481527f8c5be1e5ebec7d5bd14f71427d1e84f3dd0314c0f7b2291e5b200ac8c7c3b92591015b60405180910390a3505050565b600061080284846105c7565b9050600019811461086a578181101561085d5760405162461bcd60e51b815260206004820152601d60248201527f45524332303a20696e73756666696369656e7420616c6c6f77616e63650000006044820152606401610476565b61086a84848484036106d1565b50505050565b6001600160a01b0383166108d45760405162461bcd60e51b815260206004820152602560248201527f45524332303a207472616e736665722066726f6d20746865207a65726f206164604482015264647265737360d81b6064820152608401610476565b6001600160a01b0382166109365760405162461bcd60e51b815260206004820152602360248201527f45524332303a207472616e7366657220746f20746865207a65726f206164647260448201526265737360e81b6064820152608401610476565b6001600160a01b038316600090815260208190526040902054818110156109ae5760405162461bcd60e51b815260206004820152602660248201527f45524332303a207472616e7366657220616d6f756e7420657863656564732062604482015265616c616e636560d01b6064820152608401610476565b6001600160a01b038085166000908152602081905260408082208585039055918516815290812080548492906109e5908490610d1a565b92505081905550826001600160a01b0316846001600160a01b03167fddf252ad1be2c89b69c2b068fc378daa952ba7f163c4a11628f55a4df523b3ef84604051610a3191815260200190565b60405180910390a361086a565b6001600160a01b038216610a9e5760405162461bcd60e51b815260206004820152602160248201527f45524332303a206275726e2066726f6d20746865207a65726f206164647265736044820152607360f81b6064820152608401610476565b6001600160a01b03821660009081526020819052604090205481811015610b125760405162461bcd60e51b815260206004820152602260248201527f45524332303a206275726e20616d6f756e7420657863656564732062616c616e604482015261636560f01b6064820152608401610476565b6001600160a01b0383166000908152602081905260408120838303905560028054849290610b41908490610d32565b90915550506040518281526000906001600160a01b038516907fddf252ad1be2c89b69c2b068fc378daa952ba7f163c4a11628f55a4df523b3ef906020016107e9565b600060208083528351808285015260005b81811015610bb157858101830151858201604001528201610b95565b81811115610bc3576000604083870101525b50601f01601f1916929092016040019392505050565b80356001600160a01b0381168114610bf057600080fd5b919050565b60008060408385031215610c0857600080fd5b610c1183610bd9565b946020939093013593505050565b600080600060608486031215610c3457600080fd5b610c3d84610bd9565b9250610c4b60208501610bd9565b9150604084013590509250925092565b600060208284031215610c6d57600080fd5b5035919050565b600060208284031215610c8657600080fd5b610c8f82610bd9565b9392505050565b60008060408385031215610ca957600080fd5b610cb283610bd9565b9150610cc060208401610bd9565b90509250929050565b600181811c90821680610cdd57607f821691505b60208210811415610cfe57634e487b7160e01b600052602260045260246000fd5b50919050565b634e487b7160e01b600052601160045260246000fd5b60008219821115610d2d57610d2d610d04565b500190565b600082821015610d4457610d44610d04565b50039056fea264697066735822122090e2b38bfedfde3223a4722c6c3e578e8e573a5ecd272d7cb32970690650ad4064736f6c63430008090033",
  "linkReferences": {},
  "deployedLinkReferences": {}
}