{
  "_format": "hh-sol-artifact-1",
  "contractName": "FOX",
  "sourceName": "contracts/tokens/FOX.sol",
  "abi": [
    {
      "inputs": [
        {
          "internalType": "address",
          "name": "oracleFeeder_",
          "type": "address"
        },
        {
          "internalType": "address",
          "name": "feeTo_",
          "type": "address"
        },
        {
          "internalType": "address",
          "name": "debtToken_",
          "type": "address"
        },
        {
          "internalType": "address",
          "name": "shareToken_",
          "type": "address"
        },
        {
          "internalType": "uint256",
          "name": "mintFeeRatio_",
          "type": "uint256"
        },
        {
          "internalType": "uint256",
          "name": "burnFeeRatio_",
          "type": "uint256"
        },
        {
          "internalType": "uint256",
          "name": "bonusRatio_",
          "type": "uint256"
        }
      ],
      "stateMutability": "nonpayable",
      "type": "constructor"
    },
    {
      "anonymous": false,
      "inputs": [
        {
          "indexed": true,
          "internalType": "address",
          "name": "owner",
          "type": "address"
        },
        {
          "indexed": true,
          "internalType": "address",
          "name": "spender",
          "type": "address"
        },
        {
          "indexed": false,
          "internalType": "uint256",
          "name": "value",
          "type": "uint256"
        }
      ],
      "name": "Approval",
      "type": "event"
    },
    {
      "anonymous": false,
      "inputs": [
        {
          "indexed": true,
          "internalType": "address",
          "name": "foxFarm",
          "type": "address"
        }
      ],
      "name": "Initialize",
      "type": "event"
    },
    {
      "anonymous": false,
      "inputs": [
        {
          "indexed": true,
          "internalType": "address",
          "name": "previousOwner",
          "type": "address"
        },
        {
          "indexed": true,
          "internalType": "address",
          "name": "newOwner",
          "type": "address"
        }
      ],
      "name": "OwnershipTransferred",
      "type": "event"
    },
    {
      "anonymous": false,
      "inputs": [
        {
          "indexed": false,
          "internalType": "address",
          "name": "account",
          "type": "address"
        }
      ],
      "name": "Paused",
      "type": "event"
    },
    {
      "anonymous": false,
      "inputs": [
        {
          "indexed": false,
          "internalType": "uint256",
          "name": "prevBonusRatio",
          "type": "uint256"
        },
        {
          "indexed": false,
          "internalType": "uint256",
          "name": "currBonusRatio",
          "type": "uint256"
        }
      ],
      "name": "SetBonusRatio",
      "type": "event"
    },
    {
      "anonymous": false,
      "inputs": [
        {
          "indexed": false,
          "internalType": "uint256",
          "name": "prevBurnFeeRatio",
          "type": "uint256"
        },
        {
          "indexed": false,
          "internalType": "uint256",
          "name": "currBurnFeeRatio",
          "type": "uint256"
        }
      ],
      "name": "SetBurnFeeRatio",
      "type": "event"
    },
    {
      "anonymous": false,
      "inputs": [
        {
          "indexed": false,
          "internalType": "address",
          "name": "prevFeeTo",
          "type": "address"
        },
        {
          "indexed": false,
          "internalType": "address",
          "name": "currFeeTo",
          "type": "address"
        }
      ],
      "name": "SetFeeTo",
      "type": "event"
    },
    {
      "anonymous": false,
      "inputs": [
        {
          "indexed": false,
          "internalType": "uint256",
          "name": "prevMintFeeRatio",
          "type": "uint256"
        },
        {
          "indexed": false,
          "internalType": "uint256",
          "name": "currMintFeeRatio",
          "type": "uint256"
        }
      ],
      "name": "SetMintFeeRatio",
      "type": "event"
    },
    {
      "anonymous": false,
      "inputs": [
        {
          "indexed": true,
          "internalType": "address",
          "name": "from",
          "type": "address"
        },
        {
          "indexed": true,
          "internalType": "address",
          "name": "to",
          "type": "address"
        },
        {
          "indexed": false,
          "internalType": "uint256",
          "name": "value",
          "type": "uint256"
        }
      ],
      "name": "Transfer",
      "type": "event"
    },
    {
      "anonymous": false,
      "inputs": [
        {
          "indexed": false,
          "internalType": "address",
          "name": "account",
          "type": "address"
        }
      ],
      "name": "Unpaused",
      "type": "event"
    },
    {
      "anonymous": false,
      "inputs": [
        {
          "indexed": false,
          "internalType": "address",
          "name": "prevOracleFeeder",
          "type": "address"
        },
        {
          "indexed": false,
          "internalType": "address",
          "name": "currOracle",
          "type": "address"
        }
      ],
      "name": "UpdateOracleFeeder",
      "type": "event"
    },
    {
      "anonymous": false,
      "inputs": [
        {
          "indexed": true,
          "internalType": "address",
          "name": "token",
          "type": "address"
        },
        {
          "indexed": false,
          "internalType": "uint256",
          "name": "prevPrice",
          "type": "uint256"
        },
        {
          "indexed": false,
          "internalType": "uint256",
          "name": "currPrice",
          "type": "uint256"
        }
      ],
      "name": "UpdatePrice",
      "type": "event"
    },
    {
      "inputs": [
        {
          "internalType": "address",
          "name": "owner",
          "type": "address"
        },
        {
          "internalType": "address",
          "name": "spender",
          "type": "address"
        }
      ],
      "name": "allowance",
      "outputs": [
        {
          "internalType": "uint256",
          "name": "",
          "type": "uint256"
        }
      ],
      "stateMutability": "view",
      "type": "function"
    },
    {
      "inputs": [
        {
          "internalType": "address",
          "name": "spender",
          "type": "address"
        },
        {
          "internalType": "uint256",
          "name": "amount",
          "type": "uint256"
        }
      ],
      "name": "approve",
      "outputs": [
        {
          "internalType": "bool",
          "name": "",
          "type": "bool"
        }
      ],
      "stateMutability": "nonpayable",
      "type": "function"
    },
    {
      "inputs": [
        {
          "internalType": "address",
          "name": "spender",
          "type": "address"
        }
      ],
      "name": "approveMax",
      "outputs": [],
      "stateMutability": "nonpayable",
      "type": "function"
    },
    {
      "inputs": [
        {
          "internalType": "address",
          "name": "account",
          "type": "address"
        }
      ],
      "name": "balanceOf",
      "outputs": [
        {
          "internalType": "uint256",
          "name": "",
          "type": "uint256"
        }
      ],
      "stateMutability": "view",
      "type": "function"
    },
    {
      "inputs": [],
      "name": "bonusRatio",
      "outputs": [
        {
          "internalType": "uint256",
          "name": "",
          "type": "uint256"
        }
      ],
      "stateMutability": "view",
      "type": "function"
    },
    {
      "inputs": [],
      "name": "burnFeeRatio",
      "outputs": [
        {
          "internalType": "uint256",
          "name": "",
          "type": "uint256"
        }
      ],
      "stateMutability": "view",
      "type": "function"
    },
    {
      "inputs": [
        {
          "internalType": "address",
          "name": "toAccount_",
          "type": "address"
        },
        {
          "internalType": "uint256",
          "name": "shareAmount_",
          "type": "uint256"
        }
      ],
      "name": "buyback",
      "outputs": [
        {
          "internalType": "uint256",
          "name": "debtAmount_",
          "type": "uint256"
        }
      ],
      "stateMutability": "nonpayable",
      "type": "function"
    },
    {
      "inputs": [],
      "name": "currentTrustLevel",
      "outputs": [
        {
          "internalType": "uint256",
          "name": "",
          "type": "uint256"
        }
      ],
      "stateMutability": "view",
      "type": "function"
    },
    {
      "inputs": [],
      "name": "decimals",
      "outputs": [
        {
          "internalType": "uint8",
          "name": "",
          "type": "uint8"
        }
      ],
      "stateMutability": "view",
      "type": "function"
    },
    {
      "inputs": [
        {
          "internalType": "address",
          "name": "spender",
          "type": "address"
        },
        {
          "internalType": "uint256",
          "name": "subtractedValue",
          "type": "uint256"
        }
      ],
      "name": "decreaseAllowance",
      "outputs": [
        {
          "internalType": "bool",
          "name": "",
          "type": "bool"
        }
      ],
      "stateMutability": "nonpayable",
      "type": "function"
    },
    {
      "inputs": [],
      "name": "deltaTrust",
      "outputs": [
        {
          "internalType": "int256",
          "name": "",
          "type": "int256"
        }
      ],
      "stateMutability": "view",
      "type": "function"
    },
    {
      "inputs": [],
      "name": "deltaTrustLevel",
      "outputs": [
        {
          "internalType": "int256",
          "name": "",
          "type": "int256"
        }
      ],
      "stateMutability": "view",
      "type": "function"
    },
    {
      "inputs": [
        {
          "internalType": "uint256",
          "name": "shareAmount_",
          "type": "uint256"
        }
      ],
      "name": "exchangedDebtAmountFromShare",
      "outputs": [
        {
          "internalType": "uint256",
          "name": "debtAmount_",
          "type": "uint256"
        }
      ],
      "stateMutability": "view",
      "type": "function"
    },
    {
      "inputs": [
        {
          "internalType": "uint256",
          "name": "debtAmount_",
          "type": "uint256"
        }
      ],
      "name": "exchangedShareAmountFromDebt",
      "outputs": [
        {
          "internalType": "uint256",
          "name": "shareAmount_",
          "type": "uint256"
        }
      ],
      "stateMutability": "view",
      "type": "function"
    },
    {
      "inputs": [
        {
          "internalType": "uint256",
          "name": "debtAmount_",
          "type": "uint256"
        },
        {
          "internalType": "uint256",
          "name": "shareAmount_",
          "type": "uint256"
        }
      ],
      "name": "expectedMintAmount",
      "outputs": [
        {
          "internalType": "uint256",
          "name": "stableAmount_",
          "type": "uint256"
        }
      ],
      "stateMutability": "view",
      "type": "function"
    },
    {
      "inputs": [
        {
          "internalType": "uint256",
          "name": "debtAmount_",
          "type": "uint256"
        },
        {
          "internalType": "uint256",
          "name": "shareAmount_",
          "type": "uint256"
        }
      ],
      "name": "expectedMintAmountWithFee",
      "outputs": [
        {
          "internalType": "uint256",
          "name": "stableAmount_",
          "type": "uint256"
        },
        {
          "internalType": "uint256",
          "name": "mintFee_",
          "type": "uint256"
        }
      ],
      "stateMutability": "view",
      "type": "function"
    },
    {
      "inputs": [
        {
          "internalType": "uint256",
          "name": "stableAmount_",
          "type": "uint256"
        }
      ],
      "name": "expectedRedeemAmount",
      "outputs": [
        {
          "internalType": "uint256",
          "name": "debtAmount_",
          "type": "uint256"
        },
        {
          "internalType": "uint256",
          "name": "shareAmount_",
          "type": "uint256"
        }
      ],
      "stateMutability": "view",
      "type": "function"
    },
    {
      "inputs": [
        {
          "internalType": "uint256",
          "name": "stableAmount_",
          "type": "uint256"
        }
      ],
      "name": "expectedRedeemAmountWithFee",
      "outputs": [
        {
          "internalType": "uint256",
          "name": "debtAmount_",
          "type": "uint256"
        },
        {
          "internalType": "uint256",
          "name": "shareAmount_",
          "type": "uint256"
        },
        {
          "internalType": "uint256",
          "name": "burnFee_",
          "type": "uint256"
        }
      ],
      "stateMutability": "view",
      "type": "function"
    },
    {
      "inputs": [],
      "name": "getSharePrice",
      "outputs": [
        {
          "internalType": "uint256",
          "name": "",
          "type": "uint256"
        }
      ],
      "stateMutability": "view",
      "type": "function"
    },
    {
      "inputs": [],
      "name": "getStablePrice",
      "outputs": [
        {
          "internalType": "uint256",
          "name": "",
          "type": "uint256"
        }
      ],
      "stateMutability": "view",
      "type": "function"
    },
    {
      "inputs": [
        {
          "internalType": "address",
          "name": "spender",
          "type": "address"
        },
        {
          "internalType": "uint256",
          "name": "addedValue",
          "type": "uint256"
        }
      ],
      "name": "increaseAllowance",
      "outputs": [
        {
          "internalType": "bool",
          "name": "",
          "type": "bool"
        }
      ],
      "stateMutability": "nonpayable",
      "type": "function"
    },
    {
      "inputs": [
        {
          "internalType": "address",
          "name": "foxFarm_",
          "type": "address"
        }
      ],
      "name": "initialize",
      "outputs": [],
      "stateMutability": "nonpayable",
      "type": "function"
    },
    {
      "inputs": [
        {
          "internalType": "uint256",
          "name": "TIME_PERIOD",
          "type": "uint256"
        }
      ],
      "name": "isPassInterval",
      "outputs": [
        {
          "internalType": "bool",
          "name": "",
          "type": "bool"
        }
      ],
      "stateMutability": "view",
      "type": "function"
    },
    {
      "inputs": [
        {
          "internalType": "address",
          "name": "toAccount_",
          "type": "address"
        },
        {
          "internalType": "uint256",
          "name": "debtAmount_",
          "type": "uint256"
        },
        {
          "internalType": "uint256",
          "name": "shareAmount_",
          "type": "uint256"
        }
      ],
      "name": "mint",
      "outputs": [
        {
          "internalType": "uint256",
          "name": "stableAmount_",
          "type": "uint256"
        }
      ],
      "stateMutability": "nonpayable",
      "type": "function"
    },
    {
      "inputs": [],
      "name": "mintFeeRatio",
      "outputs": [
        {
          "internalType": "uint256",
          "name": "",
          "type": "uint256"
        }
      ],
      "stateMutability": "view",
      "type": "function"
    },
    {
      "inputs": [],
      "name": "name",
      "outputs": [
        {
          "internalType": "string",
          "name": "",
          "type": "string"
        }
      ],
      "stateMutability": "view",
      "type": "function"
    },
    {
      "inputs": [],
      "name": "owner",
      "outputs": [
        {
          "internalType": "address",
          "name": "",
          "type": "address"
        }
      ],
      "stateMutability": "view",
      "type": "function"
    },
    {
      "inputs": [],
      "name": "pause",
      "outputs": [],
      "stateMutability": "nonpayable",
      "type": "function"
    },
    {
      "inputs": [],
      "name": "paused",
      "outputs": [
        {
          "internalType": "bool",
          "name": "",
          "type": "bool"
        }
      ],
      "stateMutability": "view",
      "type": "function"
    },
    {
      "inputs": [
        {
          "internalType": "address",
          "name": "toAccount_",
          "type": "address"
        },
        {
          "internalType": "uint256",
          "name": "debtAmount_",
          "type": "uint256"
        }
      ],
      "name": "recollateralize",
      "outputs": [
        {
          "internalType": "uint256",
          "name": "shareAmount_",
          "type": "uint256"
        },
        {
          "internalType": "uint256",
          "name": "bonusAmount_",
          "type": "uint256"
        }
      ],
      "stateMutability": "nonpayable",
      "type": "function"
    },
    {
      "inputs": [
        {
          "internalType": "address",
          "name": "toAccount_",
          "type": "address"
        },
        {
          "internalType": "uint256",
          "name": "stableAmount_",
          "type": "uint256"
        }
      ],
      "name": "redeem",
      "outputs": [
        {
          "internalType": "uint256",
          "name": "debtAmount_",
          "type": "uint256"
        },
        {
          "internalType": "uint256",
          "name": "shareAmount_",
          "type": "uint256"
        }
      ],
      "stateMutability": "nonpayable",
      "type": "function"
    },
    {
      "inputs": [],
      "name": "renounceOwnership",
      "outputs": [],
      "stateMutability": "nonpayable",
      "type": "function"
    },
    {
      "inputs": [
        {
          "internalType": "uint256",
          "name": "shareAmount_",
          "type": "uint256"
        }
      ],
      "name": "requiredDebtAmountFromShare",
      "outputs": [
        {
          "internalType": "uint256",
          "name": "debtAmount_",
          "type": "uint256"
        }
      ],
      "stateMutability": "view",
      "type": "function"
    },
    {
      "inputs": [
        {
          "internalType": "uint256",
          "name": "stableAmount_",
          "type": "uint256"
        }
      ],
      "name": "requiredDebtAmountFromStable",
      "outputs": [
        {
          "internalType": "uint256",
          "name": "debtAmount_",
          "type": "uint256"
        }
      ],
      "stateMutability": "view",
      "type": "function"
    },
    {
      "inputs": [
        {
          "internalType": "uint256",
          "name": "stableAmount_",
          "type": "uint256"
        }
      ],
      "name": "requiredDebtAmountFromStableWithFee",
      "outputs": [
        {
          "internalType": "uint256",
          "name": "debtAmount_",
          "type": "uint256"
        }
      ],
      "stateMutability": "view",
      "type": "function"
    },
    {
      "inputs": [
        {
          "internalType": "uint256",
          "name": "debtAmount_",
          "type": "uint256"
        }
      ],
      "name": "requiredShareAmountFromDebt",
      "outputs": [
        {
          "internalType": "uint256",
          "name": "shareAmount_",
          "type": "uint256"
        }
      ],
      "stateMutability": "view",
      "type": "function"
    },
    {
      "inputs": [
        {
          "internalType": "uint256",
          "name": "stableAmount_",
          "type": "uint256"
        }
      ],
      "name": "requiredShareAmountFromStable",
      "outputs": [
        {
          "internalType": "uint256",
          "name": "shareAmount_",
          "type": "uint256"
        }
      ],
      "stateMutability": "view",
      "type": "function"
    },
    {
      "inputs": [
        {
          "internalType": "uint256",
          "name": "stableAmount_",
          "type": "uint256"
        }
      ],
      "name": "requiredShareAmountFromStableWithFee",
      "outputs": [
        {
          "internalType": "uint256",
          "name": "shareAmount_",
          "type": "uint256"
        }
      ],
      "stateMutability": "view",
      "type": "function"
    },
    {
      "inputs": [
        {
          "internalType": "uint256",
          "name": "debtAmount_",
          "type": "uint256"
        }
      ],
      "name": "requiredStableAmountFromDebt",
      "outputs": [
        {
          "internalType": "uint256",
          "name": "stableAmount_",
          "type": "uint256"
        }
      ],
      "stateMutability": "view",
      "type": "function"
    },
    {
      "inputs": [
        {
          "internalType": "uint256",
          "name": "debtAmount_",
          "type": "uint256"
        }
      ],
      "name": "requiredStableAmountFromDebtWithFee",
      "outputs": [
        {
          "internalType": "uint256",
          "name": "stableAmount_",
          "type": "uint256"
        }
      ],
      "stateMutability": "view",
      "type": "function"
    },
    {
      "inputs": [
        {
          "internalType": "uint256",
          "name": "newBonusRatio",
          "type": "uint256"
        }
      ],
      "name": "setBonusRatio",
      "outputs": [],
      "stateMutability": "nonpayable",
      "type": "function"
    },
    {
      "inputs": [
        {
          "internalType": "uint256",
          "name": "newBunrFeeRatio",
          "type": "uint256"
        }
      ],
      "name": "setBurnFeeRatio",
      "outputs": [],
      "stateMutability": "nonpayable",
      "type": "function"
    },
    {
      "inputs": [
        {
          "internalType": "address",
          "name": "newFeeTo",
          "type": "address"
        }
      ],
      "name": "setFeeTo",
      "outputs": [],
      "stateMutability": "nonpayable",
      "type": "function"
    },
    {
      "inputs": [
        {
          "internalType": "uint256",
          "name": "newMintFeeRatio",
          "type": "uint256"
        }
      ],
      "name": "setMintFeeRatio",
      "outputs": [],
      "stateMutability": "nonpayable",
      "type": "function"
    },
    {
      "inputs": [],
      "name": "shortfallRecollateralizeAmount",
      "outputs": [
        {
          "internalType": "uint256",
          "name": "debtAmount_",
          "type": "uint256"
        }
      ],
      "stateMutability": "view",
      "type": "function"
    },
    {
      "inputs": [
        {
          "internalType": "address",
          "name": "toAccount_",
          "type": "address"
        }
      ],
      "name": "skim",
      "outputs": [
        {
          "internalType": "uint256",
          "name": "shareAmount_",
          "type": "uint256"
        }
      ],
      "stateMutability": "nonpayable",
      "type": "function"
    },
    {
      "inputs": [],
      "name": "step",
      "outputs": [
        {
          "internalType": "uint256",
          "name": "",
          "type": "uint256"
        }
      ],
      "stateMutability": "view",
      "type": "function"
    },
    {
      "inputs": [],
      "name": "surplusBuybackAmount",
      "outputs": [
        {
          "internalType": "uint256",
          "name": "debtAmount_",
          "type": "uint256"
        }
      ],
      "stateMutability": "view",
      "type": "function"
    },
    {
      "inputs": [],
      "name": "symbol",
      "outputs": [
        {
          "internalType": "string",
          "name": "",
          "type": "string"
        }
      ],
      "stateMutability": "view",
      "type": "function"
    },
    {
      "inputs": [],
      "name": "totalSupply",
      "outputs": [
        {
          "internalType": "uint256",
          "name": "",
          "type": "uint256"
        }
      ],
      "stateMutability": "view",
      "type": "function"
    },
    {
      "inputs": [
        {
          "internalType": "address",
          "name": "to",
          "type": "address"
        },
        {
          "internalType": "uint256",
          "name": "amount",
          "type": "uint256"
        }
      ],
      "name": "transfer",
      "outputs": [
        {
          "internalType": "bool",
          "name": "",
          "type": "bool"
        }
      ],
      "stateMutability": "nonpayable",
      "type": "function"
    },
    {
      "inputs": [
        {
          "internalType": "address",
          "name": "from",
          "type": "address"
        },
        {
          "internalType": "address",
          "name": "to",
          "type": "address"
        },
        {
          "internalType": "uint256",
          "name": "amount",
          "type": "uint256"
        }
      ],
      "name": "transferFrom",
      "outputs": [
        {
          "internalType": "bool",
          "name": "",
          "type": "bool"
        }
      ],
      "stateMutability": "nonpayable",
      "type": "function"
    },
    {
      "inputs": [
        {
          "internalType": "address",
          "name": "newOwner",
          "type": "address"
        }
      ],
      "name": "transferOwnership",
      "outputs": [],
      "stateMutability": "nonpayable",
      "type": "function"
    },
    {
      "inputs": [],
      "name": "trustLevel",
      "outputs": [
        {
          "internalType": "uint256",
          "name": "",
          "type": "uint256"
        }
      ],
      "stateMutability": "view",
      "type": "function"
    },
    {
      "inputs": [],
      "name": "unpause",
      "outputs": [],
      "stateMutability": "nonpayable",
      "type": "function"
    },
    {
      "inputs": [
        {
          "internalType": "address",
          "name": "newOracleFeeder",
          "type": "address"
        }
      ],
      "name": "updateOracleFeeder",
      "outputs": [],
      "stateMutability": "nonpayable",
      "type": "function"
    },
    {
      "inputs": [
        {
          "internalType": "uint256",
          "name": "newSharePrice",
          "type": "uint256"
        },
        {
          "internalType": "uint256",
          "name": "confidence",
          "type": "uint256"
        }
      ],
      "name": "updateSharePrice",
      "outputs": [],
      "stateMutability": "nonpayable",
      "type": "function"
    },
    {
      "inputs": [
        {
          "internalType": "uint256",
          "name": "newStablePrice",
          "type": "uint256"
        },
        {
          "internalType": "uint256",
          "name": "confidence",
          "type": "uint256"
        }
      ],
      "name": "updateStablePrice",
      "outputs": [],
      "stateMutability": "nonpayable",
      "type": "function"
    },
    {
      "inputs": [
        {
          "internalType": "uint256",
          "name": "newStablePrice",
          "type": "uint256"
        },
        {
          "internalType": "uint256",
          "name": "confidence",
          "type": "uint256"
        }
      ],
      "name": "updateStablePriceWithTrustLevel",
      "outputs": [],
      "stateMutability": "nonpayable",
      "type": "function"
    },
    {
      "inputs": [
        {
          "internalType": "enum IFOX.Step",
          "name": "step_",
          "type": "uint8"
        }
      ],
      "name": "updateStep",
      "outputs": [],
      "stateMutability": "nonpayable",
      "type": "function"
    },
    {
      "inputs": [],
      "name": "updateTrustLevel",
      "outputs": [],
      "stateMutability": "nonpayable",
      "type": "function"
    }
  ],
  "bytecode": "0x60c0604052612710600955612710600a556107d0600c553480156200002357600080fd5b5060405162002c0b38038062002c0b833981016040819052620000469162000379565b8660405180606001604052806029815260200162002bc2602991396040518060400160405280600381526020016208c9eb60eb1b815250816003908051906020019062000095929190620002b6565b508051620000ab906004906020840190620002b6565b50506005805460ff1916905550620000c3336200025c565b600680546001600160a01b0319166001600160a01b039283161790554260075587908116620001425760405162461bcd60e51b8152602060048201526031602482015260008051602062002beb8339815191526044820152701036bab9ba103132903737b73d32b9379760791b60648201526084015b60405180910390fd5b856001600160a01b038116620001a45760405162461bcd60e51b8152602060048201526031602482015260008051602062002beb8339815191526044820152701036bab9ba103132903737b73d32b9379760791b606482015260840162000139565b856001600160a01b038116620002065760405162461bcd60e51b8152602060048201526031602482015260008051602062002beb8339815191526044820152701036bab9ba103132903737b73d32b9379760791b606482015260840162000139565b600d80546001600160a01b0319166001600160a01b038b811691909117909155888116608052871660a0526200023f60196004620003f3565b600b55505050600e92909255600f55601055506200045e92505050565b600580546001600160a01b03838116610100818102610100600160a81b031985161790945560405193909204169182907f8be0079c531659141344cd1fd0a4f28419497f9722a3daafe3b4186f6b6457e090600090a35050565b828054620002c49062000421565b90600052602060002090601f016020900481019282620002e8576000855562000333565b82601f106200030357805160ff191683800117855562000333565b8280016001018555821562000333579182015b828111156200033357825182559160200191906001019062000316565b506200034192915062000345565b5090565b5b8082111562000341576000815560010162000346565b80516001600160a01b03811681146200037457600080fd5b919050565b600080600080600080600060e0888a0312156200039557600080fd5b620003a0886200035c565b9650620003b0602089016200035c565b9550620003c0604089016200035c565b9450620003d0606089016200035c565b93506080880151925060a0880151915060c0880151905092959891949750929550565b60008160001904831182151516156200041c57634e487b7160e01b600052601160045260246000fd5b500290565b600181811c908216806200043657607f821691505b602082108114156200045857634e487b7160e01b600052602260045260246000fd5b50919050565b60805160a0516126f1620004d160003960008181610a0501528181610ad501528181610c5c01528181610dbc01528181610e0901526110570152600081816109c801528181610c2801528181610d5701528181610f7f0152818161109f015281816114b101526115bf01526126f16000f3fe608060405234801561001057600080fd5b50600436106103af5760003560e01c8063715018a6116101f4578063c4d66de81161011a578063e2036fd0116100ad578063f280db8a1161007c578063f280db8a146107b4578063f2fde38b146107bc578063f46901ed146107cf578063fa4356d3146107e257600080fd5b8063e2036fd014610788578063e25fe17514610790578063e695d61814610799578063ec9e0393146107ac57600080fd5b8063db6583e3116100e9578063db6583e31461073c578063dd62ed3e1461074f578063de1cf16914610762578063e1a22dfe1461077557600080fd5b8063c4d66de8146106fb578063cb5f12441461070e578063d538399014610716578063d5aa33d21461072957600080fd5b806395b31b1111610192578063a9059cbb11610161578063a9059cbb146106b9578063bc25cf77146106cc578063bf0b893a146106df578063c1de58a3146106e857600080fd5b806395b31b111461068d57806395d89b4114610696578063a457c2d71461069e578063a7dbb613146106b157600080fd5b80638456cb59116101ce5780638456cb59146106415780638828ad35146106495780638a879219146106515780638da5cb5b1461066457600080fd5b8063715018a61461061357806375c2f5951461061b5780637caa481b1461062e57600080fd5b80632761d6ef116102d95780634bca39d1116102775780635c975abb116102465780635c975abb146105c45780635f92c30d146105cf578063655f767c146105d757806370a08231146105ea57600080fd5b80634bca39d1146105835780634ef8ddb414610596578063571ac8b0146105a95780635b1dac60146105bc57600080fd5b806339509351116102b357806339509351146105425780633f4ba83a14610555578063423e79791461055d5780634b974f4b1461057057600080fd5b80632761d6ef14610517578063313ce56714610520578063338122511461052f57600080fd5b806318160ddd116103515780631e9a6950116103205780631e9a6950146104b657806323b872dd146104de578063262daf8e146104f15780632694d5e71461050457600080fd5b806318160ddd1461045a5780631b1da1af146104625780631c75ffe0146104755780631ddb61031461048857600080fd5b8063095ea7b31161038d578063095ea7b3146103fa5780630f77858c1461041d578063156e29f614610430578063171264491461045157600080fd5b806302d525ac146103b457806304df8862146103c957806306fdde03146103dc575b600080fd5b6103c76103c2366004612377565b6107f5565b005b6103c76103d7366004612399565b61087a565b6103e46108c8565b6040516103f191906123de565b60405180910390f35b61040d610408366004612428565b61095a565b60405190151581526020016103f1565b6103c761042b366004612399565b610972565b61044361043e366004612452565b6109b8565b6040519081526020016103f1565b610443600e5481565b600254610443565b6103c7610470366004612377565b610a8a565b610443610483366004612399565b610b2a565b61049b610496366004612399565b610b7c565b604080519384526020840192909252908201526060016103f1565b6104c96104c4366004612428565b610bb7565b604080519283526020830191909152016103f1565b61040d6104ec366004612485565b610c8a565b6103c76104ff3660046124c1565b610cb0565b610443610512366004612399565b610cc4565b61044360105481565b604051601281526020016103f1565b61044361053d366004612399565b610cd7565b61040d610550366004612428565b610cf5565b6103c7610d17565b6104c961056b366004612428565b610d29565b61040d61057e366004612399565b610e6d565b6103c7610591366004612399565b610e85565b6103c76105a4366004612377565b610ecb565b6103c76105b73660046124c1565b610f4e565b600a54610443565b60055460ff1661040d565b610443610f5b565b6104436105e5366004612428565b611027565b6104436105f83660046124c1565b6001600160a01b031660009081526020819052604090205490565b6103c76110cd565b610443610629366004612399565b6110df565b6103c761063c3660046124dc565b61110f565b6103c7611204565b6103c7611214565b61044361065f366004612377565b611224565b60055461010090046001600160a01b03166040516001600160a01b0390911681526020016103f1565b610443600f5481565b6103e4611281565b61040d6106ac366004612428565b611290565b610443611316565b61040d6106c7366004612428565b611328565b6104436106da3660046124c1565b611336565b610443600c5481565b6104436106f6366004612399565b611345565b6103c76107093660046124c1565b611373565b6104436113c5565b610443610724366004612399565b6113dc565b610443610737366004612399565b61140c565b61044361074a366004612399565b61141e565b61044361075d3660046124fd565b611431565b610443610770366004612399565b61145c565b6104c9610783366004612399565b61147b565b610443611499565b610443600b5481565b6104436107a7366004612399565b61155d565b600954610443565b61044361157e565b6103c76107ca3660046124c1565b611641565b6103c76107dd3660046124c1565b6116b7565b6104c96107f0366004612377565b611719565b6006546001600160a01b0316336001600160a01b0316146108315760405162461bcd60e51b815260040161082890612530565b60405180910390fd5b6009805490839055604080518281526020810185905230917f7c3bda8adcb9df1edd0059da351d966538bcc99f067c0770872170ac97fb688791015b60405180910390a2505050565b610882611758565b600e80549082905560408051828152602081018490527f1d35e6551a082a9799480e6fa71f01ca141bdce96131962af7d8505fbfef407891015b60405180910390a15050565b6060600380546108d79061258d565b80601f01602080910402602001604051908101604052809291908181526020018280546109039061258d565b80156109505780601f1061092557610100808354040283529160200191610950565b820191906000526020600020905b81548152906001019060200180831161093357829003601f168201915b5050505050905090565b6000336109688185856117b8565b5060019392505050565b61097a611758565b601080549082905560408051828152602081018490527fa9c225a7392b607bf3ccd4ffeedf2b9dfbd731451b86645d77f8e9261e5b844491016108bc565b60006109c26118dc565b336109f87f00000000000000000000000000000000000000000000000000000000000000006001600160a01b0316823087611922565b610a2d6001600160a01b037f000000000000000000000000000000000000000000000000000000000000000016823086611922565b600d546001600160a01b031615610a6b576000610a4a8585611719565b600d549194509150610a65906001600160a01b031682611993565b50610a78565b610a758484611224565b91505b610a828583611993565b509392505050565b6006546001600160a01b0316336001600160a01b031614610abd5760405162461bcd60e51b815260040161082890612530565b600a8054908390556009546040516001600160a01b037f000000000000000000000000000000000000000000000000000000000000000016917f7c3bda8adcb9df1edd0059da351d966538bcc99f067c0770872170ac97fb68879161086d91858252602082015260400190565b6000600f54612710610b3c91906125de565b600c54610b4b906127106125de565b610b5591906125f5565b612710610b6281856125f5565b610b6c91906125f5565b610b769190612614565b92915050565b6000806000612710600f5485610b9291906125f5565b610b9c9190612614565b9050610bab61078382866125de565b90959094509092509050565b600080610bc26118dc565b610bcc3384611a72565b600d546001600160a01b031615610c0c576000610be884610b7c565b600d549295509093509150610c06906001600160a01b031682611993565b50610c1b565b610c158361147b565b90925090505b610c4f6001600160a01b037f0000000000000000000000000000000000000000000000000000000000000000168584611bc0565b610c836001600160a01b037f0000000000000000000000000000000000000000000000000000000000000000168583611bc0565b9250929050565b600033610c98858285611bf0565b610ca3858585611c64565b60019150505b9392505050565b610cb8611758565b610cc181611e32565b50565b6000612710600a5483610b6c91906125f5565b6000600c54612710610ce991906125de565b610b6c612710846125f5565b600033610968818585610d088383611431565b610d129190612636565b6117b8565b610d1f611758565b610d27611e8c565b565b600080610d346118dc565b6000610d3e611499565b905083811015610d4e5780610d50565b835b9050610d877f00000000000000000000000000000000000000000000000000000000000000006001600160a01b0316333084611922565b610d908161140c565b925061271060105484610da391906125f5565b610dad9190612614565b9150610de36001600160a01b037f0000000000000000000000000000000000000000000000000000000000000000168685611bc0565b6040516340c10f1960e01b81526001600160a01b038681166004830152602482018590527f000000000000000000000000000000000000000000000000000000000000000016906340c10f1990604401600060405180830381600087803b158015610e4d57600080fd5b505af1158015610e61573d6000803e3d6000fd5b50505050509250929050565b600060075442610e7d91906125de565b909110919050565b610e8d611758565b600f80549082905560408051828152602081018490527fc035e3b986f9c550aedf0774a0d767ebc85da4b25e629006bb36a4e454987e8091016108bc565b6006546001600160a01b0316336001600160a01b031614610efe5760405162461bcd60e51b815260040161082890612530565b6009805490839055604080518281526020810185905230917f7c3bda8adcb9df1edd0059da351d966538bcc99f067c0770872170ac97fb6887910160405180910390a2610f49611ede565b505050565b610cc133826000196117b8565b6000610f6660025490565b6040516370a0823160e01b8152306004820152612710907f00000000000000000000000000000000000000000000000000000000000000006001600160a01b0316906370a082319060240160206040518083038186803b158015610fc957600080fd5b505afa158015610fdd573d6000803e3d6000fd5b505050506040513d601f19601f82011682018060405250810190611001919061264e565b60025461100e91906125de565b61101891906125f5565b6110229190612614565b905090565b60006110316118dc565b600061103e61073761157e565b90508281101561104e5780611050565b825b90506110877f00000000000000000000000000000000000000000000000000000000000000006001600160a01b0316333084611922565b61109081610cc4565b91506110c66001600160a01b037f0000000000000000000000000000000000000000000000000000000000000000168584611bc0565b5092915050565b6110d5611758565b610d276000612044565b6000612710600c546110f191906125f5565b600a5483600c5461271061110591906125de565b610b6291906125f5565b611117611758565b600081600381111561112b5761112b612667565b1415611139576019600b5550565b600181600381111561114d5761114d612667565b14156111655761115f601960026125f5565b600b5550565b600281600381111561117957611179612667565b141561118b5761115f601960036125f5565b600381600381111561119f5761119f612667565b14156111b15761115f601960046125f5565b60405162461bcd60e51b815260206004820152602260248201527f464f583a3a757064617465537465703a204e6f7420612076616c696420737465604482015261381760f11b6064820152608401610828565b61120c611758565b610d2761209e565b61121c611758565b610d27611ede565b6000806000611232856113dc565b90508381111561124f57611245846110df565b9150839050611253565b8491505b612710600a548261126491906125f5565b61126e9190612614565b6112789083612636565b95945050505050565b6060600480546108d79061258d565b6000338161129e8286611431565b9050838110156112fe5760405162461bcd60e51b815260206004820152602560248201527f45524332303a2064656372656173656420616c6c6f77616e63652062656c6f77604482015264207a65726f60d81b6064820152608401610828565b61130b82868684036117b8565b506001949350505050565b600061271060095461102291906125de565b600033610968818585611c64565b60006113406118dc565b919050565b6000600a54600e5461271061135a91906125de565b61136491906125f5565b600c54610b62612710856125f5565b61137b611758565b600880546001600160a01b0319166001600160a01b0383169081179091556040517f36b1453565f45af7b509b59d5e2eac8f1948ea9e3e193db6663b4101afb6382c90600090a250565b6000600c546113d2610f5b565b61102291906125de565b6000600a54600c546127106113f191906125de565b6113fb91906125f5565b612710600c5484610b6291906125f5565b600a54600090610b6c612710846125f5565b6000600a54600c5483610b6c91906125f5565b6001600160a01b03918216600090815260016020908152604080832093909416825291909152205490565b6000612710600c5461271061147191906125de565b610b6c90846125f5565b6000806114878361145c565b91506114928361141e565b9050915091565b6040516370a0823160e01b81523060048201526000907f00000000000000000000000000000000000000000000000000000000000000006001600160a01b0316906370a082319060240160206040518083038186803b1580156114fb57600080fd5b505afa15801561150f573d6000803e3d6000fd5b505050506040513d601f19601f82011682018060405250810190611533919061264e565b612710600c5461271061154691906125de565b60025461155391906125f5565b6113d29190612614565b6000600e5461271061156f91906125de565b600c54611471906127106125de565b6000612710600c5461271061159391906125de565b6002546115a091906125f5565b6115aa9190612614565b6040516370a0823160e01b81523060048201527f00000000000000000000000000000000000000000000000000000000000000006001600160a01b0316906370a082319060240160206040518083038186803b15801561160957600080fd5b505afa15801561161d573d6000803e3d6000fd5b505050506040513d601f19601f820116820180604052508101906113d2919061264e565b611649611758565b6001600160a01b0381166116ae5760405162461bcd60e51b815260206004820152602660248201527f4f776e61626c653a206e6577206f776e657220697320746865207a65726f206160448201526564647265737360d01b6064820152608401610828565b610cc181612044565b6116bf611758565b600d80546001600160a01b038381166001600160a01b031983168117909355604080519190921680825260208201939093527f41d2755f00068d89c23ebc6f1e73ce119a6236a44517ca061f544a3f91c9bca491016108bc565b6000806117268484611224565b9150612710600e548361173991906125f5565b6117439190612614565b905061174f81836125de565b91509250929050565b6005546001600160a01b03610100909104163314610d275760405162461bcd60e51b815260206004820181905260248201527f4f776e61626c653a2063616c6c6572206973206e6f7420746865206f776e65726044820152606401610828565b6001600160a01b03831661181a5760405162461bcd60e51b8152602060048201526024808201527f45524332303a20617070726f76652066726f6d20746865207a65726f206164646044820152637265737360e01b6064820152608401610828565b6001600160a01b03821661187b5760405162461bcd60e51b815260206004820152602260248201527f45524332303a20617070726f766520746f20746865207a65726f206164647265604482015261737360f01b6064820152608401610828565b6001600160a01b0383811660008181526001602090815260408083209487168084529482529182902085905590518481527f8c5be1e5ebec7d5bd14f71427d1e84f3dd0314c0f7b2291e5b200ac8c7c3b925910160405180910390a3505050565b60055460ff1615610d275760405162461bcd60e51b815260206004820152601060248201526f14185d5cd8589b194e881c185d5cd95960821b6044820152606401610828565b6040516001600160a01b038085166024830152831660448201526064810182905261198d9085906323b872dd60e01b906084015b60408051601f198184030181529190526020810180516001600160e01b03166001600160e01b0319909316929092179091526120db565b50505050565b6001600160a01b0382166119e95760405162461bcd60e51b815260206004820152601f60248201527f45524332303a206d696e7420746f20746865207a65726f2061646472657373006044820152606401610828565b80600260008282546119fb9190612636565b90915550506001600160a01b03821660009081526020819052604081208054839290611a28908490612636565b90915550506040518181526001600160a01b038316906000907fddf252ad1be2c89b69c2b068fc378daa952ba7f163c4a11628f55a4df523b3ef9060200160405180910390a35050565b6001600160a01b038216611ad25760405162461bcd60e51b815260206004820152602160248201527f45524332303a206275726e2066726f6d20746865207a65726f206164647265736044820152607360f81b6064820152608401610828565b6001600160a01b03821660009081526020819052604090205481811015611b465760405162461bcd60e51b815260206004820152602260248201527f45524332303a206275726e20616d6f756e7420657863656564732062616c616e604482015261636560f01b6064820152608401610828565b6001600160a01b0383166000908152602081905260408120838303905560028054849290611b759084906125de565b90915550506040518281526000906001600160a01b038516907fddf252ad1be2c89b69c2b068fc378daa952ba7f163c4a11628f55a4df523b3ef9060200160405180910390a3505050565b6040516001600160a01b038316602482015260448101829052610f4990849063a9059cbb60e01b90606401611956565b6000611bfc8484611431565b9050600019811461198d5781811015611c575760405162461bcd60e51b815260206004820152601d60248201527f45524332303a20696e73756666696369656e7420616c6c6f77616e63650000006044820152606401610828565b61198d84848484036117b8565b6001600160a01b038316611cc85760405162461bcd60e51b815260206004820152602560248201527f45524332303a207472616e736665722066726f6d20746865207a65726f206164604482015264647265737360d81b6064820152608401610828565b6001600160a01b038216611d2a5760405162461bcd60e51b815260206004820152602360248201527f45524332303a207472616e7366657220746f20746865207a65726f206164647260448201526265737360e81b6064820152608401610828565b6001600160a01b03831660009081526020819052604090205481811015611da25760405162461bcd60e51b815260206004820152602660248201527f45524332303a207472616e7366657220616d6f756e7420657863656564732062604482015265616c616e636560d01b6064820152608401610828565b6001600160a01b03808516600090815260208190526040808220858503905591851681529081208054849290611dd9908490612636565b92505081905550826001600160a01b0316846001600160a01b03167fddf252ad1be2c89b69c2b068fc378daa952ba7f163c4a11628f55a4df523b3ef84604051611e2591815260200190565b60405180910390a361198d565b600680546001600160a01b038381166001600160a01b031983168117909355604080519190921680825260208201939093527f6b2e9b3836edd552e454031d349dbf020544e4123c344f1ddb0a7a9a336adef991016108bc565b611e946121ad565b6005805460ff191690557f5db9ee0a495bf2e6ff9c91a7834c1ba4fdd244a5e8aa4e537bd38aeae4b073aa335b6040516001600160a01b03909116815260200160405180910390a1565b610e10611eea81610e6d565b611f365760405162461bcd60e51b815260206004820152601c60248201527f496e74657276616c3a3a696e74657276616c3a204e6f74207965742e000000006044820152606401610828565b6000611f40611316565b1215611f6557600b54600c6000828254611f5a91906125de565b9091555061203d9050565b6008546001600160a01b0316158061201e5750612710600b54600c54600860009054906101000a90046001600160a01b03166001600160a01b031663f384bd056040518163ffffffff1660e01b815260040160206040518083038186803b158015611fcf57600080fd5b505afa158015611fe3573d6000803e3d6000fd5b505050506040513d601f19601f82011682018060405250810190612007919061264e565b6120119190612636565b61201b9190612636565b11155b1561203d57600b54600c60008282546120379190612636565b90915550505b5042600755565b600580546001600160a01b03838116610100818102610100600160a81b031985161790945560405193909204169182907f8be0079c531659141344cd1fd0a4f28419497f9722a3daafe3b4186f6b6457e090600090a35050565b6120a66118dc565b6005805460ff191660011790557f62e78cea01bee320cd4e420270b5ea74000d11b0c9f74754ebdbfc544b05a258611ec13390565b6000612130826040518060400160405280602081526020017f5361666545524332303a206c6f772d6c6576656c2063616c6c206661696c6564815250856001600160a01b03166121f69092919063ffffffff16565b805190915015610f49578080602001905181019061214e919061267d565b610f495760405162461bcd60e51b815260206004820152602a60248201527f5361666545524332303a204552433230206f7065726174696f6e20646964206e6044820152691bdd081cdd58d8d9595960b21b6064820152608401610828565b60055460ff16610d275760405162461bcd60e51b815260206004820152601460248201527314185d5cd8589b194e881b9bdd081c185d5cd95960621b6044820152606401610828565b6060612205848460008561220d565b949350505050565b60608247101561226e5760405162461bcd60e51b815260206004820152602660248201527f416464726573733a20696e73756666696369656e742062616c616e636520666f6044820152651c8818d85b1b60d21b6064820152608401610828565b6001600160a01b0385163b6122c55760405162461bcd60e51b815260206004820152601d60248201527f416464726573733a2063616c6c20746f206e6f6e2d636f6e74726163740000006044820152606401610828565b600080866001600160a01b031685876040516122e1919061269f565b60006040518083038185875af1925050503d806000811461231e576040519150601f19603f3d011682016040523d82523d6000602084013e612323565b606091505b509150915061233382828661233e565b979650505050505050565b6060831561234d575081610ca9565b82511561235d5782518084602001fd5b8160405162461bcd60e51b815260040161082891906123de565b6000806040838503121561238a57600080fd5b50508035926020909101359150565b6000602082840312156123ab57600080fd5b5035919050565b60005b838110156123cd5781810151838201526020016123b5565b8381111561198d5750506000910152565b60208152600082518060208401526123fd8160408501602087016123b2565b601f01601f19169190910160400192915050565b80356001600160a01b038116811461134057600080fd5b6000806040838503121561243b57600080fd5b61244483612411565b946020939093013593505050565b60008060006060848603121561246757600080fd5b61247084612411565b95602085013595506040909401359392505050565b60008060006060848603121561249a57600080fd5b6124a384612411565b92506124b160208501612411565b9150604084013590509250925092565b6000602082840312156124d357600080fd5b610ca982612411565b6000602082840312156124ee57600080fd5b813560048110610ca957600080fd5b6000806040838503121561251057600080fd5b61251983612411565b915061252760208401612411565b90509250929050565b6020808252603f908201527f4f7261636c653a3a6f6e6c794f7261636c654665656465723a2053656e64657260408201527f206d7573742062652073616d65206173205f6f7261636c654665656465722e00606082015260800190565b600181811c908216806125a157607f821691505b602082108114156125c257634e487b7160e01b600052602260045260246000fd5b50919050565b634e487b7160e01b600052601160045260246000fd5b6000828210156125f0576125f06125c8565b500390565b600081600019048311821515161561260f5761260f6125c8565b500290565b60008261263157634e487b7160e01b600052601260045260246000fd5b500490565b60008219821115612649576126496125c8565b500190565b60006020828403121561266057600080fd5b5051919050565b634e487b7160e01b600052602160045260246000fd5b60006020828403121561268f57600080fd5b81518015158114610ca957600080fd5b600082516126b18184602087016123b2565b919091019291505056fea26469706673582212205e9c5d68170dd4c1ab7474735688026170d2537b1a81fc18907128f2350d805d64736f6c634300080900334672616374696f6e616c204f76657220436f6c6c61746572616c697a656420537461626c65636f696e4e6f6e7a65726f3a3a6e6f6e7a65726f416464726573733a204163636f756e74",
  "linkReferences": {},
  "deployedLinkReferences": {}
}