{
  "_format": "hh-sol-artifact-1",
  "contractName": "FOX",
  "sourceName": "contracts/tokens/FOX.sol",
  "abi": [
    {
      "inputs": [
        {
          "internalType": "address",
          "name": "oracleFeeder_",
          "type": "address"
        },
        {
          "internalType": "address",
          "name": "feeTo_",
          "type": "address"
        },
        {
          "internalType": "address",
          "name": "debtToken_",
          "type": "address"
        },
        {
          "internalType": "address",
          "name": "shareToken_",
          "type": "address"
        },
        {
          "internalType": "uint256",
          "name": "mintFeeRatio_",
          "type": "uint256"
        },
        {
          "internalType": "uint256",
          "name": "burnFeeRatio_",
          "type": "uint256"
        },
        {
          "internalType": "uint256",
          "name": "bonusRatio_",
          "type": "uint256"
        }
      ],
      "stateMutability": "nonpayable",
      "type": "constructor"
    },
    {
      "anonymous": false,
      "inputs": [
        {
          "indexed": true,
          "internalType": "address",
          "name": "owner",
          "type": "address"
        },
        {
          "indexed": true,
          "internalType": "address",
          "name": "spender",
          "type": "address"
        },
        {
          "indexed": false,
          "internalType": "uint256",
          "name": "value",
          "type": "uint256"
        }
      ],
      "name": "Approval",
      "type": "event"
    },
    {
      "anonymous": false,
      "inputs": [
        {
          "indexed": true,
          "internalType": "address",
          "name": "foxFarm",
          "type": "address"
        }
      ],
      "name": "Initialize",
      "type": "event"
    },
    {
      "anonymous": false,
      "inputs": [
        {
          "indexed": true,
          "internalType": "address",
          "name": "previousOwner",
          "type": "address"
        },
        {
          "indexed": true,
          "internalType": "address",
          "name": "newOwner",
          "type": "address"
        }
      ],
      "name": "OwnershipTransferred",
      "type": "event"
    },
    {
      "anonymous": false,
      "inputs": [
        {
          "indexed": false,
          "internalType": "address",
          "name": "account",
          "type": "address"
        }
      ],
      "name": "Paused",
      "type": "event"
    },
    {
      "anonymous": false,
      "inputs": [
        {
          "indexed": false,
          "internalType": "uint256",
          "name": "prevBonusRatio",
          "type": "uint256"
        },
        {
          "indexed": false,
          "internalType": "uint256",
          "name": "currBonusRatio",
          "type": "uint256"
        }
      ],
      "name": "SetBonusRatio",
      "type": "event"
    },
    {
      "anonymous": false,
      "inputs": [
        {
          "indexed": false,
          "internalType": "uint256",
          "name": "prevBurnFeeRatio",
          "type": "uint256"
        },
        {
          "indexed": false,
          "internalType": "uint256",
          "name": "currBurnFeeRatio",
          "type": "uint256"
        }
      ],
      "name": "SetBurnFeeRatio",
      "type": "event"
    },
    {
      "anonymous": false,
      "inputs": [
        {
          "indexed": false,
          "internalType": "address",
          "name": "prevFeeTo",
          "type": "address"
        },
        {
          "indexed": false,
          "internalType": "address",
          "name": "currFeeTo",
          "type": "address"
        }
      ],
      "name": "SetFeeTo",
      "type": "event"
    },
    {
      "anonymous": false,
      "inputs": [
        {
          "indexed": false,
          "internalType": "uint256",
          "name": "prevMintFeeRatio",
          "type": "uint256"
        },
        {
          "indexed": false,
          "internalType": "uint256",
          "name": "currMintFeeRatio",
          "type": "uint256"
        }
      ],
      "name": "SetMintFeeRatio",
      "type": "event"
    },
    {
      "anonymous": false,
      "inputs": [
        {
          "indexed": true,
          "internalType": "address",
          "name": "from",
          "type": "address"
        },
        {
          "indexed": true,
          "internalType": "address",
          "name": "to",
          "type": "address"
        },
        {
          "indexed": false,
          "internalType": "uint256",
          "name": "value",
          "type": "uint256"
        }
      ],
      "name": "Transfer",
      "type": "event"
    },
    {
      "anonymous": false,
      "inputs": [
        {
          "indexed": false,
          "internalType": "address",
          "name": "account",
          "type": "address"
        }
      ],
      "name": "Unpaused",
      "type": "event"
    },
    {
      "anonymous": false,
      "inputs": [
        {
          "indexed": false,
          "internalType": "address",
          "name": "prevOracleFeeder",
          "type": "address"
        },
        {
          "indexed": false,
          "internalType": "address",
          "name": "currOracle",
          "type": "address"
        }
      ],
      "name": "UpdateOracleFeeder",
      "type": "event"
    },
    {
      "anonymous": false,
      "inputs": [
        {
          "indexed": true,
          "internalType": "address",
          "name": "token",
          "type": "address"
        },
        {
          "indexed": false,
          "internalType": "uint256",
          "name": "prevPrice",
          "type": "uint256"
        },
        {
          "indexed": false,
          "internalType": "uint256",
          "name": "currPrice",
          "type": "uint256"
        }
      ],
      "name": "UpdatePrice",
      "type": "event"
    },
    {
      "inputs": [
        {
          "internalType": "address",
          "name": "owner",
          "type": "address"
        },
        {
          "internalType": "address",
          "name": "spender",
          "type": "address"
        }
      ],
      "name": "allowance",
      "outputs": [
        {
          "internalType": "uint256",
          "name": "",
          "type": "uint256"
        }
      ],
      "stateMutability": "view",
      "type": "function"
    },
    {
      "inputs": [
        {
          "internalType": "address",
          "name": "spender",
          "type": "address"
        },
        {
          "internalType": "uint256",
          "name": "amount",
          "type": "uint256"
        }
      ],
      "name": "approve",
      "outputs": [
        {
          "internalType": "bool",
          "name": "",
          "type": "bool"
        }
      ],
      "stateMutability": "nonpayable",
      "type": "function"
    },
    {
      "inputs": [
        {
          "internalType": "address",
          "name": "spender",
          "type": "address"
        }
      ],
      "name": "approveMax",
      "outputs": [],
      "stateMutability": "nonpayable",
      "type": "function"
    },
    {
      "inputs": [
        {
          "internalType": "address",
          "name": "account",
          "type": "address"
        }
      ],
      "name": "balanceOf",
      "outputs": [
        {
          "internalType": "uint256",
          "name": "",
          "type": "uint256"
        }
      ],
      "stateMutability": "view",
      "type": "function"
    },
    {
      "inputs": [],
      "name": "bonusRatio",
      "outputs": [
        {
          "internalType": "uint256",
          "name": "",
          "type": "uint256"
        }
      ],
      "stateMutability": "view",
      "type": "function"
    },
    {
      "inputs": [],
      "name": "burnFeeRatio",
      "outputs": [
        {
          "internalType": "uint256",
          "name": "",
          "type": "uint256"
        }
      ],
      "stateMutability": "view",
      "type": "function"
    },
    {
      "inputs": [
        {
          "internalType": "address",
          "name": "toAccount_",
          "type": "address"
        },
        {
          "internalType": "uint256",
          "name": "shareAmount_",
          "type": "uint256"
        }
      ],
      "name": "buyback",
      "outputs": [
        {
          "internalType": "uint256",
          "name": "debtAmount_",
          "type": "uint256"
        }
      ],
      "stateMutability": "nonpayable",
      "type": "function"
    },
    {
      "inputs": [],
      "name": "currentTrustLevel",
      "outputs": [
        {
          "internalType": "uint256",
          "name": "",
          "type": "uint256"
        }
      ],
      "stateMutability": "view",
      "type": "function"
    },
    {
      "inputs": [],
      "name": "decimals",
      "outputs": [
        {
          "internalType": "uint8",
          "name": "",
          "type": "uint8"
        }
      ],
      "stateMutability": "view",
      "type": "function"
    },
    {
      "inputs": [
        {
          "internalType": "address",
          "name": "spender",
          "type": "address"
        },
        {
          "internalType": "uint256",
          "name": "subtractedValue",
          "type": "uint256"
        }
      ],
      "name": "decreaseAllowance",
      "outputs": [
        {
          "internalType": "bool",
          "name": "",
          "type": "bool"
        }
      ],
      "stateMutability": "nonpayable",
      "type": "function"
    },
    {
      "inputs": [],
      "name": "deltaTrust",
      "outputs": [
        {
          "internalType": "int256",
          "name": "",
          "type": "int256"
        }
      ],
      "stateMutability": "view",
      "type": "function"
    },
    {
      "inputs": [],
      "name": "deltaTrustLevel",
      "outputs": [
        {
          "internalType": "int256",
          "name": "",
          "type": "int256"
        }
      ],
      "stateMutability": "view",
      "type": "function"
    },
    {
      "inputs": [
        {
          "internalType": "uint256",
          "name": "shareAmount_",
          "type": "uint256"
        }
      ],
      "name": "exchangedDebtAmountFromShare",
      "outputs": [
        {
          "internalType": "uint256",
          "name": "debtAmount_",
          "type": "uint256"
        }
      ],
      "stateMutability": "view",
      "type": "function"
    },
    {
      "inputs": [
        {
          "internalType": "uint256",
          "name": "debtAmount_",
          "type": "uint256"
        }
      ],
      "name": "exchangedShareAmountFromDebt",
      "outputs": [
        {
          "internalType": "uint256",
          "name": "shareAmount_",
          "type": "uint256"
        }
      ],
      "stateMutability": "view",
      "type": "function"
    },
    {
      "inputs": [
        {
          "internalType": "uint256",
          "name": "debtAmount_",
          "type": "uint256"
        },
        {
          "internalType": "uint256",
          "name": "shareAmount_",
          "type": "uint256"
        }
      ],
      "name": "expectedMintAmount",
      "outputs": [
        {
          "internalType": "uint256",
          "name": "stableAmount_",
          "type": "uint256"
        }
      ],
      "stateMutability": "view",
      "type": "function"
    },
    {
      "inputs": [
        {
          "internalType": "uint256",
          "name": "debtAmount_",
          "type": "uint256"
        },
        {
          "internalType": "uint256",
          "name": "shareAmount_",
          "type": "uint256"
        }
      ],
      "name": "expectedMintAmountWithMintFee",
      "outputs": [
        {
          "internalType": "uint256",
          "name": "stableAmount_",
          "type": "uint256"
        },
        {
          "internalType": "uint256",
          "name": "mintFee_",
          "type": "uint256"
        }
      ],
      "stateMutability": "view",
      "type": "function"
    },
    {
      "inputs": [
        {
          "internalType": "uint256",
          "name": "stableAmount_",
          "type": "uint256"
        }
      ],
      "name": "expectedRedeemAmount",
      "outputs": [
        {
          "internalType": "uint256",
          "name": "debtAmount_",
          "type": "uint256"
        },
        {
          "internalType": "uint256",
          "name": "shareAmount_",
          "type": "uint256"
        }
      ],
      "stateMutability": "view",
      "type": "function"
    },
    {
      "inputs": [
        {
          "internalType": "uint256",
          "name": "stableAmount_",
          "type": "uint256"
        }
      ],
      "name": "expectedRedeemAmountWithBurnFee",
      "outputs": [
        {
          "internalType": "uint256",
          "name": "debtAmount_",
          "type": "uint256"
        },
        {
          "internalType": "uint256",
          "name": "shareAmount_",
          "type": "uint256"
        },
        {
          "internalType": "uint256",
          "name": "burnFee_",
          "type": "uint256"
        }
      ],
      "stateMutability": "view",
      "type": "function"
    },
    {
      "inputs": [
        {
          "internalType": "address",
          "name": "spender",
          "type": "address"
        },
        {
          "internalType": "uint256",
          "name": "addedValue",
          "type": "uint256"
        }
      ],
      "name": "increaseAllowance",
      "outputs": [
        {
          "internalType": "bool",
          "name": "",
          "type": "bool"
        }
      ],
      "stateMutability": "nonpayable",
      "type": "function"
    },
    {
      "inputs": [
        {
          "internalType": "address",
          "name": "foxFarm_",
          "type": "address"
        }
      ],
      "name": "initialize",
      "outputs": [],
      "stateMutability": "nonpayable",
      "type": "function"
    },
    {
      "inputs": [
        {
          "internalType": "uint256",
          "name": "TIME_PERIOD",
          "type": "uint256"
        }
      ],
      "name": "isPassInterval",
      "outputs": [
        {
          "internalType": "bool",
          "name": "",
          "type": "bool"
        }
      ],
      "stateMutability": "view",
      "type": "function"
    },
    {
      "inputs": [
        {
          "internalType": "address",
          "name": "toAccount_",
          "type": "address"
        },
        {
          "internalType": "uint256",
          "name": "debtAmount_",
          "type": "uint256"
        },
        {
          "internalType": "uint256",
          "name": "shareAmount_",
          "type": "uint256"
        }
      ],
      "name": "mint",
      "outputs": [
        {
          "internalType": "uint256",
          "name": "stableAmount_",
          "type": "uint256"
        }
      ],
      "stateMutability": "nonpayable",
      "type": "function"
    },
    {
      "inputs": [],
      "name": "mintFeeRatio",
      "outputs": [
        {
          "internalType": "uint256",
          "name": "",
          "type": "uint256"
        }
      ],
      "stateMutability": "view",
      "type": "function"
    },
    {
      "inputs": [],
      "name": "name",
      "outputs": [
        {
          "internalType": "string",
          "name": "",
          "type": "string"
        }
      ],
      "stateMutability": "view",
      "type": "function"
    },
    {
      "inputs": [],
      "name": "owner",
      "outputs": [
        {
          "internalType": "address",
          "name": "",
          "type": "address"
        }
      ],
      "stateMutability": "view",
      "type": "function"
    },
    {
      "inputs": [],
      "name": "pause",
      "outputs": [],
      "stateMutability": "nonpayable",
      "type": "function"
    },
    {
      "inputs": [],
      "name": "paused",
      "outputs": [
        {
          "internalType": "bool",
          "name": "",
          "type": "bool"
        }
      ],
      "stateMutability": "view",
      "type": "function"
    },
    {
      "inputs": [
        {
          "internalType": "address",
          "name": "toAccount_",
          "type": "address"
        },
        {
          "internalType": "uint256",
          "name": "debtAmount_",
          "type": "uint256"
        }
      ],
      "name": "recollateralize",
      "outputs": [
        {
          "internalType": "uint256",
          "name": "shareAmount_",
          "type": "uint256"
        },
        {
          "internalType": "uint256",
          "name": "bonusAmount_",
          "type": "uint256"
        }
      ],
      "stateMutability": "nonpayable",
      "type": "function"
    },
    {
      "inputs": [
        {
          "internalType": "address",
          "name": "toAccount_",
          "type": "address"
        },
        {
          "internalType": "uint256",
          "name": "stableAmount_",
          "type": "uint256"
        }
      ],
      "name": "redeem",
      "outputs": [
        {
          "internalType": "uint256",
          "name": "debtAmount_",
          "type": "uint256"
        },
        {
          "internalType": "uint256",
          "name": "shareAmount_",
          "type": "uint256"
        }
      ],
      "stateMutability": "nonpayable",
      "type": "function"
    },
    {
      "inputs": [],
      "name": "renounceOwnership",
      "outputs": [],
      "stateMutability": "nonpayable",
      "type": "function"
    },
    {
      "inputs": [
        {
          "internalType": "uint256",
          "name": "shareAmount_",
          "type": "uint256"
        }
      ],
      "name": "requiredDebtAmountFromShare",
      "outputs": [
        {
          "internalType": "uint256",
          "name": "debtAmount_",
          "type": "uint256"
        }
      ],
      "stateMutability": "view",
      "type": "function"
    },
    {
      "inputs": [
        {
          "internalType": "uint256",
          "name": "stableAmount_",
          "type": "uint256"
        }
      ],
      "name": "requiredDebtAmountFromStable",
      "outputs": [
        {
          "internalType": "uint256",
          "name": "debtAmount_",
          "type": "uint256"
        }
      ],
      "stateMutability": "view",
      "type": "function"
    },
    {
      "inputs": [
        {
          "internalType": "uint256",
          "name": "stableAmount_",
          "type": "uint256"
        }
      ],
      "name": "requiredDebtAmountFromStableWithBurnFee",
      "outputs": [
        {
          "internalType": "uint256",
          "name": "debtAmount_",
          "type": "uint256"
        }
      ],
      "stateMutability": "view",
      "type": "function"
    },
    {
      "inputs": [
        {
          "internalType": "uint256",
          "name": "stableAmount_",
          "type": "uint256"
        }
      ],
      "name": "requiredDebtAmountFromStableWithMintFee",
      "outputs": [
        {
          "internalType": "uint256",
          "name": "debtAmount_",
          "type": "uint256"
        }
      ],
      "stateMutability": "view",
      "type": "function"
    },
    {
      "inputs": [
        {
          "internalType": "uint256",
          "name": "debtAmount_",
          "type": "uint256"
        }
      ],
      "name": "requiredShareAmountFromDebt",
      "outputs": [
        {
          "internalType": "uint256",
          "name": "shareAmount_",
          "type": "uint256"
        }
      ],
      "stateMutability": "view",
      "type": "function"
    },
    {
      "inputs": [
        {
          "internalType": "uint256",
          "name": "stableAmount_",
          "type": "uint256"
        }
      ],
      "name": "requiredShareAmountFromStable",
      "outputs": [
        {
          "internalType": "uint256",
          "name": "shareAmount_",
          "type": "uint256"
        }
      ],
      "stateMutability": "view",
      "type": "function"
    },
    {
      "inputs": [
        {
          "internalType": "uint256",
          "name": "stableAmount_",
          "type": "uint256"
        }
      ],
      "name": "requiredShareAmountFromStableWithBurnFee",
      "outputs": [
        {
          "internalType": "uint256",
          "name": "shareAmount_",
          "type": "uint256"
        }
      ],
      "stateMutability": "view",
      "type": "function"
    },
    {
      "inputs": [
        {
          "internalType": "uint256",
          "name": "stableAmount_",
          "type": "uint256"
        }
      ],
      "name": "requiredShareAmountFromStableWithMintFee",
      "outputs": [
        {
          "internalType": "uint256",
          "name": "shareAmount_",
          "type": "uint256"
        }
      ],
      "stateMutability": "view",
      "type": "function"
    },
    {
      "inputs": [
        {
          "internalType": "uint256",
          "name": "debtAmount_",
          "type": "uint256"
        }
      ],
      "name": "requiredStableAmountFromDebt",
      "outputs": [
        {
          "internalType": "uint256",
          "name": "stableAmount_",
          "type": "uint256"
        }
      ],
      "stateMutability": "view",
      "type": "function"
    },
    {
      "inputs": [
        {
          "internalType": "uint256",
          "name": "debtAmount_",
          "type": "uint256"
        }
      ],
      "name": "requiredStableAmountFromDebtWithBurnFee",
      "outputs": [
        {
          "internalType": "uint256",
          "name": "stableAmount_",
          "type": "uint256"
        }
      ],
      "stateMutability": "view",
      "type": "function"
    },
    {
      "inputs": [
        {
          "internalType": "uint256",
          "name": "newBonusRatio",
          "type": "uint256"
        }
      ],
      "name": "setBonusRatio",
      "outputs": [],
      "stateMutability": "nonpayable",
      "type": "function"
    },
    {
      "inputs": [
        {
          "internalType": "uint256",
          "name": "newBunrFeeRatio",
          "type": "uint256"
        }
      ],
      "name": "setBurnFeeRatio",
      "outputs": [],
      "stateMutability": "nonpayable",
      "type": "function"
    },
    {
      "inputs": [
        {
          "internalType": "address",
          "name": "newFeeTo",
          "type": "address"
        }
      ],
      "name": "setFeeTo",
      "outputs": [],
      "stateMutability": "nonpayable",
      "type": "function"
    },
    {
      "inputs": [
        {
          "internalType": "uint256",
          "name": "newMintFeeRatio",
          "type": "uint256"
        }
      ],
      "name": "setMintFeeRatio",
      "outputs": [],
      "stateMutability": "nonpayable",
      "type": "function"
    },
    {
      "inputs": [],
      "name": "sharePrice",
      "outputs": [
        {
          "internalType": "uint256",
          "name": "",
          "type": "uint256"
        }
      ],
      "stateMutability": "view",
      "type": "function"
    },
    {
      "inputs": [],
      "name": "shortfallRecollateralizeAmount",
      "outputs": [
        {
          "internalType": "uint256",
          "name": "debtAmount_",
          "type": "uint256"
        }
      ],
      "stateMutability": "view",
      "type": "function"
    },
    {
      "inputs": [
        {
          "internalType": "address",
          "name": "toAccount_",
          "type": "address"
        }
      ],
      "name": "skim",
      "outputs": [
        {
          "internalType": "uint256",
          "name": "shareAmount_",
          "type": "uint256"
        }
      ],
      "stateMutability": "nonpayable",
      "type": "function"
    },
    {
      "inputs": [],
      "name": "stablePrice",
      "outputs": [
        {
          "internalType": "uint256",
          "name": "",
          "type": "uint256"
        }
      ],
      "stateMutability": "view",
      "type": "function"
    },
    {
      "inputs": [],
      "name": "step",
      "outputs": [
        {
          "internalType": "uint256",
          "name": "",
          "type": "uint256"
        }
      ],
      "stateMutability": "view",
      "type": "function"
    },
    {
      "inputs": [],
      "name": "surplusBuybackAmount",
      "outputs": [
        {
          "internalType": "uint256",
          "name": "debtAmount_",
          "type": "uint256"
        }
      ],
      "stateMutability": "view",
      "type": "function"
    },
    {
      "inputs": [],
      "name": "symbol",
      "outputs": [
        {
          "internalType": "string",
          "name": "",
          "type": "string"
        }
      ],
      "stateMutability": "view",
      "type": "function"
    },
    {
      "inputs": [],
      "name": "totalSupply",
      "outputs": [
        {
          "internalType": "uint256",
          "name": "",
          "type": "uint256"
        }
      ],
      "stateMutability": "view",
      "type": "function"
    },
    {
      "inputs": [
        {
          "internalType": "address",
          "name": "to",
          "type": "address"
        },
        {
          "internalType": "uint256",
          "name": "amount",
          "type": "uint256"
        }
      ],
      "name": "transfer",
      "outputs": [
        {
          "internalType": "bool",
          "name": "",
          "type": "bool"
        }
      ],
      "stateMutability": "nonpayable",
      "type": "function"
    },
    {
      "inputs": [
        {
          "internalType": "address",
          "name": "from",
          "type": "address"
        },
        {
          "internalType": "address",
          "name": "to",
          "type": "address"
        },
        {
          "internalType": "uint256",
          "name": "amount",
          "type": "uint256"
        }
      ],
      "name": "transferFrom",
      "outputs": [
        {
          "internalType": "bool",
          "name": "",
          "type": "bool"
        }
      ],
      "stateMutability": "nonpayable",
      "type": "function"
    },
    {
      "inputs": [
        {
          "internalType": "address",
          "name": "newOwner",
          "type": "address"
        }
      ],
      "name": "transferOwnership",
      "outputs": [],
      "stateMutability": "nonpayable",
      "type": "function"
    },
    {
      "inputs": [],
      "name": "trustLevel",
      "outputs": [
        {
          "internalType": "uint256",
          "name": "",
          "type": "uint256"
        }
      ],
      "stateMutability": "view",
      "type": "function"
    },
    {
      "inputs": [],
      "name": "unpause",
      "outputs": [],
      "stateMutability": "nonpayable",
      "type": "function"
    },
    {
      "inputs": [
        {
          "internalType": "address",
          "name": "newOracleFeeder",
          "type": "address"
        }
      ],
      "name": "updateOracleFeeder",
      "outputs": [],
      "stateMutability": "nonpayable",
      "type": "function"
    },
    {
      "inputs": [
        {
          "internalType": "uint256",
          "name": "newSharePrice",
          "type": "uint256"
        },
        {
          "internalType": "uint256",
          "name": "confidence",
          "type": "uint256"
        }
      ],
      "name": "updateSharePrice",
      "outputs": [],
      "stateMutability": "nonpayable",
      "type": "function"
    },
    {
      "inputs": [
        {
          "internalType": "uint256",
          "name": "newStablePrice",
          "type": "uint256"
        },
        {
          "internalType": "uint256",
          "name": "confidence",
          "type": "uint256"
        }
      ],
      "name": "updateStablePrice",
      "outputs": [],
      "stateMutability": "nonpayable",
      "type": "function"
    },
    {
      "inputs": [
        {
          "internalType": "uint256",
          "name": "newStablePrice",
          "type": "uint256"
        },
        {
          "internalType": "uint256",
          "name": "confidence",
          "type": "uint256"
        }
      ],
      "name": "updateStablePriceWithTrustLevel",
      "outputs": [],
      "stateMutability": "nonpayable",
      "type": "function"
    },
    {
      "inputs": [
        {
          "internalType": "enum IFOX.Step",
          "name": "step_",
          "type": "uint8"
        }
      ],
      "name": "updateStep",
      "outputs": [],
      "stateMutability": "nonpayable",
      "type": "function"
    },
    {
      "inputs": [],
      "name": "updateTrustLevel",
      "outputs": [],
      "stateMutability": "nonpayable",
      "type": "function"
    }
  ],
  "bytecode": "0x60c0604052612710600955610fa0600a556107d0600c553480156200002357600080fd5b5060405162002d5738038062002d57833981016040819052620000469162000379565b8660405180606001604052806029815260200162002d0e602991396040518060400160405280600381526020016208c9eb60eb1b815250816003908051906020019062000095929190620002b6565b508051620000ab906004906020840190620002b6565b50506005805460ff1916905550620000c3336200025c565b600680546001600160a01b0319166001600160a01b039283161790554260075587908116620001425760405162461bcd60e51b8152602060048201526031602482015260008051602062002d378339815191526044820152701036bab9ba103132903737b73d32b9379760791b60648201526084015b60405180910390fd5b856001600160a01b038116620001a45760405162461bcd60e51b8152602060048201526031602482015260008051602062002d378339815191526044820152701036bab9ba103132903737b73d32b9379760791b606482015260840162000139565b856001600160a01b038116620002065760405162461bcd60e51b8152602060048201526031602482015260008051602062002d378339815191526044820152701036bab9ba103132903737b73d32b9379760791b606482015260840162000139565b600d80546001600160a01b0319166001600160a01b038b811691909117909155888116608052871660a0526200023f60196004620003f3565b600b55505050600e92909255600f55601055506200045e92505050565b600580546001600160a01b03838116610100818102610100600160a81b031985161790945560405193909204169182907f8be0079c531659141344cd1fd0a4f28419497f9722a3daafe3b4186f6b6457e090600090a35050565b828054620002c49062000421565b90600052602060002090601f016020900481019282620002e8576000855562000333565b82601f106200030357805160ff191683800117855562000333565b8280016001018555821562000333579182015b828111156200033357825182559160200191906001019062000316565b506200034192915062000345565b5090565b5b8082111562000341576000815560010162000346565b80516001600160a01b03811681146200037457600080fd5b919050565b600080600080600080600060e0888a0312156200039557600080fd5b620003a0886200035c565b9650620003b0602089016200035c565b9550620003c0604089016200035c565b9450620003d0606089016200035c565b93506080880151925060a0880151915060c0880151905092959891949750929550565b60008160001904831182151516156200041c57634e487b7160e01b600052601160045260246000fd5b500290565b600181811c908216806200043657607f821691505b602082108114156200045857634e487b7160e01b600052602260045260246000fd5b50919050565b60805160a051612844620004ca60003960008181610a7c01528181610b9e01528181610cf001528181610e95015261111a015260008181610a3f01528181610cbc01528181610e330152818161103d015281816111b8015281816115ed015261171201526128446000f3fe608060405234801561001057600080fd5b50600436106103c55760003560e01c8063715018a6116101ff578063c4d66de81161011a578063de1cf169116100ad578063e3cc56f01161007c578063e3cc56f0146107ec578063f280db8a146107ff578063f2fde38b14610807578063f46901ed1461081a57600080fd5b8063de1cf169146107b5578063e1a22dfe146107c8578063e2036fd0146107db578063e25fe175146107e357600080fd5b8063db344ba3116100e9578063db344ba314610759578063db61e31714610787578063db6583e31461078f578063dd62ed3e146107a257600080fd5b8063c4d66de814610718578063cb5f12441461072b578063d538399014610733578063d5aa33d21461074657600080fd5b80638da5cb5b11610192578063a7dbb61311610161578063a7dbb613146106e1578063a9059cbb146106e9578063bc25cf77146106fc578063bf0b893a1461070f57600080fd5b80638da5cb5b1461069457806395b31b11146106bd57806395d89b41146106c6578063a457c2d7146106ce57600080fd5b80638456cb59116101ce5780638456cb591461066957806387269729146106715780638828ad35146106795780638a8792191461068157600080fd5b8063715018a61461062857806375c2f595146106305780637aa88608146106435780637caa481b1461065657600080fd5b80632694d5e7116102ef5780634b974f4b116102825780635c975abb116102515780635c975abb146105d95780635f92c30d146105e4578063655f767c146105ec57806370a08231146105ff57600080fd5b80634b974f4b1461058d5780634bca39d1146105a05780634ef8ddb4146105b3578063571ac8b0146105c657600080fd5b806339509351116102be578063395093511461054c5780633f4ba83a1461055f57806341c3dd0714610567578063423e79791461057a57600080fd5b80632694d5e71461050e5780632761d6ef14610521578063313ce5671461052a578063338122511461053957600080fd5b806317126449116103675780631dc76313116103365780631dc76313146104c25780631e9a6950146104d557806323b872dd146104e8578063262daf8e146104fb57600080fd5b8063171264491461048b57806318160ddd14610494578063199d52571461049c5780631b1da1af146104af57600080fd5b806306fdde03116103a357806306fdde031461041f578063095ea7b3146104345780630f77858c14610457578063156e29f61461046a57600080fd5b806302d525ac146103ca57806304df8862146103df57806305e0e6a6146103f2575b600080fd5b6103dd6103d836600461248b565b61082d565b005b6103dd6103ed3660046124ad565b6108b2565b61040561040036600461248b565b610900565b604080519283526020830191909152015b60405180910390f35b61042761093f565b60405161041691906124f2565b61044761044236600461253c565b6109d1565b6040519015158152602001610416565b6103dd6104653660046124ad565b6109e9565b61047d610478366004612566565b610a2f565b604051908152602001610416565b61047d600e5481565b60025461047d565b61047d6104aa3660046124ad565b610b01565b6103dd6104bd36600461248b565b610b53565b61047d6104d03660046124ad565b610bf3565b6104056104e336600461253c565b610c4b565b6104476104f6366004612599565b610d1e565b6103dd6105093660046125d5565b610d42565b61047d61051c3660046124ad565b610d56565b61047d60105481565b60405160128152602001610416565b61047d6105473660046124ad565b610d69565b61044761055a36600461253c565b610d87565b6103dd610da9565b61047d6105753660046124ad565b610dbb565b61040561058836600461253c565b610e05565b61044761059b3660046124ad565b610f2b565b6103dd6105ae3660046124ad565b610f43565b6103dd6105c136600461248b565b610f89565b6103dd6105d43660046125d5565b61100c565b60055460ff16610447565b61047d611019565b61047d6105fa36600461253c565b6110e5565b61047d61060d3660046125d5565b6001600160a01b031660009081526020819052604090205490565b6103dd6111e6565b61047d61063e3660046124ad565b6111f8565b61047d6106513660046124ad565b611228565b6103dd6106643660046125f0565b611253565b6103dd611348565b600a5461047d565b6103dd611358565b61047d61068f36600461248b565b611368565b60055461010090046001600160a01b03166040516001600160a01b039091168152602001610416565b61047d600f5481565b6104276113c5565b6104476106dc36600461253c565b6113d4565b61047d61144f565b6104476106f736600461253c565b611461565b61047d61070a3660046125d5565b61146f565b61047d600c5481565b6103dd6107263660046125d5565b61147e565b61047d6114d0565b61047d6107413660046124ad565b6114e7565b61047d6107543660046124ad565b611517565b61076c6107673660046124ad565b611529565b60408051938452602084019290925290820152606001610416565b60095461047d565b61047d61079d3660046124ad565b611564565b61047d6107b0366004612611565b611577565b61047d6107c33660046124ad565b6115a2565b6104056107d63660046124ad565b6115b7565b61047d6115d5565b61047d600b5481565b61047d6107fa3660046124ad565b6116a3565b61047d6116d1565b6103dd6108153660046125d5565b611794565b6103dd6108283660046125d5565b61180a565b6006546001600160a01b0316336001600160a01b0316146108695760405162461bcd60e51b815260040161086090612644565b60405180910390fd5b6009805490839055604080518281526020810185905230917f7c3bda8adcb9df1edd0059da351d966538bcc99f067c0770872170ac97fb688791015b60405180910390a2505050565b6108ba61186c565b600e80549082905560408051828152602081018490527f1d35e6551a082a9799480e6fa71f01ca141bdce96131962af7d8505fbfef407891015b60405180910390a15050565b60008061090d8484611368565b9150612710600e548361092091906126b7565b61092a91906126d6565b905061093681836126f8565b91509250929050565b60606003805461094e9061270f565b80601f016020809104026020016040519081016040528092919081815260200182805461097a9061270f565b80156109c75780601f1061099c576101008083540402835291602001916109c7565b820191906000526020600020905b8154815290600101906020018083116109aa57829003601f168201915b5050505050905090565b6000336109df8185856118cc565b5060019392505050565b6109f161186c565b601080549082905560408051828152602081018490527fa9c225a7392b607bf3ccd4ffeedf2b9dfbd731451b86645d77f8e9261e5b844491016108f4565b6000610a396119f0565b33610a6f7f00000000000000000000000000000000000000000000000000000000000000006001600160a01b0316823087611a36565b610aa46001600160a01b037f000000000000000000000000000000000000000000000000000000000000000016823086611a36565b600d546001600160a01b031615610ae2576000610ac18585610900565b600d549194509150610adc906001600160a01b031682611aa7565b50610aef565b610aec8484611368565b91505b610af98583611aa7565b509392505050565b6000600f54612710610b1391906126f8565b600c54610b22906127106126f8565b610b2c91906126b7565b612710610b3981856126b7565b610b4391906126b7565b610b4d91906126d6565b92915050565b6006546001600160a01b0316336001600160a01b031614610b865760405162461bcd60e51b815260040161086090612644565b600a8054908390556009546040516001600160a01b037f000000000000000000000000000000000000000000000000000000000000000016917f7c3bda8adcb9df1edd0059da351d966538bcc99f067c0770872170ac97fb6887916108a591858252602082015260400190565b600080612710600f5484610c0791906126b7565b610c1191906126d6565b9050612710600c54612710610c2691906126f8565b610c3083866126f8565b610c3a91906126b7565b610c4491906126d6565b9392505050565b600080610c566119f0565b610c603384611b86565b600d546001600160a01b031615610ca0576000610c7c84611529565b600d549295509093509150610c9a906001600160a01b031682611aa7565b50610caf565b610ca9836115b7565b90925090505b610ce36001600160a01b037f0000000000000000000000000000000000000000000000000000000000000000168584611cd4565b610d176001600160a01b037f0000000000000000000000000000000000000000000000000000000000000000168583611cd4565b9250929050565b600033610d2c858285611d04565b610d37858585611d78565b506001949350505050565b610d4a61186c565b610d5381611f46565b50565b6000612710600a5483610b4391906126b7565b6000600c54612710610d7b91906126f8565b610b43612710846126b7565b6000336109df818585610d9a8383611577565b610da4919061274a565b6118cc565b610db161186c565b610db9611fa0565b565b600080612710600f5484610dcf91906126b7565b610dd991906126d6565b9050600a54612710610deb91906126b7565b600c54612710610dfb84876126f8565b610c3091906126b7565b600080610e106119f0565b6000610e1a6115d5565b905083811015610e2a5780610e2c565b835b9050610e637f00000000000000000000000000000000000000000000000000000000000000006001600160a01b0316333084611a36565b610e6c81611517565b925061271060105484610e7f91906126b7565b610e8991906126d6565b91506001600160a01b037f00000000000000000000000000000000000000000000000000000000000000001663449a52f886610ec5858761274a565b6040516001600160e01b031960e085901b1681526001600160a01b0390921660048301526024820152604401600060405180830381600087803b158015610f0b57600080fd5b505af1158015610f1f573d6000803e3d6000fd5b50505050509250929050565b600060075442610f3b91906126f8565b909110919050565b610f4b61186c565b600f80549082905560408051828152602081018490527fc035e3b986f9c550aedf0774a0d767ebc85da4b25e629006bb36a4e454987e8091016108f4565b6006546001600160a01b0316336001600160a01b031614610fbc5760405162461bcd60e51b815260040161086090612644565b6009805490839055604080518281526020810185905230917f7c3bda8adcb9df1edd0059da351d966538bcc99f067c0770872170ac97fb6887910160405180910390a2611007611ff2565b505050565b610d5333826000196118cc565b600061102460025490565b6040516370a0823160e01b8152306004820152612710907f00000000000000000000000000000000000000000000000000000000000000006001600160a01b0316906370a082319060240160206040518083038186803b15801561108757600080fd5b505afa15801561109b573d6000803e3d6000fd5b505050506040513d601f19601f820116820180604052508101906110bf9190612762565b6002546110cc91906126f8565b6110d691906126b7565b6110e091906126d6565b905090565b60006110ef6119f0565b60006110fc6107546116d1565b90508281101561110c578061110e565b825b90506001600160a01b037f0000000000000000000000000000000000000000000000000000000000000000166379cc6790336040516001600160e01b031960e084901b1681526001600160a01b03909116600482015260248101849052604401600060405180830381600087803b15801561118857600080fd5b505af115801561119c573d6000803e3d6000fd5b505050506111a981610d56565b91506111df6001600160a01b037f0000000000000000000000000000000000000000000000000000000000000000168584611cd4565b5092915050565b6111ee61186c565b610db96000612158565b6000612710600c5461120a91906126b7565b600a5483600c5461271061121e91906126f8565b610b3991906126b7565b6000600e5461271061123a91906126f8565b600c54611249906127106126f8565b610b4390846126b7565b61125b61186c565b600081600381111561126f5761126f61277b565b141561127d576019600b5550565b60018160038111156112915761129161277b565b14156112a9576112a3601960026126b7565b600b5550565b60028160038111156112bd576112bd61277b565b14156112cf576112a3601960036126b7565b60038160038111156112e3576112e361277b565b14156112f5576112a3601960046126b7565b60405162461bcd60e51b815260206004820152602260248201527f464f583a3a757064617465537465703a204e6f7420612076616c696420737465604482015261381760f11b6064820152608401610860565b61135061186c565b610db96121b2565b61136061186c565b610db9611ff2565b6000806000611376856114e7565b90508381111561139357611389846111f8565b9150839050611397565b8491505b612710600a54826113a891906126b7565b6113b291906126d6565b6113bc908361274a565b95945050505050565b60606004805461094e9061270f565b600033816113e28286611577565b9050838110156114425760405162461bcd60e51b815260206004820152602560248201527f45524332303a2064656372656173656420616c6c6f77616e63652062656c6f77604482015264207a65726f60d81b6064820152608401610860565b610d3782868684036118cc565b60006127106009546110e09190612791565b6000336109df818585611d78565b60006114796119f0565b919050565b61148661186c565b600880546001600160a01b0319166001600160a01b0383169081179091556040517f36b1453565f45af7b509b59d5e2eac8f1948ea9e3e193db6663b4101afb6382c90600090a250565b6000600c546114dd611019565b6110e09190612791565b6000600a54600c546127106114fc91906126f8565b61150691906126b7565b612710600c5484610b3991906126b7565b600a54600090610b43612710846126b7565b6000806000612710600f548561153f91906126b7565b61154991906126d6565b90506115586107d682866126f8565b90959094509092509050565b6000600a54600c5483610b4391906126b7565b6001600160a01b03918216600090815260016020908152604080832093909416825291909152205490565b6000612710600c5461271061124991906126f8565b6000806115c3836115a2565b91506115ce83611564565b9050915091565b6040516370a0823160e01b81523060048201526000907f00000000000000000000000000000000000000000000000000000000000000006001600160a01b0316906370a082319060240160206040518083038186803b15801561163757600080fd5b505afa15801561164b573d6000803e3d6000fd5b505050506040513d601f19601f8201168201806040525081019061166f9190612762565b612710600c5461271061168291906126f8565b60025461168f91906126b7565b61169991906126d6565b6110e091906126f8565b6000600a54600e546127106116b891906126f8565b6116c291906126b7565b600c54610b39612710856126b7565b6000612710600c546127106116e691906126f8565b6002546116f391906126b7565b6116fd91906126d6565b6040516370a0823160e01b81523060048201527f00000000000000000000000000000000000000000000000000000000000000006001600160a01b0316906370a082319060240160206040518083038186803b15801561175c57600080fd5b505afa158015611770573d6000803e3d6000fd5b505050506040513d601f19601f820116820180604052508101906116999190612762565b61179c61186c565b6001600160a01b0381166118015760405162461bcd60e51b815260206004820152602660248201527f4f776e61626c653a206e6577206f776e657220697320746865207a65726f206160448201526564647265737360d01b6064820152608401610860565b610d5381612158565b61181261186c565b600d80546001600160a01b038381166001600160a01b031983168117909355604080519190921680825260208201939093527f41d2755f00068d89c23ebc6f1e73ce119a6236a44517ca061f544a3f91c9bca491016108f4565b6005546001600160a01b03610100909104163314610db95760405162461bcd60e51b815260206004820181905260248201527f4f776e61626c653a2063616c6c6572206973206e6f7420746865206f776e65726044820152606401610860565b6001600160a01b03831661192e5760405162461bcd60e51b8152602060048201526024808201527f45524332303a20617070726f76652066726f6d20746865207a65726f206164646044820152637265737360e01b6064820152608401610860565b6001600160a01b03821661198f5760405162461bcd60e51b815260206004820152602260248201527f45524332303a20617070726f766520746f20746865207a65726f206164647265604482015261737360f01b6064820152608401610860565b6001600160a01b0383811660008181526001602090815260408083209487168084529482529182902085905590518481527f8c5be1e5ebec7d5bd14f71427d1e84f3dd0314c0f7b2291e5b200ac8c7c3b925910160405180910390a3505050565b60055460ff1615610db95760405162461bcd60e51b815260206004820152601060248201526f14185d5cd8589b194e881c185d5cd95960821b6044820152606401610860565b6040516001600160a01b0380851660248301528316604482015260648101829052611aa19085906323b872dd60e01b906084015b60408051601f198184030181529190526020810180516001600160e01b03166001600160e01b0319909316929092179091526121ef565b50505050565b6001600160a01b038216611afd5760405162461bcd60e51b815260206004820152601f60248201527f45524332303a206d696e7420746f20746865207a65726f2061646472657373006044820152606401610860565b8060026000828254611b0f919061274a565b90915550506001600160a01b03821660009081526020819052604081208054839290611b3c90849061274a565b90915550506040518181526001600160a01b038316906000907fddf252ad1be2c89b69c2b068fc378daa952ba7f163c4a11628f55a4df523b3ef9060200160405180910390a35050565b6001600160a01b038216611be65760405162461bcd60e51b815260206004820152602160248201527f45524332303a206275726e2066726f6d20746865207a65726f206164647265736044820152607360f81b6064820152608401610860565b6001600160a01b03821660009081526020819052604090205481811015611c5a5760405162461bcd60e51b815260206004820152602260248201527f45524332303a206275726e20616d6f756e7420657863656564732062616c616e604482015261636560f01b6064820152608401610860565b6001600160a01b0383166000908152602081905260408120838303905560028054849290611c899084906126f8565b90915550506040518281526000906001600160a01b038516907fddf252ad1be2c89b69c2b068fc378daa952ba7f163c4a11628f55a4df523b3ef9060200160405180910390a3505050565b6040516001600160a01b03831660248201526044810182905261100790849063a9059cbb60e01b90606401611a6a565b6000611d108484611577565b90506000198114611aa15781811015611d6b5760405162461bcd60e51b815260206004820152601d60248201527f45524332303a20696e73756666696369656e7420616c6c6f77616e63650000006044820152606401610860565b611aa184848484036118cc565b6001600160a01b038316611ddc5760405162461bcd60e51b815260206004820152602560248201527f45524332303a207472616e736665722066726f6d20746865207a65726f206164604482015264647265737360d81b6064820152608401610860565b6001600160a01b038216611e3e5760405162461bcd60e51b815260206004820152602360248201527f45524332303a207472616e7366657220746f20746865207a65726f206164647260448201526265737360e81b6064820152608401610860565b6001600160a01b03831660009081526020819052604090205481811015611eb65760405162461bcd60e51b815260206004820152602660248201527f45524332303a207472616e7366657220616d6f756e7420657863656564732062604482015265616c616e636560d01b6064820152608401610860565b6001600160a01b03808516600090815260208190526040808220858503905591851681529081208054849290611eed90849061274a565b92505081905550826001600160a01b0316846001600160a01b03167fddf252ad1be2c89b69c2b068fc378daa952ba7f163c4a11628f55a4df523b3ef84604051611f3991815260200190565b60405180910390a3611aa1565b600680546001600160a01b038381166001600160a01b031983168117909355604080519190921680825260208201939093527f6b2e9b3836edd552e454031d349dbf020544e4123c344f1ddb0a7a9a336adef991016108f4565b611fa86122c1565b6005805460ff191690557f5db9ee0a495bf2e6ff9c91a7834c1ba4fdd244a5e8aa4e537bd38aeae4b073aa335b6040516001600160a01b03909116815260200160405180910390a1565b610e10611ffe81610f2b565b61204a5760405162461bcd60e51b815260206004820152601c60248201527f496e74657276616c3a3a696e74657276616c3a204e6f74207965742e000000006044820152606401610860565b600061205461144f565b121561207957600b54600c600082825461206e91906126f8565b909155506121519050565b6008546001600160a01b031615806121325750612710600b54600c54600860009054906101000a90046001600160a01b03166001600160a01b031663f384bd056040518163ffffffff1660e01b815260040160206040518083038186803b1580156120e357600080fd5b505afa1580156120f7573d6000803e3d6000fd5b505050506040513d601f19601f8201168201806040525081019061211b9190612762565b612125919061274a565b61212f919061274a565b11155b1561215157600b54600c600082825461214b919061274a565b90915550505b5042600755565b600580546001600160a01b03838116610100818102610100600160a81b031985161790945560405193909204169182907f8be0079c531659141344cd1fd0a4f28419497f9722a3daafe3b4186f6b6457e090600090a35050565b6121ba6119f0565b6005805460ff191660011790557f62e78cea01bee320cd4e420270b5ea74000d11b0c9f74754ebdbfc544b05a258611fd53390565b6000612244826040518060400160405280602081526020017f5361666545524332303a206c6f772d6c6576656c2063616c6c206661696c6564815250856001600160a01b031661230a9092919063ffffffff16565b805190915015611007578080602001905181019061226291906127d0565b6110075760405162461bcd60e51b815260206004820152602a60248201527f5361666545524332303a204552433230206f7065726174696f6e20646964206e6044820152691bdd081cdd58d8d9595960b21b6064820152608401610860565b60055460ff16610db95760405162461bcd60e51b815260206004820152601460248201527314185d5cd8589b194e881b9bdd081c185d5cd95960621b6044820152606401610860565b60606123198484600085612321565b949350505050565b6060824710156123825760405162461bcd60e51b815260206004820152602660248201527f416464726573733a20696e73756666696369656e742062616c616e636520666f6044820152651c8818d85b1b60d21b6064820152608401610860565b6001600160a01b0385163b6123d95760405162461bcd60e51b815260206004820152601d60248201527f416464726573733a2063616c6c20746f206e6f6e2d636f6e74726163740000006044820152606401610860565b600080866001600160a01b031685876040516123f591906127f2565b60006040518083038185875af1925050503d8060008114612432576040519150601f19603f3d011682016040523d82523d6000602084013e612437565b606091505b5091509150612447828286612452565b979650505050505050565b60608315612461575081610c44565b8251156124715782518084602001fd5b8160405162461bcd60e51b815260040161086091906124f2565b6000806040838503121561249e57600080fd5b50508035926020909101359150565b6000602082840312156124bf57600080fd5b5035919050565b60005b838110156124e15781810151838201526020016124c9565b83811115611aa15750506000910152565b60208152600082518060208401526125118160408501602087016124c6565b601f01601f19169190910160400192915050565b80356001600160a01b038116811461147957600080fd5b6000806040838503121561254f57600080fd5b61255883612525565b946020939093013593505050565b60008060006060848603121561257b57600080fd5b61258484612525565b95602085013595506040909401359392505050565b6000806000606084860312156125ae57600080fd5b6125b784612525565b92506125c560208501612525565b9150604084013590509250925092565b6000602082840312156125e757600080fd5b610c4482612525565b60006020828403121561260257600080fd5b813560048110610c4457600080fd5b6000806040838503121561262457600080fd5b61262d83612525565b915061263b60208401612525565b90509250929050565b6020808252603f908201527f4f7261636c653a3a6f6e6c794f7261636c654665656465723a2053656e64657260408201527f206d7573742062652073616d65206173205f6f7261636c654665656465722e00606082015260800190565b634e487b7160e01b600052601160045260246000fd5b60008160001904831182151516156126d1576126d16126a1565b500290565b6000826126f357634e487b7160e01b600052601260045260246000fd5b500490565b60008282101561270a5761270a6126a1565b500390565b600181811c9082168061272357607f821691505b6020821081141561274457634e487b7160e01b600052602260045260246000fd5b50919050565b6000821982111561275d5761275d6126a1565b500190565b60006020828403121561277457600080fd5b5051919050565b634e487b7160e01b600052602160045260246000fd5b60008083128015600160ff1b8501841216156127af576127af6126a1565b6001600160ff1b03840183138116156127ca576127ca6126a1565b50500390565b6000602082840312156127e257600080fd5b81518015158114610c4457600080fd5b600082516128048184602087016124c6565b919091019291505056fea2646970667358221220eaf5a3d45c9ccc5ff58b504f93b7cb649b94c18050b975e8428a218b481c552264736f6c634300080900334672616374696f6e616c204f76657220436f6c6c61746572616c697a656420537461626c65636f696e4e6f6e7a65726f3a3a6e6f6e7a65726f416464726573733a204163636f756e74",
  "linkReferences": {},
  "deployedLinkReferences": {}
}