{
  "_format": "hh-sol-artifact-1",
  "contractName": "FOX",
  "sourceName": "contracts/tokens/FOX.sol",
  "abi": [
    {
      "inputs": [
        {
          "internalType": "address",
          "name": "oracleFeeder_",
          "type": "address"
        },
        {
          "internalType": "address",
          "name": "feeTo_",
          "type": "address"
        },
        {
          "internalType": "address",
          "name": "debtToken_",
          "type": "address"
        },
        {
          "internalType": "address",
          "name": "shareToken_",
          "type": "address"
        },
        {
          "internalType": "uint256",
          "name": "mintFeeRatio_",
          "type": "uint256"
        },
        {
          "internalType": "uint256",
          "name": "burnFeeRatio_",
          "type": "uint256"
        },
        {
          "internalType": "uint256",
          "name": "bonusRatio_",
          "type": "uint256"
        }
      ],
      "stateMutability": "nonpayable",
      "type": "constructor"
    },
    {
      "anonymous": false,
      "inputs": [
        {
          "indexed": true,
          "internalType": "address",
          "name": "owner",
          "type": "address"
        },
        {
          "indexed": true,
          "internalType": "address",
          "name": "spender",
          "type": "address"
        },
        {
          "indexed": false,
          "internalType": "uint256",
          "name": "value",
          "type": "uint256"
        }
      ],
      "name": "Approval",
      "type": "event"
    },
    {
      "anonymous": false,
      "inputs": [
        {
          "indexed": true,
          "internalType": "address",
          "name": "foxFarm",
          "type": "address"
        }
      ],
      "name": "Initialize",
      "type": "event"
    },
    {
      "anonymous": false,
      "inputs": [
        {
          "indexed": true,
          "internalType": "address",
          "name": "previousOwner",
          "type": "address"
        },
        {
          "indexed": true,
          "internalType": "address",
          "name": "newOwner",
          "type": "address"
        }
      ],
      "name": "OwnershipTransferred",
      "type": "event"
    },
    {
      "anonymous": false,
      "inputs": [
        {
          "indexed": false,
          "internalType": "address",
          "name": "account",
          "type": "address"
        }
      ],
      "name": "Paused",
      "type": "event"
    },
    {
      "anonymous": false,
      "inputs": [
        {
          "indexed": false,
          "internalType": "uint256",
          "name": "prevBonusRatio",
          "type": "uint256"
        },
        {
          "indexed": false,
          "internalType": "uint256",
          "name": "currBonusRatio",
          "type": "uint256"
        }
      ],
      "name": "SetBonusRatio",
      "type": "event"
    },
    {
      "anonymous": false,
      "inputs": [
        {
          "indexed": false,
          "internalType": "uint256",
          "name": "prevBurnFeeRatio",
          "type": "uint256"
        },
        {
          "indexed": false,
          "internalType": "uint256",
          "name": "currBurnFeeRatio",
          "type": "uint256"
        }
      ],
      "name": "SetBurnFeeRatio",
      "type": "event"
    },
    {
      "anonymous": false,
      "inputs": [
        {
          "indexed": false,
          "internalType": "address",
          "name": "prevFeeTo",
          "type": "address"
        },
        {
          "indexed": false,
          "internalType": "address",
          "name": "currFeeTo",
          "type": "address"
        }
      ],
      "name": "SetFeeTo",
      "type": "event"
    },
    {
      "anonymous": false,
      "inputs": [
        {
          "indexed": false,
          "internalType": "uint256",
          "name": "prevMintFeeRatio",
          "type": "uint256"
        },
        {
          "indexed": false,
          "internalType": "uint256",
          "name": "currMintFeeRatio",
          "type": "uint256"
        }
      ],
      "name": "SetMintFeeRatio",
      "type": "event"
    },
    {
      "anonymous": false,
      "inputs": [
        {
          "indexed": true,
          "internalType": "address",
          "name": "from",
          "type": "address"
        },
        {
          "indexed": true,
          "internalType": "address",
          "name": "to",
          "type": "address"
        },
        {
          "indexed": false,
          "internalType": "uint256",
          "name": "value",
          "type": "uint256"
        }
      ],
      "name": "Transfer",
      "type": "event"
    },
    {
      "anonymous": false,
      "inputs": [
        {
          "indexed": false,
          "internalType": "address",
          "name": "account",
          "type": "address"
        }
      ],
      "name": "Unpaused",
      "type": "event"
    },
    {
      "anonymous": false,
      "inputs": [
        {
          "indexed": false,
          "internalType": "address",
          "name": "prevOracleFeeder",
          "type": "address"
        },
        {
          "indexed": false,
          "internalType": "address",
          "name": "currOracle",
          "type": "address"
        }
      ],
      "name": "UpdateOracleFeeder",
      "type": "event"
    },
    {
      "anonymous": false,
      "inputs": [
        {
          "indexed": true,
          "internalType": "address",
          "name": "token",
          "type": "address"
        },
        {
          "indexed": false,
          "internalType": "uint256",
          "name": "prevPrice",
          "type": "uint256"
        },
        {
          "indexed": false,
          "internalType": "uint256",
          "name": "currPrice",
          "type": "uint256"
        }
      ],
      "name": "UpdatePrice",
      "type": "event"
    },
    {
      "inputs": [
        {
          "internalType": "address",
          "name": "owner",
          "type": "address"
        },
        {
          "internalType": "address",
          "name": "spender",
          "type": "address"
        }
      ],
      "name": "allowance",
      "outputs": [
        {
          "internalType": "uint256",
          "name": "",
          "type": "uint256"
        }
      ],
      "stateMutability": "view",
      "type": "function"
    },
    {
      "inputs": [
        {
          "internalType": "address",
          "name": "spender",
          "type": "address"
        },
        {
          "internalType": "uint256",
          "name": "amount",
          "type": "uint256"
        }
      ],
      "name": "approve",
      "outputs": [
        {
          "internalType": "bool",
          "name": "",
          "type": "bool"
        }
      ],
      "stateMutability": "nonpayable",
      "type": "function"
    },
    {
      "inputs": [
        {
          "internalType": "address",
          "name": "spender",
          "type": "address"
        }
      ],
      "name": "approveMax",
      "outputs": [],
      "stateMutability": "nonpayable",
      "type": "function"
    },
    {
      "inputs": [
        {
          "internalType": "address",
          "name": "account",
          "type": "address"
        }
      ],
      "name": "balanceOf",
      "outputs": [
        {
          "internalType": "uint256",
          "name": "",
          "type": "uint256"
        }
      ],
      "stateMutability": "view",
      "type": "function"
    },
    {
      "inputs": [
        {
          "internalType": "address",
          "name": "toAccount_",
          "type": "address"
        },
        {
          "internalType": "uint256",
          "name": "shareAmount_",
          "type": "uint256"
        }
      ],
      "name": "buyback",
      "outputs": [
        {
          "internalType": "uint256",
          "name": "debtAmount_",
          "type": "uint256"
        }
      ],
      "stateMutability": "nonpayable",
      "type": "function"
    },
    {
      "inputs": [],
      "name": "currentTrustLevel",
      "outputs": [
        {
          "internalType": "uint256",
          "name": "",
          "type": "uint256"
        }
      ],
      "stateMutability": "view",
      "type": "function"
    },
    {
      "inputs": [],
      "name": "decimals",
      "outputs": [
        {
          "internalType": "uint8",
          "name": "",
          "type": "uint8"
        }
      ],
      "stateMutability": "view",
      "type": "function"
    },
    {
      "inputs": [
        {
          "internalType": "address",
          "name": "spender",
          "type": "address"
        },
        {
          "internalType": "uint256",
          "name": "subtractedValue",
          "type": "uint256"
        }
      ],
      "name": "decreaseAllowance",
      "outputs": [
        {
          "internalType": "bool",
          "name": "",
          "type": "bool"
        }
      ],
      "stateMutability": "nonpayable",
      "type": "function"
    },
    {
      "inputs": [],
      "name": "deltaTrust",
      "outputs": [
        {
          "internalType": "int256",
          "name": "",
          "type": "int256"
        }
      ],
      "stateMutability": "view",
      "type": "function"
    },
    {
      "inputs": [],
      "name": "deltaTrustLevel",
      "outputs": [
        {
          "internalType": "int256",
          "name": "",
          "type": "int256"
        }
      ],
      "stateMutability": "view",
      "type": "function"
    },
    {
      "inputs": [
        {
          "internalType": "uint256",
          "name": "shareAmount_",
          "type": "uint256"
        }
      ],
      "name": "exchangedDebtAmountFromShare",
      "outputs": [
        {
          "internalType": "uint256",
          "name": "debtAmount_",
          "type": "uint256"
        }
      ],
      "stateMutability": "view",
      "type": "function"
    },
    {
      "inputs": [
        {
          "internalType": "uint256",
          "name": "debtAmount_",
          "type": "uint256"
        }
      ],
      "name": "exchangedShareAmountFromDebt",
      "outputs": [
        {
          "internalType": "uint256",
          "name": "shareAmount_",
          "type": "uint256"
        }
      ],
      "stateMutability": "view",
      "type": "function"
    },
    {
      "inputs": [
        {
          "internalType": "uint256",
          "name": "debtAmount_",
          "type": "uint256"
        },
        {
          "internalType": "uint256",
          "name": "shareAmount_",
          "type": "uint256"
        }
      ],
      "name": "expectedMintAmount",
      "outputs": [
        {
          "internalType": "uint256",
          "name": "stableAmount_",
          "type": "uint256"
        }
      ],
      "stateMutability": "view",
      "type": "function"
    },
    {
      "inputs": [
        {
          "internalType": "uint256",
          "name": "debtAmount_",
          "type": "uint256"
        },
        {
          "internalType": "uint256",
          "name": "shareAmount_",
          "type": "uint256"
        }
      ],
      "name": "expectedMintAmountWithFee",
      "outputs": [
        {
          "internalType": "uint256",
          "name": "stableAmount_",
          "type": "uint256"
        },
        {
          "internalType": "uint256",
          "name": "mintFee_",
          "type": "uint256"
        }
      ],
      "stateMutability": "view",
      "type": "function"
    },
    {
      "inputs": [
        {
          "internalType": "uint256",
          "name": "stableAmount_",
          "type": "uint256"
        }
      ],
      "name": "expectedRedeemAmount",
      "outputs": [
        {
          "internalType": "uint256",
          "name": "debtAmount_",
          "type": "uint256"
        },
        {
          "internalType": "uint256",
          "name": "shareAmount_",
          "type": "uint256"
        }
      ],
      "stateMutability": "view",
      "type": "function"
    },
    {
      "inputs": [
        {
          "internalType": "uint256",
          "name": "stableAmount_",
          "type": "uint256"
        }
      ],
      "name": "expectedRedeemAmountWithFee",
      "outputs": [
        {
          "internalType": "uint256",
          "name": "debtAmount_",
          "type": "uint256"
        },
        {
          "internalType": "uint256",
          "name": "shareAmount_",
          "type": "uint256"
        },
        {
          "internalType": "uint256",
          "name": "burnFee_",
          "type": "uint256"
        }
      ],
      "stateMutability": "view",
      "type": "function"
    },
    {
      "inputs": [],
      "name": "getSharePrice",
      "outputs": [
        {
          "internalType": "uint256",
          "name": "",
          "type": "uint256"
        }
      ],
      "stateMutability": "view",
      "type": "function"
    },
    {
      "inputs": [],
      "name": "getStablePrice",
      "outputs": [
        {
          "internalType": "uint256",
          "name": "",
          "type": "uint256"
        }
      ],
      "stateMutability": "view",
      "type": "function"
    },
    {
      "inputs": [
        {
          "internalType": "address",
          "name": "spender",
          "type": "address"
        },
        {
          "internalType": "uint256",
          "name": "addedValue",
          "type": "uint256"
        }
      ],
      "name": "increaseAllowance",
      "outputs": [
        {
          "internalType": "bool",
          "name": "",
          "type": "bool"
        }
      ],
      "stateMutability": "nonpayable",
      "type": "function"
    },
    {
      "inputs": [
        {
          "internalType": "address",
          "name": "foxFarm_",
          "type": "address"
        }
      ],
      "name": "initialize",
      "outputs": [],
      "stateMutability": "nonpayable",
      "type": "function"
    },
    {
      "inputs": [
        {
          "internalType": "uint256",
          "name": "TIME_PERIOD",
          "type": "uint256"
        }
      ],
      "name": "isPassInterval",
      "outputs": [
        {
          "internalType": "bool",
          "name": "",
          "type": "bool"
        }
      ],
      "stateMutability": "view",
      "type": "function"
    },
    {
      "inputs": [
        {
          "internalType": "address",
          "name": "toAccount_",
          "type": "address"
        },
        {
          "internalType": "uint256",
          "name": "debtAmount_",
          "type": "uint256"
        },
        {
          "internalType": "uint256",
          "name": "shareAmount_",
          "type": "uint256"
        }
      ],
      "name": "mint",
      "outputs": [
        {
          "internalType": "uint256",
          "name": "stableAmount_",
          "type": "uint256"
        }
      ],
      "stateMutability": "nonpayable",
      "type": "function"
    },
    {
      "inputs": [],
      "name": "name",
      "outputs": [
        {
          "internalType": "string",
          "name": "",
          "type": "string"
        }
      ],
      "stateMutability": "view",
      "type": "function"
    },
    {
      "inputs": [],
      "name": "owner",
      "outputs": [
        {
          "internalType": "address",
          "name": "",
          "type": "address"
        }
      ],
      "stateMutability": "view",
      "type": "function"
    },
    {
      "inputs": [],
      "name": "pause",
      "outputs": [],
      "stateMutability": "nonpayable",
      "type": "function"
    },
    {
      "inputs": [],
      "name": "paused",
      "outputs": [
        {
          "internalType": "bool",
          "name": "",
          "type": "bool"
        }
      ],
      "stateMutability": "view",
      "type": "function"
    },
    {
      "inputs": [
        {
          "internalType": "address",
          "name": "toAccount_",
          "type": "address"
        },
        {
          "internalType": "uint256",
          "name": "debtAmount_",
          "type": "uint256"
        }
      ],
      "name": "recollateralize",
      "outputs": [
        {
          "internalType": "uint256",
          "name": "shareAmount_",
          "type": "uint256"
        },
        {
          "internalType": "uint256",
          "name": "bonusAmount_",
          "type": "uint256"
        }
      ],
      "stateMutability": "nonpayable",
      "type": "function"
    },
    {
      "inputs": [
        {
          "internalType": "address",
          "name": "toAccount_",
          "type": "address"
        },
        {
          "internalType": "uint256",
          "name": "stableAmount_",
          "type": "uint256"
        }
      ],
      "name": "redeem",
      "outputs": [
        {
          "internalType": "uint256",
          "name": "debtAmount_",
          "type": "uint256"
        },
        {
          "internalType": "uint256",
          "name": "shareAmount_",
          "type": "uint256"
        }
      ],
      "stateMutability": "nonpayable",
      "type": "function"
    },
    {
      "inputs": [],
      "name": "renounceOwnership",
      "outputs": [],
      "stateMutability": "nonpayable",
      "type": "function"
    },
    {
      "inputs": [
        {
          "internalType": "uint256",
          "name": "shareAmount_",
          "type": "uint256"
        }
      ],
      "name": "requiredDebtAmountFromShare",
      "outputs": [
        {
          "internalType": "uint256",
          "name": "debtAmount_",
          "type": "uint256"
        }
      ],
      "stateMutability": "view",
      "type": "function"
    },
    {
      "inputs": [
        {
          "internalType": "uint256",
          "name": "stableAmount_",
          "type": "uint256"
        }
      ],
      "name": "requiredDebtAmountFromStable",
      "outputs": [
        {
          "internalType": "uint256",
          "name": "debtAmount_",
          "type": "uint256"
        }
      ],
      "stateMutability": "view",
      "type": "function"
    },
    {
      "inputs": [
        {
          "internalType": "uint256",
          "name": "stableAmount_",
          "type": "uint256"
        }
      ],
      "name": "requiredDebtAmountFromStableWithFee",
      "outputs": [
        {
          "internalType": "uint256",
          "name": "debtAmount_",
          "type": "uint256"
        }
      ],
      "stateMutability": "view",
      "type": "function"
    },
    {
      "inputs": [
        {
          "internalType": "uint256",
          "name": "debtAmount_",
          "type": "uint256"
        }
      ],
      "name": "requiredShareAmountFromDebt",
      "outputs": [
        {
          "internalType": "uint256",
          "name": "shareAmount_",
          "type": "uint256"
        }
      ],
      "stateMutability": "view",
      "type": "function"
    },
    {
      "inputs": [
        {
          "internalType": "uint256",
          "name": "stableAmount_",
          "type": "uint256"
        }
      ],
      "name": "requiredShareAmountFromStable",
      "outputs": [
        {
          "internalType": "uint256",
          "name": "shareAmount_",
          "type": "uint256"
        }
      ],
      "stateMutability": "view",
      "type": "function"
    },
    {
      "inputs": [
        {
          "internalType": "uint256",
          "name": "stableAmount_",
          "type": "uint256"
        }
      ],
      "name": "requiredShareAmountFromStableWithFee",
      "outputs": [
        {
          "internalType": "uint256",
          "name": "shareAmount_",
          "type": "uint256"
        }
      ],
      "stateMutability": "view",
      "type": "function"
    },
    {
      "inputs": [
        {
          "internalType": "uint256",
          "name": "debtAmount_",
          "type": "uint256"
        }
      ],
      "name": "requiredStableAmountFromDebt",
      "outputs": [
        {
          "internalType": "uint256",
          "name": "stableAmount_",
          "type": "uint256"
        }
      ],
      "stateMutability": "view",
      "type": "function"
    },
    {
      "inputs": [
        {
          "internalType": "uint256",
          "name": "debtAmount_",
          "type": "uint256"
        }
      ],
      "name": "requiredStableAmountFromDebtWithFee",
      "outputs": [
        {
          "internalType": "uint256",
          "name": "stableAmount_",
          "type": "uint256"
        }
      ],
      "stateMutability": "view",
      "type": "function"
    },
    {
      "inputs": [
        {
          "internalType": "uint256",
          "name": "newBonusRatio",
          "type": "uint256"
        }
      ],
      "name": "setBonusRatio",
      "outputs": [],
      "stateMutability": "nonpayable",
      "type": "function"
    },
    {
      "inputs": [
        {
          "internalType": "uint256",
          "name": "newBunrFeeRatio",
          "type": "uint256"
        }
      ],
      "name": "setBurnFeeRatio",
      "outputs": [],
      "stateMutability": "nonpayable",
      "type": "function"
    },
    {
      "inputs": [
        {
          "internalType": "address",
          "name": "newFeeTo",
          "type": "address"
        }
      ],
      "name": "setFeeTo",
      "outputs": [],
      "stateMutability": "nonpayable",
      "type": "function"
    },
    {
      "inputs": [
        {
          "internalType": "uint256",
          "name": "newMintFeeRatio",
          "type": "uint256"
        }
      ],
      "name": "setMintFeeRatio",
      "outputs": [],
      "stateMutability": "nonpayable",
      "type": "function"
    },
    {
      "inputs": [],
      "name": "shortfallRecollateralizeAmount",
      "outputs": [
        {
          "internalType": "uint256",
          "name": "debtAmount_",
          "type": "uint256"
        }
      ],
      "stateMutability": "view",
      "type": "function"
    },
    {
      "inputs": [
        {
          "internalType": "address",
          "name": "toAccount_",
          "type": "address"
        }
      ],
      "name": "skim",
      "outputs": [
        {
          "internalType": "uint256",
          "name": "shareAmount_",
          "type": "uint256"
        }
      ],
      "stateMutability": "nonpayable",
      "type": "function"
    },
    {
      "inputs": [],
      "name": "step",
      "outputs": [
        {
          "internalType": "uint256",
          "name": "",
          "type": "uint256"
        }
      ],
      "stateMutability": "view",
      "type": "function"
    },
    {
      "inputs": [],
      "name": "surplusBuybackAmount",
      "outputs": [
        {
          "internalType": "uint256",
          "name": "debtAmount_",
          "type": "uint256"
        }
      ],
      "stateMutability": "view",
      "type": "function"
    },
    {
      "inputs": [],
      "name": "symbol",
      "outputs": [
        {
          "internalType": "string",
          "name": "",
          "type": "string"
        }
      ],
      "stateMutability": "view",
      "type": "function"
    },
    {
      "inputs": [],
      "name": "totalSupply",
      "outputs": [
        {
          "internalType": "uint256",
          "name": "",
          "type": "uint256"
        }
      ],
      "stateMutability": "view",
      "type": "function"
    },
    {
      "inputs": [
        {
          "internalType": "address",
          "name": "to",
          "type": "address"
        },
        {
          "internalType": "uint256",
          "name": "amount",
          "type": "uint256"
        }
      ],
      "name": "transfer",
      "outputs": [
        {
          "internalType": "bool",
          "name": "",
          "type": "bool"
        }
      ],
      "stateMutability": "nonpayable",
      "type": "function"
    },
    {
      "inputs": [
        {
          "internalType": "address",
          "name": "from",
          "type": "address"
        },
        {
          "internalType": "address",
          "name": "to",
          "type": "address"
        },
        {
          "internalType": "uint256",
          "name": "amount",
          "type": "uint256"
        }
      ],
      "name": "transferFrom",
      "outputs": [
        {
          "internalType": "bool",
          "name": "",
          "type": "bool"
        }
      ],
      "stateMutability": "nonpayable",
      "type": "function"
    },
    {
      "inputs": [
        {
          "internalType": "address",
          "name": "newOwner",
          "type": "address"
        }
      ],
      "name": "transferOwnership",
      "outputs": [],
      "stateMutability": "nonpayable",
      "type": "function"
    },
    {
      "inputs": [],
      "name": "trustLevel",
      "outputs": [
        {
          "internalType": "uint256",
          "name": "",
          "type": "uint256"
        }
      ],
      "stateMutability": "view",
      "type": "function"
    },
    {
      "inputs": [],
      "name": "unpause",
      "outputs": [],
      "stateMutability": "nonpayable",
      "type": "function"
    },
    {
      "inputs": [
        {
          "internalType": "address",
          "name": "newOracleFeeder",
          "type": "address"
        }
      ],
      "name": "updateOracleFeeder",
      "outputs": [],
      "stateMutability": "nonpayable",
      "type": "function"
    },
    {
      "inputs": [
        {
          "internalType": "uint256",
          "name": "newSharePrice",
          "type": "uint256"
        },
        {
          "internalType": "uint256",
          "name": "confidence",
          "type": "uint256"
        }
      ],
      "name": "updateSharePrice",
      "outputs": [],
      "stateMutability": "nonpayable",
      "type": "function"
    },
    {
      "inputs": [
        {
          "internalType": "uint256",
          "name": "newStablePrice",
          "type": "uint256"
        },
        {
          "internalType": "uint256",
          "name": "confidence",
          "type": "uint256"
        }
      ],
      "name": "updateStablePrice",
      "outputs": [],
      "stateMutability": "nonpayable",
      "type": "function"
    },
    {
      "inputs": [
        {
          "internalType": "uint256",
          "name": "newStablePrice",
          "type": "uint256"
        },
        {
          "internalType": "uint256",
          "name": "confidence",
          "type": "uint256"
        }
      ],
      "name": "updateStablePriceWithTrustLevel",
      "outputs": [],
      "stateMutability": "nonpayable",
      "type": "function"
    },
    {
      "inputs": [
        {
          "internalType": "enum IFOX.Step",
          "name": "step_",
          "type": "uint8"
        }
      ],
      "name": "updateStep",
      "outputs": [],
      "stateMutability": "nonpayable",
      "type": "function"
    },
    {
      "inputs": [],
      "name": "updateTrustLevel",
      "outputs": [],
      "stateMutability": "nonpayable",
      "type": "function"
    }
  ],
  "bytecode": "0x60c0604052612710600955612710600a55610dac600c553480156200002357600080fd5b5060405162002bda38038062002bda833981016040819052620000469162000379565b8660405180606001604052806029815260200162002b91602991396040518060400160405280600381526020016208c9eb60eb1b815250816003908051906020019062000095929190620002b6565b508051620000ab906004906020840190620002b6565b50506005805460ff1916905550620000c3336200025c565b600680546001600160a01b0319166001600160a01b039283161790554260075587908116620001425760405162461bcd60e51b8152602060048201526031602482015260008051602062002bba8339815191526044820152701036bab9ba103132903737b73d32b9379760791b60648201526084015b60405180910390fd5b856001600160a01b038116620001a45760405162461bcd60e51b8152602060048201526031602482015260008051602062002bba8339815191526044820152701036bab9ba103132903737b73d32b9379760791b606482015260840162000139565b856001600160a01b038116620002065760405162461bcd60e51b8152602060048201526031602482015260008051602062002bba8339815191526044820152701036bab9ba103132903737b73d32b9379760791b606482015260840162000139565b600d80546001600160a01b0319166001600160a01b038b811691909117909155888116608052871660a0526200023f60196004620003f3565b600b55505050600e92909255600f55601055506200045e92505050565b600580546001600160a01b03838116610100818102610100600160a81b031985161790945560405193909204169182907f8be0079c531659141344cd1fd0a4f28419497f9722a3daafe3b4186f6b6457e090600090a35050565b828054620002c49062000421565b90600052602060002090601f016020900481019282620002e8576000855562000333565b82601f106200030357805160ff191683800117855562000333565b8280016001018555821562000333579182015b828111156200033357825182559160200191906001019062000316565b506200034192915062000345565b5090565b5b8082111562000341576000815560010162000346565b80516001600160a01b03811681146200037457600080fd5b919050565b600080600080600080600060e0888a0312156200039557600080fd5b620003a0886200035c565b9650620003b0602089016200035c565b9550620003c0604089016200035c565b9450620003d0606089016200035c565b93506080880151925060a0880151915060c0880151905092959891949750929550565b60008160001904831182151516156200041c57634e487b7160e01b600052601160045260246000fd5b500290565b600181811c908216806200043657607f821691505b602082108114156200045857634e487b7160e01b600052602260045260246000fd5b50919050565b60805160a0516126c0620004d1600039600081816109c901528181610a9901528181610c2001528181610d8001528181610dcd015261102501526000818161098c01528181610bec01528181610d1b01528181610f430152818161106d01528181611480015261158e01526126c06000f3fe608060405234801561001057600080fd5b506004361061038e5760003560e01c806375c2f595116101de578063cb5f12441161010f578063e2036fd0116100ad578063f280db8a1161007c578063f280db8a14610778578063f2fde38b14610780578063f46901ed14610793578063fa4356d3146107a657600080fd5b8063e2036fd01461074c578063e25fe17514610754578063e695d6181461075d578063ec9e03931461077057600080fd5b8063db6583e3116100e9578063db6583e314610700578063dd62ed3e14610713578063de1cf16914610726578063e1a22dfe1461073957600080fd5b8063cb5f1244146106d2578063d5383990146106da578063d5aa33d2146106ed57600080fd5b8063a457c2d71161017c578063bc25cf7711610156578063bc25cf7714610690578063bf0b893a146106a3578063c1de58a3146106ac578063c4d66de8146106bf57600080fd5b8063a457c2d714610662578063a7dbb61314610675578063a9059cbb1461067d57600080fd5b80638828ad35116101b85780638828ad35146106165780638a8792191461061e5780638da5cb5b1461063157806395d89b411461065a57600080fd5b806375c2f595146105e85780637caa481b146105fb5780638456cb591461060e57600080fd5b8063313ce567116102c35780634ef8ddb4116102615780635f92c30d116102305780635f92c30d1461059c578063655f767c146105a457806370a08231146105b7578063715018a6146105e057600080fd5b80634ef8ddb414610563578063571ac8b0146105765780635b1dac60146105895780635c975abb1461059157600080fd5b80633f4ba83a1161029d5780633f4ba83a14610522578063423e79791461052a5780634b974f4b1461053d5780634bca39d11461055057600080fd5b8063313ce567146104ed57806333812251146104fc578063395093511461050f57600080fd5b80631b1da1af116103305780631e9a69501161030a5780631e9a69501461048c57806323b872dd146104b4578063262daf8e146104c75780632694d5e7146104da57600080fd5b80631b1da1af146104385780631c75ffe01461044b5780631ddb61031461045e57600080fd5b8063095ea7b31161036c578063095ea7b3146103d95780630f77858c146103fc578063156e29f61461040f57806318160ddd1461043057600080fd5b806302d525ac1461039357806304df8862146103a857806306fdde03146103bb575b600080fd5b6103a66103a1366004612346565b6107b9565b005b6103a66103b6366004612368565b61083e565b6103c361088c565b6040516103d091906123ad565b60405180910390f35b6103ec6103e73660046123f7565b61091e565b60405190151581526020016103d0565b6103a661040a366004612368565b610936565b61042261041d366004612421565b61097c565b6040519081526020016103d0565b600254610422565b6103a6610446366004612346565b610a4e565b610422610459366004612368565b610aee565b61047161046c366004612368565b610b40565b604080519384526020840192909252908201526060016103d0565b61049f61049a3660046123f7565b610b7b565b604080519283526020830191909152016103d0565b6103ec6104c2366004612454565b610c4e565b6103a66104d5366004612490565b610c74565b6104226104e8366004612368565b610c88565b604051601281526020016103d0565b61042261050a366004612368565b610c9b565b6103ec61051d3660046123f7565b610cb9565b6103a6610cdb565b61049f6105383660046123f7565b610ced565b6103ec61054b366004612368565b610e31565b6103a661055e366004612368565b610e49565b6103a6610571366004612346565b610e8f565b6103a6610584366004612490565b610f12565b600a54610422565b60055460ff166103ec565b610422610f1f565b6104226105b23660046123f7565b610feb565b6104226105c5366004612490565b6001600160a01b031660009081526020819052604090205490565b6103a661109c565b6104226105f6366004612368565b6110ae565b6103a66106093660046124ab565b6110de565b6103a66111d3565b6103a66111e3565b61042261062c366004612346565b6111f3565b60055461010090046001600160a01b03166040516001600160a01b0390911681526020016103d0565b6103c3611250565b6103ec6106703660046123f7565b61125f565b6104226112e5565b6103ec61068b3660046123f7565b6112f7565b61042261069e366004612490565b611305565b610422600c5481565b6104226106ba366004612368565b611314565b6103a66106cd366004612490565b611342565b610422611394565b6104226106e8366004612368565b6113ab565b6104226106fb366004612368565b6113db565b61042261070e366004612368565b6113ed565b6104226107213660046124cc565b611400565b610422610734366004612368565b61142b565b61049f610747366004612368565b61144a565b610422611468565b610422600b5481565b61042261076b366004612368565b61152c565b600954610422565b61042261154d565b6103a661078e366004612490565b611610565b6103a66107a1366004612490565b611686565b61049f6107b4366004612346565b6116e8565b6006546001600160a01b0316336001600160a01b0316146107f55760405162461bcd60e51b81526004016107ec906124ff565b60405180910390fd5b6009805490839055604080518281526020810185905230917f7c3bda8adcb9df1edd0059da351d966538bcc99f067c0770872170ac97fb688791015b60405180910390a2505050565b610846611727565b600e80549082905560408051828152602081018490527f1d35e6551a082a9799480e6fa71f01ca141bdce96131962af7d8505fbfef407891015b60405180910390a15050565b60606003805461089b9061255c565b80601f01602080910402602001604051908101604052809291908181526020018280546108c79061255c565b80156109145780601f106108e957610100808354040283529160200191610914565b820191906000526020600020905b8154815290600101906020018083116108f757829003601f168201915b5050505050905090565b60003361092c818585611787565b5060019392505050565b61093e611727565b601080549082905560408051828152602081018490527fa9c225a7392b607bf3ccd4ffeedf2b9dfbd731451b86645d77f8e9261e5b84449101610880565b60006109866118ab565b336109bc7f00000000000000000000000000000000000000000000000000000000000000006001600160a01b03168230876118f1565b6109f16001600160a01b037f0000000000000000000000000000000000000000000000000000000000000000168230866118f1565b600d546001600160a01b031615610a2f576000610a0e85856116e8565b600d549194509150610a29906001600160a01b031682611962565b50610a3c565b610a3984846111f3565b91505b610a468583611962565b509392505050565b6006546001600160a01b0316336001600160a01b031614610a815760405162461bcd60e51b81526004016107ec906124ff565b600a8054908390556009546040516001600160a01b037f000000000000000000000000000000000000000000000000000000000000000016917f7c3bda8adcb9df1edd0059da351d966538bcc99f067c0770872170ac97fb68879161083191858252602082015260400190565b6000600f54612710610b0091906125ad565b600c54610b0f906127106125ad565b610b1991906125c4565b612710610b2681856125c4565b610b3091906125c4565b610b3a91906125e3565b92915050565b6000806000612710600f5485610b5691906125c4565b610b6091906125e3565b9050610b6f61074782866125ad565b90959094509092509050565b600080610b866118ab565b610b903384611a41565b600d546001600160a01b031615610bd0576000610bac84610b40565b600d549295509093509150610bca906001600160a01b031682611962565b50610bdf565b610bd98361144a565b90925090505b610c136001600160a01b037f0000000000000000000000000000000000000000000000000000000000000000168584611b8f565b610c476001600160a01b037f0000000000000000000000000000000000000000000000000000000000000000168583611b8f565b9250929050565b600033610c5c858285611bbf565b610c67858585611c33565b60019150505b9392505050565b610c7c611727565b610c8581611e01565b50565b6000612710600a5483610b3091906125c4565b6000600c54612710610cad91906125ad565b610b30612710846125c4565b60003361092c818585610ccc8383611400565b610cd69190612605565b611787565b610ce3611727565b610ceb611e5b565b565b600080610cf86118ab565b6000610d02611468565b905083811015610d125780610d14565b835b9050610d4b7f00000000000000000000000000000000000000000000000000000000000000006001600160a01b03163330846118f1565b610d54816113db565b925061271060105484610d6791906125c4565b610d7191906125e3565b9150610da76001600160a01b037f0000000000000000000000000000000000000000000000000000000000000000168685611b8f565b6040516340c10f1960e01b81526001600160a01b038681166004830152602482018590527f000000000000000000000000000000000000000000000000000000000000000016906340c10f1990604401600060405180830381600087803b158015610e1157600080fd5b505af1158015610e25573d6000803e3d6000fd5b50505050509250929050565b600060075442610e4191906125ad565b909110919050565b610e51611727565b600f80549082905560408051828152602081018490527fc035e3b986f9c550aedf0774a0d767ebc85da4b25e629006bb36a4e454987e809101610880565b6006546001600160a01b0316336001600160a01b031614610ec25760405162461bcd60e51b81526004016107ec906124ff565b6009805490839055604080518281526020810185905230917f7c3bda8adcb9df1edd0059da351d966538bcc99f067c0770872170ac97fb6887910160405180910390a2610f0d611ead565b505050565b610c853382600019611787565b6000610f2a60025490565b6040516370a0823160e01b8152306004820152612710907f00000000000000000000000000000000000000000000000000000000000000006001600160a01b0316906370a082319060240160206040518083038186803b158015610f8d57600080fd5b505afa158015610fa1573d6000803e3d6000fd5b505050506040513d601f19601f82011682018060405250810190610fc5919061261d565b600254610fd291906125ad565b610fdc91906125c4565b610fe691906125e3565b905090565b6000610ff56118ab565b6000610fff61154d565b9050600061100c826113db565b90508381101561101c578061101e565b835b90506110557f00000000000000000000000000000000000000000000000000000000000000006001600160a01b03163330846118f1565b61105e81610c88565b92506110946001600160a01b037f0000000000000000000000000000000000000000000000000000000000000000168685611b8f565b505092915050565b6110a4611727565b610ceb6000612013565b6000612710600c546110c091906125c4565b600a5483600c546127106110d491906125ad565b610b2691906125c4565b6110e6611727565b60008160038111156110fa576110fa612636565b1415611108576019600b5550565b600181600381111561111c5761111c612636565b14156111345761112e601960026125c4565b600b5550565b600281600381111561114857611148612636565b141561115a5761112e601960036125c4565b600381600381111561116e5761116e612636565b14156111805761112e601960046125c4565b60405162461bcd60e51b815260206004820152602260248201527f464f583a3a757064617465537465703a204e6f7420612076616c696420737465604482015261381760f11b60648201526084016107ec565b6111db611727565b610ceb61206d565b6111eb611727565b610ceb611ead565b6000806000611201856113ab565b90508381111561121e57611214846110ae565b9150839050611222565b8491505b612710600a548261123391906125c4565b61123d91906125e3565b6112479083612605565b95945050505050565b60606004805461089b9061255c565b6000338161126d8286611400565b9050838110156112cd5760405162461bcd60e51b815260206004820152602560248201527f45524332303a2064656372656173656420616c6c6f77616e63652062656c6f77604482015264207a65726f60d81b60648201526084016107ec565b6112da8286868403611787565b506001949350505050565b6000612710600954610fe691906125ad565b60003361092c818585611c33565b600061130f6118ab565b919050565b6000600a54600e5461271061132991906125ad565b61133391906125c4565b600c54610b26612710856125c4565b61134a611727565b600880546001600160a01b0319166001600160a01b0383169081179091556040517f36b1453565f45af7b509b59d5e2eac8f1948ea9e3e193db6663b4101afb6382c90600090a250565b6000600c546113a1610f1f565b610fe691906125ad565b6000600a54600c546127106113c091906125ad565b6113ca91906125c4565b612710600c5484610b2691906125c4565b600a54600090610b30612710846125c4565b6000600a54600c5483610b3091906125c4565b6001600160a01b03918216600090815260016020908152604080832093909416825291909152205490565b6000612710600c5461271061144091906125ad565b610b3090846125c4565b6000806114568361142b565b9150611461836113ed565b9050915091565b6040516370a0823160e01b81523060048201526000907f00000000000000000000000000000000000000000000000000000000000000006001600160a01b0316906370a082319060240160206040518083038186803b1580156114ca57600080fd5b505afa1580156114de573d6000803e3d6000fd5b505050506040513d601f19601f82011682018060405250810190611502919061261d565b612710600c5461271061151591906125ad565b60025461152291906125c4565b6113a191906125e3565b6000600e5461271061153e91906125ad565b600c54611440906127106125ad565b6000612710600c5461271061156291906125ad565b60025461156f91906125c4565b61157991906125e3565b6040516370a0823160e01b81523060048201527f00000000000000000000000000000000000000000000000000000000000000006001600160a01b0316906370a082319060240160206040518083038186803b1580156115d857600080fd5b505afa1580156115ec573d6000803e3d6000fd5b505050506040513d601f19601f820116820180604052508101906113a1919061261d565b611618611727565b6001600160a01b03811661167d5760405162461bcd60e51b815260206004820152602660248201527f4f776e61626c653a206e6577206f776e657220697320746865207a65726f206160448201526564647265737360d01b60648201526084016107ec565b610c8581612013565b61168e611727565b600d80546001600160a01b038381166001600160a01b031983168117909355604080519190921680825260208201939093527f41d2755f00068d89c23ebc6f1e73ce119a6236a44517ca061f544a3f91c9bca49101610880565b6000806116f584846111f3565b9150612710600e548361170891906125c4565b61171291906125e3565b905061171e81836125ad565b91509250929050565b6005546001600160a01b03610100909104163314610ceb5760405162461bcd60e51b815260206004820181905260248201527f4f776e61626c653a2063616c6c6572206973206e6f7420746865206f776e657260448201526064016107ec565b6001600160a01b0383166117e95760405162461bcd60e51b8152602060048201526024808201527f45524332303a20617070726f76652066726f6d20746865207a65726f206164646044820152637265737360e01b60648201526084016107ec565b6001600160a01b03821661184a5760405162461bcd60e51b815260206004820152602260248201527f45524332303a20617070726f766520746f20746865207a65726f206164647265604482015261737360f01b60648201526084016107ec565b6001600160a01b0383811660008181526001602090815260408083209487168084529482529182902085905590518481527f8c5be1e5ebec7d5bd14f71427d1e84f3dd0314c0f7b2291e5b200ac8c7c3b925910160405180910390a3505050565b60055460ff1615610ceb5760405162461bcd60e51b815260206004820152601060248201526f14185d5cd8589b194e881c185d5cd95960821b60448201526064016107ec565b6040516001600160a01b038085166024830152831660448201526064810182905261195c9085906323b872dd60e01b906084015b60408051601f198184030181529190526020810180516001600160e01b03166001600160e01b0319909316929092179091526120aa565b50505050565b6001600160a01b0382166119b85760405162461bcd60e51b815260206004820152601f60248201527f45524332303a206d696e7420746f20746865207a65726f20616464726573730060448201526064016107ec565b80600260008282546119ca9190612605565b90915550506001600160a01b038216600090815260208190526040812080548392906119f7908490612605565b90915550506040518181526001600160a01b038316906000907fddf252ad1be2c89b69c2b068fc378daa952ba7f163c4a11628f55a4df523b3ef9060200160405180910390a35050565b6001600160a01b038216611aa15760405162461bcd60e51b815260206004820152602160248201527f45524332303a206275726e2066726f6d20746865207a65726f206164647265736044820152607360f81b60648201526084016107ec565b6001600160a01b03821660009081526020819052604090205481811015611b155760405162461bcd60e51b815260206004820152602260248201527f45524332303a206275726e20616d6f756e7420657863656564732062616c616e604482015261636560f01b60648201526084016107ec565b6001600160a01b0383166000908152602081905260408120838303905560028054849290611b449084906125ad565b90915550506040518281526000906001600160a01b038516907fddf252ad1be2c89b69c2b068fc378daa952ba7f163c4a11628f55a4df523b3ef9060200160405180910390a3505050565b6040516001600160a01b038316602482015260448101829052610f0d90849063a9059cbb60e01b90606401611925565b6000611bcb8484611400565b9050600019811461195c5781811015611c265760405162461bcd60e51b815260206004820152601d60248201527f45524332303a20696e73756666696369656e7420616c6c6f77616e636500000060448201526064016107ec565b61195c8484848403611787565b6001600160a01b038316611c975760405162461bcd60e51b815260206004820152602560248201527f45524332303a207472616e736665722066726f6d20746865207a65726f206164604482015264647265737360d81b60648201526084016107ec565b6001600160a01b038216611cf95760405162461bcd60e51b815260206004820152602360248201527f45524332303a207472616e7366657220746f20746865207a65726f206164647260448201526265737360e81b60648201526084016107ec565b6001600160a01b03831660009081526020819052604090205481811015611d715760405162461bcd60e51b815260206004820152602660248201527f45524332303a207472616e7366657220616d6f756e7420657863656564732062604482015265616c616e636560d01b60648201526084016107ec565b6001600160a01b03808516600090815260208190526040808220858503905591851681529081208054849290611da8908490612605565b92505081905550826001600160a01b0316846001600160a01b03167fddf252ad1be2c89b69c2b068fc378daa952ba7f163c4a11628f55a4df523b3ef84604051611df491815260200190565b60405180910390a361195c565b600680546001600160a01b038381166001600160a01b031983168117909355604080519190921680825260208201939093527f6b2e9b3836edd552e454031d349dbf020544e4123c344f1ddb0a7a9a336adef99101610880565b611e6361217c565b6005805460ff191690557f5db9ee0a495bf2e6ff9c91a7834c1ba4fdd244a5e8aa4e537bd38aeae4b073aa335b6040516001600160a01b03909116815260200160405180910390a1565b610e10611eb981610e31565b611f055760405162461bcd60e51b815260206004820152601c60248201527f496e74657276616c3a3a696e74657276616c3a204e6f74207965742e0000000060448201526064016107ec565b6000611f0f6112e5565b1215611f3457600b54600c6000828254611f2991906125ad565b9091555061200c9050565b6008546001600160a01b03161580611fed5750612710600b54600c54600860009054906101000a90046001600160a01b03166001600160a01b031663f384bd056040518163ffffffff1660e01b815260040160206040518083038186803b158015611f9e57600080fd5b505afa158015611fb2573d6000803e3d6000fd5b505050506040513d601f19601f82011682018060405250810190611fd6919061261d565b611fe09190612605565b611fea9190612605565b11155b1561200c57600b54600c60008282546120069190612605565b90915550505b5042600755565b600580546001600160a01b03838116610100818102610100600160a81b031985161790945560405193909204169182907f8be0079c531659141344cd1fd0a4f28419497f9722a3daafe3b4186f6b6457e090600090a35050565b6120756118ab565b6005805460ff191660011790557f62e78cea01bee320cd4e420270b5ea74000d11b0c9f74754ebdbfc544b05a258611e903390565b60006120ff826040518060400160405280602081526020017f5361666545524332303a206c6f772d6c6576656c2063616c6c206661696c6564815250856001600160a01b03166121c59092919063ffffffff16565b805190915015610f0d578080602001905181019061211d919061264c565b610f0d5760405162461bcd60e51b815260206004820152602a60248201527f5361666545524332303a204552433230206f7065726174696f6e20646964206e6044820152691bdd081cdd58d8d9595960b21b60648201526084016107ec565b60055460ff16610ceb5760405162461bcd60e51b815260206004820152601460248201527314185d5cd8589b194e881b9bdd081c185d5cd95960621b60448201526064016107ec565b60606121d484846000856121dc565b949350505050565b60608247101561223d5760405162461bcd60e51b815260206004820152602660248201527f416464726573733a20696e73756666696369656e742062616c616e636520666f6044820152651c8818d85b1b60d21b60648201526084016107ec565b6001600160a01b0385163b6122945760405162461bcd60e51b815260206004820152601d60248201527f416464726573733a2063616c6c20746f206e6f6e2d636f6e747261637400000060448201526064016107ec565b600080866001600160a01b031685876040516122b0919061266e565b60006040518083038185875af1925050503d80600081146122ed576040519150601f19603f3d011682016040523d82523d6000602084013e6122f2565b606091505b509150915061230282828661230d565b979650505050505050565b6060831561231c575081610c6d565b82511561232c5782518084602001fd5b8160405162461bcd60e51b81526004016107ec91906123ad565b6000806040838503121561235957600080fd5b50508035926020909101359150565b60006020828403121561237a57600080fd5b5035919050565b60005b8381101561239c578181015183820152602001612384565b8381111561195c5750506000910152565b60208152600082518060208401526123cc816040850160208701612381565b601f01601f19169190910160400192915050565b80356001600160a01b038116811461130f57600080fd5b6000806040838503121561240a57600080fd5b612413836123e0565b946020939093013593505050565b60008060006060848603121561243657600080fd5b61243f846123e0565b95602085013595506040909401359392505050565b60008060006060848603121561246957600080fd5b612472846123e0565b9250612480602085016123e0565b9150604084013590509250925092565b6000602082840312156124a257600080fd5b610c6d826123e0565b6000602082840312156124bd57600080fd5b813560048110610c6d57600080fd5b600080604083850312156124df57600080fd5b6124e8836123e0565b91506124f6602084016123e0565b90509250929050565b6020808252603f908201527f4f7261636c653a3a6f6e6c794f7261636c654665656465723a2053656e64657260408201527f206d7573742062652073616d65206173205f6f7261636c654665656465722e00606082015260800190565b600181811c9082168061257057607f821691505b6020821081141561259157634e487b7160e01b600052602260045260246000fd5b50919050565b634e487b7160e01b600052601160045260246000fd5b6000828210156125bf576125bf612597565b500390565b60008160001904831182151516156125de576125de612597565b500290565b60008261260057634e487b7160e01b600052601260045260246000fd5b500490565b6000821982111561261857612618612597565b500190565b60006020828403121561262f57600080fd5b5051919050565b634e487b7160e01b600052602160045260246000fd5b60006020828403121561265e57600080fd5b81518015158114610c6d57600080fd5b60008251612680818460208701612381565b919091019291505056fea2646970667358221220ef987bb5d38673fc471ae4fb6f6f1d69a201ddf098551b6e7c7b4e0755003a3864736f6c634300080900334672616374696f6e616c204f76657220436f6c6c61746572616c697a656420537461626c65636f696e4e6f6e7a65726f3a3a6e6f6e7a65726f416464726573733a204163636f756e74",
  "linkReferences": {},
  "deployedLinkReferences": {}
}