{
  "_format": "hh-sol-artifact-1",
  "contractName": "FOX",
  "sourceName": "contracts/tokens/FOX.sol",
  "abi": [
    {
      "inputs": [
        {
          "internalType": "address",
          "name": "oracleFeeder_",
          "type": "address"
        },
        {
          "internalType": "address",
          "name": "feeTo_",
          "type": "address"
        },
        {
          "internalType": "address",
          "name": "debtToken_",
          "type": "address"
        },
        {
          "internalType": "address",
          "name": "shareToken_",
          "type": "address"
        },
        {
          "internalType": "uint256",
          "name": "mintFeeRatio_",
          "type": "uint256"
        },
        {
          "internalType": "uint256",
          "name": "burnFeeRatio_",
          "type": "uint256"
        },
        {
          "internalType": "uint256",
          "name": "bonusRatio_",
          "type": "uint256"
        }
      ],
      "stateMutability": "nonpayable",
      "type": "constructor"
    },
    {
      "anonymous": false,
      "inputs": [
        {
          "indexed": true,
          "internalType": "address",
          "name": "owner",
          "type": "address"
        },
        {
          "indexed": true,
          "internalType": "address",
          "name": "spender",
          "type": "address"
        },
        {
          "indexed": false,
          "internalType": "uint256",
          "name": "value",
          "type": "uint256"
        }
      ],
      "name": "Approval",
      "type": "event"
    },
    {
      "anonymous": false,
      "inputs": [
        {
          "indexed": true,
          "internalType": "address",
          "name": "foxFarm",
          "type": "address"
        }
      ],
      "name": "Initialize",
      "type": "event"
    },
    {
      "anonymous": false,
      "inputs": [
        {
          "indexed": true,
          "internalType": "address",
          "name": "previousOwner",
          "type": "address"
        },
        {
          "indexed": true,
          "internalType": "address",
          "name": "newOwner",
          "type": "address"
        }
      ],
      "name": "OwnershipTransferred",
      "type": "event"
    },
    {
      "anonymous": false,
      "inputs": [
        {
          "indexed": false,
          "internalType": "address",
          "name": "account",
          "type": "address"
        }
      ],
      "name": "Paused",
      "type": "event"
    },
    {
      "anonymous": false,
      "inputs": [
        {
          "indexed": false,
          "internalType": "uint256",
          "name": "prevBonusRatio",
          "type": "uint256"
        },
        {
          "indexed": false,
          "internalType": "uint256",
          "name": "currBonusRatio",
          "type": "uint256"
        }
      ],
      "name": "SetBonusRatio",
      "type": "event"
    },
    {
      "anonymous": false,
      "inputs": [
        {
          "indexed": false,
          "internalType": "uint256",
          "name": "prevBurnFeeRatio",
          "type": "uint256"
        },
        {
          "indexed": false,
          "internalType": "uint256",
          "name": "currBurnFeeRatio",
          "type": "uint256"
        }
      ],
      "name": "SetBurnFeeRatio",
      "type": "event"
    },
    {
      "anonymous": false,
      "inputs": [
        {
          "indexed": false,
          "internalType": "address",
          "name": "prevFeeTo",
          "type": "address"
        },
        {
          "indexed": false,
          "internalType": "address",
          "name": "currFeeTo",
          "type": "address"
        }
      ],
      "name": "SetFeeTo",
      "type": "event"
    },
    {
      "anonymous": false,
      "inputs": [
        {
          "indexed": false,
          "internalType": "uint256",
          "name": "prevMintFeeRatio",
          "type": "uint256"
        },
        {
          "indexed": false,
          "internalType": "uint256",
          "name": "currMintFeeRatio",
          "type": "uint256"
        }
      ],
      "name": "SetMintFeeRatio",
      "type": "event"
    },
    {
      "anonymous": false,
      "inputs": [
        {
          "indexed": true,
          "internalType": "address",
          "name": "from",
          "type": "address"
        },
        {
          "indexed": true,
          "internalType": "address",
          "name": "to",
          "type": "address"
        },
        {
          "indexed": false,
          "internalType": "uint256",
          "name": "value",
          "type": "uint256"
        }
      ],
      "name": "Transfer",
      "type": "event"
    },
    {
      "anonymous": false,
      "inputs": [
        {
          "indexed": false,
          "internalType": "address",
          "name": "account",
          "type": "address"
        }
      ],
      "name": "Unpaused",
      "type": "event"
    },
    {
      "anonymous": false,
      "inputs": [
        {
          "indexed": false,
          "internalType": "address",
          "name": "prevOracleFeeder",
          "type": "address"
        },
        {
          "indexed": false,
          "internalType": "address",
          "name": "currOracle",
          "type": "address"
        }
      ],
      "name": "UpdateOracleFeeder",
      "type": "event"
    },
    {
      "anonymous": false,
      "inputs": [
        {
          "indexed": true,
          "internalType": "address",
          "name": "token",
          "type": "address"
        },
        {
          "indexed": false,
          "internalType": "uint256",
          "name": "prevPrice",
          "type": "uint256"
        },
        {
          "indexed": false,
          "internalType": "uint256",
          "name": "currPrice",
          "type": "uint256"
        }
      ],
      "name": "UpdatePrice",
      "type": "event"
    },
    {
      "inputs": [
        {
          "internalType": "address",
          "name": "owner",
          "type": "address"
        },
        {
          "internalType": "address",
          "name": "spender",
          "type": "address"
        }
      ],
      "name": "allowance",
      "outputs": [
        {
          "internalType": "uint256",
          "name": "",
          "type": "uint256"
        }
      ],
      "stateMutability": "view",
      "type": "function"
    },
    {
      "inputs": [
        {
          "internalType": "address",
          "name": "spender",
          "type": "address"
        },
        {
          "internalType": "uint256",
          "name": "amount",
          "type": "uint256"
        }
      ],
      "name": "approve",
      "outputs": [
        {
          "internalType": "bool",
          "name": "",
          "type": "bool"
        }
      ],
      "stateMutability": "nonpayable",
      "type": "function"
    },
    {
      "inputs": [
        {
          "internalType": "address",
          "name": "spender",
          "type": "address"
        }
      ],
      "name": "approveMax",
      "outputs": [],
      "stateMutability": "nonpayable",
      "type": "function"
    },
    {
      "inputs": [
        {
          "internalType": "address",
          "name": "account",
          "type": "address"
        }
      ],
      "name": "balanceOf",
      "outputs": [
        {
          "internalType": "uint256",
          "name": "",
          "type": "uint256"
        }
      ],
      "stateMutability": "view",
      "type": "function"
    },
    {
      "inputs": [
        {
          "internalType": "address",
          "name": "toAccount_",
          "type": "address"
        },
        {
          "internalType": "uint256",
          "name": "shareAmount_",
          "type": "uint256"
        }
      ],
      "name": "buyback",
      "outputs": [
        {
          "internalType": "uint256",
          "name": "debtAmount_",
          "type": "uint256"
        }
      ],
      "stateMutability": "nonpayable",
      "type": "function"
    },
    {
      "inputs": [],
      "name": "currentTrustLevel",
      "outputs": [
        {
          "internalType": "uint256",
          "name": "",
          "type": "uint256"
        }
      ],
      "stateMutability": "view",
      "type": "function"
    },
    {
      "inputs": [],
      "name": "decimals",
      "outputs": [
        {
          "internalType": "uint8",
          "name": "",
          "type": "uint8"
        }
      ],
      "stateMutability": "view",
      "type": "function"
    },
    {
      "inputs": [
        {
          "internalType": "address",
          "name": "spender",
          "type": "address"
        },
        {
          "internalType": "uint256",
          "name": "subtractedValue",
          "type": "uint256"
        }
      ],
      "name": "decreaseAllowance",
      "outputs": [
        {
          "internalType": "bool",
          "name": "",
          "type": "bool"
        }
      ],
      "stateMutability": "nonpayable",
      "type": "function"
    },
    {
      "inputs": [],
      "name": "deltaTrust",
      "outputs": [
        {
          "internalType": "int256",
          "name": "",
          "type": "int256"
        }
      ],
      "stateMutability": "view",
      "type": "function"
    },
    {
      "inputs": [],
      "name": "deltaTrustLevel",
      "outputs": [
        {
          "internalType": "int256",
          "name": "",
          "type": "int256"
        }
      ],
      "stateMutability": "view",
      "type": "function"
    },
    {
      "inputs": [
        {
          "internalType": "uint256",
          "name": "shareAmount_",
          "type": "uint256"
        }
      ],
      "name": "exchangedDebtAmountFromShare",
      "outputs": [
        {
          "internalType": "uint256",
          "name": "debtAmount_",
          "type": "uint256"
        }
      ],
      "stateMutability": "view",
      "type": "function"
    },
    {
      "inputs": [
        {
          "internalType": "uint256",
          "name": "debtAmount_",
          "type": "uint256"
        }
      ],
      "name": "exchangedShareAmountFromDebt",
      "outputs": [
        {
          "internalType": "uint256",
          "name": "shareAmount_",
          "type": "uint256"
        }
      ],
      "stateMutability": "view",
      "type": "function"
    },
    {
      "inputs": [
        {
          "internalType": "uint256",
          "name": "debtAmount_",
          "type": "uint256"
        },
        {
          "internalType": "uint256",
          "name": "shareAmount_",
          "type": "uint256"
        }
      ],
      "name": "expectedMintAmount",
      "outputs": [
        {
          "internalType": "uint256",
          "name": "stableAmount_",
          "type": "uint256"
        }
      ],
      "stateMutability": "view",
      "type": "function"
    },
    {
      "inputs": [
        {
          "internalType": "uint256",
          "name": "stableAmount_",
          "type": "uint256"
        }
      ],
      "name": "expectedRedeemAmount",
      "outputs": [
        {
          "internalType": "uint256",
          "name": "debtAmount_",
          "type": "uint256"
        },
        {
          "internalType": "uint256",
          "name": "shareAmount_",
          "type": "uint256"
        }
      ],
      "stateMutability": "view",
      "type": "function"
    },
    {
      "inputs": [],
      "name": "getSharePrice",
      "outputs": [
        {
          "internalType": "uint256",
          "name": "",
          "type": "uint256"
        }
      ],
      "stateMutability": "view",
      "type": "function"
    },
    {
      "inputs": [],
      "name": "getStablePrice",
      "outputs": [
        {
          "internalType": "uint256",
          "name": "",
          "type": "uint256"
        }
      ],
      "stateMutability": "view",
      "type": "function"
    },
    {
      "inputs": [
        {
          "internalType": "address",
          "name": "spender",
          "type": "address"
        },
        {
          "internalType": "uint256",
          "name": "addedValue",
          "type": "uint256"
        }
      ],
      "name": "increaseAllowance",
      "outputs": [
        {
          "internalType": "bool",
          "name": "",
          "type": "bool"
        }
      ],
      "stateMutability": "nonpayable",
      "type": "function"
    },
    {
      "inputs": [
        {
          "internalType": "address",
          "name": "foxFarm_",
          "type": "address"
        }
      ],
      "name": "initialize",
      "outputs": [],
      "stateMutability": "nonpayable",
      "type": "function"
    },
    {
      "inputs": [
        {
          "internalType": "uint256",
          "name": "TIME_PERIOD",
          "type": "uint256"
        }
      ],
      "name": "isPassInterval",
      "outputs": [
        {
          "internalType": "bool",
          "name": "",
          "type": "bool"
        }
      ],
      "stateMutability": "view",
      "type": "function"
    },
    {
      "inputs": [
        {
          "internalType": "address",
          "name": "toAccount_",
          "type": "address"
        },
        {
          "internalType": "uint256",
          "name": "debtAmount_",
          "type": "uint256"
        },
        {
          "internalType": "uint256",
          "name": "shareAmount_",
          "type": "uint256"
        }
      ],
      "name": "mint",
      "outputs": [
        {
          "internalType": "uint256",
          "name": "stableAmount_",
          "type": "uint256"
        }
      ],
      "stateMutability": "nonpayable",
      "type": "function"
    },
    {
      "inputs": [],
      "name": "name",
      "outputs": [
        {
          "internalType": "string",
          "name": "",
          "type": "string"
        }
      ],
      "stateMutability": "view",
      "type": "function"
    },
    {
      "inputs": [],
      "name": "owner",
      "outputs": [
        {
          "internalType": "address",
          "name": "",
          "type": "address"
        }
      ],
      "stateMutability": "view",
      "type": "function"
    },
    {
      "inputs": [],
      "name": "pause",
      "outputs": [],
      "stateMutability": "nonpayable",
      "type": "function"
    },
    {
      "inputs": [],
      "name": "paused",
      "outputs": [
        {
          "internalType": "bool",
          "name": "",
          "type": "bool"
        }
      ],
      "stateMutability": "view",
      "type": "function"
    },
    {
      "inputs": [
        {
          "internalType": "address",
          "name": "toAccount_",
          "type": "address"
        },
        {
          "internalType": "uint256",
          "name": "debtAmount_",
          "type": "uint256"
        }
      ],
      "name": "recollateralize",
      "outputs": [
        {
          "internalType": "uint256",
          "name": "shareAmount_",
          "type": "uint256"
        },
        {
          "internalType": "uint256",
          "name": "bonusAmount_",
          "type": "uint256"
        }
      ],
      "stateMutability": "nonpayable",
      "type": "function"
    },
    {
      "inputs": [
        {
          "internalType": "address",
          "name": "toAccount_",
          "type": "address"
        },
        {
          "internalType": "uint256",
          "name": "stableAmount_",
          "type": "uint256"
        }
      ],
      "name": "redeem",
      "outputs": [
        {
          "internalType": "uint256",
          "name": "debtAmount_",
          "type": "uint256"
        },
        {
          "internalType": "uint256",
          "name": "shareAmount_",
          "type": "uint256"
        }
      ],
      "stateMutability": "nonpayable",
      "type": "function"
    },
    {
      "inputs": [],
      "name": "renounceOwnership",
      "outputs": [],
      "stateMutability": "nonpayable",
      "type": "function"
    },
    {
      "inputs": [
        {
          "internalType": "uint256",
          "name": "shareAmount_",
          "type": "uint256"
        }
      ],
      "name": "requiredDebtAmountFromShare",
      "outputs": [
        {
          "internalType": "uint256",
          "name": "debtAmount_",
          "type": "uint256"
        }
      ],
      "stateMutability": "view",
      "type": "function"
    },
    {
      "inputs": [
        {
          "internalType": "uint256",
          "name": "stableAmount_",
          "type": "uint256"
        }
      ],
      "name": "requiredDebtAmountFromStable",
      "outputs": [
        {
          "internalType": "uint256",
          "name": "debtAmount_",
          "type": "uint256"
        }
      ],
      "stateMutability": "view",
      "type": "function"
    },
    {
      "inputs": [
        {
          "internalType": "uint256",
          "name": "debtAmount_",
          "type": "uint256"
        }
      ],
      "name": "requiredShareAmountFromDebt",
      "outputs": [
        {
          "internalType": "uint256",
          "name": "shareAmount_",
          "type": "uint256"
        }
      ],
      "stateMutability": "view",
      "type": "function"
    },
    {
      "inputs": [
        {
          "internalType": "uint256",
          "name": "stableAmount_",
          "type": "uint256"
        }
      ],
      "name": "requiredShareAmountFromStable",
      "outputs": [
        {
          "internalType": "uint256",
          "name": "shareAmount_",
          "type": "uint256"
        }
      ],
      "stateMutability": "view",
      "type": "function"
    },
    {
      "inputs": [
        {
          "internalType": "uint256",
          "name": "debtAmount_",
          "type": "uint256"
        }
      ],
      "name": "requiredStableAmountFromDebt",
      "outputs": [
        {
          "internalType": "uint256",
          "name": "stableAmount_",
          "type": "uint256"
        }
      ],
      "stateMutability": "view",
      "type": "function"
    },
    {
      "inputs": [
        {
          "internalType": "uint256",
          "name": "newBonusRatio",
          "type": "uint256"
        }
      ],
      "name": "setBonusRatio",
      "outputs": [],
      "stateMutability": "nonpayable",
      "type": "function"
    },
    {
      "inputs": [
        {
          "internalType": "uint256",
          "name": "newBunrFeeRatio",
          "type": "uint256"
        }
      ],
      "name": "setBurnFeeRatio",
      "outputs": [],
      "stateMutability": "nonpayable",
      "type": "function"
    },
    {
      "inputs": [
        {
          "internalType": "address",
          "name": "newFeeTo",
          "type": "address"
        }
      ],
      "name": "setFeeTo",
      "outputs": [],
      "stateMutability": "nonpayable",
      "type": "function"
    },
    {
      "inputs": [
        {
          "internalType": "uint256",
          "name": "newMintFeeRatio",
          "type": "uint256"
        }
      ],
      "name": "setMintFeeRatio",
      "outputs": [],
      "stateMutability": "nonpayable",
      "type": "function"
    },
    {
      "inputs": [],
      "name": "shortfallRecollateralizeAmount",
      "outputs": [
        {
          "internalType": "uint256",
          "name": "debtAmount_",
          "type": "uint256"
        }
      ],
      "stateMutability": "view",
      "type": "function"
    },
    {
      "inputs": [
        {
          "internalType": "address",
          "name": "toAccount_",
          "type": "address"
        }
      ],
      "name": "skim",
      "outputs": [
        {
          "internalType": "uint256",
          "name": "shareAmount_",
          "type": "uint256"
        }
      ],
      "stateMutability": "nonpayable",
      "type": "function"
    },
    {
      "inputs": [],
      "name": "step",
      "outputs": [
        {
          "internalType": "uint256",
          "name": "",
          "type": "uint256"
        }
      ],
      "stateMutability": "view",
      "type": "function"
    },
    {
      "inputs": [],
      "name": "surplusBuybackAmount",
      "outputs": [
        {
          "internalType": "uint256",
          "name": "debtAmount_",
          "type": "uint256"
        }
      ],
      "stateMutability": "view",
      "type": "function"
    },
    {
      "inputs": [],
      "name": "symbol",
      "outputs": [
        {
          "internalType": "string",
          "name": "",
          "type": "string"
        }
      ],
      "stateMutability": "view",
      "type": "function"
    },
    {
      "inputs": [],
      "name": "totalSupply",
      "outputs": [
        {
          "internalType": "uint256",
          "name": "",
          "type": "uint256"
        }
      ],
      "stateMutability": "view",
      "type": "function"
    },
    {
      "inputs": [
        {
          "internalType": "address",
          "name": "to",
          "type": "address"
        },
        {
          "internalType": "uint256",
          "name": "amount",
          "type": "uint256"
        }
      ],
      "name": "transfer",
      "outputs": [
        {
          "internalType": "bool",
          "name": "",
          "type": "bool"
        }
      ],
      "stateMutability": "nonpayable",
      "type": "function"
    },
    {
      "inputs": [
        {
          "internalType": "address",
          "name": "from",
          "type": "address"
        },
        {
          "internalType": "address",
          "name": "to",
          "type": "address"
        },
        {
          "internalType": "uint256",
          "name": "amount",
          "type": "uint256"
        }
      ],
      "name": "transferFrom",
      "outputs": [
        {
          "internalType": "bool",
          "name": "",
          "type": "bool"
        }
      ],
      "stateMutability": "nonpayable",
      "type": "function"
    },
    {
      "inputs": [
        {
          "internalType": "address",
          "name": "newOwner",
          "type": "address"
        }
      ],
      "name": "transferOwnership",
      "outputs": [],
      "stateMutability": "nonpayable",
      "type": "function"
    },
    {
      "inputs": [],
      "name": "trustLevel",
      "outputs": [
        {
          "internalType": "uint256",
          "name": "",
          "type": "uint256"
        }
      ],
      "stateMutability": "view",
      "type": "function"
    },
    {
      "inputs": [],
      "name": "unpause",
      "outputs": [],
      "stateMutability": "nonpayable",
      "type": "function"
    },
    {
      "inputs": [
        {
          "internalType": "address",
          "name": "newOracleFeeder",
          "type": "address"
        }
      ],
      "name": "updateOracleFeeder",
      "outputs": [],
      "stateMutability": "nonpayable",
      "type": "function"
    },
    {
      "inputs": [
        {
          "internalType": "uint256",
          "name": "newSharePrice",
          "type": "uint256"
        },
        {
          "internalType": "uint256",
          "name": "confidence",
          "type": "uint256"
        }
      ],
      "name": "updateSharePrice",
      "outputs": [],
      "stateMutability": "nonpayable",
      "type": "function"
    },
    {
      "inputs": [
        {
          "internalType": "uint256",
          "name": "newStablePrice",
          "type": "uint256"
        },
        {
          "internalType": "uint256",
          "name": "confidence",
          "type": "uint256"
        }
      ],
      "name": "updateStablePrice",
      "outputs": [],
      "stateMutability": "nonpayable",
      "type": "function"
    },
    {
      "inputs": [
        {
          "internalType": "uint256",
          "name": "newStablePrice",
          "type": "uint256"
        },
        {
          "internalType": "uint256",
          "name": "confidence",
          "type": "uint256"
        }
      ],
      "name": "updateStablePriceWithTrustLevel",
      "outputs": [],
      "stateMutability": "nonpayable",
      "type": "function"
    },
    {
      "inputs": [
        {
          "internalType": "enum IFOX.Step",
          "name": "step_",
          "type": "uint8"
        }
      ],
      "name": "updateStep",
      "outputs": [],
      "stateMutability": "nonpayable",
      "type": "function"
    },
    {
      "inputs": [],
      "name": "updateTrustLevel",
      "outputs": [],
      "stateMutability": "nonpayable",
      "type": "function"
    }
  ],
  "bytecode": "0x60c0604052612710600955612710600a5560c8600c553480156200002257600080fd5b5060405162002b2138038062002b21833981016040819052620000459162000378565b8660405180606001604052806029815260200162002ad8602991396040518060400160405280600381526020016208c9eb60eb1b815250816003908051906020019062000094929190620002b5565b508051620000aa906004906020840190620002b5565b50506005805460ff1916905550620000c2336200025b565b600680546001600160a01b0319166001600160a01b039283161790554260075587908116620001415760405162461bcd60e51b8152602060048201526031602482015260008051602062002b018339815191526044820152701036bab9ba103132903737b73d32b9379760791b60648201526084015b60405180910390fd5b856001600160a01b038116620001a35760405162461bcd60e51b8152602060048201526031602482015260008051602062002b018339815191526044820152701036bab9ba103132903737b73d32b9379760791b606482015260840162000138565b856001600160a01b038116620002055760405162461bcd60e51b8152602060048201526031602482015260008051602062002b018339815191526044820152701036bab9ba103132903737b73d32b9379760791b606482015260840162000138565b600d80546001600160a01b0319166001600160a01b038b811691909117909155888116608052871660a0526200023e60196004620003f2565b600b55505050600e92909255600f55601055506200045d92505050565b600580546001600160a01b03838116610100818102610100600160a81b031985161790945560405193909204169182907f8be0079c531659141344cd1fd0a4f28419497f9722a3daafe3b4186f6b6457e090600090a35050565b828054620002c39062000420565b90600052602060002090601f016020900481019282620002e7576000855562000332565b82601f106200030257805160ff191683800117855562000332565b8280016001018555821562000332579182015b828111156200033257825182559160200191906001019062000315565b506200034092915062000344565b5090565b5b8082111562000340576000815560010162000345565b80516001600160a01b03811681146200037357600080fd5b919050565b600080600080600080600060e0888a0312156200039457600080fd5b6200039f886200035b565b9650620003af602089016200035b565b9550620003bf604089016200035b565b9450620003cf606089016200035b565b93506080880151925060a0880151915060c0880151905092959891949750929550565b60008160001904831182151516156200041b57634e487b7160e01b600052601160045260246000fd5b500290565b600181811c908216806200043557607f821691505b602082108114156200045757634e487b7160e01b600052602260045260246000fd5b50919050565b60805160a0516125ec620004ec600039600081816108e8015281816109d901528181610b3801528181610b6e01528181610bdd01528181610d4d01528181610d9a0152610ff20152600081816108ab01528181610aca01528181610b0001528181610ba901528181610ce801528181610f100152818161103a0152818161140c01526114f901526125ec6000f3fe608060405234801561001057600080fd5b50600436106103275760003560e01c8063715018a6116101b8578063c4d66de811610104578063e1a22dfe116100a2578063ec9e03931161007c578063ec9e0393146106a2578063f280db8a146106aa578063f2fde38b146106b2578063f46901ed146106c557600080fd5b8063e1a22dfe1461067e578063e2036fd014610691578063e25fe1751461069957600080fd5b8063d5aa33d2116100de578063d5aa33d214610632578063db6583e314610645578063dd62ed3e14610658578063de1cf1691461066b57600080fd5b8063c4d66de814610604578063cb5f124414610617578063d53839901461061f57600080fd5b80638da5cb5b11610171578063a7dbb6131161014b578063a7dbb613146105cd578063a9059cbb146105d5578063bc25cf77146105e8578063bf0b893a146105fb57600080fd5b80638da5cb5b1461058957806395d89b41146105b2578063a457c2d7146105ba57600080fd5b8063715018a61461053857806375c2f595146105405780637caa481b146105535780638456cb59146105665780638828ad351461056e5780638a8792191461057657600080fd5b806333812251116102775780634ef8ddb4116102305780635c975abb1161020a5780635c975abb146104e95780635f92c30d146104f4578063655f767c146104fc57806370a082311461050f57600080fd5b80634ef8ddb4146104bb578063571ac8b0146104ce5780635b1dac60146104e157600080fd5b8063338122511461045457806339509351146104675780633f4ba83a1461047a578063423e7979146104825780634b974f4b146104955780634bca39d1146104a857600080fd5b806318160ddd116102e457806323b872dd116102be57806323b872dd1461040c578063262daf8e1461041f5780632694d5e714610432578063313ce5671461044557600080fd5b806318160ddd146103c95780631b1da1af146103d15780631e9a6950146103e457600080fd5b806302d525ac1461032c57806304df88621461034157806306fdde0314610354578063095ea7b3146103725780630f77858c14610395578063156e29f6146103a8575b600080fd5b61033f61033a366004612272565b6106d8565b005b61033f61034f366004612294565b61075d565b61035c6107ab565b60405161036991906122d9565b60405180910390f35b610385610380366004612323565b61083d565b6040519015158152602001610369565b61033f6103a3366004612294565b610855565b6103bb6103b636600461234d565b61089b565b604051908152602001610369565b6002546103bb565b61033f6103df366004612272565b61098e565b6103f76103f2366004612323565b610a2e565b60408051928352602083019190915201610369565b61038561041a366004612380565b610c0b565b61033f61042d3660046123bc565b610c31565b6103bb610440366004612294565b610c45565b60405160128152602001610369565b6103bb610462366004612294565b610c68565b610385610475366004612323565b610c86565b61033f610ca8565b6103f7610490366004612323565b610cba565b6103856104a3366004612294565b610dfe565b61033f6104b6366004612294565b610e16565b61033f6104c9366004612272565b610e5c565b61033f6104dc3660046123bc565b610edf565b600a546103bb565b60055460ff16610385565b6103bb610eec565b6103bb61050a366004612323565b610fb8565b6103bb61051d3660046123bc565b6001600160a01b031660009081526020819052604090205490565b61033f611069565b6103bb61054e366004612294565b61107b565b61033f6105613660046123d7565b61108e565b61033f611183565b61033f611193565b6103bb610584366004612272565b6111a3565b60055461010090046001600160a01b03166040516001600160a01b039091168152602001610369565b61035c611200565b6103856105c8366004612323565b61120f565b6103bb611295565b6103856105e3366004612323565b6112a7565b6103bb6105f63660046123bc565b6112b5565b6103bb600c5481565b61033f6106123660046123bc565b6112c4565b6103bb611316565b6103bb61062d366004612294565b61132d565b6103bb610640366004612294565b611367565b6103bb610653366004612294565b611379565b6103bb6106663660046123f8565b61138c565b6103bb610679366004612294565b6113b7565b6103f761068c366004612294565b6113d6565b6103bb6113f4565b6103bb600b5481565b6009546103bb565b6103bb6114b8565b61033f6106c03660046123bc565b61157b565b61033f6106d33660046123bc565b6115f1565b6006546001600160a01b0316336001600160a01b0316146107145760405162461bcd60e51b815260040161070b9061242b565b60405180910390fd5b6009805490839055604080518281526020810185905230917f7c3bda8adcb9df1edd0059da351d966538bcc99f067c0770872170ac97fb688791015b60405180910390a2505050565b610765611653565b600e80549082905560408051828152602081018490527f1d35e6551a082a9799480e6fa71f01ca141bdce96131962af7d8505fbfef407891015b60405180910390a15050565b6060600380546107ba90612488565b80601f01602080910402602001604051908101604052809291908181526020018280546107e690612488565b80156108335780601f1061080857610100808354040283529160200191610833565b820191906000526020600020905b81548152906001019060200180831161081657829003601f168201915b5050505050905090565b60003361084b8185856116b3565b5060019392505050565b61085d611653565b601080549082905560408051828152602081018490527fa9c225a7392b607bf3ccd4ffeedf2b9dfbd731451b86645d77f8e9261e5b8444910161079f565b60006108a56117d7565b336108db7f00000000000000000000000000000000000000000000000000000000000000006001600160a01b031682308761181d565b6109106001600160a01b037f00000000000000000000000000000000000000000000000000000000000000001682308661181d565b61091a84846111a3565b91506000612710600e548461092f91906124d9565b61093991906124f8565b600d549091506001600160a01b03161561097b57600d54610963906001600160a01b03168261188e565b61097686610971838661251a565b61188e565b610985565b610985868461188e565b50509392505050565b6006546001600160a01b0316336001600160a01b0316146109c15760405162461bcd60e51b815260040161070b9061242b565b600a8054908390556009546040516001600160a01b037f000000000000000000000000000000000000000000000000000000000000000016917f7c3bda8adcb9df1edd0059da351d966538bcc99f067c0770872170ac97fb68879161075091858252602082015260400190565b600080610a396117d7565b610a43338461196d565b610a4c836113d6565b600d5491935091506001600160a01b031615610b9c576000612710600f5484610a7591906124d9565b610a7f91906124f8565b90506000612710600f5484610a9491906124d9565b610a9e91906124f8565b9050610aaa828561251a565b610ab4828561251a565b600d549195509350610af3906001600160a01b037f00000000000000000000000000000000000000000000000000000000000000008116911684611abb565b610b276001600160a01b037f0000000000000000000000000000000000000000000000000000000000000000168786611abb565b600d54610b61906001600160a01b037f00000000000000000000000000000000000000000000000000000000000000008116911683611abb565b610b956001600160a01b037f0000000000000000000000000000000000000000000000000000000000000000168785611abb565b5050610c04565b610bd06001600160a01b037f0000000000000000000000000000000000000000000000000000000000000000168584611abb565b610c046001600160a01b037f0000000000000000000000000000000000000000000000000000000000000000168583611abb565b9250929050565b600033610c19858285611aeb565b610c24858585611b5f565b60019150505b9392505050565b610c39611653565b610c4281611d2d565b50565b6000612710600a5483610c5891906124d9565b610c6291906124f8565b92915050565b6000600c54612710610c7a919061251a565b610c58612710846124d9565b60003361084b818585610c99838361138c565b610ca39190612531565b6116b3565b610cb0611653565b610cb8611d87565b565b600080610cc56117d7565b6000610ccf6113f4565b905083811015610cdf5780610ce1565b835b9050610d187f00000000000000000000000000000000000000000000000000000000000000006001600160a01b031633308461181d565b610d2181611367565b925061271060105484610d3491906124d9565b610d3e91906124f8565b9150610d746001600160a01b037f0000000000000000000000000000000000000000000000000000000000000000168685611abb565b6040516340c10f1960e01b81526001600160a01b038681166004830152602482018590527f000000000000000000000000000000000000000000000000000000000000000016906340c10f1990604401600060405180830381600087803b158015610dde57600080fd5b505af1158015610df2573d6000803e3d6000fd5b50505050509250929050565b600060075442610e0e919061251a565b909110919050565b610e1e611653565b600f80549082905560408051828152602081018490527fc035e3b986f9c550aedf0774a0d767ebc85da4b25e629006bb36a4e454987e80910161079f565b6006546001600160a01b0316336001600160a01b031614610e8f5760405162461bcd60e51b815260040161070b9061242b565b6009805490839055604080518281526020810185905230917f7c3bda8adcb9df1edd0059da351d966538bcc99f067c0770872170ac97fb6887910160405180910390a2610eda611dd9565b505050565b610c4233826000196116b3565b6000610ef760025490565b6040516370a0823160e01b8152306004820152612710907f00000000000000000000000000000000000000000000000000000000000000006001600160a01b0316906370a082319060240160206040518083038186803b158015610f5a57600080fd5b505afa158015610f6e573d6000803e3d6000fd5b505050506040513d601f19601f82011682018060405250810190610f929190612549565b600254610f9f919061251a565b610fa991906124d9565b610fb391906124f8565b905090565b6000610fc26117d7565b6000610fcc6114b8565b90506000610fd982611367565b905083811015610fe95780610feb565b835b90506110227f00000000000000000000000000000000000000000000000000000000000000006001600160a01b031633308461181d565b61102b81610c45565b92506110616001600160a01b037f0000000000000000000000000000000000000000000000000000000000000000168685611abb565b505092915050565b611071611653565b610cb86000611f3f565b6000600c54600a5483610c5891906124d9565b611096611653565b60008160038111156110aa576110aa612562565b14156110b8576019600b5550565b60018160038111156110cc576110cc612562565b14156110e4576110de601960026124d9565b600b5550565b60028160038111156110f8576110f8612562565b141561110a576110de601960036124d9565b600381600381111561111e5761111e612562565b1415611130576110de601960046124d9565b60405162461bcd60e51b815260206004820152602260248201527f464f583a3a757064617465537465703a204e6f7420612076616c696420737465604482015261381760f11b606482015260840161070b565b61118b611653565b610cb8611f99565b61119b611653565b610cb8611dd9565b60008060006111b18561132d565b9050838111156111ce576111c48461107b565b91508390506111d2565b8491505b612710600a54826111e391906124d9565b6111ed91906124f8565b6111f79083612531565b95945050505050565b6060600480546107ba90612488565b6000338161121d828661138c565b90508381101561127d5760405162461bcd60e51b815260206004820152602560248201527f45524332303a2064656372656173656420616c6c6f77616e63652062656c6f77604482015264207a65726f60d81b606482015260840161070b565b61128a82868684036116b3565b506001949350505050565b6000612710600954610fb3919061251a565b60003361084b818585611b5f565b60006112bf6117d7565b919050565b6112cc611653565b600880546001600160a01b0319166001600160a01b0383169081179091556040517f36b1453565f45af7b509b59d5e2eac8f1948ea9e3e193db6663b4101afb6382c90600090a250565b6000600c54611323610eec565b610fb3919061251a565b6000600a54600c54612710611342919061251a565b61134c91906124d9565b612710600c548461135d91906124d9565b610c5891906124d9565b600a54600090610c58612710846124d9565b6000600a54600c5483610c5891906124d9565b6001600160a01b03918216600090815260016020908152604080832093909416825291909152205490565b6000612710600c546127106113cc919061251a565b610c5890846124d9565b6000806113e2836113b7565b91506113ed83611379565b9050915091565b6040516370a0823160e01b81523060048201526000907f00000000000000000000000000000000000000000000000000000000000000006001600160a01b0316906370a082319060240160206040518083038186803b15801561145657600080fd5b505afa15801561146a573d6000803e3d6000fd5b505050506040513d601f19601f8201168201806040525081019061148e9190612549565b612710600c546127106114a1919061251a565b6002546114ae91906124d9565b61132391906124f8565b6000612710600c546127106114cd919061251a565b6002546114da91906124d9565b6114e491906124f8565b6040516370a0823160e01b81523060048201527f00000000000000000000000000000000000000000000000000000000000000006001600160a01b0316906370a082319060240160206040518083038186803b15801561154357600080fd5b505afa158015611557573d6000803e3d6000fd5b505050506040513d601f19601f820116820180604052508101906113239190612549565b611583611653565b6001600160a01b0381166115e85760405162461bcd60e51b815260206004820152602660248201527f4f776e61626c653a206e6577206f776e657220697320746865207a65726f206160448201526564647265737360d01b606482015260840161070b565b610c4281611f3f565b6115f9611653565b600d80546001600160a01b038381166001600160a01b031983168117909355604080519190921680825260208201939093527f41d2755f00068d89c23ebc6f1e73ce119a6236a44517ca061f544a3f91c9bca4910161079f565b6005546001600160a01b03610100909104163314610cb85760405162461bcd60e51b815260206004820181905260248201527f4f776e61626c653a2063616c6c6572206973206e6f7420746865206f776e6572604482015260640161070b565b6001600160a01b0383166117155760405162461bcd60e51b8152602060048201526024808201527f45524332303a20617070726f76652066726f6d20746865207a65726f206164646044820152637265737360e01b606482015260840161070b565b6001600160a01b0382166117765760405162461bcd60e51b815260206004820152602260248201527f45524332303a20617070726f766520746f20746865207a65726f206164647265604482015261737360f01b606482015260840161070b565b6001600160a01b0383811660008181526001602090815260408083209487168084529482529182902085905590518481527f8c5be1e5ebec7d5bd14f71427d1e84f3dd0314c0f7b2291e5b200ac8c7c3b925910160405180910390a3505050565b60055460ff1615610cb85760405162461bcd60e51b815260206004820152601060248201526f14185d5cd8589b194e881c185d5cd95960821b604482015260640161070b565b6040516001600160a01b03808516602483015283166044820152606481018290526118889085906323b872dd60e01b906084015b60408051601f198184030181529190526020810180516001600160e01b03166001600160e01b031990931692909217909152611fd6565b50505050565b6001600160a01b0382166118e45760405162461bcd60e51b815260206004820152601f60248201527f45524332303a206d696e7420746f20746865207a65726f206164647265737300604482015260640161070b565b80600260008282546118f69190612531565b90915550506001600160a01b03821660009081526020819052604081208054839290611923908490612531565b90915550506040518181526001600160a01b038316906000907fddf252ad1be2c89b69c2b068fc378daa952ba7f163c4a11628f55a4df523b3ef9060200160405180910390a35050565b6001600160a01b0382166119cd5760405162461bcd60e51b815260206004820152602160248201527f45524332303a206275726e2066726f6d20746865207a65726f206164647265736044820152607360f81b606482015260840161070b565b6001600160a01b03821660009081526020819052604090205481811015611a415760405162461bcd60e51b815260206004820152602260248201527f45524332303a206275726e20616d6f756e7420657863656564732062616c616e604482015261636560f01b606482015260840161070b565b6001600160a01b0383166000908152602081905260408120838303905560028054849290611a7090849061251a565b90915550506040518281526000906001600160a01b038516907fddf252ad1be2c89b69c2b068fc378daa952ba7f163c4a11628f55a4df523b3ef9060200160405180910390a3505050565b6040516001600160a01b038316602482015260448101829052610eda90849063a9059cbb60e01b90606401611851565b6000611af7848461138c565b905060001981146118885781811015611b525760405162461bcd60e51b815260206004820152601d60248201527f45524332303a20696e73756666696369656e7420616c6c6f77616e6365000000604482015260640161070b565b61188884848484036116b3565b6001600160a01b038316611bc35760405162461bcd60e51b815260206004820152602560248201527f45524332303a207472616e736665722066726f6d20746865207a65726f206164604482015264647265737360d81b606482015260840161070b565b6001600160a01b038216611c255760405162461bcd60e51b815260206004820152602360248201527f45524332303a207472616e7366657220746f20746865207a65726f206164647260448201526265737360e81b606482015260840161070b565b6001600160a01b03831660009081526020819052604090205481811015611c9d5760405162461bcd60e51b815260206004820152602660248201527f45524332303a207472616e7366657220616d6f756e7420657863656564732062604482015265616c616e636560d01b606482015260840161070b565b6001600160a01b03808516600090815260208190526040808220858503905591851681529081208054849290611cd4908490612531565b92505081905550826001600160a01b0316846001600160a01b03167fddf252ad1be2c89b69c2b068fc378daa952ba7f163c4a11628f55a4df523b3ef84604051611d2091815260200190565b60405180910390a3611888565b600680546001600160a01b038381166001600160a01b031983168117909355604080519190921680825260208201939093527f6b2e9b3836edd552e454031d349dbf020544e4123c344f1ddb0a7a9a336adef9910161079f565b611d8f6120a8565b6005805460ff191690557f5db9ee0a495bf2e6ff9c91a7834c1ba4fdd244a5e8aa4e537bd38aeae4b073aa335b6040516001600160a01b03909116815260200160405180910390a1565b610e10611de581610dfe565b611e315760405162461bcd60e51b815260206004820152601c60248201527f496e74657276616c3a3a696e74657276616c3a204e6f74207965742e00000000604482015260640161070b565b6000611e3b611295565b1215611e6057600b54600c6000828254611e55919061251a565b90915550611f389050565b6008546001600160a01b03161580611f195750612710600b54600c54600860009054906101000a90046001600160a01b03166001600160a01b031663f384bd056040518163ffffffff1660e01b815260040160206040518083038186803b158015611eca57600080fd5b505afa158015611ede573d6000803e3d6000fd5b505050506040513d601f19601f82011682018060405250810190611f029190612549565b611f0c9190612531565b611f169190612531565b11155b15611f3857600b54600c6000828254611f329190612531565b90915550505b5042600755565b600580546001600160a01b03838116610100818102610100600160a81b031985161790945560405193909204169182907f8be0079c531659141344cd1fd0a4f28419497f9722a3daafe3b4186f6b6457e090600090a35050565b611fa16117d7565b6005805460ff191660011790557f62e78cea01bee320cd4e420270b5ea74000d11b0c9f74754ebdbfc544b05a258611dbc3390565b600061202b826040518060400160405280602081526020017f5361666545524332303a206c6f772d6c6576656c2063616c6c206661696c6564815250856001600160a01b03166120f19092919063ffffffff16565b805190915015610eda57808060200190518101906120499190612578565b610eda5760405162461bcd60e51b815260206004820152602a60248201527f5361666545524332303a204552433230206f7065726174696f6e20646964206e6044820152691bdd081cdd58d8d9595960b21b606482015260840161070b565b60055460ff16610cb85760405162461bcd60e51b815260206004820152601460248201527314185d5cd8589b194e881b9bdd081c185d5cd95960621b604482015260640161070b565b60606121008484600085612108565b949350505050565b6060824710156121695760405162461bcd60e51b815260206004820152602660248201527f416464726573733a20696e73756666696369656e742062616c616e636520666f6044820152651c8818d85b1b60d21b606482015260840161070b565b6001600160a01b0385163b6121c05760405162461bcd60e51b815260206004820152601d60248201527f416464726573733a2063616c6c20746f206e6f6e2d636f6e7472616374000000604482015260640161070b565b600080866001600160a01b031685876040516121dc919061259a565b60006040518083038185875af1925050503d8060008114612219576040519150601f19603f3d011682016040523d82523d6000602084013e61221e565b606091505b509150915061222e828286612239565b979650505050505050565b60608315612248575081610c2a565b8251156122585782518084602001fd5b8160405162461bcd60e51b815260040161070b91906122d9565b6000806040838503121561228557600080fd5b50508035926020909101359150565b6000602082840312156122a657600080fd5b5035919050565b60005b838110156122c85781810151838201526020016122b0565b838111156118885750506000910152565b60208152600082518060208401526122f88160408501602087016122ad565b601f01601f19169190910160400192915050565b80356001600160a01b03811681146112bf57600080fd5b6000806040838503121561233657600080fd5b61233f8361230c565b946020939093013593505050565b60008060006060848603121561236257600080fd5b61236b8461230c565b95602085013595506040909401359392505050565b60008060006060848603121561239557600080fd5b61239e8461230c565b92506123ac6020850161230c565b9150604084013590509250925092565b6000602082840312156123ce57600080fd5b610c2a8261230c565b6000602082840312156123e957600080fd5b813560048110610c2a57600080fd5b6000806040838503121561240b57600080fd5b6124148361230c565b91506124226020840161230c565b90509250929050565b6020808252603f908201527f4f7261636c653a3a6f6e6c794f7261636c654665656465723a2053656e64657260408201527f206d7573742062652073616d65206173205f6f7261636c654665656465722e00606082015260800190565b600181811c9082168061249c57607f821691505b602082108114156124bd57634e487b7160e01b600052602260045260246000fd5b50919050565b634e487b7160e01b600052601160045260246000fd5b60008160001904831182151516156124f3576124f36124c3565b500290565b60008261251557634e487b7160e01b600052601260045260246000fd5b500490565b60008282101561252c5761252c6124c3565b500390565b60008219821115612544576125446124c3565b500190565b60006020828403121561255b57600080fd5b5051919050565b634e487b7160e01b600052602160045260246000fd5b60006020828403121561258a57600080fd5b81518015158114610c2a57600080fd5b600082516125ac8184602087016122ad565b919091019291505056fea2646970667358221220ec00181019d4828e30f63be532a6ed5ee7dac3016bbc27ad643d897ee88a06cc64736f6c634300080900334672616374696f6e616c204f76657220436f6c6c61746572616c697a656420537461626c65636f696e4e6f6e7a65726f3a3a6e6f6e7a65726f416464726573733a204163636f756e74",
  "linkReferences": {},
  "deployedLinkReferences": {}
}