{
  "_format": "hh-sol-artifact-1",
  "contractName": "FOX",
  "sourceName": "contracts/tokens/FOX.sol",
  "abi": [
    {
      "inputs": [
        {
          "internalType": "address",
          "name": "oracleFeeder_",
          "type": "address"
        },
        {
          "internalType": "address",
          "name": "feeTo_",
          "type": "address"
        },
        {
          "internalType": "address",
          "name": "debtToken_",
          "type": "address"
        },
        {
          "internalType": "address",
          "name": "shareToken_",
          "type": "address"
        },
        {
          "internalType": "uint256",
          "name": "mintFeeRatio_",
          "type": "uint256"
        },
        {
          "internalType": "uint256",
          "name": "burnFeeRatio_",
          "type": "uint256"
        },
        {
          "internalType": "uint256",
          "name": "bonusRatio_",
          "type": "uint256"
        }
      ],
      "stateMutability": "nonpayable",
      "type": "constructor"
    },
    {
      "anonymous": false,
      "inputs": [
        {
          "indexed": false,
          "internalType": "address",
          "name": "newAddr",
          "type": "address"
        }
      ],
      "name": "AddAllowlist",
      "type": "event"
    },
    {
      "anonymous": false,
      "inputs": [
        {
          "indexed": false,
          "internalType": "bool",
          "name": "prevAllowAll",
          "type": "bool"
        },
        {
          "indexed": false,
          "internalType": "bool",
          "name": "currAllowAll",
          "type": "bool"
        }
      ],
      "name": "AllowAll",
      "type": "event"
    },
    {
      "anonymous": false,
      "inputs": [
        {
          "indexed": true,
          "internalType": "address",
          "name": "owner",
          "type": "address"
        },
        {
          "indexed": true,
          "internalType": "address",
          "name": "spender",
          "type": "address"
        },
        {
          "indexed": false,
          "internalType": "uint256",
          "name": "value",
          "type": "uint256"
        }
      ],
      "name": "Approval",
      "type": "event"
    },
    {
      "anonymous": false,
      "inputs": [
        {
          "indexed": true,
          "internalType": "address",
          "name": "previousOwner",
          "type": "address"
        },
        {
          "indexed": true,
          "internalType": "address",
          "name": "newOwner",
          "type": "address"
        }
      ],
      "name": "OwnershipTransferred",
      "type": "event"
    },
    {
      "anonymous": false,
      "inputs": [
        {
          "indexed": false,
          "internalType": "address",
          "name": "account",
          "type": "address"
        }
      ],
      "name": "Paused",
      "type": "event"
    },
    {
      "anonymous": false,
      "inputs": [
        {
          "indexed": false,
          "internalType": "address",
          "name": "targetAddr",
          "type": "address"
        }
      ],
      "name": "RemoveAllowlist",
      "type": "event"
    },
    {
      "anonymous": false,
      "inputs": [
        {
          "indexed": false,
          "internalType": "uint256",
          "name": "prevBonusRatio",
          "type": "uint256"
        },
        {
          "indexed": false,
          "internalType": "uint256",
          "name": "currBonusRatio",
          "type": "uint256"
        }
      ],
      "name": "SetBonusRatio",
      "type": "event"
    },
    {
      "anonymous": false,
      "inputs": [
        {
          "indexed": false,
          "internalType": "uint256",
          "name": "prevBurnFeeRatio",
          "type": "uint256"
        },
        {
          "indexed": false,
          "internalType": "uint256",
          "name": "currBurnFeeRatio",
          "type": "uint256"
        }
      ],
      "name": "SetBurnFeeRatio",
      "type": "event"
    },
    {
      "anonymous": false,
      "inputs": [
        {
          "indexed": false,
          "internalType": "address",
          "name": "prevFeeTo",
          "type": "address"
        },
        {
          "indexed": false,
          "internalType": "address",
          "name": "currFeeTo",
          "type": "address"
        }
      ],
      "name": "SetFeeTo",
      "type": "event"
    },
    {
      "anonymous": false,
      "inputs": [
        {
          "indexed": false,
          "internalType": "uint256",
          "name": "prevMintFeeRatio",
          "type": "uint256"
        },
        {
          "indexed": false,
          "internalType": "uint256",
          "name": "currMintFeeRatio",
          "type": "uint256"
        }
      ],
      "name": "SetMintFeeRatio",
      "type": "event"
    },
    {
      "anonymous": false,
      "inputs": [
        {
          "indexed": true,
          "internalType": "address",
          "name": "from",
          "type": "address"
        },
        {
          "indexed": true,
          "internalType": "address",
          "name": "to",
          "type": "address"
        },
        {
          "indexed": false,
          "internalType": "uint256",
          "name": "value",
          "type": "uint256"
        }
      ],
      "name": "Transfer",
      "type": "event"
    },
    {
      "anonymous": false,
      "inputs": [
        {
          "indexed": false,
          "internalType": "address",
          "name": "account",
          "type": "address"
        }
      ],
      "name": "Unpaused",
      "type": "event"
    },
    {
      "anonymous": false,
      "inputs": [
        {
          "indexed": false,
          "internalType": "address",
          "name": "prevOracleFeeder",
          "type": "address"
        },
        {
          "indexed": false,
          "internalType": "address",
          "name": "currOracle",
          "type": "address"
        }
      ],
      "name": "UpdateOracleFeeder",
      "type": "event"
    },
    {
      "anonymous": false,
      "inputs": [
        {
          "indexed": true,
          "internalType": "address",
          "name": "token",
          "type": "address"
        },
        {
          "indexed": false,
          "internalType": "uint256",
          "name": "prevPrice",
          "type": "uint256"
        },
        {
          "indexed": false,
          "internalType": "uint256",
          "name": "currPrice",
          "type": "uint256"
        }
      ],
      "name": "UpdatePrice",
      "type": "event"
    },
    {
      "inputs": [
        {
          "internalType": "address",
          "name": "newAddr",
          "type": "address"
        }
      ],
      "name": "addAllowlist",
      "outputs": [],
      "stateMutability": "nonpayable",
      "type": "function"
    },
    {
      "inputs": [
        {
          "internalType": "address",
          "name": "owner",
          "type": "address"
        },
        {
          "internalType": "address",
          "name": "spender",
          "type": "address"
        }
      ],
      "name": "allowance",
      "outputs": [
        {
          "internalType": "uint256",
          "name": "",
          "type": "uint256"
        }
      ],
      "stateMutability": "view",
      "type": "function"
    },
    {
      "inputs": [
        {
          "internalType": "address",
          "name": "spender",
          "type": "address"
        },
        {
          "internalType": "uint256",
          "name": "amount",
          "type": "uint256"
        }
      ],
      "name": "approve",
      "outputs": [
        {
          "internalType": "bool",
          "name": "",
          "type": "bool"
        }
      ],
      "stateMutability": "nonpayable",
      "type": "function"
    },
    {
      "inputs": [
        {
          "internalType": "address",
          "name": "spender",
          "type": "address"
        }
      ],
      "name": "approveMax",
      "outputs": [],
      "stateMutability": "nonpayable",
      "type": "function"
    },
    {
      "inputs": [
        {
          "internalType": "address",
          "name": "account",
          "type": "address"
        }
      ],
      "name": "balanceOf",
      "outputs": [
        {
          "internalType": "uint256",
          "name": "",
          "type": "uint256"
        }
      ],
      "stateMutability": "view",
      "type": "function"
    },
    {
      "inputs": [
        {
          "internalType": "address",
          "name": "toAccount_",
          "type": "address"
        },
        {
          "internalType": "uint256",
          "name": "shareAmount_",
          "type": "uint256"
        }
      ],
      "name": "buyback",
      "outputs": [
        {
          "internalType": "uint256",
          "name": "debtAmount_",
          "type": "uint256"
        }
      ],
      "stateMutability": "nonpayable",
      "type": "function"
    },
    {
      "inputs": [],
      "name": "currentTrustLevel",
      "outputs": [
        {
          "internalType": "uint256",
          "name": "",
          "type": "uint256"
        }
      ],
      "stateMutability": "view",
      "type": "function"
    },
    {
      "inputs": [],
      "name": "decimals",
      "outputs": [
        {
          "internalType": "uint8",
          "name": "",
          "type": "uint8"
        }
      ],
      "stateMutability": "view",
      "type": "function"
    },
    {
      "inputs": [
        {
          "internalType": "address",
          "name": "spender",
          "type": "address"
        },
        {
          "internalType": "uint256",
          "name": "subtractedValue",
          "type": "uint256"
        }
      ],
      "name": "decreaseAllowance",
      "outputs": [
        {
          "internalType": "bool",
          "name": "",
          "type": "bool"
        }
      ],
      "stateMutability": "nonpayable",
      "type": "function"
    },
    {
      "inputs": [],
      "name": "deltaTrust",
      "outputs": [
        {
          "internalType": "int256",
          "name": "",
          "type": "int256"
        }
      ],
      "stateMutability": "view",
      "type": "function"
    },
    {
      "inputs": [],
      "name": "deltaTrustLevel",
      "outputs": [
        {
          "internalType": "int256",
          "name": "",
          "type": "int256"
        }
      ],
      "stateMutability": "view",
      "type": "function"
    },
    {
      "inputs": [
        {
          "internalType": "uint256",
          "name": "shareAmount_",
          "type": "uint256"
        }
      ],
      "name": "exchangedDebtAmountFromShare",
      "outputs": [
        {
          "internalType": "uint256",
          "name": "debtAmount_",
          "type": "uint256"
        }
      ],
      "stateMutability": "view",
      "type": "function"
    },
    {
      "inputs": [
        {
          "internalType": "uint256",
          "name": "debtAmount_",
          "type": "uint256"
        }
      ],
      "name": "exchangedShareAmountFromDebt",
      "outputs": [
        {
          "internalType": "uint256",
          "name": "shareAmount_",
          "type": "uint256"
        }
      ],
      "stateMutability": "view",
      "type": "function"
    },
    {
      "inputs": [
        {
          "internalType": "uint256",
          "name": "debtAmount_",
          "type": "uint256"
        },
        {
          "internalType": "uint256",
          "name": "shareAmount_",
          "type": "uint256"
        }
      ],
      "name": "expectedMintAmount",
      "outputs": [
        {
          "internalType": "uint256",
          "name": "stableAmount_",
          "type": "uint256"
        }
      ],
      "stateMutability": "view",
      "type": "function"
    },
    {
      "inputs": [
        {
          "internalType": "uint256",
          "name": "stableAmount_",
          "type": "uint256"
        }
      ],
      "name": "expectedRedeemAmount",
      "outputs": [
        {
          "internalType": "uint256",
          "name": "debtAmount_",
          "type": "uint256"
        },
        {
          "internalType": "uint256",
          "name": "shareAmount_",
          "type": "uint256"
        }
      ],
      "stateMutability": "view",
      "type": "function"
    },
    {
      "inputs": [],
      "name": "getSharePrice",
      "outputs": [
        {
          "internalType": "uint256",
          "name": "",
          "type": "uint256"
        }
      ],
      "stateMutability": "view",
      "type": "function"
    },
    {
      "inputs": [],
      "name": "getStablePrice",
      "outputs": [
        {
          "internalType": "uint256",
          "name": "",
          "type": "uint256"
        }
      ],
      "stateMutability": "view",
      "type": "function"
    },
    {
      "inputs": [
        {
          "internalType": "address",
          "name": "spender",
          "type": "address"
        },
        {
          "internalType": "uint256",
          "name": "addedValue",
          "type": "uint256"
        }
      ],
      "name": "increaseAllowance",
      "outputs": [
        {
          "internalType": "bool",
          "name": "",
          "type": "bool"
        }
      ],
      "stateMutability": "nonpayable",
      "type": "function"
    },
    {
      "inputs": [
        {
          "internalType": "address",
          "name": "toAccount_",
          "type": "address"
        },
        {
          "internalType": "uint256",
          "name": "debtAmount_",
          "type": "uint256"
        },
        {
          "internalType": "uint256",
          "name": "shareAmount_",
          "type": "uint256"
        }
      ],
      "name": "mint",
      "outputs": [
        {
          "internalType": "uint256",
          "name": "stableAmount_",
          "type": "uint256"
        }
      ],
      "stateMutability": "nonpayable",
      "type": "function"
    },
    {
      "inputs": [],
      "name": "name",
      "outputs": [
        {
          "internalType": "string",
          "name": "",
          "type": "string"
        }
      ],
      "stateMutability": "view",
      "type": "function"
    },
    {
      "inputs": [],
      "name": "owner",
      "outputs": [
        {
          "internalType": "address",
          "name": "",
          "type": "address"
        }
      ],
      "stateMutability": "view",
      "type": "function"
    },
    {
      "inputs": [],
      "name": "pause",
      "outputs": [],
      "stateMutability": "nonpayable",
      "type": "function"
    },
    {
      "inputs": [],
      "name": "paused",
      "outputs": [
        {
          "internalType": "bool",
          "name": "",
          "type": "bool"
        }
      ],
      "stateMutability": "view",
      "type": "function"
    },
    {
      "inputs": [
        {
          "internalType": "address",
          "name": "toAccount_",
          "type": "address"
        },
        {
          "internalType": "uint256",
          "name": "debtAmount_",
          "type": "uint256"
        }
      ],
      "name": "recollateralize",
      "outputs": [
        {
          "internalType": "uint256",
          "name": "shareAmount_",
          "type": "uint256"
        },
        {
          "internalType": "uint256",
          "name": "bonusAmount_",
          "type": "uint256"
        }
      ],
      "stateMutability": "nonpayable",
      "type": "function"
    },
    {
      "inputs": [
        {
          "internalType": "address",
          "name": "toAccount_",
          "type": "address"
        },
        {
          "internalType": "uint256",
          "name": "stableAmount_",
          "type": "uint256"
        }
      ],
      "name": "redeem",
      "outputs": [
        {
          "internalType": "uint256",
          "name": "debtAmount_",
          "type": "uint256"
        },
        {
          "internalType": "uint256",
          "name": "shareAmount_",
          "type": "uint256"
        }
      ],
      "stateMutability": "nonpayable",
      "type": "function"
    },
    {
      "inputs": [
        {
          "internalType": "address",
          "name": "targetAddr",
          "type": "address"
        }
      ],
      "name": "removeAllowlist",
      "outputs": [],
      "stateMutability": "nonpayable",
      "type": "function"
    },
    {
      "inputs": [],
      "name": "renounceOwnership",
      "outputs": [],
      "stateMutability": "nonpayable",
      "type": "function"
    },
    {
      "inputs": [
        {
          "internalType": "uint256",
          "name": "shareAmount_",
          "type": "uint256"
        }
      ],
      "name": "requiredDebtAmountFromShare",
      "outputs": [
        {
          "internalType": "uint256",
          "name": "",
          "type": "uint256"
        }
      ],
      "stateMutability": "view",
      "type": "function"
    },
    {
      "inputs": [
        {
          "internalType": "uint256",
          "name": "stableAmount_",
          "type": "uint256"
        }
      ],
      "name": "requiredDebtAmountFromStable",
      "outputs": [
        {
          "internalType": "uint256",
          "name": "",
          "type": "uint256"
        }
      ],
      "stateMutability": "view",
      "type": "function"
    },
    {
      "inputs": [
        {
          "internalType": "uint256",
          "name": "debtAmount_",
          "type": "uint256"
        }
      ],
      "name": "requiredShareAmountFromDebt",
      "outputs": [
        {
          "internalType": "uint256",
          "name": "",
          "type": "uint256"
        }
      ],
      "stateMutability": "view",
      "type": "function"
    },
    {
      "inputs": [
        {
          "internalType": "uint256",
          "name": "stableAmount_",
          "type": "uint256"
        }
      ],
      "name": "requiredShareAmountFromStable",
      "outputs": [
        {
          "internalType": "uint256",
          "name": "",
          "type": "uint256"
        }
      ],
      "stateMutability": "view",
      "type": "function"
    },
    {
      "inputs": [
        {
          "internalType": "bool",
          "name": "newAllowAll",
          "type": "bool"
        }
      ],
      "name": "setAllowAll",
      "outputs": [],
      "stateMutability": "nonpayable",
      "type": "function"
    },
    {
      "inputs": [
        {
          "internalType": "uint256",
          "name": "newBonusRatio",
          "type": "uint256"
        }
      ],
      "name": "setBonusRatio",
      "outputs": [],
      "stateMutability": "nonpayable",
      "type": "function"
    },
    {
      "inputs": [
        {
          "internalType": "uint256",
          "name": "newBunrFeeRatio",
          "type": "uint256"
        }
      ],
      "name": "setBurnFeeRatio",
      "outputs": [],
      "stateMutability": "nonpayable",
      "type": "function"
    },
    {
      "inputs": [
        {
          "internalType": "address",
          "name": "newFeeTo",
          "type": "address"
        }
      ],
      "name": "setFeeTo",
      "outputs": [],
      "stateMutability": "nonpayable",
      "type": "function"
    },
    {
      "inputs": [
        {
          "internalType": "uint256",
          "name": "newMintFeeRatio",
          "type": "uint256"
        }
      ],
      "name": "setMintFeeRatio",
      "outputs": [],
      "stateMutability": "nonpayable",
      "type": "function"
    },
    {
      "inputs": [],
      "name": "shortfallRecollateralizeAmount",
      "outputs": [
        {
          "internalType": "uint256",
          "name": "debtAmount_",
          "type": "uint256"
        }
      ],
      "stateMutability": "view",
      "type": "function"
    },
    {
      "inputs": [
        {
          "internalType": "address",
          "name": "toAccount_",
          "type": "address"
        }
      ],
      "name": "skim",
      "outputs": [
        {
          "internalType": "uint256",
          "name": "shareAmount_",
          "type": "uint256"
        }
      ],
      "stateMutability": "nonpayable",
      "type": "function"
    },
    {
      "inputs": [],
      "name": "step",
      "outputs": [
        {
          "internalType": "uint256",
          "name": "",
          "type": "uint256"
        }
      ],
      "stateMutability": "view",
      "type": "function"
    },
    {
      "inputs": [],
      "name": "surplusBuybackAmount",
      "outputs": [
        {
          "internalType": "uint256",
          "name": "debtAmount_",
          "type": "uint256"
        }
      ],
      "stateMutability": "view",
      "type": "function"
    },
    {
      "inputs": [],
      "name": "symbol",
      "outputs": [
        {
          "internalType": "string",
          "name": "",
          "type": "string"
        }
      ],
      "stateMutability": "view",
      "type": "function"
    },
    {
      "inputs": [],
      "name": "totalSupply",
      "outputs": [
        {
          "internalType": "uint256",
          "name": "",
          "type": "uint256"
        }
      ],
      "stateMutability": "view",
      "type": "function"
    },
    {
      "inputs": [
        {
          "internalType": "address",
          "name": "to",
          "type": "address"
        },
        {
          "internalType": "uint256",
          "name": "amount",
          "type": "uint256"
        }
      ],
      "name": "transfer",
      "outputs": [
        {
          "internalType": "bool",
          "name": "",
          "type": "bool"
        }
      ],
      "stateMutability": "nonpayable",
      "type": "function"
    },
    {
      "inputs": [
        {
          "internalType": "address",
          "name": "from",
          "type": "address"
        },
        {
          "internalType": "address",
          "name": "to",
          "type": "address"
        },
        {
          "internalType": "uint256",
          "name": "amount",
          "type": "uint256"
        }
      ],
      "name": "transferFrom",
      "outputs": [
        {
          "internalType": "bool",
          "name": "",
          "type": "bool"
        }
      ],
      "stateMutability": "nonpayable",
      "type": "function"
    },
    {
      "inputs": [
        {
          "internalType": "address",
          "name": "newOwner",
          "type": "address"
        }
      ],
      "name": "transferOwnership",
      "outputs": [],
      "stateMutability": "nonpayable",
      "type": "function"
    },
    {
      "inputs": [],
      "name": "trustLevel",
      "outputs": [
        {
          "internalType": "uint256",
          "name": "",
          "type": "uint256"
        }
      ],
      "stateMutability": "view",
      "type": "function"
    },
    {
      "inputs": [],
      "name": "unpause",
      "outputs": [],
      "stateMutability": "nonpayable",
      "type": "function"
    },
    {
      "inputs": [
        {
          "internalType": "address",
          "name": "newOracleFeeder",
          "type": "address"
        }
      ],
      "name": "updateOracleFeeder",
      "outputs": [],
      "stateMutability": "nonpayable",
      "type": "function"
    },
    {
      "inputs": [
        {
          "internalType": "uint256",
          "name": "newSharePrice",
          "type": "uint256"
        },
        {
          "internalType": "uint256",
          "name": "confidence",
          "type": "uint256"
        }
      ],
      "name": "updateSharePrice",
      "outputs": [],
      "stateMutability": "nonpayable",
      "type": "function"
    },
    {
      "inputs": [
        {
          "internalType": "uint256",
          "name": "newStablePrice",
          "type": "uint256"
        },
        {
          "internalType": "uint256",
          "name": "confidence",
          "type": "uint256"
        }
      ],
      "name": "updateStablePrice",
      "outputs": [],
      "stateMutability": "nonpayable",
      "type": "function"
    },
    {
      "inputs": [
        {
          "internalType": "uint256",
          "name": "newStablePrice",
          "type": "uint256"
        },
        {
          "internalType": "uint256",
          "name": "confidence",
          "type": "uint256"
        }
      ],
      "name": "updateStablePriceWithTrustLevel",
      "outputs": [],
      "stateMutability": "nonpayable",
      "type": "function"
    },
    {
      "inputs": [
        {
          "internalType": "enum IFOX.Step",
          "name": "step_",
          "type": "uint8"
        }
      ],
      "name": "updateStep",
      "outputs": [],
      "stateMutability": "nonpayable",
      "type": "function"
    },
    {
      "inputs": [],
      "name": "updateTrustLevel",
      "outputs": [],
      "stateMutability": "nonpayable",
      "type": "function"
    }
  ],
  "bytecode": "0x60c0604052612710600a55612710600b556000600d553480156200002257600080fd5b5060405162002c3838038062002c38833981016040819052620000459162000378565b8660405180606001604052806029815260200162002bef602991396040518060400160405280600381526020016208c9eb60eb1b815250816003908051906020019062000094929190620002b5565b508051620000aa906004906020840190620002b5565b50506005805460ff1916905550620000c2336200025b565b600680546001600160a01b0319166001600160a01b039283161790554260095587908116620001415760405162461bcd60e51b8152602060048201526031602482015260008051602062002c188339815191526044820152701036bab9ba103132903737b73d32b9379760791b60648201526084015b60405180910390fd5b856001600160a01b038116620001a35760405162461bcd60e51b8152602060048201526031602482015260008051602062002c188339815191526044820152701036bab9ba103132903737b73d32b9379760791b606482015260840162000138565b856001600160a01b038116620002055760405162461bcd60e51b8152602060048201526031602482015260008051602062002c188339815191526044820152701036bab9ba103132903737b73d32b9379760791b606482015260840162000138565b600e80546001600160a01b0319166001600160a01b038b811691909117909155888116608052871660a0526200023e60196004620003f2565b600c55505050600f92909255601055601155506200045d92505050565b600580546001600160a01b03838116610100818102610100600160a81b031985161790945560405193909204169182907f8be0079c531659141344cd1fd0a4f28419497f9722a3daafe3b4186f6b6457e090600090a35050565b828054620002c39062000420565b90600052602060002090601f016020900481019282620002e7576000855562000332565b82601f106200030257805160ff191683800117855562000332565b8280016001018555821562000332579182015b828111156200033257825182559160200191906001019062000315565b506200034092915062000344565b5090565b5b8082111562000340576000815560010162000345565b80516001600160a01b03811681146200037357600080fd5b919050565b600080600080600080600060e0888a0312156200039457600080fd5b6200039f886200035b565b9650620003af602089016200035b565b9550620003bf604089016200035b565b9450620003cf606089016200035b565b93506080880151925060a0880151915060c0880151905092959891949750929550565b60008160001904831182151516156200041b57634e487b7160e01b600052601160045260246000fd5b500290565b600181811c908216806200043557607f821691505b602082108114156200045757634e487b7160e01b600052602260045260246000fd5b50919050565b60805160a051612711620004de600039600081816108e8015281816109d901528181610af301528181610b6201528181610cb601528181610d030152610f9e0152600081816108ab01528181610a9701528181610b2d01528181610c5101528181610ec901528181610fe6015281816113d9015261150c01526127116000f3fe608060405234801561001057600080fd5b50600436106103275760003560e01c8063715018a6116101b8578063bf0b893a11610104578063e1a22dfe116100a2578063ec9e03931161007c578063ec9e0393146106a2578063f280db8a146106aa578063f2fde38b146106b2578063f46901ed146106c557600080fd5b8063e1a22dfe1461067e578063e2036fd014610691578063e25fe1751461069957600080fd5b8063d5aa33d2116100de578063d5aa33d214610632578063db6583e314610645578063dd62ed3e14610658578063de1cf1691461066b57600080fd5b8063bf0b893a1461060e578063cb5f124414610617578063d53839901461061f57600080fd5b80638da5cb5b11610171578063a457c2d71161014b578063a457c2d7146105cd578063a7dbb613146105e0578063a9059cbb146105e8578063bc25cf77146105fb57600080fd5b80638da5cb5b1461058957806390690450146105b257806395d89b41146105c557600080fd5b8063715018a61461053857806375c2f595146105405780637caa481b146105535780638456cb59146105665780638828ad351461056e5780638a8792191461057657600080fd5b80633950935111610277578063571ac8b0116102305780635f6928e21161020a5780635f6928e2146104e15780635f92c30d146104f4578063655f767c146104fc57806370a082311461050f57600080fd5b8063571ac8b0146104bb5780635b1dac60146104ce5780635c975abb146104d657600080fd5b806339509351146104545780633f4ba83a14610467578063423e79791461046f5780634bca39d1146104825780634d7d9c01146104955780634ef8ddb4146104a857600080fd5b806318160ddd116102e457806323b872dd116102be57806323b872dd1461040c578063262daf8e1461041f5780632694d5e714610432578063313ce5671461044557600080fd5b806318160ddd146103c95780631b1da1af146103d15780631e9a6950146103e457600080fd5b806302d525ac1461032c57806304df88621461034157806306fdde0314610354578063095ea7b3146103725780630f77858c14610395578063156e29f6146103a8575b600080fd5b61033f61033a366004612321565b6106d8565b005b61033f61034f366004612343565b61075d565b61035c6107ab565b6040516103699190612388565b60405180910390f35b6103856103803660046123d2565b61083d565b6040519015158152602001610369565b61033f6103a3366004612343565b610855565b6103bb6103b63660046123fc565b61089b565b604051908152602001610369565b6002546103bb565b61033f6103df366004612321565b61098e565b6103f76103f23660046123d2565b610a2e565b60408051928352602083019190915201610369565b61038561041a36600461242f565b610b92565b61033f61042d36600461246b565b610bb8565b6103bb610440366004612343565b610bcc565b60405160128152602001610369565b6103856104623660046123d2565b610bef565b61033f610c11565b6103f761047d3660046123d2565b610c23565b61033f610490366004612343565b610d67565b61033f6104a3366004612494565b610dad565b61033f6104b6366004612321565b610dbe565b61033f6104c936600461246b565b610e41565b6103bb610e4e565b60055460ff16610385565b61033f6104ef36600461246b565b610e94565b6103bb610ea5565b6103bb61050a3660046123d2565b610f64565b6103bb61051d36600461246b565b6001600160a01b031660009081526020819052604090205490565b61033f611015565b6103bb61054e366004612343565b611027565b61033f6105613660046124b1565b61103a565b61033f61112f565b61033f61113f565b6103bb610584366004612321565b61114f565b60055461010090046001600160a01b03166040516001600160a01b039091168152602001610369565b61033f6105c036600461246b565b61120e565b61035c61121f565b6103856105db3660046123d2565b61122e565b6103bb6112b4565b6103856105f63660046123d2565b6112c6565b6103bb61060936600461246b565b6112d4565b6103bb600d5481565b6103bb6112e3565b6103bb61062d366004612343565b6112fa565b6103bb610640366004612343565b611334565b6103bb610653366004612343565b611346565b6103bb6106663660046124d2565b611359565b6103bb610679366004612343565b611384565b6103f761068c366004612343565b6113a3565b6103bb6113c1565b6103bb600c5481565b6103bb611485565b6103bb6114cb565b61033f6106c036600461246b565b61158e565b61033f6106d336600461246b565b611604565b6006546001600160a01b0316336001600160a01b0316146107145760405162461bcd60e51b815260040161070b90612505565b60405180910390fd5b600a805490839055604080518281526020810185905230917f7c3bda8adcb9df1edd0059da351d966538bcc99f067c0770872170ac97fb688791015b60405180910390a2505050565b610765611666565b600f80549082905560408051828152602081018490527f1d35e6551a082a9799480e6fa71f01ca141bdce96131962af7d8505fbfef407891015b60405180910390a15050565b6060600380546107ba90612562565b80601f01602080910402602001604051908101604052809291908181526020018280546107e690612562565b80156108335780601f1061080857610100808354040283529160200191610833565b820191906000526020600020905b81548152906001019060200180831161081657829003601f168201915b5050505050905090565b60003361084b8185856116c6565b5060019392505050565b61085d611666565b601180549082905560408051828152602081018490527fa9c225a7392b607bf3ccd4ffeedf2b9dfbd731451b86645d77f8e9261e5b8444910161079f565b60006108a56117ea565b336108db7f00000000000000000000000000000000000000000000000000000000000000006001600160a01b0316823087611830565b6109106001600160a01b037f000000000000000000000000000000000000000000000000000000000000000016823086611830565b61091a848461114f565b91506000612710600f548461092f91906125b3565b61093991906125d2565b600e549091506001600160a01b03161561097b57600e54610963906001600160a01b0316826118a1565b6109768661097183866125f4565b6118a1565b610985565b61098586846118a1565b50509392505050565b6006546001600160a01b0316336001600160a01b0316146109c15760405162461bcd60e51b815260040161070b90612505565b600b805490839055600a546040516001600160a01b037f000000000000000000000000000000000000000000000000000000000000000016917f7c3bda8adcb9df1edd0059da351d966538bcc99f067c0770872170ac97fb68879161075091858252602082015260400190565b600080610a396117ea565b33610a448185611980565b610a4d846113a3565b600e5491945092506001600160a01b031615610b2057610abf308661271060105487610a7991906125b3565b610a8391906125d2565b610a8d90876125f4565b6001600160a01b037f000000000000000000000000000000000000000000000000000000000000000016929190611830565b610b1b308661271060105486610ad591906125b3565b610adf91906125d2565b610ae990866125f4565b6001600160a01b037f000000000000000000000000000000000000000000000000000000000000000016929190611830565b610b8a565b610b556001600160a01b037f000000000000000000000000000000000000000000000000000000000000000016308786611830565b610b8a6001600160a01b037f000000000000000000000000000000000000000000000000000000000000000016308785611830565b509250929050565b600033610ba0858285611ace565b610bab858585611b42565b60019150505b9392505050565b610bc0611666565b610bc981611d10565b50565b6000612710600b5483610bdf91906125b3565b610be991906125d2565b92915050565b60003361084b818585610c028383611359565b610c0c919061260b565b6116c6565b610c19611666565b610c21611d6a565b565b600080610c2e6117ea565b6000610c386113c1565b905083811015610c485780610c4a565b835b9050610c817f00000000000000000000000000000000000000000000000000000000000000006001600160a01b0316333084611830565b610c8a81611334565b925061271060115484610c9d91906125b3565b610ca791906125d2565b9150610cdd6001600160a01b037f0000000000000000000000000000000000000000000000000000000000000000168685611dbc565b6040516340c10f1960e01b81526001600160a01b038681166004830152602482018590527f000000000000000000000000000000000000000000000000000000000000000016906340c10f1990604401600060405180830381600087803b158015610d4757600080fd5b505af1158015610d5b573d6000803e3d6000fd5b50505050509250929050565b610d6f611666565b601080549082905560408051828152602081018490527fc035e3b986f9c550aedf0774a0d767ebc85da4b25e629006bb36a4e454987e80910161079f565b610db5611666565b610bc981611dec565b6006546001600160a01b0316336001600160a01b031614610df15760405162461bcd60e51b815260040161070b90612505565b600a805490839055604080518281526020810185905230917f7c3bda8adcb9df1edd0059da351d966538bcc99f067c0770872170ac97fb6887910160405180910390a2610e3c611e40565b505050565b610bc933826000196116c6565b60085460009060ff1680610e7157503360009081526007602052604090205460ff165b610e8d5760405162461bcd60e51b815260040161070b90612623565b50600b5490565b610e9c611666565b610bc981611eef565b6000610eb060025490565b6040516370a0823160e01b8152306004820152612710907f00000000000000000000000000000000000000000000000000000000000000006001600160a01b0316906370a082319060240160206040518083038186803b158015610f1357600080fd5b505afa158015610f27573d6000803e3d6000fd5b505050506040513d601f19601f82011682018060405250810190610f4b9190612673565b610f5591906125b3565b610f5f91906125d2565b905090565b6000610f6e6117ea565b6000610f786114cb565b90506000610f8582611334565b905083811015610f955780610f97565b835b9050610fce7f00000000000000000000000000000000000000000000000000000000000000006001600160a01b0316333084611830565b610fd781610bcc565b925061100d6001600160a01b037f0000000000000000000000000000000000000000000000000000000000000000168685611dbc565b505092915050565b61101d611666565b610c216000611f73565b6000600d54600b5483610bdf91906125b3565b611042611666565b60008160038111156110565761105661268c565b1415611064576019600c5550565b60018160038111156110785761107861268c565b14156110905761108a601960026125b3565b600c5550565b60028160038111156110a4576110a461268c565b14156110b65761108a601960036125b3565b60038160038111156110ca576110ca61268c565b14156110dc5761108a601960046125b3565b60405162461bcd60e51b815260206004820152602260248201527f464f583a3a757064617465537465703a204e6f7420612076616c696420737465604482015261381760f11b606482015260840161070b565b611137611666565b610c21611fcd565b611147611666565b610c21611e40565b600080600061115d856112fa565b9050838111156111dc5761117084611027565b9150848211156111d55760405162461bcd60e51b815260206004820152602a60248201527f464f583a3a5f6d696e74496e7465726e616c3a204e6f7420656e6f756768206460448201526932b13a2a37b5b2b7399760b11b606482015260840161070b565b50826111e0565b8491505b612710600b54826111f191906125b3565b6111fb91906125d2565b611205908361260b565b95945050505050565b611216611666565b610bc98161200a565b6060600480546107ba90612562565b6000338161123c8286611359565b90508381101561129c5760405162461bcd60e51b815260206004820152602560248201527f45524332303a2064656372656173656420616c6c6f77616e63652062656c6f77604482015264207a65726f60d81b606482015260840161070b565b6112a982868684036116c6565b506001949350505050565b6000612710600a54610f5f91906125f4565b60003361084b818585611b42565b60006112de6117ea565b919050565b6000600d546112f0610ea5565b610f5f91906125f4565b6000600b54600d5461271061130f91906125f4565b61131991906125b3565b612710600d548461132a91906125b3565b610bdf91906125b3565b600b54600090610bdf612710846125b3565b6000600b54600d5483610bdf91906125b3565b6001600160a01b03918216600090815260016020908152604080832093909416825291909152205490565b6000612710600d5461271061139991906125f4565b610bdf90846125b3565b6000806113af83611384565b91506113ba83611346565b9050915091565b6040516370a0823160e01b81523060048201526000907f00000000000000000000000000000000000000000000000000000000000000006001600160a01b0316906370a082319060240160206040518083038186803b15801561142357600080fd5b505afa158015611437573d6000803e3d6000fd5b505050506040513d601f19601f8201168201806040525081019061145b9190612673565b612710600d5461271061146e91906125f4565b60025461147b91906125b3565b6112f091906125d2565b60085460009060ff16806114a857503360009081526007602052604090205460ff165b6114c45760405162461bcd60e51b815260040161070b90612623565b50600a5490565b6000612710600d546127106114e091906125f4565b6002546114ed91906125b3565b6114f791906125d2565b6040516370a0823160e01b81523060048201527f00000000000000000000000000000000000000000000000000000000000000006001600160a01b0316906370a082319060240160206040518083038186803b15801561155657600080fd5b505afa15801561156a573d6000803e3d6000fd5b505050506040513d601f19601f820116820180604052508101906112f09190612673565b611596611666565b6001600160a01b0381166115fb5760405162461bcd60e51b815260206004820152602660248201527f4f776e61626c653a206e6577206f776e657220697320746865207a65726f206160448201526564647265737360d01b606482015260840161070b565b610bc981611f73565b61160c611666565b600e80546001600160a01b038381166001600160a01b031983168117909355604080519190921680825260208201939093527f41d2755f00068d89c23ebc6f1e73ce119a6236a44517ca061f544a3f91c9bca4910161079f565b6005546001600160a01b03610100909104163314610c215760405162461bcd60e51b815260206004820181905260248201527f4f776e61626c653a2063616c6c6572206973206e6f7420746865206f776e6572604482015260640161070b565b6001600160a01b0383166117285760405162461bcd60e51b8152602060048201526024808201527f45524332303a20617070726f76652066726f6d20746865207a65726f206164646044820152637265737360e01b606482015260840161070b565b6001600160a01b0382166117895760405162461bcd60e51b815260206004820152602260248201527f45524332303a20617070726f766520746f20746865207a65726f206164647265604482015261737360f01b606482015260840161070b565b6001600160a01b0383811660008181526001602090815260408083209487168084529482529182902085905590518481527f8c5be1e5ebec7d5bd14f71427d1e84f3dd0314c0f7b2291e5b200ac8c7c3b925910160405180910390a3505050565b60055460ff1615610c215760405162461bcd60e51b815260206004820152601060248201526f14185d5cd8589b194e881c185d5cd95960821b604482015260640161070b565b6040516001600160a01b038085166024830152831660448201526064810182905261189b9085906323b872dd60e01b906084015b60408051601f198184030181529190526020810180516001600160e01b03166001600160e01b031990931692909217909152612085565b50505050565b6001600160a01b0382166118f75760405162461bcd60e51b815260206004820152601f60248201527f45524332303a206d696e7420746f20746865207a65726f206164647265737300604482015260640161070b565b8060026000828254611909919061260b565b90915550506001600160a01b0382166000908152602081905260408120805483929061193690849061260b565b90915550506040518181526001600160a01b038316906000907fddf252ad1be2c89b69c2b068fc378daa952ba7f163c4a11628f55a4df523b3ef9060200160405180910390a35050565b6001600160a01b0382166119e05760405162461bcd60e51b815260206004820152602160248201527f45524332303a206275726e2066726f6d20746865207a65726f206164647265736044820152607360f81b606482015260840161070b565b6001600160a01b03821660009081526020819052604090205481811015611a545760405162461bcd60e51b815260206004820152602260248201527f45524332303a206275726e20616d6f756e7420657863656564732062616c616e604482015261636560f01b606482015260840161070b565b6001600160a01b0383166000908152602081905260408120838303905560028054849290611a839084906125f4565b90915550506040518281526000906001600160a01b038516907fddf252ad1be2c89b69c2b068fc378daa952ba7f163c4a11628f55a4df523b3ef9060200160405180910390a3505050565b6000611ada8484611359565b9050600019811461189b5781811015611b355760405162461bcd60e51b815260206004820152601d60248201527f45524332303a20696e73756666696369656e7420616c6c6f77616e6365000000604482015260640161070b565b61189b84848484036116c6565b6001600160a01b038316611ba65760405162461bcd60e51b815260206004820152602560248201527f45524332303a207472616e736665722066726f6d20746865207a65726f206164604482015264647265737360d81b606482015260840161070b565b6001600160a01b038216611c085760405162461bcd60e51b815260206004820152602360248201527f45524332303a207472616e7366657220746f20746865207a65726f206164647260448201526265737360e81b606482015260840161070b565b6001600160a01b03831660009081526020819052604090205481811015611c805760405162461bcd60e51b815260206004820152602660248201527f45524332303a207472616e7366657220616d6f756e7420657863656564732062604482015265616c616e636560d01b606482015260840161070b565b6001600160a01b03808516600090815260208190526040808220858503905591851681529081208054849290611cb790849061260b565b92505081905550826001600160a01b0316846001600160a01b03167fddf252ad1be2c89b69c2b068fc378daa952ba7f163c4a11628f55a4df523b3ef84604051611d0391815260200190565b60405180910390a361189b565b600680546001600160a01b038381166001600160a01b031983168117909355604080519190921680825260208201939093527f6b2e9b3836edd552e454031d349dbf020544e4123c344f1ddb0a7a9a336adef9910161079f565b611d72612157565b6005805460ff191690557f5db9ee0a495bf2e6ff9c91a7834c1ba4fdd244a5e8aa4e537bd38aeae4b073aa335b6040516001600160a01b03909116815260200160405180910390a1565b6040516001600160a01b038316602482015260448101829052610e3c90849063a9059cbb60e01b90606401611864565b6008805482151560ff19821681179092556040805160ff9283168015158252929093161515602084015290917fcf5a6e6e80ce33d91b3847410c4b01d12fb1f8dbf62cc9277af33334a61d55ab910161079f565b610e1060095442611e5191906125f4565b8110611e9f5760405162461bcd60e51b815260206004820152601c60248201527f496e74657276616c3a3a696e74657276616c3a204e6f74207965742e00000000604482015260640161070b565b6000611ea96112b4565b1215611ece57600c54600d6000828254611ec391906125f4565b90915550611ee89050565b600c54600d6000828254611ee2919061260b565b90915550505b5042600955565b6001600160a01b03811660009081526007602052604090205460ff16611f33576001600160a01b0381166000908152600760205260409020805460ff191660011790555b6040516001600160a01b03821681527f7a2bbcb3d08b18c304a0e6eb430fcb9f4f68cc1b89e88f128890d75fd5c5e283906020015b60405180910390a150565b600580546001600160a01b03838116610100818102610100600160a81b031985161790945560405193909204169182907f8be0079c531659141344cd1fd0a4f28419497f9722a3daafe3b4186f6b6457e090600090a35050565b611fd56117ea565b6005805460ff191660011790557f62e78cea01bee320cd4e420270b5ea74000d11b0c9f74754ebdbfc544b05a258611d9f3390565b6001600160a01b03811660009081526007602052604090205460ff161561204c576001600160a01b0381166000908152600760205260409020805460ff191690555b6040516001600160a01b03821681527fd34eeb1d267e8bfb11aab9bc3009b72ca96b68103c69fdedfb1fa5fca7e65da890602001611f68565b60006120da826040518060400160405280602081526020017f5361666545524332303a206c6f772d6c6576656c2063616c6c206661696c6564815250856001600160a01b03166121a09092919063ffffffff16565b805190915015610e3c57808060200190518101906120f891906126a2565b610e3c5760405162461bcd60e51b815260206004820152602a60248201527f5361666545524332303a204552433230206f7065726174696f6e20646964206e6044820152691bdd081cdd58d8d9595960b21b606482015260840161070b565b60055460ff16610c215760405162461bcd60e51b815260206004820152601460248201527314185d5cd8589b194e881b9bdd081c185d5cd95960621b604482015260640161070b565b60606121af84846000856121b7565b949350505050565b6060824710156122185760405162461bcd60e51b815260206004820152602660248201527f416464726573733a20696e73756666696369656e742062616c616e636520666f6044820152651c8818d85b1b60d21b606482015260840161070b565b6001600160a01b0385163b61226f5760405162461bcd60e51b815260206004820152601d60248201527f416464726573733a2063616c6c20746f206e6f6e2d636f6e7472616374000000604482015260640161070b565b600080866001600160a01b0316858760405161228b91906126bf565b60006040518083038185875af1925050503d80600081146122c8576040519150601f19603f3d011682016040523d82523d6000602084013e6122cd565b606091505b50915091506122dd8282866122e8565b979650505050505050565b606083156122f7575081610bb1565b8251156123075782518084602001fd5b8160405162461bcd60e51b815260040161070b9190612388565b6000806040838503121561233457600080fd5b50508035926020909101359150565b60006020828403121561235557600080fd5b5035919050565b60005b8381101561237757818101518382015260200161235f565b8381111561189b5750506000910152565b60208152600082518060208401526123a781604085016020870161235c565b601f01601f19169190910160400192915050565b80356001600160a01b03811681146112de57600080fd5b600080604083850312156123e557600080fd5b6123ee836123bb565b946020939093013593505050565b60008060006060848603121561241157600080fd5b61241a846123bb565b95602085013595506040909401359392505050565b60008060006060848603121561244457600080fd5b61244d846123bb565b925061245b602085016123bb565b9150604084013590509250925092565b60006020828403121561247d57600080fd5b610bb1826123bb565b8015158114610bc957600080fd5b6000602082840312156124a657600080fd5b8135610bb181612486565b6000602082840312156124c357600080fd5b813560048110610bb157600080fd5b600080604083850312156124e557600080fd5b6124ee836123bb565b91506124fc602084016123bb565b90509250929050565b6020808252603f908201527f4f7261636c653a3a6f6e6c794f7261636c654665656465723a2053656e64657260408201527f206d7573742062652073616d65206173205f6f7261636c654665656465722e00606082015260800190565b600181811c9082168061257657607f821691505b6020821081141561259757634e487b7160e01b600052602260045260246000fd5b50919050565b634e487b7160e01b600052601160045260246000fd5b60008160001904831182151516156125cd576125cd61259d565b500290565b6000826125ef57634e487b7160e01b600052601260045260246000fd5b500490565b6000828210156126065761260661259d565b500390565b6000821982111561261e5761261e61259d565b500190565b60208082526030908201527f416c6c6f776c6973743a6f6e6c79416c6c6f776c6973743a2053656e6465722060408201526f36bab9ba1031329030b63637bbb2b21760811b606082015260800190565b60006020828403121561268557600080fd5b5051919050565b634e487b7160e01b600052602160045260246000fd5b6000602082840312156126b457600080fd5b8151610bb181612486565b600082516126d181846020870161235c565b919091019291505056fea26469706673582212205d4dd3bbb535a663138fe49c7b3103918a86e2169e3e2bb1d9c8ab3bd9c7258964736f6c634300080900334672616374696f6e616c204f76657220436f6c6c61746572616c697a656420537461626c65636f696e4e6f6e7a65726f3a3a6e6f6e7a65726f416464726573733a204163636f756e74",
  "linkReferences": {},
  "deployedLinkReferences": {}
}