{
  "_format": "hh-sol-artifact-1",
  "contractName": "FoxFarm",
  "sourceName": "contracts/FoxFarm.sol",
  "abi": [
    {
      "inputs": [
        {
          "internalType": "address",
          "name": "oracleFeeder_",
          "type": "address"
        },
        {
          "internalType": "address",
          "name": "feeTo_",
          "type": "address"
        },
        {
          "internalType": "address",
          "name": "collateralToken_",
          "type": "address"
        },
        {
          "internalType": "address",
          "name": "debtToken_",
          "type": "address"
        },
        {
          "internalType": "address",
          "name": "shareToken_",
          "type": "address"
        },
        {
          "internalType": "address",
          "name": "stableToken_",
          "type": "address"
        },
        {
          "internalType": "address",
          "name": "coupon_",
          "type": "address"
        },
        {
          "internalType": "uint256",
          "name": "maxLTV_",
          "type": "uint256"
        },
        {
          "internalType": "uint256",
          "name": "cap_",
          "type": "uint256"
        },
        {
          "internalType": "uint256",
          "name": "feeRatio_",
          "type": "uint256"
        }
      ],
      "stateMutability": "nonpayable",
      "type": "constructor"
    },
    {
      "anonymous": false,
      "inputs": [
        {
          "indexed": true,
          "internalType": "address",
          "name": "owner",
          "type": "address"
        },
        {
          "indexed": true,
          "internalType": "address",
          "name": "approved",
          "type": "address"
        },
        {
          "indexed": true,
          "internalType": "uint256",
          "name": "tokenId",
          "type": "uint256"
        }
      ],
      "name": "Approval",
      "type": "event"
    },
    {
      "anonymous": false,
      "inputs": [
        {
          "indexed": true,
          "internalType": "address",
          "name": "owner",
          "type": "address"
        },
        {
          "indexed": true,
          "internalType": "address",
          "name": "operator",
          "type": "address"
        },
        {
          "indexed": false,
          "internalType": "bool",
          "name": "approved",
          "type": "bool"
        }
      ],
      "name": "ApprovalForAll",
      "type": "event"
    },
    {
      "anonymous": false,
      "inputs": [
        {
          "indexed": true,
          "internalType": "address",
          "name": "account_",
          "type": "address"
        },
        {
          "indexed": true,
          "internalType": "uint256",
          "name": "id_",
          "type": "uint256"
        },
        {
          "indexed": false,
          "internalType": "uint256",
          "name": "amount",
          "type": "uint256"
        }
      ],
      "name": "Borrow",
      "type": "event"
    },
    {
      "anonymous": false,
      "inputs": [
        {
          "indexed": true,
          "internalType": "address",
          "name": "account_",
          "type": "address"
        },
        {
          "indexed": true,
          "internalType": "uint256",
          "name": "id_",
          "type": "uint256"
        }
      ],
      "name": "Close",
      "type": "event"
    },
    {
      "anonymous": false,
      "inputs": [
        {
          "indexed": true,
          "internalType": "address",
          "name": "account_",
          "type": "address"
        },
        {
          "indexed": true,
          "internalType": "uint256",
          "name": "id_",
          "type": "uint256"
        },
        {
          "indexed": false,
          "internalType": "uint256",
          "name": "amount",
          "type": "uint256"
        }
      ],
      "name": "Deposit",
      "type": "event"
    },
    {
      "anonymous": false,
      "inputs": [
        {
          "indexed": true,
          "internalType": "address",
          "name": "account_",
          "type": "address"
        },
        {
          "indexed": true,
          "internalType": "uint256",
          "name": "id_",
          "type": "uint256"
        }
      ],
      "name": "Open",
      "type": "event"
    },
    {
      "anonymous": false,
      "inputs": [
        {
          "indexed": true,
          "internalType": "address",
          "name": "previousOwner",
          "type": "address"
        },
        {
          "indexed": true,
          "internalType": "address",
          "name": "newOwner",
          "type": "address"
        }
      ],
      "name": "OwnershipTransferred",
      "type": "event"
    },
    {
      "anonymous": false,
      "inputs": [
        {
          "indexed": false,
          "internalType": "address",
          "name": "account",
          "type": "address"
        }
      ],
      "name": "Paused",
      "type": "event"
    },
    {
      "anonymous": false,
      "inputs": [
        {
          "indexed": true,
          "internalType": "address",
          "name": "account_",
          "type": "address"
        },
        {
          "indexed": true,
          "internalType": "uint256",
          "name": "id_",
          "type": "uint256"
        },
        {
          "indexed": false,
          "internalType": "uint256",
          "name": "amount",
          "type": "uint256"
        }
      ],
      "name": "Repay",
      "type": "event"
    },
    {
      "anonymous": false,
      "inputs": [
        {
          "indexed": false,
          "internalType": "uint256",
          "name": "prevCap",
          "type": "uint256"
        },
        {
          "indexed": false,
          "internalType": "uint256",
          "name": "currCap",
          "type": "uint256"
        }
      ],
      "name": "SetCap",
      "type": "event"
    },
    {
      "anonymous": false,
      "inputs": [
        {
          "indexed": false,
          "internalType": "uint256",
          "name": "prevFeeRatio",
          "type": "uint256"
        },
        {
          "indexed": false,
          "internalType": "uint256",
          "name": "currFeeRatio",
          "type": "uint256"
        }
      ],
      "name": "SetFeeRatio",
      "type": "event"
    },
    {
      "anonymous": false,
      "inputs": [
        {
          "indexed": false,
          "internalType": "address",
          "name": "prevFeeTo",
          "type": "address"
        },
        {
          "indexed": false,
          "internalType": "address",
          "name": "currFeeTo",
          "type": "address"
        }
      ],
      "name": "SetFeeTo",
      "type": "event"
    },
    {
      "anonymous": false,
      "inputs": [
        {
          "indexed": false,
          "internalType": "uint256",
          "name": "prevMaxLTV",
          "type": "uint256"
        },
        {
          "indexed": false,
          "internalType": "uint256",
          "name": "currMaxLTV",
          "type": "uint256"
        }
      ],
      "name": "SetMaxLTV",
      "type": "event"
    },
    {
      "anonymous": false,
      "inputs": [
        {
          "indexed": true,
          "internalType": "address",
          "name": "from",
          "type": "address"
        },
        {
          "indexed": true,
          "internalType": "address",
          "name": "to",
          "type": "address"
        },
        {
          "indexed": true,
          "internalType": "uint256",
          "name": "tokenId",
          "type": "uint256"
        }
      ],
      "name": "Transfer",
      "type": "event"
    },
    {
      "anonymous": false,
      "inputs": [
        {
          "indexed": false,
          "internalType": "address",
          "name": "account",
          "type": "address"
        }
      ],
      "name": "Unpaused",
      "type": "event"
    },
    {
      "anonymous": false,
      "inputs": [
        {
          "indexed": true,
          "internalType": "uint256",
          "name": "id_",
          "type": "uint256"
        },
        {
          "indexed": false,
          "internalType": "uint256",
          "name": "prevFee",
          "type": "uint256"
        },
        {
          "indexed": false,
          "internalType": "uint256",
          "name": "currFee",
          "type": "uint256"
        },
        {
          "indexed": false,
          "internalType": "uint256",
          "name": "prevTimestamp",
          "type": "uint256"
        },
        {
          "indexed": false,
          "internalType": "uint256",
          "name": "currTimestamp",
          "type": "uint256"
        }
      ],
      "name": "Update",
      "type": "event"
    },
    {
      "anonymous": false,
      "inputs": [
        {
          "indexed": false,
          "internalType": "address",
          "name": "prevOracleFeeder",
          "type": "address"
        },
        {
          "indexed": false,
          "internalType": "address",
          "name": "currOracle",
          "type": "address"
        }
      ],
      "name": "UpdateOracleFeeder",
      "type": "event"
    },
    {
      "anonymous": false,
      "inputs": [
        {
          "indexed": true,
          "internalType": "address",
          "name": "token",
          "type": "address"
        },
        {
          "indexed": false,
          "internalType": "uint256",
          "name": "prevPrice",
          "type": "uint256"
        },
        {
          "indexed": false,
          "internalType": "uint256",
          "name": "currPrice",
          "type": "uint256"
        }
      ],
      "name": "UpdatePrice",
      "type": "event"
    },
    {
      "anonymous": false,
      "inputs": [
        {
          "indexed": true,
          "internalType": "address",
          "name": "account_",
          "type": "address"
        },
        {
          "indexed": true,
          "internalType": "uint256",
          "name": "id_",
          "type": "uint256"
        },
        {
          "indexed": false,
          "internalType": "uint256",
          "name": "amount",
          "type": "uint256"
        }
      ],
      "name": "Withdraw",
      "type": "event"
    },
    {
      "inputs": [
        {
          "internalType": "uint256",
          "name": "",
          "type": "uint256"
        }
      ],
      "name": "_cdps",
      "outputs": [
        {
          "internalType": "uint256",
          "name": "collateral",
          "type": "uint256"
        },
        {
          "internalType": "uint256",
          "name": "debt",
          "type": "uint256"
        },
        {
          "internalType": "uint256",
          "name": "fee",
          "type": "uint256"
        },
        {
          "internalType": "uint256",
          "name": "latestUpdate",
          "type": "uint256"
        }
      ],
      "stateMutability": "view",
      "type": "function"
    },
    {
      "inputs": [
        {
          "internalType": "address",
          "name": "to",
          "type": "address"
        },
        {
          "internalType": "uint256",
          "name": "tokenId",
          "type": "uint256"
        }
      ],
      "name": "approve",
      "outputs": [],
      "stateMutability": "nonpayable",
      "type": "function"
    },
    {
      "inputs": [
        {
          "internalType": "address",
          "name": "owner",
          "type": "address"
        }
      ],
      "name": "balanceOf",
      "outputs": [
        {
          "internalType": "uint256",
          "name": "",
          "type": "uint256"
        }
      ],
      "stateMutability": "view",
      "type": "function"
    },
    {
      "inputs": [
        {
          "internalType": "uint256",
          "name": "id_",
          "type": "uint256"
        },
        {
          "internalType": "uint256",
          "name": "amount_",
          "type": "uint256"
        }
      ],
      "name": "borrow",
      "outputs": [],
      "stateMutability": "nonpayable",
      "type": "function"
    },
    {
      "inputs": [
        {
          "internalType": "address",
          "name": "account_",
          "type": "address"
        },
        {
          "internalType": "uint256",
          "name": "amount_",
          "type": "uint256"
        }
      ],
      "name": "buybackCoupon",
      "outputs": [
        {
          "internalType": "uint256",
          "name": "pid_",
          "type": "uint256"
        },
        {
          "internalType": "uint256",
          "name": "debtAmount_",
          "type": "uint256"
        }
      ],
      "stateMutability": "nonpayable",
      "type": "function"
    },
    {
      "inputs": [
        {
          "internalType": "uint256",
          "name": "id_",
          "type": "uint256"
        },
        {
          "internalType": "uint256",
          "name": "shareAmount_",
          "type": "uint256"
        }
      ],
      "name": "buybackRepayDebt",
      "outputs": [
        {
          "internalType": "uint256",
          "name": "debtAmount_",
          "type": "uint256"
        }
      ],
      "stateMutability": "nonpayable",
      "type": "function"
    },
    {
      "inputs": [
        {
          "internalType": "address",
          "name": "account_",
          "type": "address"
        },
        {
          "internalType": "uint256",
          "name": "id_",
          "type": "uint256"
        },
        {
          "internalType": "uint256",
          "name": "amount_",
          "type": "uint256"
        },
        {
          "internalType": "uint256",
          "name": "ltv_",
          "type": "uint256"
        }
      ],
      "name": "buybackWithdrawCollateral",
      "outputs": [
        {
          "internalType": "uint256",
          "name": "debtAmount_",
          "type": "uint256"
        }
      ],
      "stateMutability": "nonpayable",
      "type": "function"
    },
    {
      "inputs": [
        {
          "internalType": "uint256",
          "name": "collateralAmount_",
          "type": "uint256"
        },
        {
          "internalType": "uint256",
          "name": "debtAmount_",
          "type": "uint256"
        }
      ],
      "name": "calculatedLtv",
      "outputs": [
        {
          "internalType": "uint256",
          "name": "ltv_",
          "type": "uint256"
        }
      ],
      "stateMutability": "view",
      "type": "function"
    },
    {
      "inputs": [],
      "name": "cap",
      "outputs": [
        {
          "internalType": "uint256",
          "name": "",
          "type": "uint256"
        }
      ],
      "stateMutability": "view",
      "type": "function"
    },
    {
      "inputs": [
        {
          "internalType": "uint256",
          "name": "id_",
          "type": "uint256"
        }
      ],
      "name": "cdp",
      "outputs": [
        {
          "components": [
            {
              "internalType": "uint256",
              "name": "collateral",
              "type": "uint256"
            },
            {
              "internalType": "uint256",
              "name": "debt",
              "type": "uint256"
            },
            {
              "internalType": "uint256",
              "name": "fee",
              "type": "uint256"
            },
            {
              "internalType": "uint256",
              "name": "latestUpdate",
              "type": "uint256"
            }
          ],
          "internalType": "struct ICDP.CollateralizedDebtPosition",
          "name": "",
          "type": "tuple"
        }
      ],
      "stateMutability": "view",
      "type": "function"
    },
    {
      "inputs": [
        {
          "internalType": "uint256",
          "name": "id_",
          "type": "uint256"
        }
      ],
      "name": "cdpInfo",
      "outputs": [
        {
          "internalType": "uint256",
          "name": "collateralAmount_",
          "type": "uint256"
        },
        {
          "internalType": "uint256",
          "name": "ltv_",
          "type": "uint256"
        },
        {
          "internalType": "uint256",
          "name": "fee_",
          "type": "uint256"
        }
      ],
      "stateMutability": "view",
      "type": "function"
    },
    {
      "inputs": [
        {
          "internalType": "uint256",
          "name": "id_",
          "type": "uint256"
        }
      ],
      "name": "close",
      "outputs": [],
      "stateMutability": "nonpayable",
      "type": "function"
    },
    {
      "inputs": [
        {
          "internalType": "uint256",
          "name": "debtAmount_",
          "type": "uint256"
        },
        {
          "internalType": "uint256",
          "name": "ltv_",
          "type": "uint256"
        }
      ],
      "name": "collateralAmountFromDebtWithLtv",
      "outputs": [
        {
          "internalType": "uint256",
          "name": "collateralAmount_",
          "type": "uint256"
        }
      ],
      "stateMutability": "view",
      "type": "function"
    },
    {
      "inputs": [],
      "name": "collateralPrice",
      "outputs": [
        {
          "internalType": "uint256",
          "name": "",
          "type": "uint256"
        }
      ],
      "stateMutability": "view",
      "type": "function"
    },
    {
      "inputs": [],
      "name": "collateralToken",
      "outputs": [
        {
          "internalType": "address",
          "name": "",
          "type": "address"
        }
      ],
      "stateMutability": "view",
      "type": "function"
    },
    {
      "inputs": [
        {
          "internalType": "uint256",
          "name": "id_",
          "type": "uint256"
        }
      ],
      "name": "currentLTV",
      "outputs": [
        {
          "internalType": "uint256",
          "name": "ltv_",
          "type": "uint256"
        }
      ],
      "stateMutability": "view",
      "type": "function"
    },
    {
      "inputs": [
        {
          "internalType": "uint256",
          "name": "collateralAmount_",
          "type": "uint256"
        },
        {
          "internalType": "uint256",
          "name": "ltv_",
          "type": "uint256"
        }
      ],
      "name": "debtAmountFromCollateralToLtv",
      "outputs": [
        {
          "internalType": "uint256",
          "name": "debtAmount_",
          "type": "uint256"
        }
      ],
      "stateMutability": "view",
      "type": "function"
    },
    {
      "inputs": [],
      "name": "debtToken",
      "outputs": [
        {
          "internalType": "address",
          "name": "",
          "type": "address"
        }
      ],
      "stateMutability": "view",
      "type": "function"
    },
    {
      "inputs": [
        {
          "internalType": "uint256",
          "name": "id_",
          "type": "uint256"
        },
        {
          "internalType": "uint256",
          "name": "amount_",
          "type": "uint256"
        }
      ],
      "name": "deposit",
      "outputs": [],
      "stateMutability": "nonpayable",
      "type": "function"
    },
    {
      "inputs": [
        {
          "internalType": "uint256",
          "name": "id_",
          "type": "uint256"
        },
        {
          "internalType": "uint256",
          "name": "depositAmount_",
          "type": "uint256"
        },
        {
          "internalType": "uint256",
          "name": "borrowAmount_",
          "type": "uint256"
        }
      ],
      "name": "depositAndBorrow",
      "outputs": [],
      "stateMutability": "nonpayable",
      "type": "function"
    },
    {
      "inputs": [
        {
          "internalType": "uint256",
          "name": "tokenId",
          "type": "uint256"
        }
      ],
      "name": "getApproved",
      "outputs": [
        {
          "internalType": "address",
          "name": "",
          "type": "address"
        }
      ],
      "stateMutability": "view",
      "type": "function"
    },
    {
      "inputs": [],
      "name": "globalHealthFactor",
      "outputs": [
        {
          "internalType": "uint256",
          "name": "health",
          "type": "uint256"
        }
      ],
      "stateMutability": "view",
      "type": "function"
    },
    {
      "inputs": [],
      "name": "globalLTV",
      "outputs": [
        {
          "internalType": "uint256",
          "name": "ltv_",
          "type": "uint256"
        }
      ],
      "stateMutability": "view",
      "type": "function"
    },
    {
      "inputs": [],
      "name": "globalLiquidate",
      "outputs": [],
      "stateMutability": "nonpayable",
      "type": "function"
    },
    {
      "inputs": [
        {
          "internalType": "uint256",
          "name": "id_",
          "type": "uint256"
        }
      ],
      "name": "healthFactor",
      "outputs": [
        {
          "internalType": "uint256",
          "name": "health",
          "type": "uint256"
        }
      ],
      "stateMutability": "view",
      "type": "function"
    },
    {
      "inputs": [],
      "name": "id",
      "outputs": [
        {
          "internalType": "uint256",
          "name": "",
          "type": "uint256"
        }
      ],
      "stateMutability": "view",
      "type": "function"
    },
    {
      "inputs": [],
      "name": "initialize",
      "outputs": [],
      "stateMutability": "nonpayable",
      "type": "function"
    },
    {
      "inputs": [
        {
          "internalType": "address",
          "name": "owner",
          "type": "address"
        },
        {
          "internalType": "address",
          "name": "operator",
          "type": "address"
        }
      ],
      "name": "isApprovedForAll",
      "outputs": [
        {
          "internalType": "bool",
          "name": "",
          "type": "bool"
        }
      ],
      "stateMutability": "view",
      "type": "function"
    },
    {
      "inputs": [
        {
          "internalType": "uint256",
          "name": "id_",
          "type": "uint256"
        }
      ],
      "name": "isSafe",
      "outputs": [
        {
          "internalType": "bool",
          "name": "",
          "type": "bool"
        }
      ],
      "stateMutability": "view",
      "type": "function"
    },
    {
      "inputs": [
        {
          "internalType": "uint256",
          "name": "id_",
          "type": "uint256"
        }
      ],
      "name": "liquidate",
      "outputs": [],
      "stateMutability": "nonpayable",
      "type": "function"
    },
    {
      "inputs": [],
      "name": "maxLTV",
      "outputs": [
        {
          "internalType": "uint256",
          "name": "",
          "type": "uint256"
        }
      ],
      "stateMutability": "view",
      "type": "function"
    },
    {
      "inputs": [],
      "name": "minimumCollateral",
      "outputs": [
        {
          "internalType": "uint256",
          "name": "",
          "type": "uint256"
        }
      ],
      "stateMutability": "view",
      "type": "function"
    },
    {
      "inputs": [
        {
          "internalType": "uint256",
          "name": "id_",
          "type": "uint256"
        },
        {
          "internalType": "uint256",
          "name": "depositAmount_",
          "type": "uint256"
        },
        {
          "internalType": "uint256",
          "name": "borrowAmount_",
          "type": "uint256"
        }
      ],
      "name": "mint",
      "outputs": [],
      "stateMutability": "nonpayable",
      "type": "function"
    },
    {
      "inputs": [],
      "name": "name",
      "outputs": [
        {
          "internalType": "string",
          "name": "",
          "type": "string"
        }
      ],
      "stateMutability": "view",
      "type": "function"
    },
    {
      "inputs": [],
      "name": "open",
      "outputs": [
        {
          "internalType": "uint256",
          "name": "id_",
          "type": "uint256"
        }
      ],
      "stateMutability": "nonpayable",
      "type": "function"
    },
    {
      "inputs": [
        {
          "internalType": "uint256",
          "name": "amount_",
          "type": "uint256"
        }
      ],
      "name": "openAndDeposit",
      "outputs": [
        {
          "internalType": "uint256",
          "name": "id_",
          "type": "uint256"
        }
      ],
      "stateMutability": "nonpayable",
      "type": "function"
    },
    {
      "inputs": [
        {
          "internalType": "uint256",
          "name": "depositAmount_",
          "type": "uint256"
        },
        {
          "internalType": "uint256",
          "name": "borrowAmount_",
          "type": "uint256"
        }
      ],
      "name": "openAndDepositAndBorrow",
      "outputs": [
        {
          "internalType": "uint256",
          "name": "id_",
          "type": "uint256"
        }
      ],
      "stateMutability": "nonpayable",
      "type": "function"
    },
    {
      "inputs": [],
      "name": "owner",
      "outputs": [
        {
          "internalType": "address",
          "name": "",
          "type": "address"
        }
      ],
      "stateMutability": "view",
      "type": "function"
    },
    {
      "inputs": [
        {
          "internalType": "uint256",
          "name": "tokenId",
          "type": "uint256"
        }
      ],
      "name": "ownerOf",
      "outputs": [
        {
          "internalType": "address",
          "name": "",
          "type": "address"
        }
      ],
      "stateMutability": "view",
      "type": "function"
    },
    {
      "inputs": [
        {
          "internalType": "uint256",
          "name": "cid_",
          "type": "uint256"
        },
        {
          "internalType": "uint256",
          "name": "pid_",
          "type": "uint256"
        }
      ],
      "name": "pairAnnihilation",
      "outputs": [],
      "stateMutability": "nonpayable",
      "type": "function"
    },
    {
      "inputs": [],
      "name": "pause",
      "outputs": [],
      "stateMutability": "nonpayable",
      "type": "function"
    },
    {
      "inputs": [],
      "name": "paused",
      "outputs": [
        {
          "internalType": "bool",
          "name": "",
          "type": "bool"
        }
      ],
      "stateMutability": "view",
      "type": "function"
    },
    {
      "inputs": [
        {
          "internalType": "address",
          "name": "account_",
          "type": "address"
        },
        {
          "internalType": "uint256",
          "name": "id_",
          "type": "uint256"
        },
        {
          "internalType": "uint256",
          "name": "collateralAmount_",
          "type": "uint256"
        },
        {
          "internalType": "uint256",
          "name": "ltv_",
          "type": "uint256"
        }
      ],
      "name": "recollateralize",
      "outputs": [
        {
          "internalType": "uint256",
          "name": "shareAmount_",
          "type": "uint256"
        },
        {
          "internalType": "uint256",
          "name": "bonusAmount_",
          "type": "uint256"
        }
      ],
      "stateMutability": "nonpayable",
      "type": "function"
    },
    {
      "inputs": [
        {
          "internalType": "uint256",
          "name": "id_",
          "type": "uint256"
        },
        {
          "internalType": "uint256",
          "name": "repayAmount_",
          "type": "uint256"
        },
        {
          "internalType": "uint256",
          "name": "withdrawAmount_",
          "type": "uint256"
        }
      ],
      "name": "redeem",
      "outputs": [],
      "stateMutability": "nonpayable",
      "type": "function"
    },
    {
      "inputs": [],
      "name": "renounceOwnership",
      "outputs": [],
      "stateMutability": "nonpayable",
      "type": "function"
    },
    {
      "inputs": [
        {
          "internalType": "uint256",
          "name": "id_",
          "type": "uint256"
        },
        {
          "internalType": "uint256",
          "name": "amount_",
          "type": "uint256"
        }
      ],
      "name": "repay",
      "outputs": [],
      "stateMutability": "nonpayable",
      "type": "function"
    },
    {
      "inputs": [
        {
          "internalType": "uint256",
          "name": "id_",
          "type": "uint256"
        },
        {
          "internalType": "uint256",
          "name": "repayAmount_",
          "type": "uint256"
        },
        {
          "internalType": "uint256",
          "name": "withdrawAmount_",
          "type": "uint256"
        }
      ],
      "name": "repayAndWithdraw",
      "outputs": [],
      "stateMutability": "nonpayable",
      "type": "function"
    },
    {
      "inputs": [
        {
          "internalType": "address",
          "name": "from",
          "type": "address"
        },
        {
          "internalType": "address",
          "name": "to",
          "type": "address"
        },
        {
          "internalType": "uint256",
          "name": "tokenId",
          "type": "uint256"
        }
      ],
      "name": "safeTransferFrom",
      "outputs": [],
      "stateMutability": "nonpayable",
      "type": "function"
    },
    {
      "inputs": [
        {
          "internalType": "address",
          "name": "from",
          "type": "address"
        },
        {
          "internalType": "address",
          "name": "to",
          "type": "address"
        },
        {
          "internalType": "uint256",
          "name": "tokenId",
          "type": "uint256"
        },
        {
          "internalType": "bytes",
          "name": "data",
          "type": "bytes"
        }
      ],
      "name": "safeTransferFrom",
      "outputs": [],
      "stateMutability": "nonpayable",
      "type": "function"
    },
    {
      "inputs": [
        {
          "internalType": "address",
          "name": "operator",
          "type": "address"
        },
        {
          "internalType": "bool",
          "name": "approved",
          "type": "bool"
        }
      ],
      "name": "setApprovalForAll",
      "outputs": [],
      "stateMutability": "nonpayable",
      "type": "function"
    },
    {
      "inputs": [
        {
          "internalType": "uint256",
          "name": "newCap",
          "type": "uint256"
        }
      ],
      "name": "setCap",
      "outputs": [],
      "stateMutability": "nonpayable",
      "type": "function"
    },
    {
      "inputs": [
        {
          "internalType": "uint256",
          "name": "newFeeRatio",
          "type": "uint256"
        }
      ],
      "name": "setFeeRatio",
      "outputs": [],
      "stateMutability": "nonpayable",
      "type": "function"
    },
    {
      "inputs": [
        {
          "internalType": "address",
          "name": "newFeeTo",
          "type": "address"
        }
      ],
      "name": "setFeeTo",
      "outputs": [],
      "stateMutability": "nonpayable",
      "type": "function"
    },
    {
      "inputs": [
        {
          "internalType": "uint256",
          "name": "newMaxLTV",
          "type": "uint256"
        }
      ],
      "name": "setMaxLTV",
      "outputs": [],
      "stateMutability": "nonpayable",
      "type": "function"
    },
    {
      "inputs": [
        {
          "internalType": "bytes4",
          "name": "interfaceId",
          "type": "bytes4"
        }
      ],
      "name": "supportsInterface",
      "outputs": [
        {
          "internalType": "bool",
          "name": "",
          "type": "bool"
        }
      ],
      "stateMutability": "view",
      "type": "function"
    },
    {
      "inputs": [],
      "name": "symbol",
      "outputs": [
        {
          "internalType": "string",
          "name": "",
          "type": "string"
        }
      ],
      "stateMutability": "view",
      "type": "function"
    },
    {
      "inputs": [
        {
          "internalType": "uint256",
          "name": "tokenId",
          "type": "uint256"
        }
      ],
      "name": "tokenURI",
      "outputs": [
        {
          "internalType": "string",
          "name": "",
          "type": "string"
        }
      ],
      "stateMutability": "view",
      "type": "function"
    },
    {
      "inputs": [],
      "name": "totalCollateral",
      "outputs": [
        {
          "internalType": "uint256",
          "name": "",
          "type": "uint256"
        }
      ],
      "stateMutability": "view",
      "type": "function"
    },
    {
      "inputs": [],
      "name": "totalDebt",
      "outputs": [
        {
          "internalType": "uint256",
          "name": "",
          "type": "uint256"
        }
      ],
      "stateMutability": "view",
      "type": "function"
    },
    {
      "inputs": [],
      "name": "totalFee",
      "outputs": [
        {
          "internalType": "uint256",
          "name": "",
          "type": "uint256"
        }
      ],
      "stateMutability": "view",
      "type": "function"
    },
    {
      "inputs": [
        {
          "internalType": "address",
          "name": "from",
          "type": "address"
        },
        {
          "internalType": "address",
          "name": "to",
          "type": "address"
        },
        {
          "internalType": "uint256",
          "name": "tokenId",
          "type": "uint256"
        }
      ],
      "name": "transferFrom",
      "outputs": [],
      "stateMutability": "nonpayable",
      "type": "function"
    },
    {
      "inputs": [
        {
          "internalType": "address",
          "name": "newOwner",
          "type": "address"
        }
      ],
      "name": "transferOwnership",
      "outputs": [],
      "stateMutability": "nonpayable",
      "type": "function"
    },
    {
      "inputs": [],
      "name": "unpause",
      "outputs": [],
      "stateMutability": "nonpayable",
      "type": "function"
    },
    {
      "inputs": [
        {
          "internalType": "uint256",
          "name": "newCollateralPrice",
          "type": "uint256"
        },
        {
          "internalType": "uint256",
          "name": "confidence",
          "type": "uint256"
        }
      ],
      "name": "updateCollateralPrice",
      "outputs": [],
      "stateMutability": "nonpayable",
      "type": "function"
    },
    {
      "inputs": [
        {
          "internalType": "uint256",
          "name": "id_",
          "type": "uint256"
        }
      ],
      "name": "updateFee",
      "outputs": [
        {
          "internalType": "uint256",
          "name": "additionalFee",
          "type": "uint256"
        }
      ],
      "stateMutability": "nonpayable",
      "type": "function"
    },
    {
      "inputs": [
        {
          "internalType": "address",
          "name": "newOracleFeeder",
          "type": "address"
        }
      ],
      "name": "updateOracleFeeder",
      "outputs": [],
      "stateMutability": "nonpayable",
      "type": "function"
    },
    {
      "inputs": [
        {
          "internalType": "uint256",
          "name": "id_",
          "type": "uint256"
        },
        {
          "internalType": "uint256",
          "name": "amount_",
          "type": "uint256"
        }
      ],
      "name": "withdraw",
      "outputs": [],
      "stateMutability": "nonpayable",
      "type": "function"
    }
  ],
  "bytecode": "0x6101206040526175306008553480156200001857600080fd5b50604051620049ca380380620049ca8339810160408190526200003b9162000561565b6040518060400160405280600b81526020016a0466f784661726d204344560ac1b8152506040518060400160405280600381526020016204344560ec1b8152508b8b8b8b88888886898981600090805190602001906200009d9291906200049e565b508051620000b39060019060208401906200049e565b50506006805460ff1916905550620000cb336200037c565b600780546001600160a01b03199081166001600160a01b0393841617909155600b80549091169782169790971790965593851660805291841660a052600955600a55600c558d93508316151591506200017190505760405162461bcd60e51b81526020600482015260316024820152600080516020620049aa83398151915260448201526000805160206200498a83398151915260648201526084015b60405180910390fd5b886001600160a01b038116620001ce5760405162461bcd60e51b81526020600482015260316024820152600080516020620049aa83398151915260448201526000805160206200498a833981519152606482015260840162000168565b886001600160a01b0381166200022b5760405162461bcd60e51b81526020600482015260316024820152600080516020620049aa83398151915260448201526000805160206200498a833981519152606482015260840162000168565b886001600160a01b038116620002885760405162461bcd60e51b81526020600482015260316024820152600080516020620049aa83398151915260448201526000805160206200498a833981519152606482015260840162000168565b886001600160a01b038116620002e55760405162461bcd60e51b81526020600482015260316024820152600080516020620049aa83398151915260448201526000805160206200498a833981519152606482015260840162000168565b886001600160a01b038116620003425760405162461bcd60e51b81526020600482015260316024820152600080516020620049aa83398151915260448201526000805160206200498a833981519152606482015260840162000168565b6001600160a01b03808d1660c0528b811660e0528a166101005262000366620003d6565b5050505050505050505050505050505062000652565b600680546001600160a01b03838116610100818102610100600160a81b031985161790945560405193909204169182907f8be0079c531659141344cd1fd0a4f28419497f9722a3daafe3b4186f6b6457e090600090a35050565b60a05160e051604051630571ac8b60e41b81526001600160a01b03918216600482015291169063571ac8b090602401600060405180830381600087803b1580156200042057600080fd5b505af115801562000435573d6000803e3d6000fd5b505060c05160e051604051630571ac8b60e41b81526001600160a01b0391821660048201529116925063571ac8b09150602401600060405180830381600087803b1580156200048357600080fd5b505af115801562000498573d6000803e3d6000fd5b50505050565b828054620004ac9062000615565b90600052602060002090601f016020900481019282620004d057600085556200051b565b82601f10620004eb57805160ff19168380011785556200051b565b828001600101855582156200051b579182015b828111156200051b578251825591602001919060010190620004fe565b50620005299291506200052d565b5090565b5b808211156200052957600081556001016200052e565b80516001600160a01b03811681146200055c57600080fd5b919050565b6000806000806000806000806000806101408b8d0312156200058257600080fd5b6200058d8b62000544565b99506200059d60208c0162000544565b9850620005ad60408c0162000544565b9750620005bd60608c0162000544565b9650620005cd60808c0162000544565b9550620005dd60a08c0162000544565b9450620005ed60c08c0162000544565b935060e08b015192506101008b015191506101208b015190509295989b9194979a5092959850565b600181811c908216806200062a57607f821691505b602082108114156200064c57634e487b7160e01b600052602260045260246000fd5b50919050565b60805160a05160c05160e0516101005161422f6200075b60003960008181610cf601526110c6015260008181611012015281816113730152818161157701528181611610015281816117f101528181611b5d015281816120cd015281816121730152818161225c015281816126650152818161299101526129ea015260008181610fce0152818161163801528181611b11015281816121ff0152612a810152600081816109380152818161159f01528181612dd601528181612e0f01528181612e5b01528181612e9b01528181612f1501528181613017015281816131d601526132a101526000818161075901528181611df301528181611fdc0152612af6015261422f6000f3fe608060405234801561001057600080fd5b50600436106103f15760003560e01c8063715018a611610215578063bc71054e11610125578063e985e9c5116100b8578063f384bd0511610087578063f384bd051461091a578063f46901ed14610923578063f8d8989814610936578063fc7b9c181461095c578063fcfff16f1461096557600080fd5b8063e985e9c5146108a5578063ee50e50b146108e1578063efb2654d146108f4578063f2fde38b1461090757600080fd5b8063c990596d116100f4578063c990596d14610864578063d8aed14514610877578063dd8a04b31461088a578063e2bbb1581461089257600080fd5b8063bc71054e146107d6578063be9757a0146107e9578063c4844493146107fc578063c87b56dd1461085157600080fd5b80639f123698116101a8578063b819220511610177578063b81922051461077d578063b88d4fde14610790578063babe7c74146107a3578063bb23c737146107b0578063bc61c460146107c357600080fd5b80639f12369814610728578063a22cb4651461073b578063af640d0f1461074e578063b2016bd41461075757600080fd5b80638da5cb5b116101e45780638da5cb5b146106e45780639012c4a8146106fa57806395d89b411461070d5780639760a42b1461071557600080fd5b8063715018a61461069e57806371f834e5146106a65780638129fc1c146106d45780638456cb59146106dc57600080fd5b80632e2ddd4511610310578063441a3e70116102a3578063571e5d2411610272578063571e5d24146106525780635891de72146106655780635c975abb1461066d5780636352211e1461067857806370a082311461068b57600080fd5b8063441a3e701461061057806347786d37146106235780634ac8eb5f146106365780634cb9c24a1461063f57600080fd5b806336bdbb13116102df57806336bdbb13146105da5780633f4ba83a146105e2578063415f1240146105ea57806342842e0e146105fd57600080fd5b80632e2ddd45146105835780632f297daa1461059657806333577114146105be578063355274ea146105d157600080fd5b80630b068e9c116103885780631df4ccfc116103575780631df4ccfc1461054157806323b872dd1461054a578063262daf8e1461055d5780632905f9cd1461057057600080fd5b80630b068e9c146104c25780630ecbcdab146104d5578063134bbd7b146104e857806319f4ff2f1461052e57600080fd5b8063083dd51b116103c4578063083dd51b1461047357806308a0c37514610489578063095ea7b31461049c5780630aebeb4e146104af57600080fd5b806301ffc9a7146103f657806302acc94b1461041e57806306fdde0314610433578063081812fc14610448575b600080fd5b610409610404366004613b93565b61096d565b60405190151581526020015b60405180910390f35b61043161042c366004613bb0565b6109bf565b005b61043b610a58565b6040516104159190613c34565b61045b610456366004613c47565b610aea565b6040516001600160a01b039091168152602001610415565b61047b610b11565b604051908152602001610415565b610431610497366004613c47565b610b26565b6104316104aa366004613c77565b610b74565b6104316104bd366004613c47565b610c85565b6104316104d0366004613ca1565b610cca565b6104316104e3366004613ca1565b610de9565b6104fb6104f6366004613c47565b610e2f565b60405161041591908151815260208083015190820152604080830151908201526060918201519181019190915260800190565b61043161053c366004613c47565b610e9f565b61047b60115481565b610431610558366004613cc3565b610ee5565b61043161056b366004613cff565b610f16565b61047b61057e366004613ca1565b610f2a565b610431610591366004613bb0565b610f62565b6105a96105a4366004613c77565b610f8c565b60408051928352602083019190915201610415565b61047b6105cc366004613c47565b61114d565b61047b600a5481565b6104316111b8565b6104316111ca565b6104316105f8366004613c47565b6111da565b61043161060b366004613cc3565b611255565b61043161061e366004613ca1565b611270565b610431610631366004613c47565b6112b6565b61047b600f5481565b61040961064d366004613c47565b6112fc565b61047b610660366004613ca1565b611311565b60085461047b565b60065460ff16610409565b61045b610686366004613c47565b61140b565b61047b610699366004613cff565b61146b565b6104316114f1565b6106b96106b4366004613c47565b611503565b60408051938452602084019290925290820152606001610415565b610431611560565b610431611692565b60065461010090046001600160a01b031661045b565b61047b610708366004613c47565b6116a2565b61043b6116ad565b610431610723366004613bb0565b6116bc565b6105a9610736366004613d1a565b611715565b610431610749366004613d61565b61187e565b61047b600e5481565b7f000000000000000000000000000000000000000000000000000000000000000061045b565b61043161078b366004613bb0565b611889565b61043161079e366004613dae565b6118f7565b6611c37937e0800061047b565b61047b6107be366004613c47565b611929565b61047b6107d1366004613ca1565b61195a565b61047b6107e4366004613c47565b611977565b61047b6107f7366004613ca1565b611a16565b61083161080a366004613c47565b600d6020526000908152604090208054600182015460028301546003909301549192909184565b604080519485526020850193909352918301526060820152608001610415565b61043b61085f366004613c47565b611a33565b61047b610872366004613d1a565b611aa6565b610431610885366004613ca1565b611c68565b61047b611c86565b6104316108a0366004613ca1565b611d00565b6104096108b3366004613e8a565b6001600160a01b03918216600090815260056020908152604080832093909416825291909152205460ff1690565b61047b6108ef366004613ca1565b611d1c565b610431610902366004613ca1565b611d52565b610431610915366004613cff565b611e4c565b61047b60095481565b610431610931366004613cff565b611ec2565b7f000000000000000000000000000000000000000000000000000000000000000061045b565b61047b60105481565b61047b611f24565b60006001600160e01b031982166380ac58cd60e01b148061099e57506001600160e01b03198216635b5e139f60e01b145b806109b957506301ffc9a760e01b6001600160e01b03198316145b92915050565b6109c7611f48565b600e548310156109ed576109dd335b8484611f8e565b6109e83384836120b4565b505050565b336109f7846122d8565b50610a028185612405565b610a275760405162461bcd60e51b8152600401610a1e90613ebd565b60405180910390fd5b610a3081612484565b9350610a3b846122d8565b50610a47818585611f8e565b610a528185846120b4565b50505050565b606060008054610a6790613f0d565b80601f0160208091040260200160405190810160405280929190818152602001828054610a9390613f0d565b8015610ae05780601f10610ab557610100808354040283529160200191610ae0565b820191906000526020600020905b815481529060010190602001808311610ac357829003601f168201915b5050505050905090565b6000610af582612509565b506000908152600460205260409020546001600160a01b031690565b6000610b21601054600f54611a16565b905090565b610b2e612568565b600980549082905560408051828152602081018490527fe796e9ae748449310fcd1cc6718aab236c9b8d2e0e04dacb232ba564d5b338cc91015b60405180910390a15050565b6000610b7f8261140b565b9050806001600160a01b0316836001600160a01b03161415610bed5760405162461bcd60e51b815260206004820152602160248201527f4552433732313a20617070726f76616c20746f2063757272656e74206f776e656044820152603960f91b6064820152608401610a1e565b336001600160a01b0382161480610c095750610c0981336108b3565b610c7b5760405162461bcd60e51b815260206004820152603e60248201527f4552433732313a20617070726f76652063616c6c6572206973206e6f7420746f60448201527f6b656e206f776e6572206e6f7220617070726f76656420666f7220616c6c00006064820152608401610a1e565b6109e883836125c8565b80610c8f816122d8565b50610c98611f48565b3382610ca48282612405565b610cc05760405162461bcd60e51b8152600401610a1e90613ebd565b610a523385612636565b81610cd4816122d8565b50610cdd611f48565b604051630852cd8d60e31b8152600481018390526000907f00000000000000000000000000000000000000000000000000000000000000006001600160a01b0316906342966c68906024016040805180830381600087803b158015610d4157600080fd5b505af1158015610d55573d6000803e3d6000fd5b505050506040513d601f19601f82011682018060405250810190610d799190613f42565b6000868152600d60205260409020600281015491935091508211610db65781816002016000828254610dab9190613f7c565b90915550610de29050565b600060028201819055610dc99083613f7c565b816001016000828254610ddc9190613f7c565b90915550505b5050505050565b81610df3816122d8565b50610dfc611f48565b3383610e088282612405565b610e245760405162461bcd60e51b8152600401610a1e90613ebd565b610de23386866120b4565b610e5a6040518060800160405280600081526020016000815260200160008152602001600081525090565b506000908152600d6020908152604091829020825160808101845281548152600182015492810192909252600281015492820192909252600390910154606082015290565b610ea7612568565b600c80549082905560408051828152602081018490527f249ce3aa19ca005081b3e7143ee5f00395d8ac801e1fd05ec532b214a56420f99101610b68565b610eef3382612405565b610f0b5760405162461bcd60e51b8152600401610a1e90613f93565b6109e8838383612795565b610f1e612568565b610f2781612931565b50565b6000610f3861271080613fe1565b8260085485610f479190613fe1565b610f519190613fe1565b610f5b9190614016565b9392505050565b82610f6c816122d8565b50610f75611f48565b33610f8181868661298b565b610de2818685612aa8565b600080610f97611f48565b612710610fa2611c86565b10610fbf5760405162461bcd60e51b8152600401610a1e9061402a565b610ff6335b6001600160a01b037f000000000000000000000000000000000000000000000000000000000000000016903086612c36565b604051631957dd9f60e21b8152306004820152602481018490527f00000000000000000000000000000000000000000000000000000000000000006001600160a01b03169063655f767c90604401602060405180830381600087803b15801561105e57600080fd5b505af1158015611072573d6000803e3d6000fd5b505050506040513d601f19601f82011682018060405250810190611096919061406f565b604051632baf2acb60e01b81526001600160a01b03868116600483015260248201869052604482018390529192507f000000000000000000000000000000000000000000000000000000000000000090911690632baf2acb90606401602060405180830381600087803b15801561110c57600080fd5b505af1158015611120573d6000803e3d6000fd5b505050506040513d601f19601f82011682018060405250810190611144919061406f565b91509250929050565b6000600e54821061116057506000919050565b6000828152600d602090815260409182902082516080810184528154808252600183015493820184905260028301549482018590526003909201546060820152926111af926107f79190614088565b9150505b919050565b6111c0612568565b6111c8612ca1565b565b6111d2612568565b6111c8612cea565b806111e4816122d8565b506111ee826112fc565b156112475760405162461bcd60e51b815260206004820152602360248201527f4344503a3a6c69717569646174653a20434450206d75737420626520756e736160448201526233329760e91b6064820152608401610a1e565b6112513383612636565b5050565b6109e8838383604051806020016040528060008152506118f7565b8161127a816122d8565b50611283611f48565b338361128f8282612405565b6112ab5760405162461bcd60e51b8152600401610a1e90613ebd565b610de2338686612aa8565b6112be612568565b600a80549082905560408051828152602081018490527fdbbbb176683582b710ef3349793b8d62658724a9d9b54deccf193c4b0aa90c4c9101610b68565b600061271061130a83611977565b1092915050565b60008261131d816122d8565b50611326611f48565b612710611331611c86565b1061134e5760405162461bcd60e51b8152600401610a1e9061402a565b61135733610fc4565b604051631957dd9f60e21b8152306004820152602481018490527f00000000000000000000000000000000000000000000000000000000000000006001600160a01b03169063655f767c90604401602060405180830381600087803b1580156113bf57600080fd5b505af11580156113d3573d6000803e3d6000fd5b505050506040513d601f19601f820116820180604052508101906113f7919061406f565b9150611404308584612d3c565b5092915050565b6000818152600260205260408120546001600160a01b0316806109b95760405162461bcd60e51b8152602060048201526018602482015277115490cdcc8c4e881a5b9d985b1a59081d1bdad95b88125160421b6044820152606401610a1e565b60006001600160a01b0382166114d55760405162461bcd60e51b815260206004820152602960248201527f4552433732313a2061646472657373207a65726f206973206e6f7420612076616044820152683634b21037bbb732b960b91b6064820152608401610a1e565b506001600160a01b031660009081526003602052604090205490565b6114f9612568565b6111c860006130b0565b6000818152600d602090815260408083208151608081018352815480825260018301549482019490945260028201549281019290925260030154606082015290919081906115508561114d565b6040909101519395909450915050565b604051630571ac8b60e41b81526001600160a01b037f0000000000000000000000000000000000000000000000000000000000000000811660048301527f0000000000000000000000000000000000000000000000000000000000000000169063571ac8b090602401600060405180830381600087803b1580156115e357600080fd5b505af11580156115f7573d6000803e3d6000fd5b5050604051630571ac8b60e41b81526001600160a01b037f0000000000000000000000000000000000000000000000000000000000000000811660048301527f000000000000000000000000000000000000000000000000000000000000000016925063571ac8b09150602401600060405180830381600087803b15801561167e57600080fd5b505af1158015610a52573d6000803e3d6000fd5b61169a612568565b6111c861310a565b60006109b9826122d8565b606060018054610a6790613f0d565b6116c4611f48565b826116ce816122d8565b5033846116db8282612405565b6116f75760405162461bcd60e51b8152600401610a1e90613ebd565b611702338787611f8e565b61170d3387866120b4565b505050505050565b60008084611722816122d8565b5061172b611f48565b33866117378282612405565b6117535760405162461bcd60e51b8152600401610a1e90613ebd565b61175e338989611f8e565b6000888152600d6020908152604080832081516080810183528154815260018201549381018490526002820154928101839052600390910154606082015292916117a89190614088565b82516117b4908a610f2a565b6117be9190613f7c565b90506117cb308b83613147565b60405163423e797960e01b81526001600160a01b038c81166004830152602482018390527f0000000000000000000000000000000000000000000000000000000000000000169063423e7979906044016040805180830381600087803b15801561183457600080fd5b505af1158015611848573d6000803e3d6000fd5b505050506040513d601f19601f8201168201806040525081019061186c9190613f42565b909c909b509950505050505050505050565b6112513383836133cb565b611891611f48565b600e548310156118bc576118a4836122d8565b50336118b181858561298b565b610a52818584612aa8565b336118c6846122d8565b506118d18185612405565b6118ed5760405162461bcd60e51b8152600401610a1e90613ebd565b610a528185612636565b6119013383612405565b61191d5760405162461bcd60e51b8152600401610a1e90613f93565b610a528484848461349a565b6000611933611f48565b3361193d81612484565b9150611948826122d8565b50611954818385611f8e565b50919050565b60006008548261196a9190613fe1565b612710610f478186613fe1565b6000818152600d6020908152604080832081516080810183528154808252600183015494820194909452600282015492810192909252600301546060820152600954600854919290916119c991613fe1565b6119d39190613fe1565b61271080612710846040015185602001516119ee9190614088565b6119f89190613fe1565b611a029190613fe1565b611a0c9190613fe1565b6111af9190614016565b600060085483611a269190613fe1565b612710610f478185613fe1565b6060611a3e82612509565b6000611a5560408051602081019091526000815290565b90506000815111611a7557604051806020016040528060008152506111af565b80611a7f846134cd565b604051602001611a909291906140a0565b6040516020818303038152906040529392505050565b600083611ab2816122d8565b50611abb611f48565b3385611ac78282612405565b611ae35760405162461bcd60e51b8152600401610a1e90613ebd565b612710611aee611c86565b10611b0b5760405162461bcd60e51b8152600401610a1e9061402a565b33611b417f00000000000000000000000000000000000000000000000000000000000000006001600160a01b031682308a612c36565b604051631957dd9f60e21b8152306004820152602481018890527f00000000000000000000000000000000000000000000000000000000000000006001600160a01b03169063655f767c90604401602060405180830381600087803b158015611ba957600080fd5b505af1158015611bbd573d6000803e3d6000fd5b505050506040513d601f19601f82011682018060405250810190611be1919061406f565b9450611bee308987612d3c565b6000888152600d602090815260408083208151608081018352815481526001820154938101849052600282015492810183905260039091015460608201529291611c4191611c3b91614088565b8961195a565b8251611c4d9190613f7c565b9050611c5a8b8b83612aa8565b505050505050949350505050565b81611c72816122d8565b50611c7b611f48565b6109e833848461298b565b6000600f54600014158015611c9c575060085415155b8015611ca9575060095415155b15611cfd57600954600854600f54611cc19190613fe1565b611ccb9190613fe1565b61271080612710601054611cdf9190613fe1565b611ce99190613fe1565b611cf39190613fe1565b610b219190614016565b90565b81611d0a816122d8565b50611d13611f48565b6109e8336109d6565b6000611d26611f48565b33611d3081612484565b9150611d3b826122d8565b50611d47818386611f8e565b6114048183856120b4565b6007546001600160a01b0316336001600160a01b031614611ddb5760405162461bcd60e51b815260206004820152603f60248201527f4f7261636c653a3a6f6e6c794f7261636c654665656465723a2053656e64657260448201527f206d7573742062652073616d65206173205f6f7261636c654665656465722e006064820152608401610a1e565b600880549083905560408051828152602081018590527f00000000000000000000000000000000000000000000000000000000000000006001600160a01b0316917f7c3bda8adcb9df1edd0059da351d966538bcc99f067c0770872170ac97fb6887910160405180910390a2505050565b611e54612568565b6001600160a01b038116611eb95760405162461bcd60e51b815260206004820152602660248201527f4f776e61626c653a206e6577206f776e657220697320746865207a65726f206160448201526564647265737360d01b6064820152608401610a1e565b610f27816130b0565b611eca612568565b600b80546001600160a01b038381166001600160a01b031983168117909355604080519190921680825260208201939093527f41d2755f00068d89c23ebc6f1e73ce119a6236a44517ca061f544a3f91c9bca49101610b68565b600080611f2f611f48565b611f3833612484565b9150611f43816122d8565b505090565b60065460ff16156111c85760405162461bcd60e51b815260206004820152601060248201526f14185d5cd8589b194e881c185d5cd95960821b6044820152606401610a1e565b6000828152600d60205260408120805490918391839190611fb0908490614088565b9250508190555081600f6000828254611fc99190614088565b9091555061200490506001600160a01b037f000000000000000000000000000000000000000000000000000000000000000016853085612c36565b80546611c37937e08000111561206a5760405162461bcd60e51b815260206004820152602560248201527f4344503a3a5f6465706f7369743a204e6f7420656e6f75676820636f6c6c617460448201526432b930b61760d91b6064820152608401610a1e565b82846001600160a01b03167f90890809c654f11d6e72a28fa60149770a0d11ec6c92319d6ceb2bb0a4ea1a15846040516120a691815260200190565b60405180910390a350505050565b604051630f5510c160e31b8152600481018290526000907f00000000000000000000000000000000000000000000000000000000000000006001600160a01b031690637aa886089060240160206040518083038186803b15801561211757600080fd5b505afa15801561212b573d6000803e3d6000fd5b505050506040513d601f19601f8201168201806040525081019061214f919061406f565b604051630e3cc56f60e41b8152600481018490529091506000906001600160a01b037f0000000000000000000000000000000000000000000000000000000000000000169063e3cc56f09060240160206040518083038186803b1580156121b557600080fd5b505afa1580156121c9573d6000803e3d6000fd5b505050506040513d601f19601f820116820180604052508101906121ed919061406f565b90506121fa308584613147565b61222f7f00000000000000000000000000000000000000000000000000000000000000006001600160a01b0316333084612c36565b604051630ab714fb60e11b81526001600160a01b03868116600483015260248201849052604482018390527f0000000000000000000000000000000000000000000000000000000000000000169063156e29f690606401602060405180830381600087803b1580156122a057600080fd5b505af11580156122b4573d6000803e3d6000fd5b505050506040513d601f19601f8201168201806040525081019061170d919061406f565b600b546000906001600160a01b03166122f357506000919050565b6000828152600d602052604081206003810154600282015491929091429161231f61271061016d613fe1565b61232a906018613fe1565b61233590603c613fe1565b61234090603c613fe1565b600c5461234d8686613f7c565b876001015461235c9190613fe1565b6123669190613fe1565b6123709190614016565b9550858560020160008282546123869190614088565b92505081905550856011600082825461239f9190614088565b90915550505060038401829055600284015460408051838152602081018390529081018590526060810184905287907f058060763f0c6ae3b30d3624dbb6899601ed67b215a0b7591707778c7218db2f9060800160405180910390a25050505050919050565b6000806124118361140b565b9050806001600160a01b0316846001600160a01b0316148061245857506001600160a01b0380821660009081526005602090815260408083209388168352929052205460ff165b8061247c5750836001600160a01b031661247184610aea565b6001600160a01b0316145b949350505050565b6000612710612491611c86565b106124ae5760405162461bcd60e51b8152600401610a1e9061402a565b600e80549060006124be836140cf565b9190505590506124ce82826135cb565b60405181906001600160a01b038416907f50042401acb675fedd6dd939fccc629832ce60fa4185df25c01b20e8def195bf90600090a3919050565b6000818152600260205260409020546001600160a01b0316610f275760405162461bcd60e51b8152602060048201526018602482015277115490cdcc8c4e881a5b9d985b1a59081d1bdad95b88125160421b6044820152606401610a1e565b6006546001600160a01b036101009091041633146111c85760405162461bcd60e51b815260206004820181905260248201527f4f776e61626c653a2063616c6c6572206973206e6f7420746865206f776e65726044820152606401610a1e565b600081815260046020526040902080546001600160a01b0319166001600160a01b03841690811790915581906125fd8261140b565b6001600160a01b03167f8c5be1e5ebec7d5bd14f71427d1e84f3dd0314c0f7b2291e5b200ac8c7c3b92560405160405180910390a45050565b6000818152600d6020526040902060018101541515806126595750600281015415155b156127195761271983837f00000000000000000000000000000000000000000000000000000000000000006001600160a01b031663199d5257856002015486600101546126a69190614088565b6040518263ffffffff1660e01b81526004016126c491815260200190565b60206040518083038186803b1580156126dc57600080fd5b505afa1580156126f0573d6000803e3d6000fd5b505050506040513d601f19601f82011682018060405250810190612714919061406f565b61298b565b80541561272f5761272f83838360000154612aa8565b612738826135e5565b6000828152600d602052604080822082815560018101839055600281018390556003018290555183916001600160a01b038616917f684222b0069d4a2e5e0d986611cc5182d543904c4e4264bf770d4e51faefc8229190a3505050565b826001600160a01b03166127a88261140b565b6001600160a01b03161461280c5760405162461bcd60e51b815260206004820152602560248201527f4552433732313a207472616e736665722066726f6d20696e636f72726563742060448201526437bbb732b960d91b6064820152608401610a1e565b6001600160a01b03821661286e5760405162461bcd60e51b8152602060048201526024808201527f4552433732313a207472616e7366657220746f20746865207a65726f206164646044820152637265737360e01b6064820152608401610a1e565b6128796000826125c8565b6001600160a01b03831660009081526003602052604081208054600192906128a2908490613f7c565b90915550506001600160a01b03821660009081526003602052604081208054600192906128d0908490614088565b909155505060008181526002602052604080822080546001600160a01b0319166001600160a01b0386811691821790925591518493918716917fddf252ad1be2c89b69c2b068fc378daa952ba7f163c4a11628f55a4df523b3ef91a4505050565b600780546001600160a01b038381166001600160a01b031983168117909355604080519190921680825260208201939093527f6b2e9b3836edd552e454031d349dbf020544e4123c344f1ddb0a7a9a336adef99101610b68565b336129c17f00000000000000000000000000000000000000000000000000000000000000006001600160a01b0316823085612c36565b6040516301e9a69560e41b81523060048201526024810183905260009081906001600160a01b037f00000000000000000000000000000000000000000000000000000000000000001690631e9a6950906044016040805180830381600087803b158015612a2d57600080fd5b505af1158015612a41573d6000803e3d6000fd5b505050506040513d601f19601f82011682018060405250810190612a659190613f42565b91509150612a74308684612d3c565b61170d6001600160a01b037f0000000000000000000000000000000000000000000000000000000000000000168783613680565b6000828152600d60205260408120805490918391839190612aca908490613f7c565b9250508190555081600f6000828254612ae39190613f7c565b90915550612b1d90506001600160a01b037f0000000000000000000000000000000000000000000000000000000000000000168584613680565b612b26836112fc565b612b895760405162461bcd60e51b815260206004820152602e60248201527f4344503a3a5f77697468647261773a20434450206f7065726174696f6e20657860448201526d31b2b2b2399036b0bc10262a2b1760911b6064820152608401610a1e565b80541580612b9f575080546611c37937e0800011155b612bfa5760405162461bcd60e51b815260206004820152602660248201527f4344503a3a5f77697468647261773a204e6f7420656e6f75676820636f6c6c616044820152653a32b930b61760d11b6064820152608401610a1e565b82846001600160a01b03167ff279e6a1f5e320cca91135676d9cb6e44ca8a08c0b88342bcdb1144f6511b568846040516120a691815260200190565b6040516001600160a01b0380851660248301528316604482015260648101829052610a529085906323b872dd60e01b906084015b60408051601f198184030181529190526020810180516001600160e01b03166001600160e01b0319909316929092179091526136b0565b60065460ff166111c85760405162461bcd60e51b815260206004820152601460248201527314185d5cd8589b194e881b9bdd081c185d5cd95960621b6044820152606401610a1e565b612cf2612ca1565b6006805460ff191690557f5db9ee0a495bf2e6ff9c91a7834c1ba4fdd244a5e8aa4e537bd38aeae4b073aa335b6040516001600160a01b03909116815260200160405180910390a1565b6000828152600d60205260409020600b546001600160a01b031615801590612d675750600281015415155b15612fbf57600b5460028201546001600160a01b03909116908311612e375782826002016000828254612d9a9190613f7c565b925050819055508260116000828254612db39190613f7c565b90915550506001600160a01b038516301415612e0257612dfd6001600160a01b037f0000000000000000000000000000000000000000000000000000000000000000168285613680565b612fb9565b612dfd6001600160a01b037f000000000000000000000000000000000000000000000000000000000000000016868386612c36565b6001600160a01b038516301415612e88576002820154612e83906001600160a01b037f000000000000000000000000000000000000000000000000000000000000000016908390613680565b612ec5565b6002820154612ec5906001600160a01b037f0000000000000000000000000000000000000000000000000000000000000000169087908490612c36565b6002820154612ed49084613f7c565b826001016000828254612ee79190613f7c565b90915550506002820154612efb9084613f7c565b60106000828254612f0c9190613f7c565b925050819055507f00000000000000000000000000000000000000000000000000000000000000006001600160a01b03166379cc679086846002015486612f539190613f7c565b6040516001600160e01b031960e085901b1681526001600160a01b0390921660048301526024820152604401600060405180830381600087803b158015612f9957600080fd5b505af1158015612fad573d6000803e3d6000fd5b50506000600285015550505b50613074565b81816001016000828254612fd39190613f7c565b925050819055508160106000828254612fec9190613f7c565b909155505060405163079cc67960e41b81526001600160a01b038581166004830152602482018490527f000000000000000000000000000000000000000000000000000000000000000016906379cc679090604401600060405180830381600087803b15801561305b57600080fd5b505af115801561306f573d6000803e3d6000fd5b505050505b82846001600160a01b03167f77c6871227e5d2dec8dadd5354f78453203e22e669cd0ec4c19d9a8c5edb31d0846040516120a691815260200190565b600680546001600160a01b03838116610100818102610100600160a81b031985161790945560405193909204169182907f8be0079c531659141344cd1fd0a4f28419497f9722a3daafe3b4186f6b6457e090600090a35050565b613112611f48565b6006805460ff191660011790557f62e78cea01bee320cd4e420270b5ea74000d11b0c9f74754ebdbfc544b05a258612d1f3390565b612710613152611c86565b1061316f5760405162461bcd60e51b8152600401610a1e9061402a565b6000828152600d6020526040812060018101805491928492613192908490614088565b9250508190555081601060008282546131ab9190614088565b90915550506040516308934a5f60e31b81526001600160a01b038581166004830152602482018490527f0000000000000000000000000000000000000000000000000000000000000000169063449a52f890604401600060405180830381600087803b15801561321a57600080fd5b505af115801561322e573d6000803e3d6000fd5b5050505061323b836112fc565b61329c5760405162461bcd60e51b815260206004820152602c60248201527f4344503a3a5f626f72726f773a20434450206f7065726174696f6e206578636560448201526b32b2399036b0bc10262a2b1760a11b6064820152608401610a1e565b600a547f00000000000000000000000000000000000000000000000000000000000000006001600160a01b03166318160ddd6040518163ffffffff1660e01b815260040160206040518083038186803b1580156132f857600080fd5b505afa15801561330c573d6000803e3d6000fd5b505050506040513d601f19601f82011682018060405250810190613330919061406f565b111561338f5760405162461bcd60e51b815260206004820152602860248201527f4344503a3a5f626f72726f773a2043616e6e6f7420626f72726f772053494e2060448201526730b73cb6b7b9329760c11b6064820152608401610a1e565b82846001600160a01b03167fe1979fe4c35e0cef342fef5668e2c8e7a7e9f5d5d1ca8fee0ac6c427fa4153af846040516120a691815260200190565b816001600160a01b0316836001600160a01b0316141561342d5760405162461bcd60e51b815260206004820152601960248201527f4552433732313a20617070726f766520746f2063616c6c6572000000000000006044820152606401610a1e565b6001600160a01b03838116600081815260056020908152604080832094871680845294825291829020805460ff191686151590811790915591519182527f17307eab39ab6107e8899845ad3d59bd9653f200f220920489ca2b5937696c31910160405180910390a3505050565b6134a5848484612795565b6134b184848484613782565b610a525760405162461bcd60e51b8152600401610a1e906140ea565b6060816134f15750506040805180820190915260018152600360fc1b602082015290565b8160005b811561351b5780613505816140cf565b91506135149050600a83614016565b91506134f5565b60008167ffffffffffffffff81111561353657613536613d98565b6040519080825280601f01601f191660200182016040528015613560576020820181803683370190505b5090505b841561247c57613575600183613f7c565b9150613582600a8661413c565b61358d906030614088565b60f81b8183815181106135a2576135a2614150565b60200101906001600160f81b031916908160001a9053506135c4600a86614016565b9450613564565b61125182826040518060200160405280600081525061388f565b60006135f08261140b565b90506135fd6000836125c8565b6001600160a01b0381166000908152600360205260408120805460019290613626908490613f7c565b909155505060008281526002602052604080822080546001600160a01b0319169055518391906001600160a01b038416907fddf252ad1be2c89b69c2b068fc378daa952ba7f163c4a11628f55a4df523b3ef908390a45050565b6040516001600160a01b0383166024820152604481018290526109e890849063a9059cbb60e01b90606401612c6a565b6000613705826040518060400160405280602081526020017f5361666545524332303a206c6f772d6c6576656c2063616c6c206661696c6564815250856001600160a01b03166138c29092919063ffffffff16565b8051909150156109e857808060200190518101906137239190614166565b6109e85760405162461bcd60e51b815260206004820152602a60248201527f5361666545524332303a204552433230206f7065726174696f6e20646964206e6044820152691bdd081cdd58d8d9595960b21b6064820152608401610a1e565b60006001600160a01b0384163b1561388457604051630a85bd0160e11b81526001600160a01b0385169063150b7a02906137c6903390899088908890600401614183565b602060405180830381600087803b1580156137e057600080fd5b505af1925050508015613810575060408051601f3d908101601f1916820190925261380d918101906141c0565b60015b61386a573d80801561383e576040519150601f19603f3d011682016040523d82523d6000602084013e613843565b606091505b5080516138625760405162461bcd60e51b8152600401610a1e906140ea565b805181602001fd5b6001600160e01b031916630a85bd0160e11b14905061247c565b506001949350505050565b61389983836138d1565b6138a66000848484613782565b6109e85760405162461bcd60e51b8152600401610a1e906140ea565b606061247c8484600085613a13565b6001600160a01b0382166139275760405162461bcd60e51b815260206004820181905260248201527f4552433732313a206d696e7420746f20746865207a65726f20616464726573736044820152606401610a1e565b6000818152600260205260409020546001600160a01b03161561398c5760405162461bcd60e51b815260206004820152601c60248201527f4552433732313a20746f6b656e20616c7265616479206d696e746564000000006044820152606401610a1e565b6001600160a01b03821660009081526003602052604081208054600192906139b5908490614088565b909155505060008181526002602052604080822080546001600160a01b0319166001600160a01b03861690811790915590518392907fddf252ad1be2c89b69c2b068fc378daa952ba7f163c4a11628f55a4df523b3ef908290a45050565b606082471015613a745760405162461bcd60e51b815260206004820152602660248201527f416464726573733a20696e73756666696369656e742062616c616e636520666f6044820152651c8818d85b1b60d21b6064820152608401610a1e565b6001600160a01b0385163b613acb5760405162461bcd60e51b815260206004820152601d60248201527f416464726573733a2063616c6c20746f206e6f6e2d636f6e74726163740000006044820152606401610a1e565b600080866001600160a01b03168587604051613ae791906141dd565b60006040518083038185875af1925050503d8060008114613b24576040519150601f19603f3d011682016040523d82523d6000602084013e613b29565b606091505b5091509150613b39828286613b44565b979650505050505050565b60608315613b53575081610f5b565b825115613b635782518084602001fd5b8160405162461bcd60e51b8152600401610a1e9190613c34565b6001600160e01b031981168114610f2757600080fd5b600060208284031215613ba557600080fd5b8135610f5b81613b7d565b600080600060608486031215613bc557600080fd5b505081359360208301359350604090920135919050565b60005b83811015613bf7578181015183820152602001613bdf565b83811115610a525750506000910152565b60008151808452613c20816020860160208601613bdc565b601f01601f19169290920160200192915050565b602081526000610f5b6020830184613c08565b600060208284031215613c5957600080fd5b5035919050565b80356001600160a01b03811681146111b357600080fd5b60008060408385031215613c8a57600080fd5b613c9383613c60565b946020939093013593505050565b60008060408385031215613cb457600080fd5b50508035926020909101359150565b600080600060608486031215613cd857600080fd5b613ce184613c60565b9250613cef60208501613c60565b9150604084013590509250925092565b600060208284031215613d1157600080fd5b610f5b82613c60565b60008060008060808587031215613d3057600080fd5b613d3985613c60565b966020860135965060408601359560600135945092505050565b8015158114610f2757600080fd5b60008060408385031215613d7457600080fd5b613d7d83613c60565b91506020830135613d8d81613d53565b809150509250929050565b634e487b7160e01b600052604160045260246000fd5b60008060008060808587031215613dc457600080fd5b613dcd85613c60565b9350613ddb60208601613c60565b925060408501359150606085013567ffffffffffffffff80821115613dff57600080fd5b818701915087601f830112613e1357600080fd5b813581811115613e2557613e25613d98565b604051601f8201601f19908116603f01168101908382118183101715613e4d57613e4d613d98565b816040528281528a6020848701011115613e6657600080fd5b82602086016020830137600060208483010152809550505050505092959194509250565b60008060408385031215613e9d57600080fd5b613ea683613c60565b9150613eb460208401613c60565b90509250929050565b60208082526030908201527f4344503a3a6f6e6c79436470417070726f7665644f724f776e65723a204e6f7460408201526f1030903b30b634b21031b0b63632b91760811b606082015260800190565b600181811c90821680613f2157607f821691505b6020821081141561195457634e487b7160e01b600052602260045260246000fd5b60008060408385031215613f5557600080fd5b505080516020909101519092909150565b634e487b7160e01b600052601160045260246000fd5b600082821015613f8e57613f8e613f66565b500390565b6020808252602e908201527f4552433732313a2063616c6c6572206973206e6f7420746f6b656e206f776e6560408201526d1c881b9bdc88185c1c1c9bdd995960921b606082015260800190565b6000816000190483118215151615613ffb57613ffb613f66565b500290565b634e487b7160e01b600052601260045260246000fd5b60008261402557614025614000565b500490565b60208082526025908201527f4344503a3a6f6e6c79476c6f62616c6c794865616c7468793a204e6f7420686560408201526430b63a3c9760d91b606082015260800190565b60006020828403121561408157600080fd5b5051919050565b6000821982111561409b5761409b613f66565b500190565b600083516140b2818460208801613bdc565b8351908301906140c6818360208801613bdc565b01949350505050565b60006000198214156140e3576140e3613f66565b5060010190565b60208082526032908201527f4552433732313a207472616e7366657220746f206e6f6e20455243373231526560408201527131b2b4bb32b91034b6b83632b6b2b73a32b960711b606082015260800190565b60008261414b5761414b614000565b500690565b634e487b7160e01b600052603260045260246000fd5b60006020828403121561417857600080fd5b8151610f5b81613d53565b6001600160a01b03858116825284166020820152604081018390526080606082018190526000906141b690830184613c08565b9695505050505050565b6000602082840312156141d257600080fd5b8151610f5b81613b7d565b600082516141ef818460208701613bdc565b919091019291505056fea26469706673582212205cb78c4baf1ad89d9561be789bbad51db2b5d49fb8fa79be89429ec0a1f753e864736f6c63430008090033206d757374206265206e6f6e7a65726f2e0000000000000000000000000000004e6f6e7a65726f3a3a6e6f6e7a65726f416464726573733a204163636f756e74",
  "linkReferences": {},
  "deployedLinkReferences": {}
}