{
  "_format": "hh-sol-artifact-1",
  "contractName": "FoxFarmGateway",
  "sourceName": "contracts/FoxFarmGateway.sol",
  "abi": [
    {
      "inputs": [
        {
          "internalType": "contract IERC20",
          "name": "collateralToken_",
          "type": "address"
        },
        {
          "internalType": "contract IERC20",
          "name": "shareToken_",
          "type": "address"
        },
        {
          "internalType": "contract IFOX",
          "name": "stableToken_",
          "type": "address"
        },
        {
          "internalType": "contract IFoxFarm",
          "name": "foxFarm_",
          "type": "address"
        }
      ],
      "stateMutability": "nonpayable",
      "type": "constructor"
    },
    {
      "inputs": [
        {
          "internalType": "address",
          "name": "account_",
          "type": "address"
        },
        {
          "internalType": "uint256",
          "name": "id_",
          "type": "uint256"
        },
        {
          "internalType": "uint256",
          "name": "ltv_",
          "type": "uint256"
        },
        {
          "internalType": "uint256",
          "name": "shareAmount_",
          "type": "uint256"
        }
      ],
      "name": "collateralAmountRangeWhenMint",
      "outputs": [
        {
          "internalType": "uint256",
          "name": "upperBound_",
          "type": "uint256"
        },
        {
          "internalType": "uint256",
          "name": "lowerBound_",
          "type": "uint256"
        }
      ],
      "stateMutability": "view",
      "type": "function"
    },
    {
      "inputs": [
        {
          "internalType": "address",
          "name": "account_",
          "type": "address"
        },
        {
          "internalType": "uint256",
          "name": "id_",
          "type": "uint256"
        },
        {
          "internalType": "uint256",
          "name": "ltv_",
          "type": "uint256"
        }
      ],
      "name": "collateralAmountRangeWhenRecollateralize",
      "outputs": [
        {
          "internalType": "uint256",
          "name": "upperBound_",
          "type": "uint256"
        },
        {
          "internalType": "uint256",
          "name": "lowerBound_",
          "type": "uint256"
        }
      ],
      "stateMutability": "view",
      "type": "function"
    },
    {
      "inputs": [
        {
          "internalType": "address",
          "name": "account_",
          "type": "address"
        },
        {
          "internalType": "uint256",
          "name": "id_",
          "type": "uint256"
        }
      ],
      "name": "defaultValueRedeem",
      "outputs": [
        {
          "internalType": "uint256",
          "name": "stableAmount_",
          "type": "uint256"
        },
        {
          "internalType": "uint256",
          "name": "collateralAmount_",
          "type": "uint256"
        },
        {
          "internalType": "uint256",
          "name": "ltv_",
          "type": "uint256"
        },
        {
          "internalType": "uint256",
          "name": "shareAmount_",
          "type": "uint256"
        }
      ],
      "stateMutability": "view",
      "type": "function"
    },
    {
      "inputs": [
        {
          "internalType": "address",
          "name": "account_",
          "type": "address"
        },
        {
          "internalType": "uint256",
          "name": "id_",
          "type": "uint256"
        }
      ],
      "name": "defaultValuesBuyback",
      "outputs": [
        {
          "internalType": "uint256",
          "name": "shareAmount_",
          "type": "uint256"
        },
        {
          "internalType": "uint256",
          "name": "collateralAmount_",
          "type": "uint256"
        },
        {
          "internalType": "uint256",
          "name": "ltv_",
          "type": "uint256"
        }
      ],
      "stateMutability": "view",
      "type": "function"
    },
    {
      "inputs": [
        {
          "internalType": "address",
          "name": "account_",
          "type": "address"
        },
        {
          "internalType": "uint256",
          "name": "id_",
          "type": "uint256"
        }
      ],
      "name": "defaultValuesMint",
      "outputs": [
        {
          "internalType": "uint256",
          "name": "collateralAmount_",
          "type": "uint256"
        },
        {
          "internalType": "uint256",
          "name": "ltv_",
          "type": "uint256"
        },
        {
          "internalType": "uint256",
          "name": "shareAmount_",
          "type": "uint256"
        },
        {
          "internalType": "uint256",
          "name": "stableAmount_",
          "type": "uint256"
        }
      ],
      "stateMutability": "view",
      "type": "function"
    },
    {
      "inputs": [
        {
          "internalType": "address",
          "name": "account_",
          "type": "address"
        },
        {
          "internalType": "uint256",
          "name": "id_",
          "type": "uint256"
        }
      ],
      "name": "defaultValuesRecollateralize",
      "outputs": [
        {
          "internalType": "uint256",
          "name": "collateralAmount_",
          "type": "uint256"
        },
        {
          "internalType": "uint256",
          "name": "ltv_",
          "type": "uint256"
        },
        {
          "internalType": "uint256",
          "name": "shareAmount_",
          "type": "uint256"
        }
      ],
      "stateMutability": "view",
      "type": "function"
    },
    {
      "inputs": [
        {
          "internalType": "uint256",
          "name": "id_",
          "type": "uint256"
        },
        {
          "internalType": "uint256",
          "name": "shareAmount_",
          "type": "uint256"
        },
        {
          "internalType": "uint256",
          "name": "ltv_",
          "type": "uint256"
        }
      ],
      "name": "exchangedCollateralAmountFromShareToLtv",
      "outputs": [
        {
          "internalType": "uint256",
          "name": "collateralAmount_",
          "type": "uint256"
        }
      ],
      "stateMutability": "view",
      "type": "function"
    },
    {
      "inputs": [
        {
          "internalType": "uint256",
          "name": "id_",
          "type": "uint256"
        },
        {
          "internalType": "uint256",
          "name": "collateralAmount_",
          "type": "uint256"
        },
        {
          "internalType": "uint256",
          "name": "ltv_",
          "type": "uint256"
        }
      ],
      "name": "exchangedShareAmountFromCollateralToLtv",
      "outputs": [
        {
          "internalType": "uint256",
          "name": "shareAmount_",
          "type": "uint256"
        }
      ],
      "stateMutability": "view",
      "type": "function"
    },
    {
      "inputs": [
        {
          "internalType": "uint256",
          "name": "id_",
          "type": "uint256"
        },
        {
          "internalType": "uint256",
          "name": "newCollateralAmount_",
          "type": "uint256"
        },
        {
          "internalType": "uint256",
          "name": "ltv_",
          "type": "uint256"
        },
        {
          "internalType": "uint256",
          "name": "newShareAmount_",
          "type": "uint256"
        }
      ],
      "name": "expectedMintAmountToLtv",
      "outputs": [
        {
          "internalType": "uint256",
          "name": "newStableAmount_",
          "type": "uint256"
        }
      ],
      "stateMutability": "view",
      "type": "function"
    },
    {
      "inputs": [
        {
          "internalType": "uint256",
          "name": "id_",
          "type": "uint256"
        },
        {
          "internalType": "uint256",
          "name": "collectedStableAmount_",
          "type": "uint256"
        },
        {
          "internalType": "uint256",
          "name": "ltv_",
          "type": "uint256"
        }
      ],
      "name": "expectedRedeemAmountToLtv",
      "outputs": [
        {
          "internalType": "uint256",
          "name": "emittedCollateralAmount_",
          "type": "uint256"
        },
        {
          "internalType": "uint256",
          "name": "emittedShareAmount_",
          "type": "uint256"
        }
      ],
      "stateMutability": "view",
      "type": "function"
    },
    {
      "inputs": [
        {
          "internalType": "uint256",
          "name": "id_",
          "type": "uint256"
        },
        {
          "internalType": "uint256",
          "name": "shareAmount_",
          "type": "uint256"
        }
      ],
      "name": "ltvRangeWhenBuyback",
      "outputs": [
        {
          "internalType": "uint256",
          "name": "upperBound_",
          "type": "uint256"
        },
        {
          "internalType": "uint256",
          "name": "lowerBound_",
          "type": "uint256"
        }
      ],
      "stateMutability": "view",
      "type": "function"
    },
    {
      "inputs": [
        {
          "internalType": "uint256",
          "name": "id_",
          "type": "uint256"
        },
        {
          "internalType": "uint256",
          "name": "collateralAmount_",
          "type": "uint256"
        },
        {
          "internalType": "uint256",
          "name": "shareAmount_",
          "type": "uint256"
        }
      ],
      "name": "ltvRangeWhenMint",
      "outputs": [
        {
          "internalType": "uint256",
          "name": "upperBound_",
          "type": "uint256"
        },
        {
          "internalType": "uint256",
          "name": "lowerBound_",
          "type": "uint256"
        }
      ],
      "stateMutability": "view",
      "type": "function"
    },
    {
      "inputs": [
        {
          "internalType": "uint256",
          "name": "id_",
          "type": "uint256"
        },
        {
          "internalType": "uint256",
          "name": "collateralAmount_",
          "type": "uint256"
        }
      ],
      "name": "ltvRangeWhenRecollateralize",
      "outputs": [
        {
          "internalType": "uint256",
          "name": "upperBound_",
          "type": "uint256"
        },
        {
          "internalType": "uint256",
          "name": "lowerBound_",
          "type": "uint256"
        }
      ],
      "stateMutability": "view",
      "type": "function"
    },
    {
      "inputs": [
        {
          "internalType": "uint256",
          "name": "id_",
          "type": "uint256"
        },
        {
          "internalType": "uint256",
          "name": "stableAmount_",
          "type": "uint256"
        }
      ],
      "name": "ltvRangeWhenRedeem",
      "outputs": [
        {
          "internalType": "uint256",
          "name": "upperBound_",
          "type": "uint256"
        },
        {
          "internalType": "uint256",
          "name": "lowerBound_",
          "type": "uint256"
        }
      ],
      "stateMutability": "view",
      "type": "function"
    },
    {
      "inputs": [
        {
          "internalType": "uint256",
          "name": "id_",
          "type": "uint256"
        },
        {
          "internalType": "uint256",
          "name": "newShareAmount_",
          "type": "uint256"
        },
        {
          "internalType": "uint256",
          "name": "ltv_",
          "type": "uint256"
        }
      ],
      "name": "requiredCollateralAmountFromShareToLtv",
      "outputs": [
        {
          "internalType": "uint256",
          "name": "collateralAmount_",
          "type": "uint256"
        }
      ],
      "stateMutability": "view",
      "type": "function"
    },
    {
      "inputs": [
        {
          "internalType": "uint256",
          "name": "id_",
          "type": "uint256"
        },
        {
          "internalType": "uint256",
          "name": "newCollateralAmount_",
          "type": "uint256"
        },
        {
          "internalType": "uint256",
          "name": "ltv_",
          "type": "uint256"
        }
      ],
      "name": "requiredShareAmountFromCollateralToLtv",
      "outputs": [
        {
          "internalType": "uint256",
          "name": "shareAmount_",
          "type": "uint256"
        }
      ],
      "stateMutability": "view",
      "type": "function"
    },
    {
      "inputs": [
        {
          "internalType": "uint256",
          "name": "id_",
          "type": "uint256"
        }
      ],
      "name": "shareAmountRangeWhenBuyback",
      "outputs": [
        {
          "internalType": "uint256",
          "name": "upperBound_",
          "type": "uint256"
        },
        {
          "internalType": "uint256",
          "name": "lowerBound_",
          "type": "uint256"
        }
      ],
      "stateMutability": "view",
      "type": "function"
    },
    {
      "inputs": [
        {
          "internalType": "address",
          "name": "account_",
          "type": "address"
        },
        {
          "internalType": "uint256",
          "name": "id_",
          "type": "uint256"
        },
        {
          "internalType": "uint256",
          "name": "collateralAmount_",
          "type": "uint256"
        },
        {
          "internalType": "uint256",
          "name": "ltv_",
          "type": "uint256"
        }
      ],
      "name": "shareAmountRangeWhenMint",
      "outputs": [
        {
          "internalType": "uint256",
          "name": "upperBound_",
          "type": "uint256"
        },
        {
          "internalType": "uint256",
          "name": "lowerBound_",
          "type": "uint256"
        }
      ],
      "stateMutability": "view",
      "type": "function"
    },
    {
      "inputs": [
        {
          "internalType": "address",
          "name": "account_",
          "type": "address"
        },
        {
          "internalType": "uint256",
          "name": "id_",
          "type": "uint256"
        }
      ],
      "name": "stableAmountRangeWhenRedeem",
      "outputs": [
        {
          "internalType": "uint256",
          "name": "upperBound_",
          "type": "uint256"
        },
        {
          "internalType": "uint256",
          "name": "lowerBound_",
          "type": "uint256"
        }
      ],
      "stateMutability": "view",
      "type": "function"
    }
  ],
  "bytecode": "0x6101006040523480156200001257600080fd5b506040516200491938038062004919833981016040819052620000359162000071565b6001600160a01b0393841660805291831660a052821660c0521660e052620000d9565b6001600160a01b03811681146200006e57600080fd5b50565b600080600080608085870312156200008857600080fd5b8451620000958162000058565b6020860151909450620000a88162000058565b6040860151909350620000bb8162000058565b6060860151909250620000ce8162000058565b939692955090935050565b60805160a05160c05160e05161457b6200039e600039600081816102f9015281816103ae01528181610616015281816107c401528181610a8f01528181610b1501528181610bf501528181610ca401528181610d4801528181610e1f01528181610f4d01528181611128015281816111c8015281816112280152818161125b0152818161149001528181611582015281816116000152818161178f0152818161185a0152818161194d01528181611a8901528181611b0701528181611c9201528181611d4101528181611de501528181611ebc01528181611ff1015281816121350152818161235e0152818161240d015281816124960152818161252701528181612652015281816126e101528181612772015281816128ba015281816129fa01528181612a8001528181612c2201528181612ea301528181612f6101528181612fed015281816130af0152818161316501528181613402015281816134b10152818161354c015281816135f0015281816136cc0152818161381101528181613a7601528181613b2501528181613bb301528181613c8701528181613d4e01528181613dd501528181613f2701528181613fcd0152818161404b015261409b01526000818161043601528181610465015281816105980152818161072401528181610852015281816108ef015281816109d301528181610eba01528181610fed0152818161101c0152818161136b0152818161162f0152818161180d015281816119eb01528181611f5e015281816121e4015281816122b90152818161257a015281816127a2015281816128270152818161296001528181612ca001528181612cd201528181612d7b015281816131910152818161376e0152818161383b0152818161394501526139f8015260008181611bfb01528181612b8401526133820152600081816120b3015281816132b401528181613e9401526141a6015261457b6000f3fe608060405234801561001057600080fd5b50600436106101215760003560e01c8063701cdca4116100ad578063c36f685211610071578063c36f685214610278578063cb556eed146102a6578063d5935dc9146102b9578063e3c05788146102cc578063ee248767146102df57600080fd5b8063701cdca4146101f95780637455efd41461020c5780639237a21f1461021f57806398ead0ed146102325780639eedf1661461024557600080fd5b80632c95cdce116100f45780632c95cdce1461019a57806337d4f841146101ad578063441e6747146101c057806358502763146101d357806361defc43146101e657600080fd5b8063044de35514610126578063089f183f146101535780630b0b64001461016657806321cdc50e14610179575b600080fd5b610139610134366004614254565b6102f2565b604080519283526020830191909152015b60405180910390f35b61013961016136600461428e565b6106fe565b6101396101743660046142ba565b6109cc565b61018c6101873660046142ba565b610bf0565b60405190815260200161014a565b6101396101a83660046142e6565b610f46565b6101396101bb366004614254565b611121565b61018c6101ce3660046142ba565b61155f565b61018c6101e13660046142ba565b61176c565b6101396101f4366004614254565b61192a565b6101396102073660046142ff565b611bd7565b61018c61021a36600461433a565b611c8d565b61013961022d36600461436c565b611fea565b6101396102403660046142ba565b6122b2565b61025861025336600461428e565b6127ff565b60408051948552602085019390935291830152606082015260800161014a565b61028b61028636600461428e565b612b5c565b6040805193845260208401929092529082015260600161014a565b6102586102b436600461428e565b6132aa565b61018c6102c73660046142ba565b6139d5565b61028b6102da36600461428e565b613e6c565b6101396102ed3660046142ff565b614182565b60008060007f00000000000000000000000000000000000000000000000000000000000000006001600160a01b031663134bbd7b866040518263ffffffff1660e01b815260040161034591815260200190565b60806040518083038186803b15801561035d57600080fd5b505afa158015610371573d6000803e3d6000fd5b505050506040513d601f19601f8201168201806040525081019061039591906143a1565b604051630cd5dc4560e21b8152600481018790529091507f00000000000000000000000000000000000000000000000000000000000000006001600160a01b03169063335771149060240160206040518083038186803b1580156103f857600080fd5b505afa15801561040c573d6000803e3d6000fd5b505050506040513d601f19601f820116820180604052508101906104309190614415565b925060007f00000000000000000000000000000000000000000000000000000000000000006001600160a01b031663d5aa33d27f00000000000000000000000000000000000000000000000000000000000000006001600160a01b031663f280db8a6040518163ffffffff1660e01b815260040160206040518083038186803b1580156104bc57600080fd5b505afa1580156104d0573d6000803e3d6000fd5b505050506040513d601f19601f820116820180604052508101906104f49190614415565b6040518263ffffffff1660e01b815260040161051291815260200190565b60206040518083038186803b15801561052a57600080fd5b505afa15801561053e573d6000803e3d6000fd5b505050506040513d601f19601f820116820180604052508101906105629190614415565b9050848110156105725780610574565b845b604051632694d5e760e01b8152600481018290529091506000906001600160a01b037f00000000000000000000000000000000000000000000000000000000000000001690632694d5e79060240160206040518083038186803b1580156105da57600080fd5b505afa1580156105ee573d6000803e3d6000fd5b505050506040513d601f19601f820116820180604052508101906106129190614415565b90507f00000000000000000000000000000000000000000000000000000000000000006001600160a01b0316635891de726040518163ffffffff1660e01b815260040160206040518083038186803b15801561066d57600080fd5b505afa158015610681573d6000803e3d6000fd5b505050506040513d601f19601f820116820180604052508101906106a59190614415565b83516106b19190614444565b6127108085604001518487602001516106ca9190614463565b6106d4919061447a565b6106de9190614444565b6106e89190614444565b6106f29190614492565b93505050509250929050565b6040516370a0823160e01b81526001600160a01b038381166004830152600091829182917f0000000000000000000000000000000000000000000000000000000000000000909116906370a082319060240160206040518083038186803b15801561076857600080fd5b505afa15801561077c573d6000803e3d6000fd5b505050506040513d601f19601f820116820180604052508101906107a09190614415565b60405163134bbd7b60e01b8152600481018690529091506000906001600160a01b037f0000000000000000000000000000000000000000000000000000000000000000169063134bbd7b9060240160806040518083038186803b15801561080657600080fd5b505afa15801561081a573d6000803e3d6000fd5b505050506040513d601f19601f8201168201806040525081019061083e91906143a1565b90506109c18261085061271080614444565b7f00000000000000000000000000000000000000000000000000000000000000006001600160a01b031663bf0b893a6040518163ffffffff1660e01b815260040160206040518083038186803b1580156108a957600080fd5b505afa1580156108bd573d6000803e3d6000fd5b505050506040513d601f19601f820116820180604052508101906108e19190614415565b6108ed90612710614463565b7f00000000000000000000000000000000000000000000000000000000000000006001600160a01b03166395b31b116040518163ffffffff1660e01b815260040160206040518083038186803b15801561094657600080fd5b505afa15801561095a573d6000803e3d6000fd5b505050506040513d601f19601f8201168201806040525081019061097e9190614415565b61098a90612710614463565b8560400151866020015161099e919061447a565b6109a89190614444565b6109b29190614444565b6109bc9190614492565b61422d565b935050509250929050565b60008060007f00000000000000000000000000000000000000000000000000000000000000006001600160a01b031663db344ba3866040518263ffffffff1660e01b8152600401610a1f91815260200190565b60606040518083038186803b158015610a3757600080fd5b505afa158015610a4b573d6000803e3d6000fd5b505050506040513d601f19601f82011682018060405250810190610a6f91906144b4565b5060405163134bbd7b60e01b8152600481018990529093509091506000907f00000000000000000000000000000000000000000000000000000000000000006001600160a01b03169063134bbd7b9060240160806040518083038186803b158015610ad957600080fd5b505afa158015610aed573d6000803e3d6000fd5b505050506040513d601f19601f82011682018060405250810190610b1191906143a1565b90507f00000000000000000000000000000000000000000000000000000000000000006001600160a01b031663bc61c4608383604001518460200151610b57919061447a565b610b619190614463565b876040518363ffffffff1660e01b8152600401610b88929190918252602082015260400190565b60206040518083038186803b158015610ba057600080fd5b505afa158015610bb4573d6000803e3d6000fd5b505050506040513d601f19601f82011682018060405250810190610bd89190614415565b8151610be49190614463565b93505050935093915050565b6000807f00000000000000000000000000000000000000000000000000000000000000006001600160a01b031663af640d0f6040518163ffffffff1660e01b815260040160206040518083038186803b158015610c4c57600080fd5b505afa158015610c60573d6000803e3d6000fd5b505050506040513d601f19601f82011682018060405250810190610c849190614415565b851015610e025760405163134bbd7b60e01b8152600481018690526000907f00000000000000000000000000000000000000000000000000000000000000006001600160a01b03169063134bbd7b9060240160806040518083038186803b158015610cee57600080fd5b505afa158015610d02573d6000803e3d6000fd5b505050506040513d601f19601f82011682018060405250810190610d2691906143a1565b905080604001518160200151610d3c919061447a565b81516001600160a01b037f00000000000000000000000000000000000000000000000000000000000000001690632905f9cd90610d79908961447a565b876040518363ffffffff1660e01b8152600401610da0929190918252602082015260400190565b60206040518083038186803b158015610db857600080fd5b505afa158015610dcc573d6000803e3d6000fd5b505050506040513d601f19601f82011682018060405250810190610df09190614415565b610dfa9190614463565b915050610ea4565b604051632905f9cd60e01b815260048101859052602481018490527f00000000000000000000000000000000000000000000000000000000000000006001600160a01b031690632905f9cd9060440160206040518083038186803b158015610e6957600080fd5b505afa158015610e7d573d6000803e3d6000fd5b505050506040513d601f19601f82011682018060405250810190610ea19190614415565b90505b604051630d53839960e41b8152600481018290527f00000000000000000000000000000000000000000000000000000000000000006001600160a01b03169063d5383990906024015b60206040518083038186803b158015610f0557600080fd5b505afa158015610f19573d6000803e3d6000fd5b505050506040513d601f19601f82011682018060405250810190610f3d9190614415565b95945050505050565b60008060007f00000000000000000000000000000000000000000000000000000000000000006001600160a01b031663134bbd7b856040518263ffffffff1660e01b8152600401610f9991815260200190565b60806040518083038186803b158015610fb157600080fd5b505afa158015610fc5573d6000803e3d6000fd5b505050506040513d601f19601f82011682018060405250810190610fe991906143a1565b90507f00000000000000000000000000000000000000000000000000000000000000006001600160a01b031663d5aa33d27f00000000000000000000000000000000000000000000000000000000000000006001600160a01b031663f280db8a6040518163ffffffff1660e01b815260040160206040518083038186803b15801561107357600080fd5b505afa158015611087573d6000803e3d6000fd5b505050506040513d601f19601f820116820180604052508101906110ab9190614415565b6040518263ffffffff1660e01b81526004016110c991815260200190565b60206040518083038186803b1580156110e157600080fd5b505afa1580156110f5573d6000803e3d6000fd5b505050506040513d601f19601f820116820180604052508101906111199190614415565b925050915091565b60008060007f00000000000000000000000000000000000000000000000000000000000000006001600160a01b031663134bbd7b866040518263ffffffff1660e01b815260040161117491815260200190565b60806040518083038186803b15801561118c57600080fd5b505afa1580156111a0573d6000803e3d6000fd5b505050506040513d601f19601f820116820180604052508101906111c491906143a1565b90507f00000000000000000000000000000000000000000000000000000000000000006001600160a01b031663be9757a0858360000151611205919061447a565b6113fa8460400151856020015161121c919061447a565b85516001600160a01b037f00000000000000000000000000000000000000000000000000000000000000001690632905f9cd90611259908c61447a565b7f00000000000000000000000000000000000000000000000000000000000000006001600160a01b031663f384bd056040518163ffffffff1660e01b815260040160206040518083038186803b1580156112b257600080fd5b505afa1580156112c6573d6000803e3d6000fd5b505050506040513d601f19601f820116820180604052508101906112ea9190614415565b6040516001600160e01b031960e085901b168152600481019290925260248201526044015b60206040518083038186803b15801561132757600080fd5b505afa15801561133b573d6000803e3d6000fd5b505050506040513d601f19601f8201168201806040525081019061135f9190614415565b6113699190614463565b7f00000000000000000000000000000000000000000000000000000000000000006001600160a01b031663e2036fd06040518163ffffffff1660e01b815260040160206040518083038186803b1580156113c257600080fd5b505afa1580156113d6573d6000803e3d6000fd5b505050506040513d601f19601f820116820180604052508101906109bc9190614415565b8460400151856020015161140e919061447a565b611418919061447a565b6040516001600160e01b031960e085901b1681526004810192909252602482015260440160206040518083038186803b15801561145457600080fd5b505afa158015611468573d6000803e3d6000fd5b505050506040513d601f19601f8201168201806040525081019061148c9190614415565b92507f00000000000000000000000000000000000000000000000000000000000000006001600160a01b031663be9757a08583600001516114cd919061447a565b836040015184602001516114e1919061447a565b6040516001600160e01b031960e085901b1681526004810192909252602482015260440160206040518083038186803b15801561151d57600080fd5b505afa158015611531573d6000803e3d6000fd5b505050506040513d601f19601f820116820180604052508101906115559190614415565b9150509250929050565b60405163134bbd7b60e01b81526004810184905260009081906001600160a01b037f0000000000000000000000000000000000000000000000000000000000000000169063134bbd7b9060240160806040518083038186803b1580156115c457600080fd5b505afa1580156115d8573d6000803e3d6000fd5b505050506040513d601f19601f820116820180604052508101906115fc91906143a1565b90507f00000000000000000000000000000000000000000000000000000000000000006001600160a01b031663bc61c4607f00000000000000000000000000000000000000000000000000000000000000006001600160a01b0316632694d5e7876040518263ffffffff1660e01b815260040161167b91815260200190565b60206040518083038186803b15801561169357600080fd5b505afa1580156116a7573d6000803e3d6000fd5b505050506040513d601f19601f820116820180604052508101906116cb9190614415565b836040015184602001516116df919061447a565b6116e99190614463565b856040518363ffffffff1660e01b8152600401611710929190918252602082015260400190565b60206040518083038186803b15801561172857600080fd5b505afa15801561173c573d6000803e3d6000fd5b505050506040513d601f19601f820116820180604052508101906117609190614415565b8151610f3d9190614463565b60405163134bbd7b60e01b81526004810184905260009081906001600160a01b037f0000000000000000000000000000000000000000000000000000000000000000169063134bbd7b9060240160806040518083038186803b1580156117d157600080fd5b505afa1580156117e5573d6000803e3d6000fd5b505050506040513d601f19601f8201168201806040525081019061180991906143a1565b90507f00000000000000000000000000000000000000000000000000000000000000006001600160a01b031663d54f16618260400151836020015161184e919061447a565b83516001600160a01b037f00000000000000000000000000000000000000000000000000000000000000001690632905f9cd9061188b908a61447a565b886040518363ffffffff1660e01b81526004016118b2929190918252602082015260400190565b60206040518083038186803b1580156118ca57600080fd5b505afa1580156118de573d6000803e3d6000fd5b505050506040513d601f19601f820116820180604052508101906119029190614415565b61190c9190614463565b6040518263ffffffff1660e01b8152600401610eed91815260200190565b604051630cd5dc4560e21b81526004810183905260009081906001600160a01b037f0000000000000000000000000000000000000000000000000000000000000000169063335771149060240160206040518083038186803b15801561198f57600080fd5b505afa1580156119a3573d6000803e3d6000fd5b505050506040513d601f19601f820116820180604052508101906119c79190614415565b604051631dc7631360e01b8152600481018590529092506000906001600160a01b037f00000000000000000000000000000000000000000000000000000000000000001690631dc763139060240160206040518083038186803b158015611a2d57600080fd5b505afa158015611a41573d6000803e3d6000fd5b505050506040513d601f19601f82011682018060405250810190611a659190614415565b60405163134bbd7b60e01b8152600481018790529091506000906001600160a01b037f0000000000000000000000000000000000000000000000000000000000000000169063134bbd7b9060240160806040518083038186803b158015611acb57600080fd5b505afa158015611adf573d6000803e3d6000fd5b505050506040513d601f19601f82011682018060405250810190611b0391906143a1565b90507f00000000000000000000000000000000000000000000000000000000000000006001600160a01b031663be9757a082600001518484604001518560200151611b4e919061447a565b611b589190614463565b6040516001600160e01b031960e085901b1681526004810192909252602482015260440160206040518083038186803b158015611b9457600080fd5b505afa158015611ba8573d6000803e3d6000fd5b505050506040513d601f19601f82011682018060405250810190611bcc9190614415565b925050509250929050565b6040516370a0823160e01b81526001600160a01b03858116600483015260009182917f000000000000000000000000000000000000000000000000000000000000000016906370a082319060240160206040518083038186803b158015611c3d57600080fd5b505afa158015611c51573d6000803e3d6000fd5b505050506040513d601f19601f82011682018060405250810190611c759190614415565b9150611c82858585610bf0565b905094509492505050565b6000807f00000000000000000000000000000000000000000000000000000000000000006001600160a01b031663af640d0f6040518163ffffffff1660e01b815260040160206040518083038186803b158015611ce957600080fd5b505afa158015611cfd573d6000803e3d6000fd5b505050506040513d601f19601f82011682018060405250810190611d219190614415565b861015611e9f5760405163134bbd7b60e01b8152600481018790526000907f00000000000000000000000000000000000000000000000000000000000000006001600160a01b03169063134bbd7b9060240160806040518083038186803b158015611d8b57600080fd5b505afa158015611d9f573d6000803e3d6000fd5b505050506040513d601f19601f82011682018060405250810190611dc391906143a1565b905080604001518160200151611dd9919061447a565b81516001600160a01b037f00000000000000000000000000000000000000000000000000000000000000001690632905f9cd90611e16908a61447a565b886040518363ffffffff1660e01b8152600401611e3d929190918252602082015260400190565b60206040518083038186803b158015611e5557600080fd5b505afa158015611e69573d6000803e3d6000fd5b505050506040513d601f19601f82011682018060405250810190611e8d9190614415565b611e979190614463565b915050611f41565b604051632905f9cd60e01b815260048101869052602481018590527f00000000000000000000000000000000000000000000000000000000000000006001600160a01b031690632905f9cd9060440160206040518083038186803b158015611f0657600080fd5b505afa158015611f1a573d6000803e3d6000fd5b505050506040513d601f19601f82011682018060405250810190611f3e9190614415565b90505b6040516302f0735360e11b815260048101829052602481018490527f00000000000000000000000000000000000000000000000000000000000000006001600160a01b0316906305e0e6a690604401604080518083038186803b158015611fa757600080fd5b505afa158015611fbb573d6000803e3d6000fd5b505050506040513d601f19601f82011682018060405250810190611fdf91906144e2565b509695505050505050565b60008060007f00000000000000000000000000000000000000000000000000000000000000006001600160a01b031663134bbd7b866040518263ffffffff1660e01b815260040161203d91815260200190565b60806040518083038186803b15801561205557600080fd5b505afa158015612069573d6000803e3d6000fd5b505050506040513d601f19601f8201168201806040525081019061208d91906143a1565b6040516370a0823160e01b81526001600160a01b0388811660048301529192506122a7917f000000000000000000000000000000000000000000000000000000000000000016906370a082319060240160206040518083038186803b1580156120f557600080fd5b505afa158015612109573d6000803e3d6000fd5b505050506040513d601f19601f8201168201806040525081019061212d9190614415565b8260000151867f00000000000000000000000000000000000000000000000000000000000000006001600160a01b0316635891de726040518163ffffffff1660e01b815260040160206040518083038186803b15801561218c57600080fd5b505afa1580156121a0573d6000803e3d6000fd5b505050506040513d601f19601f820116820180604052508101906121c49190614415565b6121ce9190614444565b846040015185602001516121e2919061447a565b7f00000000000000000000000000000000000000000000000000000000000000006001600160a01b031663e2036fd06040518163ffffffff1660e01b815260040160206040518083038186803b15801561223b57600080fd5b505afa15801561224f573d6000803e3d6000fd5b505050506040513d601f19601f820116820180604052508101906122739190614415565b61227d919061447a565b61228961271080614444565b6122939190614444565b61229d9190614492565b6109bc9190614463565b925050935093915050565b60008060007f00000000000000000000000000000000000000000000000000000000000000006001600160a01b031663bf0b893a6040518163ffffffff1660e01b815260040160206040518083038186803b15801561231057600080fd5b505afa158015612324573d6000803e3d6000fd5b505050506040513d601f19601f820116820180604052508101906123489190614415565b90508061235c5760008092509250506127f7565b7f00000000000000000000000000000000000000000000000000000000000000006001600160a01b031663af640d0f6040518163ffffffff1660e01b815260040160206040518083038186803b1580156123b557600080fd5b505afa1580156123c9573d6000803e3d6000fd5b505050506040513d601f19601f820116820180604052508101906123ed9190614415565b8610156126dc5760405163134bbd7b60e01b8152600481018790526000907f00000000000000000000000000000000000000000000000000000000000000006001600160a01b03169063134bbd7b9060240160806040518083038186803b15801561245757600080fd5b505afa15801561246b573d6000803e3d6000fd5b505050506040513d601f19601f8201168201806040525081019061248f91906143a1565b90506126397f00000000000000000000000000000000000000000000000000000000000000006001600160a01b031663f384bd056040518163ffffffff1660e01b815260040160206040518083038186803b1580156124ed57600080fd5b505afa158015612501573d6000803e3d6000fd5b505050506040513d601f19601f820116820180604052508101906125259190614415565b7f00000000000000000000000000000000000000000000000000000000000000006001600160a01b031663be9757a0898560000151612564919061447a565b6040516375c2f59560e01b8152600481018b90527f00000000000000000000000000000000000000000000000000000000000000006001600160a01b0316906375c2f595906024015b60206040518083038186803b1580156125c557600080fd5b505afa1580156125d9573d6000803e3d6000fd5b505050506040513d601f19601f820116820180604052508101906125fd9190614415565b6040516001600160e01b031960e085901b1681526004810192909252602482015260440160206040518083038186803b1580156113c257600080fd5b604051630cd5dc4560e21b8152600481018990529094507f00000000000000000000000000000000000000000000000000000000000000006001600160a01b03169063335771149060240160206040518083038186803b15801561269c57600080fd5b505afa1580156126b0573d6000803e3d6000fd5b505050506040513d601f19601f820116820180604052508101906126d49190614415565b9250506127f5565b6127ee7f00000000000000000000000000000000000000000000000000000000000000006001600160a01b031663f384bd056040518163ffffffff1660e01b815260040160206040518083038186803b15801561273857600080fd5b505afa15801561274c573d6000803e3d6000fd5b505050506040513d601f19601f820116820180604052508101906127709190614415565b7f00000000000000000000000000000000000000000000000000000000000000006001600160a01b031663be9757a0887f00000000000000000000000000000000000000000000000000000000000000006001600160a01b03166375c2f5958a6040518263ffffffff1660e01b81526004016125ad91815260200190565b9250600191505b505b935093915050565b6040516370a0823160e01b81526001600160a01b0383811660048301526000918291829182917f000000000000000000000000000000000000000000000000000000000000000016906370a082319060240160206040518083038186803b15801561286957600080fd5b505afa15801561287d573d6000803e3d6000fd5b505050506040513d601f19601f820116820180604052508101906128a19190614415565b604051630cd5dc4560e21b8152600481018790529094507f00000000000000000000000000000000000000000000000000000000000000006001600160a01b03169063335771149060240160206040518083038186803b15801561290457600080fd5b505afa158015612918573d6000803e3d6000fd5b505050506040513d601f19601f8201168201806040525081019061293c9190614415565b60405163db344ba360e01b8152600481018690529092506000906001600160a01b037f0000000000000000000000000000000000000000000000000000000000000000169063db344ba39060240160606040518083038186803b1580156129a257600080fd5b505afa1580156129b6573d6000803e3d6000fd5b505050506040513d601f19601f820116820180604052508101906129da91906144b4565b5060405163134bbd7b60e01b8152600481018990529093509091506000907f00000000000000000000000000000000000000000000000000000000000000006001600160a01b03169063134bbd7b9060240160806040518083038186803b158015612a4457600080fd5b505afa158015612a58573d6000803e3d6000fd5b505050506040513d601f19601f82011682018060405250810190612a7c91906143a1565b90507f00000000000000000000000000000000000000000000000000000000000000006001600160a01b031663bc61c4608383604001518460200151612ac2919061447a565b612acc9190614463565b866040518363ffffffff1660e01b8152600401612af3929190918252602082015260400190565b60206040518083038186803b158015612b0b57600080fd5b505afa158015612b1f573d6000803e3d6000fd5b505050506040513d601f19601f82011682018060405250810190612b439190614415565b8151612b4f9190614463565b9450505092959194509250565b6040516370a0823160e01b81526001600160a01b0383811660048301526000918291829182917f000000000000000000000000000000000000000000000000000000000000000016906370a082319060240160206040518083038186803b158015612bc657600080fd5b505afa158015612bda573d6000803e3d6000fd5b505050506040513d601f19601f82011682018060405250810190612bfe9190614415565b60405163134bbd7b60e01b8152600481018790529091506000906001600160a01b037f0000000000000000000000000000000000000000000000000000000000000000169063134bbd7b9060240160806040518083038186803b158015612c6457600080fd5b505afa158015612c78573d6000803e3d6000fd5b505050506040513d601f19601f82011682018060405250810190612c9c91906143a1565b90507f00000000000000000000000000000000000000000000000000000000000000006001600160a01b031663d5aa33d2612e117f00000000000000000000000000000000000000000000000000000000000000006001600160a01b031663f280db8a6040518163ffffffff1660e01b815260040160206040518083038186803b158015612d2957600080fd5b505afa158015612d3d573d6000803e3d6000fd5b505050506040513d601f19601f82011682018060405250810190612d619190614415565b604051632694d5e760e01b8152600481018790526109bc907f00000000000000000000000000000000000000000000000000000000000000006001600160a01b031690632694d5e79060240160206040518083038186803b158015612dc557600080fd5b505afa158015612dd9573d6000803e3d6000fd5b505050506040513d601f19601f82011682018060405250810190612dfd9190614415565b866040015187602001516109bc919061447a565b6040518263ffffffff1660e01b8152600401612e2f91815260200190565b60206040518083038186803b158015612e4757600080fd5b505afa158015612e5b573d6000803e3d6000fd5b505050506040513d601f19601f82011682018060405250810190612e7f9190614415565b6040516331a9108f60e11b8152600481018890529095506000906001600160a01b037f00000000000000000000000000000000000000000000000000000000000000001690636352211e9060240160206040518083038186803b158015612ee557600080fd5b505afa158015612ef9573d6000803e3d6000fd5b505050506040513d601f19601f82011682018060405250810190612f1d9190614506565b9050806001600160a01b0316886001600160a01b03161480612fdb575060405163e985e9c560e01b81526001600160a01b03828116600483015289811660248301527f0000000000000000000000000000000000000000000000000000000000000000169063e985e9c59060440160206040518083038186803b158015612fa357600080fd5b505afa158015612fb7573d6000803e3d6000fd5b505050506040513d601f19601f82011682018060405250810190612fdb9190614523565b806130945750876001600160a01b03167f00000000000000000000000000000000000000000000000000000000000000006001600160a01b031663081812fc896040518263ffffffff1660e01b815260040161303991815260200190565b60206040518083038186803b15801561305157600080fd5b505afa158015613065573d6000803e3d6000fd5b505050506040513d601f19601f820116820180604052508101906130899190614506565b6001600160a01b0316145b1561314557604051630cd5dc4560e21b8152600481018890527f00000000000000000000000000000000000000000000000000000000000000006001600160a01b03169063335771149060240160206040518083038186803b1580156130f957600080fd5b505afa15801561310d573d6000803e3d6000fd5b505050506040513d601f19601f820116820180604052508101906131319190614415565b935061313e87878661155f565b94506132a0565b8151604051632694d5e760e01b8152600481018890526001600160a01b037f000000000000000000000000000000000000000000000000000000000000000081169263be9757a09290917f00000000000000000000000000000000000000000000000000000000000000001690632694d5e79060240160206040518083038186803b1580156131d357600080fd5b505afa1580156131e7573d6000803e3d6000fd5b505050506040513d601f19601f8201168201806040525081019061320b9190614415565b8560400151866020015161321f919061447a565b6132299190614463565b6040516001600160e01b031960e085901b1681526004810192909252602482015260440160206040518083038186803b15801561326557600080fd5b505afa158015613279573d6000803e3d6000fd5b505050506040513d601f19601f8201168201806040525081019061329d9190614415565b93505b5050509250925092565b60008060008060007f00000000000000000000000000000000000000000000000000000000000000006001600160a01b03166370a08231886040518263ffffffff1660e01b815260040161330d91906001600160a01b0391909116815260200190565b60206040518083038186803b15801561332557600080fd5b505afa158015613339573d6000803e3d6000fd5b505050506040513d601f19601f8201168201806040525081019061335d9190614415565b6040516370a0823160e01b81526001600160a01b0389811660048301529192506000917f000000000000000000000000000000000000000000000000000000000000000016906370a082319060240160206040518083038186803b1580156133c457600080fd5b505afa1580156133d8573d6000803e3d6000fd5b505050506040513d601f19601f820116820180604052508101906133fc9190614415565b905060007f00000000000000000000000000000000000000000000000000000000000000006001600160a01b031663af640d0f6040518163ffffffff1660e01b815260040160206040518083038186803b15801561345957600080fd5b505afa15801561346d573d6000803e3d6000fd5b505050506040513d601f19601f820116820180604052508101906134919190614415565b8810156136aa5760405163134bbd7b60e01b8152600481018990526000907f00000000000000000000000000000000000000000000000000000000000000006001600160a01b03169063134bbd7b9060240160806040518083038186803b1580156134fb57600080fd5b505afa15801561350f573d6000803e3d6000fd5b505050506040513d601f19601f8201168201806040525081019061353391906143a1565b604051630cd5dc4560e21b8152600481018b90529091507f00000000000000000000000000000000000000000000000000000000000000006001600160a01b03169063335771149060240160206040518083038186803b15801561359657600080fd5b505afa1580156135aa573d6000803e3d6000fd5b505050506040513d601f19601f820116820180604052508101906135ce9190614415565b9650806040015181602001516135e4919061447a565b81516001600160a01b037f00000000000000000000000000000000000000000000000000000000000000001690632905f9cd90613621908861447a565b8a6040518363ffffffff1660e01b8152600401613648929190918252602082015260400190565b60206040518083038186803b15801561366057600080fd5b505afa158015613674573d6000803e3d6000fd5b505050506040513d601f19601f820116820180604052508101906136989190614415565b6136a29190614463565b915050613751565b604051632905f9cd60e01b815260048101849052610fa06024820181905296507f00000000000000000000000000000000000000000000000000000000000000006001600160a01b031690632905f9cd9060440160206040518083038186803b15801561371657600080fd5b505afa15801561372a573d6000803e3d6000fd5b505050506040513d601f19601f8201168201806040525081019061374e9190614415565b90505b6040516302f0735360e11b815260048101829052602481018390527f00000000000000000000000000000000000000000000000000000000000000006001600160a01b0316906305e0e6a690604401604080518083038186803b1580156137b757600080fd5b505afa1580156137cb573d6000803e3d6000fd5b505050506040513d601f19601f820116820180604052508101906137ef91906144e2565b50604051630f5510c160e31b8152600481018290529094506001600160a01b037f000000000000000000000000000000000000000000000000000000000000000081169163bc61c460917f00000000000000000000000000000000000000000000000000000000000000001690637aa886089060240160206040518083038186803b15801561387d57600080fd5b505afa158015613891573d6000803e3d6000fd5b505050506040513d601f19601f820116820180604052508101906138b59190614415565b886040518363ffffffff1660e01b81526004016138dc929190918252602082015260400190565b60206040518083038186803b1580156138f457600080fd5b505afa158015613908573d6000803e3d6000fd5b505050506040513d601f19601f8201168201806040525081019061392c9190614415565b604051630e3cc56f60e41b8152600481018690529097507f00000000000000000000000000000000000000000000000000000000000000006001600160a01b03169063e3cc56f09060240160206040518083038186803b15801561398f57600080fd5b505afa1580156139a3573d6000803e3d6000fd5b505050506040513d601f19601f820116820180604052508101906139c79190614415565b945050505092959194509250565b6040516375c2f59560e01b81526004810183905260009081906001600160a01b037f000000000000000000000000000000000000000000000000000000000000000016906375c2f5959060240160206040518083038186803b158015613a3a57600080fd5b505afa158015613a4e573d6000803e3d6000fd5b505050506040513d601f19601f82011682018060405250810190613a729190614415565b90507f00000000000000000000000000000000000000000000000000000000000000006001600160a01b031663af640d0f6040518163ffffffff1660e01b815260040160206040518083038186803b158015613acd57600080fd5b505afa158015613ae1573d6000803e3d6000fd5b505050506040513d601f19601f82011682018060405250810190613b059190614415565b851015613d2d5760405163134bbd7b60e01b8152600481018690526000907f00000000000000000000000000000000000000000000000000000000000000006001600160a01b03169063134bbd7b9060240160806040518083038186803b158015613b6f57600080fd5b505afa158015613b83573d6000803e3d6000fd5b505050506040513d601f19601f82011682018060405250810190613ba791906143a1565b9050613d2581600001517f00000000000000000000000000000000000000000000000000000000000000006001600160a01b031663bc61c4608585604001518660200151613bf5919061447a565b613bff919061447a565b886040518363ffffffff1660e01b8152600401613c26929190918252602082015260400190565b60206040518083038186803b158015613c3e57600080fd5b505afa158015613c52573d6000803e3d6000fd5b505050506040513d601f19601f82011682018060405250810190613c769190614415565b613c809190614463565b82600001517f00000000000000000000000000000000000000000000000000000000000000006001600160a01b031663babe7c746040518163ffffffff1660e01b815260040160206040518083038186803b158015613cde57600080fd5b505afa158015613cf2573d6000803e3d6000fd5b505050506040513d601f19601f82011682018060405250810190613d169190614415565b613d209190614463565b614245565b925050613e64565b6040516305e30e2360e51b81526004810182905260248101849052610f3d907f00000000000000000000000000000000000000000000000000000000000000006001600160a01b03169063bc61c4609060440160206040518083038186803b158015613d9857600080fd5b505afa158015613dac573d6000803e3d6000fd5b505050506040513d601f19601f82011682018060405250810190613dd09190614415565b9250827f00000000000000000000000000000000000000000000000000000000000000006001600160a01b031663babe7c746040518163ffffffff1660e01b815260040160206040518083038186803b158015613e2c57600080fd5b505afa158015613e40573d6000803e3d6000fd5b505050506040513d601f19601f82011682018060405250810190613d209190614415565b509392505050565b6040516370a0823160e01b81526001600160a01b0383811660048301526000918291829182917f000000000000000000000000000000000000000000000000000000000000000016906370a082319060240160206040518083038186803b158015613ed657600080fd5b505afa158015613eea573d6000803e3d6000fd5b505050506040513d601f19601f82011682018060405250810190613f0e9190614415565b604051630cd5dc4560e21b8152600481018790529091507f00000000000000000000000000000000000000000000000000000000000000006001600160a01b03169063335771149060240160206040518083038186803b158015613f7157600080fd5b505afa158015613f85573d6000803e3d6000fd5b505050506040513d601f19601f82011682018060405250810190613fa99190614415565b60405163134bbd7b60e01b8152600481018790529093506000906001600160a01b037f0000000000000000000000000000000000000000000000000000000000000000169063134bbd7b9060240160806040518083038186803b15801561400f57600080fd5b505afa158015614023573d6000803e3d6000fd5b505050506040513d601f19601f8201168201806040525081019061404791906143a1565b90507f00000000000000000000000000000000000000000000000000000000000000006001600160a01b031663bc61c4606140f38360400151846020015161408f919061447a565b84516001600160a01b037f00000000000000000000000000000000000000000000000000000000000000001690632905f9cd906140cc908961447a565b8a6040518363ffffffff1660e01b815260040161130f929190918252602082015260400190565b866040518363ffffffff1660e01b815260040161411a929190918252602082015260400190565b60206040518083038186803b15801561413257600080fd5b505afa158015614146573d6000803e3d6000fd5b505050506040513d601f19601f8201168201806040525081019061416a9190614415565b945061417786868661176c565b925050509250925092565b6040516370a0823160e01b81526001600160a01b03858116600483015260009182917f000000000000000000000000000000000000000000000000000000000000000016906370a082319060240160206040518083038186803b1580156141e857600080fd5b505afa1580156141fc573d6000803e3d6000fd5b505050506040513d601f19601f820116820180604052508101906142209190614415565b9150611c828584866139d5565b600081831061423c578161423e565b825b9392505050565b600081831161423c578161423e565b6000806040838503121561426757600080fd5b50508035926020909101359150565b6001600160a01b038116811461428b57600080fd5b50565b600080604083850312156142a157600080fd5b82356142ac81614276565b946020939093013593505050565b6000806000606084860312156142cf57600080fd5b505081359360208301359350604090920135919050565b6000602082840312156142f857600080fd5b5035919050565b6000806000806080858703121561431557600080fd5b843561432081614276565b966020860135965060408601359560600135945092505050565b6000806000806080858703121561435057600080fd5b5050823594602084013594506040840135936060013592509050565b60008060006060848603121561438157600080fd5b833561438c81614276565b95602085013595506040909401359392505050565b6000608082840312156143b357600080fd5b6040516080810181811067ffffffffffffffff821117156143e457634e487b7160e01b600052604160045260246000fd5b8060405250825181526020830151602082015260408301516040820152606083015160608201528091505092915050565b60006020828403121561442757600080fd5b5051919050565b634e487b7160e01b600052601160045260246000fd5b600081600019048311821515161561445e5761445e61442e565b500290565b6000828210156144755761447561442e565b500390565b6000821982111561448d5761448d61442e565b500190565b6000826144af57634e487b7160e01b600052601260045260246000fd5b500490565b6000806000606084860312156144c957600080fd5b8351925060208401519150604084015190509250925092565b600080604083850312156144f557600080fd5b505080516020909101519092909150565b60006020828403121561451857600080fd5b815161423e81614276565b60006020828403121561453557600080fd5b8151801515811461423e57600080fdfea26469706673582212204caca051edd73326bf7e488f9de499d331504e54b1377ba955eaa6729e55651a64736f6c63430008090033",
  "linkReferences": {},
  "deployedLinkReferences": {}
}