{
  "_format": "hh-sol-artifact-1",
  "contractName": "FoxFarm",
  "sourceName": "contracts/FoxFarm.sol",
  "abi": [
    {
      "inputs": [
        {
          "internalType": "address",
          "name": "oracleFeeder_",
          "type": "address"
        },
        {
          "internalType": "address",
          "name": "feeTo_",
          "type": "address"
        },
        {
          "internalType": "address",
          "name": "collateralToken_",
          "type": "address"
        },
        {
          "internalType": "address",
          "name": "debtToken_",
          "type": "address"
        },
        {
          "internalType": "address",
          "name": "shareToken_",
          "type": "address"
        },
        {
          "internalType": "address",
          "name": "stableToken_",
          "type": "address"
        },
        {
          "internalType": "uint256",
          "name": "maxLTV_",
          "type": "uint256"
        },
        {
          "internalType": "uint256",
          "name": "cap_",
          "type": "uint256"
        },
        {
          "internalType": "uint256",
          "name": "feeRatio_",
          "type": "uint256"
        }
      ],
      "stateMutability": "nonpayable",
      "type": "constructor"
    },
    {
      "anonymous": false,
      "inputs": [
        {
          "indexed": true,
          "internalType": "address",
          "name": "owner",
          "type": "address"
        },
        {
          "indexed": true,
          "internalType": "address",
          "name": "approved",
          "type": "address"
        },
        {
          "indexed": true,
          "internalType": "uint256",
          "name": "tokenId",
          "type": "uint256"
        }
      ],
      "name": "Approval",
      "type": "event"
    },
    {
      "anonymous": false,
      "inputs": [
        {
          "indexed": true,
          "internalType": "address",
          "name": "owner",
          "type": "address"
        },
        {
          "indexed": true,
          "internalType": "address",
          "name": "operator",
          "type": "address"
        },
        {
          "indexed": false,
          "internalType": "bool",
          "name": "approved",
          "type": "bool"
        }
      ],
      "name": "ApprovalForAll",
      "type": "event"
    },
    {
      "anonymous": false,
      "inputs": [
        {
          "indexed": true,
          "internalType": "address",
          "name": "account_",
          "type": "address"
        },
        {
          "indexed": true,
          "internalType": "uint256",
          "name": "id_",
          "type": "uint256"
        },
        {
          "indexed": false,
          "internalType": "uint256",
          "name": "amount",
          "type": "uint256"
        }
      ],
      "name": "Borrow",
      "type": "event"
    },
    {
      "anonymous": false,
      "inputs": [
        {
          "indexed": true,
          "internalType": "address",
          "name": "account_",
          "type": "address"
        },
        {
          "indexed": true,
          "internalType": "uint256",
          "name": "id_",
          "type": "uint256"
        }
      ],
      "name": "Close",
      "type": "event"
    },
    {
      "anonymous": false,
      "inputs": [
        {
          "indexed": true,
          "internalType": "address",
          "name": "account_",
          "type": "address"
        },
        {
          "indexed": true,
          "internalType": "uint256",
          "name": "id_",
          "type": "uint256"
        },
        {
          "indexed": false,
          "internalType": "uint256",
          "name": "amount",
          "type": "uint256"
        }
      ],
      "name": "Deposit",
      "type": "event"
    },
    {
      "anonymous": false,
      "inputs": [
        {
          "indexed": true,
          "internalType": "address",
          "name": "account_",
          "type": "address"
        },
        {
          "indexed": true,
          "internalType": "uint256",
          "name": "id_",
          "type": "uint256"
        }
      ],
      "name": "Open",
      "type": "event"
    },
    {
      "anonymous": false,
      "inputs": [
        {
          "indexed": true,
          "internalType": "address",
          "name": "previousOwner",
          "type": "address"
        },
        {
          "indexed": true,
          "internalType": "address",
          "name": "newOwner",
          "type": "address"
        }
      ],
      "name": "OwnershipTransferred",
      "type": "event"
    },
    {
      "anonymous": false,
      "inputs": [
        {
          "indexed": false,
          "internalType": "address",
          "name": "account",
          "type": "address"
        }
      ],
      "name": "Paused",
      "type": "event"
    },
    {
      "anonymous": false,
      "inputs": [
        {
          "indexed": true,
          "internalType": "address",
          "name": "account_",
          "type": "address"
        },
        {
          "indexed": true,
          "internalType": "uint256",
          "name": "id_",
          "type": "uint256"
        },
        {
          "indexed": false,
          "internalType": "uint256",
          "name": "amount",
          "type": "uint256"
        }
      ],
      "name": "Repay",
      "type": "event"
    },
    {
      "anonymous": false,
      "inputs": [
        {
          "indexed": false,
          "internalType": "uint256",
          "name": "prevCap",
          "type": "uint256"
        },
        {
          "indexed": false,
          "internalType": "uint256",
          "name": "currCap",
          "type": "uint256"
        }
      ],
      "name": "SetCap",
      "type": "event"
    },
    {
      "anonymous": false,
      "inputs": [
        {
          "indexed": false,
          "internalType": "uint256",
          "name": "prevFeeRatio",
          "type": "uint256"
        },
        {
          "indexed": false,
          "internalType": "uint256",
          "name": "currFeeRatio",
          "type": "uint256"
        }
      ],
      "name": "SetFeeRatio",
      "type": "event"
    },
    {
      "anonymous": false,
      "inputs": [
        {
          "indexed": false,
          "internalType": "address",
          "name": "prevFeeTo",
          "type": "address"
        },
        {
          "indexed": false,
          "internalType": "address",
          "name": "currFeeTo",
          "type": "address"
        }
      ],
      "name": "SetFeeTo",
      "type": "event"
    },
    {
      "anonymous": false,
      "inputs": [
        {
          "indexed": false,
          "internalType": "uint256",
          "name": "prevMaxLTV",
          "type": "uint256"
        },
        {
          "indexed": false,
          "internalType": "uint256",
          "name": "currMaxLTV",
          "type": "uint256"
        }
      ],
      "name": "SetMaxLTV",
      "type": "event"
    },
    {
      "anonymous": false,
      "inputs": [
        {
          "indexed": true,
          "internalType": "address",
          "name": "from",
          "type": "address"
        },
        {
          "indexed": true,
          "internalType": "address",
          "name": "to",
          "type": "address"
        },
        {
          "indexed": true,
          "internalType": "uint256",
          "name": "tokenId",
          "type": "uint256"
        }
      ],
      "name": "Transfer",
      "type": "event"
    },
    {
      "anonymous": false,
      "inputs": [
        {
          "indexed": false,
          "internalType": "address",
          "name": "account",
          "type": "address"
        }
      ],
      "name": "Unpaused",
      "type": "event"
    },
    {
      "anonymous": false,
      "inputs": [
        {
          "indexed": true,
          "internalType": "uint256",
          "name": "id_",
          "type": "uint256"
        },
        {
          "indexed": false,
          "internalType": "uint256",
          "name": "prevFee",
          "type": "uint256"
        },
        {
          "indexed": false,
          "internalType": "uint256",
          "name": "currFee",
          "type": "uint256"
        },
        {
          "indexed": false,
          "internalType": "uint256",
          "name": "prevTimestamp",
          "type": "uint256"
        },
        {
          "indexed": false,
          "internalType": "uint256",
          "name": "currTimestamp",
          "type": "uint256"
        }
      ],
      "name": "Update",
      "type": "event"
    },
    {
      "anonymous": false,
      "inputs": [
        {
          "indexed": false,
          "internalType": "address",
          "name": "prevOracleFeeder",
          "type": "address"
        },
        {
          "indexed": false,
          "internalType": "address",
          "name": "currOracle",
          "type": "address"
        }
      ],
      "name": "UpdateOracleFeeder",
      "type": "event"
    },
    {
      "anonymous": false,
      "inputs": [
        {
          "indexed": true,
          "internalType": "address",
          "name": "token",
          "type": "address"
        },
        {
          "indexed": false,
          "internalType": "uint256",
          "name": "prevPrice",
          "type": "uint256"
        },
        {
          "indexed": false,
          "internalType": "uint256",
          "name": "currPrice",
          "type": "uint256"
        }
      ],
      "name": "UpdatePrice",
      "type": "event"
    },
    {
      "anonymous": false,
      "inputs": [
        {
          "indexed": true,
          "internalType": "address",
          "name": "account_",
          "type": "address"
        },
        {
          "indexed": true,
          "internalType": "uint256",
          "name": "id_",
          "type": "uint256"
        },
        {
          "indexed": false,
          "internalType": "uint256",
          "name": "amount",
          "type": "uint256"
        }
      ],
      "name": "Withdraw",
      "type": "event"
    },
    {
      "inputs": [
        {
          "internalType": "address",
          "name": "to",
          "type": "address"
        },
        {
          "internalType": "uint256",
          "name": "tokenId",
          "type": "uint256"
        }
      ],
      "name": "approve",
      "outputs": [],
      "stateMutability": "nonpayable",
      "type": "function"
    },
    {
      "inputs": [
        {
          "internalType": "address",
          "name": "owner",
          "type": "address"
        }
      ],
      "name": "balanceOf",
      "outputs": [
        {
          "internalType": "uint256",
          "name": "",
          "type": "uint256"
        }
      ],
      "stateMutability": "view",
      "type": "function"
    },
    {
      "inputs": [
        {
          "internalType": "uint256",
          "name": "id_",
          "type": "uint256"
        },
        {
          "internalType": "uint256",
          "name": "amount_",
          "type": "uint256"
        }
      ],
      "name": "borrow",
      "outputs": [],
      "stateMutability": "nonpayable",
      "type": "function"
    },
    {
      "inputs": [
        {
          "internalType": "uint256",
          "name": "id_",
          "type": "uint256"
        },
        {
          "internalType": "uint256",
          "name": "multipliedLtv_",
          "type": "uint256"
        }
      ],
      "name": "borrowAmountToLTV",
      "outputs": [
        {
          "internalType": "uint256",
          "name": "debtAmount_",
          "type": "uint256"
        }
      ],
      "stateMutability": "view",
      "type": "function"
    },
    {
      "inputs": [
        {
          "internalType": "address",
          "name": "account_",
          "type": "address"
        },
        {
          "internalType": "uint256",
          "name": "id_",
          "type": "uint256"
        }
      ],
      "name": "buybackCoupon",
      "outputs": [
        {
          "internalType": "uint256",
          "name": "debtAmount_",
          "type": "uint256"
        }
      ],
      "stateMutability": "nonpayable",
      "type": "function"
    },
    {
      "inputs": [
        {
          "internalType": "address",
          "name": "account_",
          "type": "address"
        },
        {
          "internalType": "uint256",
          "name": "id_",
          "type": "uint256"
        },
        {
          "internalType": "uint256",
          "name": "amount_",
          "type": "uint256"
        }
      ],
      "name": "buybackRepayDebt",
      "outputs": [
        {
          "internalType": "uint256",
          "name": "debtAmount_",
          "type": "uint256"
        }
      ],
      "stateMutability": "nonpayable",
      "type": "function"
    },
    {
      "inputs": [
        {
          "internalType": "address",
          "name": "account_",
          "type": "address"
        },
        {
          "internalType": "uint256",
          "name": "id_",
          "type": "uint256"
        },
        {
          "internalType": "uint256",
          "name": "amount_",
          "type": "uint256"
        }
      ],
      "name": "buybackWithdrawCollateral",
      "outputs": [
        {
          "internalType": "uint256",
          "name": "debtAmount_",
          "type": "uint256"
        }
      ],
      "stateMutability": "nonpayable",
      "type": "function"
    },
    {
      "inputs": [],
      "name": "cap",
      "outputs": [
        {
          "internalType": "uint256",
          "name": "",
          "type": "uint256"
        }
      ],
      "stateMutability": "view",
      "type": "function"
    },
    {
      "inputs": [
        {
          "internalType": "uint256",
          "name": "",
          "type": "uint256"
        }
      ],
      "name": "cdps",
      "outputs": [
        {
          "internalType": "uint256",
          "name": "collateral",
          "type": "uint256"
        },
        {
          "internalType": "uint256",
          "name": "debt",
          "type": "uint256"
        },
        {
          "internalType": "uint256",
          "name": "fee",
          "type": "uint256"
        },
        {
          "internalType": "uint256",
          "name": "latestUpdate",
          "type": "uint256"
        }
      ],
      "stateMutability": "view",
      "type": "function"
    },
    {
      "inputs": [
        {
          "internalType": "uint256",
          "name": "id_",
          "type": "uint256"
        }
      ],
      "name": "close",
      "outputs": [],
      "stateMutability": "nonpayable",
      "type": "function"
    },
    {
      "inputs": [
        {
          "internalType": "uint256",
          "name": "id_",
          "type": "uint256"
        }
      ],
      "name": "currentLTV",
      "outputs": [
        {
          "internalType": "uint256",
          "name": "ltv",
          "type": "uint256"
        }
      ],
      "stateMutability": "view",
      "type": "function"
    },
    {
      "inputs": [
        {
          "internalType": "uint256",
          "name": "id_",
          "type": "uint256"
        },
        {
          "internalType": "uint256",
          "name": "amount_",
          "type": "uint256"
        }
      ],
      "name": "deposit",
      "outputs": [],
      "stateMutability": "nonpayable",
      "type": "function"
    },
    {
      "inputs": [
        {
          "internalType": "uint256",
          "name": "id_",
          "type": "uint256"
        },
        {
          "internalType": "uint256",
          "name": "depositAmount_",
          "type": "uint256"
        },
        {
          "internalType": "uint256",
          "name": "borrowAmount_",
          "type": "uint256"
        }
      ],
      "name": "depositAndBorrow",
      "outputs": [],
      "stateMutability": "nonpayable",
      "type": "function"
    },
    {
      "inputs": [
        {
          "internalType": "uint256",
          "name": "tokenId",
          "type": "uint256"
        }
      ],
      "name": "getApproved",
      "outputs": [
        {
          "internalType": "address",
          "name": "",
          "type": "address"
        }
      ],
      "stateMutability": "view",
      "type": "function"
    },
    {
      "inputs": [],
      "name": "globalLiquidate",
      "outputs": [],
      "stateMutability": "nonpayable",
      "type": "function"
    },
    {
      "inputs": [
        {
          "internalType": "uint256",
          "name": "id_",
          "type": "uint256"
        }
      ],
      "name": "healthFactor",
      "outputs": [
        {
          "internalType": "uint256",
          "name": "health",
          "type": "uint256"
        }
      ],
      "stateMutability": "view",
      "type": "function"
    },
    {
      "inputs": [],
      "name": "id",
      "outputs": [
        {
          "internalType": "uint256",
          "name": "",
          "type": "uint256"
        }
      ],
      "stateMutability": "view",
      "type": "function"
    },
    {
      "inputs": [
        {
          "internalType": "address",
          "name": "owner",
          "type": "address"
        },
        {
          "internalType": "address",
          "name": "operator",
          "type": "address"
        }
      ],
      "name": "isApprovedForAll",
      "outputs": [
        {
          "internalType": "bool",
          "name": "",
          "type": "bool"
        }
      ],
      "stateMutability": "view",
      "type": "function"
    },
    {
      "inputs": [
        {
          "internalType": "uint256",
          "name": "id_",
          "type": "uint256"
        }
      ],
      "name": "isSafe",
      "outputs": [
        {
          "internalType": "bool",
          "name": "",
          "type": "bool"
        }
      ],
      "stateMutability": "view",
      "type": "function"
    },
    {
      "inputs": [
        {
          "internalType": "uint256",
          "name": "id_",
          "type": "uint256"
        }
      ],
      "name": "liquidate",
      "outputs": [],
      "stateMutability": "nonpayable",
      "type": "function"
    },
    {
      "inputs": [],
      "name": "maxLTV",
      "outputs": [
        {
          "internalType": "uint256",
          "name": "",
          "type": "uint256"
        }
      ],
      "stateMutability": "view",
      "type": "function"
    },
    {
      "inputs": [],
      "name": "name",
      "outputs": [
        {
          "internalType": "string",
          "name": "",
          "type": "string"
        }
      ],
      "stateMutability": "view",
      "type": "function"
    },
    {
      "inputs": [],
      "name": "open",
      "outputs": [
        {
          "internalType": "uint256",
          "name": "id_",
          "type": "uint256"
        }
      ],
      "stateMutability": "nonpayable",
      "type": "function"
    },
    {
      "inputs": [
        {
          "internalType": "uint256",
          "name": "amount_",
          "type": "uint256"
        }
      ],
      "name": "openAndDeposit",
      "outputs": [
        {
          "internalType": "uint256",
          "name": "id_",
          "type": "uint256"
        }
      ],
      "stateMutability": "nonpayable",
      "type": "function"
    },
    {
      "inputs": [
        {
          "internalType": "uint256",
          "name": "depositAmount_",
          "type": "uint256"
        },
        {
          "internalType": "uint256",
          "name": "borrowAmount_",
          "type": "uint256"
        }
      ],
      "name": "openAndDepositAndBorrow",
      "outputs": [
        {
          "internalType": "uint256",
          "name": "id_",
          "type": "uint256"
        }
      ],
      "stateMutability": "nonpayable",
      "type": "function"
    },
    {
      "inputs": [],
      "name": "owner",
      "outputs": [
        {
          "internalType": "address",
          "name": "",
          "type": "address"
        }
      ],
      "stateMutability": "view",
      "type": "function"
    },
    {
      "inputs": [
        {
          "internalType": "uint256",
          "name": "tokenId",
          "type": "uint256"
        }
      ],
      "name": "ownerOf",
      "outputs": [
        {
          "internalType": "address",
          "name": "",
          "type": "address"
        }
      ],
      "stateMutability": "view",
      "type": "function"
    },
    {
      "inputs": [],
      "name": "pause",
      "outputs": [],
      "stateMutability": "nonpayable",
      "type": "function"
    },
    {
      "inputs": [],
      "name": "paused",
      "outputs": [
        {
          "internalType": "bool",
          "name": "",
          "type": "bool"
        }
      ],
      "stateMutability": "view",
      "type": "function"
    },
    {
      "inputs": [
        {
          "internalType": "address",
          "name": "account_",
          "type": "address"
        },
        {
          "internalType": "uint256",
          "name": "id_",
          "type": "uint256"
        },
        {
          "internalType": "uint256",
          "name": "amount_",
          "type": "uint256"
        }
      ],
      "name": "recollateralizeBorrowDebt",
      "outputs": [
        {
          "internalType": "uint256",
          "name": "shareAmount_",
          "type": "uint256"
        },
        {
          "internalType": "uint256",
          "name": "bonusAmount_",
          "type": "uint256"
        }
      ],
      "stateMutability": "nonpayable",
      "type": "function"
    },
    {
      "inputs": [
        {
          "internalType": "address",
          "name": "account_",
          "type": "address"
        },
        {
          "internalType": "uint256",
          "name": "id_",
          "type": "uint256"
        },
        {
          "internalType": "uint256",
          "name": "amount_",
          "type": "uint256"
        }
      ],
      "name": "recollateralizeDepositCollateral",
      "outputs": [
        {
          "internalType": "uint256",
          "name": "shareAmount_",
          "type": "uint256"
        },
        {
          "internalType": "uint256",
          "name": "bonusAmount_",
          "type": "uint256"
        }
      ],
      "stateMutability": "nonpayable",
      "type": "function"
    },
    {
      "inputs": [],
      "name": "renounceOwnership",
      "outputs": [],
      "stateMutability": "nonpayable",
      "type": "function"
    },
    {
      "inputs": [
        {
          "internalType": "uint256",
          "name": "id_",
          "type": "uint256"
        },
        {
          "internalType": "uint256",
          "name": "amount_",
          "type": "uint256"
        }
      ],
      "name": "repay",
      "outputs": [],
      "stateMutability": "nonpayable",
      "type": "function"
    },
    {
      "inputs": [
        {
          "internalType": "uint256",
          "name": "id_",
          "type": "uint256"
        },
        {
          "internalType": "uint256",
          "name": "repayAmount_",
          "type": "uint256"
        },
        {
          "internalType": "uint256",
          "name": "withdrawAmount_",
          "type": "uint256"
        }
      ],
      "name": "repayAndWithdraw",
      "outputs": [],
      "stateMutability": "nonpayable",
      "type": "function"
    },
    {
      "inputs": [
        {
          "internalType": "address",
          "name": "from",
          "type": "address"
        },
        {
          "internalType": "address",
          "name": "to",
          "type": "address"
        },
        {
          "internalType": "uint256",
          "name": "tokenId",
          "type": "uint256"
        }
      ],
      "name": "safeTransferFrom",
      "outputs": [],
      "stateMutability": "nonpayable",
      "type": "function"
    },
    {
      "inputs": [
        {
          "internalType": "address",
          "name": "from",
          "type": "address"
        },
        {
          "internalType": "address",
          "name": "to",
          "type": "address"
        },
        {
          "internalType": "uint256",
          "name": "tokenId",
          "type": "uint256"
        },
        {
          "internalType": "bytes",
          "name": "data",
          "type": "bytes"
        }
      ],
      "name": "safeTransferFrom",
      "outputs": [],
      "stateMutability": "nonpayable",
      "type": "function"
    },
    {
      "inputs": [
        {
          "internalType": "address",
          "name": "operator",
          "type": "address"
        },
        {
          "internalType": "bool",
          "name": "approved",
          "type": "bool"
        }
      ],
      "name": "setApprovalForAll",
      "outputs": [],
      "stateMutability": "nonpayable",
      "type": "function"
    },
    {
      "inputs": [
        {
          "internalType": "uint256",
          "name": "newCap",
          "type": "uint256"
        }
      ],
      "name": "setCap",
      "outputs": [],
      "stateMutability": "nonpayable",
      "type": "function"
    },
    {
      "inputs": [
        {
          "internalType": "uint256",
          "name": "newFeeRatio",
          "type": "uint256"
        }
      ],
      "name": "setFeeRatio",
      "outputs": [],
      "stateMutability": "nonpayable",
      "type": "function"
    },
    {
      "inputs": [
        {
          "internalType": "address",
          "name": "newFeeTo",
          "type": "address"
        }
      ],
      "name": "setFeeTo",
      "outputs": [],
      "stateMutability": "nonpayable",
      "type": "function"
    },
    {
      "inputs": [
        {
          "internalType": "uint256",
          "name": "newMaxLTV",
          "type": "uint256"
        }
      ],
      "name": "setMaxLTV",
      "outputs": [],
      "stateMutability": "nonpayable",
      "type": "function"
    },
    {
      "inputs": [
        {
          "internalType": "bytes4",
          "name": "interfaceId",
          "type": "bytes4"
        }
      ],
      "name": "supportsInterface",
      "outputs": [
        {
          "internalType": "bool",
          "name": "",
          "type": "bool"
        }
      ],
      "stateMutability": "view",
      "type": "function"
    },
    {
      "inputs": [],
      "name": "symbol",
      "outputs": [
        {
          "internalType": "string",
          "name": "",
          "type": "string"
        }
      ],
      "stateMutability": "view",
      "type": "function"
    },
    {
      "inputs": [
        {
          "internalType": "uint256",
          "name": "tokenId",
          "type": "uint256"
        }
      ],
      "name": "tokenURI",
      "outputs": [
        {
          "internalType": "string",
          "name": "",
          "type": "string"
        }
      ],
      "stateMutability": "view",
      "type": "function"
    },
    {
      "inputs": [
        {
          "internalType": "address",
          "name": "from",
          "type": "address"
        },
        {
          "internalType": "address",
          "name": "to",
          "type": "address"
        },
        {
          "internalType": "uint256",
          "name": "tokenId",
          "type": "uint256"
        }
      ],
      "name": "transferFrom",
      "outputs": [],
      "stateMutability": "nonpayable",
      "type": "function"
    },
    {
      "inputs": [
        {
          "internalType": "address",
          "name": "newOwner",
          "type": "address"
        }
      ],
      "name": "transferOwnership",
      "outputs": [],
      "stateMutability": "nonpayable",
      "type": "function"
    },
    {
      "inputs": [],
      "name": "unpause",
      "outputs": [],
      "stateMutability": "nonpayable",
      "type": "function"
    },
    {
      "inputs": [
        {
          "internalType": "uint256",
          "name": "newCollateralPrice",
          "type": "uint256"
        },
        {
          "internalType": "uint256",
          "name": "confidence",
          "type": "uint256"
        }
      ],
      "name": "updateCollateralPrice",
      "outputs": [],
      "stateMutability": "nonpayable",
      "type": "function"
    },
    {
      "inputs": [
        {
          "internalType": "uint256",
          "name": "id_",
          "type": "uint256"
        }
      ],
      "name": "updateFee",
      "outputs": [
        {
          "internalType": "uint256",
          "name": "additionalFee",
          "type": "uint256"
        }
      ],
      "stateMutability": "nonpayable",
      "type": "function"
    },
    {
      "inputs": [
        {
          "internalType": "address",
          "name": "newOracleFeeder",
          "type": "address"
        }
      ],
      "name": "updateOracleFeeder",
      "outputs": [],
      "stateMutability": "nonpayable",
      "type": "function"
    },
    {
      "inputs": [
        {
          "internalType": "uint256",
          "name": "id_",
          "type": "uint256"
        },
        {
          "internalType": "uint256",
          "name": "amount_",
          "type": "uint256"
        }
      ],
      "name": "withdraw",
      "outputs": [],
      "stateMutability": "nonpayable",
      "type": "function"
    },
    {
      "inputs": [
        {
          "internalType": "uint256",
          "name": "id_",
          "type": "uint256"
        },
        {
          "internalType": "uint256",
          "name": "multipliedLtv_",
          "type": "uint256"
        }
      ],
      "name": "withdrawAmountToLTV",
      "outputs": [
        {
          "internalType": "uint256",
          "name": "collateralAmount_",
          "type": "uint256"
        }
      ],
      "stateMutability": "view",
      "type": "function"
    }
  ],
  "bytecode": "0x6101006040526127106009553480156200001857600080fd5b5060405162003b6a38038062003b6a8339810160408190526200003b9162000430565b6040805180820182526007815266466f784661726d60c81b6020808301918252835180850190945260068452650464f584344560d41b90840152600080546001600160a01b0319166001600160a01b038e161790554260015581519192918c918c918c918c918a918a918a918a918a91620000ba91600291906200036d565b508051620000d09060039060208401906200036d565b50506008805460ff1916905550620000e83362000313565b600c80546001600160a01b0319166001600160a01b0397881617905593851660805291841660a052600a55600b55600d558c93508316151591506200017a90505760405162461bcd60e51b8152602060048201526031602482015260008051602062003b4a833981519152604482015260008051602062003b2a83398151915260648201526084015b60405180910390fd5b876001600160a01b038116620001d75760405162461bcd60e51b8152602060048201526031602482015260008051602062003b4a833981519152604482015260008051602062003b2a833981519152606482015260840162000171565b876001600160a01b038116620002345760405162461bcd60e51b8152602060048201526031602482015260008051602062003b4a833981519152604482015260008051602062003b2a833981519152606482015260840162000171565b876001600160a01b038116620002915760405162461bcd60e51b8152602060048201526031602482015260008051602062003b4a833981519152604482015260008051602062003b2a833981519152606482015260840162000171565b876001600160a01b038116620002ee5760405162461bcd60e51b8152602060048201526031602482015260008051602062003b4a833981519152604482015260008051602062003b2a833981519152606482015260840162000171565b505050506001600160a01b0395861660e052505050501660c052506200050d92505050565b600880546001600160a01b03838116610100818102610100600160a81b031985161790945560405193909204169182907f8be0079c531659141344cd1fd0a4f28419497f9722a3daafe3b4186f6b6457e090600090a35050565b8280546200037b90620004d0565b90600052602060002090601f0160209004810192826200039f5760008555620003ea565b82601f10620003ba57805160ff1916838001178555620003ea565b82800160010185558215620003ea579182015b82811115620003ea578251825591602001919060010190620003cd565b50620003f8929150620003fc565b5090565b5b80821115620003f85760008155600101620003fd565b80516001600160a01b03811681146200042b57600080fd5b919050565b60008060008060008060008060006101208a8c0312156200045057600080fd5b6200045b8a62000413565b98506200046b60208b0162000413565b97506200047b60408b0162000413565b96506200048b60608b0162000413565b95506200049b60808b0162000413565b9450620004ab60a08b0162000413565b935060c08a0151925060e08a015191506101008a015190509295985092959850929598565b600181811c90821680620004e557607f821691505b602082108114156200050757634e487b7160e01b600052602260045260246000fd5b50919050565b60805160a05160c05160e05161358b6200059f6000396000505060008181610afe01528181610e3a01528181610f210152818161101501528181611a3a01528181611ae001528181611b940152611e370152600081816125bb01528181612686015281816128180152818161286201526128b701526000818161153501528181611ef70152612115015261358b6000f3fe608060405234801561001057600080fd5b506004361061030c5760003560e01c80636c9122fd1161019d578063bb23c737116100e9578063eb89ef78116100a2578063f2fde38b1161007c578063f2fde38b14610710578063f384bd0514610723578063f46901ed1461072c578063fcfff16f1461073f57600080fd5b8063eb89ef7814610695578063ee50e50b146106ea578063efb2654d146106fd57600080fd5b8063bb23c737146105fa578063bc71054e1461060d578063c87b56dd14610620578063d8aed14514610633578063e2bbb15814610646578063e985e9c51461065957600080fd5b80639012c4a811610156578063a22cb46511610130578063a22cb465146105b8578063a3a12555146105cb578063af640d0f146105de578063b88d4fde146105e757600080fd5b80639012c4a81461058a57806395d89b411461059d5780639760a42b146105a557600080fd5b80636c9122fd1461052b57806370a082311461053e578063715018a6146105515780638456cb59146105595780638da5cb5b146105615780638db585bf1461057757600080fd5b8063335771141161025c578063441a3e70116102155780635b529197116101ef5780635b529197146104e75780635c975abb146104fa5780636352211e14610505578063657988791461051857600080fd5b8063441a3e70146104ae57806347786d37146104c15780634cb9c24a146104d457600080fd5b8063335771141461045c578063355274ea1461046f57806336bdbb13146104785780633f4ba83a14610480578063415f12401461048857806342842e0e1461049b57600080fd5b80630ecbcdab116102c957806323b872dd116102a357806323b872dd14610402578063262daf8e146104155780632e2ddd45146104285780632f297daa1461043b57600080fd5b80630ecbcdab146103b457806319f4ff2f146103c7578063234ee471146103da57600080fd5b806301ffc9a71461031157806306fdde0314610339578063081812fc1461034e57806308a0c37514610379578063095ea7b31461038e5780630aebeb4e146103a1575b600080fd5b61032461031f366004612f3e565b610747565b60405190151581526020015b60405180910390f35b610341610799565b6040516103309190612fb3565b61036161035c366004612fc6565b61082b565b6040516001600160a01b039091168152602001610330565b61038c610387366004612fc6565b610852565b005b61038c61039c366004612ffb565b6108a0565b61038c6103af366004612fc6565b6109bb565b61038c6103c2366004613025565b6109ff565b61038c6103d5366004612fc6565b610a4a565b6103ed6103e8366004613047565b610a90565b60408051928352602083019190915201610330565b61038c61041036600461307a565b610b88565b61038c6104233660046130b6565b610bb9565b61038c6104363660046130d1565b610bcd565b61044e610449366004612ffb565b610bf5565b604051908152602001610330565b61044e61046a366004612fc6565b610bff565b61044e600b5481565b61038c610c7b565b61038c610c8d565b61038c610496366004612fc6565b610c9d565b61038c6104a936600461307a565b610d13565b61038c6104bc366004613025565b610d2e565b61038c6104cf366004612fc6565b610d73565b6103246104e2366004612fc6565b610db9565b6103ed6104f5366004613047565b610dcd565b60085460ff16610324565b610361610513366004612fc6565b610e69565b61044e610526366004613047565b610ec9565b61044e610539366004613047565b610fe5565b61044e61054c3660046130b6565b6110a8565b61038c61112e565b61038c611140565b60085461010090046001600160a01b0316610361565b61044e610585366004613025565b611150565b61044e610598366004612fc6565b6111d6565b6103416111e1565b61038c6105b33660046130d1565b6111f0565b61038c6105c636600461310b565b611245565b61044e6105d9366004613025565b611254565b61044e600f5481565b61038c6105f5366004613158565b6112cc565b61044e610608366004612fc6565b6112fe565b61044e61061b366004612fc6565b61132f565b61034161062e366004612fc6565b6113ab565b61038c610641366004613025565b61141e565b61038c610654366004613025565b61143b565b610324610667366004613234565b6001600160a01b03918216600090815260076020908152604080832093909416825291909152205460ff1690565b6106ca6106a3366004612fc6565b600e6020526000908152604090208054600182015460028301546003909301549192909184565b604080519485526020850193909352918301526060820152608001610330565b61044e6106f8366004613025565b611457565b61038c61070b366004613025565b611494565b61038c61071e3660046130b6565b61158e565b61044e600a5481565b61038c61073a3660046130b6565b611604565b61044e611666565b60006001600160e01b031982166380ac58cd60e01b148061077857506001600160e01b03198216635b5e139f60e01b145b8061079357506301ffc9a760e01b6001600160e01b03198316145b92915050565b6060600280546107a890613267565b80601f01602080910402602001604051908101604052809291908181526020018280546107d490613267565b80156108215780601f106107f657610100808354040283529160200191610821565b820191906000526020600020905b81548152906001019060200180831161080457829003601f168201915b5050505050905090565b600061083682611688565b506000908152600660205260409020546001600160a01b031690565b61085a6116e7565b600a80549082905560408051828152602081018490527fe796e9ae748449310fcd1cc6718aab236c9b8d2e0e04dacb232ba564d5b338cc91015b60405180910390a15050565b60006108ab82610e69565b9050806001600160a01b0316836001600160a01b0316141561091e5760405162461bcd60e51b815260206004820152602160248201527f4552433732313a20617070726f76616c20746f2063757272656e74206f776e656044820152603960f91b60648201526084015b60405180910390fd5b336001600160a01b038216148061093a575061093a8133610667565b6109ac5760405162461bcd60e51b815260206004820152603e60248201527f4552433732313a20617070726f76652063616c6c6572206973206e6f7420746f60448201527f6b656e206f776e6572206e6f7220617070726f76656420666f7220616c6c00006064820152608401610915565b6109b68383611747565b505050565b6109c36117b5565b33816109cf82826117fb565b6109eb5760405162461bcd60e51b8152600401610915906132a2565b6109f483611879565b506109b6338461196f565b610a076117b5565b3382610a1382826117fb565b610a2f5760405162461bcd60e51b8152600401610915906132a2565b610a3884611879565b50610a44338585611a21565b50505050565b610a526116e7565b600d80549082905560408051828152602081018490527f249ce3aa19ca005081b3e7143ee5f00395d8ac801e1fd05ec532b214a56420f99101610894565b600080610a9b6117b5565b3384610aa782826117fb565b610ac35760405162461bcd60e51b8152600401610915906132a2565b610acc86611879565b50610ad8338787611a21565b60405163423e797960e01b81526001600160a01b038881166004830152602482018790527f0000000000000000000000000000000000000000000000000000000000000000169063423e7979906044015b6040805180830381600087803b158015610b4257600080fd5b505af1158015610b56573d6000803e3d6000fd5b505050506040513d601f19601f82011682018060405250810190610b7a91906132e3565b909890975095505050505050565b610b9233826117fb565b610bae5760405162461bcd60e51b815260040161091590613307565b6109b6838383611c18565b610bc16116e7565b610bca81611db4565b50565b610bd56117b5565b610bde83611879565b50610bea338484611e0e565b6109b6338483611ec2565b60006107936117b5565b6000818152600e60209081526040808320815160808101835281548082526001830154948201949094526002820154928101929092526003015460608201526009549091610c4d919061336b565b612710808360200151610c60919061336b565b610c6a919061336b565b610c7491906133a0565b9392505050565b610c836116e7565b610c8b612045565b565b610c956116e7565b610c8b61208e565b610ca681611879565b50610cb081610db9565b15610d095760405162461bcd60e51b815260206004820152602360248201527f4344503a3a6c69717569646174653a20434450206d75737420626520756e736160448201526233329760e91b6064820152608401610915565b610bca338261196f565b6109b6838383604051806020016040528060008152506112cc565b610d366117b5565b3382610d4282826117fb565b610d5e5760405162461bcd60e51b8152600401610915906132a2565b610d6784611879565b50610a44338585611ec2565b610d7b6116e7565b600b80549082905560408051828152602081018490527fdbbbb176683582b710ef3349793b8d62658724a9d9b54deccf193c4b0aa90c4c9101610894565b60006001610dc68361132f565b1092915050565b600080610dd86117b5565b6000610de385610bff565b9050610df1335b86866120e0565b610dfa85611879565b506000610e078683611254565b9050610e14338783611a21565b60405163423e797960e01b81526001600160a01b038881166004830152602482018390527f0000000000000000000000000000000000000000000000000000000000000000169063423e797990604401610b29565b6000818152600460205260408120546001600160a01b0316806107935760405162461bcd60e51b8152602060048201526018602482015277115490cdcc8c4e881a5b9d985b1a59081d1bdad95b88125160421b6044820152606401610915565b6000610ed36117b5565b3383610edf82826117fb565b610efb5760405162461bcd60e51b8152600401610915906132a2565b604051631957dd9f60e21b81526001600160a01b038781166004830152602482018690527f0000000000000000000000000000000000000000000000000000000000000000169063655f767c90604401602060405180830381600087803b158015610f6557600080fd5b505af1158015610f79573d6000803e3d6000fd5b505050506040513d601f19601f82011682018060405250810190610f9d91906133b4565b92506000610faa86610bff565b9050610fb586611879565b50610fc1338786611e0e565b6000610fcd8783611150565b9050610fda338883611ec2565b505050509392505050565b6000610fef6117b5565b604051631957dd9f60e21b81526001600160a01b038581166004830152602482018490527f0000000000000000000000000000000000000000000000000000000000000000169063655f767c90604401602060405180830381600087803b15801561105957600080fd5b505af115801561106d573d6000803e3d6000fd5b505050506040513d601f19601f8201168201806040525081019061109191906133b4565b905061109c83611879565b50610c74338483611e0e565b60006001600160a01b0382166111125760405162461bcd60e51b815260206004820152602960248201527f4552433732313a2061646472657373207a65726f206973206e6f7420612076616044820152683634b21037bbb732b960b91b6064820152608401610915565b506001600160a01b031660009081526005602052604090205490565b6111366116e7565b610c8b60006121df565b6111486116e7565b610c8b612239565b6000828152600e6020908152604080832081516080810183528154815260018201549381019390935260028101549183019190915260030154606082015260095461119b908461336b565b6127108083602001516111ae919061336b565b6111b8919061336b565b6111c291906133a0565b81516111ce91906133cd565b949350505050565b600061079382611879565b6060600380546107a890613267565b6111f86117b5565b338361120482826117fb565b6112205760405162461bcd60e51b8152600401610915906132a2565b61122933610dea565b61123285611879565b5061123e338685611a21565b5050505050565b611250338383612276565b5050565b6000828152600e6020908152604080832081516080810183528154815260018201549381018490526002820154928101929092526003015460608201529061129e6127108061336b565b600954835186916112ae9161336b565b6112b8919061336b565b6112c291906133a0565b6111ce91906133cd565b6112d633836117fb565b6112f25760405162461bcd60e51b815260040161091590613307565b610a4484848484612345565b60006113086117b5565b3361131281612378565b915061131f8183856120e0565b61132882611879565b5050919050565b6000818152600e6020908152604080832081516080810183528154808252600183015494820194909452600282015492810192909252600301546060820152600a54600954919290916113819161336b565b61138b919061336b565b6127108061271084602001516113a1919061336b565b610c60919061336b565b60606113b682611688565b60006113cd60408051602081019091526000815290565b905060008151116113ed5760405180602001604052806000815250610c74565b806113f7846123d4565b6040516020016114089291906133e4565b6040516020818303038152906040529392505050565b6114266117b5565b61142f82611879565b50611250338383611e0e565b6114436117b5565b61144e3383836120e0565b6109b682611879565b60006114616117b5565b3361146b81612378565b91506114788183866120e0565b61148182611879565b5061148d818385611a21565b5092915050565b6000546001600160a01b0316336001600160a01b03161461151d5760405162461bcd60e51b815260206004820152603f60248201527f4f7261636c653a3a6f6e6c794f7261636c654665656465723a2053656e64657260448201527f206d7573742062652073616d65206173205f6f7261636c654665656465722e006064820152608401610915565b600980549083905560408051828152602081018590527f00000000000000000000000000000000000000000000000000000000000000006001600160a01b0316917f7c3bda8adcb9df1edd0059da351d966538bcc99f067c0770872170ac97fb6887910160405180910390a2505050565b6115966116e7565b6001600160a01b0381166115fb5760405162461bcd60e51b815260206004820152602660248201527f4f776e61626c653a206e6577206f776e657220697320746865207a65726f206160448201526564647265737360d01b6064820152608401610915565b610bca816121df565b61160c6116e7565b600c80546001600160a01b038381166001600160a01b031983168117909355604080519190921680825260208201939093527f41d2755f00068d89c23ebc6f1e73ce119a6236a44517ca061f544a3f91c9bca49101610894565b60006116706117b5565b61167933612378565b905061168481611879565b5090565b6000818152600460205260409020546001600160a01b0316610bca5760405162461bcd60e51b8152602060048201526018602482015277115490cdcc8c4e881a5b9d985b1a59081d1bdad95b88125160421b6044820152606401610915565b6008546001600160a01b03610100909104163314610c8b5760405162461bcd60e51b815260206004820181905260248201527f4f776e61626c653a2063616c6c6572206973206e6f7420746865206f776e65726044820152606401610915565b600081815260066020526040902080546001600160a01b0319166001600160a01b038416908117909155819061177c82610e69565b6001600160a01b03167f8c5be1e5ebec7d5bd14f71427d1e84f3dd0314c0f7b2291e5b200ac8c7c3b92560405160405180910390a45050565b60085460ff1615610c8b5760405162461bcd60e51b815260206004820152601060248201526f14185d5cd8589b194e881c185d5cd95960821b6044820152606401610915565b60008061180783610e69565b9050806001600160a01b0316846001600160a01b0316148061184e57506001600160a01b0380821660009081526007602090815260408083209388168352929052205460ff165b806111ce5750836001600160a01b03166118678461082b565b6001600160a01b031614949350505050565b6000818152600e60205260408120600381015460028201544290846118a261271061016d61336b565b6118ad90601861336b565b6118b890603c61336b565b6118c390603c61336b565b600d546118d086866133cd565b87600101546118df919061336b565b6118e9919061336b565b6118f391906133a0565b9550858560020160008282546119099190613413565b90915550505060038401829055600284015460408051838152602081018390529081018590526060810184905287907f058060763f0c6ae3b30d3624dbb6899601ed67b215a0b7591707778c7218db2f9060800160405180910390a25050505050919050565b6000818152600e602052604090206001810154156119a5576119a58383836002015484600101546119a09190613413565b611e0e565b8054156119bb576119bb83838360000154611ec2565b6119c4826124d2565b6000828152600e602052604080822082815560018101839055600281018390556003018290555183916001600160a01b038616917f684222b0069d4a2e5e0d986611cc5182d543904c4e4264bf770d4e51faefc8229190a3505050565b60405163de1cf16960e01b8152600481018290526000907f00000000000000000000000000000000000000000000000000000000000000006001600160a01b03169063de1cf1699060240160206040518083038186803b158015611a8457600080fd5b505afa158015611a98573d6000803e3d6000fd5b505050506040513d601f19601f82011682018060405250810190611abc91906133b4565b60405163db6583e360e01b8152600481018490529091506000906001600160a01b037f0000000000000000000000000000000000000000000000000000000000000000169063db6583e39060240160206040518083038186803b158015611b2257600080fd5b505afa158015611b36573d6000803e3d6000fd5b505050506040513d601f19601f82011682018060405250810190611b5a91906133b4565b9050611b6785858461256d565b604051630ab714fb60e11b81526001600160a01b03868116600483015260248201849052604482018390527f0000000000000000000000000000000000000000000000000000000000000000169063156e29f690606401602060405180830381600087803b158015611bd857600080fd5b505af1158015611bec573d6000803e3d6000fd5b505050506040513d601f19601f82011682018060405250810190611c1091906133b4565b505050505050565b826001600160a01b0316611c2b82610e69565b6001600160a01b031614611c8f5760405162461bcd60e51b815260206004820152602560248201527f4552433732313a207472616e736665722066726f6d20696e636f72726563742060448201526437bbb732b960d91b6064820152608401610915565b6001600160a01b038216611cf15760405162461bcd60e51b8152602060048201526024808201527f4552433732313a207472616e7366657220746f20746865207a65726f206164646044820152637265737360e01b6064820152608401610915565b611cfc600082611747565b6001600160a01b0383166000908152600560205260408120805460019290611d259084906133cd565b90915550506001600160a01b0382166000908152600560205260408120805460019290611d53908490613413565b909155505060008181526004602052604080822080546001600160a01b0319166001600160a01b0386811691821790925591518493918716917fddf252ad1be2c89b69c2b068fc378daa952ba7f163c4a11628f55a4df523b3ef91a4505050565b600080546001600160a01b038381166001600160a01b031983168117909355604080519190921680825260208201939093527f6b2e9b3836edd552e454031d349dbf020544e4123c344f1ddb0a7a9a336adef99101610894565b6040516301e9a69560e41b81526001600160a01b038481166004830152602482018390526000917f000000000000000000000000000000000000000000000000000000000000000090911690631e9a6950906044016040805180830381600087803b158015611e7c57600080fd5b505af1158015611e90573d6000803e3d6000fd5b505050506040513d601f19601f82011682018060405250810190611eb491906132e3565b509050610a448484836127b0565b6000828152600e60205260408120805490918391839190611ee49084906133cd565b90915550611f1e90506001600160a01b037f00000000000000000000000000000000000000000000000000000000000000001685846129a6565b611f2783610db9565b611f8a5760405162461bcd60e51b815260206004820152602e60248201527f4344503a3a5f77697468647261773a20434450206f7065726174696f6e20657860448201526d31b2b2b2399036b0bc10262a2b1760911b6064820152608401610915565b80541580611fa0575080546611c37937e0800011155b611ffb5760405162461bcd60e51b815260206004820152602660248201527f4344503a3a5f77697468647261773a204e6f7420656e6f75676820636f6c6c616044820152653a32b930b61760d11b6064820152608401610915565b82846001600160a01b03167ff279e6a1f5e320cca91135676d9cb6e44ca8a08c0b88342bcdb1144f6511b5688460405161203791815260200190565b60405180910390a350505050565b60085460ff16610c8b5760405162461bcd60e51b815260206004820152601460248201527314185d5cd8589b194e881b9bdd081c185d5cd95960621b6044820152606401610915565b612096612045565b6008805460ff191690557f5db9ee0a495bf2e6ff9c91a7834c1ba4fdd244a5e8aa4e537bd38aeae4b073aa335b6040516001600160a01b03909116815260200160405180910390a1565b6000828152600e60205260408120805490918391839190612102908490613413565b9091555061213d90506001600160a01b037f000000000000000000000000000000000000000000000000000000000000000016853085612a09565b80546611c37937e0800011156121a35760405162461bcd60e51b815260206004820152602560248201527f4344503a3a5f6465706f7369743a204e6f7420656e6f75676820636f6c6c617460448201526432b930b61760d91b6064820152608401610915565b82846001600160a01b03167f90890809c654f11d6e72a28fa60149770a0d11ec6c92319d6ceb2bb0a4ea1a158460405161203791815260200190565b600880546001600160a01b03838116610100818102610100600160a81b031985161790945560405193909204169182907f8be0079c531659141344cd1fd0a4f28419497f9722a3daafe3b4186f6b6457e090600090a35050565b6122416117b5565b6008805460ff191660011790557f62e78cea01bee320cd4e420270b5ea74000d11b0c9f74754ebdbfc544b05a2586120c33390565b816001600160a01b0316836001600160a01b031614156122d85760405162461bcd60e51b815260206004820152601960248201527f4552433732313a20617070726f766520746f2063616c6c6572000000000000006044820152606401610915565b6001600160a01b03838116600081815260076020908152604080832094871680845294825291829020805460ff191686151590811790915591519182527f17307eab39ab6107e8899845ad3d59bd9653f200f220920489ca2b5937696c31910160405180910390a3505050565b612350848484611c18565b61235c84848484612a41565b610a445760405162461bcd60e51b81526004016109159061342b565b600f8054600091826123898361347d565b9190505590506123998282612b4e565b60405181906001600160a01b038416907f50042401acb675fedd6dd939fccc629832ce60fa4185df25c01b20e8def195bf90600090a3919050565b6060816123f85750506040805180820190915260018152600360fc1b602082015290565b8160005b8115612422578061240c8161347d565b915061241b9050600a836133a0565b91506123fc565b60008167ffffffffffffffff81111561243d5761243d613142565b6040519080825280601f01601f191660200182016040528015612467576020820181803683370190505b5090505b84156111ce5761247c6001836133cd565b9150612489600a86613498565b612494906030613413565b60f81b8183815181106124a9576124a96134ac565b60200101906001600160f81b031916908160001a9053506124cb600a866133a0565b945061246b565b60006124dd82610e69565b90506124ea600083611747565b6001600160a01b03811660009081526005602052604081208054600192906125139084906133cd565b909155505060008281526004602052604080822080546001600160a01b0319169055518391906001600160a01b038416907fddf252ad1be2c89b69c2b068fc378daa952ba7f163c4a11628f55a4df523b3ef908390a45050565b6000828152600e6020526040812060018101805491928492612590908490613413565b90915550506040516308934a5f60e31b81526001600160a01b038581166004830152602482018490527f0000000000000000000000000000000000000000000000000000000000000000169063449a52f890604401600060405180830381600087803b1580156125ff57600080fd5b505af1158015612613573d6000803e3d6000fd5b5050505061262083610db9565b6126815760405162461bcd60e51b815260206004820152602c60248201527f4344503a3a5f626f72726f773a20434450206f7065726174696f6e206578636560448201526b32b2399036b0bc10262a2b1760a11b6064820152608401610915565b600b547f00000000000000000000000000000000000000000000000000000000000000006001600160a01b03166318160ddd6040518163ffffffff1660e01b815260040160206040518083038186803b1580156126dd57600080fd5b505afa1580156126f1573d6000803e3d6000fd5b505050506040513d601f19601f8201168201806040525081019061271591906133b4565b11156127745760405162461bcd60e51b815260206004820152602860248201527f4344503a3a5f626f72726f773a2043616e6e6f7420626f72726f772053494e2060448201526730b73cb6b7b9329760c11b6064820152608401610915565b82846001600160a01b03167fe1979fe4c35e0cef342fef5668e2c8e7a7e9f5d5d1ca8fee0ac6c427fa4153af8460405161203791815260200190565b6000828152600e60205260408120600c549091906001600160a01b03166127d757846127e4565b600c546001600160a01b03165b905082826002015410612845578282600201600082825461280591906133cd565b9091555061284090506001600160a01b037f000000000000000000000000000000000000000000000000000000000000000016868386612a09565b61295b565b60028201541561295b57600282015461288c906001600160a01b037f0000000000000000000000000000000000000000000000000000000000000000169087908490612a09565b600282015461289b90846133cd565b8260010160008282546128ae91906133cd565b925050819055507f00000000000000000000000000000000000000000000000000000000000000006001600160a01b03166379cc6790868460020154866128f591906133cd565b6040516001600160e01b031960e085901b1681526001600160a01b0390921660048301526024820152604401600060405180830381600087803b15801561293b57600080fd5b505af115801561294f573d6000803e3d6000fd5b50506000600285015550505b83856001600160a01b03167f77c6871227e5d2dec8dadd5354f78453203e22e669cd0ec4c19d9a8c5edb31d08560405161299791815260200190565b60405180910390a35050505050565b6040516001600160a01b0383166024820152604481018290526109b690849063a9059cbb60e01b906064015b60408051601f198184030181529190526020810180516001600160e01b03166001600160e01b031990931692909217909152612b68565b6040516001600160a01b0380851660248301528316604482015260648101829052610a449085906323b872dd60e01b906084016129d2565b60006001600160a01b0384163b15612b4357604051630a85bd0160e11b81526001600160a01b0385169063150b7a0290612a859033908990889088906004016134c2565b602060405180830381600087803b158015612a9f57600080fd5b505af1925050508015612acf575060408051601f3d908101601f19168201909252612acc918101906134ff565b60015b612b29573d808015612afd576040519150601f19603f3d011682016040523d82523d6000602084013e612b02565b606091505b508051612b215760405162461bcd60e51b81526004016109159061342b565b805181602001fd5b6001600160e01b031916630a85bd0160e11b1490506111ce565b506001949350505050565b611250828260405180602001604052806000815250612c3a565b6000612bbd826040518060400160405280602081526020017f5361666545524332303a206c6f772d6c6576656c2063616c6c206661696c6564815250856001600160a01b0316612c6d9092919063ffffffff16565b8051909150156109b65780806020019051810190612bdb919061351c565b6109b65760405162461bcd60e51b815260206004820152602a60248201527f5361666545524332303a204552433230206f7065726174696f6e20646964206e6044820152691bdd081cdd58d8d9595960b21b6064820152608401610915565b612c448383612c7c565b612c516000848484612a41565b6109b65760405162461bcd60e51b81526004016109159061342b565b60606111ce8484600085612dbe565b6001600160a01b038216612cd25760405162461bcd60e51b815260206004820181905260248201527f4552433732313a206d696e7420746f20746865207a65726f20616464726573736044820152606401610915565b6000818152600460205260409020546001600160a01b031615612d375760405162461bcd60e51b815260206004820152601c60248201527f4552433732313a20746f6b656e20616c7265616479206d696e746564000000006044820152606401610915565b6001600160a01b0382166000908152600560205260408120805460019290612d60908490613413565b909155505060008181526004602052604080822080546001600160a01b0319166001600160a01b03861690811790915590518392907fddf252ad1be2c89b69c2b068fc378daa952ba7f163c4a11628f55a4df523b3ef908290a45050565b606082471015612e1f5760405162461bcd60e51b815260206004820152602660248201527f416464726573733a20696e73756666696369656e742062616c616e636520666f6044820152651c8818d85b1b60d21b6064820152608401610915565b6001600160a01b0385163b612e765760405162461bcd60e51b815260206004820152601d60248201527f416464726573733a2063616c6c20746f206e6f6e2d636f6e74726163740000006044820152606401610915565b600080866001600160a01b03168587604051612e929190613539565b60006040518083038185875af1925050503d8060008114612ecf576040519150601f19603f3d011682016040523d82523d6000602084013e612ed4565b606091505b5091509150612ee4828286612eef565b979650505050505050565b60608315612efe575081610c74565b825115612f0e5782518084602001fd5b8160405162461bcd60e51b81526004016109159190612fb3565b6001600160e01b031981168114610bca57600080fd5b600060208284031215612f5057600080fd5b8135610c7481612f28565b60005b83811015612f76578181015183820152602001612f5e565b83811115610a445750506000910152565b60008151808452612f9f816020860160208601612f5b565b601f01601f19169290920160200192915050565b602081526000610c746020830184612f87565b600060208284031215612fd857600080fd5b5035919050565b80356001600160a01b0381168114612ff657600080fd5b919050565b6000806040838503121561300e57600080fd5b61301783612fdf565b946020939093013593505050565b6000806040838503121561303857600080fd5b50508035926020909101359150565b60008060006060848603121561305c57600080fd5b61306584612fdf565b95602085013595506040909401359392505050565b60008060006060848603121561308f57600080fd5b61309884612fdf565b92506130a660208501612fdf565b9150604084013590509250925092565b6000602082840312156130c857600080fd5b610c7482612fdf565b6000806000606084860312156130e657600080fd5b505081359360208301359350604090920135919050565b8015158114610bca57600080fd5b6000806040838503121561311e57600080fd5b61312783612fdf565b91506020830135613137816130fd565b809150509250929050565b634e487b7160e01b600052604160045260246000fd5b6000806000806080858703121561316e57600080fd5b61317785612fdf565b935061318560208601612fdf565b925060408501359150606085013567ffffffffffffffff808211156131a957600080fd5b818701915087601f8301126131bd57600080fd5b8135818111156131cf576131cf613142565b604051601f8201601f19908116603f011681019083821181831017156131f7576131f7613142565b816040528281528a602084870101111561321057600080fd5b82602086016020830137600060208483010152809550505050505092959194509250565b6000806040838503121561324757600080fd5b61325083612fdf565b915061325e60208401612fdf565b90509250929050565b600181811c9082168061327b57607f821691505b6020821081141561329c57634e487b7160e01b600052602260045260246000fd5b50919050565b60208082526021908201527f4344503a3a5f626f72726f773a204e6f7420612076616c69642063616c6c65726040820152601760f91b606082015260800190565b600080604083850312156132f657600080fd5b505080516020909101519092909150565b6020808252602e908201527f4552433732313a2063616c6c6572206973206e6f7420746f6b656e206f776e6560408201526d1c881b9bdc88185c1c1c9bdd995960921b606082015260800190565b634e487b7160e01b600052601160045260246000fd5b600081600019048311821515161561338557613385613355565b500290565b634e487b7160e01b600052601260045260246000fd5b6000826133af576133af61338a565b500490565b6000602082840312156133c657600080fd5b5051919050565b6000828210156133df576133df613355565b500390565b600083516133f6818460208801612f5b565b83519083019061340a818360208801612f5b565b01949350505050565b6000821982111561342657613426613355565b500190565b60208082526032908201527f4552433732313a207472616e7366657220746f206e6f6e20455243373231526560408201527131b2b4bb32b91034b6b83632b6b2b73a32b960711b606082015260800190565b600060001982141561349157613491613355565b5060010190565b6000826134a7576134a761338a565b500690565b634e487b7160e01b600052603260045260246000fd5b6001600160a01b03858116825284166020820152604081018390526080606082018190526000906134f590830184612f87565b9695505050505050565b60006020828403121561351157600080fd5b8151610c7481612f28565b60006020828403121561352e57600080fd5b8151610c74816130fd565b6000825161354b818460208701612f5b565b919091019291505056fea2646970667358221220b7e22c6feb8b563086b8d6f759f9dbc7884beb5d6369713e0b2e8459591fc49c64736f6c63430008090033206d757374206265206e6f6e7a65726f2e0000000000000000000000000000004e6f6e7a65726f3a3a6e6f6e7a65726f416464726573733a204163636f756e74",
  "linkReferences": {},
  "deployedLinkReferences": {}
}