{
  "_format": "hh-sol-artifact-1",
  "contractName": "FoxFarm",
  "sourceName": "contracts/FoxFarm.sol",
  "abi": [
    {
      "inputs": [
        {
          "internalType": "address",
          "name": "oracleFeeder_",
          "type": "address"
        },
        {
          "internalType": "address",
          "name": "feeTo_",
          "type": "address"
        },
        {
          "internalType": "address",
          "name": "collateralToken_",
          "type": "address"
        },
        {
          "internalType": "address",
          "name": "debtToken_",
          "type": "address"
        },
        {
          "internalType": "address",
          "name": "shareToken_",
          "type": "address"
        },
        {
          "internalType": "address",
          "name": "stableToken_",
          "type": "address"
        },
        {
          "internalType": "address",
          "name": "coupon_",
          "type": "address"
        },
        {
          "internalType": "uint256",
          "name": "maxLTV_",
          "type": "uint256"
        },
        {
          "internalType": "uint256",
          "name": "cap_",
          "type": "uint256"
        },
        {
          "internalType": "uint256",
          "name": "feeRatio_",
          "type": "uint256"
        }
      ],
      "stateMutability": "nonpayable",
      "type": "constructor"
    },
    {
      "anonymous": false,
      "inputs": [
        {
          "indexed": true,
          "internalType": "address",
          "name": "owner",
          "type": "address"
        },
        {
          "indexed": true,
          "internalType": "address",
          "name": "approved",
          "type": "address"
        },
        {
          "indexed": true,
          "internalType": "uint256",
          "name": "tokenId",
          "type": "uint256"
        }
      ],
      "name": "Approval",
      "type": "event"
    },
    {
      "anonymous": false,
      "inputs": [
        {
          "indexed": true,
          "internalType": "address",
          "name": "owner",
          "type": "address"
        },
        {
          "indexed": true,
          "internalType": "address",
          "name": "operator",
          "type": "address"
        },
        {
          "indexed": false,
          "internalType": "bool",
          "name": "approved",
          "type": "bool"
        }
      ],
      "name": "ApprovalForAll",
      "type": "event"
    },
    {
      "anonymous": false,
      "inputs": [
        {
          "indexed": true,
          "internalType": "address",
          "name": "account_",
          "type": "address"
        },
        {
          "indexed": true,
          "internalType": "uint256",
          "name": "id_",
          "type": "uint256"
        },
        {
          "indexed": false,
          "internalType": "uint256",
          "name": "amount",
          "type": "uint256"
        }
      ],
      "name": "Borrow",
      "type": "event"
    },
    {
      "anonymous": false,
      "inputs": [
        {
          "indexed": true,
          "internalType": "address",
          "name": "account_",
          "type": "address"
        },
        {
          "indexed": true,
          "internalType": "uint256",
          "name": "id_",
          "type": "uint256"
        }
      ],
      "name": "Close",
      "type": "event"
    },
    {
      "anonymous": false,
      "inputs": [
        {
          "indexed": true,
          "internalType": "address",
          "name": "account_",
          "type": "address"
        },
        {
          "indexed": true,
          "internalType": "uint256",
          "name": "id_",
          "type": "uint256"
        },
        {
          "indexed": false,
          "internalType": "uint256",
          "name": "amount",
          "type": "uint256"
        }
      ],
      "name": "Deposit",
      "type": "event"
    },
    {
      "anonymous": false,
      "inputs": [
        {
          "indexed": true,
          "internalType": "address",
          "name": "account_",
          "type": "address"
        },
        {
          "indexed": true,
          "internalType": "uint256",
          "name": "id_",
          "type": "uint256"
        }
      ],
      "name": "Open",
      "type": "event"
    },
    {
      "anonymous": false,
      "inputs": [
        {
          "indexed": true,
          "internalType": "address",
          "name": "previousOwner",
          "type": "address"
        },
        {
          "indexed": true,
          "internalType": "address",
          "name": "newOwner",
          "type": "address"
        }
      ],
      "name": "OwnershipTransferred",
      "type": "event"
    },
    {
      "anonymous": false,
      "inputs": [
        {
          "indexed": false,
          "internalType": "address",
          "name": "account",
          "type": "address"
        }
      ],
      "name": "Paused",
      "type": "event"
    },
    {
      "anonymous": false,
      "inputs": [
        {
          "indexed": true,
          "internalType": "address",
          "name": "account_",
          "type": "address"
        },
        {
          "indexed": true,
          "internalType": "uint256",
          "name": "id_",
          "type": "uint256"
        },
        {
          "indexed": false,
          "internalType": "uint256",
          "name": "amount",
          "type": "uint256"
        }
      ],
      "name": "Repay",
      "type": "event"
    },
    {
      "anonymous": false,
      "inputs": [
        {
          "indexed": false,
          "internalType": "uint256",
          "name": "prevCap",
          "type": "uint256"
        },
        {
          "indexed": false,
          "internalType": "uint256",
          "name": "currCap",
          "type": "uint256"
        }
      ],
      "name": "SetCap",
      "type": "event"
    },
    {
      "anonymous": false,
      "inputs": [
        {
          "indexed": false,
          "internalType": "uint256",
          "name": "prevFeeRatio",
          "type": "uint256"
        },
        {
          "indexed": false,
          "internalType": "uint256",
          "name": "currFeeRatio",
          "type": "uint256"
        }
      ],
      "name": "SetFeeRatio",
      "type": "event"
    },
    {
      "anonymous": false,
      "inputs": [
        {
          "indexed": false,
          "internalType": "address",
          "name": "prevFeeTo",
          "type": "address"
        },
        {
          "indexed": false,
          "internalType": "address",
          "name": "currFeeTo",
          "type": "address"
        }
      ],
      "name": "SetFeeTo",
      "type": "event"
    },
    {
      "anonymous": false,
      "inputs": [
        {
          "indexed": false,
          "internalType": "uint256",
          "name": "prevMaxLTV",
          "type": "uint256"
        },
        {
          "indexed": false,
          "internalType": "uint256",
          "name": "currMaxLTV",
          "type": "uint256"
        }
      ],
      "name": "SetMaxLTV",
      "type": "event"
    },
    {
      "anonymous": false,
      "inputs": [
        {
          "indexed": true,
          "internalType": "address",
          "name": "from",
          "type": "address"
        },
        {
          "indexed": true,
          "internalType": "address",
          "name": "to",
          "type": "address"
        },
        {
          "indexed": true,
          "internalType": "uint256",
          "name": "tokenId",
          "type": "uint256"
        }
      ],
      "name": "Transfer",
      "type": "event"
    },
    {
      "anonymous": false,
      "inputs": [
        {
          "indexed": false,
          "internalType": "address",
          "name": "account",
          "type": "address"
        }
      ],
      "name": "Unpaused",
      "type": "event"
    },
    {
      "anonymous": false,
      "inputs": [
        {
          "indexed": true,
          "internalType": "uint256",
          "name": "id_",
          "type": "uint256"
        },
        {
          "indexed": false,
          "internalType": "uint256",
          "name": "prevFee",
          "type": "uint256"
        },
        {
          "indexed": false,
          "internalType": "uint256",
          "name": "currFee",
          "type": "uint256"
        },
        {
          "indexed": false,
          "internalType": "uint256",
          "name": "prevTimestamp",
          "type": "uint256"
        },
        {
          "indexed": false,
          "internalType": "uint256",
          "name": "currTimestamp",
          "type": "uint256"
        }
      ],
      "name": "Update",
      "type": "event"
    },
    {
      "anonymous": false,
      "inputs": [
        {
          "indexed": false,
          "internalType": "address",
          "name": "prevOracleFeeder",
          "type": "address"
        },
        {
          "indexed": false,
          "internalType": "address",
          "name": "currOracle",
          "type": "address"
        }
      ],
      "name": "UpdateOracleFeeder",
      "type": "event"
    },
    {
      "anonymous": false,
      "inputs": [
        {
          "indexed": true,
          "internalType": "address",
          "name": "token",
          "type": "address"
        },
        {
          "indexed": false,
          "internalType": "uint256",
          "name": "prevPrice",
          "type": "uint256"
        },
        {
          "indexed": false,
          "internalType": "uint256",
          "name": "currPrice",
          "type": "uint256"
        }
      ],
      "name": "UpdatePrice",
      "type": "event"
    },
    {
      "anonymous": false,
      "inputs": [
        {
          "indexed": true,
          "internalType": "address",
          "name": "account_",
          "type": "address"
        },
        {
          "indexed": true,
          "internalType": "uint256",
          "name": "id_",
          "type": "uint256"
        },
        {
          "indexed": false,
          "internalType": "uint256",
          "name": "amount",
          "type": "uint256"
        }
      ],
      "name": "Withdraw",
      "type": "event"
    },
    {
      "inputs": [
        {
          "internalType": "address",
          "name": "to",
          "type": "address"
        },
        {
          "internalType": "uint256",
          "name": "tokenId",
          "type": "uint256"
        }
      ],
      "name": "approve",
      "outputs": [],
      "stateMutability": "nonpayable",
      "type": "function"
    },
    {
      "inputs": [
        {
          "internalType": "address",
          "name": "owner",
          "type": "address"
        }
      ],
      "name": "balanceOf",
      "outputs": [
        {
          "internalType": "uint256",
          "name": "",
          "type": "uint256"
        }
      ],
      "stateMutability": "view",
      "type": "function"
    },
    {
      "inputs": [
        {
          "internalType": "uint256",
          "name": "id_",
          "type": "uint256"
        },
        {
          "internalType": "uint256",
          "name": "amount_",
          "type": "uint256"
        }
      ],
      "name": "borrow",
      "outputs": [],
      "stateMutability": "nonpayable",
      "type": "function"
    },
    {
      "inputs": [
        {
          "internalType": "uint256",
          "name": "id_",
          "type": "uint256"
        },
        {
          "internalType": "uint256",
          "name": "ltv_",
          "type": "uint256"
        },
        {
          "internalType": "uint256",
          "name": "collateralAmount_",
          "type": "uint256"
        }
      ],
      "name": "borrowAmountToLTV",
      "outputs": [
        {
          "internalType": "uint256",
          "name": "debtAmount_",
          "type": "uint256"
        }
      ],
      "stateMutability": "view",
      "type": "function"
    },
    {
      "inputs": [
        {
          "internalType": "address",
          "name": "account_",
          "type": "address"
        },
        {
          "internalType": "uint256",
          "name": "amount_",
          "type": "uint256"
        }
      ],
      "name": "buybackCoupon",
      "outputs": [
        {
          "internalType": "uint256",
          "name": "cid_",
          "type": "uint256"
        },
        {
          "internalType": "uint256",
          "name": "debtAmount_",
          "type": "uint256"
        }
      ],
      "stateMutability": "nonpayable",
      "type": "function"
    },
    {
      "inputs": [
        {
          "internalType": "address",
          "name": "account_",
          "type": "address"
        },
        {
          "internalType": "uint256",
          "name": "id_",
          "type": "uint256"
        },
        {
          "internalType": "uint256",
          "name": "amount_",
          "type": "uint256"
        }
      ],
      "name": "buybackRepayDebt",
      "outputs": [
        {
          "internalType": "uint256",
          "name": "debtAmount_",
          "type": "uint256"
        }
      ],
      "stateMutability": "nonpayable",
      "type": "function"
    },
    {
      "inputs": [
        {
          "internalType": "address",
          "name": "account_",
          "type": "address"
        },
        {
          "internalType": "uint256",
          "name": "id_",
          "type": "uint256"
        },
        {
          "internalType": "uint256",
          "name": "amount_",
          "type": "uint256"
        }
      ],
      "name": "buybackWithdrawCollateral",
      "outputs": [
        {
          "internalType": "uint256",
          "name": "debtAmount_",
          "type": "uint256"
        }
      ],
      "stateMutability": "nonpayable",
      "type": "function"
    },
    {
      "inputs": [],
      "name": "cap",
      "outputs": [
        {
          "internalType": "uint256",
          "name": "",
          "type": "uint256"
        }
      ],
      "stateMutability": "view",
      "type": "function"
    },
    {
      "inputs": [
        {
          "internalType": "uint256",
          "name": "id_",
          "type": "uint256"
        }
      ],
      "name": "cdpInfo",
      "outputs": [
        {
          "internalType": "uint256",
          "name": "collateralAmount_",
          "type": "uint256"
        },
        {
          "internalType": "uint256",
          "name": "ltv_",
          "type": "uint256"
        },
        {
          "internalType": "uint256",
          "name": "fee_",
          "type": "uint256"
        }
      ],
      "stateMutability": "view",
      "type": "function"
    },
    {
      "inputs": [
        {
          "internalType": "uint256",
          "name": "",
          "type": "uint256"
        }
      ],
      "name": "cdps",
      "outputs": [
        {
          "internalType": "uint256",
          "name": "collateral",
          "type": "uint256"
        },
        {
          "internalType": "uint256",
          "name": "debt",
          "type": "uint256"
        },
        {
          "internalType": "uint256",
          "name": "fee",
          "type": "uint256"
        },
        {
          "internalType": "uint256",
          "name": "latestUpdate",
          "type": "uint256"
        }
      ],
      "stateMutability": "view",
      "type": "function"
    },
    {
      "inputs": [
        {
          "internalType": "uint256",
          "name": "id_",
          "type": "uint256"
        }
      ],
      "name": "close",
      "outputs": [],
      "stateMutability": "nonpayable",
      "type": "function"
    },
    {
      "inputs": [
        {
          "internalType": "uint256",
          "name": "id_",
          "type": "uint256"
        }
      ],
      "name": "currentLTV",
      "outputs": [
        {
          "internalType": "uint256",
          "name": "ltv",
          "type": "uint256"
        }
      ],
      "stateMutability": "view",
      "type": "function"
    },
    {
      "inputs": [
        {
          "internalType": "uint256",
          "name": "id_",
          "type": "uint256"
        },
        {
          "internalType": "uint256",
          "name": "amount_",
          "type": "uint256"
        }
      ],
      "name": "deposit",
      "outputs": [],
      "stateMutability": "nonpayable",
      "type": "function"
    },
    {
      "inputs": [
        {
          "internalType": "uint256",
          "name": "id_",
          "type": "uint256"
        },
        {
          "internalType": "uint256",
          "name": "depositAmount_",
          "type": "uint256"
        },
        {
          "internalType": "uint256",
          "name": "borrowAmount_",
          "type": "uint256"
        }
      ],
      "name": "depositAndBorrow",
      "outputs": [],
      "stateMutability": "nonpayable",
      "type": "function"
    },
    {
      "inputs": [
        {
          "internalType": "uint256",
          "name": "id_",
          "type": "uint256"
        },
        {
          "internalType": "uint256",
          "name": "shareAmount_",
          "type": "uint256"
        },
        {
          "internalType": "uint256",
          "name": "ltv_",
          "type": "uint256"
        }
      ],
      "name": "exchangedCollateralAmountFromShareWithLtv",
      "outputs": [
        {
          "internalType": "uint256",
          "name": "collateralAmount_",
          "type": "uint256"
        }
      ],
      "stateMutability": "view",
      "type": "function"
    },
    {
      "inputs": [
        {
          "internalType": "uint256",
          "name": "id_",
          "type": "uint256"
        },
        {
          "internalType": "uint256",
          "name": "collateralAmount_",
          "type": "uint256"
        },
        {
          "internalType": "uint256",
          "name": "ltv_",
          "type": "uint256"
        }
      ],
      "name": "exchangedShareAmountFromCollateralWithLtv",
      "outputs": [
        {
          "internalType": "uint256",
          "name": "shareAmount_",
          "type": "uint256"
        }
      ],
      "stateMutability": "view",
      "type": "function"
    },
    {
      "inputs": [
        {
          "internalType": "uint256",
          "name": "id_",
          "type": "uint256"
        },
        {
          "internalType": "uint256",
          "name": "newCollateralAmount_",
          "type": "uint256"
        },
        {
          "internalType": "uint256",
          "name": "ltv_",
          "type": "uint256"
        },
        {
          "internalType": "uint256",
          "name": "newShareAmount_",
          "type": "uint256"
        }
      ],
      "name": "expectedMintAmountToLtv",
      "outputs": [
        {
          "internalType": "uint256",
          "name": "newStableAmount_",
          "type": "uint256"
        }
      ],
      "stateMutability": "view",
      "type": "function"
    },
    {
      "inputs": [
        {
          "internalType": "uint256",
          "name": "id_",
          "type": "uint256"
        },
        {
          "internalType": "uint256",
          "name": "collectedStableAmount_",
          "type": "uint256"
        },
        {
          "internalType": "uint256",
          "name": "ltv_",
          "type": "uint256"
        }
      ],
      "name": "expectedRedeemAmountToLtv",
      "outputs": [
        {
          "internalType": "uint256",
          "name": "emittedCollateralAmount_",
          "type": "uint256"
        },
        {
          "internalType": "uint256",
          "name": "emittedShareAmount_",
          "type": "uint256"
        }
      ],
      "stateMutability": "view",
      "type": "function"
    },
    {
      "inputs": [
        {
          "internalType": "uint256",
          "name": "tokenId",
          "type": "uint256"
        }
      ],
      "name": "getApproved",
      "outputs": [
        {
          "internalType": "address",
          "name": "",
          "type": "address"
        }
      ],
      "stateMutability": "view",
      "type": "function"
    },
    {
      "inputs": [],
      "name": "getCollateralPrice",
      "outputs": [
        {
          "internalType": "uint256",
          "name": "",
          "type": "uint256"
        }
      ],
      "stateMutability": "view",
      "type": "function"
    },
    {
      "inputs": [],
      "name": "globalHealthFactor",
      "outputs": [
        {
          "internalType": "uint256",
          "name": "health",
          "type": "uint256"
        }
      ],
      "stateMutability": "view",
      "type": "function"
    },
    {
      "inputs": [],
      "name": "globalLTV",
      "outputs": [
        {
          "internalType": "uint256",
          "name": "ltv",
          "type": "uint256"
        }
      ],
      "stateMutability": "view",
      "type": "function"
    },
    {
      "inputs": [],
      "name": "globalLiquidate",
      "outputs": [],
      "stateMutability": "nonpayable",
      "type": "function"
    },
    {
      "inputs": [
        {
          "internalType": "uint256",
          "name": "id_",
          "type": "uint256"
        }
      ],
      "name": "healthFactor",
      "outputs": [
        {
          "internalType": "uint256",
          "name": "health",
          "type": "uint256"
        }
      ],
      "stateMutability": "view",
      "type": "function"
    },
    {
      "inputs": [],
      "name": "id",
      "outputs": [
        {
          "internalType": "uint256",
          "name": "",
          "type": "uint256"
        }
      ],
      "stateMutability": "view",
      "type": "function"
    },
    {
      "inputs": [],
      "name": "initialize",
      "outputs": [],
      "stateMutability": "nonpayable",
      "type": "function"
    },
    {
      "inputs": [
        {
          "internalType": "address",
          "name": "owner",
          "type": "address"
        },
        {
          "internalType": "address",
          "name": "operator",
          "type": "address"
        }
      ],
      "name": "isApprovedForAll",
      "outputs": [
        {
          "internalType": "bool",
          "name": "",
          "type": "bool"
        }
      ],
      "stateMutability": "view",
      "type": "function"
    },
    {
      "inputs": [
        {
          "internalType": "uint256",
          "name": "id_",
          "type": "uint256"
        }
      ],
      "name": "isSafe",
      "outputs": [
        {
          "internalType": "bool",
          "name": "",
          "type": "bool"
        }
      ],
      "stateMutability": "view",
      "type": "function"
    },
    {
      "inputs": [
        {
          "internalType": "uint256",
          "name": "id_",
          "type": "uint256"
        }
      ],
      "name": "liquidate",
      "outputs": [],
      "stateMutability": "nonpayable",
      "type": "function"
    },
    {
      "inputs": [],
      "name": "maxLTV",
      "outputs": [
        {
          "internalType": "uint256",
          "name": "",
          "type": "uint256"
        }
      ],
      "stateMutability": "view",
      "type": "function"
    },
    {
      "inputs": [],
      "name": "name",
      "outputs": [
        {
          "internalType": "string",
          "name": "",
          "type": "string"
        }
      ],
      "stateMutability": "view",
      "type": "function"
    },
    {
      "inputs": [],
      "name": "open",
      "outputs": [
        {
          "internalType": "uint256",
          "name": "id_",
          "type": "uint256"
        }
      ],
      "stateMutability": "nonpayable",
      "type": "function"
    },
    {
      "inputs": [
        {
          "internalType": "uint256",
          "name": "amount_",
          "type": "uint256"
        }
      ],
      "name": "openAndDeposit",
      "outputs": [
        {
          "internalType": "uint256",
          "name": "id_",
          "type": "uint256"
        }
      ],
      "stateMutability": "nonpayable",
      "type": "function"
    },
    {
      "inputs": [
        {
          "internalType": "uint256",
          "name": "depositAmount_",
          "type": "uint256"
        },
        {
          "internalType": "uint256",
          "name": "borrowAmount_",
          "type": "uint256"
        }
      ],
      "name": "openAndDepositAndBorrow",
      "outputs": [
        {
          "internalType": "uint256",
          "name": "id_",
          "type": "uint256"
        }
      ],
      "stateMutability": "nonpayable",
      "type": "function"
    },
    {
      "inputs": [],
      "name": "owner",
      "outputs": [
        {
          "internalType": "address",
          "name": "",
          "type": "address"
        }
      ],
      "stateMutability": "view",
      "type": "function"
    },
    {
      "inputs": [
        {
          "internalType": "uint256",
          "name": "tokenId",
          "type": "uint256"
        }
      ],
      "name": "ownerOf",
      "outputs": [
        {
          "internalType": "address",
          "name": "",
          "type": "address"
        }
      ],
      "stateMutability": "view",
      "type": "function"
    },
    {
      "inputs": [
        {
          "internalType": "uint256",
          "name": "id_",
          "type": "uint256"
        },
        {
          "internalType": "uint256",
          "name": "cid_",
          "type": "uint256"
        }
      ],
      "name": "pairAnnihilation",
      "outputs": [],
      "stateMutability": "nonpayable",
      "type": "function"
    },
    {
      "inputs": [],
      "name": "pause",
      "outputs": [],
      "stateMutability": "nonpayable",
      "type": "function"
    },
    {
      "inputs": [],
      "name": "paused",
      "outputs": [
        {
          "internalType": "bool",
          "name": "",
          "type": "bool"
        }
      ],
      "stateMutability": "view",
      "type": "function"
    },
    {
      "inputs": [
        {
          "internalType": "address",
          "name": "account_",
          "type": "address"
        },
        {
          "internalType": "uint256",
          "name": "id_",
          "type": "uint256"
        },
        {
          "internalType": "uint256",
          "name": "amount_",
          "type": "uint256"
        }
      ],
      "name": "recollateralizeBorrowDebt",
      "outputs": [
        {
          "internalType": "uint256",
          "name": "shareAmount_",
          "type": "uint256"
        },
        {
          "internalType": "uint256",
          "name": "bonusAmount_",
          "type": "uint256"
        }
      ],
      "stateMutability": "nonpayable",
      "type": "function"
    },
    {
      "inputs": [
        {
          "internalType": "address",
          "name": "account_",
          "type": "address"
        },
        {
          "internalType": "uint256",
          "name": "id_",
          "type": "uint256"
        },
        {
          "internalType": "uint256",
          "name": "amount_",
          "type": "uint256"
        }
      ],
      "name": "recollateralizeDepositCollateral",
      "outputs": [
        {
          "internalType": "uint256",
          "name": "shareAmount_",
          "type": "uint256"
        },
        {
          "internalType": "uint256",
          "name": "bonusAmount_",
          "type": "uint256"
        }
      ],
      "stateMutability": "nonpayable",
      "type": "function"
    },
    {
      "inputs": [],
      "name": "renounceOwnership",
      "outputs": [],
      "stateMutability": "nonpayable",
      "type": "function"
    },
    {
      "inputs": [
        {
          "internalType": "uint256",
          "name": "id_",
          "type": "uint256"
        },
        {
          "internalType": "uint256",
          "name": "amount_",
          "type": "uint256"
        }
      ],
      "name": "repay",
      "outputs": [],
      "stateMutability": "nonpayable",
      "type": "function"
    },
    {
      "inputs": [
        {
          "internalType": "uint256",
          "name": "id_",
          "type": "uint256"
        },
        {
          "internalType": "uint256",
          "name": "repayAmount_",
          "type": "uint256"
        },
        {
          "internalType": "uint256",
          "name": "withdrawAmount_",
          "type": "uint256"
        }
      ],
      "name": "repayAndWithdraw",
      "outputs": [],
      "stateMutability": "nonpayable",
      "type": "function"
    },
    {
      "inputs": [
        {
          "internalType": "uint256",
          "name": "id_",
          "type": "uint256"
        },
        {
          "internalType": "uint256",
          "name": "newShareAmount_",
          "type": "uint256"
        },
        {
          "internalType": "uint256",
          "name": "ltv_",
          "type": "uint256"
        }
      ],
      "name": "requiredCollateralAmountFromShareToLtv",
      "outputs": [
        {
          "internalType": "uint256",
          "name": "collateralAmount_",
          "type": "uint256"
        }
      ],
      "stateMutability": "view",
      "type": "function"
    },
    {
      "inputs": [
        {
          "internalType": "uint256",
          "name": "id_",
          "type": "uint256"
        },
        {
          "internalType": "uint256",
          "name": "newCollateralAmount_",
          "type": "uint256"
        },
        {
          "internalType": "uint256",
          "name": "ltv_",
          "type": "uint256"
        }
      ],
      "name": "requiredShareAmountFromCollateralToLtv",
      "outputs": [
        {
          "internalType": "uint256",
          "name": "shareAmount_",
          "type": "uint256"
        }
      ],
      "stateMutability": "view",
      "type": "function"
    },
    {
      "inputs": [
        {
          "internalType": "address",
          "name": "from",
          "type": "address"
        },
        {
          "internalType": "address",
          "name": "to",
          "type": "address"
        },
        {
          "internalType": "uint256",
          "name": "tokenId",
          "type": "uint256"
        }
      ],
      "name": "safeTransferFrom",
      "outputs": [],
      "stateMutability": "nonpayable",
      "type": "function"
    },
    {
      "inputs": [
        {
          "internalType": "address",
          "name": "from",
          "type": "address"
        },
        {
          "internalType": "address",
          "name": "to",
          "type": "address"
        },
        {
          "internalType": "uint256",
          "name": "tokenId",
          "type": "uint256"
        },
        {
          "internalType": "bytes",
          "name": "data",
          "type": "bytes"
        }
      ],
      "name": "safeTransferFrom",
      "outputs": [],
      "stateMutability": "nonpayable",
      "type": "function"
    },
    {
      "inputs": [
        {
          "internalType": "address",
          "name": "operator",
          "type": "address"
        },
        {
          "internalType": "bool",
          "name": "approved",
          "type": "bool"
        }
      ],
      "name": "setApprovalForAll",
      "outputs": [],
      "stateMutability": "nonpayable",
      "type": "function"
    },
    {
      "inputs": [
        {
          "internalType": "uint256",
          "name": "newCap",
          "type": "uint256"
        }
      ],
      "name": "setCap",
      "outputs": [],
      "stateMutability": "nonpayable",
      "type": "function"
    },
    {
      "inputs": [
        {
          "internalType": "uint256",
          "name": "newFeeRatio",
          "type": "uint256"
        }
      ],
      "name": "setFeeRatio",
      "outputs": [],
      "stateMutability": "nonpayable",
      "type": "function"
    },
    {
      "inputs": [
        {
          "internalType": "address",
          "name": "newFeeTo",
          "type": "address"
        }
      ],
      "name": "setFeeTo",
      "outputs": [],
      "stateMutability": "nonpayable",
      "type": "function"
    },
    {
      "inputs": [
        {
          "internalType": "uint256",
          "name": "newMaxLTV",
          "type": "uint256"
        }
      ],
      "name": "setMaxLTV",
      "outputs": [],
      "stateMutability": "nonpayable",
      "type": "function"
    },
    {
      "inputs": [
        {
          "internalType": "bytes4",
          "name": "interfaceId",
          "type": "bytes4"
        }
      ],
      "name": "supportsInterface",
      "outputs": [
        {
          "internalType": "bool",
          "name": "",
          "type": "bool"
        }
      ],
      "stateMutability": "view",
      "type": "function"
    },
    {
      "inputs": [],
      "name": "symbol",
      "outputs": [
        {
          "internalType": "string",
          "name": "",
          "type": "string"
        }
      ],
      "stateMutability": "view",
      "type": "function"
    },
    {
      "inputs": [
        {
          "internalType": "uint256",
          "name": "tokenId",
          "type": "uint256"
        }
      ],
      "name": "tokenURI",
      "outputs": [
        {
          "internalType": "string",
          "name": "",
          "type": "string"
        }
      ],
      "stateMutability": "view",
      "type": "function"
    },
    {
      "inputs": [],
      "name": "totalCollateral",
      "outputs": [
        {
          "internalType": "uint256",
          "name": "",
          "type": "uint256"
        }
      ],
      "stateMutability": "view",
      "type": "function"
    },
    {
      "inputs": [],
      "name": "totalDebt",
      "outputs": [
        {
          "internalType": "uint256",
          "name": "",
          "type": "uint256"
        }
      ],
      "stateMutability": "view",
      "type": "function"
    },
    {
      "inputs": [],
      "name": "totalFee",
      "outputs": [
        {
          "internalType": "uint256",
          "name": "",
          "type": "uint256"
        }
      ],
      "stateMutability": "view",
      "type": "function"
    },
    {
      "inputs": [
        {
          "internalType": "address",
          "name": "from",
          "type": "address"
        },
        {
          "internalType": "address",
          "name": "to",
          "type": "address"
        },
        {
          "internalType": "uint256",
          "name": "tokenId",
          "type": "uint256"
        }
      ],
      "name": "transferFrom",
      "outputs": [],
      "stateMutability": "nonpayable",
      "type": "function"
    },
    {
      "inputs": [
        {
          "internalType": "address",
          "name": "newOwner",
          "type": "address"
        }
      ],
      "name": "transferOwnership",
      "outputs": [],
      "stateMutability": "nonpayable",
      "type": "function"
    },
    {
      "inputs": [],
      "name": "unpause",
      "outputs": [],
      "stateMutability": "nonpayable",
      "type": "function"
    },
    {
      "inputs": [
        {
          "internalType": "uint256",
          "name": "newCollateralPrice",
          "type": "uint256"
        },
        {
          "internalType": "uint256",
          "name": "confidence",
          "type": "uint256"
        }
      ],
      "name": "updateCollateralPrice",
      "outputs": [],
      "stateMutability": "nonpayable",
      "type": "function"
    },
    {
      "inputs": [
        {
          "internalType": "uint256",
          "name": "id_",
          "type": "uint256"
        }
      ],
      "name": "updateFee",
      "outputs": [
        {
          "internalType": "uint256",
          "name": "additionalFee",
          "type": "uint256"
        }
      ],
      "stateMutability": "nonpayable",
      "type": "function"
    },
    {
      "inputs": [
        {
          "internalType": "address",
          "name": "newOracleFeeder",
          "type": "address"
        }
      ],
      "name": "updateOracleFeeder",
      "outputs": [],
      "stateMutability": "nonpayable",
      "type": "function"
    },
    {
      "inputs": [
        {
          "internalType": "uint256",
          "name": "id_",
          "type": "uint256"
        },
        {
          "internalType": "uint256",
          "name": "amount_",
          "type": "uint256"
        }
      ],
      "name": "withdraw",
      "outputs": [],
      "stateMutability": "nonpayable",
      "type": "function"
    },
    {
      "inputs": [
        {
          "internalType": "uint256",
          "name": "id_",
          "type": "uint256"
        },
        {
          "internalType": "uint256",
          "name": "ltv_",
          "type": "uint256"
        },
        {
          "internalType": "uint256",
          "name": "debtAmount_",
          "type": "uint256"
        }
      ],
      "name": "withdrawAmountToLTV",
      "outputs": [
        {
          "internalType": "uint256",
          "name": "collateralAmount_",
          "type": "uint256"
        }
      ],
      "stateMutability": "view",
      "type": "function"
    }
  ],
  "bytecode": "0x6101206040526127106008553480156200001857600080fd5b50604051620053ab380380620053ab8339810160408190526200003b9162000560565b60405180604001604052806007815260200166466f784661726d60c81b815250604051806040016040528060068152602001650464f584344560d41b8152508b8b8b8b88888886898981600090805190602001906200009c9291906200049d565b508051620000b29060019060208401906200049d565b50506006805460ff1916905550620000ca336200037b565b600780546001600160a01b03199081166001600160a01b0393841617909155600b80549091169782169790971790965593851660805291841660a052600955600a55600c558d93508316151591506200017090505760405162461bcd60e51b815260206004820152603160248201526000805160206200538b83398151915260448201526000805160206200536b83398151915260648201526084015b60405180910390fd5b886001600160a01b038116620001cd5760405162461bcd60e51b815260206004820152603160248201526000805160206200538b83398151915260448201526000805160206200536b833981519152606482015260840162000167565b886001600160a01b0381166200022a5760405162461bcd60e51b815260206004820152603160248201526000805160206200538b83398151915260448201526000805160206200536b833981519152606482015260840162000167565b886001600160a01b038116620002875760405162461bcd60e51b815260206004820152603160248201526000805160206200538b83398151915260448201526000805160206200536b833981519152606482015260840162000167565b886001600160a01b038116620002e45760405162461bcd60e51b815260206004820152603160248201526000805160206200538b83398151915260448201526000805160206200536b833981519152606482015260840162000167565b886001600160a01b038116620003415760405162461bcd60e51b815260206004820152603160248201526000805160206200538b83398151915260448201526000805160206200536b833981519152606482015260840162000167565b6001600160a01b03808d1660c0528b811660e0528a166101005262000365620003d5565b5050505050505050505050505050505062000651565b600680546001600160a01b03838116610100818102610100600160a81b031985161790945560405193909204169182907f8be0079c531659141344cd1fd0a4f28419497f9722a3daafe3b4186f6b6457e090600090a35050565b60a05160e051604051630571ac8b60e41b81526001600160a01b03918216600482015291169063571ac8b090602401600060405180830381600087803b1580156200041f57600080fd5b505af115801562000434573d6000803e3d6000fd5b505060c05160e051604051630571ac8b60e41b81526001600160a01b0391821660048201529116925063571ac8b09150602401600060405180830381600087803b1580156200048257600080fd5b505af115801562000497573d6000803e3d6000fd5b50505050565b828054620004ab9062000614565b90600052602060002090601f016020900481019282620004cf57600085556200051a565b82601f10620004ea57805160ff19168380011785556200051a565b828001600101855582156200051a579182015b828111156200051a578251825591602001919060010190620004fd565b50620005289291506200052c565b5090565b5b808211156200052857600081556001016200052d565b80516001600160a01b03811681146200055b57600080fd5b919050565b6000806000806000806000806000806101408b8d0312156200058157600080fd5b6200058c8b62000543565b99506200059c60208c0162000543565b9850620005ac60408c0162000543565b9750620005bc60608c0162000543565b9650620005cc60808c0162000543565b9550620005dc60a08c0162000543565b9450620005ec60c08c0162000543565b935060e08b015192506101008b015191506101208b015190509295989b9194979a5092959850565b600181811c908216806200062957607f821691505b602082108114156200064b57634e487b7160e01b600052602260045260246000fd5b50919050565b60805160a05160c05160e05161010051614bd26200079960003960008181610c2f01526112f3015260008181610d2801528181610f93015281816110c30152818161123f0152818161146601528181611562015281816118260152818161196b01528181611abf01528181611cb401528181611d5701528181611df001528181611f0801528181612014015281816122c401528181612a9301528181612bdc01528181612c8201528181612d6b015281816130ba01526131130152600081816111f30152818161191501528181611a6901528181611e1801528181612d0e01526131aa015260008181611075015281816117d801528181611d7f015281816139eb01528181613ab601528181613d4301528181613d7c01528181613dd201528181613e120152613e8c0152600081816125900152818161329a01526135410152614bd26000f3fe608060405234801561001057600080fd5b50600436106103f15760003560e01c80636c9122fd11610215578063beb9560011610125578063ee50e50b116100b8578063f46901ed11610087578063f46901ed146108db578063f7683bbc146108ee578063fc7b9c18146108f6578063fce6b785146108ff578063fcfff16f1461091257600080fd5b8063ee50e50b14610899578063efb2654d146108ac578063f2fde38b146108bf578063f384bd05146108d257600080fd5b8063dd8a04b3116100f4578063dd8a04b3146107ed578063e2bbb158146107f5578063e985e9c514610808578063eb89ef781461084457600080fd5b8063beb95600146107a1578063c87b56dd146107b4578063d5935dc9146107c7578063d8aed145146107da57600080fd5b80639012c4a8116101a8578063a22cb46511610177578063a22cb4651461074c578063af640d0f1461075f578063b88d4fde14610768578063bb23c7371461077b578063bc71054e1461078e57600080fd5b80639012c4a81461070b57806395d89b411461071e5780639760a42b146107265780639d917e0e1461073957600080fd5b80637455efd4116101e45780637455efd4146106d25780638129fc1c146106e55780638456cb59146106ed5780638da5cb5b146106f557600080fd5b80636c9122fd1461067657806370a0823114610689578063715018a61461069c57806371f834e5146106a457600080fd5b80632e2ddd451161031057806342842e0e116102a35780634cb9c24a116102725780634cb9c24a1461061f5780635b529197146106325780635c975abb146106455780636352211e14610650578063657988791461066357600080fd5b806342842e0e146105dd578063441a3e70146105f057806347786d37146106035780634ac8eb5f1461061657600080fd5b806336bdbb13116102df57806336bdbb13146105a75780633f05790d146105af5780633f4ba83a146105c2578063415f1240146105ca57600080fd5b80632e2ddd45146105655780632f297daa14610578578063335771141461058b578063355274ea1461059e57600080fd5b80630b0b64001161038857806321cdc50e1161035757806321cdc50e14610519578063234ee4711461052c57806323b872dd1461053f578063262daf8e1461055257600080fd5b80630b0b6400146104c25780630ecbcdab146104ea57806319f4ff2f146104fd5780631df4ccfc1461051057600080fd5b806308a0c375116103c457806308a0c37514610474578063095ea7b3146104895780630aebeb4e1461049c5780630b068e9c146104af57600080fd5b806301ffc9a7146103f657806306fdde031461041e578063081812fc14610433578063083dd51b1461045e575b600080fd5b610409610404366004614485565b61091a565b60405190151581526020015b60405180910390f35b61042661096c565b60405161041591906144fa565b61044661044136600461450d565b6109fe565b6040516001600160a01b039091168152602001610415565b610466610a25565b604051908152602001610415565b61048761048236600461450d565b610a61565b005b61048761049736600461453d565b610aaf565b6104876104aa36600461450d565b610bca565b6104876104bd366004614567565b610c0e565b6104d56104d0366004614589565b610d21565b60408051928352602083019190915201610415565b6104876104f8366004614567565b610ea2565b61048761050b36600461450d565b610ee7565b61046660115481565b610466610527366004614589565b610f2d565b6104d561053a3660046145b5565b61101f565b61048761054d3660046145e8565b61114e565b610487610560366004614624565b61117f565b610487610573366004614589565b611193565b6104d561058636600461453d565b6111bb565b61046661059936600461450d565b61137a565b610466600a5481565b610487611418565b6104666105bd366004614589565b61142a565b610487611641565b6104876105d836600461450d565b611651565b6104876105eb3660046145e8565b6116c7565b6104876105fe366004614567565b6116e2565b61048761061136600461450d565b611727565b610466600f5481565b61040961062d36600461450d565b61176d565b6104d56106403660046145b5565b611782565b60065460ff16610409565b61044661065e36600461450d565b611855565b6104666106713660046145b5565b6118b5565b6104666106843660046145b5565b611a32565b610466610697366004614624565b611b52565b610487611bd8565b6106b76106b236600461450d565b611bea565b60408051938452602084019290925290820152606001610415565b6104666106e036600461463f565b611c47565b610487611d40565b610487611e72565b60065461010090046001600160a01b0316610446565b61046661071936600461450d565b611e82565b610426611e8d565b610487610734366004614589565b611e9c565b610466610747366004614589565b611ef3565b61048761075a36600461467f565b6120aa565b610466600e5481565b6104876107763660046146cc565b6120b9565b61046661078936600461450d565b6120eb565b61046661079c36600461450d565b61211c565b6104666107af366004614589565b61219d565b6104266107c236600461450d565b61222e565b6104666107d5366004614589565b6122a1565b6104876107e8366004614567565b612413565b610466612430565b610487610803366004614567565b612496565b6104096108163660046147a8565b6001600160a01b03918216600090815260056020908152604080832093909416825291909152205460ff1690565b61087961085236600461450d565b600d6020526000908152604090208054600182015460028301546003909301549192909184565b604080519485526020850193909352918301526060820152608001610415565b6104666108a7366004614567565b6124b2565b6104876108ba366004614567565b6124ef565b6104876108cd366004614624565b6125e9565b61046660095481565b6104876108e9366004614624565b61265f565b600854610466565b61046660105481565b61046661090d366004614589565b6126c1565b610466612741565b60006001600160e01b031982166380ac58cd60e01b148061094b57506001600160e01b03198216635b5e139f60e01b145b8061096657506301ffc9a760e01b6001600160e01b03198316145b92915050565b60606000805461097b906147db565b80601f01602080910402602001604051908101604052809291908181526020018280546109a7906147db565b80156109f45780601f106109c9576101008083540402835291602001916109f4565b820191906000526020600020905b8154815290600101906020018083116109d757829003601f168201915b5050505050905090565b6000610a0982612763565b506000908152600460205260409020546001600160a01b031690565b6000600854600f54610a37919061482c565b61271080601054610a48919061482c565b610a52919061482c565b610a5c9190614861565b905090565b610a696127c2565b600980549082905560408051828152602081018490527fe796e9ae748449310fcd1cc6718aab236c9b8d2e0e04dacb232ba564d5b338cc91015b60405180910390a15050565b6000610aba82611855565b9050806001600160a01b0316836001600160a01b03161415610b2d5760405162461bcd60e51b815260206004820152602160248201527f4552433732313a20617070726f76616c20746f2063757272656e74206f776e656044820152603960f91b60648201526084015b60405180910390fd5b336001600160a01b0382161480610b495750610b498133610816565b610bbb5760405162461bcd60e51b815260206004820152603e60248201527f4552433732313a20617070726f76652063616c6c6572206973206e6f7420746f60448201527f6b656e206f776e6572206e6f7220617070726f76656420666f7220616c6c00006064820152608401610b24565b610bc58383612822565b505050565b610bd2612890565b3381610bde82826128d6565b610bfa5760405162461bcd60e51b8152600401610b2490614875565b610c0383612955565b50610bc53384612a64565b610c16612890565b604051630852cd8d60e31b8152600481018290526000907f00000000000000000000000000000000000000000000000000000000000000006001600160a01b0316906342966c68906024016040805180830381600087803b158015610c7a57600080fd5b505af1158015610c8e573d6000803e3d6000fd5b505050506040513d601f19601f82011682018060405250810190610cb291906148c5565b6000858152600d60205260409020600281015491935091508211610cef5781816002016000828254610ce491906148e9565b90915550610d1b9050565b600060028201819055610d0290836148e9565b816001016000828254610d1591906148e9565b90915550505b50505050565b60008060007f00000000000000000000000000000000000000000000000000000000000000006001600160a01b0316631ddb6103866040518263ffffffff1660e01b8152600401610d7491815260200190565b60606040518083038186803b158015610d8c57600080fd5b505afa158015610da0573d6000803e3d6000fd5b505050506040513d601f19601f82011682018060405250810190610dc49190614900565b50600e549093509091508610610e0957600854610de1908561482c565b612710610dee818461482c565b610df8919061482c565b610e029190614861565b9250610e99565b6000868152600d60209081526040918290208251608081018452815481526001820154928101929092526002810154928201929092526003909101546060820152600854610e57908661482c565b61271080848460200151610e6b91906148e9565b610e75919061482c565b610e7f919061482c565b610e899190614861565b8151610e9591906148e9565b9350505b50935093915050565b610eaa612890565b3382610eb682826128d6565b610ed25760405162461bcd60e51b8152600401610b2490614875565b610edb84612955565b50610d1b338585612bc3565b610eef6127c2565b600c80549082905560408051828152602081018490527f249ce3aa19ca005081b3e7143ee5f00395d8ac801e1fd05ec532b214a56420f99101610aa3565b600080600e548510610f6f57610f456127108061482c565b8360085486610f54919061482c565b610f5e919061482c565b610f689190614861565b9050610f7d565b610f7a858585612def565b90505b604051630d53839960e41b8152600481018290527f00000000000000000000000000000000000000000000000000000000000000006001600160a01b03169063d5383990906024015b60206040518083038186803b158015610fde57600080fd5b505afa158015610ff2573d6000803e3d6000fd5b505050506040513d601f19601f82011682018060405250810190611016919061492e565b95945050505050565b60008061102a612890565b338461103682826128d6565b6110525760405162461bcd60e51b8152600401610b2490614875565b3361105c87612955565b50611068818888612bc3565b61109d6001600160a01b037f000000000000000000000000000000000000000000000000000000000000000016823089612e53565b60405163423e797960e01b81526001600160a01b038981166004830152602482018890527f0000000000000000000000000000000000000000000000000000000000000000169063423e7979906044015b6040805180830381600087803b15801561110757600080fd5b505af115801561111b573d6000803e3d6000fd5b505050506040513d601f19601f8201168201806040525081019061113f91906148c5565b90999098509650505050505050565b61115833826128d6565b6111745760405162461bcd60e51b8152600401610b2490614947565b610bc5838383612ebe565b6111876127c2565b6111908161305a565b50565b61119b612890565b6111a483612955565b506111b03384846130b4565b610bc53384836131d1565b6000806111c6612890565b6127106111d1612430565b106111ee5760405162461bcd60e51b8152600401610b2490614995565b6112237f00000000000000000000000000000000000000000000000000000000000000006001600160a01b0316333086612e53565b604051631957dd9f60e21b8152306004820152602481018490527f00000000000000000000000000000000000000000000000000000000000000006001600160a01b03169063655f767c90604401602060405180830381600087803b15801561128b57600080fd5b505af115801561129f573d6000803e3d6000fd5b505050506040513d601f19601f820116820180604052508101906112c3919061492e565b604051632baf2acb60e01b81526001600160a01b03868116600483015260248201869052604482018390529192507f000000000000000000000000000000000000000000000000000000000000000090911690632baf2acb90606401602060405180830381600087803b15801561133957600080fd5b505af115801561134d573d6000803e3d6000fd5b505050506040513d601f19601f82011682018060405250810190611371919061492e565b91509250929050565b6000600e54821061138d57506000919050565b6000828152600d6020908152604091829020825160808101845281548082526001830154938201939093526002820154938101939093526003015460608301526008546113d99161482c565b61271080836040015184602001516113f191906149da565b6113fb919061482c565b611405919061482c565b61140f9190614861565b9150505b919050565b6114206127c2565b611428613458565b565b6000600e54841061150557600854611442908361482c565b604051632694d5e760e01b8152600481018590526127109081906001600160a01b037f00000000000000000000000000000000000000000000000000000000000000001690632694d5e79060240160206040518083038186803b1580156114a857600080fd5b505afa1580156114bc573d6000803e3d6000fd5b505050506040513d601f19601f820116820180604052508101906114e0919061492e565b6114ea919061482c565b6114f4919061482c565b6114fe9190614861565b905061163a565b6000848152600d602090815260409182902082516080810184528154808252600183015493820193909352600282015493810193909352600301546060830152600854611552908561482c565b82604001518360200151612710807f00000000000000000000000000000000000000000000000000000000000000006001600160a01b0316632694d5e78b6040518263ffffffff1660e01b81526004016115ae91815260200190565b60206040518083038186803b1580156115c657600080fd5b505afa1580156115da573d6000803e3d6000fd5b505050506040513d601f19601f820116820180604052508101906115fe919061492e565b611608919061482c565b611612919061482c565b61161c91906149da565b61162691906149da565b6116309190614861565b61101691906149da565b9392505050565b6116496127c2565b6114286134a1565b61165a81612955565b506116648161176d565b156116bd5760405162461bcd60e51b815260206004820152602360248201527f4344503a3a6c69717569646174653a20434450206d75737420626520756e736160448201526233329760e91b6064820152608401610b24565b6111903382612a64565b610bc5838383604051806020016040528060008152506120b9565b6116ea612890565b33826116f682826128d6565b6117125760405162461bcd60e51b8152600401610b2490614875565b61171b84612955565b50610d1b3385856131d1565b61172f6127c2565b600a80549082905560408051828152602081018490527fdbbbb176683582b710ef3349793b8d62658724a9d9b54deccf193c4b0aa90c4c9101610aa3565b600061271061177b8361211c565b1092915050565b60008061178d612890565b3360006117998661137a565b90506117a68287876134f3565b6117af86612955565b5060006117be8783600061219d565b90506117cb838883612bc3565b6118006001600160a01b037f000000000000000000000000000000000000000000000000000000000000000016843089612e53565b60405163423e797960e01b81526001600160a01b038981166004830152602482018390527f0000000000000000000000000000000000000000000000000000000000000000169063423e7979906044016110ee565b6000818152600260205260408120546001600160a01b0316806109665760405162461bcd60e51b8152602060048201526018602482015277115490cdcc8c4e881a5b9d985b1a59081d1bdad95b88125160421b6044820152606401610b24565b60006118bf612890565b33836118cb82826128d6565b6118e75760405162461bcd60e51b8152600401610b2490614875565b6127106118f2612430565b1061190f5760405162461bcd60e51b8152600401610b2490614995565b336119457f00000000000000000000000000000000000000000000000000000000000000006001600160a01b0316823088612e53565b604051631957dd9f60e21b81526001600160a01b038881166004830152602482018790527f0000000000000000000000000000000000000000000000000000000000000000169063655f767c90604401602060405180830381600087803b1580156119af57600080fd5b505af11580156119c3573d6000803e3d6000fd5b505050506040513d601f19601f820116820180604052508101906119e7919061492e565b935060006119f48761137a565b90506119ff87612955565b50611a0b8288876130b4565b6000611a19888360006126c1565b9050611a268389836131d1565b50505050509392505050565b6000611a3c612890565b612710611a47612430565b10611a645760405162461bcd60e51b8152600401610b2490614995565b611a997f00000000000000000000000000000000000000000000000000000000000000006001600160a01b0316333085612e53565b604051631957dd9f60e21b81526001600160a01b038581166004830152602482018490527f0000000000000000000000000000000000000000000000000000000000000000169063655f767c90604401602060405180830381600087803b158015611b0357600080fd5b505af1158015611b17573d6000803e3d6000fd5b505050506040513d601f19601f82011682018060405250810190611b3b919061492e565b9050611b4683612955565b5061163a3384836130b4565b60006001600160a01b038216611bbc5760405162461bcd60e51b815260206004820152602960248201527f4552433732313a2061646472657373207a65726f206973206e6f7420612076616044820152683634b21037bbb732b960b91b6064820152608401610b24565b506001600160a01b031660009081526003602052604090205490565b611be06127c2565b61142860006135a5565b6000818152600d60209081526040808320815160808101835281548082526001830154948201949094526002820154928101929092526003015460608201529091908190611c378561137a565b6040909101519395909450915050565b600080600e548610611c8957611c5f6127108061482c565b8460085487611c6e919061482c565b611c78919061482c565b611c829190614861565b9050611c97565b611c94868686612def565b90505b60405163fa4356d360e01b815260048101829052602481018490527f00000000000000000000000000000000000000000000000000000000000000006001600160a01b03169063fa4356d390604401604080518083038186803b158015611cfd57600080fd5b505afa158015611d11573d6000803e3d6000fd5b505050506040513d601f19601f82011682018060405250810190611d3591906148c5565b509695505050505050565b604051630571ac8b60e41b81526001600160a01b037f0000000000000000000000000000000000000000000000000000000000000000811660048301527f0000000000000000000000000000000000000000000000000000000000000000169063571ac8b090602401600060405180830381600087803b158015611dc357600080fd5b505af1158015611dd7573d6000803e3d6000fd5b5050604051630571ac8b60e41b81526001600160a01b037f0000000000000000000000000000000000000000000000000000000000000000811660048301527f000000000000000000000000000000000000000000000000000000000000000016925063571ac8b09150602401600060405180830381600087803b158015611e5e57600080fd5b505af1158015610d1b573d6000803e3d6000fd5b611e7a6127c2565b6114286135ff565b600061096682612955565b60606001805461097b906147db565b611ea4612890565b3383611eb082826128d6565b611ecc5760405162461bcd60e51b8152600401610b2490614875565b611ed73386866134f3565b611ee085612955565b50611eec338685612bc3565b5050505050565b6000600e548410611fca576001600160a01b037f00000000000000000000000000000000000000000000000000000000000000001663d5aa33d2611f396127108061482c565b8460085487611f48919061482c565b611f52919061482c565b611f5c9190614861565b6040518263ffffffff1660e01b8152600401611f7a91815260200190565b60206040518083038186803b158015611f9257600080fd5b505afa158015611fa6573d6000803e3d6000fd5b505050506040513d601f19601f820116820180604052508101906114fe919061492e565b6000848152600d6020908152604091829020825160808101845281548152600182015492810183905260028201549381018490526003909101546060820152916001600160a01b037f0000000000000000000000000000000000000000000000000000000000000000169163d5aa33d291906120486127108061482c565b600854865189919061205a908c6149da565b612064919061482c565b61206e919061482c565b6120789190614861565b61208291906149da565b61208c91906149da565b6040518263ffffffff1660e01b8152600401610fc691815260200190565b6120b533838361363c565b5050565b6120c333836128d6565b6120df5760405162461bcd60e51b8152600401610b2490614947565b610d1b8484848461370b565b60006120f5612890565b336120ff8161373e565b915061210c8183856134f3565b61211582612955565b5050919050565b6000818152600d60209081526040808320815160808101835281548082526001830154948201949094526002820154928101929092526003015460608201526009546008549192909161216e9161482c565b612178919061482c565b612710806127108460400151856020015161219391906149da565b6113f1919061482c565b6000838152600d60209081526040808320815160808101835281548152600182015493810184905260028201549281018390526003909101546060820152916121e691906149da565b6121f26127108061482c565b8560085486856000015161220691906149da565b612210919061482c565b61221a919061482c565b6122249190614861565b61101691906148e9565b606061223982612763565b600061225060408051602081019091526000815290565b90506000815111612270576040518060200160405280600081525061140f565b8061227a846137c3565b60405160200161228b9291906149f2565b6040516020818303038152906040529392505050565b6040516375c2f59560e01b81526004810183905260009081906001600160a01b037f000000000000000000000000000000000000000000000000000000000000000016906375c2f5959060240160206040518083038186803b15801561230657600080fd5b505afa15801561231a573d6000803e3d6000fd5b505050506040513d601f19601f8201168201806040525081019061233e919061492e565b9050600e54851061237e57600854612356908461482c565b612710612363818461482c565b61236d919061482c565b6123779190614861565b915061240b565b6000858152600d6020908152604091829020825160808101845281548082526001830154938201939093526002820154938101939093526003015460608301526008546123cb908661482c565b612710808585602001516123df91906149da565b6123e9919061482c565b6123f3919061482c565b6123fd9190614861565b61240791906148e9565b9250505b509392505050565b61241b612890565b61242482612955565b506120b53383836130b4565b6000600f54600014158015612446575060085415155b8015612453575060095415155b1561249357600954600854600f5461246b919061482c565b612475919061482c565b61271080612710601054612489919061482c565b610a48919061482c565b90565b61249e612890565b6124a93383836134f3565b610bc582612955565b60006124bc612890565b336124c68161373e565b91506124d38183866134f3565b6124dc82612955565b506124e8818385612bc3565b5092915050565b6007546001600160a01b0316336001600160a01b0316146125785760405162461bcd60e51b815260206004820152603f60248201527f4f7261636c653a3a6f6e6c794f7261636c654665656465723a2053656e64657260448201527f206d7573742062652073616d65206173205f6f7261636c654665656465722e006064820152608401610b24565b600880549083905560408051828152602081018590527f00000000000000000000000000000000000000000000000000000000000000006001600160a01b0316917f7c3bda8adcb9df1edd0059da351d966538bcc99f067c0770872170ac97fb6887910160405180910390a2505050565b6125f16127c2565b6001600160a01b0381166126565760405162461bcd60e51b815260206004820152602660248201527f4f776e61626c653a206e6577206f776e657220697320746865207a65726f206160448201526564647265737360d01b6064820152608401610b24565b611190816135a5565b6126676127c2565b600b80546001600160a01b038381166001600160a01b031983168117909355604080519190921680825260208201939093527f41d2755f00068d89c23ebc6f1e73ce119a6236a44517ca061f544a3f91c9bca49101610aa3565b6000838152600d60209081526040808320815160808101835281548152600182015493810184905260028201549281018390526003909101546060820152918591612710916127119087906148e9565b61271b91906149da565b612725919061482c565b61272f9190614861565b60085482516127109161221a9161482c565b600061274b612890565b6127543361373e565b905061275f81612955565b5090565b6000818152600260205260409020546001600160a01b03166111905760405162461bcd60e51b8152602060048201526018602482015277115490cdcc8c4e881a5b9d985b1a59081d1bdad95b88125160421b6044820152606401610b24565b6006546001600160a01b036101009091041633146114285760405162461bcd60e51b815260206004820181905260248201527f4f776e61626c653a2063616c6c6572206973206e6f7420746865206f776e65726044820152606401610b24565b600081815260046020526040902080546001600160a01b0319166001600160a01b038416908117909155819061285782611855565b6001600160a01b03167f8c5be1e5ebec7d5bd14f71427d1e84f3dd0314c0f7b2291e5b200ac8c7c3b92560405160405180910390a45050565b60065460ff16156114285760405162461bcd60e51b815260206004820152601060248201526f14185d5cd8589b194e881c185d5cd95960821b6044820152606401610b24565b6000806128e283611855565b9050806001600160a01b0316846001600160a01b0316148061292957506001600160a01b0380821660009081526005602090815260408083209388168352929052205460ff165b8061294d5750836001600160a01b0316612942846109fe565b6001600160a01b0316145b949350505050565b6000818152600d602052604081206003810154600282015442908461297e61271061016d61482c565b61298990601861482c565b61299490603c61482c565b61299f90603c61482c565b600c546129ac86866148e9565b87600101546129bb919061482c565b6129c5919061482c565b6129cf9190614861565b9550858560020160008282546129e591906149da565b9250508190555085601160008282546129fe91906149da565b90915550505060038401829055600284015460408051838152602081018390529081018590526060810184905287907f058060763f0c6ae3b30d3624dbb6899601ed67b215a0b7591707778c7218db2f9060800160405180910390a25050505050919050565b6000818152600d602052604090206001810154151580612a875750600281015415155b15612b4757612b4783837f00000000000000000000000000000000000000000000000000000000000000006001600160a01b0316631c75ffe085600201548660010154612ad491906149da565b6040518263ffffffff1660e01b8152600401612af291815260200190565b60206040518083038186803b158015612b0a57600080fd5b505afa158015612b1e573d6000803e3d6000fd5b505050506040513d601f19601f82011682018060405250810190612b42919061492e565b6130b4565b805415612b5d57612b5d838383600001546131d1565b612b66826138c1565b6000828152600d602052604080822082815560018101839055600281018390556003018290555183916001600160a01b038616917f684222b0069d4a2e5e0d986611cc5182d543904c4e4264bf770d4e51faefc8229190a3505050565b604051631cd2bac360e31b8152600481018290526000907f00000000000000000000000000000000000000000000000000000000000000006001600160a01b03169063e695d6189060240160206040518083038186803b158015612c2657600080fd5b505afa158015612c3a573d6000803e3d6000fd5b505050506040513d601f19601f82011682018060405250810190612c5e919061492e565b60405163c1de58a360e01b8152600481018490529091506000906001600160a01b037f0000000000000000000000000000000000000000000000000000000000000000169063c1de58a39060240160206040518083038186803b158015612cc457600080fd5b505afa158015612cd8573d6000803e3d6000fd5b505050506040513d601f19601f82011682018060405250810190612cfc919061492e565b9050612d0930858461395c565b612d3e7f00000000000000000000000000000000000000000000000000000000000000006001600160a01b0316333084612e53565b604051630ab714fb60e11b81526001600160a01b03868116600483015260248201849052604482018390527f0000000000000000000000000000000000000000000000000000000000000000169063156e29f690606401602060405180830381600087803b158015612daf57600080fd5b505af1158015612dc3573d6000803e3d6000fd5b505050506040513d601f19601f82011682018060405250810190612de7919061492e565b505050505050565b6000838152600d6020908152604080832081516080810183528154815260018201549381018490526002820154928101839052600390910154606082015291612e3891906149da565b815161271090612e499087906149da565b61221a908661482c565b6040516001600160a01b0380851660248301528316604482015260648101829052610d1b9085906323b872dd60e01b906084015b60408051601f198184030181529190526020810180516001600160e01b03166001600160e01b031990931692909217909152613be0565b826001600160a01b0316612ed182611855565b6001600160a01b031614612f355760405162461bcd60e51b815260206004820152602560248201527f4552433732313a207472616e736665722066726f6d20696e636f72726563742060448201526437bbb732b960d91b6064820152608401610b24565b6001600160a01b038216612f975760405162461bcd60e51b8152602060048201526024808201527f4552433732313a207472616e7366657220746f20746865207a65726f206164646044820152637265737360e01b6064820152608401610b24565b612fa2600082612822565b6001600160a01b0383166000908152600360205260408120805460019290612fcb9084906148e9565b90915550506001600160a01b0382166000908152600360205260408120805460019290612ff99084906149da565b909155505060008181526002602052604080822080546001600160a01b0319166001600160a01b0386811691821790925591518493918716917fddf252ad1be2c89b69c2b068fc378daa952ba7f163c4a11628f55a4df523b3ef91a4505050565b600780546001600160a01b038381166001600160a01b031983168117909355604080519190921680825260208201939093527f6b2e9b3836edd552e454031d349dbf020544e4123c344f1ddb0a7a9a336adef99101610aa3565b336130ea7f00000000000000000000000000000000000000000000000000000000000000006001600160a01b0316823085612e53565b6040516301e9a69560e41b81523060048201526024810183905260009081906001600160a01b037f00000000000000000000000000000000000000000000000000000000000000001690631e9a6950906044016040805180830381600087803b15801561315657600080fd5b505af115801561316a573d6000803e3d6000fd5b505050506040513d601f19601f8201168201806040525081019061318e91906148c5565b9150915061319d308684613cb2565b612de76001600160a01b037f0000000000000000000000000000000000000000000000000000000000000000168783613f7b565b6000600d6000848152602001908152602001600020905061322b604051806040016040528060138152602001725f77697468647261773a20257320257320257360681b815250826000015483600101548460020154613fab565b61325a6040518060400160405280600d81526020016c5f77697468647261773a20257360981b81525083613ff4565b8181600001600082825461326e91906148e9565b9250508190555081600f600082825461328791906148e9565b909155506132c190506001600160a01b037f0000000000000000000000000000000000000000000000000000000000000000168584613f7b565b613304604051806040016040528060138152602001725f77697468647261773a20257320257320257360681b815250826000015483600101548460020154613fab565b61333b6040518060400160405280600d81526020016c5f77697468647261773a20257360981b8152506133368561211c565b613ff4565b6133448361176d565b6133a75760405162461bcd60e51b815260206004820152602e60248201527f4344503a3a5f77697468647261773a20434450206f7065726174696f6e20657860448201526d31b2b2b2399036b0bc10262a2b1760911b6064820152608401610b24565b805415806133b3575060015b61340e5760405162461bcd60e51b815260206004820152602660248201527f4344503a3a5f77697468647261773a204e6f7420656e6f75676820636f6c6c616044820152653a32b930b61760d11b6064820152608401610b24565b82846001600160a01b03167ff279e6a1f5e320cca91135676d9cb6e44ca8a08c0b88342bcdb1144f6511b5688460405161344a91815260200190565b60405180910390a350505050565b60065460ff166114285760405162461bcd60e51b815260206004820152601460248201527314185d5cd8589b194e881b9bdd081c185d5cd95960621b6044820152606401610b24565b6134a9613458565b6006805460ff191690557f5db9ee0a495bf2e6ff9c91a7834c1ba4fdd244a5e8aa4e537bd38aeae4b073aa335b6040516001600160a01b03909116815260200160405180910390a1565b6000828152600d602052604081208054909183918391906135159084906149da565b9250508190555081600f600082825461352e91906149da565b9091555061356990506001600160a01b037f000000000000000000000000000000000000000000000000000000000000000016853085612e53565b82846001600160a01b03167f90890809c654f11d6e72a28fa60149770a0d11ec6c92319d6ceb2bb0a4ea1a158460405161344a91815260200190565b600680546001600160a01b03838116610100818102610100600160a81b031985161790945560405193909204169182907f8be0079c531659141344cd1fd0a4f28419497f9722a3daafe3b4186f6b6457e090600090a35050565b613607612890565b6006805460ff191660011790557f62e78cea01bee320cd4e420270b5ea74000d11b0c9f74754ebdbfc544b05a2586134d63390565b816001600160a01b0316836001600160a01b0316141561369e5760405162461bcd60e51b815260206004820152601960248201527f4552433732313a20617070726f766520746f2063616c6c6572000000000000006044820152606401610b24565b6001600160a01b03838116600081815260056020908152604080832094871680845294825291829020805460ff191686151590811790915591519182527f17307eab39ab6107e8899845ad3d59bd9653f200f220920489ca2b5937696c31910160405180910390a3505050565b613716848484612ebe565b61372284848484614039565b610d1b5760405162461bcd60e51b8152600401610b2490614a21565b600061271061374b612430565b106137685760405162461bcd60e51b8152600401610b2490614995565b600e805490600061377883614a73565b9190505590506137888282614146565b60405181906001600160a01b038416907f50042401acb675fedd6dd939fccc629832ce60fa4185df25c01b20e8def195bf90600090a3919050565b6060816137e75750506040805180820190915260018152600360fc1b602082015290565b8160005b811561381157806137fb81614a73565b915061380a9050600a83614861565b91506137eb565b60008167ffffffffffffffff81111561382c5761382c6146b6565b6040519080825280601f01601f191660200182016040528015613856576020820181803683370190505b5090505b841561294d5761386b6001836148e9565b9150613878600a86614a8e565b6138839060306149da565b60f81b81838151811061389857613898614aa2565b60200101906001600160f81b031916908160001a9053506138ba600a86614861565b945061385a565b60006138cc82611855565b90506138d9600083612822565b6001600160a01b03811660009081526003602052604081208054600192906139029084906148e9565b909155505060008281526002602052604080822080546001600160a01b0319169055518391906001600160a01b038416907fddf252ad1be2c89b69c2b068fc378daa952ba7f163c4a11628f55a4df523b3ef908390a45050565b612710613967612430565b106139845760405162461bcd60e51b8152600401610b2490614995565b6000828152600d60205260408120600181018054919284926139a79084906149da565b9250508190555081601060008282546139c091906149da565b90915550506040516308934a5f60e31b81526001600160a01b038581166004830152602482018490527f0000000000000000000000000000000000000000000000000000000000000000169063449a52f890604401600060405180830381600087803b158015613a2f57600080fd5b505af1158015613a43573d6000803e3d6000fd5b50505050613a508361176d565b613ab15760405162461bcd60e51b815260206004820152602c60248201527f4344503a3a5f626f72726f773a20434450206f7065726174696f6e206578636560448201526b32b2399036b0bc10262a2b1760a11b6064820152608401610b24565b600a547f00000000000000000000000000000000000000000000000000000000000000006001600160a01b03166318160ddd6040518163ffffffff1660e01b815260040160206040518083038186803b158015613b0d57600080fd5b505afa158015613b21573d6000803e3d6000fd5b505050506040513d601f19601f82011682018060405250810190613b45919061492e565b1115613ba45760405162461bcd60e51b815260206004820152602860248201527f4344503a3a5f626f72726f773a2043616e6e6f7420626f72726f772053494e2060448201526730b73cb6b7b9329760c11b6064820152608401610b24565b82846001600160a01b03167fe1979fe4c35e0cef342fef5668e2c8e7a7e9f5d5d1ca8fee0ac6c427fa4153af8460405161344a91815260200190565b6000613c35826040518060400160405280602081526020017f5361666545524332303a206c6f772d6c6576656c2063616c6c206661696c6564815250856001600160a01b03166141609092919063ffffffff16565b805190915015610bc55780806020019051810190613c539190614ab8565b610bc55760405162461bcd60e51b815260206004820152602a60248201527f5361666545524332303a204552433230206f7065726174696f6e20646964206e6044820152691bdd081cdd58d8d9595960b21b6064820152608401610b24565b6000828152600d60205260408120600b549091906001600160a01b0316613cd95784613ce6565b600b546001600160a01b03165b905082826002015410613da45782826002016000828254613d0791906148e9565b925050819055508260116000828254613d2091906148e9565b90915550506001600160a01b038516301415613d6f57613d6a6001600160a01b037f0000000000000000000000000000000000000000000000000000000000000000168285613f7b565b613f30565b613d6a6001600160a01b037f000000000000000000000000000000000000000000000000000000000000000016868386612e53565b600282015415613f30576001600160a01b038516301415613dff576002820154613dfa906001600160a01b037f000000000000000000000000000000000000000000000000000000000000000016908390613f7b565b613e3c565b6002820154613e3c906001600160a01b037f0000000000000000000000000000000000000000000000000000000000000000169087908490612e53565b6002820154613e4b90846148e9565b826001016000828254613e5e91906148e9565b90915550506002820154613e7290846148e9565b60106000828254613e8391906148e9565b925050819055507f00000000000000000000000000000000000000000000000000000000000000006001600160a01b03166379cc679086846002015486613eca91906148e9565b6040516001600160e01b031960e085901b1681526001600160a01b0390921660048301526024820152604401600060405180830381600087803b158015613f1057600080fd5b505af1158015613f24573d6000803e3d6000fd5b50506000600285015550505b83856001600160a01b03167f77c6871227e5d2dec8dadd5354f78453203e22e669cd0ec4c19d9a8c5edb31d085604051613f6c91815260200190565b60405180910390a35050505050565b6040516001600160a01b038316602482015260448101829052610bc590849063a9059cbb60e01b90606401612e87565b610d1b84848484604051602401613fc59493929190614ad5565b60408051601f198184030181529190526020810180516001600160e01b031663a7a8785360e01b17905261416f565b6120b5828260405160240161400a929190614b04565b60408051601f198184030181529190526020810180516001600160e01b0316632d839cb360e21b17905261416f565b60006001600160a01b0384163b1561413b57604051630a85bd0160e11b81526001600160a01b0385169063150b7a029061407d903390899088908890600401614b26565b602060405180830381600087803b15801561409757600080fd5b505af19250505080156140c7575060408051601f3d908101601f191682019092526140c491810190614b63565b60015b614121573d8080156140f5576040519150601f19603f3d011682016040523d82523d6000602084013e6140fa565b606091505b5080516141195760405162461bcd60e51b8152600401610b2490614a21565b805181602001fd5b6001600160e01b031916630a85bd0160e11b14905061294d565b506001949350505050565b6120b5828260405180602001604052806000815250614190565b606061294d84846000856141c3565b80516a636f6e736f6c652e6c6f67602083016000808483855afa5050505050565b61419a83836142f4565b6141a76000848484614039565b610bc55760405162461bcd60e51b8152600401610b2490614a21565b6060824710156142245760405162461bcd60e51b815260206004820152602660248201527f416464726573733a20696e73756666696369656e742062616c616e636520666f6044820152651c8818d85b1b60d21b6064820152608401610b24565b6001600160a01b0385163b61427b5760405162461bcd60e51b815260206004820152601d60248201527f416464726573733a2063616c6c20746f206e6f6e2d636f6e74726163740000006044820152606401610b24565b600080866001600160a01b031685876040516142979190614b80565b60006040518083038185875af1925050503d80600081146142d4576040519150601f19603f3d011682016040523d82523d6000602084013e6142d9565b606091505b50915091506142e9828286614436565b979650505050505050565b6001600160a01b03821661434a5760405162461bcd60e51b815260206004820181905260248201527f4552433732313a206d696e7420746f20746865207a65726f20616464726573736044820152606401610b24565b6000818152600260205260409020546001600160a01b0316156143af5760405162461bcd60e51b815260206004820152601c60248201527f4552433732313a20746f6b656e20616c7265616479206d696e746564000000006044820152606401610b24565b6001600160a01b03821660009081526003602052604081208054600192906143d89084906149da565b909155505060008181526002602052604080822080546001600160a01b0319166001600160a01b03861690811790915590518392907fddf252ad1be2c89b69c2b068fc378daa952ba7f163c4a11628f55a4df523b3ef908290a45050565b6060831561444557508161163a565b8251156144555782518084602001fd5b8160405162461bcd60e51b8152600401610b2491906144fa565b6001600160e01b03198116811461119057600080fd5b60006020828403121561449757600080fd5b813561163a8161446f565b60005b838110156144bd5781810151838201526020016144a5565b83811115610d1b5750506000910152565b600081518084526144e68160208601602086016144a2565b601f01601f19169290920160200192915050565b60208152600061163a60208301846144ce565b60006020828403121561451f57600080fd5b5035919050565b80356001600160a01b038116811461141357600080fd5b6000806040838503121561455057600080fd5b61455983614526565b946020939093013593505050565b6000806040838503121561457a57600080fd5b50508035926020909101359150565b60008060006060848603121561459e57600080fd5b505081359360208301359350604090920135919050565b6000806000606084860312156145ca57600080fd5b6145d384614526565b95602085013595506040909401359392505050565b6000806000606084860312156145fd57600080fd5b61460684614526565b925061461460208501614526565b9150604084013590509250925092565b60006020828403121561463657600080fd5b61163a82614526565b6000806000806080858703121561465557600080fd5b5050823594602084013594506040840135936060013592509050565b801515811461119057600080fd5b6000806040838503121561469257600080fd5b61469b83614526565b915060208301356146ab81614671565b809150509250929050565b634e487b7160e01b600052604160045260246000fd5b600080600080608085870312156146e257600080fd5b6146eb85614526565b93506146f960208601614526565b925060408501359150606085013567ffffffffffffffff8082111561471d57600080fd5b818701915087601f83011261473157600080fd5b813581811115614743576147436146b6565b604051601f8201601f19908116603f0116810190838211818310171561476b5761476b6146b6565b816040528281528a602084870101111561478457600080fd5b82602086016020830137600060208483010152809550505050505092959194509250565b600080604083850312156147bb57600080fd5b6147c483614526565b91506147d260208401614526565b90509250929050565b600181811c908216806147ef57607f821691505b6020821081141561481057634e487b7160e01b600052602260045260246000fd5b50919050565b634e487b7160e01b600052601160045260246000fd5b600081600019048311821515161561484657614846614816565b500290565b634e487b7160e01b600052601260045260246000fd5b6000826148705761487061484b565b500490565b60208082526030908201527f4344503a3a6f6e6c79436470417070726f7665644f724f776e65723a204e6f7460408201526f1030903b30b634b21031b0b63632b91760811b606082015260800190565b600080604083850312156148d857600080fd5b505080516020909101519092909150565b6000828210156148fb576148fb614816565b500390565b60008060006060848603121561491557600080fd5b8351925060208401519150604084015190509250925092565b60006020828403121561494057600080fd5b5051919050565b6020808252602e908201527f4552433732313a2063616c6c6572206973206e6f7420746f6b656e206f776e6560408201526d1c881b9bdc88185c1c1c9bdd995960921b606082015260800190565b60208082526025908201527f4344503a3a6f6e6c79476c6f62616c6c794865616c7468793a204e6f7420686560408201526430b63a3c9760d91b606082015260800190565b600082198211156149ed576149ed614816565b500190565b60008351614a048184602088016144a2565b835190830190614a188183602088016144a2565b01949350505050565b60208082526032908201527f4552433732313a207472616e7366657220746f206e6f6e20455243373231526560408201527131b2b4bb32b91034b6b83632b6b2b73a32b960711b606082015260800190565b6000600019821415614a8757614a87614816565b5060010190565b600082614a9d57614a9d61484b565b500690565b634e487b7160e01b600052603260045260246000fd5b600060208284031215614aca57600080fd5b815161163a81614671565b608081526000614ae860808301876144ce565b6020830195909552506040810192909252606090910152919050565b604081526000614b1760408301856144ce565b90508260208301529392505050565b6001600160a01b0385811682528416602082015260408101839052608060608201819052600090614b59908301846144ce565b9695505050505050565b600060208284031215614b7557600080fd5b815161163a8161446f565b60008251614b928184602087016144a2565b919091019291505056fea2646970667358221220073449c082c7e5e4fc998e65a19b58684e7871585dda4feb74c934656ba8930c64736f6c63430008090033206d757374206265206e6f6e7a65726f2e0000000000000000000000000000004e6f6e7a65726f3a3a6e6f6e7a65726f416464726573733a204163636f756e74",
  "linkReferences": {},
  "deployedLinkReferences": {}
}