{
  "_format": "hh-sol-artifact-1",
  "contractName": "FoxFarm",
  "sourceName": "contracts/FoxFarm.sol",
  "abi": [
    {
      "inputs": [
        {
          "internalType": "address",
          "name": "oracleFeeder_",
          "type": "address"
        },
        {
          "internalType": "address",
          "name": "feeTo_",
          "type": "address"
        },
        {
          "internalType": "address",
          "name": "collateralToken_",
          "type": "address"
        },
        {
          "internalType": "address",
          "name": "debtToken_",
          "type": "address"
        },
        {
          "internalType": "address",
          "name": "shareToken_",
          "type": "address"
        },
        {
          "internalType": "address",
          "name": "stableToken_",
          "type": "address"
        },
        {
          "internalType": "address",
          "name": "coupon_",
          "type": "address"
        },
        {
          "internalType": "uint256",
          "name": "maxLTV_",
          "type": "uint256"
        },
        {
          "internalType": "uint256",
          "name": "cap_",
          "type": "uint256"
        },
        {
          "internalType": "uint256",
          "name": "feeRatio_",
          "type": "uint256"
        }
      ],
      "stateMutability": "nonpayable",
      "type": "constructor"
    },
    {
      "anonymous": false,
      "inputs": [
        {
          "indexed": true,
          "internalType": "address",
          "name": "owner",
          "type": "address"
        },
        {
          "indexed": true,
          "internalType": "address",
          "name": "approved",
          "type": "address"
        },
        {
          "indexed": true,
          "internalType": "uint256",
          "name": "tokenId",
          "type": "uint256"
        }
      ],
      "name": "Approval",
      "type": "event"
    },
    {
      "anonymous": false,
      "inputs": [
        {
          "indexed": true,
          "internalType": "address",
          "name": "owner",
          "type": "address"
        },
        {
          "indexed": true,
          "internalType": "address",
          "name": "operator",
          "type": "address"
        },
        {
          "indexed": false,
          "internalType": "bool",
          "name": "approved",
          "type": "bool"
        }
      ],
      "name": "ApprovalForAll",
      "type": "event"
    },
    {
      "anonymous": false,
      "inputs": [
        {
          "indexed": true,
          "internalType": "address",
          "name": "account_",
          "type": "address"
        },
        {
          "indexed": true,
          "internalType": "uint256",
          "name": "id_",
          "type": "uint256"
        },
        {
          "indexed": false,
          "internalType": "uint256",
          "name": "amount",
          "type": "uint256"
        }
      ],
      "name": "Borrow",
      "type": "event"
    },
    {
      "anonymous": false,
      "inputs": [
        {
          "indexed": true,
          "internalType": "address",
          "name": "account_",
          "type": "address"
        },
        {
          "indexed": true,
          "internalType": "uint256",
          "name": "id_",
          "type": "uint256"
        }
      ],
      "name": "Close",
      "type": "event"
    },
    {
      "anonymous": false,
      "inputs": [
        {
          "indexed": true,
          "internalType": "address",
          "name": "account_",
          "type": "address"
        },
        {
          "indexed": true,
          "internalType": "uint256",
          "name": "id_",
          "type": "uint256"
        },
        {
          "indexed": false,
          "internalType": "uint256",
          "name": "amount",
          "type": "uint256"
        }
      ],
      "name": "Deposit",
      "type": "event"
    },
    {
      "anonymous": false,
      "inputs": [
        {
          "indexed": true,
          "internalType": "address",
          "name": "account_",
          "type": "address"
        },
        {
          "indexed": true,
          "internalType": "uint256",
          "name": "id_",
          "type": "uint256"
        }
      ],
      "name": "Open",
      "type": "event"
    },
    {
      "anonymous": false,
      "inputs": [
        {
          "indexed": true,
          "internalType": "address",
          "name": "previousOwner",
          "type": "address"
        },
        {
          "indexed": true,
          "internalType": "address",
          "name": "newOwner",
          "type": "address"
        }
      ],
      "name": "OwnershipTransferred",
      "type": "event"
    },
    {
      "anonymous": false,
      "inputs": [
        {
          "indexed": false,
          "internalType": "address",
          "name": "account",
          "type": "address"
        }
      ],
      "name": "Paused",
      "type": "event"
    },
    {
      "anonymous": false,
      "inputs": [
        {
          "indexed": true,
          "internalType": "address",
          "name": "account_",
          "type": "address"
        },
        {
          "indexed": true,
          "internalType": "uint256",
          "name": "id_",
          "type": "uint256"
        },
        {
          "indexed": false,
          "internalType": "uint256",
          "name": "amount",
          "type": "uint256"
        }
      ],
      "name": "Repay",
      "type": "event"
    },
    {
      "anonymous": false,
      "inputs": [
        {
          "indexed": false,
          "internalType": "uint256",
          "name": "prevCap",
          "type": "uint256"
        },
        {
          "indexed": false,
          "internalType": "uint256",
          "name": "currCap",
          "type": "uint256"
        }
      ],
      "name": "SetCap",
      "type": "event"
    },
    {
      "anonymous": false,
      "inputs": [
        {
          "indexed": false,
          "internalType": "uint256",
          "name": "prevFeeRatio",
          "type": "uint256"
        },
        {
          "indexed": false,
          "internalType": "uint256",
          "name": "currFeeRatio",
          "type": "uint256"
        }
      ],
      "name": "SetFeeRatio",
      "type": "event"
    },
    {
      "anonymous": false,
      "inputs": [
        {
          "indexed": false,
          "internalType": "address",
          "name": "prevFeeTo",
          "type": "address"
        },
        {
          "indexed": false,
          "internalType": "address",
          "name": "currFeeTo",
          "type": "address"
        }
      ],
      "name": "SetFeeTo",
      "type": "event"
    },
    {
      "anonymous": false,
      "inputs": [
        {
          "indexed": false,
          "internalType": "uint256",
          "name": "prevMaxLTV",
          "type": "uint256"
        },
        {
          "indexed": false,
          "internalType": "uint256",
          "name": "currMaxLTV",
          "type": "uint256"
        }
      ],
      "name": "SetMaxLTV",
      "type": "event"
    },
    {
      "anonymous": false,
      "inputs": [
        {
          "indexed": true,
          "internalType": "address",
          "name": "from",
          "type": "address"
        },
        {
          "indexed": true,
          "internalType": "address",
          "name": "to",
          "type": "address"
        },
        {
          "indexed": true,
          "internalType": "uint256",
          "name": "tokenId",
          "type": "uint256"
        }
      ],
      "name": "Transfer",
      "type": "event"
    },
    {
      "anonymous": false,
      "inputs": [
        {
          "indexed": false,
          "internalType": "address",
          "name": "account",
          "type": "address"
        }
      ],
      "name": "Unpaused",
      "type": "event"
    },
    {
      "anonymous": false,
      "inputs": [
        {
          "indexed": true,
          "internalType": "uint256",
          "name": "id_",
          "type": "uint256"
        },
        {
          "indexed": false,
          "internalType": "uint256",
          "name": "prevFee",
          "type": "uint256"
        },
        {
          "indexed": false,
          "internalType": "uint256",
          "name": "currFee",
          "type": "uint256"
        },
        {
          "indexed": false,
          "internalType": "uint256",
          "name": "prevTimestamp",
          "type": "uint256"
        },
        {
          "indexed": false,
          "internalType": "uint256",
          "name": "currTimestamp",
          "type": "uint256"
        }
      ],
      "name": "Update",
      "type": "event"
    },
    {
      "anonymous": false,
      "inputs": [
        {
          "indexed": false,
          "internalType": "address",
          "name": "prevOracleFeeder",
          "type": "address"
        },
        {
          "indexed": false,
          "internalType": "address",
          "name": "currOracle",
          "type": "address"
        }
      ],
      "name": "UpdateOracleFeeder",
      "type": "event"
    },
    {
      "anonymous": false,
      "inputs": [
        {
          "indexed": true,
          "internalType": "address",
          "name": "token",
          "type": "address"
        },
        {
          "indexed": false,
          "internalType": "uint256",
          "name": "prevPrice",
          "type": "uint256"
        },
        {
          "indexed": false,
          "internalType": "uint256",
          "name": "currPrice",
          "type": "uint256"
        }
      ],
      "name": "UpdatePrice",
      "type": "event"
    },
    {
      "anonymous": false,
      "inputs": [
        {
          "indexed": true,
          "internalType": "address",
          "name": "account_",
          "type": "address"
        },
        {
          "indexed": true,
          "internalType": "uint256",
          "name": "id_",
          "type": "uint256"
        },
        {
          "indexed": false,
          "internalType": "uint256",
          "name": "amount",
          "type": "uint256"
        }
      ],
      "name": "Withdraw",
      "type": "event"
    },
    {
      "inputs": [
        {
          "internalType": "address",
          "name": "to",
          "type": "address"
        },
        {
          "internalType": "uint256",
          "name": "tokenId",
          "type": "uint256"
        }
      ],
      "name": "approve",
      "outputs": [],
      "stateMutability": "nonpayable",
      "type": "function"
    },
    {
      "inputs": [
        {
          "internalType": "address",
          "name": "owner",
          "type": "address"
        }
      ],
      "name": "balanceOf",
      "outputs": [
        {
          "internalType": "uint256",
          "name": "",
          "type": "uint256"
        }
      ],
      "stateMutability": "view",
      "type": "function"
    },
    {
      "inputs": [
        {
          "internalType": "uint256",
          "name": "id_",
          "type": "uint256"
        },
        {
          "internalType": "uint256",
          "name": "amount_",
          "type": "uint256"
        }
      ],
      "name": "borrow",
      "outputs": [],
      "stateMutability": "nonpayable",
      "type": "function"
    },
    {
      "inputs": [
        {
          "internalType": "uint256",
          "name": "id_",
          "type": "uint256"
        },
        {
          "internalType": "uint256",
          "name": "ltv_",
          "type": "uint256"
        },
        {
          "internalType": "uint256",
          "name": "collateralAmount_",
          "type": "uint256"
        }
      ],
      "name": "borrowAmountToLTV",
      "outputs": [
        {
          "internalType": "uint256",
          "name": "debtAmount_",
          "type": "uint256"
        }
      ],
      "stateMutability": "view",
      "type": "function"
    },
    {
      "inputs": [
        {
          "internalType": "address",
          "name": "account_",
          "type": "address"
        },
        {
          "internalType": "uint256",
          "name": "amount_",
          "type": "uint256"
        }
      ],
      "name": "buybackCoupon",
      "outputs": [
        {
          "internalType": "uint256",
          "name": "cid_",
          "type": "uint256"
        },
        {
          "internalType": "uint256",
          "name": "debtAmount_",
          "type": "uint256"
        }
      ],
      "stateMutability": "nonpayable",
      "type": "function"
    },
    {
      "inputs": [
        {
          "internalType": "address",
          "name": "account_",
          "type": "address"
        },
        {
          "internalType": "uint256",
          "name": "id_",
          "type": "uint256"
        },
        {
          "internalType": "uint256",
          "name": "amount_",
          "type": "uint256"
        }
      ],
      "name": "buybackRepayDebt",
      "outputs": [
        {
          "internalType": "uint256",
          "name": "debtAmount_",
          "type": "uint256"
        }
      ],
      "stateMutability": "nonpayable",
      "type": "function"
    },
    {
      "inputs": [
        {
          "internalType": "address",
          "name": "account_",
          "type": "address"
        },
        {
          "internalType": "uint256",
          "name": "id_",
          "type": "uint256"
        },
        {
          "internalType": "uint256",
          "name": "amount_",
          "type": "uint256"
        }
      ],
      "name": "buybackWithdrawCollateral",
      "outputs": [
        {
          "internalType": "uint256",
          "name": "debtAmount_",
          "type": "uint256"
        }
      ],
      "stateMutability": "nonpayable",
      "type": "function"
    },
    {
      "inputs": [],
      "name": "cap",
      "outputs": [
        {
          "internalType": "uint256",
          "name": "",
          "type": "uint256"
        }
      ],
      "stateMutability": "view",
      "type": "function"
    },
    {
      "inputs": [
        {
          "internalType": "uint256",
          "name": "",
          "type": "uint256"
        }
      ],
      "name": "cdps",
      "outputs": [
        {
          "internalType": "uint256",
          "name": "collateral",
          "type": "uint256"
        },
        {
          "internalType": "uint256",
          "name": "debt",
          "type": "uint256"
        },
        {
          "internalType": "uint256",
          "name": "fee",
          "type": "uint256"
        },
        {
          "internalType": "uint256",
          "name": "latestUpdate",
          "type": "uint256"
        }
      ],
      "stateMutability": "view",
      "type": "function"
    },
    {
      "inputs": [
        {
          "internalType": "uint256",
          "name": "id_",
          "type": "uint256"
        }
      ],
      "name": "close",
      "outputs": [],
      "stateMutability": "nonpayable",
      "type": "function"
    },
    {
      "inputs": [
        {
          "internalType": "uint256",
          "name": "id_",
          "type": "uint256"
        }
      ],
      "name": "currentLTV",
      "outputs": [
        {
          "internalType": "uint256",
          "name": "ltv",
          "type": "uint256"
        }
      ],
      "stateMutability": "view",
      "type": "function"
    },
    {
      "inputs": [
        {
          "internalType": "uint256",
          "name": "id_",
          "type": "uint256"
        },
        {
          "internalType": "uint256",
          "name": "amount_",
          "type": "uint256"
        }
      ],
      "name": "deposit",
      "outputs": [],
      "stateMutability": "nonpayable",
      "type": "function"
    },
    {
      "inputs": [
        {
          "internalType": "uint256",
          "name": "id_",
          "type": "uint256"
        },
        {
          "internalType": "uint256",
          "name": "depositAmount_",
          "type": "uint256"
        },
        {
          "internalType": "uint256",
          "name": "borrowAmount_",
          "type": "uint256"
        }
      ],
      "name": "depositAndBorrow",
      "outputs": [],
      "stateMutability": "nonpayable",
      "type": "function"
    },
    {
      "inputs": [
        {
          "internalType": "uint256",
          "name": "id_",
          "type": "uint256"
        },
        {
          "internalType": "uint256",
          "name": "shareAmount_",
          "type": "uint256"
        },
        {
          "internalType": "uint256",
          "name": "ltv_",
          "type": "uint256"
        }
      ],
      "name": "exchangedCollateralAmountFromShareWithLtv",
      "outputs": [
        {
          "internalType": "uint256",
          "name": "collateralAmount_",
          "type": "uint256"
        }
      ],
      "stateMutability": "view",
      "type": "function"
    },
    {
      "inputs": [
        {
          "internalType": "uint256",
          "name": "id_",
          "type": "uint256"
        },
        {
          "internalType": "uint256",
          "name": "collateralAmount_",
          "type": "uint256"
        },
        {
          "internalType": "uint256",
          "name": "ltv_",
          "type": "uint256"
        }
      ],
      "name": "exchangedShareAmountFromCollateralWithLtv",
      "outputs": [
        {
          "internalType": "uint256",
          "name": "shareAmount_",
          "type": "uint256"
        }
      ],
      "stateMutability": "view",
      "type": "function"
    },
    {
      "inputs": [
        {
          "internalType": "uint256",
          "name": "id_",
          "type": "uint256"
        },
        {
          "internalType": "uint256",
          "name": "newCollateralAmount_",
          "type": "uint256"
        },
        {
          "internalType": "uint256",
          "name": "ltv_",
          "type": "uint256"
        },
        {
          "internalType": "uint256",
          "name": "newShareAmount_",
          "type": "uint256"
        }
      ],
      "name": "expectedMintAmountToLtv",
      "outputs": [
        {
          "internalType": "uint256",
          "name": "newStableAmount_",
          "type": "uint256"
        }
      ],
      "stateMutability": "view",
      "type": "function"
    },
    {
      "inputs": [
        {
          "internalType": "uint256",
          "name": "id_",
          "type": "uint256"
        },
        {
          "internalType": "uint256",
          "name": "collateralAmount_",
          "type": "uint256"
        },
        {
          "internalType": "uint256",
          "name": "ltv_",
          "type": "uint256"
        },
        {
          "internalType": "uint256",
          "name": "shareAmount_",
          "type": "uint256"
        }
      ],
      "name": "expectedMintAmountWithLtv",
      "outputs": [
        {
          "internalType": "uint256",
          "name": "stableAmount_",
          "type": "uint256"
        }
      ],
      "stateMutability": "view",
      "type": "function"
    },
    {
      "inputs": [
        {
          "internalType": "uint256",
          "name": "id_",
          "type": "uint256"
        },
        {
          "internalType": "uint256",
          "name": "paidStableAmount_",
          "type": "uint256"
        },
        {
          "internalType": "uint256",
          "name": "ltv_",
          "type": "uint256"
        }
      ],
      "name": "expectedRedeemAmountToLtv",
      "outputs": [
        {
          "internalType": "uint256",
          "name": "collateralAmountToWithdraw_",
          "type": "uint256"
        },
        {
          "internalType": "uint256",
          "name": "newShareAmount_",
          "type": "uint256"
        }
      ],
      "stateMutability": "view",
      "type": "function"
    },
    {
      "inputs": [
        {
          "internalType": "uint256",
          "name": "id_",
          "type": "uint256"
        },
        {
          "internalType": "uint256",
          "name": "stableAmount_",
          "type": "uint256"
        },
        {
          "internalType": "uint256",
          "name": "ltv_",
          "type": "uint256"
        }
      ],
      "name": "expectedRedeemAmountWithLtv",
      "outputs": [
        {
          "internalType": "uint256",
          "name": "collateralAmount_",
          "type": "uint256"
        },
        {
          "internalType": "uint256",
          "name": "shareAmount_",
          "type": "uint256"
        }
      ],
      "stateMutability": "view",
      "type": "function"
    },
    {
      "inputs": [
        {
          "internalType": "uint256",
          "name": "tokenId",
          "type": "uint256"
        }
      ],
      "name": "getApproved",
      "outputs": [
        {
          "internalType": "address",
          "name": "",
          "type": "address"
        }
      ],
      "stateMutability": "view",
      "type": "function"
    },
    {
      "inputs": [],
      "name": "getCollateralPrice",
      "outputs": [
        {
          "internalType": "uint256",
          "name": "",
          "type": "uint256"
        }
      ],
      "stateMutability": "view",
      "type": "function"
    },
    {
      "inputs": [],
      "name": "globalHealthFactor",
      "outputs": [
        {
          "internalType": "uint256",
          "name": "health",
          "type": "uint256"
        }
      ],
      "stateMutability": "view",
      "type": "function"
    },
    {
      "inputs": [],
      "name": "globalLTV",
      "outputs": [
        {
          "internalType": "uint256",
          "name": "ltv",
          "type": "uint256"
        }
      ],
      "stateMutability": "view",
      "type": "function"
    },
    {
      "inputs": [],
      "name": "globalLiquidate",
      "outputs": [],
      "stateMutability": "nonpayable",
      "type": "function"
    },
    {
      "inputs": [
        {
          "internalType": "uint256",
          "name": "id_",
          "type": "uint256"
        }
      ],
      "name": "healthFactor",
      "outputs": [
        {
          "internalType": "uint256",
          "name": "health",
          "type": "uint256"
        }
      ],
      "stateMutability": "view",
      "type": "function"
    },
    {
      "inputs": [],
      "name": "id",
      "outputs": [
        {
          "internalType": "uint256",
          "name": "",
          "type": "uint256"
        }
      ],
      "stateMutability": "view",
      "type": "function"
    },
    {
      "inputs": [],
      "name": "initialize",
      "outputs": [],
      "stateMutability": "nonpayable",
      "type": "function"
    },
    {
      "inputs": [
        {
          "internalType": "address",
          "name": "owner",
          "type": "address"
        },
        {
          "internalType": "address",
          "name": "operator",
          "type": "address"
        }
      ],
      "name": "isApprovedForAll",
      "outputs": [
        {
          "internalType": "bool",
          "name": "",
          "type": "bool"
        }
      ],
      "stateMutability": "view",
      "type": "function"
    },
    {
      "inputs": [
        {
          "internalType": "uint256",
          "name": "id_",
          "type": "uint256"
        }
      ],
      "name": "isSafe",
      "outputs": [
        {
          "internalType": "bool",
          "name": "",
          "type": "bool"
        }
      ],
      "stateMutability": "view",
      "type": "function"
    },
    {
      "inputs": [
        {
          "internalType": "uint256",
          "name": "id_",
          "type": "uint256"
        }
      ],
      "name": "liquidate",
      "outputs": [],
      "stateMutability": "nonpayable",
      "type": "function"
    },
    {
      "inputs": [],
      "name": "maxLTV",
      "outputs": [
        {
          "internalType": "uint256",
          "name": "",
          "type": "uint256"
        }
      ],
      "stateMutability": "view",
      "type": "function"
    },
    {
      "inputs": [],
      "name": "name",
      "outputs": [
        {
          "internalType": "string",
          "name": "",
          "type": "string"
        }
      ],
      "stateMutability": "view",
      "type": "function"
    },
    {
      "inputs": [],
      "name": "open",
      "outputs": [
        {
          "internalType": "uint256",
          "name": "id_",
          "type": "uint256"
        }
      ],
      "stateMutability": "nonpayable",
      "type": "function"
    },
    {
      "inputs": [
        {
          "internalType": "uint256",
          "name": "amount_",
          "type": "uint256"
        }
      ],
      "name": "openAndDeposit",
      "outputs": [
        {
          "internalType": "uint256",
          "name": "id_",
          "type": "uint256"
        }
      ],
      "stateMutability": "nonpayable",
      "type": "function"
    },
    {
      "inputs": [
        {
          "internalType": "uint256",
          "name": "depositAmount_",
          "type": "uint256"
        },
        {
          "internalType": "uint256",
          "name": "borrowAmount_",
          "type": "uint256"
        }
      ],
      "name": "openAndDepositAndBorrow",
      "outputs": [
        {
          "internalType": "uint256",
          "name": "id_",
          "type": "uint256"
        }
      ],
      "stateMutability": "nonpayable",
      "type": "function"
    },
    {
      "inputs": [],
      "name": "owner",
      "outputs": [
        {
          "internalType": "address",
          "name": "",
          "type": "address"
        }
      ],
      "stateMutability": "view",
      "type": "function"
    },
    {
      "inputs": [
        {
          "internalType": "uint256",
          "name": "tokenId",
          "type": "uint256"
        }
      ],
      "name": "ownerOf",
      "outputs": [
        {
          "internalType": "address",
          "name": "",
          "type": "address"
        }
      ],
      "stateMutability": "view",
      "type": "function"
    },
    {
      "inputs": [
        {
          "internalType": "uint256",
          "name": "id_",
          "type": "uint256"
        },
        {
          "internalType": "uint256",
          "name": "cid_",
          "type": "uint256"
        }
      ],
      "name": "pairAnnihilation",
      "outputs": [],
      "stateMutability": "nonpayable",
      "type": "function"
    },
    {
      "inputs": [],
      "name": "pause",
      "outputs": [],
      "stateMutability": "nonpayable",
      "type": "function"
    },
    {
      "inputs": [],
      "name": "paused",
      "outputs": [
        {
          "internalType": "bool",
          "name": "",
          "type": "bool"
        }
      ],
      "stateMutability": "view",
      "type": "function"
    },
    {
      "inputs": [
        {
          "internalType": "address",
          "name": "account_",
          "type": "address"
        },
        {
          "internalType": "uint256",
          "name": "id_",
          "type": "uint256"
        },
        {
          "internalType": "uint256",
          "name": "amount_",
          "type": "uint256"
        }
      ],
      "name": "recollateralizeBorrowDebt",
      "outputs": [
        {
          "internalType": "uint256",
          "name": "shareAmount_",
          "type": "uint256"
        },
        {
          "internalType": "uint256",
          "name": "bonusAmount_",
          "type": "uint256"
        }
      ],
      "stateMutability": "nonpayable",
      "type": "function"
    },
    {
      "inputs": [
        {
          "internalType": "address",
          "name": "account_",
          "type": "address"
        },
        {
          "internalType": "uint256",
          "name": "id_",
          "type": "uint256"
        },
        {
          "internalType": "uint256",
          "name": "amount_",
          "type": "uint256"
        }
      ],
      "name": "recollateralizeDepositCollateral",
      "outputs": [
        {
          "internalType": "uint256",
          "name": "shareAmount_",
          "type": "uint256"
        },
        {
          "internalType": "uint256",
          "name": "bonusAmount_",
          "type": "uint256"
        }
      ],
      "stateMutability": "nonpayable",
      "type": "function"
    },
    {
      "inputs": [],
      "name": "renounceOwnership",
      "outputs": [],
      "stateMutability": "nonpayable",
      "type": "function"
    },
    {
      "inputs": [
        {
          "internalType": "uint256",
          "name": "id_",
          "type": "uint256"
        },
        {
          "internalType": "uint256",
          "name": "amount_",
          "type": "uint256"
        }
      ],
      "name": "repay",
      "outputs": [],
      "stateMutability": "nonpayable",
      "type": "function"
    },
    {
      "inputs": [
        {
          "internalType": "uint256",
          "name": "id_",
          "type": "uint256"
        },
        {
          "internalType": "uint256",
          "name": "repayAmount_",
          "type": "uint256"
        },
        {
          "internalType": "uint256",
          "name": "withdrawAmount_",
          "type": "uint256"
        }
      ],
      "name": "repayAndWithdraw",
      "outputs": [],
      "stateMutability": "nonpayable",
      "type": "function"
    },
    {
      "inputs": [
        {
          "internalType": "uint256",
          "name": "id_",
          "type": "uint256"
        },
        {
          "internalType": "uint256",
          "name": "shareAmount_",
          "type": "uint256"
        },
        {
          "internalType": "uint256",
          "name": "ltv_",
          "type": "uint256"
        }
      ],
      "name": "requiredCollateralAmountFromShareWithLtv",
      "outputs": [
        {
          "internalType": "uint256",
          "name": "collateralAmount_",
          "type": "uint256"
        }
      ],
      "stateMutability": "view",
      "type": "function"
    },
    {
      "inputs": [
        {
          "internalType": "uint256",
          "name": "id_",
          "type": "uint256"
        },
        {
          "internalType": "uint256",
          "name": "stableAmount_",
          "type": "uint256"
        },
        {
          "internalType": "uint256",
          "name": "ltv_",
          "type": "uint256"
        }
      ],
      "name": "requiredCollateralAmountFromStableWithLtv",
      "outputs": [
        {
          "internalType": "uint256",
          "name": "collateralAmount_",
          "type": "uint256"
        }
      ],
      "stateMutability": "view",
      "type": "function"
    },
    {
      "inputs": [
        {
          "internalType": "uint256",
          "name": "id_",
          "type": "uint256"
        },
        {
          "internalType": "uint256",
          "name": "collateralAmount_",
          "type": "uint256"
        },
        {
          "internalType": "uint256",
          "name": "ltv_",
          "type": "uint256"
        }
      ],
      "name": "requiredShareAmountFromCollateralWithLtv",
      "outputs": [
        {
          "internalType": "uint256",
          "name": "shareAmount_",
          "type": "uint256"
        }
      ],
      "stateMutability": "view",
      "type": "function"
    },
    {
      "inputs": [
        {
          "internalType": "address",
          "name": "from",
          "type": "address"
        },
        {
          "internalType": "address",
          "name": "to",
          "type": "address"
        },
        {
          "internalType": "uint256",
          "name": "tokenId",
          "type": "uint256"
        }
      ],
      "name": "safeTransferFrom",
      "outputs": [],
      "stateMutability": "nonpayable",
      "type": "function"
    },
    {
      "inputs": [
        {
          "internalType": "address",
          "name": "from",
          "type": "address"
        },
        {
          "internalType": "address",
          "name": "to",
          "type": "address"
        },
        {
          "internalType": "uint256",
          "name": "tokenId",
          "type": "uint256"
        },
        {
          "internalType": "bytes",
          "name": "data",
          "type": "bytes"
        }
      ],
      "name": "safeTransferFrom",
      "outputs": [],
      "stateMutability": "nonpayable",
      "type": "function"
    },
    {
      "inputs": [
        {
          "internalType": "address",
          "name": "operator",
          "type": "address"
        },
        {
          "internalType": "bool",
          "name": "approved",
          "type": "bool"
        }
      ],
      "name": "setApprovalForAll",
      "outputs": [],
      "stateMutability": "nonpayable",
      "type": "function"
    },
    {
      "inputs": [
        {
          "internalType": "uint256",
          "name": "newCap",
          "type": "uint256"
        }
      ],
      "name": "setCap",
      "outputs": [],
      "stateMutability": "nonpayable",
      "type": "function"
    },
    {
      "inputs": [
        {
          "internalType": "uint256",
          "name": "newFeeRatio",
          "type": "uint256"
        }
      ],
      "name": "setFeeRatio",
      "outputs": [],
      "stateMutability": "nonpayable",
      "type": "function"
    },
    {
      "inputs": [
        {
          "internalType": "address",
          "name": "newFeeTo",
          "type": "address"
        }
      ],
      "name": "setFeeTo",
      "outputs": [],
      "stateMutability": "nonpayable",
      "type": "function"
    },
    {
      "inputs": [
        {
          "internalType": "uint256",
          "name": "newMaxLTV",
          "type": "uint256"
        }
      ],
      "name": "setMaxLTV",
      "outputs": [],
      "stateMutability": "nonpayable",
      "type": "function"
    },
    {
      "inputs": [
        {
          "internalType": "bytes4",
          "name": "interfaceId",
          "type": "bytes4"
        }
      ],
      "name": "supportsInterface",
      "outputs": [
        {
          "internalType": "bool",
          "name": "",
          "type": "bool"
        }
      ],
      "stateMutability": "view",
      "type": "function"
    },
    {
      "inputs": [],
      "name": "symbol",
      "outputs": [
        {
          "internalType": "string",
          "name": "",
          "type": "string"
        }
      ],
      "stateMutability": "view",
      "type": "function"
    },
    {
      "inputs": [
        {
          "internalType": "uint256",
          "name": "tokenId",
          "type": "uint256"
        }
      ],
      "name": "tokenURI",
      "outputs": [
        {
          "internalType": "string",
          "name": "",
          "type": "string"
        }
      ],
      "stateMutability": "view",
      "type": "function"
    },
    {
      "inputs": [],
      "name": "totalCollateral",
      "outputs": [
        {
          "internalType": "uint256",
          "name": "",
          "type": "uint256"
        }
      ],
      "stateMutability": "view",
      "type": "function"
    },
    {
      "inputs": [],
      "name": "totalDebt",
      "outputs": [
        {
          "internalType": "uint256",
          "name": "",
          "type": "uint256"
        }
      ],
      "stateMutability": "view",
      "type": "function"
    },
    {
      "inputs": [],
      "name": "totalFee",
      "outputs": [
        {
          "internalType": "uint256",
          "name": "",
          "type": "uint256"
        }
      ],
      "stateMutability": "view",
      "type": "function"
    },
    {
      "inputs": [
        {
          "internalType": "address",
          "name": "from",
          "type": "address"
        },
        {
          "internalType": "address",
          "name": "to",
          "type": "address"
        },
        {
          "internalType": "uint256",
          "name": "tokenId",
          "type": "uint256"
        }
      ],
      "name": "transferFrom",
      "outputs": [],
      "stateMutability": "nonpayable",
      "type": "function"
    },
    {
      "inputs": [
        {
          "internalType": "address",
          "name": "newOwner",
          "type": "address"
        }
      ],
      "name": "transferOwnership",
      "outputs": [],
      "stateMutability": "nonpayable",
      "type": "function"
    },
    {
      "inputs": [],
      "name": "unpause",
      "outputs": [],
      "stateMutability": "nonpayable",
      "type": "function"
    },
    {
      "inputs": [
        {
          "internalType": "uint256",
          "name": "newCollateralPrice",
          "type": "uint256"
        },
        {
          "internalType": "uint256",
          "name": "confidence",
          "type": "uint256"
        }
      ],
      "name": "updateCollateralPrice",
      "outputs": [],
      "stateMutability": "nonpayable",
      "type": "function"
    },
    {
      "inputs": [
        {
          "internalType": "uint256",
          "name": "id_",
          "type": "uint256"
        }
      ],
      "name": "updateFee",
      "outputs": [
        {
          "internalType": "uint256",
          "name": "additionalFee",
          "type": "uint256"
        }
      ],
      "stateMutability": "nonpayable",
      "type": "function"
    },
    {
      "inputs": [
        {
          "internalType": "address",
          "name": "newOracleFeeder",
          "type": "address"
        }
      ],
      "name": "updateOracleFeeder",
      "outputs": [],
      "stateMutability": "nonpayable",
      "type": "function"
    },
    {
      "inputs": [
        {
          "internalType": "uint256",
          "name": "id_",
          "type": "uint256"
        },
        {
          "internalType": "uint256",
          "name": "amount_",
          "type": "uint256"
        }
      ],
      "name": "withdraw",
      "outputs": [],
      "stateMutability": "nonpayable",
      "type": "function"
    },
    {
      "inputs": [
        {
          "internalType": "uint256",
          "name": "id_",
          "type": "uint256"
        },
        {
          "internalType": "uint256",
          "name": "ltv_",
          "type": "uint256"
        },
        {
          "internalType": "uint256",
          "name": "debtAmount_",
          "type": "uint256"
        }
      ],
      "name": "withdrawAmountToLTV",
      "outputs": [
        {
          "internalType": "uint256",
          "name": "collateralAmount_",
          "type": "uint256"
        }
      ],
      "stateMutability": "view",
      "type": "function"
    }
  ],
  "bytecode": "0x6101206040526127106008553480156200001857600080fd5b5060405162005960380380620059608339810160408190526200003b9162000560565b60405180604001604052806007815260200166466f784661726d60c81b815250604051806040016040528060068152602001650464f584344560d41b8152508b8b8b8b88888886898981600090805190602001906200009c9291906200049d565b508051620000b29060019060208401906200049d565b50506006805460ff1916905550620000ca336200037b565b600780546001600160a01b03199081166001600160a01b0393841617909155600b80549091169782169790971790965593851660805291841660a052600955600a55600c558d93508316151591506200017090505760405162461bcd60e51b815260206004820152603160248201526000805160206200594083398151915260448201526000805160206200592083398151915260648201526084015b60405180910390fd5b886001600160a01b038116620001cd5760405162461bcd60e51b8152602060048201526031602482015260008051602062005940833981519152604482015260008051602062005920833981519152606482015260840162000167565b886001600160a01b0381166200022a5760405162461bcd60e51b8152602060048201526031602482015260008051602062005940833981519152604482015260008051602062005920833981519152606482015260840162000167565b886001600160a01b038116620002875760405162461bcd60e51b8152602060048201526031602482015260008051602062005940833981519152604482015260008051602062005920833981519152606482015260840162000167565b886001600160a01b038116620002e45760405162461bcd60e51b8152602060048201526031602482015260008051602062005940833981519152604482015260008051602062005920833981519152606482015260840162000167565b886001600160a01b038116620003415760405162461bcd60e51b8152602060048201526031602482015260008051602062005940833981519152604482015260008051602062005920833981519152606482015260840162000167565b6001600160a01b03808d1660c0528b811660e0528a166101005262000365620003d5565b5050505050505050505050505050505062000651565b600680546001600160a01b03838116610100818102610100600160a81b031985161790945560405193909204169182907f8be0079c531659141344cd1fd0a4f28419497f9722a3daafe3b4186f6b6457e090600090a35050565b60a05160e051604051630571ac8b60e41b81526001600160a01b03918216600482015291169063571ac8b090602401600060405180830381600087803b1580156200041f57600080fd5b505af115801562000434573d6000803e3d6000fd5b505060c05160e051604051630571ac8b60e41b81526001600160a01b0391821660048201529116925063571ac8b09150602401600060405180830381600087803b1580156200048257600080fd5b505af115801562000497573d6000803e3d6000fd5b50505050565b828054620004ab9062000614565b90600052602060002090601f016020900481019282620004cf57600085556200051a565b82601f10620004ea57805160ff19168380011785556200051a565b828001600101855582156200051a579182015b828111156200051a578251825591602001919060010190620004fd565b50620005289291506200052c565b5090565b5b808211156200052857600081556001016200052d565b80516001600160a01b03811681146200055b57600080fd5b919050565b6000806000806000806000806000806101408b8d0312156200058157600080fd5b6200058c8b62000543565b99506200059c60208c0162000543565b9850620005ac60408c0162000543565b9750620005bc60608c0162000543565b9650620005cc60808c0162000543565b9550620005dc60a08c0162000543565b9450620005ec60c08c0162000543565b935060e08b015192506101008b015191506101208b015190509295989b9194979a5092959850565b600181811c908216806200062957607f821691505b602082108114156200064b57634e487b7160e01b600052602260045260246000fd5b50919050565b60805160a05160c05160e0516101005161513a620007e660003960008181610c5001526113d5015260008181610d7f01528181610e3001528181610f2b01528181610fe8015281816111a501528181611321015281816114980152818161159501528181611772015281816118980152818161192401528181611b5501528181611b9901528181611ca501528181611ea101528181611ff501528181612135015281816122510152818161235f015281816123f8015281816125100152818161258b01528181612644015281816126d00152818161299c01528181612a170152818161308b015281816131d40152818161327a015281816133630152818161364e01526136a70152600081816112d501528181611e4b01528181611f9f0152818161242001528181613306015261373e01526000818161115701528181611b070152818161238701528181613f7f0152818161404a015281816142d70152818161431001528181614366015281816143a60152614420015260008181612b890152818161382e0152613ad5015261513a6000f3fe608060405234801561001057600080fd5b50600436106104075760003560e01c80636579887911610220578063bc71054e11610130578063ee50e50b116100b8578063f46901ed11610087578063f46901ed146108fc578063f7683bbc1461090f578063fc7b9c1814610917578063fce6b78514610920578063fcfff16f1461093357600080fd5b8063ee50e50b146108ba578063efb2654d146108cd578063f2fde38b146108e0578063f384bd05146108f357600080fd5b8063dd8a04b3116100ff578063dd8a04b3146107fb578063e205217d14610803578063e2bbb15814610816578063e985e9c514610829578063eb89ef781461086557600080fd5b8063bc71054e146107af578063beb95600146107c2578063c87b56dd146107d5578063d8aed145146107e857600080fd5b80639012c4a8116101b3578063a22cb46511610182578063a22cb4651461075a578063a5de67561461076d578063af640d0f14610780578063b88d4fde14610789578063bb23c7371461079c57600080fd5b80639012c4a81461071957806395d89b411461072c5780639760a42b146107345780639d917e0e1461074757600080fd5b80637455efd4116101ef5780637455efd4146106e05780638129fc1c146106f35780638456cb59146106fb5780638da5cb5b1461070357600080fd5b8063657988791461069f5780636c9122fd146106b257806370a08231146106c5578063715018a6146106d857600080fd5b80633145ea3d1161031b57806342842e0e116102ae5780634cb9c24a1161027d5780634cb9c24a146106485780635b5291971461065b5780635c975abb1461066e5780635cacdaca146106795780636352211e1461068c57600080fd5b806342842e0e14610606578063441a3e701461061957806347786d371461062c5780634ac8eb5f1461063f57600080fd5b806336bdbb13116102ea57806336bdbb13146105d05780633f05790d146105d85780633f4ba83a146105eb578063415f1240146105f357600080fd5b80633145ea3d1461058e57806333577114146105a1578063355274ea146105b4578063368ed38f146105bd57600080fd5b80630b0b64001161039e578063234ee4711161036d578063234ee4711461052f57806323b872dd14610542578063262daf8e146105555780632e2ddd45146105685780632f297daa1461057b57600080fd5b80630b0b6400146104d85780630ecbcdab1461050057806319f4ff2f146105135780631df4ccfc1461052657600080fd5b806308a0c375116103da57806308a0c3751461048a578063095ea7b31461049f5780630aebeb4e146104b25780630b068e9c146104c557600080fd5b806301ffc9a71461040c57806306fdde0314610434578063081812fc14610449578063083dd51b14610474575b600080fd5b61041f61041a366004614a16565b61093b565b60405190151581526020015b60405180910390f35b61043c61098d565b60405161042b9190614a8b565b61045c610457366004614a9e565b610a1f565b6040516001600160a01b03909116815260200161042b565b61047c610a46565b60405190815260200161042b565b61049d610498366004614a9e565b610a82565b005b61049d6104ad366004614ad3565b610ad0565b61049d6104c0366004614a9e565b610beb565b61049d6104d3366004614afd565b610c2f565b6104eb6104e6366004614b1f565b610d42565b6040805192835260208301919091520161042b565b61049d61050e366004614afd565b611076565b61049d610521366004614a9e565b6110bb565b61047c60115481565b6104eb61053d366004614b4b565b611101565b61049d610550366004614b7e565b611230565b61049d610563366004614bba565b611261565b61049d610576366004614b1f565b611275565b6104eb610589366004614ad3565b61129d565b61047c61059c366004614b1f565b61145c565b61047c6105af366004614a9e565b611678565b61047c600a5481565b6104eb6105cb366004614b1f565b6116fc565b61049d61184a565b61047c6105e6366004614b1f565b61185c565b61049d611970565b61049d610601366004614a9e565b611980565b61049d610614366004614b7e565b6119f6565b61049d610627366004614afd565b611a11565b61049d61063a366004614a9e565b611a56565b61047c600f5481565b61041f610656366004614a9e565b611a9c565b6104eb610669366004614b4b565b611ab1565b60065460ff1661041f565b61047c610687366004614b1f565b611b84565b61045c61069a366004614a9e565b611d8b565b61047c6106ad366004614b4b565b611deb565b61047c6106c0366004614b4b565b611f68565b61047c6106d3366004614bba565b612088565b61049d61210e565b61047c6106ee366004614bd5565b612120565b61049d612348565b61049d61247a565b60065461010090046001600160a01b031661045c565b61047c610727366004614a9e565b61248a565b61043c612495565b61049d610742366004614b1f565b6124a4565b61047c610755366004614b1f565b6124fb565b61049d610768366004614c15565b6125f9565b61047c61077b366004614b1f565b612608565b61047c600e5481565b61049d610797366004614c62565b61271c565b61047c6107aa366004614a9e565b61274e565b61047c6107bd366004614a9e565b61277f565b61047c6107d0366004614b1f565b612800565b61043c6107e3366004614a9e565b612891565b61049d6107f6366004614afd565b612904565b61047c612921565b61047c610811366004614bd5565b612987565b61049d610824366004614afd565b612a8f565b61041f610837366004614d3e565b6001600160a01b03918216600090815260056020908152604080832093909416825291909152205460ff1690565b61089a610873366004614a9e565b600d6020526000908152604090208054600182015460028301546003909301549192909184565b60408051948552602085019390935291830152606082015260800161042b565b61047c6108c8366004614afd565b612aab565b61049d6108db366004614afd565b612ae8565b61049d6108ee366004614bba565b612be2565b61047c60095481565b61049d61090a366004614bba565b612c58565b60085461047c565b61047c60105481565b61047c61092e366004614b1f565b612cba565b61047c612d3a565b60006001600160e01b031982166380ac58cd60e01b148061096c57506001600160e01b03198216635b5e139f60e01b145b8061098757506301ffc9a760e01b6001600160e01b03198316145b92915050565b60606000805461099c90614d71565b80601f01602080910402602001604051908101604052809291908181526020018280546109c890614d71565b8015610a155780601f106109ea57610100808354040283529160200191610a15565b820191906000526020600020905b8154815290600101906020018083116109f857829003601f168201915b5050505050905090565b6000610a2a82612d5c565b506000908152600460205260409020546001600160a01b031690565b6000600854600f54610a589190614dc2565b61271080601054610a699190614dc2565b610a739190614dc2565b610a7d9190614df7565b905090565b610a8a612dbb565b600980549082905560408051828152602081018490527fe796e9ae748449310fcd1cc6718aab236c9b8d2e0e04dacb232ba564d5b338cc91015b60405180910390a15050565b6000610adb82611d8b565b9050806001600160a01b0316836001600160a01b03161415610b4e5760405162461bcd60e51b815260206004820152602160248201527f4552433732313a20617070726f76616c20746f2063757272656e74206f776e656044820152603960f91b60648201526084015b60405180910390fd5b336001600160a01b0382161480610b6a5750610b6a8133610837565b610bdc5760405162461bcd60e51b815260206004820152603e60248201527f4552433732313a20617070726f76652063616c6c6572206973206e6f7420746f60448201527f6b656e206f776e6572206e6f7220617070726f76656420666f7220616c6c00006064820152608401610b45565b610be68383612e1b565b505050565b610bf3612e89565b3381610bff8282612ecf565b610c1b5760405162461bcd60e51b8152600401610b4590614e0b565b610c2483612f4d565b50610be6338461305c565b610c37612e89565b604051630852cd8d60e31b8152600481018290526000907f00000000000000000000000000000000000000000000000000000000000000006001600160a01b0316906342966c68906024016040805180830381600087803b158015610c9b57600080fd5b505af1158015610caf573d6000803e3d6000fd5b505050506040513d601f19601f82011682018060405250810190610cd39190614e5b565b6000858152600d60205260409020600281015491935091508211610d105781816002016000828254610d059190614e7f565b90915550610d3c9050565b600060028201819055610d239083614e7f565b816001016000828254610d369190614e7f565b90915550505b50505050565b600080600e548510610eb957600854610d5b9084614dc2565b60405163de1cf16960e01b8152600481018690526127109081906001600160a01b037f0000000000000000000000000000000000000000000000000000000000000000169063de1cf1699060240160206040518083038186803b158015610dc157600080fd5b505afa158015610dd5573d6000803e3d6000fd5b505050506040513d601f19601f82011682018060405250810190610df99190614e96565b610e039190614dc2565b610e0d9190614dc2565b610e179190614df7565b60405163db6583e360e01b8152600481018690529092507f00000000000000000000000000000000000000000000000000000000000000006001600160a01b03169063db6583e39060240160206040518083038186803b158015610e7a57600080fd5b505afa158015610e8e573d6000803e3d6000fd5b505050506040513d601f19601f82011682018060405250810190610eb29190614e96565b905061106e565b6000858152600d60209081526040918290208251608081018452815481526001820154928101929092526002810154928201929092526003909101546060820152600854610f079085614dc2565b60405163de1cf16960e01b8152600481018790526127109081906001600160a01b037f0000000000000000000000000000000000000000000000000000000000000000169063de1cf1699060240160206040518083038186803b158015610f6d57600080fd5b505afa158015610f81573d6000803e3d6000fd5b505050506040513d601f19601f82011682018060405250810190610fa59190614e96565b610faf9190614dc2565b610fb99190614dc2565b610fc39190614df7565b8151610fcf9190614e7f565b60405163db6583e360e01b8152600481018790529093507f00000000000000000000000000000000000000000000000000000000000000006001600160a01b03169063db6583e39060240160206040518083038186803b15801561103257600080fd5b505afa158015611046573d6000803e3d6000fd5b505050506040513d601f19601f8201168201806040525081019061106a9190614e96565b9150505b935093915050565b61107e612e89565b338261108a8282612ecf565b6110a65760405162461bcd60e51b8152600401610b4590614e0b565b6110af84612f4d565b50610d3c3385856131bb565b6110c3612dbb565b600c80549082905560408051828152602081018490527f249ce3aa19ca005081b3e7143ee5f00395d8ac801e1fd05ec532b214a56420f99101610ac4565b60008061110c612e89565b33846111188282612ecf565b6111345760405162461bcd60e51b8152600401610b4590614e0b565b3361113e87612f4d565b5061114a8188886131bb565b61117f6001600160a01b037f0000000000000000000000000000000000000000000000000000000000000000168230896133e7565b60405163423e797960e01b81526001600160a01b038981166004830152602482018890527f0000000000000000000000000000000000000000000000000000000000000000169063423e7979906044015b6040805180830381600087803b1580156111e957600080fd5b505af11580156111fd573d6000803e3d6000fd5b505050506040513d601f19601f820116820180604052508101906112219190614e5b565b90999098509650505050505050565b61123a3382612ecf565b6112565760405162461bcd60e51b8152600401610b4590614eaf565b610be6838383613452565b611269612dbb565b611272816135ee565b50565b61127d612e89565b61128683612f4d565b50611292338484613648565b610be6338483613765565b6000806112a8612e89565b6127106112b3612921565b106112d05760405162461bcd60e51b8152600401610b4590614efd565b6113057f00000000000000000000000000000000000000000000000000000000000000006001600160a01b03163330866133e7565b604051631957dd9f60e21b8152306004820152602481018490527f00000000000000000000000000000000000000000000000000000000000000006001600160a01b03169063655f767c90604401602060405180830381600087803b15801561136d57600080fd5b505af1158015611381573d6000803e3d6000fd5b505050506040513d601f19601f820116820180604052508101906113a59190614e96565b604051632baf2acb60e01b81526001600160a01b03868116600483015260248201869052604482018390529192507f000000000000000000000000000000000000000000000000000000000000000090911690632baf2acb90606401602060405180830381600087803b15801561141b57600080fd5b505af115801561142f573d6000803e3d6000fd5b505050506040513d601f19601f820116820180604052508101906114539190614e96565b91509250929050565b6000600e548410611538576008546114749083614dc2565b6040516375c2f59560e01b8152600481018590526127109081906001600160a01b037f000000000000000000000000000000000000000000000000000000000000000016906375c2f595906024015b60206040518083038186803b1580156114db57600080fd5b505afa1580156114ef573d6000803e3d6000fd5b505050506040513d601f19601f820116820180604052508101906115139190614e96565b61151d9190614dc2565b6115279190614dc2565b6115319190614df7565b9050611671565b6000848152600d6020908152604091829020825160808101845281548082526001830154938201939093526002820154938101939093526003015460608301526008546115859085614dc2565b82604001518360200151612710807f00000000000000000000000000000000000000000000000000000000000000006001600160a01b03166375c2f5958b6040518263ffffffff1660e01b81526004016115e191815260200190565b60206040518083038186803b1580156115f957600080fd5b505afa15801561160d573d6000803e3d6000fd5b505050506040513d601f19601f820116820180604052508101906116319190614e96565b61163b9190614dc2565b6116459190614dc2565b61164f9190614f42565b6116599190614f42565b6116639190614df7565b61166d9190614f42565b9150505b9392505050565b6000818152600d602090815260408083208151608081018352815480825260018301549482019490945260028201549281019290925260030154606082015260085490916116c69190614dc2565b61271080836040015184602001516116de9190614f42565b6116e89190614dc2565b6116f29190614dc2565b6116719190614df7565b600080600e54851061171557600854610d5b9084614dc2565b6000858152600d6020908152604091829020825160808101845281548082526001830154938201939093526002820154938101939093526003015460608301526008546117629086614dc2565b82604001518360200151612710807f00000000000000000000000000000000000000000000000000000000000000006001600160a01b031663de1cf1698c6040518263ffffffff1660e01b81526004016117be91815260200190565b60206040518083038186803b1580156117d657600080fd5b505afa1580156117ea573d6000803e3d6000fd5b505050506040513d601f19601f8201168201806040525081019061180e9190614e96565b6118189190614dc2565b6118229190614dc2565b61182c9190614f42565b6118369190614f42565b6118409190614df7565b610fcf9190614f42565b611852612dbb565b61185a6139ec565b565b6000600e5484106118c7576008546118749083614dc2565b604051632694d5e760e01b8152600481018590526127109081906001600160a01b037f00000000000000000000000000000000000000000000000000000000000000001690632694d5e7906024016114c3565b6000848152600d6020908152604091829020825160808101845281548082526001830154938201939093526002820154938101939093526003015460608301526008546119149085614dc2565b82604001518360200151612710807f00000000000000000000000000000000000000000000000000000000000000006001600160a01b0316632694d5e78b6040518263ffffffff1660e01b81526004016115e191815260200190565b611978612dbb565b61185a613a35565b61198981612f4d565b5061199381611a9c565b156119ec5760405162461bcd60e51b815260206004820152602360248201527f4344503a3a6c69717569646174653a20434450206d75737420626520756e736160448201526233329760e91b6064820152608401610b45565b611272338261305c565b610be68383836040518060200160405280600081525061271c565b611a19612e89565b3382611a258282612ecf565b611a415760405162461bcd60e51b8152600401610b4590614e0b565b611a4a84612f4d565b50610d3c338585613765565b611a5e612dbb565b600a80549082905560408051828152602081018490527fdbbbb176683582b710ef3349793b8d62658724a9d9b54deccf193c4b0aa90c4c9101610ac4565b6000612710611aaa8361277f565b1092915050565b600080611abc612e89565b336000611ac886611678565b9050611ad5828787613a87565b611ade86612f4d565b506000611aed87836000612800565b9050611afa8388836131bb565b611b2f6001600160a01b037f0000000000000000000000000000000000000000000000000000000000000000168430896133e7565b60405163423e797960e01b81526001600160a01b038981166004830152602482018390527f0000000000000000000000000000000000000000000000000000000000000000169063423e7979906044016111d0565b6000600e548410611c5b576001600160a01b037f00000000000000000000000000000000000000000000000000000000000000001663d5383990611bca61271080614dc2565b8460085487611bd99190614dc2565b611be39190614dc2565b611bed9190614df7565b6040518263ffffffff1660e01b8152600401611c0b91815260200190565b60206040518083038186803b158015611c2357600080fd5b505afa158015611c37573d6000803e3d6000fd5b505050506040513d601f19601f820116820180604052508101906115319190614e96565b6000848152600d6020908152604091829020825160808101845281548152600182015492810183905260028201549381018490526003909101546060820152916001600160a01b037f0000000000000000000000000000000000000000000000000000000000000000169163d538399091611cd591614f42565b611ce161271080614dc2565b86600854898760000151611cf59190614f42565b611cff9190614dc2565b611d099190614dc2565b611d139190614df7565b611d1d9190614f42565b6040518263ffffffff1660e01b8152600401611d3b91815260200190565b60206040518083038186803b158015611d5357600080fd5b505afa158015611d67573d6000803e3d6000fd5b505050506040513d601f19601f8201168201806040525081019061166d9190614e96565b6000818152600260205260408120546001600160a01b0316806109875760405162461bcd60e51b8152602060048201526018602482015277115490cdcc8c4e881a5b9d985b1a59081d1bdad95b88125160421b6044820152606401610b45565b6000611df5612e89565b3383611e018282612ecf565b611e1d5760405162461bcd60e51b8152600401610b4590614e0b565b612710611e28612921565b10611e455760405162461bcd60e51b8152600401610b4590614efd565b33611e7b7f00000000000000000000000000000000000000000000000000000000000000006001600160a01b03168230886133e7565b604051631957dd9f60e21b81526001600160a01b038881166004830152602482018790527f0000000000000000000000000000000000000000000000000000000000000000169063655f767c90604401602060405180830381600087803b158015611ee557600080fd5b505af1158015611ef9573d6000803e3d6000fd5b505050506040513d601f19601f82011682018060405250810190611f1d9190614e96565b93506000611f2a87611678565b9050611f3587612f4d565b50611f41828887613648565b6000611f4f88836000612cba565b9050611f5c838983613765565b50505050509392505050565b6000611f72612e89565b612710611f7d612921565b10611f9a5760405162461bcd60e51b8152600401610b4590614efd565b611fcf7f00000000000000000000000000000000000000000000000000000000000000006001600160a01b03163330856133e7565b604051631957dd9f60e21b81526001600160a01b038581166004830152602482018490527f0000000000000000000000000000000000000000000000000000000000000000169063655f767c90604401602060405180830381600087803b15801561203957600080fd5b505af115801561204d573d6000803e3d6000fd5b505050506040513d601f19601f820116820180604052508101906120719190614e96565b905061207c83612f4d565b50611671338483613648565b60006001600160a01b0382166120f25760405162461bcd60e51b815260206004820152602960248201527f4552433732313a2061646472657373207a65726f206973206e6f7420612076616044820152683634b21037bbb732b960b91b6064820152608401610b45565b506001600160a01b031660009081526003602052604090205490565b612116612dbb565b61185a6000613b39565b6000600e548510612207576001600160a01b037f000000000000000000000000000000000000000000000000000000000000000016638a87921961216661271080614dc2565b85600854886121759190614dc2565b61217f9190614dc2565b6121899190614df7565b846040518363ffffffff1660e01b81526004016121b0929190918252602082015260400190565b60206040518083038186803b1580156121c857600080fd5b505afa1580156121dc573d6000803e3d6000fd5b505050506040513d601f19601f820116820180604052508101906122009190614e96565b9050612340565b6000858152600d6020908152604091829020825160808101845281548152600182015492810183905260028201549381018490526003909101546060820152916001600160a01b037f00000000000000000000000000000000000000000000000000000000000000001691638a8792199161228191614f42565b61228d61271080614dc2565b600854855161229d908b90614f42565b6122a7908a614dc2565b6122b19190614dc2565b6122bb9190614df7565b6122c59190614e7f565b856040518363ffffffff1660e01b81526004016122ec929190918252602082015260400190565b60206040518083038186803b15801561230457600080fd5b505afa158015612318573d6000803e3d6000fd5b505050506040513d601f19601f8201168201806040525081019061233c9190614e96565b9150505b949350505050565b604051630571ac8b60e41b81526001600160a01b037f0000000000000000000000000000000000000000000000000000000000000000811660048301527f0000000000000000000000000000000000000000000000000000000000000000169063571ac8b090602401600060405180830381600087803b1580156123cb57600080fd5b505af11580156123df573d6000803e3d6000fd5b5050604051630571ac8b60e41b81526001600160a01b037f0000000000000000000000000000000000000000000000000000000000000000811660048301527f000000000000000000000000000000000000000000000000000000000000000016925063571ac8b09150602401600060405180830381600087803b15801561246657600080fd5b505af1158015610d3c573d6000803e3d6000fd5b612482612dbb565b61185a613b93565b600061098782612f4d565b60606001805461099c90614d71565b6124ac612e89565b33836124b88282612ecf565b6124d45760405162461bcd60e51b8152600401610b4590614e0b565b6124df338686613a87565b6124e885612f4d565b506124f43386856131bb565b5050505050565b6000600e548410612541576001600160a01b037f00000000000000000000000000000000000000000000000000000000000000001663d5aa33d2611bca61271080614dc2565b6000848152600d6020908152604091829020825160808101845281548152600182015492810183905260028201549381018490526003909101546060820152916001600160a01b037f0000000000000000000000000000000000000000000000000000000000000000169163d5aa33d291906125bf61271080614dc2565b60085486518991906125d1908c614f42565b6125db9190614dc2565b6125e59190614dc2565b6125ef9190614df7565b611d139190614f42565b612604338383613bd0565b5050565b6000600e548410612673576008546126209083614dc2565b60405163de1cf16960e01b8152600481018590526127109081906001600160a01b037f0000000000000000000000000000000000000000000000000000000000000000169063de1cf169906024016114c3565b6000848152600d6020908152604091829020825160808101845281548082526001830154938201939093526002820154938101939093526003015460608301526008546126c09085614dc2565b82604001518360200151612710807f00000000000000000000000000000000000000000000000000000000000000006001600160a01b031663de1cf1698b6040518263ffffffff1660e01b81526004016115e191815260200190565b6127263383612ecf565b6127425760405162461bcd60e51b8152600401610b4590614eaf565b610d3c84848484613c9f565b6000612758612e89565b3361276281613cd2565b915061276f818385613a87565b61277882612f4d565b5050919050565b6000818152600d6020908152604080832081516080810183528154808252600183015494820194909452600282015492810192909252600301546060820152600954600854919290916127d191614dc2565b6127db9190614dc2565b61271080612710846040015185602001516127f69190614f42565b6116de9190614dc2565b6000838152600d60209081526040808320815160808101835281548152600182015493810184905260028201549281018390526003909101546060820152916128499190614f42565b61285561271080614dc2565b856008548685600001516128699190614f42565b6128739190614dc2565b61287d9190614dc2565b6128879190614df7565b61166d9190614e7f565b606061289c82612d5c565b60006128b360408051602081019091526000815290565b905060008151116128d35760405180602001604052806000815250611671565b806128dd84613d57565b6040516020016128ee929190614f5a565b6040516020818303038152906040529392505050565b61290c612e89565b61291582612f4d565b50612604338383613648565b6000600f54600014158015612937575060085415155b8015612944575060095415155b1561298457600954600854600f5461295c9190614dc2565b6129669190614dc2565b6127108061271060105461297a9190614dc2565b610a699190614dc2565b90565b6000600e5485106129cd576001600160a01b037f000000000000000000000000000000000000000000000000000000000000000016638a87921961216661271080614dc2565b6000858152600d6020908152604091829020825160808101845281548152600182015492810183905260028201549381018490526003909101546060820152916001600160a01b037f00000000000000000000000000000000000000000000000000000000000000001691638a8792199190612a4b61271080614dc2565b60085486518a9190612a5d908d614f42565b612a679190614dc2565b612a719190614dc2565b612a7b9190614df7565b612a859190614f42565b6122c59190614f42565b612a97612e89565b612aa2338383613a87565b610be682612f4d565b6000612ab5612e89565b33612abf81613cd2565b9150612acc818386613a87565b612ad582612f4d565b50612ae18183856131bb565b5092915050565b6007546001600160a01b0316336001600160a01b031614612b715760405162461bcd60e51b815260206004820152603f60248201527f4f7261636c653a3a6f6e6c794f7261636c654665656465723a2053656e64657260448201527f206d7573742062652073616d65206173205f6f7261636c654665656465722e006064820152608401610b45565b600880549083905560408051828152602081018590527f00000000000000000000000000000000000000000000000000000000000000006001600160a01b0316917f7c3bda8adcb9df1edd0059da351d966538bcc99f067c0770872170ac97fb6887910160405180910390a2505050565b612bea612dbb565b6001600160a01b038116612c4f5760405162461bcd60e51b815260206004820152602660248201527f4f776e61626c653a206e6577206f776e657220697320746865207a65726f206160448201526564647265737360d01b6064820152608401610b45565b61127281613b39565b612c60612dbb565b600b80546001600160a01b038381166001600160a01b031983168117909355604080519190921680825260208201939093527f41d2755f00068d89c23ebc6f1e73ce119a6236a44517ca061f544a3f91c9bca49101610ac4565b6000838152600d6020908152604080832081516080810183528154815260018201549381018490526002820154928101839052600390910154606082015291859161271091612d0a908790614e7f565b612d149190614f42565b612d1e9190614dc2565b612d289190614df7565b60085482516127109161287d91614dc2565b6000612d44612e89565b612d4d33613cd2565b9050612d5881612f4d565b5090565b6000818152600260205260409020546001600160a01b03166112725760405162461bcd60e51b8152602060048201526018602482015277115490cdcc8c4e881a5b9d985b1a59081d1bdad95b88125160421b6044820152606401610b45565b6006546001600160a01b0361010090910416331461185a5760405162461bcd60e51b815260206004820181905260248201527f4f776e61626c653a2063616c6c6572206973206e6f7420746865206f776e65726044820152606401610b45565b600081815260046020526040902080546001600160a01b0319166001600160a01b0384169081179091558190612e5082611d8b565b6001600160a01b03167f8c5be1e5ebec7d5bd14f71427d1e84f3dd0314c0f7b2291e5b200ac8c7c3b92560405160405180910390a45050565b60065460ff161561185a5760405162461bcd60e51b815260206004820152601060248201526f14185d5cd8589b194e881c185d5cd95960821b6044820152606401610b45565b600080612edb83611d8b565b9050806001600160a01b0316846001600160a01b03161480612f2257506001600160a01b0380821660009081526005602090815260408083209388168352929052205460ff165b806123405750836001600160a01b0316612f3b84610a1f565b6001600160a01b031614949350505050565b6000818152600d6020526040812060038101546002820154429084612f7661271061016d614dc2565b612f81906018614dc2565b612f8c90603c614dc2565b612f9790603c614dc2565b600c54612fa48686614e7f565b8760010154612fb39190614dc2565b612fbd9190614dc2565b612fc79190614df7565b955085856002016000828254612fdd9190614f42565b925050819055508560116000828254612ff69190614f42565b90915550505060038401829055600284015460408051838152602081018390529081018590526060810184905287907f058060763f0c6ae3b30d3624dbb6899601ed67b215a0b7591707778c7218db2f9060800160405180910390a25050505050919050565b6000818152600d60205260409020600181015415158061307f5750600281015415155b1561313f5761313f83837f00000000000000000000000000000000000000000000000000000000000000006001600160a01b03166333812251856002015486600101546130cc9190614f42565b6040518263ffffffff1660e01b81526004016130ea91815260200190565b60206040518083038186803b15801561310257600080fd5b505afa158015613116573d6000803e3d6000fd5b505050506040513d601f19601f8201168201806040525081019061313a9190614e96565b613648565b8054156131555761315583838360000154613765565b61315e82613e55565b6000828152600d602052604080822082815560018101839055600281018390556003018290555183916001600160a01b038616917f684222b0069d4a2e5e0d986611cc5182d543904c4e4264bf770d4e51faefc8229190a3505050565b60405163de1cf16960e01b8152600481018290526000907f00000000000000000000000000000000000000000000000000000000000000006001600160a01b03169063de1cf1699060240160206040518083038186803b15801561321e57600080fd5b505afa158015613232573d6000803e3d6000fd5b505050506040513d601f19601f820116820180604052508101906132569190614e96565b60405163db6583e360e01b8152600481018490529091506000906001600160a01b037f0000000000000000000000000000000000000000000000000000000000000000169063db6583e39060240160206040518083038186803b1580156132bc57600080fd5b505afa1580156132d0573d6000803e3d6000fd5b505050506040513d601f19601f820116820180604052508101906132f49190614e96565b9050613301308584613ef0565b6133367f00000000000000000000000000000000000000000000000000000000000000006001600160a01b03163330846133e7565b604051630ab714fb60e11b81526001600160a01b03868116600483015260248201849052604482018390527f0000000000000000000000000000000000000000000000000000000000000000169063156e29f690606401602060405180830381600087803b1580156133a757600080fd5b505af11580156133bb573d6000803e3d6000fd5b505050506040513d601f19601f820116820180604052508101906133df9190614e96565b505050505050565b6040516001600160a01b0380851660248301528316604482015260648101829052610d3c9085906323b872dd60e01b906084015b60408051601f198184030181529190526020810180516001600160e01b03166001600160e01b031990931692909217909152614174565b826001600160a01b031661346582611d8b565b6001600160a01b0316146134c95760405162461bcd60e51b815260206004820152602560248201527f4552433732313a207472616e736665722066726f6d20696e636f72726563742060448201526437bbb732b960d91b6064820152608401610b45565b6001600160a01b03821661352b5760405162461bcd60e51b8152602060048201526024808201527f4552433732313a207472616e7366657220746f20746865207a65726f206164646044820152637265737360e01b6064820152608401610b45565b613536600082612e1b565b6001600160a01b038316600090815260036020526040812080546001929061355f908490614e7f565b90915550506001600160a01b038216600090815260036020526040812080546001929061358d908490614f42565b909155505060008181526002602052604080822080546001600160a01b0319166001600160a01b0386811691821790925591518493918716917fddf252ad1be2c89b69c2b068fc378daa952ba7f163c4a11628f55a4df523b3ef91a4505050565b600780546001600160a01b038381166001600160a01b031983168117909355604080519190921680825260208201939093527f6b2e9b3836edd552e454031d349dbf020544e4123c344f1ddb0a7a9a336adef99101610ac4565b3361367e7f00000000000000000000000000000000000000000000000000000000000000006001600160a01b03168230856133e7565b6040516301e9a69560e41b81523060048201526024810183905260009081906001600160a01b037f00000000000000000000000000000000000000000000000000000000000000001690631e9a6950906044016040805180830381600087803b1580156136ea57600080fd5b505af11580156136fe573d6000803e3d6000fd5b505050506040513d601f19601f820116820180604052508101906137229190614e5b565b91509150613731308684614246565b6133df6001600160a01b037f000000000000000000000000000000000000000000000000000000000000000016878361450f565b6000600d600084815260200190815260200160002090506137bf604051806040016040528060138152602001725f77697468647261773a20257320257320257360681b81525082600001548360010154846002015461453f565b6137ee6040518060400160405280600d81526020016c5f77697468647261773a20257360981b81525083614588565b818160000160008282546138029190614e7f565b9250508190555081600f600082825461381b9190614e7f565b9091555061385590506001600160a01b037f000000000000000000000000000000000000000000000000000000000000000016858461450f565b613898604051806040016040528060138152602001725f77697468647261773a20257320257320257360681b81525082600001548360010154846002015461453f565b6138cf6040518060400160405280600d81526020016c5f77697468647261773a20257360981b8152506138ca8561277f565b614588565b6138d883611a9c565b61393b5760405162461bcd60e51b815260206004820152602e60248201527f4344503a3a5f77697468647261773a20434450206f7065726174696f6e20657860448201526d31b2b2b2399036b0bc10262a2b1760911b6064820152608401610b45565b80541580613947575060015b6139a25760405162461bcd60e51b815260206004820152602660248201527f4344503a3a5f77697468647261773a204e6f7420656e6f75676820636f6c6c616044820152653a32b930b61760d11b6064820152608401610b45565b82846001600160a01b03167ff279e6a1f5e320cca91135676d9cb6e44ca8a08c0b88342bcdb1144f6511b568846040516139de91815260200190565b60405180910390a350505050565b60065460ff1661185a5760405162461bcd60e51b815260206004820152601460248201527314185d5cd8589b194e881b9bdd081c185d5cd95960621b6044820152606401610b45565b613a3d6139ec565b6006805460ff191690557f5db9ee0a495bf2e6ff9c91a7834c1ba4fdd244a5e8aa4e537bd38aeae4b073aa335b6040516001600160a01b03909116815260200160405180910390a1565b6000828152600d60205260408120805490918391839190613aa9908490614f42565b9250508190555081600f6000828254613ac29190614f42565b90915550613afd90506001600160a01b037f0000000000000000000000000000000000000000000000000000000000000000168530856133e7565b82846001600160a01b03167f90890809c654f11d6e72a28fa60149770a0d11ec6c92319d6ceb2bb0a4ea1a15846040516139de91815260200190565b600680546001600160a01b03838116610100818102610100600160a81b031985161790945560405193909204169182907f8be0079c531659141344cd1fd0a4f28419497f9722a3daafe3b4186f6b6457e090600090a35050565b613b9b612e89565b6006805460ff191660011790557f62e78cea01bee320cd4e420270b5ea74000d11b0c9f74754ebdbfc544b05a258613a6a3390565b816001600160a01b0316836001600160a01b03161415613c325760405162461bcd60e51b815260206004820152601960248201527f4552433732313a20617070726f766520746f2063616c6c6572000000000000006044820152606401610b45565b6001600160a01b03838116600081815260056020908152604080832094871680845294825291829020805460ff191686151590811790915591519182527f17307eab39ab6107e8899845ad3d59bd9653f200f220920489ca2b5937696c31910160405180910390a3505050565b613caa848484613452565b613cb6848484846145cd565b610d3c5760405162461bcd60e51b8152600401610b4590614f89565b6000612710613cdf612921565b10613cfc5760405162461bcd60e51b8152600401610b4590614efd565b600e8054906000613d0c83614fdb565b919050559050613d1c82826146d7565b60405181906001600160a01b038416907f50042401acb675fedd6dd939fccc629832ce60fa4185df25c01b20e8def195bf90600090a3919050565b606081613d7b5750506040805180820190915260018152600360fc1b602082015290565b8160005b8115613da55780613d8f81614fdb565b9150613d9e9050600a83614df7565b9150613d7f565b60008167ffffffffffffffff811115613dc057613dc0614c4c565b6040519080825280601f01601f191660200182016040528015613dea576020820181803683370190505b5090505b841561234057613dff600183614e7f565b9150613e0c600a86614ff6565b613e17906030614f42565b60f81b818381518110613e2c57613e2c61500a565b60200101906001600160f81b031916908160001a905350613e4e600a86614df7565b9450613dee565b6000613e6082611d8b565b9050613e6d600083612e1b565b6001600160a01b0381166000908152600360205260408120805460019290613e96908490614e7f565b909155505060008281526002602052604080822080546001600160a01b0319169055518391906001600160a01b038416907fddf252ad1be2c89b69c2b068fc378daa952ba7f163c4a11628f55a4df523b3ef908390a45050565b612710613efb612921565b10613f185760405162461bcd60e51b8152600401610b4590614efd565b6000828152600d6020526040812060018101805491928492613f3b908490614f42565b925050819055508160106000828254613f549190614f42565b90915550506040516308934a5f60e31b81526001600160a01b038581166004830152602482018490527f0000000000000000000000000000000000000000000000000000000000000000169063449a52f890604401600060405180830381600087803b158015613fc357600080fd5b505af1158015613fd7573d6000803e3d6000fd5b50505050613fe483611a9c565b6140455760405162461bcd60e51b815260206004820152602c60248201527f4344503a3a5f626f72726f773a20434450206f7065726174696f6e206578636560448201526b32b2399036b0bc10262a2b1760a11b6064820152608401610b45565b600a547f00000000000000000000000000000000000000000000000000000000000000006001600160a01b03166318160ddd6040518163ffffffff1660e01b815260040160206040518083038186803b1580156140a157600080fd5b505afa1580156140b5573d6000803e3d6000fd5b505050506040513d601f19601f820116820180604052508101906140d99190614e96565b11156141385760405162461bcd60e51b815260206004820152602860248201527f4344503a3a5f626f72726f773a2043616e6e6f7420626f72726f772053494e2060448201526730b73cb6b7b9329760c11b6064820152608401610b45565b82846001600160a01b03167fe1979fe4c35e0cef342fef5668e2c8e7a7e9f5d5d1ca8fee0ac6c427fa4153af846040516139de91815260200190565b60006141c9826040518060400160405280602081526020017f5361666545524332303a206c6f772d6c6576656c2063616c6c206661696c6564815250856001600160a01b03166146f19092919063ffffffff16565b805190915015610be657808060200190518101906141e79190615020565b610be65760405162461bcd60e51b815260206004820152602a60248201527f5361666545524332303a204552433230206f7065726174696f6e20646964206e6044820152691bdd081cdd58d8d9595960b21b6064820152608401610b45565b6000828152600d60205260408120600b549091906001600160a01b031661426d578461427a565b600b546001600160a01b03165b905082826002015410614338578282600201600082825461429b9190614e7f565b9250508190555082601160008282546142b49190614e7f565b90915550506001600160a01b038516301415614303576142fe6001600160a01b037f000000000000000000000000000000000000000000000000000000000000000016828561450f565b6144c4565b6142fe6001600160a01b037f0000000000000000000000000000000000000000000000000000000000000000168683866133e7565b6002820154156144c4576001600160a01b03851630141561439357600282015461438e906001600160a01b037f00000000000000000000000000000000000000000000000000000000000000001690839061450f565b6143d0565b60028201546143d0906001600160a01b037f00000000000000000000000000000000000000000000000000000000000000001690879084906133e7565b60028201546143df9084614e7f565b8260010160008282546143f29190614e7f565b909155505060028201546144069084614e7f565b601060008282546144179190614e7f565b925050819055507f00000000000000000000000000000000000000000000000000000000000000006001600160a01b03166379cc67908684600201548661445e9190614e7f565b6040516001600160e01b031960e085901b1681526001600160a01b0390921660048301526024820152604401600060405180830381600087803b1580156144a457600080fd5b505af11580156144b8573d6000803e3d6000fd5b50506000600285015550505b83856001600160a01b03167f77c6871227e5d2dec8dadd5354f78453203e22e669cd0ec4c19d9a8c5edb31d08560405161450091815260200190565b60405180910390a35050505050565b6040516001600160a01b038316602482015260448101829052610be690849063a9059cbb60e01b9060640161341b565b610d3c84848484604051602401614559949392919061503d565b60408051601f198184030181529190526020810180516001600160e01b031663a7a8785360e01b179052614700565b612604828260405160240161459e92919061506c565b60408051601f198184030181529190526020810180516001600160e01b0316632d839cb360e21b179052614700565b60006001600160a01b0384163b156146cf57604051630a85bd0160e11b81526001600160a01b0385169063150b7a029061461190339089908890889060040161508e565b602060405180830381600087803b15801561462b57600080fd5b505af192505050801561465b575060408051601f3d908101601f19168201909252614658918101906150cb565b60015b6146b5573d808015614689576040519150601f19603f3d011682016040523d82523d6000602084013e61468e565b606091505b5080516146ad5760405162461bcd60e51b8152600401610b4590614f89565b805181602001fd5b6001600160e01b031916630a85bd0160e11b149050612340565b506001612340565b612604828260405180602001604052806000815250614721565b60606123408484600085614754565b80516a636f6e736f6c652e6c6f67602083016000808483855afa5050505050565b61472b8383614885565b61473860008484846145cd565b610be65760405162461bcd60e51b8152600401610b4590614f89565b6060824710156147b55760405162461bcd60e51b815260206004820152602660248201527f416464726573733a20696e73756666696369656e742062616c616e636520666f6044820152651c8818d85b1b60d21b6064820152608401610b45565b6001600160a01b0385163b61480c5760405162461bcd60e51b815260206004820152601d60248201527f416464726573733a2063616c6c20746f206e6f6e2d636f6e74726163740000006044820152606401610b45565b600080866001600160a01b0316858760405161482891906150e8565b60006040518083038185875af1925050503d8060008114614865576040519150601f19603f3d011682016040523d82523d6000602084013e61486a565b606091505b509150915061487a8282866149c7565b979650505050505050565b6001600160a01b0382166148db5760405162461bcd60e51b815260206004820181905260248201527f4552433732313a206d696e7420746f20746865207a65726f20616464726573736044820152606401610b45565b6000818152600260205260409020546001600160a01b0316156149405760405162461bcd60e51b815260206004820152601c60248201527f4552433732313a20746f6b656e20616c7265616479206d696e746564000000006044820152606401610b45565b6001600160a01b0382166000908152600360205260408120805460019290614969908490614f42565b909155505060008181526002602052604080822080546001600160a01b0319166001600160a01b03861690811790915590518392907fddf252ad1be2c89b69c2b068fc378daa952ba7f163c4a11628f55a4df523b3ef908290a45050565b606083156149d6575081611671565b8251156149e65782518084602001fd5b8160405162461bcd60e51b8152600401610b459190614a8b565b6001600160e01b03198116811461127257600080fd5b600060208284031215614a2857600080fd5b813561167181614a00565b60005b83811015614a4e578181015183820152602001614a36565b83811115610d3c5750506000910152565b60008151808452614a77816020860160208601614a33565b601f01601f19169290920160200192915050565b6020815260006116716020830184614a5f565b600060208284031215614ab057600080fd5b5035919050565b80356001600160a01b0381168114614ace57600080fd5b919050565b60008060408385031215614ae657600080fd5b614aef83614ab7565b946020939093013593505050565b60008060408385031215614b1057600080fd5b50508035926020909101359150565b600080600060608486031215614b3457600080fd5b505081359360208301359350604090920135919050565b600080600060608486031215614b6057600080fd5b614b6984614ab7565b95602085013595506040909401359392505050565b600080600060608486031215614b9357600080fd5b614b9c84614ab7565b9250614baa60208501614ab7565b9150604084013590509250925092565b600060208284031215614bcc57600080fd5b61167182614ab7565b60008060008060808587031215614beb57600080fd5b5050823594602084013594506040840135936060013592509050565b801515811461127257600080fd5b60008060408385031215614c2857600080fd5b614c3183614ab7565b91506020830135614c4181614c07565b809150509250929050565b634e487b7160e01b600052604160045260246000fd5b60008060008060808587031215614c7857600080fd5b614c8185614ab7565b9350614c8f60208601614ab7565b925060408501359150606085013567ffffffffffffffff80821115614cb357600080fd5b818701915087601f830112614cc757600080fd5b813581811115614cd957614cd9614c4c565b604051601f8201601f19908116603f01168101908382118183101715614d0157614d01614c4c565b816040528281528a6020848701011115614d1a57600080fd5b82602086016020830137600060208483010152809550505050505092959194509250565b60008060408385031215614d5157600080fd5b614d5a83614ab7565b9150614d6860208401614ab7565b90509250929050565b600181811c90821680614d8557607f821691505b60208210811415614da657634e487b7160e01b600052602260045260246000fd5b50919050565b634e487b7160e01b600052601160045260246000fd5b6000816000190483118215151615614ddc57614ddc614dac565b500290565b634e487b7160e01b600052601260045260246000fd5b600082614e0657614e06614de1565b500490565b60208082526030908201527f4344503a3a6f6e6c79436470417070726f7665644f724f776e65723a204e6f7460408201526f1030903b30b634b21031b0b63632b91760811b606082015260800190565b60008060408385031215614e6e57600080fd5b505080516020909101519092909150565b600082821015614e9157614e91614dac565b500390565b600060208284031215614ea857600080fd5b5051919050565b6020808252602e908201527f4552433732313a2063616c6c6572206973206e6f7420746f6b656e206f776e6560408201526d1c881b9bdc88185c1c1c9bdd995960921b606082015260800190565b60208082526025908201527f4344503a3a6f6e6c79476c6f62616c6c794865616c7468793a204e6f7420686560408201526430b63a3c9760d91b606082015260800190565b60008219821115614f5557614f55614dac565b500190565b60008351614f6c818460208801614a33565b835190830190614f80818360208801614a33565b01949350505050565b60208082526032908201527f4552433732313a207472616e7366657220746f206e6f6e20455243373231526560408201527131b2b4bb32b91034b6b83632b6b2b73a32b960711b606082015260800190565b6000600019821415614fef57614fef614dac565b5060010190565b60008261500557615005614de1565b500690565b634e487b7160e01b600052603260045260246000fd5b60006020828403121561503257600080fd5b815161167181614c07565b6080815260006150506080830187614a5f565b6020830195909552506040810192909252606090910152919050565b60408152600061507f6040830185614a5f565b90508260208301529392505050565b6001600160a01b03858116825284166020820152604081018390526080606082018190526000906150c190830184614a5f565b9695505050505050565b6000602082840312156150dd57600080fd5b815161167181614a00565b600082516150fa818460208701614a33565b919091019291505056fea26469706673582212204e926297c893afba3bec6c09443bd9c0a570624c81f29eb48626cf9385c1275264736f6c63430008090033206d757374206265206e6f6e7a65726f2e0000000000000000000000000000004e6f6e7a65726f3a3a6e6f6e7a65726f416464726573733a204163636f756e74",
  "linkReferences": {},
  "deployedLinkReferences": {}
}