{
  "_format": "hh-sol-artifact-1",
  "contractName": "FoxFarm",
  "sourceName": "contracts/FoxFarm.sol",
  "abi": [
    {
      "inputs": [
        {
          "internalType": "address",
          "name": "oracleFeeder_",
          "type": "address"
        },
        {
          "internalType": "address",
          "name": "feeTo_",
          "type": "address"
        },
        {
          "internalType": "address",
          "name": "collateralToken_",
          "type": "address"
        },
        {
          "internalType": "address",
          "name": "debtToken_",
          "type": "address"
        },
        {
          "internalType": "address",
          "name": "shareToken_",
          "type": "address"
        },
        {
          "internalType": "address",
          "name": "stableToken_",
          "type": "address"
        },
        {
          "internalType": "address",
          "name": "coupon_",
          "type": "address"
        },
        {
          "internalType": "uint256",
          "name": "maxLTV_",
          "type": "uint256"
        },
        {
          "internalType": "uint256",
          "name": "cap_",
          "type": "uint256"
        },
        {
          "internalType": "uint256",
          "name": "feeRatio_",
          "type": "uint256"
        }
      ],
      "stateMutability": "nonpayable",
      "type": "constructor"
    },
    {
      "anonymous": false,
      "inputs": [
        {
          "indexed": true,
          "internalType": "address",
          "name": "owner",
          "type": "address"
        },
        {
          "indexed": true,
          "internalType": "address",
          "name": "approved",
          "type": "address"
        },
        {
          "indexed": true,
          "internalType": "uint256",
          "name": "tokenId",
          "type": "uint256"
        }
      ],
      "name": "Approval",
      "type": "event"
    },
    {
      "anonymous": false,
      "inputs": [
        {
          "indexed": true,
          "internalType": "address",
          "name": "owner",
          "type": "address"
        },
        {
          "indexed": true,
          "internalType": "address",
          "name": "operator",
          "type": "address"
        },
        {
          "indexed": false,
          "internalType": "bool",
          "name": "approved",
          "type": "bool"
        }
      ],
      "name": "ApprovalForAll",
      "type": "event"
    },
    {
      "anonymous": false,
      "inputs": [
        {
          "indexed": true,
          "internalType": "address",
          "name": "account_",
          "type": "address"
        },
        {
          "indexed": true,
          "internalType": "uint256",
          "name": "id_",
          "type": "uint256"
        },
        {
          "indexed": false,
          "internalType": "uint256",
          "name": "amount",
          "type": "uint256"
        }
      ],
      "name": "Borrow",
      "type": "event"
    },
    {
      "anonymous": false,
      "inputs": [
        {
          "indexed": true,
          "internalType": "address",
          "name": "account_",
          "type": "address"
        },
        {
          "indexed": true,
          "internalType": "uint256",
          "name": "id_",
          "type": "uint256"
        }
      ],
      "name": "Close",
      "type": "event"
    },
    {
      "anonymous": false,
      "inputs": [
        {
          "indexed": true,
          "internalType": "address",
          "name": "account_",
          "type": "address"
        },
        {
          "indexed": true,
          "internalType": "uint256",
          "name": "id_",
          "type": "uint256"
        },
        {
          "indexed": false,
          "internalType": "uint256",
          "name": "amount",
          "type": "uint256"
        }
      ],
      "name": "Deposit",
      "type": "event"
    },
    {
      "anonymous": false,
      "inputs": [
        {
          "indexed": true,
          "internalType": "address",
          "name": "account_",
          "type": "address"
        },
        {
          "indexed": true,
          "internalType": "uint256",
          "name": "id_",
          "type": "uint256"
        }
      ],
      "name": "Open",
      "type": "event"
    },
    {
      "anonymous": false,
      "inputs": [
        {
          "indexed": true,
          "internalType": "address",
          "name": "previousOwner",
          "type": "address"
        },
        {
          "indexed": true,
          "internalType": "address",
          "name": "newOwner",
          "type": "address"
        }
      ],
      "name": "OwnershipTransferred",
      "type": "event"
    },
    {
      "anonymous": false,
      "inputs": [
        {
          "indexed": false,
          "internalType": "address",
          "name": "account",
          "type": "address"
        }
      ],
      "name": "Paused",
      "type": "event"
    },
    {
      "anonymous": false,
      "inputs": [
        {
          "indexed": true,
          "internalType": "address",
          "name": "account_",
          "type": "address"
        },
        {
          "indexed": true,
          "internalType": "uint256",
          "name": "id_",
          "type": "uint256"
        },
        {
          "indexed": false,
          "internalType": "uint256",
          "name": "amount",
          "type": "uint256"
        }
      ],
      "name": "Repay",
      "type": "event"
    },
    {
      "anonymous": false,
      "inputs": [
        {
          "indexed": false,
          "internalType": "uint256",
          "name": "prevCap",
          "type": "uint256"
        },
        {
          "indexed": false,
          "internalType": "uint256",
          "name": "currCap",
          "type": "uint256"
        }
      ],
      "name": "SetCap",
      "type": "event"
    },
    {
      "anonymous": false,
      "inputs": [
        {
          "indexed": false,
          "internalType": "uint256",
          "name": "prevFeeRatio",
          "type": "uint256"
        },
        {
          "indexed": false,
          "internalType": "uint256",
          "name": "currFeeRatio",
          "type": "uint256"
        }
      ],
      "name": "SetFeeRatio",
      "type": "event"
    },
    {
      "anonymous": false,
      "inputs": [
        {
          "indexed": false,
          "internalType": "address",
          "name": "prevFeeTo",
          "type": "address"
        },
        {
          "indexed": false,
          "internalType": "address",
          "name": "currFeeTo",
          "type": "address"
        }
      ],
      "name": "SetFeeTo",
      "type": "event"
    },
    {
      "anonymous": false,
      "inputs": [
        {
          "indexed": false,
          "internalType": "uint256",
          "name": "prevMaxLTV",
          "type": "uint256"
        },
        {
          "indexed": false,
          "internalType": "uint256",
          "name": "currMaxLTV",
          "type": "uint256"
        }
      ],
      "name": "SetMaxLTV",
      "type": "event"
    },
    {
      "anonymous": false,
      "inputs": [
        {
          "indexed": true,
          "internalType": "address",
          "name": "from",
          "type": "address"
        },
        {
          "indexed": true,
          "internalType": "address",
          "name": "to",
          "type": "address"
        },
        {
          "indexed": true,
          "internalType": "uint256",
          "name": "tokenId",
          "type": "uint256"
        }
      ],
      "name": "Transfer",
      "type": "event"
    },
    {
      "anonymous": false,
      "inputs": [
        {
          "indexed": false,
          "internalType": "address",
          "name": "account",
          "type": "address"
        }
      ],
      "name": "Unpaused",
      "type": "event"
    },
    {
      "anonymous": false,
      "inputs": [
        {
          "indexed": true,
          "internalType": "uint256",
          "name": "id_",
          "type": "uint256"
        },
        {
          "indexed": false,
          "internalType": "uint256",
          "name": "prevFee",
          "type": "uint256"
        },
        {
          "indexed": false,
          "internalType": "uint256",
          "name": "currFee",
          "type": "uint256"
        },
        {
          "indexed": false,
          "internalType": "uint256",
          "name": "prevTimestamp",
          "type": "uint256"
        },
        {
          "indexed": false,
          "internalType": "uint256",
          "name": "currTimestamp",
          "type": "uint256"
        }
      ],
      "name": "Update",
      "type": "event"
    },
    {
      "anonymous": false,
      "inputs": [
        {
          "indexed": false,
          "internalType": "address",
          "name": "prevOracleFeeder",
          "type": "address"
        },
        {
          "indexed": false,
          "internalType": "address",
          "name": "currOracle",
          "type": "address"
        }
      ],
      "name": "UpdateOracleFeeder",
      "type": "event"
    },
    {
      "anonymous": false,
      "inputs": [
        {
          "indexed": true,
          "internalType": "address",
          "name": "token",
          "type": "address"
        },
        {
          "indexed": false,
          "internalType": "uint256",
          "name": "prevPrice",
          "type": "uint256"
        },
        {
          "indexed": false,
          "internalType": "uint256",
          "name": "currPrice",
          "type": "uint256"
        }
      ],
      "name": "UpdatePrice",
      "type": "event"
    },
    {
      "anonymous": false,
      "inputs": [
        {
          "indexed": true,
          "internalType": "address",
          "name": "account_",
          "type": "address"
        },
        {
          "indexed": true,
          "internalType": "uint256",
          "name": "id_",
          "type": "uint256"
        },
        {
          "indexed": false,
          "internalType": "uint256",
          "name": "amount",
          "type": "uint256"
        }
      ],
      "name": "Withdraw",
      "type": "event"
    },
    {
      "inputs": [
        {
          "internalType": "address",
          "name": "to",
          "type": "address"
        },
        {
          "internalType": "uint256",
          "name": "tokenId",
          "type": "uint256"
        }
      ],
      "name": "approve",
      "outputs": [],
      "stateMutability": "nonpayable",
      "type": "function"
    },
    {
      "inputs": [
        {
          "internalType": "address",
          "name": "owner",
          "type": "address"
        }
      ],
      "name": "balanceOf",
      "outputs": [
        {
          "internalType": "uint256",
          "name": "",
          "type": "uint256"
        }
      ],
      "stateMutability": "view",
      "type": "function"
    },
    {
      "inputs": [
        {
          "internalType": "uint256",
          "name": "id_",
          "type": "uint256"
        },
        {
          "internalType": "uint256",
          "name": "amount_",
          "type": "uint256"
        }
      ],
      "name": "borrow",
      "outputs": [],
      "stateMutability": "nonpayable",
      "type": "function"
    },
    {
      "inputs": [
        {
          "internalType": "uint256",
          "name": "id_",
          "type": "uint256"
        },
        {
          "internalType": "uint256",
          "name": "ltv_",
          "type": "uint256"
        },
        {
          "internalType": "uint256",
          "name": "collateralAmount_",
          "type": "uint256"
        }
      ],
      "name": "borrowDebtAmountToLTV",
      "outputs": [
        {
          "internalType": "uint256",
          "name": "debtAmount_",
          "type": "uint256"
        }
      ],
      "stateMutability": "view",
      "type": "function"
    },
    {
      "inputs": [
        {
          "internalType": "address",
          "name": "account_",
          "type": "address"
        },
        {
          "internalType": "uint256",
          "name": "amount_",
          "type": "uint256"
        }
      ],
      "name": "buybackCoupon",
      "outputs": [
        {
          "internalType": "uint256",
          "name": "cid_",
          "type": "uint256"
        },
        {
          "internalType": "uint256",
          "name": "debtAmount_",
          "type": "uint256"
        }
      ],
      "stateMutability": "nonpayable",
      "type": "function"
    },
    {
      "inputs": [
        {
          "internalType": "uint256",
          "name": "id_",
          "type": "uint256"
        },
        {
          "internalType": "uint256",
          "name": "shareAmount_",
          "type": "uint256"
        }
      ],
      "name": "buybackRepayDebt",
      "outputs": [
        {
          "internalType": "uint256",
          "name": "debtAmount_",
          "type": "uint256"
        }
      ],
      "stateMutability": "nonpayable",
      "type": "function"
    },
    {
      "inputs": [
        {
          "internalType": "address",
          "name": "account_",
          "type": "address"
        },
        {
          "internalType": "uint256",
          "name": "id_",
          "type": "uint256"
        },
        {
          "internalType": "uint256",
          "name": "amount_",
          "type": "uint256"
        },
        {
          "internalType": "uint256",
          "name": "ltv_",
          "type": "uint256"
        }
      ],
      "name": "buybackWithdrawCollateral",
      "outputs": [
        {
          "internalType": "uint256",
          "name": "debtAmount_",
          "type": "uint256"
        }
      ],
      "stateMutability": "nonpayable",
      "type": "function"
    },
    {
      "inputs": [],
      "name": "cap",
      "outputs": [
        {
          "internalType": "uint256",
          "name": "",
          "type": "uint256"
        }
      ],
      "stateMutability": "view",
      "type": "function"
    },
    {
      "inputs": [
        {
          "internalType": "uint256",
          "name": "id_",
          "type": "uint256"
        }
      ],
      "name": "cdpInfo",
      "outputs": [
        {
          "internalType": "uint256",
          "name": "collateralAmount_",
          "type": "uint256"
        },
        {
          "internalType": "uint256",
          "name": "ltv_",
          "type": "uint256"
        },
        {
          "internalType": "uint256",
          "name": "fee_",
          "type": "uint256"
        }
      ],
      "stateMutability": "view",
      "type": "function"
    },
    {
      "inputs": [
        {
          "internalType": "uint256",
          "name": "",
          "type": "uint256"
        }
      ],
      "name": "cdps",
      "outputs": [
        {
          "internalType": "uint256",
          "name": "collateral",
          "type": "uint256"
        },
        {
          "internalType": "uint256",
          "name": "debt",
          "type": "uint256"
        },
        {
          "internalType": "uint256",
          "name": "fee",
          "type": "uint256"
        },
        {
          "internalType": "uint256",
          "name": "latestUpdate",
          "type": "uint256"
        }
      ],
      "stateMutability": "view",
      "type": "function"
    },
    {
      "inputs": [
        {
          "internalType": "uint256",
          "name": "id_",
          "type": "uint256"
        }
      ],
      "name": "close",
      "outputs": [],
      "stateMutability": "nonpayable",
      "type": "function"
    },
    {
      "inputs": [
        {
          "internalType": "address",
          "name": "account_",
          "type": "address"
        },
        {
          "internalType": "uint256",
          "name": "id_",
          "type": "uint256"
        },
        {
          "internalType": "uint256",
          "name": "ltv_",
          "type": "uint256"
        },
        {
          "internalType": "uint256",
          "name": "shareAmount_",
          "type": "uint256"
        }
      ],
      "name": "collateralAmountRangeWhenMint",
      "outputs": [
        {
          "internalType": "uint256",
          "name": "upperBound_",
          "type": "uint256"
        },
        {
          "internalType": "uint256",
          "name": "lowerBound_",
          "type": "uint256"
        }
      ],
      "stateMutability": "view",
      "type": "function"
    },
    {
      "inputs": [
        {
          "internalType": "uint256",
          "name": "id_",
          "type": "uint256"
        },
        {
          "internalType": "uint256",
          "name": "ltv_",
          "type": "uint256"
        }
      ],
      "name": "collateralAmountRangeWhenRecollateralize",
      "outputs": [
        {
          "internalType": "uint256",
          "name": "upperBound_",
          "type": "uint256"
        },
        {
          "internalType": "uint256",
          "name": "lowerBound_",
          "type": "uint256"
        }
      ],
      "stateMutability": "view",
      "type": "function"
    },
    {
      "inputs": [
        {
          "internalType": "uint256",
          "name": "id_",
          "type": "uint256"
        }
      ],
      "name": "currentLTV",
      "outputs": [
        {
          "internalType": "uint256",
          "name": "ltv",
          "type": "uint256"
        }
      ],
      "stateMutability": "view",
      "type": "function"
    },
    {
      "inputs": [
        {
          "internalType": "address",
          "name": "account_",
          "type": "address"
        },
        {
          "internalType": "uint256",
          "name": "id_",
          "type": "uint256"
        }
      ],
      "name": "defaultValueRedeem",
      "outputs": [
        {
          "internalType": "uint256",
          "name": "stableAmount_",
          "type": "uint256"
        },
        {
          "internalType": "uint256",
          "name": "collateralAmount_",
          "type": "uint256"
        },
        {
          "internalType": "uint256",
          "name": "ltv_",
          "type": "uint256"
        },
        {
          "internalType": "uint256",
          "name": "shareAmount_",
          "type": "uint256"
        }
      ],
      "stateMutability": "view",
      "type": "function"
    },
    {
      "inputs": [
        {
          "internalType": "address",
          "name": "account_",
          "type": "address"
        },
        {
          "internalType": "uint256",
          "name": "id_",
          "type": "uint256"
        }
      ],
      "name": "defaultValuesMint",
      "outputs": [
        {
          "internalType": "uint256",
          "name": "collateralAmount_",
          "type": "uint256"
        },
        {
          "internalType": "uint256",
          "name": "ltv_",
          "type": "uint256"
        },
        {
          "internalType": "uint256",
          "name": "shareAmount_",
          "type": "uint256"
        },
        {
          "internalType": "uint256",
          "name": "stableAmount_",
          "type": "uint256"
        }
      ],
      "stateMutability": "view",
      "type": "function"
    },
    {
      "inputs": [
        {
          "internalType": "uint256",
          "name": "id_",
          "type": "uint256"
        },
        {
          "internalType": "uint256",
          "name": "amount_",
          "type": "uint256"
        }
      ],
      "name": "deposit",
      "outputs": [],
      "stateMutability": "nonpayable",
      "type": "function"
    },
    {
      "inputs": [
        {
          "internalType": "uint256",
          "name": "id_",
          "type": "uint256"
        },
        {
          "internalType": "uint256",
          "name": "depositAmount_",
          "type": "uint256"
        },
        {
          "internalType": "uint256",
          "name": "borrowAmount_",
          "type": "uint256"
        }
      ],
      "name": "depositAndBorrow",
      "outputs": [],
      "stateMutability": "nonpayable",
      "type": "function"
    },
    {
      "inputs": [
        {
          "internalType": "uint256",
          "name": "id_",
          "type": "uint256"
        },
        {
          "internalType": "uint256",
          "name": "shareAmount_",
          "type": "uint256"
        },
        {
          "internalType": "uint256",
          "name": "ltv_",
          "type": "uint256"
        }
      ],
      "name": "exchangedCollateralAmountFromShareToLtv",
      "outputs": [
        {
          "internalType": "uint256",
          "name": "collateralAmount_",
          "type": "uint256"
        }
      ],
      "stateMutability": "view",
      "type": "function"
    },
    {
      "inputs": [
        {
          "internalType": "uint256",
          "name": "id_",
          "type": "uint256"
        },
        {
          "internalType": "uint256",
          "name": "collateralAmount_",
          "type": "uint256"
        },
        {
          "internalType": "uint256",
          "name": "ltv_",
          "type": "uint256"
        }
      ],
      "name": "exchangedShareAmountFromCollateralToLtv",
      "outputs": [
        {
          "internalType": "uint256",
          "name": "shareAmount_",
          "type": "uint256"
        }
      ],
      "stateMutability": "view",
      "type": "function"
    },
    {
      "inputs": [
        {
          "internalType": "uint256",
          "name": "collateralAmount_",
          "type": "uint256"
        },
        {
          "internalType": "uint256",
          "name": "ltv_",
          "type": "uint256"
        }
      ],
      "name": "expectedDebtAmountFromCollateralToLtv",
      "outputs": [
        {
          "internalType": "uint256",
          "name": "debtAmount_",
          "type": "uint256"
        }
      ],
      "stateMutability": "view",
      "type": "function"
    },
    {
      "inputs": [
        {
          "internalType": "uint256",
          "name": "id_",
          "type": "uint256"
        },
        {
          "internalType": "uint256",
          "name": "newCollateralAmount_",
          "type": "uint256"
        },
        {
          "internalType": "uint256",
          "name": "ltv_",
          "type": "uint256"
        },
        {
          "internalType": "uint256",
          "name": "newShareAmount_",
          "type": "uint256"
        }
      ],
      "name": "expectedMintAmountToLtv",
      "outputs": [
        {
          "internalType": "uint256",
          "name": "newStableAmount_",
          "type": "uint256"
        }
      ],
      "stateMutability": "view",
      "type": "function"
    },
    {
      "inputs": [
        {
          "internalType": "uint256",
          "name": "id_",
          "type": "uint256"
        },
        {
          "internalType": "uint256",
          "name": "collectedStableAmount_",
          "type": "uint256"
        },
        {
          "internalType": "uint256",
          "name": "ltv_",
          "type": "uint256"
        }
      ],
      "name": "expectedRedeemAmountToLtv",
      "outputs": [
        {
          "internalType": "uint256",
          "name": "emittedCollateralAmount_",
          "type": "uint256"
        },
        {
          "internalType": "uint256",
          "name": "emittedShareAmount_",
          "type": "uint256"
        }
      ],
      "stateMutability": "view",
      "type": "function"
    },
    {
      "inputs": [
        {
          "internalType": "uint256",
          "name": "tokenId",
          "type": "uint256"
        }
      ],
      "name": "getApproved",
      "outputs": [
        {
          "internalType": "address",
          "name": "",
          "type": "address"
        }
      ],
      "stateMutability": "view",
      "type": "function"
    },
    {
      "inputs": [],
      "name": "getCollateralPrice",
      "outputs": [
        {
          "internalType": "uint256",
          "name": "",
          "type": "uint256"
        }
      ],
      "stateMutability": "view",
      "type": "function"
    },
    {
      "inputs": [],
      "name": "globalHealthFactor",
      "outputs": [
        {
          "internalType": "uint256",
          "name": "health",
          "type": "uint256"
        }
      ],
      "stateMutability": "view",
      "type": "function"
    },
    {
      "inputs": [],
      "name": "globalLTV",
      "outputs": [
        {
          "internalType": "uint256",
          "name": "ltv",
          "type": "uint256"
        }
      ],
      "stateMutability": "view",
      "type": "function"
    },
    {
      "inputs": [],
      "name": "globalLiquidate",
      "outputs": [],
      "stateMutability": "nonpayable",
      "type": "function"
    },
    {
      "inputs": [
        {
          "internalType": "uint256",
          "name": "id_",
          "type": "uint256"
        }
      ],
      "name": "healthFactor",
      "outputs": [
        {
          "internalType": "uint256",
          "name": "health",
          "type": "uint256"
        }
      ],
      "stateMutability": "view",
      "type": "function"
    },
    {
      "inputs": [],
      "name": "id",
      "outputs": [
        {
          "internalType": "uint256",
          "name": "",
          "type": "uint256"
        }
      ],
      "stateMutability": "view",
      "type": "function"
    },
    {
      "inputs": [],
      "name": "initialize",
      "outputs": [],
      "stateMutability": "nonpayable",
      "type": "function"
    },
    {
      "inputs": [
        {
          "internalType": "address",
          "name": "owner",
          "type": "address"
        },
        {
          "internalType": "address",
          "name": "operator",
          "type": "address"
        }
      ],
      "name": "isApprovedForAll",
      "outputs": [
        {
          "internalType": "bool",
          "name": "",
          "type": "bool"
        }
      ],
      "stateMutability": "view",
      "type": "function"
    },
    {
      "inputs": [
        {
          "internalType": "uint256",
          "name": "id_",
          "type": "uint256"
        }
      ],
      "name": "isSafe",
      "outputs": [
        {
          "internalType": "bool",
          "name": "",
          "type": "bool"
        }
      ],
      "stateMutability": "view",
      "type": "function"
    },
    {
      "inputs": [
        {
          "internalType": "uint256",
          "name": "id_",
          "type": "uint256"
        }
      ],
      "name": "liquidate",
      "outputs": [],
      "stateMutability": "nonpayable",
      "type": "function"
    },
    {
      "inputs": [
        {
          "internalType": "uint256",
          "name": "id_",
          "type": "uint256"
        },
        {
          "internalType": "uint256",
          "name": "shareAmount_",
          "type": "uint256"
        }
      ],
      "name": "ltvRangeWhenBuyback",
      "outputs": [
        {
          "internalType": "uint256",
          "name": "upperBound_",
          "type": "uint256"
        },
        {
          "internalType": "uint256",
          "name": "lowerBound_",
          "type": "uint256"
        }
      ],
      "stateMutability": "view",
      "type": "function"
    },
    {
      "inputs": [
        {
          "internalType": "uint256",
          "name": "id_",
          "type": "uint256"
        },
        {
          "internalType": "uint256",
          "name": "collateralAmount_",
          "type": "uint256"
        },
        {
          "internalType": "uint256",
          "name": "shareAmount_",
          "type": "uint256"
        }
      ],
      "name": "ltvRangeWhenMint",
      "outputs": [
        {
          "internalType": "uint256",
          "name": "upperBound_",
          "type": "uint256"
        },
        {
          "internalType": "uint256",
          "name": "lowerBound_",
          "type": "uint256"
        }
      ],
      "stateMutability": "view",
      "type": "function"
    },
    {
      "inputs": [
        {
          "internalType": "uint256",
          "name": "id_",
          "type": "uint256"
        },
        {
          "internalType": "uint256",
          "name": "collateralAmount_",
          "type": "uint256"
        }
      ],
      "name": "ltvRangeWhenRecollateralize",
      "outputs": [
        {
          "internalType": "uint256",
          "name": "upperBound_",
          "type": "uint256"
        },
        {
          "internalType": "uint256",
          "name": "lowerBound_",
          "type": "uint256"
        }
      ],
      "stateMutability": "view",
      "type": "function"
    },
    {
      "inputs": [
        {
          "internalType": "uint256",
          "name": "id_",
          "type": "uint256"
        },
        {
          "internalType": "uint256",
          "name": "stableAmount_",
          "type": "uint256"
        }
      ],
      "name": "ltvRangeWhenRedeem",
      "outputs": [
        {
          "internalType": "uint256",
          "name": "upperBound_",
          "type": "uint256"
        },
        {
          "internalType": "uint256",
          "name": "lowerBound_",
          "type": "uint256"
        }
      ],
      "stateMutability": "view",
      "type": "function"
    },
    {
      "inputs": [],
      "name": "maxLTV",
      "outputs": [
        {
          "internalType": "uint256",
          "name": "",
          "type": "uint256"
        }
      ],
      "stateMutability": "view",
      "type": "function"
    },
    {
      "inputs": [],
      "name": "name",
      "outputs": [
        {
          "internalType": "string",
          "name": "",
          "type": "string"
        }
      ],
      "stateMutability": "view",
      "type": "function"
    },
    {
      "inputs": [],
      "name": "open",
      "outputs": [
        {
          "internalType": "uint256",
          "name": "id_",
          "type": "uint256"
        }
      ],
      "stateMutability": "nonpayable",
      "type": "function"
    },
    {
      "inputs": [
        {
          "internalType": "uint256",
          "name": "amount_",
          "type": "uint256"
        }
      ],
      "name": "openAndDeposit",
      "outputs": [
        {
          "internalType": "uint256",
          "name": "id_",
          "type": "uint256"
        }
      ],
      "stateMutability": "nonpayable",
      "type": "function"
    },
    {
      "inputs": [
        {
          "internalType": "uint256",
          "name": "depositAmount_",
          "type": "uint256"
        },
        {
          "internalType": "uint256",
          "name": "borrowAmount_",
          "type": "uint256"
        }
      ],
      "name": "openAndDepositAndBorrow",
      "outputs": [
        {
          "internalType": "uint256",
          "name": "id_",
          "type": "uint256"
        }
      ],
      "stateMutability": "nonpayable",
      "type": "function"
    },
    {
      "inputs": [],
      "name": "owner",
      "outputs": [
        {
          "internalType": "address",
          "name": "",
          "type": "address"
        }
      ],
      "stateMutability": "view",
      "type": "function"
    },
    {
      "inputs": [
        {
          "internalType": "uint256",
          "name": "tokenId",
          "type": "uint256"
        }
      ],
      "name": "ownerOf",
      "outputs": [
        {
          "internalType": "address",
          "name": "",
          "type": "address"
        }
      ],
      "stateMutability": "view",
      "type": "function"
    },
    {
      "inputs": [
        {
          "internalType": "uint256",
          "name": "id_",
          "type": "uint256"
        },
        {
          "internalType": "uint256",
          "name": "cid_",
          "type": "uint256"
        }
      ],
      "name": "pairAnnihilation",
      "outputs": [],
      "stateMutability": "nonpayable",
      "type": "function"
    },
    {
      "inputs": [],
      "name": "pause",
      "outputs": [],
      "stateMutability": "nonpayable",
      "type": "function"
    },
    {
      "inputs": [],
      "name": "paused",
      "outputs": [
        {
          "internalType": "bool",
          "name": "",
          "type": "bool"
        }
      ],
      "stateMutability": "view",
      "type": "function"
    },
    {
      "inputs": [
        {
          "internalType": "address",
          "name": "account_",
          "type": "address"
        },
        {
          "internalType": "uint256",
          "name": "id_",
          "type": "uint256"
        },
        {
          "internalType": "uint256",
          "name": "ltv_",
          "type": "uint256"
        }
      ],
      "name": "recollateralizeBorrowDebtToLtv",
      "outputs": [
        {
          "internalType": "uint256",
          "name": "shareAmount_",
          "type": "uint256"
        },
        {
          "internalType": "uint256",
          "name": "bonusAmount_",
          "type": "uint256"
        }
      ],
      "stateMutability": "nonpayable",
      "type": "function"
    },
    {
      "inputs": [
        {
          "internalType": "address",
          "name": "account_",
          "type": "address"
        },
        {
          "internalType": "uint256",
          "name": "id_",
          "type": "uint256"
        },
        {
          "internalType": "uint256",
          "name": "amount_",
          "type": "uint256"
        }
      ],
      "name": "recollateralizeDepositCollateral",
      "outputs": [
        {
          "internalType": "uint256",
          "name": "shareAmount_",
          "type": "uint256"
        },
        {
          "internalType": "uint256",
          "name": "bonusAmount_",
          "type": "uint256"
        }
      ],
      "stateMutability": "nonpayable",
      "type": "function"
    },
    {
      "inputs": [],
      "name": "renounceOwnership",
      "outputs": [],
      "stateMutability": "nonpayable",
      "type": "function"
    },
    {
      "inputs": [
        {
          "internalType": "uint256",
          "name": "id_",
          "type": "uint256"
        },
        {
          "internalType": "uint256",
          "name": "amount_",
          "type": "uint256"
        }
      ],
      "name": "repay",
      "outputs": [],
      "stateMutability": "nonpayable",
      "type": "function"
    },
    {
      "inputs": [
        {
          "internalType": "uint256",
          "name": "id_",
          "type": "uint256"
        },
        {
          "internalType": "uint256",
          "name": "repayAmount_",
          "type": "uint256"
        },
        {
          "internalType": "uint256",
          "name": "withdrawAmount_",
          "type": "uint256"
        }
      ],
      "name": "repayAndWithdraw",
      "outputs": [],
      "stateMutability": "nonpayable",
      "type": "function"
    },
    {
      "inputs": [
        {
          "internalType": "uint256",
          "name": "debtAmount_",
          "type": "uint256"
        },
        {
          "internalType": "uint256",
          "name": "ltv_",
          "type": "uint256"
        }
      ],
      "name": "requiredCollateralAmountFromDebtWithLtv",
      "outputs": [
        {
          "internalType": "uint256",
          "name": "collateralAmount_",
          "type": "uint256"
        }
      ],
      "stateMutability": "view",
      "type": "function"
    },
    {
      "inputs": [
        {
          "internalType": "uint256",
          "name": "id_",
          "type": "uint256"
        },
        {
          "internalType": "uint256",
          "name": "newShareAmount_",
          "type": "uint256"
        },
        {
          "internalType": "uint256",
          "name": "ltv_",
          "type": "uint256"
        }
      ],
      "name": "requiredCollateralAmountFromShareToLtv",
      "outputs": [
        {
          "internalType": "uint256",
          "name": "collateralAmount_",
          "type": "uint256"
        }
      ],
      "stateMutability": "view",
      "type": "function"
    },
    {
      "inputs": [
        {
          "internalType": "uint256",
          "name": "id_",
          "type": "uint256"
        },
        {
          "internalType": "uint256",
          "name": "newCollateralAmount_",
          "type": "uint256"
        },
        {
          "internalType": "uint256",
          "name": "ltv_",
          "type": "uint256"
        }
      ],
      "name": "requiredShareAmountFromCollateralToLtv",
      "outputs": [
        {
          "internalType": "uint256",
          "name": "shareAmount_",
          "type": "uint256"
        }
      ],
      "stateMutability": "view",
      "type": "function"
    },
    {
      "inputs": [
        {
          "internalType": "address",
          "name": "from",
          "type": "address"
        },
        {
          "internalType": "address",
          "name": "to",
          "type": "address"
        },
        {
          "internalType": "uint256",
          "name": "tokenId",
          "type": "uint256"
        }
      ],
      "name": "safeTransferFrom",
      "outputs": [],
      "stateMutability": "nonpayable",
      "type": "function"
    },
    {
      "inputs": [
        {
          "internalType": "address",
          "name": "from",
          "type": "address"
        },
        {
          "internalType": "address",
          "name": "to",
          "type": "address"
        },
        {
          "internalType": "uint256",
          "name": "tokenId",
          "type": "uint256"
        },
        {
          "internalType": "bytes",
          "name": "data",
          "type": "bytes"
        }
      ],
      "name": "safeTransferFrom",
      "outputs": [],
      "stateMutability": "nonpayable",
      "type": "function"
    },
    {
      "inputs": [
        {
          "internalType": "address",
          "name": "operator",
          "type": "address"
        },
        {
          "internalType": "bool",
          "name": "approved",
          "type": "bool"
        }
      ],
      "name": "setApprovalForAll",
      "outputs": [],
      "stateMutability": "nonpayable",
      "type": "function"
    },
    {
      "inputs": [
        {
          "internalType": "uint256",
          "name": "newCap",
          "type": "uint256"
        }
      ],
      "name": "setCap",
      "outputs": [],
      "stateMutability": "nonpayable",
      "type": "function"
    },
    {
      "inputs": [
        {
          "internalType": "uint256",
          "name": "newFeeRatio",
          "type": "uint256"
        }
      ],
      "name": "setFeeRatio",
      "outputs": [],
      "stateMutability": "nonpayable",
      "type": "function"
    },
    {
      "inputs": [
        {
          "internalType": "address",
          "name": "newFeeTo",
          "type": "address"
        }
      ],
      "name": "setFeeTo",
      "outputs": [],
      "stateMutability": "nonpayable",
      "type": "function"
    },
    {
      "inputs": [
        {
          "internalType": "uint256",
          "name": "newMaxLTV",
          "type": "uint256"
        }
      ],
      "name": "setMaxLTV",
      "outputs": [],
      "stateMutability": "nonpayable",
      "type": "function"
    },
    {
      "inputs": [
        {
          "internalType": "uint256",
          "name": "id_",
          "type": "uint256"
        }
      ],
      "name": "shareAmountRangeWhenBuyback",
      "outputs": [
        {
          "internalType": "uint256",
          "name": "upperBound_",
          "type": "uint256"
        },
        {
          "internalType": "uint256",
          "name": "lowerBound_",
          "type": "uint256"
        }
      ],
      "stateMutability": "view",
      "type": "function"
    },
    {
      "inputs": [
        {
          "internalType": "address",
          "name": "account_",
          "type": "address"
        },
        {
          "internalType": "uint256",
          "name": "id_",
          "type": "uint256"
        },
        {
          "internalType": "uint256",
          "name": "collateralAmount_",
          "type": "uint256"
        },
        {
          "internalType": "uint256",
          "name": "ltv_",
          "type": "uint256"
        }
      ],
      "name": "shareAmountRangeWhenMint",
      "outputs": [
        {
          "internalType": "uint256",
          "name": "upperBound_",
          "type": "uint256"
        },
        {
          "internalType": "uint256",
          "name": "lowerBound_",
          "type": "uint256"
        }
      ],
      "stateMutability": "view",
      "type": "function"
    },
    {
      "inputs": [
        {
          "internalType": "address",
          "name": "account_",
          "type": "address"
        },
        {
          "internalType": "uint256",
          "name": "id_",
          "type": "uint256"
        }
      ],
      "name": "stableAmountRangeWhenRedeem",
      "outputs": [
        {
          "internalType": "uint256",
          "name": "upperBound_",
          "type": "uint256"
        },
        {
          "internalType": "uint256",
          "name": "lowerBound_",
          "type": "uint256"
        }
      ],
      "stateMutability": "view",
      "type": "function"
    },
    {
      "inputs": [
        {
          "internalType": "bytes4",
          "name": "interfaceId",
          "type": "bytes4"
        }
      ],
      "name": "supportsInterface",
      "outputs": [
        {
          "internalType": "bool",
          "name": "",
          "type": "bool"
        }
      ],
      "stateMutability": "view",
      "type": "function"
    },
    {
      "inputs": [],
      "name": "symbol",
      "outputs": [
        {
          "internalType": "string",
          "name": "",
          "type": "string"
        }
      ],
      "stateMutability": "view",
      "type": "function"
    },
    {
      "inputs": [
        {
          "internalType": "uint256",
          "name": "tokenId",
          "type": "uint256"
        }
      ],
      "name": "tokenURI",
      "outputs": [
        {
          "internalType": "string",
          "name": "",
          "type": "string"
        }
      ],
      "stateMutability": "view",
      "type": "function"
    },
    {
      "inputs": [],
      "name": "totalCollateral",
      "outputs": [
        {
          "internalType": "uint256",
          "name": "",
          "type": "uint256"
        }
      ],
      "stateMutability": "view",
      "type": "function"
    },
    {
      "inputs": [],
      "name": "totalDebt",
      "outputs": [
        {
          "internalType": "uint256",
          "name": "",
          "type": "uint256"
        }
      ],
      "stateMutability": "view",
      "type": "function"
    },
    {
      "inputs": [],
      "name": "totalFee",
      "outputs": [
        {
          "internalType": "uint256",
          "name": "",
          "type": "uint256"
        }
      ],
      "stateMutability": "view",
      "type": "function"
    },
    {
      "inputs": [
        {
          "internalType": "address",
          "name": "from",
          "type": "address"
        },
        {
          "internalType": "address",
          "name": "to",
          "type": "address"
        },
        {
          "internalType": "uint256",
          "name": "tokenId",
          "type": "uint256"
        }
      ],
      "name": "transferFrom",
      "outputs": [],
      "stateMutability": "nonpayable",
      "type": "function"
    },
    {
      "inputs": [
        {
          "internalType": "address",
          "name": "newOwner",
          "type": "address"
        }
      ],
      "name": "transferOwnership",
      "outputs": [],
      "stateMutability": "nonpayable",
      "type": "function"
    },
    {
      "inputs": [],
      "name": "unpause",
      "outputs": [],
      "stateMutability": "nonpayable",
      "type": "function"
    },
    {
      "inputs": [
        {
          "internalType": "uint256",
          "name": "newCollateralPrice",
          "type": "uint256"
        },
        {
          "internalType": "uint256",
          "name": "confidence",
          "type": "uint256"
        }
      ],
      "name": "updateCollateralPrice",
      "outputs": [],
      "stateMutability": "nonpayable",
      "type": "function"
    },
    {
      "inputs": [
        {
          "internalType": "uint256",
          "name": "id_",
          "type": "uint256"
        }
      ],
      "name": "updateFee",
      "outputs": [
        {
          "internalType": "uint256",
          "name": "additionalFee",
          "type": "uint256"
        }
      ],
      "stateMutability": "nonpayable",
      "type": "function"
    },
    {
      "inputs": [
        {
          "internalType": "address",
          "name": "newOracleFeeder",
          "type": "address"
        }
      ],
      "name": "updateOracleFeeder",
      "outputs": [],
      "stateMutability": "nonpayable",
      "type": "function"
    },
    {
      "inputs": [
        {
          "internalType": "uint256",
          "name": "id_",
          "type": "uint256"
        },
        {
          "internalType": "uint256",
          "name": "amount_",
          "type": "uint256"
        }
      ],
      "name": "withdraw",
      "outputs": [],
      "stateMutability": "nonpayable",
      "type": "function"
    },
    {
      "inputs": [
        {
          "internalType": "uint256",
          "name": "id_",
          "type": "uint256"
        },
        {
          "internalType": "uint256",
          "name": "ltv_",
          "type": "uint256"
        },
        {
          "internalType": "uint256",
          "name": "debtAmount_",
          "type": "uint256"
        }
      ],
      "name": "withdrawCollateralAmountToLTV",
      "outputs": [
        {
          "internalType": "uint256",
          "name": "collateralAmount_",
          "type": "uint256"
        }
      ],
      "stateMutability": "view",
      "type": "function"
    }
  ],
  "bytecode": "0x6101206040526175306008553480156200001857600080fd5b506040516200650d3803806200650d8339810160408190526200003b9162000561565b6040518060400160405280600b81526020016a0466f784661726d204344560ac1b8152506040518060400160405280600381526020016204344560ec1b8152508b8b8b8b88888886898981600090805190602001906200009d9291906200049e565b508051620000b39060019060208401906200049e565b50506006805460ff1916905550620000cb336200037c565b600780546001600160a01b03199081166001600160a01b0393841617909155600b80549091169782169790971790965593851660805291841660a052600955600a55600c558d93508316151591506200017190505760405162461bcd60e51b81526020600482015260316024820152600080516020620064ed8339815191526044820152600080516020620064cd83398151915260648201526084015b60405180910390fd5b886001600160a01b038116620001ce5760405162461bcd60e51b81526020600482015260316024820152600080516020620064ed8339815191526044820152600080516020620064cd833981519152606482015260840162000168565b886001600160a01b0381166200022b5760405162461bcd60e51b81526020600482015260316024820152600080516020620064ed8339815191526044820152600080516020620064cd833981519152606482015260840162000168565b886001600160a01b038116620002885760405162461bcd60e51b81526020600482015260316024820152600080516020620064ed8339815191526044820152600080516020620064cd833981519152606482015260840162000168565b886001600160a01b038116620002e55760405162461bcd60e51b81526020600482015260316024820152600080516020620064ed8339815191526044820152600080516020620064cd833981519152606482015260840162000168565b886001600160a01b038116620003425760405162461bcd60e51b81526020600482015260316024820152600080516020620064ed8339815191526044820152600080516020620064cd833981519152606482015260840162000168565b6001600160a01b03808d1660c0528b811660e0528a166101005262000366620003d6565b5050505050505050505050505050505062000652565b600680546001600160a01b03838116610100818102610100600160a81b031985161790945560405193909204169182907f8be0079c531659141344cd1fd0a4f28419497f9722a3daafe3b4186f6b6457e090600090a35050565b60a05160e051604051630571ac8b60e41b81526001600160a01b03918216600482015291169063571ac8b090602401600060405180830381600087803b1580156200042057600080fd5b505af115801562000435573d6000803e3d6000fd5b505060c05160e051604051630571ac8b60e41b81526001600160a01b0391821660048201529116925063571ac8b09150602401600060405180830381600087803b1580156200048357600080fd5b505af115801562000498573d6000803e3d6000fd5b50505050565b828054620004ac9062000615565b90600052602060002090601f016020900481019282620004d057600085556200051b565b82601f10620004eb57805160ff19168380011785556200051b565b828001600101855582156200051b579182015b828111156200051b578251825591602001919060010190620004fe565b50620005299291506200052d565b5090565b5b808211156200052957600081556001016200052e565b80516001600160a01b03811681146200055c57600080fd5b919050565b6000806000806000806000806000806101408b8d0312156200058257600080fd5b6200058d8b62000544565b99506200059d60208c0162000544565b9850620005ad60408c0162000544565b9750620005bd60608c0162000544565b9650620005cd60808c0162000544565b9550620005dd60a08c0162000544565b9450620005ed60c08c0162000544565b935060e08b015192506101008b015191506101208b015190509295989b9194979a5092959850565b600181811c908216806200062a57607f821691505b602082108114156200064c57634e487b7160e01b600052602260045260246000fd5b50919050565b60805160a05160c05160e05161010051615cbc620008116000396000818161113801526117d7015260008181610b7001528181610b9f01528181610cd201528181610ee4015281816112300152818161142f015281816115790152818161171e015281816119c101528181611bb401528181611d2d01528181611dce01528181611e7b01528181611fb201528181612083015281816121c3015281816125ee015281816126910152818161272a015281816128360152818161295e01528181612aa001528181612b7101528181612c0f01528181612eda01528181613144015281816131e301528181613284015281816133370152818161357501528181613c3101528181613d7a01528181613e2001528181613f090152818161418101526141b60152600081816116df015281816123a80152818161275201528181612e930152818161307001528181613eac015261426f0152600081816126b9015281816145d20152818161460b015281816146570152818161469701528181614711015281816147f501528181614a330152614b0b015260008181612fa2015281816136310152818161378f015281816142e401526148e90152615cbc6000f3fe608060405234801561001057600080fd5b50600436106104805760003560e01c80636352211e11610257578063bc71054e11610146578063eb89ef78116100c3578063f384bd0511610087578063f384bd0514610a6b578063f46901ed14610a74578063f7683bbc14610a87578063fc7b9c1814610a8f578063fcfff16f14610a9857600080fd5b8063eb89ef78146109ea578063ee24876714610a1f578063ee50e50b14610a32578063efb2654d14610a45578063f2fde38b14610a5857600080fd5b8063d8aed1451161010a578063d8aed1451461096d578063dd8a04b314610980578063e2bbb15814610988578063e7dba7231461099b578063e985e9c5146109ae57600080fd5b8063bc71054e1461090e578063c87b56dd14610921578063c990596d14610934578063cb556eed14610947578063d5935dc91461095a57600080fd5b80638da5cb5b116101d45780639eedf166116101985780639eedf16614610899578063a22cb465146108cc578063af640d0f146108df578063b88d4fde146108e8578063bb23c737146108fb57600080fd5b80638da5cb5b146108425780639012c4a81461085857806395d89b411461086b5780639760a42b1461087357806398ead0ed1461088657600080fd5b8063715018a61161021b578063715018a6146107e957806371f834e5146107f15780637455efd41461081f5780638129fc1c146108325780638456cb591461083a57600080fd5b80636352211e1461078a5780636e7e01d11461079d578063701cdca4146107b057806370a08231146107c35780637116153b146107d657600080fd5b8063312ad1ae1161037357806347786d37116102f057806358502763116102b457806358502763146107335780635b529197146107465780635c59ffcd146107595780635c975abb1461076c57806361defc431461077757600080fd5b806347786d37146106de5780634ac8eb5f146106f15780634cb9c24a146106fa57806355e2c7131461070d578063571e5d241461072057600080fd5b80633f4ba83a116103375780633f4ba83a1461068a578063415f12401461069257806342842e0e146106a5578063441a3e70146106b8578063441e6747146106cb57600080fd5b8063312ad1ae146106405780633357711414610653578063355274ea1461066657806336bdbb131461066f57806337d4f8411461067757600080fd5b80630b0b64001161040157806323b872dd116103c557806323b872dd146105e1578063262daf8e146105f45780632c95cdce146106075780632e2ddd451461061a5780632f297daa1461062d57600080fd5b80630b0b64001461058c5780630ecbcdab1461059f57806319f4ff2f146105b25780631df4ccfc146105c557806321cdc50e146105ce57600080fd5b8063089f183f11610448578063089f183f1461052b57806308a0c3751461053e578063095ea7b3146105535780630aebeb4e146105665780630b068e9c1461057957600080fd5b806301ffc9a714610485578063044de355146104ad57806306fdde03146104d5578063081812fc146104ea578063083dd51b14610515575b600080fd5b61049861049336600461552d565b610aa0565b60405190151581526020015b60405180910390f35b6104c06104bb36600461554a565b610af2565b604080519283526020830191909152016104a4565b6104dd610dab565b6040516104a491906155c4565b6104fd6104f83660046155d7565b610e3d565b6040516001600160a01b0390911681526020016104a4565b61051d610e64565b6040519081526020016104a4565b6104c0610539366004615607565b610ea0565b61055161054c3660046155d7565b610f68565b005b610551610561366004615607565b610fb6565b6105516105743660046155d7565b6110cc565b61055161058736600461554a565b611117565b6104c061059a366004615631565b611229565b6105516105ad36600461554a565b61135a565b6105516105c03660046155d7565b6113a7565b61051d60115481565b61051d6105dc366004615631565b6113ed565b6105516105ef36600461565d565b6114ba565b610551610602366004615699565b6114eb565b6104c06106153660046155d7565b6114ff565b610551610628366004615631565b611673565b6104c061063b366004615607565b61169d565b61051d61064e36600461554a565b61185e565b61051d6106613660046155d7565b611896565b61051d600a5481565b610551611934565b6104c061068536600461554a565b611946565b610551611abf565b6105516106a03660046155d7565b611acf565b6105516106b336600461565d565b611b4a565b6105516106c636600461554a565b611b65565b61051d6106d9366004615631565b611bab565b6105516106ec3660046155d7565b611c58565b61051d600f5481565b6104986107083660046155d7565b611c9e565b61051d61071b36600461554a565b611cb3565b61051d61072e36600461554a565b611cd0565b61051d610741366004615631565b611dca565b6104c06107543660046156b4565b611f2a565b6104c061076736600461554a565b61204b565b60065460ff16610498565b6104c061078536600461554a565b612130565b6104fd6107983660046155d7565b61228c565b61051d6107ab366004615631565b6122ec565b6104c06107be3660046156e7565b612384565b61051d6107d1366004615699565b61243a565b61051d6107e4366004615631565b6124c0565b610551612551565b6108046107ff3660046155d7565b612563565b604080519384526020840192909252908201526060016104a4565b61051d61082d366004615720565b6125c0565b61055161267a565b6105516127ac565b60065461010090046001600160a01b03166104fd565b61051d6108663660046155d7565b6127bc565b6104dd6127c7565b610551610881366004615631565b6127d6565b6104c0610894366004615631565b61282f565b6108ac6108a7366004615607565b612b49565b6040805194855260208501939093529183015260608201526080016104a4565b6105516108da366004615760565b612cc6565b61051d600e5481565b6105516108f63660046157ad565b612cd1565b61051d6109093660046155d7565b612d03565b61051d61091c3660046155d7565b612d34565b6104dd61092f3660046155d7565b612db5565b61051d6109423660046156e7565b612e28565b6108ac610955366004615607565b612f98565b61051d610968366004615631565b613314565b61055161097b36600461554a565b613463565b61051d613481565b61055161099636600461554a565b6134e7565b6104c06109a93660046156b4565b613505565b6104986109bc366004615889565b6001600160a01b03918216600090815260056020908152604080832093909416825291909152205460ff1690565b6108ac6109f83660046155d7565b600d6020526000908152604090208054600182015460028301546003909301549192909184565b6104c0610a2d3660046156e7565b61360d565b61051d610a4036600461554a565b6136b8565b610551610a5336600461554a565b6136ee565b610551610a66366004615699565b6137e8565b61051d60095481565b610551610a82366004615699565b61385e565b60085461051d565b61051d60105481565b61051d6138c0565b60006001600160e01b031982166380ac58cd60e01b1480610ad157506001600160e01b03198216635b5e139f60e01b145b80610aec57506301ffc9a760e01b6001600160e01b03198316145b92915050565b60008083600e548110610b205760405162461bcd60e51b8152600401610b17906158bc565b60405180910390fd5b6000858152600d60209081526040918290208251608081018452815481526001820154928101929092526002810154928201929092526003909101546060820152610b6a86611896565b935060007f00000000000000000000000000000000000000000000000000000000000000006001600160a01b031663d5aa33d27f00000000000000000000000000000000000000000000000000000000000000006001600160a01b031663f280db8a6040518163ffffffff1660e01b815260040160206040518083038186803b158015610bf657600080fd5b505afa158015610c0a573d6000803e3d6000fd5b505050506040513d601f19601f82011682018060405250810190610c2e9190615903565b6040518263ffffffff1660e01b8152600401610c4c91815260200190565b60206040518083038186803b158015610c6457600080fd5b505afa158015610c78573d6000803e3d6000fd5b505050506040513d601f19601f82011682018060405250810190610c9c9190615903565b905085811015610cac5780610cae565b855b604051632694d5e760e01b8152600481018290529091506000906001600160a01b037f00000000000000000000000000000000000000000000000000000000000000001690632694d5e79060240160206040518083038186803b158015610d1457600080fd5b505afa158015610d28573d6000803e3d6000fd5b505050506040513d601f19601f82011682018060405250810190610d4c9190615903565b6008548451919250610d5d91615932565b612710808560400151848760200151610d769190615951565b610d809190615968565b610d8a9190615932565b610d949190615932565b610d9e9190615996565b9450505050509250929050565b606060008054610dba906159aa565b80601f0160208091040260200160405190810160405280929190818152602001828054610de6906159aa565b8015610e335780601f10610e0857610100808354040283529160200191610e33565b820191906000526020600020905b815481529060010190602001808311610e1657829003601f168201915b5050505050905090565b6000610e48826138e4565b506000908152600460205260409020546001600160a01b031690565b6000600854600f54610e769190615932565b61271080601054610e879190615932565b610e919190615932565b610e9b9190615996565b905090565b60008082600e548110610ec55760405162461bcd60e51b8152600401610b17906158bc565b6040516370a0823160e01b81526001600160a01b0386811660048301527f000000000000000000000000000000000000000000000000000000000000000016906370a082319060240160206040518083038186803b158015610f2657600080fd5b505afa158015610f3a573d6000803e3d6000fd5b505050506040513d601f19601f82011682018060405250810190610f5e9190615903565b9250509250929050565b610f70613943565b600980549082905560408051828152602081018490527fe796e9ae748449310fcd1cc6718aab236c9b8d2e0e04dacb232ba564d5b338cc91015b60405180910390a15050565b6000610fc18261228c565b9050806001600160a01b0316836001600160a01b0316141561102f5760405162461bcd60e51b815260206004820152602160248201527f4552433732313a20617070726f76616c20746f2063757272656e74206f776e656044820152603960f91b6064820152608401610b17565b336001600160a01b038216148061104b575061104b81336109bc565b6110bd5760405162461bcd60e51b815260206004820152603e60248201527f4552433732313a20617070726f76652063616c6c6572206973206e6f7420746f60448201527f6b656e206f776e6572206e6f7220617070726f76656420666f7220616c6c00006064820152608401610b17565b6110c783836139a3565b505050565b806110d681613a11565b506110df613b3e565b33826110eb8282613b84565b6111075760405162461bcd60e51b8152600401610b17906159df565b6111113385613c02565b50505050565b61111f613b3e565b604051630852cd8d60e31b8152600481018290526000907f00000000000000000000000000000000000000000000000000000000000000006001600160a01b0316906342966c68906024016040805180830381600087803b15801561118357600080fd5b505af1158015611197573d6000803e3d6000fd5b505050506040513d601f19601f820116820180604052508101906111bb9190615a2f565b6000858152600d602052604090206002810154919350915082116111f857818160020160008282546111ed9190615951565b909155506111119050565b60006002820181905561120b9083615951565b81600101600082825461121e9190615951565b909155505050505050565b60008060007f00000000000000000000000000000000000000000000000000000000000000006001600160a01b031663db344ba3866040518263ffffffff1660e01b815260040161127c91815260200190565b60606040518083038186803b15801561129457600080fd5b505afa1580156112a8573d6000803e3d6000fd5b505050506040513d601f19601f820116820180604052508101906112cc9190615a53565b50600e54909350909150861015611344576000868152600d602090815260409182902082516080810184528154815260018201549281018390526002820154938101939093526003015460608301526113309061132a908490615951565b8661185e565b815161133c9190615951565b935050611351565b61134e818561185e565b92505b50935093915050565b8161136481613a11565b5061136d613b3e565b33836113798282613b84565b6113955760405162461bcd60e51b8152600401610b17906159df565b6113a0338686613d61565b5050505050565b6113af613943565b600c80549082905560408051828152602081018490527f249ce3aa19ca005081b3e7143ee5f00395d8ac801e1fd05ec532b214a56420f99101610faa565b600080600e5485101561140c576114058585856124c0565b9050611419565b6114168484611cb3565b90505b604051630d53839960e41b8152600481018290527f00000000000000000000000000000000000000000000000000000000000000006001600160a01b03169063d53839909060240160206040518083038186803b15801561147957600080fd5b505afa15801561148d573d6000803e3d6000fd5b505050506040513d601f19601f820116820180604052508101906114b19190615903565b95945050505050565b6114c43382613b84565b6114e05760405162461bcd60e51b8152600401610b1790615a81565b6110c7838383613f85565b6114f3613943565b6114fc81614121565b50565b60008082600e5481106115245760405162461bcd60e51b8152600401610b17906158bc565b6000848152600d6020908152604091829020825160808101845281548152600182015481840152600282015481850152600390910154606082015282516379406dc560e11b8152925190926001600160a01b037f0000000000000000000000000000000000000000000000000000000000000000169263d5aa33d292849263f280db8a926004808301939192829003018186803b1580156115c457600080fd5b505afa1580156115d8573d6000803e3d6000fd5b505050506040513d601f19601f820116820180604052508101906115fc9190615903565b6040518263ffffffff1660e01b815260040161161a91815260200190565b60206040518083038186803b15801561163257600080fd5b505afa158015611646573d6000803e3d6000fd5b505050506040513d601f19601f8201168201806040525081019061166a9190615903565b93505050915091565b8261167d81613a11565b50611686613b3e565b3361169281868661417b565b6113a0818685614296565b6000806116a8613b3e565b6127106116b3613481565b106116d05760405162461bcd60e51b8152600401610b1790615acf565b611707335b6001600160a01b037f000000000000000000000000000000000000000000000000000000000000000016903086614432565b604051631957dd9f60e21b81526001600160a01b037f0000000000000000000000000000000000000000000000000000000000000000169063655f767c906117559030908790600401615b14565b602060405180830381600087803b15801561176f57600080fd5b505af1158015611783573d6000803e3d6000fd5b505050506040513d601f19601f820116820180604052508101906117a79190615903565b604051632baf2acb60e01b81526001600160a01b03868116600483015260248201869052604482018390529192507f000000000000000000000000000000000000000000000000000000000000000090911690632baf2acb90606401602060405180830381600087803b15801561181d57600080fd5b505af1158015611831573d6000803e3d6000fd5b505050506040513d601f19601f820116820180604052508101906118559190615903565b91509250929050565b60006008548261186e9190615932565b61271061187b8186615932565b6118859190615932565b61188f9190615996565b9392505050565b6000600e5482106118a957506000919050565b6000828152600d6020908152604091829020825160808101845281548082526001830154938201939093526002820154938101939093526003015460608301526008546118f591615932565b612710808360400151846020015161190d9190615968565b6119179190615932565b6119219190615932565b61192b9190615996565b9150505b919050565b61193c613943565b61194461449d565b565b60008083600e54811061196b5760405162461bcd60e51b8152600401610b17906158bc565b6000858152600d602090815260408083208151608081018352815481526001820154938101939093526002810154918301919091526003015460608201526009549091906119bb908890886124c0565b905060007f00000000000000000000000000000000000000000000000000000000000000006001600160a01b031663e2036fd06040518163ffffffff1660e01b815260040160206040518083038186803b158015611a1857600080fd5b505afa158015611a2c573d6000803e3d6000fd5b505050506040513d601f19601f82011682018060405250810190611a509190615903565b905081811015611a605780611a62565b815b6008548451919250611a7391615932565b612710808386604001518760200151611a8c9190615968565b611a969190615968565b611aa09190615932565b611aaa9190615932565b611ab49190615996565b9550610d9e88611896565b611ac7613943565b6119446144e6565b80611ad981613a11565b50611ae382611c9e565b15611b3c5760405162461bcd60e51b815260206004820152602360248201527f4344503a3a6c69717569646174653a20434450206d75737420626520756e736160448201526233329760e91b6064820152608401610b17565b611b463383613c02565b5050565b6110c783838360405180602001604052806000815250612cd1565b81611b6f81613a11565b50611b78613b3e565b3383611b848282613b84565b611ba05760405162461bcd60e51b8152600401610b17906159df565b6113a0338686614296565b6000611c5084837f00000000000000000000000000000000000000000000000000000000000000006001600160a01b0316632694d5e7876040518263ffffffff1660e01b8152600401611c0091815260200190565b60206040518083038186803b158015611c1857600080fd5b505afa158015611c2c573d6000803e3d6000fd5b505050506040513d601f19601f820116820180604052508101906107ab9190615903565b949350505050565b611c60613943565b600a80549082905560408051828152602081018490527fdbbbb176683582b710ef3349793b8d62658724a9d9b54deccf193c4b0aa90c4c9101610faa565b6000612710611cac83612d34565b1092915050565b6000611cc161271080615932565b826008548561187b9190615932565b600082611cdc81613a11565b50611ce5613b3e565b612710611cf0613481565b10611d0d5760405162461bcd60e51b8152600401610b1790615acf565b611d16336116d5565b604051631957dd9f60e21b81526001600160a01b037f0000000000000000000000000000000000000000000000000000000000000000169063655f767c90611d649030908790600401615b14565b602060405180830381600087803b158015611d7e57600080fd5b505af1158015611d92573d6000803e3d6000fd5b505050506040513d601f19601f82011682018060405250810190611db69190615903565b9150611dc3308584614538565b5092915050565b60007f00000000000000000000000000000000000000000000000000000000000000006001600160a01b031663d5aa33d2611e068685876124c0565b6040518263ffffffff1660e01b8152600401611e2491815260200190565b60206040518083038186803b158015611e3c57600080fd5b505afa158015611e50573d6000803e3d6000fd5b505050506040513d601f19601f82011682018060405250810190611e749190615903565b90506127107f00000000000000000000000000000000000000000000000000000000000000006001600160a01b0316632761d6ef6040518163ffffffff1660e01b815260040160206040518083038186803b158015611ed257600080fd5b505afa158015611ee6573d6000803e3d6000fd5b505050506040513d601f19601f82011682018060405250810190611f0a9190615903565b611f1690612710615968565b611f209083615932565b611c509190615996565b60008083611f3781613a11565b50611f40613b3e565b3385611f4c8282613b84565b611f685760405162461bcd60e51b8152600401610b17906159df565b6000611f7388611896565b9050611f8033898961489b565b6000611f8e898360006124c0565b9050611f9b308a836149b3565b60405163423e797960e01b81526001600160a01b037f0000000000000000000000000000000000000000000000000000000000000000169063423e797990611fe9908d908590600401615b14565b6040805180830381600087803b15801561200257600080fd5b505af1158015612016573d6000803e3d6000fd5b505050506040513d601f19601f8201168201806040525081019061203a9190615a2f565b909b909a5098505050505050505050565b60008083600e5481106120705760405162461bcd60e51b8152600401610b17906158bc565b60085461207d9085615932565b612710807f00000000000000000000000000000000000000000000000000000000000000006001600160a01b031663e2036fd06040518163ffffffff1660e01b815260040160206040518083038186803b1580156120da57600080fd5b505afa1580156120ee573d6000803e3d6000fd5b505050506040513d601f19601f820116820180604052508101906121129190615903565b61211c9190615932565b6121269190615932565b610f5e9190615996565b60008083600e5481106121555760405162461bcd60e51b8152600401610b17906158bc565b6000858152600d6020908152604091829020825160808101845281548152600182015492810192909252600281015492820192909252600390910154606082015261219f86611896565b604051631dc7631360e01b8152600481018790529094506000906001600160a01b037f00000000000000000000000000000000000000000000000000000000000000001690631dc763139060240160206040518083038186803b15801561220557600080fd5b505afa158015612219573d6000803e3d6000fd5b505050506040513d601f19601f8201168201806040525081019061223d9190615903565b600854835191925061224e91615932565b612710808385602001516122629190615951565b61226c9190615932565b6122769190615932565b6122809190615996565b93505050509250929050565b6000818152600260205260408120546001600160a01b031680610aec5760405162461bcd60e51b8152602060048201526018602482015277115490cdcc8c4e881a5b9d985b1a59081d1bdad95b88125160421b6044820152606401610b17565b6000838152600d602090815260408083208151608081018352815481526001820154938101939093526002810154918301919091526003015460608201526008546123379085615932565b6127108085846040015185602001516123509190615968565b61235a9190615951565b6123649190615932565b61236e9190615932565b6123789190615996565b81516114b19190615951565b6040516370a0823160e01b81526001600160a01b03858116600483015260009182917f000000000000000000000000000000000000000000000000000000000000000016906370a082319060240160206040518083038186803b1580156123ea57600080fd5b505afa1580156123fe573d6000803e3d6000fd5b505050506040513d601f19601f820116820180604052508101906124229190615903565b915061242f8585856113ed565b905094509492505050565b60006001600160a01b0382166124a45760405162461bcd60e51b815260206004820152602960248201527f4552433732313a2061646472657373207a65726f206973206e6f7420612076616044820152683634b21037bbb732b960b91b6064820152608401610b17565b506001600160a01b031660009081526003602052604090205490565b6000838152600d60209081526040808320815160808101835281548152600182015493810184905260028201549281018390526003909101546060820152916125099190615968565b61251561271080615932565b856008548685600001516125299190615968565b6125339190615932565b61253d9190615932565b6125479190615996565b6114b19190615951565b612559613943565b6119446000614c35565b6000818152600d602090815260408083208151608081018352815480825260018301549482019490945260028201549281019290925260030154606082015290919081906125b085611896565b6040909101519395909450915050565b6000806125ce8686866124c0565b6040516302f0735360e11b815260048101829052602481018590529091507f00000000000000000000000000000000000000000000000000000000000000006001600160a01b0316906305e0e6a690604401604080518083038186803b15801561263757600080fd5b505afa15801561264b573d6000803e3d6000fd5b505050506040513d601f19601f8201168201806040525081019061266f9190615a2f565b509695505050505050565b604051630571ac8b60e41b81526001600160a01b037f0000000000000000000000000000000000000000000000000000000000000000811660048301527f0000000000000000000000000000000000000000000000000000000000000000169063571ac8b090602401600060405180830381600087803b1580156126fd57600080fd5b505af1158015612711573d6000803e3d6000fd5b5050604051630571ac8b60e41b81526001600160a01b037f0000000000000000000000000000000000000000000000000000000000000000811660048301527f000000000000000000000000000000000000000000000000000000000000000016925063571ac8b09150602401600060405180830381600087803b15801561279857600080fd5b505af1158015611111573d6000803e3d6000fd5b6127b4613943565b611944614c8f565b6000610aec82613a11565b606060018054610dba906159aa565b6127de613b3e565b826127e881613a11565b5033846127f58282613b84565b6128115760405162461bcd60e51b8152600401610b17906159df565b61281c33878761489b565b612827338786613d61565b505050505050565b60008060007f00000000000000000000000000000000000000000000000000000000000000006001600160a01b031663bf0b893a6040518163ffffffff1660e01b815260040160206040518083038186803b15801561288d57600080fd5b505afa1580156128a1573d6000803e3d6000fd5b505050506040513d601f19601f820116820180604052508101906128c59190615903565b9050600181116128dc576000809250925050612b41565b600e54861015612a72576000868152600d602090815260409182902082516080810184528154808252600183015493820193909352600282015493810193909352600301546060830152600954600854612a1a9261293b908a90615968565b6129459086615932565b61294f9190615932565b61271061295c8682615951565b7f00000000000000000000000000000000000000000000000000000000000000006001600160a01b031663872697296040518163ffffffff1660e01b815260040160206040518083038186803b1580156129b557600080fd5b505afa1580156129c9573d6000803e3d6000fd5b505050506040513d601f19601f820116820180604052508101906129ed9190615903565b6129f7908b615932565b612a019190615932565b612a0b9190615932565b612a159190615996565b614ccc565b9350612a6a6001600854888460000151612a349190615968565b612a3e9190615932565b612710808560200151612a519190615932565b612a5b9190615932565b612a659190615996565b614ce2565b925050611351565b612b396009546008548784612a879190615932565b612a919190615932565b612710612a9e8582615951565b7f00000000000000000000000000000000000000000000000000000000000000006001600160a01b031663872697296040518163ffffffff1660e01b815260040160206040518083038186803b158015612af757600080fd5b505afa158015612b0b573d6000803e3d6000fd5b505050506040513d601f19601f82011682018060405250810190612b2f9190615903565b6129f7908a615932565b925060019150505b935093915050565b6040516370a0823160e01b81526001600160a01b0383811660048301526000918291829182917f000000000000000000000000000000000000000000000000000000000000000016906370a082319060240160206040518083038186803b158015612bb357600080fd5b505afa158015612bc7573d6000803e3d6000fd5b505050506040513d601f19601f82011682018060405250810190612beb9190615903565b60405163db344ba360e01b8152600481018290529094506000906001600160a01b037f0000000000000000000000000000000000000000000000000000000000000000169063db344ba39060240160606040518083038186803b158015612c5157600080fd5b505afa158015612c65573d6000803e3d6000fd5b505050506040513d601f19601f82011682018060405250810190612c899190615a53565b50600e54909350909150861015612caa57612ca386611896565b9250612cb0565b610fa092505b612cba818461185e565b93505092959194509250565b611b46338383614cf1565b612cdb3383613b84565b612cf75760405162461bcd60e51b8152600401610b1790615a81565b61111184848484614dc0565b6000612d0d613b3e565b33612d1781614df3565b9150612d2282613a11565b50612d2e81838561489b565b50919050565b6000818152600d602090815260408083208151608081018352815480825260018301549482019490945260028201549281019290925260030154606082015260095460085491929091612d8691615932565b612d909190615932565b6127108061271084604001518560200151612dab9190615968565b61190d9190615932565b6060612dc0826138e4565b6000612dd760408051602081019091526000815290565b90506000815111612df7576040518060200160405280600081525061192b565b80612e0184614e78565b604051602001612e12929190615b2d565b6040516020818303038152906040529392505050565b600083612e3481613a11565b50612e3d613b3e565b3385612e498282613b84565b612e655760405162461bcd60e51b8152600401610b17906159df565b612710612e70613481565b10612e8d5760405162461bcd60e51b8152600401610b1790615acf565b33612ec37f00000000000000000000000000000000000000000000000000000000000000006001600160a01b031682308a614432565b604051631957dd9f60e21b81526001600160a01b037f0000000000000000000000000000000000000000000000000000000000000000169063655f767c90612f119030908b90600401615b14565b602060405180830381600087803b158015612f2b57600080fd5b505af1158015612f3f573d6000803e3d6000fd5b505050506040513d601f19601f82011682018060405250810190612f639190615903565b9450612f70308987614538565b6000612f7e898860006122ec565b9050612f8b8a8a83614296565b5050505050949350505050565b60008060008060007f00000000000000000000000000000000000000000000000000000000000000006001600160a01b03166370a08231886040518263ffffffff1660e01b8152600401612ffb91906001600160a01b0391909116815260200190565b60206040518083038186803b15801561301357600080fd5b505afa158015613027573d6000803e3d6000fd5b505050506040513d601f19601f8201168201806040525081019061304b9190615903565b6040516370a0823160e01b81526001600160a01b0389811660048301529192506000917f000000000000000000000000000000000000000000000000000000000000000016906370a082319060240160206040518083038186803b1580156130b257600080fd5b505afa1580156130c6573d6000803e3d6000fd5b505050506040513d601f19601f820116820180604052508101906130ea9190615903565b90506000600e548810156131155761310188611896565b955061310e8884886124c0565b9050613127565b610fa095506131248387611cb3565b90505b6040516302f0735360e11b815260048101829052602481018390527f00000000000000000000000000000000000000000000000000000000000000006001600160a01b0316906305e0e6a690604401604080518083038186803b15801561318d57600080fd5b505afa1580156131a1573d6000803e3d6000fd5b505050506040513d601f19601f820116820180604052508101906131c59190615a2f565b50604051630f5510c160e31b81526004810182905290945061326b907f00000000000000000000000000000000000000000000000000000000000000006001600160a01b031690637aa886089060240160206040518083038186803b15801561322d57600080fd5b505afa158015613241573d6000803e3d6000fd5b505050506040513d601f19601f820116820180604052508101906132659190615903565b8761185e565b604051630e3cc56f60e41b8152600481018690529097507f00000000000000000000000000000000000000000000000000000000000000006001600160a01b03169063e3cc56f09060240160206040518083038186803b1580156132ce57600080fd5b505afa1580156132e2573d6000803e3d6000fd5b505050506040513d601f19601f820116820180604052508101906133069190615903565b945050505092959194509250565b6040516375c2f59560e01b81526004810183905260009081906001600160a01b037f000000000000000000000000000000000000000000000000000000000000000016906375c2f5959060240160206040518083038186803b15801561337957600080fd5b505afa15801561338d573d6000803e3d6000fd5b505050506040513d601f19601f820116820180604052508101906133b19190615903565b9050600e5485101561343e576000858152600d60209081526040918290208251608081018452815480825260018301549382018490526002830154948201949094526003909101546060820152919061340f9061132a908590615968565b6134199190615951565b92506134368382600001516611c37937e08000612a659190615951565b92505061345b565b613448818461185e565b91506114b1826611c37937e08000614ce2565b509392505050565b8161346d81613a11565b50613476613b3e565b6110c733848461417b565b6000600f54600014158015613497575060085415155b80156134a4575060095415155b156134e457600954600854600f546134bc9190615932565b6134c69190615932565b612710806127106010546134da9190615932565b610e879190615932565b90565b816134f181613a11565b506134fa613b3e565b6110c733848461489b565b6000808361351281613a11565b5061351b613b3e565b33856135278282613b84565b6135435760405162461bcd60e51b8152600401610b17906159df565b6000613551888860006124c0565b905061355e3089836149b3565b60405163423e797960e01b81526001600160a01b037f0000000000000000000000000000000000000000000000000000000000000000169063423e7979906135ac908c908590600401615b14565b6040805180830381600087803b1580156135c557600080fd5b505af11580156135d9573d6000803e3d6000fd5b505050506040513d601f19601f820116820180604052508101906135fd9190615a2f565b909a909950975050505050505050565b6040516370a0823160e01b81526001600160a01b03858116600483015260009182917f000000000000000000000000000000000000000000000000000000000000000016906370a082319060240160206040518083038186803b15801561367357600080fd5b505afa158015613687573d6000803e3d6000fd5b505050506040513d601f19601f820116820180604052508101906136ab9190615903565b915061242f858486613314565b60006136c2613b3e565b336136cc81614df3565b91506136d782613a11565b506136e381838661489b565b611dc3818385613d61565b6007546001600160a01b0316336001600160a01b0316146137775760405162461bcd60e51b815260206004820152603f60248201527f4f7261636c653a3a6f6e6c794f7261636c654665656465723a2053656e64657260448201527f206d7573742062652073616d65206173205f6f7261636c654665656465722e006064820152608401610b17565b600880549083905560408051828152602081018590527f00000000000000000000000000000000000000000000000000000000000000006001600160a01b0316917f7c3bda8adcb9df1edd0059da351d966538bcc99f067c0770872170ac97fb6887910160405180910390a2505050565b6137f0613943565b6001600160a01b0381166138555760405162461bcd60e51b815260206004820152602660248201527f4f776e61626c653a206e6577206f776e657220697320746865207a65726f206160448201526564647265737360d01b6064820152608401610b17565b6114fc81614c35565b613866613943565b600b80546001600160a01b038381166001600160a01b031983168117909355604080519190921680825260208201939093527f41d2755f00068d89c23ebc6f1e73ce119a6236a44517ca061f544a3f91c9bca49101610faa565b6000806138cb613b3e565b6138d433614df3565b91506138df81613a11565b505090565b6000818152600260205260409020546001600160a01b03166114fc5760405162461bcd60e51b8152602060048201526018602482015277115490cdcc8c4e881a5b9d985b1a59081d1bdad95b88125160421b6044820152606401610b17565b6006546001600160a01b036101009091041633146119445760405162461bcd60e51b815260206004820181905260248201527f4f776e61626c653a2063616c6c6572206973206e6f7420746865206f776e65726044820152606401610b17565b600081815260046020526040902080546001600160a01b0319166001600160a01b03841690811790915581906139d88261228c565b6001600160a01b03167f8c5be1e5ebec7d5bd14f71427d1e84f3dd0314c0f7b2291e5b200ac8c7c3b92560405160405180910390a45050565b600b546000906001600160a01b0316613a2c57506000919050565b6000828152600d6020526040812060038101546002820154919290914291613a5861271061016d615932565b613a63906018615932565b613a6e90603c615932565b613a7990603c615932565b600c54613a868686615951565b8760010154613a959190615932565b613a9f9190615932565b613aa99190615996565b955085856002016000828254613abf9190615968565b925050819055508560116000828254613ad89190615968565b90915550505060038401829055600284015460408051838152602081018390529081018590526060810184905287907f058060763f0c6ae3b30d3624dbb6899601ed67b215a0b7591707778c7218db2f9060800160405180910390a25050505050919050565b60065460ff16156119445760405162461bcd60e51b815260206004820152601060248201526f14185d5cd8589b194e881c185d5cd95960821b6044820152606401610b17565b600080613b908361228c565b9050806001600160a01b0316846001600160a01b03161480613bd757506001600160a01b0380821660009081526005602090815260408083209388168352929052205460ff165b80611c505750836001600160a01b0316613bf084610e3d565b6001600160a01b031614949350505050565b6000818152600d602052604090206001810154151580613c255750600281015415155b15613ce557613ce583837f00000000000000000000000000000000000000000000000000000000000000006001600160a01b031663199d525785600201548660010154613c729190615968565b6040518263ffffffff1660e01b8152600401613c9091815260200190565b60206040518083038186803b158015613ca857600080fd5b505afa158015613cbc573d6000803e3d6000fd5b505050506040513d601f19601f82011682018060405250810190613ce09190615903565b61417b565b805415613cfb57613cfb83838360000154614296565b613d0482614f76565b6000828152600d602052604080822082815560018101839055600281018390556003018290555183916001600160a01b038616917f684222b0069d4a2e5e0d986611cc5182d543904c4e4264bf770d4e51faefc8229190a3505050565b604051630f5510c160e31b8152600481018290526000907f00000000000000000000000000000000000000000000000000000000000000006001600160a01b031690637aa886089060240160206040518083038186803b158015613dc457600080fd5b505afa158015613dd8573d6000803e3d6000fd5b505050506040513d601f19601f82011682018060405250810190613dfc9190615903565b604051630e3cc56f60e41b8152600481018490529091506000906001600160a01b037f0000000000000000000000000000000000000000000000000000000000000000169063e3cc56f09060240160206040518083038186803b158015613e6257600080fd5b505afa158015613e76573d6000803e3d6000fd5b505050506040513d601f19601f82011682018060405250810190613e9a9190615903565b9050613ea73085846149b3565b613edc7f00000000000000000000000000000000000000000000000000000000000000006001600160a01b0316333084614432565b604051630ab714fb60e11b81526001600160a01b03868116600483015260248201849052604482018390527f0000000000000000000000000000000000000000000000000000000000000000169063156e29f690606401602060405180830381600087803b158015613f4d57600080fd5b505af1158015613f61573d6000803e3d6000fd5b505050506040513d601f19601f820116820180604052508101906128279190615903565b826001600160a01b0316613f988261228c565b6001600160a01b031614613ffc5760405162461bcd60e51b815260206004820152602560248201527f4552433732313a207472616e736665722066726f6d20696e636f72726563742060448201526437bbb732b960d91b6064820152608401610b17565b6001600160a01b03821661405e5760405162461bcd60e51b8152602060048201526024808201527f4552433732313a207472616e7366657220746f20746865207a65726f206164646044820152637265737360e01b6064820152608401610b17565b6140696000826139a3565b6001600160a01b0383166000908152600360205260408120805460019290614092908490615951565b90915550506001600160a01b03821660009081526003602052604081208054600192906140c0908490615968565b909155505060008181526002602052604080822080546001600160a01b0319166001600160a01b0386811691821790925591518493918716917fddf252ad1be2c89b69c2b068fc378daa952ba7f163c4a11628f55a4df523b3ef91a4505050565b600780546001600160a01b038381166001600160a01b031983168117909355604080519190921680825260208201939093527f6b2e9b3836edd552e454031d349dbf020544e4123c344f1ddb0a7a9a336adef99101610faa565b336141b17f00000000000000000000000000000000000000000000000000000000000000006001600160a01b0316823085614432565b6000807f00000000000000000000000000000000000000000000000000000000000000006001600160a01b0316631e9a695030866040518363ffffffff1660e01b8152600401614202929190615b14565b6040805180830381600087803b15801561421b57600080fd5b505af115801561422f573d6000803e3d6000fd5b505050506040513d601f19601f820116820180604052508101906142539190615a2f565b91509150614262308684614538565b6128276001600160a01b037f0000000000000000000000000000000000000000000000000000000000000000168783615011565b6000828152600d602052604081208054909183918391906142b8908490615951565b9250508190555081600f60008282546142d19190615951565b9091555061430b90506001600160a01b037f0000000000000000000000000000000000000000000000000000000000000000168584615011565b61431483611c9e565b6143775760405162461bcd60e51b815260206004820152602e60248201527f4344503a3a5f77697468647261773a20434450206f7065726174696f6e20657860448201526d31b2b2b2399036b0bc10262a2b1760911b6064820152608401610b17565b8054158061438d575080546611c37937e0800011155b6143e85760405162461bcd60e51b815260206004820152602660248201527f4344503a3a5f77697468647261773a204e6f7420656e6f75676820636f6c6c616044820152653a32b930b61760d11b6064820152608401610b17565b82846001600160a01b03167ff279e6a1f5e320cca91135676d9cb6e44ca8a08c0b88342bcdb1144f6511b5688460405161442491815260200190565b60405180910390a350505050565b6040516001600160a01b03808516602483015283166044820152606481018290526111119085906323b872dd60e01b906084015b60408051601f198184030181529190526020810180516001600160e01b03166001600160e01b031990931692909217909152615030565b60065460ff166119445760405162461bcd60e51b815260206004820152601460248201527314185d5cd8589b194e881b9bdd081c185d5cd95960621b6044820152606401610b17565b6144ee61449d565b6006805460ff191690557f5db9ee0a495bf2e6ff9c91a7834c1ba4fdd244a5e8aa4e537bd38aeae4b073aa335b6040516001600160a01b03909116815260200160405180910390a1565b6000828152600d60205260409020600b546001600160a01b0316158015906145635750600281015415155b156147ac57600b5460028201546001600160a01b0390911690831161463357828260020160008282546145969190615951565b9250508190555082601160008282546145af9190615951565b90915550506001600160a01b0385163014156145fe576145f96001600160a01b037f0000000000000000000000000000000000000000000000000000000000000000168285615011565b6147a6565b6145f96001600160a01b037f000000000000000000000000000000000000000000000000000000000000000016868386614432565b6001600160a01b03851630141561468457600282015461467f906001600160a01b037f000000000000000000000000000000000000000000000000000000000000000016908390615011565b6146c1565b60028201546146c1906001600160a01b037f0000000000000000000000000000000000000000000000000000000000000000169087908490614432565b60028201546146d09084615951565b8260010160008282546146e39190615951565b909155505060028201546146f79084615951565b601060008282546147089190615951565b925050819055507f00000000000000000000000000000000000000000000000000000000000000006001600160a01b03166379cc67908684600201548661474f9190615951565b6040518363ffffffff1660e01b815260040161476c929190615b14565b600060405180830381600087803b15801561478657600080fd5b505af115801561479a573d6000803e3d6000fd5b50506000600285015550505b5061485f565b818160010160008282546147c09190615951565b9250508190555081601060008282546147d99190615951565b909155505060405163079cc67960e41b81526001600160a01b037f000000000000000000000000000000000000000000000000000000000000000016906379cc67909061482c9087908690600401615b14565b600060405180830381600087803b15801561484657600080fd5b505af115801561485a573d6000803e3d6000fd5b505050505b82846001600160a01b03167f77c6871227e5d2dec8dadd5354f78453203e22e669cd0ec4c19d9a8c5edb31d08460405161442491815260200190565b6000828152600d602052604081208054909183918391906148bd908490615968565b9250508190555081600f60008282546148d69190615968565b9091555061491190506001600160a01b037f000000000000000000000000000000000000000000000000000000000000000016853085614432565b80546611c37937e0800011156149775760405162461bcd60e51b815260206004820152602560248201527f4344503a3a5f6465706f7369743a204e6f7420656e6f75676820636f6c6c617460448201526432b930b61760d91b6064820152608401610b17565b82846001600160a01b03167f90890809c654f11d6e72a28fa60149770a0d11ec6c92319d6ceb2bb0a4ea1a158460405161442491815260200190565b6127106149be613481565b106149db5760405162461bcd60e51b8152600401610b1790615acf565b6000828152600d60205260408120600181018054919284926149fe908490615968565b925050819055508160106000828254614a179190615968565b90915550506040516308934a5f60e31b81526001600160a01b037f0000000000000000000000000000000000000000000000000000000000000000169063449a52f890614a6a9087908690600401615b14565b600060405180830381600087803b158015614a8457600080fd5b505af1158015614a98573d6000803e3d6000fd5b50505050614aa583611c9e565b614b065760405162461bcd60e51b815260206004820152602c60248201527f4344503a3a5f626f72726f773a20434450206f7065726174696f6e206578636560448201526b32b2399036b0bc10262a2b1760a11b6064820152608401610b17565b600a547f00000000000000000000000000000000000000000000000000000000000000006001600160a01b03166318160ddd6040518163ffffffff1660e01b815260040160206040518083038186803b158015614b6257600080fd5b505afa158015614b76573d6000803e3d6000fd5b505050506040513d601f19601f82011682018060405250810190614b9a9190615903565b1115614bf95760405162461bcd60e51b815260206004820152602860248201527f4344503a3a5f626f72726f773a2043616e6e6f7420626f72726f772053494e2060448201526730b73cb6b7b9329760c11b6064820152608401610b17565b82846001600160a01b03167fe1979fe4c35e0cef342fef5668e2c8e7a7e9f5d5d1ca8fee0ac6c427fa4153af8460405161442491815260200190565b600680546001600160a01b03838116610100818102610100600160a81b031985161790945560405193909204169182907f8be0079c531659141344cd1fd0a4f28419497f9722a3daafe3b4186f6b6457e090600090a35050565b614c97613b3e565b6006805460ff191660011790557f62e78cea01bee320cd4e420270b5ea74000d11b0c9f74754ebdbfc544b05a25861451b3390565b6000818310614cdb578161188f565b5090919050565b6000818311614cdb578161188f565b816001600160a01b0316836001600160a01b03161415614d535760405162461bcd60e51b815260206004820152601960248201527f4552433732313a20617070726f766520746f2063616c6c6572000000000000006044820152606401610b17565b6001600160a01b03838116600081815260056020908152604080832094871680845294825291829020805460ff191686151590811790915591519182527f17307eab39ab6107e8899845ad3d59bd9653f200f220920489ca2b5937696c31910160405180910390a3505050565b614dcb848484613f85565b614dd784848484615102565b6111115760405162461bcd60e51b8152600401610b1790615b5c565b6000612710614e00613481565b10614e1d5760405162461bcd60e51b8152600401610b1790615acf565b600e8054906000614e2d83615bae565b919050559050614e3d828261520f565b60405181906001600160a01b038416907f50042401acb675fedd6dd939fccc629832ce60fa4185df25c01b20e8def195bf90600090a3919050565b606081614e9c5750506040805180820190915260018152600360fc1b602082015290565b8160005b8115614ec65780614eb081615bae565b9150614ebf9050600a83615996565b9150614ea0565b60008167ffffffffffffffff811115614ee157614ee1615797565b6040519080825280601f01601f191660200182016040528015614f0b576020820181803683370190505b5090505b8415611c5057614f20600183615951565b9150614f2d600a86615bc9565b614f38906030615968565b60f81b818381518110614f4d57614f4d615bdd565b60200101906001600160f81b031916908160001a905350614f6f600a86615996565b9450614f0f565b6000614f818261228c565b9050614f8e6000836139a3565b6001600160a01b0381166000908152600360205260408120805460019290614fb7908490615951565b909155505060008281526002602052604080822080546001600160a01b0319169055518391906001600160a01b038416907fddf252ad1be2c89b69c2b068fc378daa952ba7f163c4a11628f55a4df523b3ef908390a45050565b6110c78363a9059cbb60e01b8484604051602401614466929190615b14565b6000615085826040518060400160405280602081526020017f5361666545524332303a206c6f772d6c6576656c2063616c6c206661696c6564815250856001600160a01b03166152299092919063ffffffff16565b8051909150156110c757808060200190518101906150a39190615bf3565b6110c75760405162461bcd60e51b815260206004820152602a60248201527f5361666545524332303a204552433230206f7065726174696f6e20646964206e6044820152691bdd081cdd58d8d9595960b21b6064820152608401610b17565b60006001600160a01b0384163b1561520457604051630a85bd0160e11b81526001600160a01b0385169063150b7a0290615146903390899088908890600401615c10565b602060405180830381600087803b15801561516057600080fd5b505af1925050508015615190575060408051601f3d908101601f1916820190925261518d91810190615c4d565b60015b6151ea573d8080156151be576040519150601f19603f3d011682016040523d82523d6000602084013e6151c3565b606091505b5080516151e25760405162461bcd60e51b8152600401610b1790615b5c565b805181602001fd5b6001600160e01b031916630a85bd0160e11b149050611c50565b506001949350505050565b611b46828260405180602001604052806000815250615238565b6060611c50848460008561526b565b615242838361539c565b61524f6000848484615102565b6110c75760405162461bcd60e51b8152600401610b1790615b5c565b6060824710156152cc5760405162461bcd60e51b815260206004820152602660248201527f416464726573733a20696e73756666696369656e742062616c616e636520666f6044820152651c8818d85b1b60d21b6064820152608401610b17565b6001600160a01b0385163b6153235760405162461bcd60e51b815260206004820152601d60248201527f416464726573733a2063616c6c20746f206e6f6e2d636f6e74726163740000006044820152606401610b17565b600080866001600160a01b0316858760405161533f9190615c6a565b60006040518083038185875af1925050503d806000811461537c576040519150601f19603f3d011682016040523d82523d6000602084013e615381565b606091505b50915091506153918282866154de565b979650505050505050565b6001600160a01b0382166153f25760405162461bcd60e51b815260206004820181905260248201527f4552433732313a206d696e7420746f20746865207a65726f20616464726573736044820152606401610b17565b6000818152600260205260409020546001600160a01b0316156154575760405162461bcd60e51b815260206004820152601c60248201527f4552433732313a20746f6b656e20616c7265616479206d696e746564000000006044820152606401610b17565b6001600160a01b0382166000908152600360205260408120805460019290615480908490615968565b909155505060008181526002602052604080822080546001600160a01b0319166001600160a01b03861690811790915590518392907fddf252ad1be2c89b69c2b068fc378daa952ba7f163c4a11628f55a4df523b3ef908290a45050565b606083156154ed57508161188f565b8251156154fd5782518084602001fd5b8160405162461bcd60e51b8152600401610b1791906155c4565b6001600160e01b0319811681146114fc57600080fd5b60006020828403121561553f57600080fd5b813561188f81615517565b6000806040838503121561555d57600080fd5b50508035926020909101359150565b60005b8381101561558757818101518382015260200161556f565b838111156111115750506000910152565b600081518084526155b081602086016020860161556c565b601f01601f19169290920160200192915050565b60208152600061188f6020830184615598565b6000602082840312156155e957600080fd5b5035919050565b80356001600160a01b038116811461192f57600080fd5b6000806040838503121561561a57600080fd5b615623836155f0565b946020939093013593505050565b60008060006060848603121561564657600080fd5b505081359360208301359350604090920135919050565b60008060006060848603121561567257600080fd5b61567b846155f0565b9250615689602085016155f0565b9150604084013590509250925092565b6000602082840312156156ab57600080fd5b61188f826155f0565b6000806000606084860312156156c957600080fd5b6156d2846155f0565b95602085013595506040909401359392505050565b600080600080608085870312156156fd57600080fd5b615706856155f0565b966020860135965060408601359560600135945092505050565b6000806000806080858703121561573657600080fd5b5050823594602084013594506040840135936060013592509050565b80151581146114fc57600080fd5b6000806040838503121561577357600080fd5b61577c836155f0565b9150602083013561578c81615752565b809150509250929050565b634e487b7160e01b600052604160045260246000fd5b600080600080608085870312156157c357600080fd5b6157cc856155f0565b93506157da602086016155f0565b925060408501359150606085013567ffffffffffffffff808211156157fe57600080fd5b818701915087601f83011261581257600080fd5b81358181111561582457615824615797565b604051601f8201601f19908116603f0116810190838211818310171561584c5761584c615797565b816040528281528a602084870101111561586557600080fd5b82602086016020830137600060208483010152809550505050505092959194509250565b6000806040838503121561589c57600080fd5b6158a5836155f0565b91506158b3602084016155f0565b90509250929050565b60208082526027908201527f4344503a3a696452616e6765436865636b3a20496e76616c69642072616e67656040820152661037b31034b21760c91b606082015260800190565b60006020828403121561591557600080fd5b5051919050565b634e487b7160e01b600052601160045260246000fd5b600081600019048311821515161561594c5761594c61591c565b500290565b6000828210156159635761596361591c565b500390565b6000821982111561597b5761597b61591c565b500190565b634e487b7160e01b600052601260045260246000fd5b6000826159a5576159a5615980565b500490565b600181811c908216806159be57607f821691505b60208210811415612d2e57634e487b7160e01b600052602260045260246000fd5b60208082526030908201527f4344503a3a6f6e6c79436470417070726f7665644f724f776e65723a204e6f7460408201526f1030903b30b634b21031b0b63632b91760811b606082015260800190565b60008060408385031215615a4257600080fd5b505080516020909101519092909150565b600080600060608486031215615a6857600080fd5b8351925060208401519150604084015190509250925092565b6020808252602e908201527f4552433732313a2063616c6c6572206973206e6f7420746f6b656e206f776e6560408201526d1c881b9bdc88185c1c1c9bdd995960921b606082015260800190565b60208082526025908201527f4344503a3a6f6e6c79476c6f62616c6c794865616c7468793a204e6f7420686560408201526430b63a3c9760d91b606082015260800190565b6001600160a01b03929092168252602082015260400190565b60008351615b3f81846020880161556c565b835190830190615b5381836020880161556c565b01949350505050565b60208082526032908201527f4552433732313a207472616e7366657220746f206e6f6e20455243373231526560408201527131b2b4bb32b91034b6b83632b6b2b73a32b960711b606082015260800190565b6000600019821415615bc257615bc261591c565b5060010190565b600082615bd857615bd8615980565b500690565b634e487b7160e01b600052603260045260246000fd5b600060208284031215615c0557600080fd5b815161188f81615752565b6001600160a01b0385811682528416602082015260408101839052608060608201819052600090615c4390830184615598565b9695505050505050565b600060208284031215615c5f57600080fd5b815161188f81615517565b60008251615c7c81846020870161556c565b919091019291505056fea264697066735822122014fdefa1194c89d024ef6966d0a038c24c8a4ff3c5905a98ffb96b3f4826f47b64736f6c63430008090033206d757374206265206e6f6e7a65726f2e0000000000000000000000000000004e6f6e7a65726f3a3a6e6f6e7a65726f416464726573733a204163636f756e74",
  "linkReferences": {},
  "deployedLinkReferences": {}
}