{
  "_format": "hh-sol-artifact-1",
  "contractName": "FoxFarm",
  "sourceName": "contracts/FoxFarm.sol",
  "abi": [
    {
      "inputs": [
        {
          "internalType": "address",
          "name": "oracleFeeder_",
          "type": "address"
        },
        {
          "internalType": "address",
          "name": "feeTo_",
          "type": "address"
        },
        {
          "internalType": "address",
          "name": "collateralToken_",
          "type": "address"
        },
        {
          "internalType": "address",
          "name": "debtToken_",
          "type": "address"
        },
        {
          "internalType": "address",
          "name": "shareToken_",
          "type": "address"
        },
        {
          "internalType": "address",
          "name": "stableToken_",
          "type": "address"
        },
        {
          "internalType": "address",
          "name": "coupon_",
          "type": "address"
        },
        {
          "internalType": "uint256",
          "name": "maxLTV_",
          "type": "uint256"
        },
        {
          "internalType": "uint256",
          "name": "cap_",
          "type": "uint256"
        },
        {
          "internalType": "uint256",
          "name": "feeRatio_",
          "type": "uint256"
        }
      ],
      "stateMutability": "nonpayable",
      "type": "constructor"
    },
    {
      "anonymous": false,
      "inputs": [
        {
          "indexed": true,
          "internalType": "address",
          "name": "owner",
          "type": "address"
        },
        {
          "indexed": true,
          "internalType": "address",
          "name": "approved",
          "type": "address"
        },
        {
          "indexed": true,
          "internalType": "uint256",
          "name": "tokenId",
          "type": "uint256"
        }
      ],
      "name": "Approval",
      "type": "event"
    },
    {
      "anonymous": false,
      "inputs": [
        {
          "indexed": true,
          "internalType": "address",
          "name": "owner",
          "type": "address"
        },
        {
          "indexed": true,
          "internalType": "address",
          "name": "operator",
          "type": "address"
        },
        {
          "indexed": false,
          "internalType": "bool",
          "name": "approved",
          "type": "bool"
        }
      ],
      "name": "ApprovalForAll",
      "type": "event"
    },
    {
      "anonymous": false,
      "inputs": [
        {
          "indexed": true,
          "internalType": "address",
          "name": "account_",
          "type": "address"
        },
        {
          "indexed": true,
          "internalType": "uint256",
          "name": "id_",
          "type": "uint256"
        },
        {
          "indexed": false,
          "internalType": "uint256",
          "name": "amount",
          "type": "uint256"
        }
      ],
      "name": "Borrow",
      "type": "event"
    },
    {
      "anonymous": false,
      "inputs": [
        {
          "indexed": true,
          "internalType": "address",
          "name": "account_",
          "type": "address"
        },
        {
          "indexed": true,
          "internalType": "uint256",
          "name": "id_",
          "type": "uint256"
        }
      ],
      "name": "Close",
      "type": "event"
    },
    {
      "anonymous": false,
      "inputs": [
        {
          "indexed": true,
          "internalType": "address",
          "name": "account_",
          "type": "address"
        },
        {
          "indexed": true,
          "internalType": "uint256",
          "name": "id_",
          "type": "uint256"
        },
        {
          "indexed": false,
          "internalType": "uint256",
          "name": "amount",
          "type": "uint256"
        }
      ],
      "name": "Deposit",
      "type": "event"
    },
    {
      "anonymous": false,
      "inputs": [
        {
          "indexed": true,
          "internalType": "address",
          "name": "account_",
          "type": "address"
        },
        {
          "indexed": true,
          "internalType": "uint256",
          "name": "id_",
          "type": "uint256"
        }
      ],
      "name": "Open",
      "type": "event"
    },
    {
      "anonymous": false,
      "inputs": [
        {
          "indexed": true,
          "internalType": "address",
          "name": "previousOwner",
          "type": "address"
        },
        {
          "indexed": true,
          "internalType": "address",
          "name": "newOwner",
          "type": "address"
        }
      ],
      "name": "OwnershipTransferred",
      "type": "event"
    },
    {
      "anonymous": false,
      "inputs": [
        {
          "indexed": false,
          "internalType": "address",
          "name": "account",
          "type": "address"
        }
      ],
      "name": "Paused",
      "type": "event"
    },
    {
      "anonymous": false,
      "inputs": [
        {
          "indexed": true,
          "internalType": "address",
          "name": "account_",
          "type": "address"
        },
        {
          "indexed": true,
          "internalType": "uint256",
          "name": "id_",
          "type": "uint256"
        },
        {
          "indexed": false,
          "internalType": "uint256",
          "name": "amount",
          "type": "uint256"
        }
      ],
      "name": "Repay",
      "type": "event"
    },
    {
      "anonymous": false,
      "inputs": [
        {
          "indexed": false,
          "internalType": "uint256",
          "name": "prevCap",
          "type": "uint256"
        },
        {
          "indexed": false,
          "internalType": "uint256",
          "name": "currCap",
          "type": "uint256"
        }
      ],
      "name": "SetCap",
      "type": "event"
    },
    {
      "anonymous": false,
      "inputs": [
        {
          "indexed": false,
          "internalType": "uint256",
          "name": "prevFeeRatio",
          "type": "uint256"
        },
        {
          "indexed": false,
          "internalType": "uint256",
          "name": "currFeeRatio",
          "type": "uint256"
        }
      ],
      "name": "SetFeeRatio",
      "type": "event"
    },
    {
      "anonymous": false,
      "inputs": [
        {
          "indexed": false,
          "internalType": "address",
          "name": "prevFeeTo",
          "type": "address"
        },
        {
          "indexed": false,
          "internalType": "address",
          "name": "currFeeTo",
          "type": "address"
        }
      ],
      "name": "SetFeeTo",
      "type": "event"
    },
    {
      "anonymous": false,
      "inputs": [
        {
          "indexed": false,
          "internalType": "uint256",
          "name": "prevMaxLTV",
          "type": "uint256"
        },
        {
          "indexed": false,
          "internalType": "uint256",
          "name": "currMaxLTV",
          "type": "uint256"
        }
      ],
      "name": "SetMaxLTV",
      "type": "event"
    },
    {
      "anonymous": false,
      "inputs": [
        {
          "indexed": true,
          "internalType": "address",
          "name": "from",
          "type": "address"
        },
        {
          "indexed": true,
          "internalType": "address",
          "name": "to",
          "type": "address"
        },
        {
          "indexed": true,
          "internalType": "uint256",
          "name": "tokenId",
          "type": "uint256"
        }
      ],
      "name": "Transfer",
      "type": "event"
    },
    {
      "anonymous": false,
      "inputs": [
        {
          "indexed": false,
          "internalType": "address",
          "name": "account",
          "type": "address"
        }
      ],
      "name": "Unpaused",
      "type": "event"
    },
    {
      "anonymous": false,
      "inputs": [
        {
          "indexed": true,
          "internalType": "uint256",
          "name": "id_",
          "type": "uint256"
        },
        {
          "indexed": false,
          "internalType": "uint256",
          "name": "prevFee",
          "type": "uint256"
        },
        {
          "indexed": false,
          "internalType": "uint256",
          "name": "currFee",
          "type": "uint256"
        },
        {
          "indexed": false,
          "internalType": "uint256",
          "name": "prevTimestamp",
          "type": "uint256"
        },
        {
          "indexed": false,
          "internalType": "uint256",
          "name": "currTimestamp",
          "type": "uint256"
        }
      ],
      "name": "Update",
      "type": "event"
    },
    {
      "anonymous": false,
      "inputs": [
        {
          "indexed": false,
          "internalType": "address",
          "name": "prevOracleFeeder",
          "type": "address"
        },
        {
          "indexed": false,
          "internalType": "address",
          "name": "currOracle",
          "type": "address"
        }
      ],
      "name": "UpdateOracleFeeder",
      "type": "event"
    },
    {
      "anonymous": false,
      "inputs": [
        {
          "indexed": true,
          "internalType": "address",
          "name": "token",
          "type": "address"
        },
        {
          "indexed": false,
          "internalType": "uint256",
          "name": "prevPrice",
          "type": "uint256"
        },
        {
          "indexed": false,
          "internalType": "uint256",
          "name": "currPrice",
          "type": "uint256"
        }
      ],
      "name": "UpdatePrice",
      "type": "event"
    },
    {
      "anonymous": false,
      "inputs": [
        {
          "indexed": true,
          "internalType": "address",
          "name": "account_",
          "type": "address"
        },
        {
          "indexed": true,
          "internalType": "uint256",
          "name": "id_",
          "type": "uint256"
        },
        {
          "indexed": false,
          "internalType": "uint256",
          "name": "amount",
          "type": "uint256"
        }
      ],
      "name": "Withdraw",
      "type": "event"
    },
    {
      "inputs": [
        {
          "internalType": "address",
          "name": "to",
          "type": "address"
        },
        {
          "internalType": "uint256",
          "name": "tokenId",
          "type": "uint256"
        }
      ],
      "name": "approve",
      "outputs": [],
      "stateMutability": "nonpayable",
      "type": "function"
    },
    {
      "inputs": [
        {
          "internalType": "address",
          "name": "owner",
          "type": "address"
        }
      ],
      "name": "balanceOf",
      "outputs": [
        {
          "internalType": "uint256",
          "name": "",
          "type": "uint256"
        }
      ],
      "stateMutability": "view",
      "type": "function"
    },
    {
      "inputs": [
        {
          "internalType": "uint256",
          "name": "id_",
          "type": "uint256"
        },
        {
          "internalType": "uint256",
          "name": "amount_",
          "type": "uint256"
        }
      ],
      "name": "borrow",
      "outputs": [],
      "stateMutability": "nonpayable",
      "type": "function"
    },
    {
      "inputs": [
        {
          "internalType": "uint256",
          "name": "id_",
          "type": "uint256"
        },
        {
          "internalType": "uint256",
          "name": "ltv_",
          "type": "uint256"
        },
        {
          "internalType": "uint256",
          "name": "collateralAmount_",
          "type": "uint256"
        }
      ],
      "name": "borrowAmountToLTV",
      "outputs": [
        {
          "internalType": "uint256",
          "name": "debtAmount_",
          "type": "uint256"
        }
      ],
      "stateMutability": "view",
      "type": "function"
    },
    {
      "inputs": [
        {
          "internalType": "address",
          "name": "account_",
          "type": "address"
        },
        {
          "internalType": "uint256",
          "name": "amount_",
          "type": "uint256"
        }
      ],
      "name": "buybackCoupon",
      "outputs": [
        {
          "internalType": "uint256",
          "name": "cid_",
          "type": "uint256"
        },
        {
          "internalType": "uint256",
          "name": "debtAmount_",
          "type": "uint256"
        }
      ],
      "stateMutability": "nonpayable",
      "type": "function"
    },
    {
      "inputs": [
        {
          "internalType": "uint256",
          "name": "id_",
          "type": "uint256"
        },
        {
          "internalType": "uint256",
          "name": "shareAmount_",
          "type": "uint256"
        }
      ],
      "name": "buybackRepayDebt",
      "outputs": [
        {
          "internalType": "uint256",
          "name": "debtAmount_",
          "type": "uint256"
        }
      ],
      "stateMutability": "nonpayable",
      "type": "function"
    },
    {
      "inputs": [
        {
          "internalType": "address",
          "name": "account_",
          "type": "address"
        },
        {
          "internalType": "uint256",
          "name": "id_",
          "type": "uint256"
        },
        {
          "internalType": "uint256",
          "name": "shareAmount_",
          "type": "uint256"
        },
        {
          "internalType": "uint256",
          "name": "ltv_",
          "type": "uint256"
        }
      ],
      "name": "buybackWithdrawCollateral",
      "outputs": [
        {
          "internalType": "uint256",
          "name": "debtAmount_",
          "type": "uint256"
        }
      ],
      "stateMutability": "nonpayable",
      "type": "function"
    },
    {
      "inputs": [],
      "name": "cap",
      "outputs": [
        {
          "internalType": "uint256",
          "name": "",
          "type": "uint256"
        }
      ],
      "stateMutability": "view",
      "type": "function"
    },
    {
      "inputs": [
        {
          "internalType": "uint256",
          "name": "id_",
          "type": "uint256"
        }
      ],
      "name": "cdpInfo",
      "outputs": [
        {
          "internalType": "uint256",
          "name": "collateralAmount_",
          "type": "uint256"
        },
        {
          "internalType": "uint256",
          "name": "ltv_",
          "type": "uint256"
        },
        {
          "internalType": "uint256",
          "name": "fee_",
          "type": "uint256"
        }
      ],
      "stateMutability": "view",
      "type": "function"
    },
    {
      "inputs": [
        {
          "internalType": "uint256",
          "name": "",
          "type": "uint256"
        }
      ],
      "name": "cdps",
      "outputs": [
        {
          "internalType": "uint256",
          "name": "collateral",
          "type": "uint256"
        },
        {
          "internalType": "uint256",
          "name": "debt",
          "type": "uint256"
        },
        {
          "internalType": "uint256",
          "name": "fee",
          "type": "uint256"
        },
        {
          "internalType": "uint256",
          "name": "latestUpdate",
          "type": "uint256"
        }
      ],
      "stateMutability": "view",
      "type": "function"
    },
    {
      "inputs": [
        {
          "internalType": "uint256",
          "name": "id_",
          "type": "uint256"
        }
      ],
      "name": "close",
      "outputs": [],
      "stateMutability": "nonpayable",
      "type": "function"
    },
    {
      "inputs": [
        {
          "internalType": "uint256",
          "name": "id_",
          "type": "uint256"
        }
      ],
      "name": "currentLTV",
      "outputs": [
        {
          "internalType": "uint256",
          "name": "ltv",
          "type": "uint256"
        }
      ],
      "stateMutability": "view",
      "type": "function"
    },
    {
      "inputs": [
        {
          "internalType": "uint256",
          "name": "id_",
          "type": "uint256"
        },
        {
          "internalType": "uint256",
          "name": "amount_",
          "type": "uint256"
        }
      ],
      "name": "deposit",
      "outputs": [],
      "stateMutability": "nonpayable",
      "type": "function"
    },
    {
      "inputs": [
        {
          "internalType": "uint256",
          "name": "id_",
          "type": "uint256"
        },
        {
          "internalType": "uint256",
          "name": "depositAmount_",
          "type": "uint256"
        },
        {
          "internalType": "uint256",
          "name": "borrowAmount_",
          "type": "uint256"
        }
      ],
      "name": "depositAndBorrow",
      "outputs": [],
      "stateMutability": "nonpayable",
      "type": "function"
    },
    {
      "inputs": [
        {
          "internalType": "uint256",
          "name": "id_",
          "type": "uint256"
        },
        {
          "internalType": "uint256",
          "name": "shareAmount_",
          "type": "uint256"
        },
        {
          "internalType": "uint256",
          "name": "ltv_",
          "type": "uint256"
        }
      ],
      "name": "exchangedCollateralAmountFromShareToLtv",
      "outputs": [
        {
          "internalType": "uint256",
          "name": "collateralAmount_",
          "type": "uint256"
        }
      ],
      "stateMutability": "view",
      "type": "function"
    },
    {
      "inputs": [
        {
          "internalType": "uint256",
          "name": "id_",
          "type": "uint256"
        },
        {
          "internalType": "uint256",
          "name": "collateralAmount_",
          "type": "uint256"
        },
        {
          "internalType": "uint256",
          "name": "ltv_",
          "type": "uint256"
        }
      ],
      "name": "exchangedShareAmountFromCollateralWithLtv",
      "outputs": [
        {
          "internalType": "uint256",
          "name": "shareAmount_",
          "type": "uint256"
        }
      ],
      "stateMutability": "view",
      "type": "function"
    },
    {
      "inputs": [
        {
          "internalType": "uint256",
          "name": "id_",
          "type": "uint256"
        },
        {
          "internalType": "uint256",
          "name": "newCollateralAmount_",
          "type": "uint256"
        },
        {
          "internalType": "uint256",
          "name": "ltv_",
          "type": "uint256"
        },
        {
          "internalType": "uint256",
          "name": "newShareAmount_",
          "type": "uint256"
        }
      ],
      "name": "expectedMintAmountToLtv",
      "outputs": [
        {
          "internalType": "uint256",
          "name": "newStableAmount_",
          "type": "uint256"
        }
      ],
      "stateMutability": "view",
      "type": "function"
    },
    {
      "inputs": [
        {
          "internalType": "uint256",
          "name": "id_",
          "type": "uint256"
        },
        {
          "internalType": "uint256",
          "name": "collectedStableAmount_",
          "type": "uint256"
        },
        {
          "internalType": "uint256",
          "name": "ltv_",
          "type": "uint256"
        }
      ],
      "name": "expectedRedeemAmountToLtv",
      "outputs": [
        {
          "internalType": "uint256",
          "name": "emittedCollateralAmount_",
          "type": "uint256"
        },
        {
          "internalType": "uint256",
          "name": "emittedShareAmount_",
          "type": "uint256"
        }
      ],
      "stateMutability": "view",
      "type": "function"
    },
    {
      "inputs": [
        {
          "internalType": "uint256",
          "name": "tokenId",
          "type": "uint256"
        }
      ],
      "name": "getApproved",
      "outputs": [
        {
          "internalType": "address",
          "name": "",
          "type": "address"
        }
      ],
      "stateMutability": "view",
      "type": "function"
    },
    {
      "inputs": [],
      "name": "getCollateralPrice",
      "outputs": [
        {
          "internalType": "uint256",
          "name": "",
          "type": "uint256"
        }
      ],
      "stateMutability": "view",
      "type": "function"
    },
    {
      "inputs": [],
      "name": "globalHealthFactor",
      "outputs": [
        {
          "internalType": "uint256",
          "name": "health",
          "type": "uint256"
        }
      ],
      "stateMutability": "view",
      "type": "function"
    },
    {
      "inputs": [],
      "name": "globalLTV",
      "outputs": [
        {
          "internalType": "uint256",
          "name": "ltv",
          "type": "uint256"
        }
      ],
      "stateMutability": "view",
      "type": "function"
    },
    {
      "inputs": [],
      "name": "globalLiquidate",
      "outputs": [],
      "stateMutability": "nonpayable",
      "type": "function"
    },
    {
      "inputs": [
        {
          "internalType": "uint256",
          "name": "id_",
          "type": "uint256"
        }
      ],
      "name": "healthFactor",
      "outputs": [
        {
          "internalType": "uint256",
          "name": "health",
          "type": "uint256"
        }
      ],
      "stateMutability": "view",
      "type": "function"
    },
    {
      "inputs": [],
      "name": "id",
      "outputs": [
        {
          "internalType": "uint256",
          "name": "",
          "type": "uint256"
        }
      ],
      "stateMutability": "view",
      "type": "function"
    },
    {
      "inputs": [],
      "name": "initialize",
      "outputs": [],
      "stateMutability": "nonpayable",
      "type": "function"
    },
    {
      "inputs": [
        {
          "internalType": "address",
          "name": "owner",
          "type": "address"
        },
        {
          "internalType": "address",
          "name": "operator",
          "type": "address"
        }
      ],
      "name": "isApprovedForAll",
      "outputs": [
        {
          "internalType": "bool",
          "name": "",
          "type": "bool"
        }
      ],
      "stateMutability": "view",
      "type": "function"
    },
    {
      "inputs": [
        {
          "internalType": "uint256",
          "name": "id_",
          "type": "uint256"
        }
      ],
      "name": "isSafe",
      "outputs": [
        {
          "internalType": "bool",
          "name": "",
          "type": "bool"
        }
      ],
      "stateMutability": "view",
      "type": "function"
    },
    {
      "inputs": [
        {
          "internalType": "uint256",
          "name": "id_",
          "type": "uint256"
        }
      ],
      "name": "liquidate",
      "outputs": [],
      "stateMutability": "nonpayable",
      "type": "function"
    },
    {
      "inputs": [
        {
          "internalType": "uint256",
          "name": "id_",
          "type": "uint256"
        },
        {
          "internalType": "uint256",
          "name": "shareAmount_",
          "type": "uint256"
        }
      ],
      "name": "ltvRangeWhenBuyback",
      "outputs": [
        {
          "internalType": "uint256",
          "name": "upperBound_",
          "type": "uint256"
        },
        {
          "internalType": "uint256",
          "name": "lowerBound_",
          "type": "uint256"
        }
      ],
      "stateMutability": "view",
      "type": "function"
    },
    {
      "inputs": [
        {
          "internalType": "uint256",
          "name": "id_",
          "type": "uint256"
        },
        {
          "internalType": "uint256",
          "name": "collateralAmount_",
          "type": "uint256"
        }
      ],
      "name": "ltvRangeWhenMint",
      "outputs": [
        {
          "internalType": "uint256",
          "name": "upperBound_",
          "type": "uint256"
        },
        {
          "internalType": "uint256",
          "name": "lowerBound_",
          "type": "uint256"
        }
      ],
      "stateMutability": "view",
      "type": "function"
    },
    {
      "inputs": [
        {
          "internalType": "uint256",
          "name": "id_",
          "type": "uint256"
        },
        {
          "internalType": "uint256",
          "name": "collectedStableAmount_",
          "type": "uint256"
        }
      ],
      "name": "ltvRangeWhenRedeem",
      "outputs": [
        {
          "internalType": "uint256",
          "name": "upperBound_",
          "type": "uint256"
        },
        {
          "internalType": "uint256",
          "name": "lowerBound_",
          "type": "uint256"
        }
      ],
      "stateMutability": "view",
      "type": "function"
    },
    {
      "inputs": [],
      "name": "maxLTV",
      "outputs": [
        {
          "internalType": "uint256",
          "name": "",
          "type": "uint256"
        }
      ],
      "stateMutability": "view",
      "type": "function"
    },
    {
      "inputs": [],
      "name": "name",
      "outputs": [
        {
          "internalType": "string",
          "name": "",
          "type": "string"
        }
      ],
      "stateMutability": "view",
      "type": "function"
    },
    {
      "inputs": [],
      "name": "open",
      "outputs": [
        {
          "internalType": "uint256",
          "name": "id_",
          "type": "uint256"
        }
      ],
      "stateMutability": "nonpayable",
      "type": "function"
    },
    {
      "inputs": [
        {
          "internalType": "uint256",
          "name": "amount_",
          "type": "uint256"
        }
      ],
      "name": "openAndDeposit",
      "outputs": [
        {
          "internalType": "uint256",
          "name": "id_",
          "type": "uint256"
        }
      ],
      "stateMutability": "nonpayable",
      "type": "function"
    },
    {
      "inputs": [
        {
          "internalType": "uint256",
          "name": "depositAmount_",
          "type": "uint256"
        },
        {
          "internalType": "uint256",
          "name": "borrowAmount_",
          "type": "uint256"
        }
      ],
      "name": "openAndDepositAndBorrow",
      "outputs": [
        {
          "internalType": "uint256",
          "name": "id_",
          "type": "uint256"
        }
      ],
      "stateMutability": "nonpayable",
      "type": "function"
    },
    {
      "inputs": [],
      "name": "owner",
      "outputs": [
        {
          "internalType": "address",
          "name": "",
          "type": "address"
        }
      ],
      "stateMutability": "view",
      "type": "function"
    },
    {
      "inputs": [
        {
          "internalType": "uint256",
          "name": "tokenId",
          "type": "uint256"
        }
      ],
      "name": "ownerOf",
      "outputs": [
        {
          "internalType": "address",
          "name": "",
          "type": "address"
        }
      ],
      "stateMutability": "view",
      "type": "function"
    },
    {
      "inputs": [
        {
          "internalType": "uint256",
          "name": "id_",
          "type": "uint256"
        },
        {
          "internalType": "uint256",
          "name": "cid_",
          "type": "uint256"
        }
      ],
      "name": "pairAnnihilation",
      "outputs": [],
      "stateMutability": "nonpayable",
      "type": "function"
    },
    {
      "inputs": [],
      "name": "pause",
      "outputs": [],
      "stateMutability": "nonpayable",
      "type": "function"
    },
    {
      "inputs": [],
      "name": "paused",
      "outputs": [
        {
          "internalType": "bool",
          "name": "",
          "type": "bool"
        }
      ],
      "stateMutability": "view",
      "type": "function"
    },
    {
      "inputs": [
        {
          "internalType": "address",
          "name": "account_",
          "type": "address"
        },
        {
          "internalType": "uint256",
          "name": "id_",
          "type": "uint256"
        },
        {
          "internalType": "uint256",
          "name": "amount_",
          "type": "uint256"
        }
      ],
      "name": "recollateralizeBorrowDebt",
      "outputs": [
        {
          "internalType": "uint256",
          "name": "shareAmount_",
          "type": "uint256"
        },
        {
          "internalType": "uint256",
          "name": "bonusAmount_",
          "type": "uint256"
        }
      ],
      "stateMutability": "nonpayable",
      "type": "function"
    },
    {
      "inputs": [
        {
          "internalType": "address",
          "name": "account_",
          "type": "address"
        },
        {
          "internalType": "uint256",
          "name": "id_",
          "type": "uint256"
        },
        {
          "internalType": "uint256",
          "name": "amount_",
          "type": "uint256"
        }
      ],
      "name": "recollateralizeDepositCollateral",
      "outputs": [
        {
          "internalType": "uint256",
          "name": "shareAmount_",
          "type": "uint256"
        },
        {
          "internalType": "uint256",
          "name": "bonusAmount_",
          "type": "uint256"
        }
      ],
      "stateMutability": "nonpayable",
      "type": "function"
    },
    {
      "inputs": [],
      "name": "renounceOwnership",
      "outputs": [],
      "stateMutability": "nonpayable",
      "type": "function"
    },
    {
      "inputs": [
        {
          "internalType": "uint256",
          "name": "id_",
          "type": "uint256"
        },
        {
          "internalType": "uint256",
          "name": "amount_",
          "type": "uint256"
        }
      ],
      "name": "repay",
      "outputs": [],
      "stateMutability": "nonpayable",
      "type": "function"
    },
    {
      "inputs": [
        {
          "internalType": "uint256",
          "name": "id_",
          "type": "uint256"
        },
        {
          "internalType": "uint256",
          "name": "repayAmount_",
          "type": "uint256"
        },
        {
          "internalType": "uint256",
          "name": "withdrawAmount_",
          "type": "uint256"
        }
      ],
      "name": "repayAndWithdraw",
      "outputs": [],
      "stateMutability": "nonpayable",
      "type": "function"
    },
    {
      "inputs": [
        {
          "internalType": "uint256",
          "name": "id_",
          "type": "uint256"
        },
        {
          "internalType": "uint256",
          "name": "newShareAmount_",
          "type": "uint256"
        },
        {
          "internalType": "uint256",
          "name": "ltv_",
          "type": "uint256"
        }
      ],
      "name": "requiredCollateralAmountFromShareToLtv",
      "outputs": [
        {
          "internalType": "uint256",
          "name": "collateralAmount_",
          "type": "uint256"
        }
      ],
      "stateMutability": "view",
      "type": "function"
    },
    {
      "inputs": [
        {
          "internalType": "uint256",
          "name": "id_",
          "type": "uint256"
        },
        {
          "internalType": "uint256",
          "name": "newCollateralAmount_",
          "type": "uint256"
        },
        {
          "internalType": "uint256",
          "name": "ltv_",
          "type": "uint256"
        }
      ],
      "name": "requiredShareAmountFromCollateralToLtv",
      "outputs": [
        {
          "internalType": "uint256",
          "name": "shareAmount_",
          "type": "uint256"
        }
      ],
      "stateMutability": "view",
      "type": "function"
    },
    {
      "inputs": [
        {
          "internalType": "address",
          "name": "from",
          "type": "address"
        },
        {
          "internalType": "address",
          "name": "to",
          "type": "address"
        },
        {
          "internalType": "uint256",
          "name": "tokenId",
          "type": "uint256"
        }
      ],
      "name": "safeTransferFrom",
      "outputs": [],
      "stateMutability": "nonpayable",
      "type": "function"
    },
    {
      "inputs": [
        {
          "internalType": "address",
          "name": "from",
          "type": "address"
        },
        {
          "internalType": "address",
          "name": "to",
          "type": "address"
        },
        {
          "internalType": "uint256",
          "name": "tokenId",
          "type": "uint256"
        },
        {
          "internalType": "bytes",
          "name": "data",
          "type": "bytes"
        }
      ],
      "name": "safeTransferFrom",
      "outputs": [],
      "stateMutability": "nonpayable",
      "type": "function"
    },
    {
      "inputs": [
        {
          "internalType": "address",
          "name": "operator",
          "type": "address"
        },
        {
          "internalType": "bool",
          "name": "approved",
          "type": "bool"
        }
      ],
      "name": "setApprovalForAll",
      "outputs": [],
      "stateMutability": "nonpayable",
      "type": "function"
    },
    {
      "inputs": [
        {
          "internalType": "uint256",
          "name": "newCap",
          "type": "uint256"
        }
      ],
      "name": "setCap",
      "outputs": [],
      "stateMutability": "nonpayable",
      "type": "function"
    },
    {
      "inputs": [
        {
          "internalType": "uint256",
          "name": "newFeeRatio",
          "type": "uint256"
        }
      ],
      "name": "setFeeRatio",
      "outputs": [],
      "stateMutability": "nonpayable",
      "type": "function"
    },
    {
      "inputs": [
        {
          "internalType": "address",
          "name": "newFeeTo",
          "type": "address"
        }
      ],
      "name": "setFeeTo",
      "outputs": [],
      "stateMutability": "nonpayable",
      "type": "function"
    },
    {
      "inputs": [
        {
          "internalType": "uint256",
          "name": "newMaxLTV",
          "type": "uint256"
        }
      ],
      "name": "setMaxLTV",
      "outputs": [],
      "stateMutability": "nonpayable",
      "type": "function"
    },
    {
      "inputs": [
        {
          "internalType": "uint256",
          "name": "id_",
          "type": "uint256"
        },
        {
          "internalType": "uint256",
          "name": "shareAmount_",
          "type": "uint256"
        }
      ],
      "name": "shareAmountRangeWhenBuyback",
      "outputs": [
        {
          "internalType": "uint256",
          "name": "upperBound_",
          "type": "uint256"
        },
        {
          "internalType": "uint256",
          "name": "lowerBound_",
          "type": "uint256"
        }
      ],
      "stateMutability": "view",
      "type": "function"
    },
    {
      "inputs": [
        {
          "internalType": "bytes4",
          "name": "interfaceId",
          "type": "bytes4"
        }
      ],
      "name": "supportsInterface",
      "outputs": [
        {
          "internalType": "bool",
          "name": "",
          "type": "bool"
        }
      ],
      "stateMutability": "view",
      "type": "function"
    },
    {
      "inputs": [],
      "name": "symbol",
      "outputs": [
        {
          "internalType": "string",
          "name": "",
          "type": "string"
        }
      ],
      "stateMutability": "view",
      "type": "function"
    },
    {
      "inputs": [
        {
          "internalType": "uint256",
          "name": "tokenId",
          "type": "uint256"
        }
      ],
      "name": "tokenURI",
      "outputs": [
        {
          "internalType": "string",
          "name": "",
          "type": "string"
        }
      ],
      "stateMutability": "view",
      "type": "function"
    },
    {
      "inputs": [],
      "name": "totalCollateral",
      "outputs": [
        {
          "internalType": "uint256",
          "name": "",
          "type": "uint256"
        }
      ],
      "stateMutability": "view",
      "type": "function"
    },
    {
      "inputs": [],
      "name": "totalDebt",
      "outputs": [
        {
          "internalType": "uint256",
          "name": "",
          "type": "uint256"
        }
      ],
      "stateMutability": "view",
      "type": "function"
    },
    {
      "inputs": [],
      "name": "totalFee",
      "outputs": [
        {
          "internalType": "uint256",
          "name": "",
          "type": "uint256"
        }
      ],
      "stateMutability": "view",
      "type": "function"
    },
    {
      "inputs": [
        {
          "internalType": "address",
          "name": "from",
          "type": "address"
        },
        {
          "internalType": "address",
          "name": "to",
          "type": "address"
        },
        {
          "internalType": "uint256",
          "name": "tokenId",
          "type": "uint256"
        }
      ],
      "name": "transferFrom",
      "outputs": [],
      "stateMutability": "nonpayable",
      "type": "function"
    },
    {
      "inputs": [
        {
          "internalType": "address",
          "name": "newOwner",
          "type": "address"
        }
      ],
      "name": "transferOwnership",
      "outputs": [],
      "stateMutability": "nonpayable",
      "type": "function"
    },
    {
      "inputs": [],
      "name": "unpause",
      "outputs": [],
      "stateMutability": "nonpayable",
      "type": "function"
    },
    {
      "inputs": [
        {
          "internalType": "uint256",
          "name": "newCollateralPrice",
          "type": "uint256"
        },
        {
          "internalType": "uint256",
          "name": "confidence",
          "type": "uint256"
        }
      ],
      "name": "updateCollateralPrice",
      "outputs": [],
      "stateMutability": "nonpayable",
      "type": "function"
    },
    {
      "inputs": [
        {
          "internalType": "uint256",
          "name": "id_",
          "type": "uint256"
        }
      ],
      "name": "updateFee",
      "outputs": [
        {
          "internalType": "uint256",
          "name": "additionalFee",
          "type": "uint256"
        }
      ],
      "stateMutability": "nonpayable",
      "type": "function"
    },
    {
      "inputs": [
        {
          "internalType": "address",
          "name": "newOracleFeeder",
          "type": "address"
        }
      ],
      "name": "updateOracleFeeder",
      "outputs": [],
      "stateMutability": "nonpayable",
      "type": "function"
    },
    {
      "inputs": [
        {
          "internalType": "uint256",
          "name": "id_",
          "type": "uint256"
        },
        {
          "internalType": "uint256",
          "name": "amount_",
          "type": "uint256"
        }
      ],
      "name": "withdraw",
      "outputs": [],
      "stateMutability": "nonpayable",
      "type": "function"
    },
    {
      "inputs": [
        {
          "internalType": "uint256",
          "name": "id_",
          "type": "uint256"
        },
        {
          "internalType": "uint256",
          "name": "ltv_",
          "type": "uint256"
        },
        {
          "internalType": "uint256",
          "name": "debtAmount_",
          "type": "uint256"
        }
      ],
      "name": "withdrawCollateralAmountToLTV",
      "outputs": [
        {
          "internalType": "uint256",
          "name": "collateralAmount_",
          "type": "uint256"
        }
      ],
      "stateMutability": "view",
      "type": "function"
    }
  ],
  "bytecode": "0x6101206040526127106008553480156200001857600080fd5b5060405162005841380380620058418339810160408190526200003b9162000560565b60405180604001604052806007815260200166466f784661726d60c81b815250604051806040016040528060068152602001650464f584344560d41b8152508b8b8b8b88888886898981600090805190602001906200009c9291906200049d565b508051620000b29060019060208401906200049d565b50506006805460ff1916905550620000ca336200037b565b600780546001600160a01b03199081166001600160a01b0393841617909155600b80549091169782169790971790965593851660805291841660a052600955600a55600c558d93508316151591506200017090505760405162461bcd60e51b815260206004820152603160248201526000805160206200582183398151915260448201526000805160206200580183398151915260648201526084015b60405180910390fd5b886001600160a01b038116620001cd5760405162461bcd60e51b8152602060048201526031602482015260008051602062005821833981519152604482015260008051602062005801833981519152606482015260840162000167565b886001600160a01b0381166200022a5760405162461bcd60e51b8152602060048201526031602482015260008051602062005821833981519152604482015260008051602062005801833981519152606482015260840162000167565b886001600160a01b038116620002875760405162461bcd60e51b8152602060048201526031602482015260008051602062005821833981519152604482015260008051602062005801833981519152606482015260840162000167565b886001600160a01b038116620002e45760405162461bcd60e51b8152602060048201526031602482015260008051602062005821833981519152604482015260008051602062005801833981519152606482015260840162000167565b886001600160a01b038116620003415760405162461bcd60e51b8152602060048201526031602482015260008051602062005821833981519152604482015260008051602062005801833981519152606482015260840162000167565b6001600160a01b03808d1660c0528b811660e0528a166101005262000365620003d5565b5050505050505050505050505050505062000651565b600680546001600160a01b03838116610100818102610100600160a81b031985161790945560405193909204169182907f8be0079c531659141344cd1fd0a4f28419497f9722a3daafe3b4186f6b6457e090600090a35050565b60a05160e051604051630571ac8b60e41b81526001600160a01b03918216600482015291169063571ac8b090602401600060405180830381600087803b1580156200041f57600080fd5b505af115801562000434573d6000803e3d6000fd5b505060c05160e051604051630571ac8b60e41b81526001600160a01b0391821660048201529116925063571ac8b09150602401600060405180830381600087803b1580156200048257600080fd5b505af115801562000497573d6000803e3d6000fd5b50505050565b828054620004ab9062000614565b90600052602060002090601f016020900481019282620004cf57600085556200051a565b82601f10620004ea57805160ff19168380011785556200051a565b828001600101855582156200051a579182015b828111156200051a578251825591602001919060010190620004fd565b50620005289291506200052c565b5090565b5b808211156200052857600081556001016200052d565b80516001600160a01b03811681146200055b57600080fd5b919050565b6000806000806000806000806000806101408b8d0312156200058157600080fd5b6200058c8b62000543565b99506200059c60208c0162000543565b9850620005ac60408c0162000543565b9750620005bc60608c0162000543565b9650620005cc60808c0162000543565b9550620005dc60a08c0162000543565b9450620005ec60c08c0162000543565b935060e08b015192506101008b015191506101208b015190509295989b9194979a5092959850565b600181811c908216806200062957607f821691505b602082108114156200064b57634e487b7160e01b600052602260045260246000fd5b50919050565b60805160a05160c05160e0516101005161504c620007b560003960008181610f3b01526115fd015260008181610a4401528181610b69015281816110340152818161129f015281816113c0015281816115440152818161182301528181611a6601528181611ba201528181611c3901528181611cc5015281816120ca0152818161216d015281816122060152818161231e015281816124310152818161276c0152818161285601528181612fbb01528181613104015281816131aa01528181613293015281816135e201526136170152600081816114fd01528181611a1f0152818161222e015281816127250152818161323601526136d001526000818161138101528181611b6301528181612195015281816139c801528181613a0101528181613a4d01528181613a8d01528181613b0701528181613beb015281816141e001526142b8015260008181612b1b015281816137450152613cdf015261504c6000f3fe608060405234801561001057600080fd5b506004361061041d5760003560e01c806361defc431161022b578063bc71054e11610130578063eb89ef78116100b8578063f384bd0511610087578063f384bd0514610961578063f46901ed1461096a578063f7683bbc1461097d578063fc7b9c1814610985578063fcfff16f1461098e57600080fd5b8063eb89ef78146108d3578063ee50e50b14610928578063efb2654d1461093b578063f2fde38b1461094e57600080fd5b8063d5935dc9116100ff578063d5935dc914610856578063d8aed14514610869578063dd8a04b31461087c578063e2bbb15814610884578063e985e9c51461089757600080fd5b8063bc71054e1461080a578063beb956001461081d578063c87b56dd14610830578063c990596d1461084357600080fd5b80638da5cb5b116101b35780639d917e0e116101825780639d917e0e146107b5578063a22cb465146107c8578063af640d0f146107db578063b88d4fde146107e4578063bb23c737146107f757600080fd5b80638da5cb5b146107715780639012c4a81461078757806395d89b411461079a5780639760a42b146107a257600080fd5b8063715018a6116101fa578063715018a61461071857806371f834e5146107205780637455efd41461074e5780638129fc1c146107615780638456cb591461076957600080fd5b806361defc43146106cc5780636352211e146106df5780636e7e01d1146106f257806370a082311461070557600080fd5b80632e2ddd4511610331578063441e6747116102b9578063531d2cd011610288578063531d2cd014610671578063571e5d24146106845780635a725b74146106975780635b529197146106ae5780635c975abb146106c157600080fd5b8063441e67471461062f57806347786d37146106425780634ac8eb5f146106555780634cb9c24a1461065e57600080fd5b806336bdbb131161030057806336bdbb13146105e65780633f4ba83a146105ee578063415f1240146105f657806342842e0e14610609578063441a3e701461061c57600080fd5b80632e2ddd45146105a45780632f297daa146105b757806333577114146105ca578063355274ea146105dd57600080fd5b80630b068e9c116103b45780631df4ccfc116103835780631df4ccfc1461054f57806321cdc50e14610558578063234ee4711461056b57806323b872dd1461057e578063262daf8e1461059157600080fd5b80630b068e9c146105035780630b0b6400146105165780630ecbcdab1461052957806319f4ff2f1461053c57600080fd5b8063083dd51b116103f0578063083dd51b146104b257806308a0c375146104c8578063095ea7b3146104dd5780630aebeb4e146104f057600080fd5b806301ffc9a714610422578063044de3551461044a57806306fdde0314610472578063081812fc14610487575b600080fd5b6104356104303660046148fe565b610996565b60405190151581526020015b60405180910390f35b61045d61045836600461491b565b6109e8565b60408051928352602083019190915201610441565b61047a610c78565b6040516104419190614995565b61049a6104953660046149a8565b610d0a565b6040516001600160a01b039091168152602001610441565b6104ba610d31565b604051908152602001610441565b6104db6104d63660046149a8565b610d6d565b005b6104db6104eb3660046149d8565b610dbb565b6104db6104fe3660046149a8565b610ed6565b6104db61051136600461491b565b610f1a565b61045d610524366004614a02565b61102d565b6104db61053736600461491b565b6111ae565b6104db61054a3660046149a8565b6111f3565b6104ba60115481565b6104ba610566366004614a02565b611239565b61045d610579366004614a2e565b61132b565b6104db61058c366004614a61565b611457565b6104db61059f366004614a9d565b611488565b6104db6105b2366004614a02565b61149c565b61045d6105c53660046149d8565b6114c5565b6104ba6105d83660046149a8565b611684565b6104ba600a5481565b6104db611722565b6104db611734565b6104db6106043660046149a8565b611744565b6104db610617366004614a61565b6117ba565b6104db61062a36600461491b565b6117d5565b6104ba61063d366004614a02565b61181a565b6104db6106503660046149a8565b6118c7565b6104ba600f5481565b61043561066c3660046149a8565b61190d565b61045d61067f36600461491b565b611922565b6104ba61069236600461491b565b6119e7565b61045d6106a536600461491b565b50600091829150565b61045d6106bc366004614a2e565b611b0d565b60065460ff16610435565b61045d6106da36600461491b565b611bd9565b61049a6106ed3660046149a8565b611e70565b6104ba610700366004614a02565b611ed0565b6104ba610713366004614a9d565b611f68565b6104db611fee565b61073361072e3660046149a8565b612000565b60408051938452602084019290925290820152606001610441565b6104ba61075c366004614ab8565b61205d565b6104db612156565b6104db612288565b60065461010090046001600160a01b031661049a565b6104ba6107953660046149a8565b612298565b61047a6122a3565b6104db6107b0366004614a02565b6122b2565b6104ba6107c3366004614a02565b612309565b6104db6107d6366004614af8565b6124ce565b6104ba600e5481565b6104db6107f2366004614b45565b6124dd565b6104ba6108053660046149a8565b61250f565b6104ba6108183660046149a8565b612540565b6104ba61082b366004614a02565b6125c1565b61047a61083e3660046149a8565b612652565b6104ba610851366004614c21565b6126c5565b6104ba610864366004614a02565b612833565b6104db61087736600461491b565b6129a5565b6104ba6129c2565b6104db61089236600461491b565b612a28565b6104356108a5366004614c5a565b6001600160a01b03918216600090815260056020908152604080832093909416825291909152205460ff1690565b6109086108e13660046149a8565b600d6020526000908152604090208054600182015460028301546003909301549192909184565b604080519485526020850193909352918301526060820152608001610441565b6104ba61093636600461491b565b612a44565b6104db61094936600461491b565b612a7a565b6104db61095c366004614a9d565b612b74565b6104ba60095481565b6104db610978366004614a9d565b612bea565b6008546104ba565b6104ba60105481565b6104ba612c4c565b60006001600160e01b031982166380ac58cd60e01b14806109c757506001600160e01b03198216635b5e139f60e01b145b806109e257506301ffc9a760e01b6001600160e01b03198316145b92915050565b6000828152600d60209081526040808320815160808101835281548152600182015481850152600282015481840152600390910154606082015260095482516379406dc560e11b81529251909493919284926001600160a01b037f0000000000000000000000000000000000000000000000000000000000000000169263d5aa33d292849263f280db8a92600480840193829003018186803b158015610a8d57600080fd5b505afa158015610aa1573d6000803e3d6000fd5b505050506040513d601f19601f82011682018060405250810190610ac59190614c8d565b6040518263ffffffff1660e01b8152600401610ae391815260200190565b60206040518083038186803b158015610afb57600080fd5b505afa158015610b0f573d6000803e3d6000fd5b505050506040513d601f19601f82011682018060405250810190610b339190614c8d565b905084811015610b435780610b45565b845b604051632694d5e760e01b8152600481018290529091506000906001600160a01b037f00000000000000000000000000000000000000000000000000000000000000001690632694d5e79060240160206040518083038186803b158015610bab57600080fd5b505afa158015610bbf573d6000803e3d6000fd5b505050506040513d601f19601f82011682018060405250810190610be39190614c8d565b6008548451919250610bf491614cbc565b612710808560400151848760200151610c0d9190614cdb565b610c179190614cf2565b610c219190614cbc565b610c2b9190614cbc565b610c359190614d20565b8351909450600090610c506127106611c37937e08000614cbc565b610c5a9190614d20565b9050808511610c695780610c6b565b845b9450505050509250929050565b606060008054610c8790614d34565b80601f0160208091040260200160405190810160405280929190818152602001828054610cb390614d34565b8015610d005780601f10610cd557610100808354040283529160200191610d00565b820191906000526020600020905b815481529060010190602001808311610ce357829003601f168201915b5050505050905090565b6000610d1582612c6e565b506000908152600460205260409020546001600160a01b031690565b6000600854600f54610d439190614cbc565b61271080601054610d549190614cbc565b610d5e9190614cbc565b610d689190614d20565b905090565b610d75612ccd565b600980549082905560408051828152602081018490527fe796e9ae748449310fcd1cc6718aab236c9b8d2e0e04dacb232ba564d5b338cc91015b60405180910390a15050565b6000610dc682611e70565b9050806001600160a01b0316836001600160a01b03161415610e395760405162461bcd60e51b815260206004820152602160248201527f4552433732313a20617070726f76616c20746f2063757272656e74206f776e656044820152603960f91b60648201526084015b60405180910390fd5b336001600160a01b0382161480610e555750610e5581336108a5565b610ec75760405162461bcd60e51b815260206004820152603e60248201527f4552433732313a20617070726f76652063616c6c6572206973206e6f7420746f60448201527f6b656e206f776e6572206e6f7220617070726f76656420666f7220616c6c00006064820152608401610e30565b610ed18383612d2d565b505050565b610ede612d9b565b3381610eea8282612de1565b610f065760405162461bcd60e51b8152600401610e3090614d6f565b610f0f83612e5f565b50610ed13384612f8c565b610f22612d9b565b604051630852cd8d60e31b8152600481018290526000907f00000000000000000000000000000000000000000000000000000000000000006001600160a01b0316906342966c68906024016040805180830381600087803b158015610f8657600080fd5b505af1158015610f9a573d6000803e3d6000fd5b505050506040513d601f19601f82011682018060405250810190610fbe9190614dbf565b6000858152600d60205260409020600281015491935091508211610ffb5781816002016000828254610ff09190614cdb565b909155506110279050565b60006002820181905561100e9083614cdb565b8160010160008282546110219190614cdb565b90915550505b50505050565b60008060007f00000000000000000000000000000000000000000000000000000000000000006001600160a01b0316631ddb6103866040518263ffffffff1660e01b815260040161108091815260200190565b60606040518083038186803b15801561109857600080fd5b505afa1580156110ac573d6000803e3d6000fd5b505050506040513d601f19601f820116820180604052508101906110d09190614de3565b50600e549093509091508610611115576008546110ed9085614cbc565b6127106110fa8184614cbc565b6111049190614cbc565b61110e9190614d20565b92506111a5565b6000868152600d602090815260409182902082516080810184528154815260018201549281019290925260028101549282019290925260039091015460608201526008546111639086614cbc565b612710808484602001516111779190614cdb565b6111819190614cbc565b61118b9190614cbc565b6111959190614d20565b81516111a19190614cdb565b9350505b50935093915050565b6111b6612d9b565b33826111c28282612de1565b6111de5760405162461bcd60e51b8152600401610e3090614d6f565b6111e784612e5f565b506110273385856130eb565b6111fb612ccd565b600c80549082905560408051828152602081018490527f249ce3aa19ca005081b3e7143ee5f00395d8ac801e1fd05ec532b214a56420f99101610daf565b600080600e54851061127b5761125161271080614cbc565b83600854866112609190614cbc565b61126a9190614cbc565b6112749190614d20565b9050611289565b611286858585613317565b90505b604051630d53839960e41b8152600481018290527f00000000000000000000000000000000000000000000000000000000000000006001600160a01b03169063d5383990906024015b60206040518083038186803b1580156112ea57600080fd5b505afa1580156112fe573d6000803e3d6000fd5b505050506040513d601f19601f820116820180604052508101906113229190614c8d565b95945050505050565b600080611336612d9b565b33846113428282612de1565b61135e5760405162461bcd60e51b8152600401610e3090614d6f565b3361136887612e5f565b506113748188886130eb565b6113a96001600160a01b037f00000000000000000000000000000000000000000000000000000000000000001682308961337b565b60405163423e797960e01b81526001600160a01b037f0000000000000000000000000000000000000000000000000000000000000000169063423e7979906113f7908b908a90600401614e11565b6040805180830381600087803b15801561141057600080fd5b505af1158015611424573d6000803e3d6000fd5b505050506040513d601f19601f820116820180604052508101906114489190614dbf565b90999098509650505050505050565b6114613382612de1565b61147d5760405162461bcd60e51b8152600401610e3090614e2a565b610ed18383836133e6565b611490612ccd565b61149981613582565b50565b6114a4612d9b565b336114ae84612e5f565b506114ba8185856135dc565b6110278185846136f7565b6000806114d0612d9b565b6127106114db6129c2565b106114f85760405162461bcd60e51b8152600401610e3090614e78565b61152d7f00000000000000000000000000000000000000000000000000000000000000006001600160a01b031633308661337b565b604051631957dd9f60e21b81526001600160a01b037f0000000000000000000000000000000000000000000000000000000000000000169063655f767c9061157b9030908790600401614e11565b602060405180830381600087803b15801561159557600080fd5b505af11580156115a9573d6000803e3d6000fd5b505050506040513d601f19601f820116820180604052508101906115cd9190614c8d565b604051632baf2acb60e01b81526001600160a01b03868116600483015260248201869052604482018390529192507f000000000000000000000000000000000000000000000000000000000000000090911690632baf2acb90606401602060405180830381600087803b15801561164357600080fd5b505af1158015611657573d6000803e3d6000fd5b505050506040513d601f19601f8201168201806040525081019061167b9190614c8d565b91509250929050565b6000600e54821061169757506000919050565b6000828152600d6020908152604091829020825160808101845281548082526001830154938201939093526002820154938101939093526003015460608301526008546116e391614cbc565b61271080836040015184602001516116fb9190614cf2565b6117059190614cbc565b61170f9190614cbc565b6117199190614d20565b9150505b919050565b61172a612ccd565b611732613893565b565b61173c612ccd565b6117326138dc565b61174d81612e5f565b506117578161190d565b156117b05760405162461bcd60e51b815260206004820152602360248201527f4344503a3a6c69717569646174653a20434450206d75737420626520756e736160448201526233329760e91b6064820152608401610e30565b6114993382612f8c565b610ed1838383604051806020016040528060008152506124dd565b6117dd612d9b565b33826117e98282612de1565b6118055760405162461bcd60e51b8152600401610e3090614d6f565b61180e84612e5f565b506110273385856136f7565b60006118bf84837f00000000000000000000000000000000000000000000000000000000000000006001600160a01b0316632694d5e7876040518263ffffffff1660e01b815260040161186f91815260200190565b60206040518083038186803b15801561188757600080fd5b505afa15801561189b573d6000803e3d6000fd5b505050506040513d601f19601f820116820180604052508101906107009190614c8d565b949350505050565b6118cf612ccd565b600a80549082905560408051828152602081018490527fdbbbb176683582b710ef3349793b8d62658724a9d9b54deccf193c4b0aa90c4c9101610daf565b600061271061191b83612540565b1092915050565b600954600e54600090841061195657826119456127106611c37937e08000614cbc565b61194f9190614d20565b90506119e0565b6000848152600d60209081526040808320815160808101835281548152600182015493810184905260028201549281019290925260030154606082015291906611c37937e08000106119af576611c37937e080006119b5565b81602001515b82519091506119c5908690614cf2565b6119d161271083614cbc565b6119db9190614d20565b925050505b9250929050565b60006119f1612d9b565b6127106119fc6129c2565b10611a195760405162461bcd60e51b8152600401610e3090614e78565b33611a4f7f00000000000000000000000000000000000000000000000000000000000000006001600160a01b031682308661337b565b604051631957dd9f60e21b81526001600160a01b037f0000000000000000000000000000000000000000000000000000000000000000169063655f767c90611a9d9030908790600401614e11565b602060405180830381600087803b158015611ab757600080fd5b505af1158015611acb573d6000803e3d6000fd5b505050506040513d601f19601f82011682018060405250810190611aef9190614c8d565b9150611afa84612e5f565b50611b0630858461392e565b5092915050565b600080611b18612d9b565b336000611b2486611684565b9050611b31828787613c91565b611b3a86612e5f565b506000611b49878360006125c1565b9050611b568388836130eb565b611b8b6001600160a01b037f00000000000000000000000000000000000000000000000000000000000000001684308961337b565b60405163423e797960e01b81526001600160a01b037f0000000000000000000000000000000000000000000000000000000000000000169063423e7979906113f7908b908590600401614e11565b6000828152600d6020908152604080832081516080810183528154815260018201548185015260028201548184015260039091015460608201526009548251635f85c49d60e11b8152925190949391928492612710926001600160a01b037f0000000000000000000000000000000000000000000000000000000000000000169263bf0b893a926004808301939192829003018186803b158015611c7c57600080fd5b505afa158015611c90573d6000803e3d6000fd5b505050506040513d601f19601f82011682018060405250810190611cb49190614c8d565b611cc090612710614cdb565b6127107f00000000000000000000000000000000000000000000000000000000000000006001600160a01b03166395b31b116040518163ffffffff1660e01b815260040160206040518083038186803b158015611d1c57600080fd5b505afa158015611d30573d6000803e3d6000fd5b505050506040513d601f19601f82011682018060405250810190611d549190614c8d565b611d5e9089614cbc565b611d689190614d20565b611d729088614cdb565b611d7c9190614cbc565b611d869190614d20565b9050600e548610611ded5760405162461bcd60e51b815260206004820152602b60248201527f466f784661726d3a3a6c747652616e67655768656e52656465656d3a20696e7660448201526a30b634b2103034b22fb01760a91b6064820152608401610e30565b6008548251611dfc9190614cbc565b61271080838560200151611e109190614cdb565b611e1a9190614cbc565b611e249190614cbc565b611e2e9190614d20565b8251909350600090611e496127106611c37937e08000614cbc565b611e539190614d20565b9050808411611e625780611e64565b835b93505050509250929050565b6000818152600260205260408120546001600160a01b0316806109e25760405162461bcd60e51b8152602060048201526018602482015277115490cdcc8c4e881a5b9d985b1a59081d1bdad95b88125160421b6044820152606401610e30565b6000838152600d60209081526040808320815160808101835281548152600182015493810193909352600281015491830191909152600301546060820152600854611f1b9085614cbc565b612710808360400151868560200151611f349190614cdb565b611f3e9190614cf2565b611f489190614cbc565b611f529190614cbc565b611f5c9190614d20565b81516113229190614cdb565b60006001600160a01b038216611fd25760405162461bcd60e51b815260206004820152602960248201527f4552433732313a2061646472657373207a65726f206973206e6f7420612076616044820152683634b21037bbb732b960b91b6064820152608401610e30565b506001600160a01b031660009081526003602052604090205490565b611ff6612ccd565b6117326000613da9565b6000818152600d6020908152604080832081516080810183528154808252600183015494820194909452600282015492810192909252600301546060820152909190819061204d85611684565b6040909101519395909450915050565b600080600e54861061209f5761207561271080614cbc565b84600854876120849190614cbc565b61208e9190614cbc565b6120989190614d20565b90506120ad565b6120aa868686613317565b90505b60405163fa4356d360e01b815260048101829052602481018490527f00000000000000000000000000000000000000000000000000000000000000006001600160a01b03169063fa4356d390604401604080518083038186803b15801561211357600080fd5b505afa158015612127573d6000803e3d6000fd5b505050506040513d601f19601f8201168201806040525081019061214b9190614dbf565b509695505050505050565b604051630571ac8b60e41b81526001600160a01b037f0000000000000000000000000000000000000000000000000000000000000000811660048301527f0000000000000000000000000000000000000000000000000000000000000000169063571ac8b090602401600060405180830381600087803b1580156121d957600080fd5b505af11580156121ed573d6000803e3d6000fd5b5050604051630571ac8b60e41b81526001600160a01b037f0000000000000000000000000000000000000000000000000000000000000000811660048301527f000000000000000000000000000000000000000000000000000000000000000016925063571ac8b09150602401600060405180830381600087803b15801561227457600080fd5b505af1158015611027573d6000803e3d6000fd5b612290612ccd565b611732613e03565b60006109e282612e5f565b606060018054610c8790614d34565b6122ba612d9b565b33836122c68282612de1565b6122e25760405162461bcd60e51b8152600401610e3090614d6f565b6122ed338686613c91565b6122f685612e5f565b506123023386856130eb565b5050505050565b6000600e5484106123e7576001600160a01b037f00000000000000000000000000000000000000000000000000000000000000001663d5aa33d261234f61271080614cbc565b846008548761235e9190614cbc565b6123689190614cbc565b6123729190614d20565b6040518263ffffffff1660e01b815260040161239091815260200190565b60206040518083038186803b1580156123a857600080fd5b505afa1580156123bc573d6000803e3d6000fd5b505050506040513d601f19601f820116820180604052508101906123e09190614c8d565b90506124c7565b6000848152600d6020908152604091829020825160808101845281548152600182015492810183905260028201549381018490526003909101546060820152916001600160a01b037f0000000000000000000000000000000000000000000000000000000000000000169163d5aa33d2919061246561271080614cbc565b6008548651899190612477908c614cf2565b6124819190614cbc565b61248b9190614cbc565b6124959190614d20565b61249f9190614cf2565b6124a99190614cf2565b6040518263ffffffff1660e01b81526004016112d291815260200190565b9392505050565b6124d9338383613e40565b5050565b6124e73383612de1565b6125035760405162461bcd60e51b8152600401610e3090614e2a565b61102784848484613f0f565b6000612519612d9b565b3361252381613f42565b9150612530818385613c91565b61253982612e5f565b5050919050565b6000818152600d60209081526040808320815160808101835281548082526001830154948201949094526002820154928101929092526003015460608201526009546008549192909161259291614cbc565b61259c9190614cbc565b61271080612710846040015185602001516125b79190614cf2565b6116fb9190614cbc565b6000838152600d602090815260408083208151608081018352815481526001820154938101849052600282015492810183905260039091015460608201529161260a9190614cf2565b61261661271080614cbc565b8560085486856000015161262a9190614cf2565b6126349190614cbc565b61263e9190614cbc565b6126489190614d20565b6113229190614cdb565b606061265d82612c6e565b600061267460408051602081019091526000815290565b905060008151116126945760405180602001604052806000815250611719565b8061269e84613fc7565b6040516020016126af929190614ebd565b6040516020818303038152906040529392505050565b60006126cf612d9b565b33846126db8282612de1565b6126f75760405162461bcd60e51b8152600401610e3090614d6f565b6127106127026129c2565b1061271f5760405162461bcd60e51b8152600401610e3090614e78565b336127557f00000000000000000000000000000000000000000000000000000000000000006001600160a01b031682308961337b565b604051631957dd9f60e21b81526001600160a01b037f0000000000000000000000000000000000000000000000000000000000000000169063655f767c906127a39030908a90600401614e11565b602060405180830381600087803b1580156127bd57600080fd5b505af11580156127d1573d6000803e3d6000fd5b505050506040513d601f19601f820116820180604052508101906127f59190614c8d565b935061280087612e5f565b5061280c30888661392e565b600061281a88876000611ed0565b90506128278989836136f7565b50505050949350505050565b6040516375c2f59560e01b81526004810183905260009081906001600160a01b037f000000000000000000000000000000000000000000000000000000000000000016906375c2f5959060240160206040518083038186803b15801561289857600080fd5b505afa1580156128ac573d6000803e3d6000fd5b505050506040513d601f19601f820116820180604052508101906128d09190614c8d565b9050600e548510612910576008546128e89084614cbc565b6127106128f58184614cbc565b6128ff9190614cbc565b6129099190614d20565b915061299d565b6000858152600d60209081526040918290208251608081018452815480825260018301549382019390935260028201549381019390935260030154606083015260085461295d9086614cbc565b612710808585602001516129719190614cf2565b61297b9190614cbc565b6129859190614cbc565b61298f9190614d20565b6129999190614cdb565b9250505b509392505050565b6129ad612d9b565b6129b682612e5f565b506124d93383836135dc565b6000600f546000141580156129d8575060085415155b80156129e5575060095415155b15612a2557600954600854600f546129fd9190614cbc565b612a079190614cbc565b61271080612710601054612a1b9190614cbc565b610d549190614cbc565b90565b612a30612d9b565b612a3b338383613c91565b610ed182612e5f565b6000612a4e612d9b565b33612a5881613f42565b9150612a65818386613c91565b612a6e82612e5f565b50611b068183856130eb565b6007546001600160a01b0316336001600160a01b031614612b035760405162461bcd60e51b815260206004820152603f60248201527f4f7261636c653a3a6f6e6c794f7261636c654665656465723a2053656e64657260448201527f206d7573742062652073616d65206173205f6f7261636c654665656465722e006064820152608401610e30565b600880549083905560408051828152602081018590527f00000000000000000000000000000000000000000000000000000000000000006001600160a01b0316917f7c3bda8adcb9df1edd0059da351d966538bcc99f067c0770872170ac97fb6887910160405180910390a2505050565b612b7c612ccd565b6001600160a01b038116612be15760405162461bcd60e51b815260206004820152602660248201527f4f776e61626c653a206e6577206f776e657220697320746865207a65726f206160448201526564647265737360d01b6064820152608401610e30565b61149981613da9565b612bf2612ccd565b600b80546001600160a01b038381166001600160a01b031983168117909355604080519190921680825260208201939093527f41d2755f00068d89c23ebc6f1e73ce119a6236a44517ca061f544a3f91c9bca49101610daf565b6000612c56612d9b565b612c5f33613f42565b9050612c6a81612e5f565b5090565b6000818152600260205260409020546001600160a01b03166114995760405162461bcd60e51b8152602060048201526018602482015277115490cdcc8c4e881a5b9d985b1a59081d1bdad95b88125160421b6044820152606401610e30565b6006546001600160a01b036101009091041633146117325760405162461bcd60e51b815260206004820181905260248201527f4f776e61626c653a2063616c6c6572206973206e6f7420746865206f776e65726044820152606401610e30565b600081815260046020526040902080546001600160a01b0319166001600160a01b0384169081179091558190612d6282611e70565b6001600160a01b03167f8c5be1e5ebec7d5bd14f71427d1e84f3dd0314c0f7b2291e5b200ac8c7c3b92560405160405180910390a45050565b60065460ff16156117325760405162461bcd60e51b815260206004820152601060248201526f14185d5cd8589b194e881c185d5cd95960821b6044820152606401610e30565b600080612ded83611e70565b9050806001600160a01b0316846001600160a01b03161480612e3457506001600160a01b0380821660009081526005602090815260408083209388168352929052205460ff165b806118bf5750836001600160a01b0316612e4d84610d0a565b6001600160a01b031614949350505050565b600b546000906001600160a01b0316612e7a57506000919050565b6000828152600d6020526040812060038101546002820154919290914291612ea661271061016d614cbc565b612eb1906018614cbc565b612ebc90603c614cbc565b612ec790603c614cbc565b600c54612ed48686614cdb565b8760010154612ee39190614cbc565b612eed9190614cbc565b612ef79190614d20565b955085856002016000828254612f0d9190614cf2565b925050819055508560116000828254612f269190614cf2565b90915550505060038401829055600284015460408051838152602081018390529081018590526060810184905287907f058060763f0c6ae3b30d3624dbb6899601ed67b215a0b7591707778c7218db2f9060800160405180910390a25050505050919050565b6000818152600d602052604090206001810154151580612faf5750600281015415155b1561306f5761306f83837f00000000000000000000000000000000000000000000000000000000000000006001600160a01b0316631c75ffe085600201548660010154612ffc9190614cf2565b6040518263ffffffff1660e01b815260040161301a91815260200190565b60206040518083038186803b15801561303257600080fd5b505afa158015613046573d6000803e3d6000fd5b505050506040513d601f19601f8201168201806040525081019061306a9190614c8d565b6135dc565b80541561308557613085838383600001546136f7565b61308e826140c5565b6000828152600d602052604080822082815560018101839055600281018390556003018290555183916001600160a01b038616917f684222b0069d4a2e5e0d986611cc5182d543904c4e4264bf770d4e51faefc8229190a3505050565b604051631cd2bac360e31b8152600481018290526000907f00000000000000000000000000000000000000000000000000000000000000006001600160a01b03169063e695d6189060240160206040518083038186803b15801561314e57600080fd5b505afa158015613162573d6000803e3d6000fd5b505050506040513d601f19601f820116820180604052508101906131869190614c8d565b60405163c1de58a360e01b8152600481018490529091506000906001600160a01b037f0000000000000000000000000000000000000000000000000000000000000000169063c1de58a39060240160206040518083038186803b1580156131ec57600080fd5b505afa158015613200573d6000803e3d6000fd5b505050506040513d601f19601f820116820180604052508101906132249190614c8d565b9050613231308584614160565b6132667f00000000000000000000000000000000000000000000000000000000000000006001600160a01b031633308461337b565b604051630ab714fb60e11b81526001600160a01b03868116600483015260248201849052604482018390527f0000000000000000000000000000000000000000000000000000000000000000169063156e29f690606401602060405180830381600087803b1580156132d757600080fd5b505af11580156132eb573d6000803e3d6000fd5b505050506040513d601f19601f8201168201806040525081019061330f9190614c8d565b505050505050565b6000838152600d60209081526040808320815160808101835281548152600182015493810184905260028201549281018390526003909101546060820152916133609190614cf2565b815161271090613371908790614cf2565b61263e9086614cbc565b6040516001600160a01b03808516602483015283166044820152606481018290526110279085906323b872dd60e01b906084015b60408051601f198184030181529190526020810180516001600160e01b03166001600160e01b0319909316929092179091526143e2565b826001600160a01b03166133f982611e70565b6001600160a01b03161461345d5760405162461bcd60e51b815260206004820152602560248201527f4552433732313a207472616e736665722066726f6d20696e636f72726563742060448201526437bbb732b960d91b6064820152608401610e30565b6001600160a01b0382166134bf5760405162461bcd60e51b8152602060048201526024808201527f4552433732313a207472616e7366657220746f20746865207a65726f206164646044820152637265737360e01b6064820152608401610e30565b6134ca600082612d2d565b6001600160a01b03831660009081526003602052604081208054600192906134f3908490614cdb565b90915550506001600160a01b0382166000908152600360205260408120805460019290613521908490614cf2565b909155505060008181526002602052604080822080546001600160a01b0319166001600160a01b0386811691821790925591518493918716917fddf252ad1be2c89b69c2b068fc378daa952ba7f163c4a11628f55a4df523b3ef91a4505050565b600780546001600160a01b038381166001600160a01b031983168117909355604080519190921680825260208201939093527f6b2e9b3836edd552e454031d349dbf020544e4123c344f1ddb0a7a9a336adef99101610daf565b336136127f00000000000000000000000000000000000000000000000000000000000000006001600160a01b031682308561337b565b6000807f00000000000000000000000000000000000000000000000000000000000000006001600160a01b0316631e9a695030866040518363ffffffff1660e01b8152600401613663929190614e11565b6040805180830381600087803b15801561367c57600080fd5b505af1158015613690573d6000803e3d6000fd5b505050506040513d601f19601f820116820180604052508101906136b49190614dbf565b915091506136c330868461392e565b61330f6001600160a01b037f00000000000000000000000000000000000000000000000000000000000000001687836144b4565b6000828152600d60205260408120805490918391839190613719908490614cdb565b9250508190555081600f60008282546137329190614cdb565b9091555061376c90506001600160a01b037f00000000000000000000000000000000000000000000000000000000000000001685846144b4565b6137758361190d565b6137d85760405162461bcd60e51b815260206004820152602e60248201527f4344503a3a5f77697468647261773a20434450206f7065726174696f6e20657860448201526d31b2b2b2399036b0bc10262a2b1760911b6064820152608401610e30565b805415806137ee575080546611c37937e0800011155b6138495760405162461bcd60e51b815260206004820152602660248201527f4344503a3a5f77697468647261773a204e6f7420656e6f75676820636f6c6c616044820152653a32b930b61760d11b6064820152608401610e30565b82846001600160a01b03167ff279e6a1f5e320cca91135676d9cb6e44ca8a08c0b88342bcdb1144f6511b5688460405161388591815260200190565b60405180910390a350505050565b60065460ff166117325760405162461bcd60e51b815260206004820152601460248201527314185d5cd8589b194e881b9bdd081c185d5cd95960621b6044820152606401610e30565b6138e4613893565b6006805460ff191690557f5db9ee0a495bf2e6ff9c91a7834c1ba4fdd244a5e8aa4e537bd38aeae4b073aa335b6040516001600160a01b03909116815260200160405180910390a1565b6000828152600d60205260409020600b546001600160a01b0316158015906139595750600281015415155b15613ba257600b5460028201546001600160a01b03909116908311613a29578282600201600082825461398c9190614cdb565b9250508190555082601160008282546139a59190614cdb565b90915550506001600160a01b0385163014156139f4576139ef6001600160a01b037f00000000000000000000000000000000000000000000000000000000000000001682856144b4565b613b9c565b6139ef6001600160a01b037f00000000000000000000000000000000000000000000000000000000000000001686838661337b565b6001600160a01b038516301415613a7a576002820154613a75906001600160a01b037f0000000000000000000000000000000000000000000000000000000000000000169083906144b4565b613ab7565b6002820154613ab7906001600160a01b037f000000000000000000000000000000000000000000000000000000000000000016908790849061337b565b6002820154613ac69084614cdb565b826001016000828254613ad99190614cdb565b90915550506002820154613aed9084614cdb565b60106000828254613afe9190614cdb565b925050819055507f00000000000000000000000000000000000000000000000000000000000000006001600160a01b03166379cc679086846002015486613b459190614cdb565b6040518363ffffffff1660e01b8152600401613b62929190614e11565b600060405180830381600087803b158015613b7c57600080fd5b505af1158015613b90573d6000803e3d6000fd5b50506000600285015550505b50613c55565b81816001016000828254613bb69190614cdb565b925050819055508160106000828254613bcf9190614cdb565b909155505060405163079cc67960e41b81526001600160a01b037f000000000000000000000000000000000000000000000000000000000000000016906379cc679090613c229087908690600401614e11565b600060405180830381600087803b158015613c3c57600080fd5b505af1158015613c50573d6000803e3d6000fd5b505050505b82846001600160a01b03167f77c6871227e5d2dec8dadd5354f78453203e22e669cd0ec4c19d9a8c5edb31d08460405161388591815260200190565b6000828152600d60205260408120805490918391839190613cb3908490614cf2565b9250508190555081600f6000828254613ccc9190614cf2565b90915550613d0790506001600160a01b037f00000000000000000000000000000000000000000000000000000000000000001685308561337b565b80546611c37937e080001115613d6d5760405162461bcd60e51b815260206004820152602560248201527f4344503a3a5f6465706f7369743a204e6f7420656e6f75676820636f6c6c617460448201526432b930b61760d91b6064820152608401610e30565b82846001600160a01b03167f90890809c654f11d6e72a28fa60149770a0d11ec6c92319d6ceb2bb0a4ea1a158460405161388591815260200190565b600680546001600160a01b03838116610100818102610100600160a81b031985161790945560405193909204169182907f8be0079c531659141344cd1fd0a4f28419497f9722a3daafe3b4186f6b6457e090600090a35050565b613e0b612d9b565b6006805460ff191660011790557f62e78cea01bee320cd4e420270b5ea74000d11b0c9f74754ebdbfc544b05a2586139113390565b816001600160a01b0316836001600160a01b03161415613ea25760405162461bcd60e51b815260206004820152601960248201527f4552433732313a20617070726f766520746f2063616c6c6572000000000000006044820152606401610e30565b6001600160a01b03838116600081815260056020908152604080832094871680845294825291829020805460ff191686151590811790915591519182527f17307eab39ab6107e8899845ad3d59bd9653f200f220920489ca2b5937696c31910160405180910390a3505050565b613f1a8484846133e6565b613f26848484846144d3565b6110275760405162461bcd60e51b8152600401610e3090614eec565b6000612710613f4f6129c2565b10613f6c5760405162461bcd60e51b8152600401610e3090614e78565b600e8054906000613f7c83614f3e565b919050559050613f8c82826145e0565b60405181906001600160a01b038416907f50042401acb675fedd6dd939fccc629832ce60fa4185df25c01b20e8def195bf90600090a3919050565b606081613feb5750506040805180820190915260018152600360fc1b602082015290565b8160005b81156140155780613fff81614f3e565b915061400e9050600a83614d20565b9150613fef565b60008167ffffffffffffffff81111561403057614030614b2f565b6040519080825280601f01601f19166020018201604052801561405a576020820181803683370190505b5090505b84156118bf5761406f600183614cdb565b915061407c600a86614f59565b614087906030614cf2565b60f81b81838151811061409c5761409c614f6d565b60200101906001600160f81b031916908160001a9053506140be600a86614d20565b945061405e565b60006140d082611e70565b90506140dd600083612d2d565b6001600160a01b0381166000908152600360205260408120805460019290614106908490614cdb565b909155505060008281526002602052604080822080546001600160a01b0319169055518391906001600160a01b038416907fddf252ad1be2c89b69c2b068fc378daa952ba7f163c4a11628f55a4df523b3ef908390a45050565b61271061416b6129c2565b106141885760405162461bcd60e51b8152600401610e3090614e78565b6000828152600d60205260408120600181018054919284926141ab908490614cf2565b9250508190555081601060008282546141c49190614cf2565b90915550506040516308934a5f60e31b81526001600160a01b037f0000000000000000000000000000000000000000000000000000000000000000169063449a52f8906142179087908690600401614e11565b600060405180830381600087803b15801561423157600080fd5b505af1158015614245573d6000803e3d6000fd5b505050506142528361190d565b6142b35760405162461bcd60e51b815260206004820152602c60248201527f4344503a3a5f626f72726f773a20434450206f7065726174696f6e206578636560448201526b32b2399036b0bc10262a2b1760a11b6064820152608401610e30565b600a547f00000000000000000000000000000000000000000000000000000000000000006001600160a01b03166318160ddd6040518163ffffffff1660e01b815260040160206040518083038186803b15801561430f57600080fd5b505afa158015614323573d6000803e3d6000fd5b505050506040513d601f19601f820116820180604052508101906143479190614c8d565b11156143a65760405162461bcd60e51b815260206004820152602860248201527f4344503a3a5f626f72726f773a2043616e6e6f7420626f72726f772053494e2060448201526730b73cb6b7b9329760c11b6064820152608401610e30565b82846001600160a01b03167fe1979fe4c35e0cef342fef5668e2c8e7a7e9f5d5d1ca8fee0ac6c427fa4153af8460405161388591815260200190565b6000614437826040518060400160405280602081526020017f5361666545524332303a206c6f772d6c6576656c2063616c6c206661696c6564815250856001600160a01b03166145fa9092919063ffffffff16565b805190915015610ed157808060200190518101906144559190614f83565b610ed15760405162461bcd60e51b815260206004820152602a60248201527f5361666545524332303a204552433230206f7065726174696f6e20646964206e6044820152691bdd081cdd58d8d9595960b21b6064820152608401610e30565b610ed18363a9059cbb60e01b84846040516024016133af929190614e11565b60006001600160a01b0384163b156145d557604051630a85bd0160e11b81526001600160a01b0385169063150b7a0290614517903390899088908890600401614fa0565b602060405180830381600087803b15801561453157600080fd5b505af1925050508015614561575060408051601f3d908101601f1916820190925261455e91810190614fdd565b60015b6145bb573d80801561458f576040519150601f19603f3d011682016040523d82523d6000602084013e614594565b606091505b5080516145b35760405162461bcd60e51b8152600401610e3090614eec565b805181602001fd5b6001600160e01b031916630a85bd0160e11b1490506118bf565b506001949350505050565b6124d9828260405180602001604052806000815250614609565b60606118bf848460008561463c565b614613838361476d565b61462060008484846144d3565b610ed15760405162461bcd60e51b8152600401610e3090614eec565b60608247101561469d5760405162461bcd60e51b815260206004820152602660248201527f416464726573733a20696e73756666696369656e742062616c616e636520666f6044820152651c8818d85b1b60d21b6064820152608401610e30565b6001600160a01b0385163b6146f45760405162461bcd60e51b815260206004820152601d60248201527f416464726573733a2063616c6c20746f206e6f6e2d636f6e74726163740000006044820152606401610e30565b600080866001600160a01b031685876040516147109190614ffa565b60006040518083038185875af1925050503d806000811461474d576040519150601f19603f3d011682016040523d82523d6000602084013e614752565b606091505b50915091506147628282866148af565b979650505050505050565b6001600160a01b0382166147c35760405162461bcd60e51b815260206004820181905260248201527f4552433732313a206d696e7420746f20746865207a65726f20616464726573736044820152606401610e30565b6000818152600260205260409020546001600160a01b0316156148285760405162461bcd60e51b815260206004820152601c60248201527f4552433732313a20746f6b656e20616c7265616479206d696e746564000000006044820152606401610e30565b6001600160a01b0382166000908152600360205260408120805460019290614851908490614cf2565b909155505060008181526002602052604080822080546001600160a01b0319166001600160a01b03861690811790915590518392907fddf252ad1be2c89b69c2b068fc378daa952ba7f163c4a11628f55a4df523b3ef908290a45050565b606083156148be5750816124c7565b8251156148ce5782518084602001fd5b8160405162461bcd60e51b8152600401610e309190614995565b6001600160e01b03198116811461149957600080fd5b60006020828403121561491057600080fd5b81356124c7816148e8565b6000806040838503121561492e57600080fd5b50508035926020909101359150565b60005b83811015614958578181015183820152602001614940565b838111156110275750506000910152565b6000815180845261498181602086016020860161493d565b601f01601f19169290920160200192915050565b6020815260006124c76020830184614969565b6000602082840312156149ba57600080fd5b5035919050565b80356001600160a01b038116811461171d57600080fd5b600080604083850312156149eb57600080fd5b6149f4836149c1565b946020939093013593505050565b600080600060608486031215614a1757600080fd5b505081359360208301359350604090920135919050565b600080600060608486031215614a4357600080fd5b614a4c846149c1565b95602085013595506040909401359392505050565b600080600060608486031215614a7657600080fd5b614a7f846149c1565b9250614a8d602085016149c1565b9150604084013590509250925092565b600060208284031215614aaf57600080fd5b6124c7826149c1565b60008060008060808587031215614ace57600080fd5b5050823594602084013594506040840135936060013592509050565b801515811461149957600080fd5b60008060408385031215614b0b57600080fd5b614b14836149c1565b91506020830135614b2481614aea565b809150509250929050565b634e487b7160e01b600052604160045260246000fd5b60008060008060808587031215614b5b57600080fd5b614b64856149c1565b9350614b72602086016149c1565b925060408501359150606085013567ffffffffffffffff80821115614b9657600080fd5b818701915087601f830112614baa57600080fd5b813581811115614bbc57614bbc614b2f565b604051601f8201601f19908116603f01168101908382118183101715614be457614be4614b2f565b816040528281528a6020848701011115614bfd57600080fd5b82602086016020830137600060208483010152809550505050505092959194509250565b60008060008060808587031215614c3757600080fd5b614c40856149c1565b966020860135965060408601359560600135945092505050565b60008060408385031215614c6d57600080fd5b614c76836149c1565b9150614c84602084016149c1565b90509250929050565b600060208284031215614c9f57600080fd5b5051919050565b634e487b7160e01b600052601160045260246000fd5b6000816000190483118215151615614cd657614cd6614ca6565b500290565b600082821015614ced57614ced614ca6565b500390565b60008219821115614d0557614d05614ca6565b500190565b634e487b7160e01b600052601260045260246000fd5b600082614d2f57614d2f614d0a565b500490565b600181811c90821680614d4857607f821691505b60208210811415614d6957634e487b7160e01b600052602260045260246000fd5b50919050565b60208082526030908201527f4344503a3a6f6e6c79436470417070726f7665644f724f776e65723a204e6f7460408201526f1030903b30b634b21031b0b63632b91760811b606082015260800190565b60008060408385031215614dd257600080fd5b505080516020909101519092909150565b600080600060608486031215614df857600080fd5b8351925060208401519150604084015190509250925092565b6001600160a01b03929092168252602082015260400190565b6020808252602e908201527f4552433732313a2063616c6c6572206973206e6f7420746f6b656e206f776e6560408201526d1c881b9bdc88185c1c1c9bdd995960921b606082015260800190565b60208082526025908201527f4344503a3a6f6e6c79476c6f62616c6c794865616c7468793a204e6f7420686560408201526430b63a3c9760d91b606082015260800190565b60008351614ecf81846020880161493d565b835190830190614ee381836020880161493d565b01949350505050565b60208082526032908201527f4552433732313a207472616e7366657220746f206e6f6e20455243373231526560408201527131b2b4bb32b91034b6b83632b6b2b73a32b960711b606082015260800190565b6000600019821415614f5257614f52614ca6565b5060010190565b600082614f6857614f68614d0a565b500690565b634e487b7160e01b600052603260045260246000fd5b600060208284031215614f9557600080fd5b81516124c781614aea565b6001600160a01b0385811682528416602082015260408101839052608060608201819052600090614fd390830184614969565b9695505050505050565b600060208284031215614fef57600080fd5b81516124c7816148e8565b6000825161500c81846020870161493d565b919091019291505056fea2646970667358221220cdb51c50246b9618d3e39fa86fce4abe03f91938035e857f526b7f60375647c764736f6c63430008090033206d757374206265206e6f6e7a65726f2e0000000000000000000000000000004e6f6e7a65726f3a3a6e6f6e7a65726f416464726573733a204163636f756e74",
  "linkReferences": {},
  "deployedLinkReferences": {}
}