{
  "_format": "hh-sol-artifact-1",
  "contractName": "FoxFarm",
  "sourceName": "contracts/FoxFarm.sol",
  "abi": [
    {
      "inputs": [
        {
          "internalType": "address",
          "name": "oracleFeeder_",
          "type": "address"
        },
        {
          "internalType": "address",
          "name": "feeTo_",
          "type": "address"
        },
        {
          "internalType": "address",
          "name": "collateralToken_",
          "type": "address"
        },
        {
          "internalType": "address",
          "name": "debtToken_",
          "type": "address"
        },
        {
          "internalType": "address",
          "name": "shareToken_",
          "type": "address"
        },
        {
          "internalType": "address",
          "name": "stableToken_",
          "type": "address"
        },
        {
          "internalType": "address",
          "name": "coupon_",
          "type": "address"
        },
        {
          "internalType": "uint256",
          "name": "maxLTV_",
          "type": "uint256"
        },
        {
          "internalType": "uint256",
          "name": "cap_",
          "type": "uint256"
        },
        {
          "internalType": "uint256",
          "name": "feeRatio_",
          "type": "uint256"
        }
      ],
      "stateMutability": "nonpayable",
      "type": "constructor"
    },
    {
      "anonymous": false,
      "inputs": [
        {
          "indexed": true,
          "internalType": "address",
          "name": "owner",
          "type": "address"
        },
        {
          "indexed": true,
          "internalType": "address",
          "name": "approved",
          "type": "address"
        },
        {
          "indexed": true,
          "internalType": "uint256",
          "name": "tokenId",
          "type": "uint256"
        }
      ],
      "name": "Approval",
      "type": "event"
    },
    {
      "anonymous": false,
      "inputs": [
        {
          "indexed": true,
          "internalType": "address",
          "name": "owner",
          "type": "address"
        },
        {
          "indexed": true,
          "internalType": "address",
          "name": "operator",
          "type": "address"
        },
        {
          "indexed": false,
          "internalType": "bool",
          "name": "approved",
          "type": "bool"
        }
      ],
      "name": "ApprovalForAll",
      "type": "event"
    },
    {
      "anonymous": false,
      "inputs": [
        {
          "indexed": true,
          "internalType": "address",
          "name": "account_",
          "type": "address"
        },
        {
          "indexed": true,
          "internalType": "uint256",
          "name": "id_",
          "type": "uint256"
        },
        {
          "indexed": false,
          "internalType": "uint256",
          "name": "amount",
          "type": "uint256"
        }
      ],
      "name": "Borrow",
      "type": "event"
    },
    {
      "anonymous": false,
      "inputs": [
        {
          "indexed": true,
          "internalType": "address",
          "name": "account_",
          "type": "address"
        },
        {
          "indexed": true,
          "internalType": "uint256",
          "name": "id_",
          "type": "uint256"
        }
      ],
      "name": "Close",
      "type": "event"
    },
    {
      "anonymous": false,
      "inputs": [
        {
          "indexed": true,
          "internalType": "address",
          "name": "account_",
          "type": "address"
        },
        {
          "indexed": true,
          "internalType": "uint256",
          "name": "id_",
          "type": "uint256"
        },
        {
          "indexed": false,
          "internalType": "uint256",
          "name": "amount",
          "type": "uint256"
        }
      ],
      "name": "Deposit",
      "type": "event"
    },
    {
      "anonymous": false,
      "inputs": [
        {
          "indexed": true,
          "internalType": "address",
          "name": "account_",
          "type": "address"
        },
        {
          "indexed": true,
          "internalType": "uint256",
          "name": "id_",
          "type": "uint256"
        }
      ],
      "name": "Open",
      "type": "event"
    },
    {
      "anonymous": false,
      "inputs": [
        {
          "indexed": true,
          "internalType": "address",
          "name": "previousOwner",
          "type": "address"
        },
        {
          "indexed": true,
          "internalType": "address",
          "name": "newOwner",
          "type": "address"
        }
      ],
      "name": "OwnershipTransferred",
      "type": "event"
    },
    {
      "anonymous": false,
      "inputs": [
        {
          "indexed": false,
          "internalType": "address",
          "name": "account",
          "type": "address"
        }
      ],
      "name": "Paused",
      "type": "event"
    },
    {
      "anonymous": false,
      "inputs": [
        {
          "indexed": true,
          "internalType": "address",
          "name": "account_",
          "type": "address"
        },
        {
          "indexed": true,
          "internalType": "uint256",
          "name": "id_",
          "type": "uint256"
        },
        {
          "indexed": false,
          "internalType": "uint256",
          "name": "amount",
          "type": "uint256"
        }
      ],
      "name": "Repay",
      "type": "event"
    },
    {
      "anonymous": false,
      "inputs": [
        {
          "indexed": false,
          "internalType": "uint256",
          "name": "prevCap",
          "type": "uint256"
        },
        {
          "indexed": false,
          "internalType": "uint256",
          "name": "currCap",
          "type": "uint256"
        }
      ],
      "name": "SetCap",
      "type": "event"
    },
    {
      "anonymous": false,
      "inputs": [
        {
          "indexed": false,
          "internalType": "uint256",
          "name": "prevFeeRatio",
          "type": "uint256"
        },
        {
          "indexed": false,
          "internalType": "uint256",
          "name": "currFeeRatio",
          "type": "uint256"
        }
      ],
      "name": "SetFeeRatio",
      "type": "event"
    },
    {
      "anonymous": false,
      "inputs": [
        {
          "indexed": false,
          "internalType": "address",
          "name": "prevFeeTo",
          "type": "address"
        },
        {
          "indexed": false,
          "internalType": "address",
          "name": "currFeeTo",
          "type": "address"
        }
      ],
      "name": "SetFeeTo",
      "type": "event"
    },
    {
      "anonymous": false,
      "inputs": [
        {
          "indexed": false,
          "internalType": "uint256",
          "name": "prevMaxLTV",
          "type": "uint256"
        },
        {
          "indexed": false,
          "internalType": "uint256",
          "name": "currMaxLTV",
          "type": "uint256"
        }
      ],
      "name": "SetMaxLTV",
      "type": "event"
    },
    {
      "anonymous": false,
      "inputs": [
        {
          "indexed": true,
          "internalType": "address",
          "name": "from",
          "type": "address"
        },
        {
          "indexed": true,
          "internalType": "address",
          "name": "to",
          "type": "address"
        },
        {
          "indexed": true,
          "internalType": "uint256",
          "name": "tokenId",
          "type": "uint256"
        }
      ],
      "name": "Transfer",
      "type": "event"
    },
    {
      "anonymous": false,
      "inputs": [
        {
          "indexed": false,
          "internalType": "address",
          "name": "account",
          "type": "address"
        }
      ],
      "name": "Unpaused",
      "type": "event"
    },
    {
      "anonymous": false,
      "inputs": [
        {
          "indexed": true,
          "internalType": "uint256",
          "name": "id_",
          "type": "uint256"
        },
        {
          "indexed": false,
          "internalType": "uint256",
          "name": "prevFee",
          "type": "uint256"
        },
        {
          "indexed": false,
          "internalType": "uint256",
          "name": "currFee",
          "type": "uint256"
        },
        {
          "indexed": false,
          "internalType": "uint256",
          "name": "prevTimestamp",
          "type": "uint256"
        },
        {
          "indexed": false,
          "internalType": "uint256",
          "name": "currTimestamp",
          "type": "uint256"
        }
      ],
      "name": "Update",
      "type": "event"
    },
    {
      "anonymous": false,
      "inputs": [
        {
          "indexed": false,
          "internalType": "address",
          "name": "prevOracleFeeder",
          "type": "address"
        },
        {
          "indexed": false,
          "internalType": "address",
          "name": "currOracle",
          "type": "address"
        }
      ],
      "name": "UpdateOracleFeeder",
      "type": "event"
    },
    {
      "anonymous": false,
      "inputs": [
        {
          "indexed": true,
          "internalType": "address",
          "name": "token",
          "type": "address"
        },
        {
          "indexed": false,
          "internalType": "uint256",
          "name": "prevPrice",
          "type": "uint256"
        },
        {
          "indexed": false,
          "internalType": "uint256",
          "name": "currPrice",
          "type": "uint256"
        }
      ],
      "name": "UpdatePrice",
      "type": "event"
    },
    {
      "anonymous": false,
      "inputs": [
        {
          "indexed": true,
          "internalType": "address",
          "name": "account_",
          "type": "address"
        },
        {
          "indexed": true,
          "internalType": "uint256",
          "name": "id_",
          "type": "uint256"
        },
        {
          "indexed": false,
          "internalType": "uint256",
          "name": "amount",
          "type": "uint256"
        }
      ],
      "name": "Withdraw",
      "type": "event"
    },
    {
      "inputs": [
        {
          "internalType": "address",
          "name": "to",
          "type": "address"
        },
        {
          "internalType": "uint256",
          "name": "tokenId",
          "type": "uint256"
        }
      ],
      "name": "approve",
      "outputs": [],
      "stateMutability": "nonpayable",
      "type": "function"
    },
    {
      "inputs": [
        {
          "internalType": "address",
          "name": "owner",
          "type": "address"
        }
      ],
      "name": "balanceOf",
      "outputs": [
        {
          "internalType": "uint256",
          "name": "",
          "type": "uint256"
        }
      ],
      "stateMutability": "view",
      "type": "function"
    },
    {
      "inputs": [
        {
          "internalType": "uint256",
          "name": "id_",
          "type": "uint256"
        },
        {
          "internalType": "uint256",
          "name": "amount_",
          "type": "uint256"
        }
      ],
      "name": "borrow",
      "outputs": [],
      "stateMutability": "nonpayable",
      "type": "function"
    },
    {
      "inputs": [
        {
          "internalType": "uint256",
          "name": "id_",
          "type": "uint256"
        },
        {
          "internalType": "uint256",
          "name": "multipliedLtv_",
          "type": "uint256"
        }
      ],
      "name": "borrowAmountToLTV",
      "outputs": [
        {
          "internalType": "uint256",
          "name": "debtAmount_",
          "type": "uint256"
        }
      ],
      "stateMutability": "view",
      "type": "function"
    },
    {
      "inputs": [
        {
          "internalType": "address",
          "name": "account_",
          "type": "address"
        },
        {
          "internalType": "uint256",
          "name": "amount_",
          "type": "uint256"
        }
      ],
      "name": "buybackCoupon",
      "outputs": [
        {
          "internalType": "uint256",
          "name": "cid_",
          "type": "uint256"
        },
        {
          "internalType": "uint256",
          "name": "debtAmount_",
          "type": "uint256"
        }
      ],
      "stateMutability": "nonpayable",
      "type": "function"
    },
    {
      "inputs": [
        {
          "internalType": "address",
          "name": "account_",
          "type": "address"
        },
        {
          "internalType": "uint256",
          "name": "id_",
          "type": "uint256"
        },
        {
          "internalType": "uint256",
          "name": "amount_",
          "type": "uint256"
        }
      ],
      "name": "buybackRepayDebt",
      "outputs": [
        {
          "internalType": "uint256",
          "name": "debtAmount_",
          "type": "uint256"
        }
      ],
      "stateMutability": "nonpayable",
      "type": "function"
    },
    {
      "inputs": [
        {
          "internalType": "address",
          "name": "account_",
          "type": "address"
        },
        {
          "internalType": "uint256",
          "name": "id_",
          "type": "uint256"
        },
        {
          "internalType": "uint256",
          "name": "amount_",
          "type": "uint256"
        }
      ],
      "name": "buybackWithdrawCollateral",
      "outputs": [
        {
          "internalType": "uint256",
          "name": "debtAmount_",
          "type": "uint256"
        }
      ],
      "stateMutability": "nonpayable",
      "type": "function"
    },
    {
      "inputs": [],
      "name": "cap",
      "outputs": [
        {
          "internalType": "uint256",
          "name": "",
          "type": "uint256"
        }
      ],
      "stateMutability": "view",
      "type": "function"
    },
    {
      "inputs": [
        {
          "internalType": "uint256",
          "name": "",
          "type": "uint256"
        }
      ],
      "name": "cdps",
      "outputs": [
        {
          "internalType": "uint256",
          "name": "collateral",
          "type": "uint256"
        },
        {
          "internalType": "uint256",
          "name": "debt",
          "type": "uint256"
        },
        {
          "internalType": "uint256",
          "name": "fee",
          "type": "uint256"
        },
        {
          "internalType": "uint256",
          "name": "latestUpdate",
          "type": "uint256"
        }
      ],
      "stateMutability": "view",
      "type": "function"
    },
    {
      "inputs": [
        {
          "internalType": "uint256",
          "name": "id_",
          "type": "uint256"
        }
      ],
      "name": "close",
      "outputs": [],
      "stateMutability": "nonpayable",
      "type": "function"
    },
    {
      "inputs": [
        {
          "internalType": "uint256",
          "name": "id_",
          "type": "uint256"
        }
      ],
      "name": "currentLTV",
      "outputs": [
        {
          "internalType": "uint256",
          "name": "ltv",
          "type": "uint256"
        }
      ],
      "stateMutability": "view",
      "type": "function"
    },
    {
      "inputs": [
        {
          "internalType": "uint256",
          "name": "id_",
          "type": "uint256"
        },
        {
          "internalType": "uint256",
          "name": "amount_",
          "type": "uint256"
        }
      ],
      "name": "deposit",
      "outputs": [],
      "stateMutability": "nonpayable",
      "type": "function"
    },
    {
      "inputs": [
        {
          "internalType": "uint256",
          "name": "id_",
          "type": "uint256"
        },
        {
          "internalType": "uint256",
          "name": "depositAmount_",
          "type": "uint256"
        },
        {
          "internalType": "uint256",
          "name": "borrowAmount_",
          "type": "uint256"
        }
      ],
      "name": "depositAndBorrow",
      "outputs": [],
      "stateMutability": "nonpayable",
      "type": "function"
    },
    {
      "inputs": [
        {
          "internalType": "uint256",
          "name": "shareAmount_",
          "type": "uint256"
        },
        {
          "internalType": "uint256",
          "name": "ltv_",
          "type": "uint256"
        }
      ],
      "name": "exchangedCollateralAmountFromShareWithLtv",
      "outputs": [
        {
          "internalType": "uint256",
          "name": "collateralAmount_",
          "type": "uint256"
        }
      ],
      "stateMutability": "view",
      "type": "function"
    },
    {
      "inputs": [
        {
          "internalType": "uint256",
          "name": "collateralAmount_",
          "type": "uint256"
        },
        {
          "internalType": "uint256",
          "name": "ltv_",
          "type": "uint256"
        }
      ],
      "name": "exchangedShareAmountFromCollateralWithLtv",
      "outputs": [
        {
          "internalType": "uint256",
          "name": "shareAmount_",
          "type": "uint256"
        }
      ],
      "stateMutability": "view",
      "type": "function"
    },
    {
      "inputs": [
        {
          "internalType": "uint256",
          "name": "collateralAmount_",
          "type": "uint256"
        },
        {
          "internalType": "uint256",
          "name": "ltv_",
          "type": "uint256"
        },
        {
          "internalType": "uint256",
          "name": "shareAmount_",
          "type": "uint256"
        }
      ],
      "name": "expectedMintAmountWithLtv",
      "outputs": [
        {
          "internalType": "uint256",
          "name": "stableAmount_",
          "type": "uint256"
        }
      ],
      "stateMutability": "view",
      "type": "function"
    },
    {
      "inputs": [
        {
          "internalType": "uint256",
          "name": "stableAmount_",
          "type": "uint256"
        },
        {
          "internalType": "uint256",
          "name": "ltv_",
          "type": "uint256"
        }
      ],
      "name": "expectedRedeemAmountWithLtv",
      "outputs": [
        {
          "internalType": "uint256",
          "name": "collateralAmount_",
          "type": "uint256"
        },
        {
          "internalType": "uint256",
          "name": "shareAmount_",
          "type": "uint256"
        }
      ],
      "stateMutability": "view",
      "type": "function"
    },
    {
      "inputs": [
        {
          "internalType": "uint256",
          "name": "tokenId",
          "type": "uint256"
        }
      ],
      "name": "getApproved",
      "outputs": [
        {
          "internalType": "address",
          "name": "",
          "type": "address"
        }
      ],
      "stateMutability": "view",
      "type": "function"
    },
    {
      "inputs": [],
      "name": "globalHealthFactor",
      "outputs": [
        {
          "internalType": "uint256",
          "name": "health",
          "type": "uint256"
        }
      ],
      "stateMutability": "view",
      "type": "function"
    },
    {
      "inputs": [],
      "name": "globalLiquidate",
      "outputs": [],
      "stateMutability": "nonpayable",
      "type": "function"
    },
    {
      "inputs": [
        {
          "internalType": "uint256",
          "name": "id_",
          "type": "uint256"
        }
      ],
      "name": "healthFactor",
      "outputs": [
        {
          "internalType": "uint256",
          "name": "health",
          "type": "uint256"
        }
      ],
      "stateMutability": "view",
      "type": "function"
    },
    {
      "inputs": [],
      "name": "id",
      "outputs": [
        {
          "internalType": "uint256",
          "name": "",
          "type": "uint256"
        }
      ],
      "stateMutability": "view",
      "type": "function"
    },
    {
      "inputs": [],
      "name": "initialize",
      "outputs": [],
      "stateMutability": "nonpayable",
      "type": "function"
    },
    {
      "inputs": [
        {
          "internalType": "address",
          "name": "owner",
          "type": "address"
        },
        {
          "internalType": "address",
          "name": "operator",
          "type": "address"
        }
      ],
      "name": "isApprovedForAll",
      "outputs": [
        {
          "internalType": "bool",
          "name": "",
          "type": "bool"
        }
      ],
      "stateMutability": "view",
      "type": "function"
    },
    {
      "inputs": [
        {
          "internalType": "uint256",
          "name": "id_",
          "type": "uint256"
        }
      ],
      "name": "isSafe",
      "outputs": [
        {
          "internalType": "bool",
          "name": "",
          "type": "bool"
        }
      ],
      "stateMutability": "view",
      "type": "function"
    },
    {
      "inputs": [
        {
          "internalType": "uint256",
          "name": "id_",
          "type": "uint256"
        }
      ],
      "name": "liquidate",
      "outputs": [],
      "stateMutability": "nonpayable",
      "type": "function"
    },
    {
      "inputs": [],
      "name": "maxLTV",
      "outputs": [
        {
          "internalType": "uint256",
          "name": "",
          "type": "uint256"
        }
      ],
      "stateMutability": "view",
      "type": "function"
    },
    {
      "inputs": [],
      "name": "name",
      "outputs": [
        {
          "internalType": "string",
          "name": "",
          "type": "string"
        }
      ],
      "stateMutability": "view",
      "type": "function"
    },
    {
      "inputs": [],
      "name": "open",
      "outputs": [
        {
          "internalType": "uint256",
          "name": "id_",
          "type": "uint256"
        }
      ],
      "stateMutability": "nonpayable",
      "type": "function"
    },
    {
      "inputs": [
        {
          "internalType": "uint256",
          "name": "amount_",
          "type": "uint256"
        }
      ],
      "name": "openAndDeposit",
      "outputs": [
        {
          "internalType": "uint256",
          "name": "id_",
          "type": "uint256"
        }
      ],
      "stateMutability": "nonpayable",
      "type": "function"
    },
    {
      "inputs": [
        {
          "internalType": "uint256",
          "name": "depositAmount_",
          "type": "uint256"
        },
        {
          "internalType": "uint256",
          "name": "borrowAmount_",
          "type": "uint256"
        }
      ],
      "name": "openAndDepositAndBorrow",
      "outputs": [
        {
          "internalType": "uint256",
          "name": "id_",
          "type": "uint256"
        }
      ],
      "stateMutability": "nonpayable",
      "type": "function"
    },
    {
      "inputs": [],
      "name": "owner",
      "outputs": [
        {
          "internalType": "address",
          "name": "",
          "type": "address"
        }
      ],
      "stateMutability": "view",
      "type": "function"
    },
    {
      "inputs": [
        {
          "internalType": "uint256",
          "name": "tokenId",
          "type": "uint256"
        }
      ],
      "name": "ownerOf",
      "outputs": [
        {
          "internalType": "address",
          "name": "",
          "type": "address"
        }
      ],
      "stateMutability": "view",
      "type": "function"
    },
    {
      "inputs": [
        {
          "internalType": "uint256",
          "name": "id_",
          "type": "uint256"
        },
        {
          "internalType": "uint256",
          "name": "cid_",
          "type": "uint256"
        }
      ],
      "name": "pairAnnihilation",
      "outputs": [],
      "stateMutability": "nonpayable",
      "type": "function"
    },
    {
      "inputs": [],
      "name": "pause",
      "outputs": [],
      "stateMutability": "nonpayable",
      "type": "function"
    },
    {
      "inputs": [],
      "name": "paused",
      "outputs": [
        {
          "internalType": "bool",
          "name": "",
          "type": "bool"
        }
      ],
      "stateMutability": "view",
      "type": "function"
    },
    {
      "inputs": [
        {
          "internalType": "address",
          "name": "account_",
          "type": "address"
        },
        {
          "internalType": "uint256",
          "name": "id_",
          "type": "uint256"
        },
        {
          "internalType": "uint256",
          "name": "amount_",
          "type": "uint256"
        }
      ],
      "name": "recollateralizeBorrowDebt",
      "outputs": [
        {
          "internalType": "uint256",
          "name": "shareAmount_",
          "type": "uint256"
        },
        {
          "internalType": "uint256",
          "name": "bonusAmount_",
          "type": "uint256"
        }
      ],
      "stateMutability": "nonpayable",
      "type": "function"
    },
    {
      "inputs": [
        {
          "internalType": "address",
          "name": "account_",
          "type": "address"
        },
        {
          "internalType": "uint256",
          "name": "id_",
          "type": "uint256"
        },
        {
          "internalType": "uint256",
          "name": "amount_",
          "type": "uint256"
        }
      ],
      "name": "recollateralizeDepositCollateral",
      "outputs": [
        {
          "internalType": "uint256",
          "name": "shareAmount_",
          "type": "uint256"
        },
        {
          "internalType": "uint256",
          "name": "bonusAmount_",
          "type": "uint256"
        }
      ],
      "stateMutability": "nonpayable",
      "type": "function"
    },
    {
      "inputs": [],
      "name": "renounceOwnership",
      "outputs": [],
      "stateMutability": "nonpayable",
      "type": "function"
    },
    {
      "inputs": [
        {
          "internalType": "uint256",
          "name": "id_",
          "type": "uint256"
        },
        {
          "internalType": "uint256",
          "name": "amount_",
          "type": "uint256"
        }
      ],
      "name": "repay",
      "outputs": [],
      "stateMutability": "nonpayable",
      "type": "function"
    },
    {
      "inputs": [
        {
          "internalType": "uint256",
          "name": "id_",
          "type": "uint256"
        },
        {
          "internalType": "uint256",
          "name": "repayAmount_",
          "type": "uint256"
        },
        {
          "internalType": "uint256",
          "name": "withdrawAmount_",
          "type": "uint256"
        }
      ],
      "name": "repayAndWithdraw",
      "outputs": [],
      "stateMutability": "nonpayable",
      "type": "function"
    },
    {
      "inputs": [
        {
          "internalType": "uint256",
          "name": "shareAmount_",
          "type": "uint256"
        },
        {
          "internalType": "uint256",
          "name": "ltv_",
          "type": "uint256"
        }
      ],
      "name": "requiredCollateralAmountFromShareWithLtv",
      "outputs": [
        {
          "internalType": "uint256",
          "name": "collateralAmount_",
          "type": "uint256"
        }
      ],
      "stateMutability": "view",
      "type": "function"
    },
    {
      "inputs": [
        {
          "internalType": "uint256",
          "name": "stableAmount_",
          "type": "uint256"
        },
        {
          "internalType": "uint256",
          "name": "ltv_",
          "type": "uint256"
        }
      ],
      "name": "requiredCollateralAmountFromStableWithLtv",
      "outputs": [
        {
          "internalType": "uint256",
          "name": "collateralAmount_",
          "type": "uint256"
        }
      ],
      "stateMutability": "view",
      "type": "function"
    },
    {
      "inputs": [
        {
          "internalType": "uint256",
          "name": "collateralAmount_",
          "type": "uint256"
        },
        {
          "internalType": "uint256",
          "name": "ltv_",
          "type": "uint256"
        }
      ],
      "name": "requiredShareAmountFromCollateralWithLtv",
      "outputs": [
        {
          "internalType": "uint256",
          "name": "shareAmount_",
          "type": "uint256"
        }
      ],
      "stateMutability": "view",
      "type": "function"
    },
    {
      "inputs": [
        {
          "internalType": "address",
          "name": "from",
          "type": "address"
        },
        {
          "internalType": "address",
          "name": "to",
          "type": "address"
        },
        {
          "internalType": "uint256",
          "name": "tokenId",
          "type": "uint256"
        }
      ],
      "name": "safeTransferFrom",
      "outputs": [],
      "stateMutability": "nonpayable",
      "type": "function"
    },
    {
      "inputs": [
        {
          "internalType": "address",
          "name": "from",
          "type": "address"
        },
        {
          "internalType": "address",
          "name": "to",
          "type": "address"
        },
        {
          "internalType": "uint256",
          "name": "tokenId",
          "type": "uint256"
        },
        {
          "internalType": "bytes",
          "name": "data",
          "type": "bytes"
        }
      ],
      "name": "safeTransferFrom",
      "outputs": [],
      "stateMutability": "nonpayable",
      "type": "function"
    },
    {
      "inputs": [
        {
          "internalType": "address",
          "name": "operator",
          "type": "address"
        },
        {
          "internalType": "bool",
          "name": "approved",
          "type": "bool"
        }
      ],
      "name": "setApprovalForAll",
      "outputs": [],
      "stateMutability": "nonpayable",
      "type": "function"
    },
    {
      "inputs": [
        {
          "internalType": "uint256",
          "name": "newCap",
          "type": "uint256"
        }
      ],
      "name": "setCap",
      "outputs": [],
      "stateMutability": "nonpayable",
      "type": "function"
    },
    {
      "inputs": [
        {
          "internalType": "uint256",
          "name": "newFeeRatio",
          "type": "uint256"
        }
      ],
      "name": "setFeeRatio",
      "outputs": [],
      "stateMutability": "nonpayable",
      "type": "function"
    },
    {
      "inputs": [
        {
          "internalType": "address",
          "name": "newFeeTo",
          "type": "address"
        }
      ],
      "name": "setFeeTo",
      "outputs": [],
      "stateMutability": "nonpayable",
      "type": "function"
    },
    {
      "inputs": [
        {
          "internalType": "uint256",
          "name": "newMaxLTV",
          "type": "uint256"
        }
      ],
      "name": "setMaxLTV",
      "outputs": [],
      "stateMutability": "nonpayable",
      "type": "function"
    },
    {
      "inputs": [
        {
          "internalType": "bytes4",
          "name": "interfaceId",
          "type": "bytes4"
        }
      ],
      "name": "supportsInterface",
      "outputs": [
        {
          "internalType": "bool",
          "name": "",
          "type": "bool"
        }
      ],
      "stateMutability": "view",
      "type": "function"
    },
    {
      "inputs": [],
      "name": "symbol",
      "outputs": [
        {
          "internalType": "string",
          "name": "",
          "type": "string"
        }
      ],
      "stateMutability": "view",
      "type": "function"
    },
    {
      "inputs": [
        {
          "internalType": "uint256",
          "name": "tokenId",
          "type": "uint256"
        }
      ],
      "name": "tokenURI",
      "outputs": [
        {
          "internalType": "string",
          "name": "",
          "type": "string"
        }
      ],
      "stateMutability": "view",
      "type": "function"
    },
    {
      "inputs": [],
      "name": "totalCollateral",
      "outputs": [
        {
          "internalType": "uint256",
          "name": "",
          "type": "uint256"
        }
      ],
      "stateMutability": "view",
      "type": "function"
    },
    {
      "inputs": [],
      "name": "totalDebt",
      "outputs": [
        {
          "internalType": "uint256",
          "name": "",
          "type": "uint256"
        }
      ],
      "stateMutability": "view",
      "type": "function"
    },
    {
      "inputs": [],
      "name": "totalFee",
      "outputs": [
        {
          "internalType": "uint256",
          "name": "",
          "type": "uint256"
        }
      ],
      "stateMutability": "view",
      "type": "function"
    },
    {
      "inputs": [
        {
          "internalType": "address",
          "name": "from",
          "type": "address"
        },
        {
          "internalType": "address",
          "name": "to",
          "type": "address"
        },
        {
          "internalType": "uint256",
          "name": "tokenId",
          "type": "uint256"
        }
      ],
      "name": "transferFrom",
      "outputs": [],
      "stateMutability": "nonpayable",
      "type": "function"
    },
    {
      "inputs": [
        {
          "internalType": "address",
          "name": "newOwner",
          "type": "address"
        }
      ],
      "name": "transferOwnership",
      "outputs": [],
      "stateMutability": "nonpayable",
      "type": "function"
    },
    {
      "inputs": [],
      "name": "unpause",
      "outputs": [],
      "stateMutability": "nonpayable",
      "type": "function"
    },
    {
      "inputs": [
        {
          "internalType": "uint256",
          "name": "newCollateralPrice",
          "type": "uint256"
        },
        {
          "internalType": "uint256",
          "name": "confidence",
          "type": "uint256"
        }
      ],
      "name": "updateCollateralPrice",
      "outputs": [],
      "stateMutability": "nonpayable",
      "type": "function"
    },
    {
      "inputs": [
        {
          "internalType": "uint256",
          "name": "id_",
          "type": "uint256"
        }
      ],
      "name": "updateFee",
      "outputs": [
        {
          "internalType": "uint256",
          "name": "additionalFee",
          "type": "uint256"
        }
      ],
      "stateMutability": "nonpayable",
      "type": "function"
    },
    {
      "inputs": [
        {
          "internalType": "address",
          "name": "newOracleFeeder",
          "type": "address"
        }
      ],
      "name": "updateOracleFeeder",
      "outputs": [],
      "stateMutability": "nonpayable",
      "type": "function"
    },
    {
      "inputs": [
        {
          "internalType": "uint256",
          "name": "id_",
          "type": "uint256"
        },
        {
          "internalType": "uint256",
          "name": "amount_",
          "type": "uint256"
        }
      ],
      "name": "withdraw",
      "outputs": [],
      "stateMutability": "nonpayable",
      "type": "function"
    },
    {
      "inputs": [
        {
          "internalType": "uint256",
          "name": "id_",
          "type": "uint256"
        },
        {
          "internalType": "uint256",
          "name": "multipliedLtv_",
          "type": "uint256"
        }
      ],
      "name": "withdrawAmountToLTV",
      "outputs": [
        {
          "internalType": "uint256",
          "name": "collateralAmount_",
          "type": "uint256"
        }
      ],
      "stateMutability": "view",
      "type": "function"
    }
  ],
  "bytecode": "0x6101206040526127106008553480156200001857600080fd5b50604051620048fb380380620048fb8339810160408190526200003b9162000560565b60405180604001604052806007815260200166466f784661726d60c81b815250604051806040016040528060068152602001650464f584344560d41b8152508b8b8b8b88888886898981600090805190602001906200009c9291906200049d565b508051620000b29060019060208401906200049d565b50506006805460ff1916905550620000ca336200037b565b600780546001600160a01b03199081166001600160a01b0393841617909155600b80549091169782169790971790965593851660805291841660a052600955600a55600c558d93508316151591506200017090505760405162461bcd60e51b81526020600482015260316024820152600080516020620048db8339815191526044820152600080516020620048bb83398151915260648201526084015b60405180910390fd5b886001600160a01b038116620001cd5760405162461bcd60e51b81526020600482015260316024820152600080516020620048db8339815191526044820152600080516020620048bb833981519152606482015260840162000167565b886001600160a01b0381166200022a5760405162461bcd60e51b81526020600482015260316024820152600080516020620048db8339815191526044820152600080516020620048bb833981519152606482015260840162000167565b886001600160a01b038116620002875760405162461bcd60e51b81526020600482015260316024820152600080516020620048db8339815191526044820152600080516020620048bb833981519152606482015260840162000167565b886001600160a01b038116620002e45760405162461bcd60e51b81526020600482015260316024820152600080516020620048db8339815191526044820152600080516020620048bb833981519152606482015260840162000167565b886001600160a01b038116620003415760405162461bcd60e51b81526020600482015260316024820152600080516020620048db8339815191526044820152600080516020620048bb833981519152606482015260840162000167565b6001600160a01b03808d1660c0528b811660e0528a166101005262000365620003d5565b5050505050505050505050505050505062000651565b600680546001600160a01b03838116610100818102610100600160a81b031985161790945560405193909204169182907f8be0079c531659141344cd1fd0a4f28419497f9722a3daafe3b4186f6b6457e090600090a35050565b60a05160e051604051630571ac8b60e41b81526001600160a01b03918216600482015291169063571ac8b090602401600060405180830381600087803b1580156200041f57600080fd5b505af115801562000434573d6000803e3d6000fd5b505060c05160e051604051630571ac8b60e41b81526001600160a01b0391821660048201529116925063571ac8b09150602401600060405180830381600087803b1580156200048257600080fd5b505af115801562000497573d6000803e3d6000fd5b50505050565b828054620004ab9062000614565b90600052602060002090601f016020900481019282620004cf57600085556200051a565b82601f10620004ea57805160ff19168380011785556200051a565b828001600101855582156200051a579182015b828111156200051a578251825591602001919060010190620004fd565b50620005289291506200052c565b5090565b5b808211156200052857600081556001016200052d565b80516001600160a01b03811681146200055b57600080fd5b919050565b6000806000806000806000806000806101408b8d0312156200058157600080fd5b6200058c8b62000543565b99506200059c60208c0162000543565b9850620005ac60408c0162000543565b9750620005bc60608c0162000543565b9650620005cc60808c0162000543565b9550620005dc60a08c0162000543565b9450620005ec60c08c0162000543565b935060e08b015192506101008b015191506101208b015190509295989b9194979a5092959850565b600181811c908216806200062957607f821691505b602082108114156200064b57634e487b7160e01b600052602260045260246000fd5b50919050565b60805160a05160c05160e0516101005161413e6200077d60003960008181610b9f0152610f94015260008181610d8c01528181610ee00152818161129f015281816113bc015281816114e601528181611585015281816116de015281816117770152818161191701528181611a3301528181611a8b01528181611c9901528181611d6201528181611e88015281816124b60152818161255c0152818161264601528181612932015261298b015260008181610e9401528181611366015281816114900152818161179f015281816125e90152612a22015260008181610d3e01528181611251015281816117060152818161319501528181613260015281816134dd0152818161352701526135a1015260008181611f9801528181612a9f0152612cd6015261413e6000f3fe608060405234801561001057600080fd5b50600436106103db5760003560e01c8063715018a61161020a578063bc71054e11610125578063eb89ef78116100b8578063f2fde38b11610087578063f2fde38b14610886578063f384bd0514610899578063f46901ed146108a2578063fc7b9c18146108b5578063fcfff16f146108be57600080fd5b8063eb89ef78146107f8578063ebd7acb81461084d578063ee50e50b14610860578063efb2654d1461087357600080fd5b8063d8aed145116100f4578063d8aed1451461078e578063dd8a04b3146107a1578063e2bbb158146107a9578063e985e9c5146107bc57600080fd5b8063bc71054e14610755578063c4e1d2e614610700578063c87b56dd14610768578063cefd3f161461077b57600080fd5b8063a22cb4651161019d578063af640d0f1161016c578063af640d0f14610713578063b56094001461071c578063b88d4fde1461072f578063bb23c7371461074257600080fd5b8063a22cb465146106c7578063a33a2003146106da578063a3a12555146106ed578063af3daa7b1461070057600080fd5b80638db585bf116101d95780638db585bf146106865780639012c4a81461069957806395d89b41146106ac5780639760a42b146106b457600080fd5b8063715018a6146106585780638129fc1c146106605780638456cb59146106685780638da5cb5b1461067057600080fd5b8063355274ea116102fa5780634cb9c24a1161028d578063657988791161025c578063657988791461060c5780636c9122fd1461061f578063700d65421461063257806370a082311461064557600080fd5b80634cb9c24a146105c85780635b529197146105db5780635c975abb146105ee5780636352211e146105f957600080fd5b806342842e0e116102c957806342842e0e14610586578063441a3e701461059957806347786d37146105ac5780634ac8eb5f146105bf57600080fd5b8063355274ea1461055a57806336bdbb13146105635780633f4ba83a1461056b578063415f12401461057357600080fd5b806319f4ff2f11610372578063262daf8e11610341578063262daf8e1461050e5780632e2ddd45146105215780632f297daa14610534578063335771141461054757600080fd5b806319f4ff2f146104a95780631df4ccfc146104bc578063234ee471146104d357806323b872dd146104fb57600080fd5b8063095ea7b3116103ae578063095ea7b31461045d5780630aebeb4e146104705780630b068e9c146104835780630ecbcdab1461049657600080fd5b806301ffc9a7146103e057806306fdde0314610408578063081812fc1461041d57806308a0c37514610448575b600080fd5b6103f36103ee366004613aeb565b6108c6565b60405190151581526020015b60405180910390f35b610410610918565b6040516103ff9190613b60565b61043061042b366004613b73565b6109aa565b6040516001600160a01b0390911681526020016103ff565b61045b610456366004613b73565b6109d1565b005b61045b61046b366004613ba8565b610a1f565b61045b61047e366004613b73565b610b3a565b61045b610491366004613bd2565b610b7e565b61045b6104a4366004613bd2565b610c57565b61045b6104b7366004613b73565b610ca2565b6104c560115481565b6040519081526020016103ff565b6104e66104e1366004613bf4565b610ce8565b604080519283526020830191909152016103ff565b61045b610509366004613c27565b610e17565b61045b61051c366004613c63565b610e48565b61045b61052f366004613c7e565b610e5c565b6104e6610542366004613ba8565b610e84565b6104c5610555366004613b73565b61101b565b6104c5600a5481565b61045b611097565b61045b6110a9565b61045b610581366004613b73565b6110b9565b61045b610594366004613c27565b61112f565b61045b6105a7366004613bd2565b61114a565b61045b6105ba366004613b73565b61118f565b6104c5600f5481565b6103f36105d6366004613b73565b6111d5565b6104e66105e9366004613bf4565b6111fd565b60065460ff166103f3565b610430610607366004613b73565b6112ce565b6104c561061a366004613bf4565b61132e565b6104c561062d366004613bf4565b611481565b6104c5610640366004613bd2565b611579565b6104c5610653366004613c63565b61162f565b61045b6116b5565b61045b6116c7565b61045b6117f9565b60065461010090046001600160a01b0316610430565b6104c5610694366004613bd2565b611809565b6104c56106a7366004613b73565b61188f565b61041061189a565b61045b6106c2366004613c7e565b6118a9565b61045b6106d5366004613cb8565b611900565b6104c56106e8366004613bd2565b61190f565b6104c56106fb366004613bd2565b6119b3565b6104c561070e366004613bd2565b611a2b565b6104c5600e5481565b6104c561072a366004613c7e565b611a7f565b61045b61073d366004613d05565b611b3e565b6104c5610750366004613b73565b611b70565b6104c5610763366004613b73565b611ba1565b610410610776366004613b73565b611c1d565b6104e6610789366004613bd2565b611c90565b61045b61079c366004613bd2565b611ded565b6104c5611e0a565b61045b6107b7366004613bd2565b611e60565b6103f36107ca366004613de1565b6001600160a01b03918216600090815260056020908152604080832093909416825291909152205460ff1690565b61082d610806366004613b73565b600d6020526000908152604090208054600182015460028301546003909301549192909184565b6040805194855260208501939093529183015260608201526080016103ff565b6104c561085b366004613bd2565b611e7c565b6104c561086e366004613bd2565b611eba565b61045b610881366004613bd2565b611ef7565b61045b610894366004613c63565b611ff1565b6104c560095481565b61045b6108b0366004613c63565b612067565b6104c560105481565b6104c56120c9565b60006001600160e01b031982166380ac58cd60e01b14806108f757506001600160e01b03198216635b5e139f60e01b145b8061091257506301ffc9a760e01b6001600160e01b03198316145b92915050565b60606000805461092790613e0b565b80601f016020809104026020016040519081016040528092919081815260200182805461095390613e0b565b80156109a05780601f10610975576101008083540402835291602001916109a0565b820191906000526020600020905b81548152906001019060200180831161098357829003601f168201915b5050505050905090565b60006109b5826120eb565b506000908152600460205260409020546001600160a01b031690565b6109d961214a565b600980549082905560408051828152602081018490527fe796e9ae748449310fcd1cc6718aab236c9b8d2e0e04dacb232ba564d5b338cc91015b60405180910390a15050565b6000610a2a826112ce565b9050806001600160a01b0316836001600160a01b03161415610a9d5760405162461bcd60e51b815260206004820152602160248201527f4552433732313a20617070726f76616c20746f2063757272656e74206f776e656044820152603960f91b60648201526084015b60405180910390fd5b336001600160a01b0382161480610ab95750610ab981336107ca565b610b2b5760405162461bcd60e51b815260206004820152603e60248201527f4552433732313a20617070726f76652063616c6c6572206973206e6f7420746f60448201527f6b656e206f776e6572206e6f7220617070726f76656420666f7220616c6c00006064820152608401610a94565b610b3583836121aa565b505050565b610b42612218565b3381610b4e828261225e565b610b6a5760405162461bcd60e51b8152600401610a9490613e46565b610b73836122dc565b50610b3533846123eb565b610b86612218565b604051630852cd8d60e31b8152600481018290526000907f00000000000000000000000000000000000000000000000000000000000000006001600160a01b0316906342966c68906024016040805180830381600087803b158015610bea57600080fd5b505af1158015610bfe573d6000803e3d6000fd5b505050506040513d601f19601f82011682018060405250810190610c229190613e96565b6000858152600d602052604081206001810180549395509093508492909190610c4c908490613ed0565b909155505050505050565b610c5f612218565b3382610c6b828261225e565b610c875760405162461bcd60e51b8152600401610a9490613e46565b610c90846122dc565b50610c9c33858561249d565b50505050565b610caa61214a565b600c80549082905560408051828152602081018490527f249ce3aa19ca005081b3e7143ee5f00395d8ac801e1fd05ec532b214a56420f99101610a13565b600080610cf3612218565b3384610cff828261225e565b610d1b5760405162461bcd60e51b8152600401610a9490613e46565b33610d25876122dc565b50610d3181888861249d565b610d666001600160a01b037f0000000000000000000000000000000000000000000000000000000000000000168230896126cb565b60405163423e797960e01b81526001600160a01b038981166004830152602482018890527f0000000000000000000000000000000000000000000000000000000000000000169063423e7979906044015b6040805180830381600087803b158015610dd057600080fd5b505af1158015610de4573d6000803e3d6000fd5b505050506040513d601f19601f82011682018060405250810190610e089190613e96565b90999098509650505050505050565b610e21338261225e565b610e3d5760405162461bcd60e51b8152600401610a9490613ee7565b610b35838383612736565b610e5061214a565b610e59816128d2565b50565b610e64612218565b610e6d836122dc565b50610e7933848461292c565b610b35338483612a51565b600080610e8f612218565b610ec47f00000000000000000000000000000000000000000000000000000000000000006001600160a01b03163330866126cb565b604051631957dd9f60e21b8152306004820152602481018490527f00000000000000000000000000000000000000000000000000000000000000006001600160a01b03169063655f767c90604401602060405180830381600087803b158015610f2c57600080fd5b505af1158015610f40573d6000803e3d6000fd5b505050506040513d601f19601f82011682018060405250810190610f649190613f35565b604051632baf2acb60e01b81526001600160a01b03868116600483015260248201869052604482018390529192507f000000000000000000000000000000000000000000000000000000000000000090911690632baf2acb90606401602060405180830381600087803b158015610fda57600080fd5b505af1158015610fee573d6000803e3d6000fd5b505050506040513d601f19601f820116820180604052508101906110129190613f35565b91509250929050565b6000818152600d602090815260408083208151608081018352815480825260018301549482019490945260028201549281019290925260030154606082015260085490916110699190613f4e565b61271080836020015161107c9190613f4e565b6110869190613f4e565b6110909190613f83565b9392505050565b61109f61214a565b6110a7612bed565b565b6110b161214a565b6110a7612c36565b6110c2816122dc565b506110cc816111d5565b156111255760405162461bcd60e51b815260206004820152602360248201527f4344503a3a6c69717569646174653a20434450206d75737420626520756e736160448201526233329760e91b6064820152608401610a94565b610e5933826123eb565b610b3583838360405180602001604052806000815250611b3e565b611152612218565b338261115e828261225e565b61117a5760405162461bcd60e51b8152600401610a9490613e46565b611183846122dc565b50610c9c338585612a51565b61119761214a565b600a80549082905560408051828152602081018490527fdbbbb176683582b710ef3349793b8d62658724a9d9b54deccf193c4b0aa90c4c9101610a13565b60006127106111e383611ba1565b10801561091257506127106111f6611e0a565b1092915050565b600080611208612218565b3360006112148661101b565b9050611221828787612c88565b61122a866122dc565b50600061123787836119b3565b905061124483888361249d565b6112796001600160a01b037f0000000000000000000000000000000000000000000000000000000000000000168430896126cb565b60405163423e797960e01b81526001600160a01b038981166004830152602482018390527f0000000000000000000000000000000000000000000000000000000000000000169063423e797990604401610db7565b6000818152600260205260408120546001600160a01b0316806109125760405162461bcd60e51b8152602060048201526018602482015277115490cdcc8c4e881a5b9d985b1a59081d1bdad95b88125160421b6044820152606401610a94565b6000611338612218565b3383611344828261225e565b6113605760405162461bcd60e51b8152600401610a9490613e46565b336113967f00000000000000000000000000000000000000000000000000000000000000006001600160a01b03168230886126cb565b604051631957dd9f60e21b81526001600160a01b038881166004830152602482018790527f0000000000000000000000000000000000000000000000000000000000000000169063655f767c90604401602060405180830381600087803b15801561140057600080fd5b505af1158015611414573d6000803e3d6000fd5b505050506040513d601f19601f820116820180604052508101906114389190613f35565b935060006114458761101b565b9050611450876122dc565b5061145c82888761292c565b60006114688883611809565b9050611475838983612a51565b50505050509392505050565b600061148b612218565b6114c07f00000000000000000000000000000000000000000000000000000000000000006001600160a01b03163330856126cb565b604051631957dd9f60e21b81526001600160a01b038581166004830152602482018490527f0000000000000000000000000000000000000000000000000000000000000000169063655f767c90604401602060405180830381600087803b15801561152a57600080fd5b505af115801561153e573d6000803e3d6000fd5b505050506040513d601f19601f820116820180604052508101906115629190613f35565b905061156d836122dc565b5061109033848361292c565b60006001600160a01b037f00000000000000000000000000000000000000000000000000000000000000001663d5aa33d26127106115b78587613f4e565b6115c19190613f83565b6040518263ffffffff1660e01b81526004016115df91815260200190565b60206040518083038186803b1580156115f757600080fd5b505afa15801561160b573d6000803e3d6000fd5b505050506040513d601f19601f820116820180604052508101906110909190613f35565b60006001600160a01b0382166116995760405162461bcd60e51b815260206004820152602960248201527f4552433732313a2061646472657373207a65726f206973206e6f7420612076616044820152683634b21037bbb732b960b91b6064820152608401610a94565b506001600160a01b031660009081526003602052604090205490565b6116bd61214a565b6110a76000612da0565b604051630571ac8b60e41b81526001600160a01b037f0000000000000000000000000000000000000000000000000000000000000000811660048301527f0000000000000000000000000000000000000000000000000000000000000000169063571ac8b090602401600060405180830381600087803b15801561174a57600080fd5b505af115801561175e573d6000803e3d6000fd5b5050604051630571ac8b60e41b81526001600160a01b037f0000000000000000000000000000000000000000000000000000000000000000811660048301527f000000000000000000000000000000000000000000000000000000000000000016925063571ac8b09150602401600060405180830381600087803b1580156117e557600080fd5b505af1158015610c9c573d6000803e3d6000fd5b61180161214a565b6110a7612dfa565b6000828152600d602090815260408083208151608081018352815481526001820154938101939093526002810154918301919091526003015460608201526008546118549084613f4e565b6127108083602001516118679190613f4e565b6118719190613f4e565b61187b9190613f83565b81516118879190613ed0565b949350505050565b6000610912826122dc565b60606001805461092790613e0b565b6118b1612218565b33836118bd828261225e565b6118d95760405162461bcd60e51b8152600401610a9490613e46565b6118e4338686612c88565b6118ed856122dc565b506118f933868561249d565b5050505050565b61190b338383612e37565b5050565b6000816127107f00000000000000000000000000000000000000000000000000000000000000006001600160a01b0316632694d5e7866040518263ffffffff1660e01b815260040161196391815260200190565b60206040518083038186803b15801561197b57600080fd5b505afa15801561198f573d6000803e3d6000fd5b505050506040513d601f19601f8201168201806040525081019061107c9190613f35565b6000828152600d602090815260408083208151608081018352815481526001820154938101849052600282015492810192909252600301546060820152906119fd61271080613f4e565b60085483518691611a0d91613f4e565b611a179190613f4e565b611a219190613f83565b6118879190613ed0565b6000816127107f00000000000000000000000000000000000000000000000000000000000000006001600160a01b03166375c2f595866040518263ffffffff1660e01b815260040161196391815260200190565b60006001600160a01b037f000000000000000000000000000000000000000000000000000000000000000016638a879219612710611abd8688613f4e565b611ac79190613f83565b846040518363ffffffff1660e01b8152600401611aee929190918252602082015260400190565b60206040518083038186803b158015611b0657600080fd5b505afa158015611b1a573d6000803e3d6000fd5b505050506040513d601f19601f820116820180604052508101906118879190613f35565b611b48338361225e565b611b645760405162461bcd60e51b8152600401610a9490613ee7565b610c9c84848484612f06565b6000611b7a612218565b33611b8481612f39565b9150611b91818385612c88565b611b9a826122dc565b5050919050565b6000818152600d602090815260408083208151608081018352815480825260018301549482019490945260028201549281019290925260030154606082015260095460085491929091611bf391613f4e565b611bfd9190613f4e565b612710806127108460200151611c139190613f4e565b61107c9190613f4e565b6060611c28826120eb565b6000611c3f60408051602081019091526000815290565b90506000815111611c5f5760405180602001604052806000815250611090565b80611c6984612f95565b604051602001611c7a929190613f97565b6040516020818303038152906040529392505050565b600080826127107f00000000000000000000000000000000000000000000000000000000000000006001600160a01b031663de1cf169876040518263ffffffff1660e01b8152600401611ce591815260200190565b60206040518083038186803b158015611cfd57600080fd5b505afa158015611d11573d6000803e3d6000fd5b505050506040513d601f19601f82011682018060405250810190611d359190613f35565b611d3f9190613f4e565b611d499190613f83565b60405163db6583e360e01b8152600481018690529092507f00000000000000000000000000000000000000000000000000000000000000006001600160a01b03169063db6583e39060240160206040518083038186803b158015611dac57600080fd5b505afa158015611dc0573d6000803e3d6000fd5b505050506040513d601f19601f82011682018060405250810190611de49190613f35565b90509250929050565b611df5612218565b611dfe826122dc565b5061190b33838361292c565b6000600954600854600f54611e1f9190613f4e565b611e299190613f4e565b61271080612710601054611e3d9190613f4e565b611e479190613f4e565b611e519190613f4e565b611e5b9190613f83565b905090565b611e68612218565b611e73338383612c88565b610b35826122dc565b60006001600160a01b037f00000000000000000000000000000000000000000000000000000000000000001663d53839906127106115b78587613f4e565b6000611ec4612218565b33611ece81612f39565b9150611edb818386612c88565b611ee4826122dc565b50611ef081838561249d565b5092915050565b6007546001600160a01b0316336001600160a01b031614611f805760405162461bcd60e51b815260206004820152603f60248201527f4f7261636c653a3a6f6e6c794f7261636c654665656465723a2053656e64657260448201527f206d7573742062652073616d65206173205f6f7261636c654665656465722e006064820152608401610a94565b600880549083905560408051828152602081018590527f00000000000000000000000000000000000000000000000000000000000000006001600160a01b0316917f7c3bda8adcb9df1edd0059da351d966538bcc99f067c0770872170ac97fb6887910160405180910390a2505050565b611ff961214a565b6001600160a01b03811661205e5760405162461bcd60e51b815260206004820152602660248201527f4f776e61626c653a206e6577206f776e657220697320746865207a65726f206160448201526564647265737360d01b6064820152608401610a94565b610e5981612da0565b61206f61214a565b600b80546001600160a01b038381166001600160a01b031983168117909355604080519190921680825260208201939093527f41d2755f00068d89c23ebc6f1e73ce119a6236a44517ca061f544a3f91c9bca49101610a13565b60006120d3612218565b6120dc33612f39565b90506120e7816122dc565b5090565b6000818152600260205260409020546001600160a01b0316610e595760405162461bcd60e51b8152602060048201526018602482015277115490cdcc8c4e881a5b9d985b1a59081d1bdad95b88125160421b6044820152606401610a94565b6006546001600160a01b036101009091041633146110a75760405162461bcd60e51b815260206004820181905260248201527f4f776e61626c653a2063616c6c6572206973206e6f7420746865206f776e65726044820152606401610a94565b600081815260046020526040902080546001600160a01b0319166001600160a01b03841690811790915581906121df826112ce565b6001600160a01b03167f8c5be1e5ebec7d5bd14f71427d1e84f3dd0314c0f7b2291e5b200ac8c7c3b92560405160405180910390a45050565b60065460ff16156110a75760405162461bcd60e51b815260206004820152601060248201526f14185d5cd8589b194e881c185d5cd95960821b6044820152606401610a94565b60008061226a836112ce565b9050806001600160a01b0316846001600160a01b031614806122b157506001600160a01b0380821660009081526005602090815260408083209388168352929052205460ff165b806118875750836001600160a01b03166122ca846109aa565b6001600160a01b031614949350505050565b6000818152600d602052604081206003810154600282015442908461230561271061016d613f4e565b612310906018613f4e565b61231b90603c613f4e565b61232690603c613f4e565b600c546123338686613ed0565b87600101546123429190613f4e565b61234c9190613f4e565b6123569190613f83565b95508585600201600082825461236c9190613fc6565b9250508190555085601160008282546123859190613fc6565b90915550505060038401829055600284015460408051838152602081018390529081018590526060810184905287907f058060763f0c6ae3b30d3624dbb6899601ed67b215a0b7591707778c7218db2f9060800160405180910390a25050505050919050565b6000818152600d602052604090206001810154156124215761242183838360020154846001015461241c9190613fc6565b61292c565b8054156124375761243783838360000154612a51565b61244082613093565b6000828152600d602052604080822082815560018101839055600281018390556003018290555183916001600160a01b038616917f684222b0069d4a2e5e0d986611cc5182d543904c4e4264bf770d4e51faefc8229190a3505050565b60405163de1cf16960e01b8152600481018290526000907f00000000000000000000000000000000000000000000000000000000000000006001600160a01b03169063de1cf1699060240160206040518083038186803b15801561250057600080fd5b505afa158015612514573d6000803e3d6000fd5b505050506040513d601f19601f820116820180604052508101906125389190613f35565b60405163db6583e360e01b8152600481018490529091506000906001600160a01b037f0000000000000000000000000000000000000000000000000000000000000000169063db6583e39060240160206040518083038186803b15801561259e57600080fd5b505afa1580156125b2573d6000803e3d6000fd5b505050506040513d601f19601f820116820180604052508101906125d69190613f35565b90506125e330858461312e565b336126197f00000000000000000000000000000000000000000000000000000000000000006001600160a01b03168230856126cb565b604051630ab714fb60e11b81526001600160a01b03878116600483015260248201859052604482018490527f0000000000000000000000000000000000000000000000000000000000000000169063156e29f690606401602060405180830381600087803b15801561268a57600080fd5b505af115801561269e573d6000803e3d6000fd5b505050506040513d601f19601f820116820180604052508101906126c29190613f35565b50505050505050565b6040516001600160a01b0380851660248301528316604482015260648101829052610c9c9085906323b872dd60e01b906084015b60408051601f198184030181529190526020810180516001600160e01b03166001600160e01b03199093169290921790915261338a565b826001600160a01b0316612749826112ce565b6001600160a01b0316146127ad5760405162461bcd60e51b815260206004820152602560248201527f4552433732313a207472616e736665722066726f6d20696e636f72726563742060448201526437bbb732b960d91b6064820152608401610a94565b6001600160a01b03821661280f5760405162461bcd60e51b8152602060048201526024808201527f4552433732313a207472616e7366657220746f20746865207a65726f206164646044820152637265737360e01b6064820152608401610a94565b61281a6000826121aa565b6001600160a01b0383166000908152600360205260408120805460019290612843908490613ed0565b90915550506001600160a01b0382166000908152600360205260408120805460019290612871908490613fc6565b909155505060008181526002602052604080822080546001600160a01b0319166001600160a01b0386811691821790925591518493918716917fddf252ad1be2c89b69c2b068fc378daa952ba7f163c4a11628f55a4df523b3ef91a4505050565b600780546001600160a01b038381166001600160a01b031983168117909355604080519190921680825260208201939093527f6b2e9b3836edd552e454031d349dbf020544e4123c344f1ddb0a7a9a336adef99101610a13565b336129627f00000000000000000000000000000000000000000000000000000000000000006001600160a01b03168230856126cb565b6040516301e9a69560e41b81523060048201526024810183905260009081906001600160a01b037f00000000000000000000000000000000000000000000000000000000000000001690631e9a6950906044016040805180830381600087803b1580156129ce57600080fd5b505af11580156129e2573d6000803e3d6000fd5b505050506040513d601f19601f82011682018060405250810190612a069190613e96565b91509150612a1530868461345c565b612a496001600160a01b037f0000000000000000000000000000000000000000000000000000000000000000168783613690565b505050505050565b6000828152600d60205260408120805490918391839190612a73908490613ed0565b9250508190555081600f6000828254612a8c9190613ed0565b90915550612ac690506001600160a01b037f0000000000000000000000000000000000000000000000000000000000000000168584613690565b612acf836111d5565b612b325760405162461bcd60e51b815260206004820152602e60248201527f4344503a3a5f77697468647261773a20434450206f7065726174696f6e20657860448201526d31b2b2b2399036b0bc10262a2b1760911b6064820152608401610a94565b80541580612b48575080546611c37937e0800011155b612ba35760405162461bcd60e51b815260206004820152602660248201527f4344503a3a5f77697468647261773a204e6f7420656e6f75676820636f6c6c616044820152653a32b930b61760d11b6064820152608401610a94565b82846001600160a01b03167ff279e6a1f5e320cca91135676d9cb6e44ca8a08c0b88342bcdb1144f6511b56884604051612bdf91815260200190565b60405180910390a350505050565b60065460ff166110a75760405162461bcd60e51b815260206004820152601460248201527314185d5cd8589b194e881b9bdd081c185d5cd95960621b6044820152606401610a94565b612c3e612bed565b6006805460ff191690557f5db9ee0a495bf2e6ff9c91a7834c1ba4fdd244a5e8aa4e537bd38aeae4b073aa335b6040516001600160a01b03909116815260200160405180910390a1565b6000828152600d60205260408120805490918391839190612caa908490613fc6565b9250508190555081600f6000828254612cc39190613fc6565b90915550612cfe90506001600160a01b037f0000000000000000000000000000000000000000000000000000000000000000168530856126cb565b80546611c37937e080001115612d645760405162461bcd60e51b815260206004820152602560248201527f4344503a3a5f6465706f7369743a204e6f7420656e6f75676820636f6c6c617460448201526432b930b61760d91b6064820152608401610a94565b82846001600160a01b03167f90890809c654f11d6e72a28fa60149770a0d11ec6c92319d6ceb2bb0a4ea1a1584604051612bdf91815260200190565b600680546001600160a01b03838116610100818102610100600160a81b031985161790945560405193909204169182907f8be0079c531659141344cd1fd0a4f28419497f9722a3daafe3b4186f6b6457e090600090a35050565b612e02612218565b6006805460ff191660011790557f62e78cea01bee320cd4e420270b5ea74000d11b0c9f74754ebdbfc544b05a258612c6b3390565b816001600160a01b0316836001600160a01b03161415612e995760405162461bcd60e51b815260206004820152601960248201527f4552433732313a20617070726f766520746f2063616c6c6572000000000000006044820152606401610a94565b6001600160a01b03838116600081815260056020908152604080832094871680845294825291829020805460ff191686151590811790915591519182527f17307eab39ab6107e8899845ad3d59bd9653f200f220920489ca2b5937696c31910160405180910390a3505050565b612f11848484612736565b612f1d848484846136c0565b610c9c5760405162461bcd60e51b8152600401610a9490613fde565b600e805460009182612f4a83614030565b919050559050612f5a82826137cd565b60405181906001600160a01b038416907f50042401acb675fedd6dd939fccc629832ce60fa4185df25c01b20e8def195bf90600090a3919050565b606081612fb95750506040805180820190915260018152600360fc1b602082015290565b8160005b8115612fe35780612fcd81614030565b9150612fdc9050600a83613f83565b9150612fbd565b60008167ffffffffffffffff811115612ffe57612ffe613cef565b6040519080825280601f01601f191660200182016040528015613028576020820181803683370190505b5090505b84156118875761303d600183613ed0565b915061304a600a8661404b565b613055906030613fc6565b60f81b81838151811061306a5761306a61405f565b60200101906001600160f81b031916908160001a90535061308c600a86613f83565b945061302c565b600061309e826112ce565b90506130ab6000836121aa565b6001600160a01b03811660009081526003602052604081208054600192906130d4908490613ed0565b909155505060008281526002602052604080822080546001600160a01b0319169055518391906001600160a01b038416907fddf252ad1be2c89b69c2b068fc378daa952ba7f163c4a11628f55a4df523b3ef908390a45050565b6000828152600d6020526040812060018101805491928492613151908490613fc6565b92505081905550816010600082825461316a9190613fc6565b90915550506040516308934a5f60e31b81526001600160a01b038581166004830152602482018490527f0000000000000000000000000000000000000000000000000000000000000000169063449a52f890604401600060405180830381600087803b1580156131d957600080fd5b505af11580156131ed573d6000803e3d6000fd5b505050506131fa836111d5565b61325b5760405162461bcd60e51b815260206004820152602c60248201527f4344503a3a5f626f72726f773a20434450206f7065726174696f6e206578636560448201526b32b2399036b0bc10262a2b1760a11b6064820152608401610a94565b600a547f00000000000000000000000000000000000000000000000000000000000000006001600160a01b03166318160ddd6040518163ffffffff1660e01b815260040160206040518083038186803b1580156132b757600080fd5b505afa1580156132cb573d6000803e3d6000fd5b505050506040513d601f19601f820116820180604052508101906132ef9190613f35565b111561334e5760405162461bcd60e51b815260206004820152602860248201527f4344503a3a5f626f72726f773a2043616e6e6f7420626f72726f772053494e2060448201526730b73cb6b7b9329760c11b6064820152608401610a94565b82846001600160a01b03167fe1979fe4c35e0cef342fef5668e2c8e7a7e9f5d5d1ca8fee0ac6c427fa4153af84604051612bdf91815260200190565b60006133df826040518060400160405280602081526020017f5361666545524332303a206c6f772d6c6576656c2063616c6c206661696c6564815250856001600160a01b03166137e79092919063ffffffff16565b805190915015610b3557808060200190518101906133fd9190614075565b610b355760405162461bcd60e51b815260206004820152602a60248201527f5361666545524332303a204552433230206f7065726174696f6e20646964206e6044820152691bdd081cdd58d8d9595960b21b6064820152608401610a94565b6000828152600d60205260408120600b549091906001600160a01b03166134835784613490565b600b546001600160a01b03165b90508282600201541061350a57828260020160008282546134b19190613ed0565b9250508190555082601160008282546134ca9190613ed0565b9091555061350590506001600160a01b037f0000000000000000000000000000000000000000000000000000000000000000168683866126cb565b613645565b600282015415613645576002820154613551906001600160a01b037f00000000000000000000000000000000000000000000000000000000000000001690879084906126cb565b60028201546135609084613ed0565b8260010160008282546135739190613ed0565b909155505060028201546135879084613ed0565b601060008282546135989190613ed0565b925050819055507f00000000000000000000000000000000000000000000000000000000000000006001600160a01b03166379cc6790868460020154866135df9190613ed0565b6040516001600160e01b031960e085901b1681526001600160a01b0390921660048301526024820152604401600060405180830381600087803b15801561362557600080fd5b505af1158015613639573d6000803e3d6000fd5b50506000600285015550505b83856001600160a01b03167f77c6871227e5d2dec8dadd5354f78453203e22e669cd0ec4c19d9a8c5edb31d08560405161368191815260200190565b60405180910390a35050505050565b6040516001600160a01b038316602482015260448101829052610b3590849063a9059cbb60e01b906064016126ff565b60006001600160a01b0384163b156137c257604051630a85bd0160e11b81526001600160a01b0385169063150b7a0290613704903390899088908890600401614092565b602060405180830381600087803b15801561371e57600080fd5b505af192505050801561374e575060408051601f3d908101601f1916820190925261374b918101906140cf565b60015b6137a8573d80801561377c576040519150601f19603f3d011682016040523d82523d6000602084013e613781565b606091505b5080516137a05760405162461bcd60e51b8152600401610a9490613fde565b805181602001fd5b6001600160e01b031916630a85bd0160e11b149050611887565b506001949350505050565b61190b8282604051806020016040528060008152506137f6565b60606118878484600085613829565b613800838361395a565b61380d60008484846136c0565b610b355760405162461bcd60e51b8152600401610a9490613fde565b60608247101561388a5760405162461bcd60e51b815260206004820152602660248201527f416464726573733a20696e73756666696369656e742062616c616e636520666f6044820152651c8818d85b1b60d21b6064820152608401610a94565b6001600160a01b0385163b6138e15760405162461bcd60e51b815260206004820152601d60248201527f416464726573733a2063616c6c20746f206e6f6e2d636f6e74726163740000006044820152606401610a94565b600080866001600160a01b031685876040516138fd91906140ec565b60006040518083038185875af1925050503d806000811461393a576040519150601f19603f3d011682016040523d82523d6000602084013e61393f565b606091505b509150915061394f828286613a9c565b979650505050505050565b6001600160a01b0382166139b05760405162461bcd60e51b815260206004820181905260248201527f4552433732313a206d696e7420746f20746865207a65726f20616464726573736044820152606401610a94565b6000818152600260205260409020546001600160a01b031615613a155760405162461bcd60e51b815260206004820152601c60248201527f4552433732313a20746f6b656e20616c7265616479206d696e746564000000006044820152606401610a94565b6001600160a01b0382166000908152600360205260408120805460019290613a3e908490613fc6565b909155505060008181526002602052604080822080546001600160a01b0319166001600160a01b03861690811790915590518392907fddf252ad1be2c89b69c2b068fc378daa952ba7f163c4a11628f55a4df523b3ef908290a45050565b60608315613aab575081611090565b825115613abb5782518084602001fd5b8160405162461bcd60e51b8152600401610a949190613b60565b6001600160e01b031981168114610e5957600080fd5b600060208284031215613afd57600080fd5b813561109081613ad5565b60005b83811015613b23578181015183820152602001613b0b565b83811115610c9c5750506000910152565b60008151808452613b4c816020860160208601613b08565b601f01601f19169290920160200192915050565b6020815260006110906020830184613b34565b600060208284031215613b8557600080fd5b5035919050565b80356001600160a01b0381168114613ba357600080fd5b919050565b60008060408385031215613bbb57600080fd5b613bc483613b8c565b946020939093013593505050565b60008060408385031215613be557600080fd5b50508035926020909101359150565b600080600060608486031215613c0957600080fd5b613c1284613b8c565b95602085013595506040909401359392505050565b600080600060608486031215613c3c57600080fd5b613c4584613b8c565b9250613c5360208501613b8c565b9150604084013590509250925092565b600060208284031215613c7557600080fd5b61109082613b8c565b600080600060608486031215613c9357600080fd5b505081359360208301359350604090920135919050565b8015158114610e5957600080fd5b60008060408385031215613ccb57600080fd5b613cd483613b8c565b91506020830135613ce481613caa565b809150509250929050565b634e487b7160e01b600052604160045260246000fd5b60008060008060808587031215613d1b57600080fd5b613d2485613b8c565b9350613d3260208601613b8c565b925060408501359150606085013567ffffffffffffffff80821115613d5657600080fd5b818701915087601f830112613d6a57600080fd5b813581811115613d7c57613d7c613cef565b604051601f8201601f19908116603f01168101908382118183101715613da457613da4613cef565b816040528281528a6020848701011115613dbd57600080fd5b82602086016020830137600060208483010152809550505050505092959194509250565b60008060408385031215613df457600080fd5b613dfd83613b8c565b9150611de460208401613b8c565b600181811c90821680613e1f57607f821691505b60208210811415613e4057634e487b7160e01b600052602260045260246000fd5b50919050565b60208082526030908201527f4344503a3a6f6e6c79436470417070726f7665644f724f776e65723a204e6f7460408201526f1030903b30b634b21031b0b63632b91760811b606082015260800190565b60008060408385031215613ea957600080fd5b505080516020909101519092909150565b634e487b7160e01b600052601160045260246000fd5b600082821015613ee257613ee2613eba565b500390565b6020808252602e908201527f4552433732313a2063616c6c6572206973206e6f7420746f6b656e206f776e6560408201526d1c881b9bdc88185c1c1c9bdd995960921b606082015260800190565b600060208284031215613f4757600080fd5b5051919050565b6000816000190483118215151615613f6857613f68613eba565b500290565b634e487b7160e01b600052601260045260246000fd5b600082613f9257613f92613f6d565b500490565b60008351613fa9818460208801613b08565b835190830190613fbd818360208801613b08565b01949350505050565b60008219821115613fd957613fd9613eba565b500190565b60208082526032908201527f4552433732313a207472616e7366657220746f206e6f6e20455243373231526560408201527131b2b4bb32b91034b6b83632b6b2b73a32b960711b606082015260800190565b600060001982141561404457614044613eba565b5060010190565b60008261405a5761405a613f6d565b500690565b634e487b7160e01b600052603260045260246000fd5b60006020828403121561408757600080fd5b815161109081613caa565b6001600160a01b03858116825284166020820152604081018390526080606082018190526000906140c590830184613b34565b9695505050505050565b6000602082840312156140e157600080fd5b815161109081613ad5565b600082516140fe818460208701613b08565b919091019291505056fea2646970667358221220bcbca1fdd6e6949f19b53b02584b627ac1f00ec0f4cbc4b8ce4eaf96f23e68f164736f6c63430008090033206d757374206265206e6f6e7a65726f2e0000000000000000000000000000004e6f6e7a65726f3a3a6e6f6e7a65726f416464726573733a204163636f756e74",
  "linkReferences": {},
  "deployedLinkReferences": {}
}