{
  "_format": "hh-sol-artifact-1",
  "contractName": "FOXS",
  "sourceName": "contracts/tokens/FOXS.sol",
  "abi": [
    {
      "inputs": [],
      "stateMutability": "nonpayable",
      "type": "constructor"
    },
    {
      "anonymous": false,
      "inputs": [
        {
          "indexed": true,
          "internalType": "uint256",
          "name": "pid",
          "type": "uint256"
        },
        {
          "indexed": false,
          "internalType": "uint256",
          "name": "allocPoint",
          "type": "uint256"
        },
        {
          "indexed": true,
          "internalType": "contract IERC20",
          "name": "token",
          "type": "address"
        }
      ],
      "name": "AddPool",
      "type": "event"
    },
    {
      "anonymous": false,
      "inputs": [
        {
          "indexed": true,
          "internalType": "address",
          "name": "owner",
          "type": "address"
        },
        {
          "indexed": true,
          "internalType": "address",
          "name": "spender",
          "type": "address"
        },
        {
          "indexed": false,
          "internalType": "uint256",
          "name": "value",
          "type": "uint256"
        }
      ],
      "name": "Approval",
      "type": "event"
    },
    {
      "anonymous": false,
      "inputs": [
        {
          "indexed": true,
          "internalType": "address",
          "name": "user",
          "type": "address"
        },
        {
          "indexed": true,
          "internalType": "uint256",
          "name": "pid",
          "type": "uint256"
        },
        {
          "indexed": false,
          "internalType": "uint256",
          "name": "amount",
          "type": "uint256"
        },
        {
          "indexed": true,
          "internalType": "address",
          "name": "to",
          "type": "address"
        }
      ],
      "name": "Deposit",
      "type": "event"
    },
    {
      "anonymous": false,
      "inputs": [
        {
          "indexed": true,
          "internalType": "address",
          "name": "user",
          "type": "address"
        },
        {
          "indexed": true,
          "internalType": "uint256",
          "name": "pid",
          "type": "uint256"
        },
        {
          "indexed": false,
          "internalType": "uint256",
          "name": "amount",
          "type": "uint256"
        },
        {
          "indexed": true,
          "internalType": "address",
          "name": "to",
          "type": "address"
        }
      ],
      "name": "EmergencyWithdraw",
      "type": "event"
    },
    {
      "anonymous": false,
      "inputs": [
        {
          "indexed": true,
          "internalType": "address",
          "name": "user",
          "type": "address"
        },
        {
          "indexed": true,
          "internalType": "uint256",
          "name": "pid",
          "type": "uint256"
        },
        {
          "indexed": false,
          "internalType": "uint256",
          "name": "amount",
          "type": "uint256"
        },
        {
          "indexed": true,
          "internalType": "address",
          "name": "to",
          "type": "address"
        }
      ],
      "name": "Harvest",
      "type": "event"
    },
    {
      "anonymous": false,
      "inputs": [
        {
          "indexed": true,
          "internalType": "address",
          "name": "previousOwner",
          "type": "address"
        },
        {
          "indexed": true,
          "internalType": "address",
          "name": "newOwner",
          "type": "address"
        }
      ],
      "name": "OwnershipTransferred",
      "type": "event"
    },
    {
      "anonymous": false,
      "inputs": [
        {
          "indexed": true,
          "internalType": "uint256",
          "name": "pid",
          "type": "uint256"
        },
        {
          "indexed": false,
          "internalType": "uint256",
          "name": "allocPoint",
          "type": "uint256"
        }
      ],
      "name": "SetPool",
      "type": "event"
    },
    {
      "anonymous": false,
      "inputs": [
        {
          "indexed": true,
          "internalType": "address",
          "name": "from",
          "type": "address"
        },
        {
          "indexed": true,
          "internalType": "address",
          "name": "to",
          "type": "address"
        },
        {
          "indexed": false,
          "internalType": "uint256",
          "name": "value",
          "type": "uint256"
        }
      ],
      "name": "Transfer",
      "type": "event"
    },
    {
      "anonymous": false,
      "inputs": [
        {
          "indexed": true,
          "internalType": "uint256",
          "name": "pid",
          "type": "uint256"
        },
        {
          "indexed": false,
          "internalType": "uint256",
          "name": "lastRewardBlock",
          "type": "uint256"
        },
        {
          "indexed": false,
          "internalType": "uint256",
          "name": "totalDeposited",
          "type": "uint256"
        },
        {
          "indexed": false,
          "internalType": "uint256",
          "name": "accTokenPerShare",
          "type": "uint256"
        }
      ],
      "name": "Update",
      "type": "event"
    },
    {
      "anonymous": false,
      "inputs": [
        {
          "indexed": true,
          "internalType": "address",
          "name": "user",
          "type": "address"
        },
        {
          "indexed": true,
          "internalType": "uint256",
          "name": "pid",
          "type": "uint256"
        },
        {
          "indexed": false,
          "internalType": "uint256",
          "name": "amount",
          "type": "uint256"
        },
        {
          "indexed": true,
          "internalType": "address",
          "name": "to",
          "type": "address"
        }
      ],
      "name": "Withdraw",
      "type": "event"
    },
    {
      "inputs": [],
      "name": "TOKEN_PER_BLOCK",
      "outputs": [
        {
          "internalType": "uint256",
          "name": "",
          "type": "uint256"
        }
      ],
      "stateMutability": "view",
      "type": "function"
    },
    {
      "inputs": [
        {
          "internalType": "uint256",
          "name": "allocPoint_",
          "type": "uint256"
        },
        {
          "internalType": "contract IERC20",
          "name": "token_",
          "type": "address"
        }
      ],
      "name": "add",
      "outputs": [],
      "stateMutability": "nonpayable",
      "type": "function"
    },
    {
      "inputs": [
        {
          "internalType": "address",
          "name": "owner",
          "type": "address"
        },
        {
          "internalType": "address",
          "name": "spender",
          "type": "address"
        }
      ],
      "name": "allowance",
      "outputs": [
        {
          "internalType": "uint256",
          "name": "",
          "type": "uint256"
        }
      ],
      "stateMutability": "view",
      "type": "function"
    },
    {
      "inputs": [
        {
          "internalType": "address",
          "name": "spender",
          "type": "address"
        },
        {
          "internalType": "uint256",
          "name": "amount",
          "type": "uint256"
        }
      ],
      "name": "approve",
      "outputs": [
        {
          "internalType": "bool",
          "name": "",
          "type": "bool"
        }
      ],
      "stateMutability": "nonpayable",
      "type": "function"
    },
    {
      "inputs": [
        {
          "internalType": "address",
          "name": "spender",
          "type": "address"
        }
      ],
      "name": "approveMax",
      "outputs": [],
      "stateMutability": "nonpayable",
      "type": "function"
    },
    {
      "inputs": [
        {
          "internalType": "address",
          "name": "account",
          "type": "address"
        }
      ],
      "name": "balanceOf",
      "outputs": [
        {
          "internalType": "uint256",
          "name": "",
          "type": "uint256"
        }
      ],
      "stateMutability": "view",
      "type": "function"
    },
    {
      "inputs": [],
      "name": "cap",
      "outputs": [
        {
          "internalType": "uint256",
          "name": "",
          "type": "uint256"
        }
      ],
      "stateMutability": "view",
      "type": "function"
    },
    {
      "inputs": [],
      "name": "decimals",
      "outputs": [
        {
          "internalType": "uint8",
          "name": "",
          "type": "uint8"
        }
      ],
      "stateMutability": "view",
      "type": "function"
    },
    {
      "inputs": [
        {
          "internalType": "address",
          "name": "spender",
          "type": "address"
        },
        {
          "internalType": "uint256",
          "name": "subtractedValue",
          "type": "uint256"
        }
      ],
      "name": "decreaseAllowance",
      "outputs": [
        {
          "internalType": "bool",
          "name": "",
          "type": "bool"
        }
      ],
      "stateMutability": "nonpayable",
      "type": "function"
    },
    {
      "inputs": [
        {
          "internalType": "uint256",
          "name": "pid_",
          "type": "uint256"
        },
        {
          "internalType": "uint256",
          "name": "amount_",
          "type": "uint256"
        },
        {
          "internalType": "address",
          "name": "to_",
          "type": "address"
        }
      ],
      "name": "deposit",
      "outputs": [],
      "stateMutability": "nonpayable",
      "type": "function"
    },
    {
      "inputs": [
        {
          "internalType": "uint256",
          "name": "pid_",
          "type": "uint256"
        },
        {
          "internalType": "address",
          "name": "to_",
          "type": "address"
        }
      ],
      "name": "emergencyWithdraw",
      "outputs": [],
      "stateMutability": "nonpayable",
      "type": "function"
    },
    {
      "inputs": [
        {
          "internalType": "uint256",
          "name": "pid_",
          "type": "uint256"
        },
        {
          "internalType": "address",
          "name": "to_",
          "type": "address"
        }
      ],
      "name": "harvest",
      "outputs": [],
      "stateMutability": "nonpayable",
      "type": "function"
    },
    {
      "inputs": [
        {
          "internalType": "address",
          "name": "spender",
          "type": "address"
        },
        {
          "internalType": "uint256",
          "name": "addedValue",
          "type": "uint256"
        }
      ],
      "name": "increaseAllowance",
      "outputs": [
        {
          "internalType": "bool",
          "name": "",
          "type": "bool"
        }
      ],
      "stateMutability": "nonpayable",
      "type": "function"
    },
    {
      "inputs": [
        {
          "internalType": "address",
          "name": "account",
          "type": "address"
        },
        {
          "internalType": "uint256",
          "name": "amount",
          "type": "uint256"
        }
      ],
      "name": "mint",
      "outputs": [],
      "stateMutability": "nonpayable",
      "type": "function"
    },
    {
      "inputs": [],
      "name": "name",
      "outputs": [
        {
          "internalType": "string",
          "name": "",
          "type": "string"
        }
      ],
      "stateMutability": "view",
      "type": "function"
    },
    {
      "inputs": [],
      "name": "owner",
      "outputs": [
        {
          "internalType": "address",
          "name": "",
          "type": "address"
        }
      ],
      "stateMutability": "view",
      "type": "function"
    },
    {
      "inputs": [
        {
          "internalType": "uint256",
          "name": "pid_",
          "type": "uint256"
        },
        {
          "internalType": "address",
          "name": "user_",
          "type": "address"
        }
      ],
      "name": "pendingToken",
      "outputs": [
        {
          "internalType": "uint256",
          "name": "pending",
          "type": "uint256"
        }
      ],
      "stateMutability": "view",
      "type": "function"
    },
    {
      "inputs": [
        {
          "internalType": "uint256",
          "name": "",
          "type": "uint256"
        }
      ],
      "name": "poolInfo",
      "outputs": [
        {
          "internalType": "uint128",
          "name": "accTokenPerShare",
          "type": "uint128"
        },
        {
          "internalType": "uint64",
          "name": "lastRewardBlock",
          "type": "uint64"
        },
        {
          "internalType": "uint64",
          "name": "allocPoint",
          "type": "uint64"
        }
      ],
      "stateMutability": "view",
      "type": "function"
    },
    {
      "inputs": [],
      "name": "poolLength",
      "outputs": [
        {
          "internalType": "uint256",
          "name": "pools",
          "type": "uint256"
        }
      ],
      "stateMutability": "view",
      "type": "function"
    },
    {
      "inputs": [],
      "name": "renounceOwnership",
      "outputs": [],
      "stateMutability": "nonpayable",
      "type": "function"
    },
    {
      "inputs": [
        {
          "internalType": "uint256",
          "name": "pid_",
          "type": "uint256"
        },
        {
          "internalType": "uint256",
          "name": "allocPoint_",
          "type": "uint256"
        }
      ],
      "name": "set",
      "outputs": [],
      "stateMutability": "nonpayable",
      "type": "function"
    },
    {
      "inputs": [],
      "name": "symbol",
      "outputs": [
        {
          "internalType": "string",
          "name": "",
          "type": "string"
        }
      ],
      "stateMutability": "view",
      "type": "function"
    },
    {
      "inputs": [
        {
          "internalType": "uint256",
          "name": "",
          "type": "uint256"
        }
      ],
      "name": "token",
      "outputs": [
        {
          "internalType": "contract IERC20",
          "name": "",
          "type": "address"
        }
      ],
      "stateMutability": "view",
      "type": "function"
    },
    {
      "inputs": [],
      "name": "totalAllocPoint",
      "outputs": [
        {
          "internalType": "uint256",
          "name": "",
          "type": "uint256"
        }
      ],
      "stateMutability": "view",
      "type": "function"
    },
    {
      "inputs": [],
      "name": "totalSupply",
      "outputs": [
        {
          "internalType": "uint256",
          "name": "",
          "type": "uint256"
        }
      ],
      "stateMutability": "view",
      "type": "function"
    },
    {
      "inputs": [
        {
          "internalType": "address",
          "name": "to",
          "type": "address"
        },
        {
          "internalType": "uint256",
          "name": "amount",
          "type": "uint256"
        }
      ],
      "name": "transfer",
      "outputs": [
        {
          "internalType": "bool",
          "name": "",
          "type": "bool"
        }
      ],
      "stateMutability": "nonpayable",
      "type": "function"
    },
    {
      "inputs": [
        {
          "internalType": "address",
          "name": "from",
          "type": "address"
        },
        {
          "internalType": "address",
          "name": "to",
          "type": "address"
        },
        {
          "internalType": "uint256",
          "name": "amount",
          "type": "uint256"
        }
      ],
      "name": "transferFrom",
      "outputs": [
        {
          "internalType": "bool",
          "name": "",
          "type": "bool"
        }
      ],
      "stateMutability": "nonpayable",
      "type": "function"
    },
    {
      "inputs": [
        {
          "internalType": "address",
          "name": "newOwner",
          "type": "address"
        }
      ],
      "name": "transferOwnership",
      "outputs": [],
      "stateMutability": "nonpayable",
      "type": "function"
    },
    {
      "inputs": [
        {
          "internalType": "uint256",
          "name": "pid_",
          "type": "uint256"
        }
      ],
      "name": "update",
      "outputs": [
        {
          "components": [
            {
              "internalType": "uint128",
              "name": "accTokenPerShare",
              "type": "uint128"
            },
            {
              "internalType": "uint64",
              "name": "lastRewardBlock",
              "type": "uint64"
            },
            {
              "internalType": "uint64",
              "name": "allocPoint",
              "type": "uint64"
            }
          ],
          "internalType": "struct IFOXS.PoolInfo",
          "name": "pool",
          "type": "tuple"
        }
      ],
      "stateMutability": "nonpayable",
      "type": "function"
    },
    {
      "inputs": [
        {
          "internalType": "uint256",
          "name": "",
          "type": "uint256"
        },
        {
          "internalType": "address",
          "name": "",
          "type": "address"
        }
      ],
      "name": "userInfo",
      "outputs": [
        {
          "internalType": "uint256",
          "name": "amount",
          "type": "uint256"
        },
        {
          "internalType": "int256",
          "name": "rewardDebt",
          "type": "int256"
        }
      ],
      "stateMutability": "view",
      "type": "function"
    },
    {
      "inputs": [
        {
          "internalType": "uint256",
          "name": "pid_",
          "type": "uint256"
        },
        {
          "internalType": "uint256",
          "name": "amount_",
          "type": "uint256"
        },
        {
          "internalType": "address",
          "name": "to_",
          "type": "address"
        }
      ],
      "name": "withdraw",
      "outputs": [],
      "stateMutability": "nonpayable",
      "type": "function"
    },
    {
      "inputs": [
        {
          "internalType": "uint256",
          "name": "pid_",
          "type": "uint256"
        },
        {
          "internalType": "uint256",
          "name": "amount_",
          "type": "uint256"
        },
        {
          "internalType": "address",
          "name": "to_",
          "type": "address"
        }
      ],
      "name": "withdrawAndHarvest",
      "outputs": [],
      "stateMutability": "nonpayable",
      "type": "function"
    }
  ],
  "bytecode": "0x60a06040523480156200001157600080fd5b506040805180820182526009815268464f5820536861726560b81b602080830191825283518085019094526004845263464f585360e01b9084015281516b033b2e3c9fd0803ce800000093916200006c916003919062000140565b5080516200008290600490602084019062000140565b50505060008111620000da5760405162461bcd60e51b815260206004820152601560248201527f45524332304361707065643a2063617020697320300000000000000000000000604482015260640160405180910390fd5b608052620000e833620000ee565b62000223565b600580546001600160a01b038381166001600160a01b0319831681179093556040519116919082907f8be0079c531659141344cd1fd0a4f28419497f9722a3daafe3b4186f6b6457e090600090a35050565b8280546200014e90620001e6565b90600052602060002090601f016020900481019282620001725760008555620001bd565b82601f106200018d57805160ff1916838001178555620001bd565b82800160010185558215620001bd579182015b82811115620001bd578251825591602001919060010190620001a0565b50620001cb929150620001cf565b5090565b5b80821115620001cb5760008155600101620001d0565b600181811c90821680620001fb57607f821691505b602082108114156200021d57634e487b7160e01b600052602260045260246000fd5b50919050565b608051611ef7620002546000396000818161034701528181611679015281816116c501526118560152611ef76000f3fe608060405234801561001057600080fd5b50600436106101f05760003560e01c806340c10f191161010f5780639319d3f7116100a2578063a9059cbb11610071578063a9059cbb146104cc578063d1abb907146104df578063dd62ed3e146104f2578063f2fde38b1461050557600080fd5b80639319d3f71461045b57806393f1a40b1461046a57806395d89b41146104b1578063a457c2d7146104b957600080fd5b8063715018a6116100de578063715018a6146103e057806382ab890a146103e85780638da5cb5b146104375780638dbdbe6d1461044857600080fd5b806340c10f191461037e57806348e43af414610391578063571ac8b0146103a457806370a08231146103b757600080fd5b806318fccc76116101875780632f940c70116101565780632f940c7014610323578063313ce56714610336578063355274ea14610345578063395093511461036b57600080fd5b806318fccc76146102d75780631ab06ee5146102ea57806323b872dd146102fd5780632b8bbbe81461031057600080fd5b80630ad58d2f116101c35780630ad58d2f1461026f5780631526fe271461028457806317caf6f1146102c657806318160ddd146102cf57600080fd5b8063044215c6146101f557806306fdde0314610225578063081e3eda1461023a578063095ea7b31461024c575b600080fd5b610208610203366004611b31565b610518565b6040516001600160a01b0390911681526020015b60405180910390f35b61022d610542565b60405161021c9190611b76565b6007545b60405190815260200161021c565b61025f61025a366004611bbe565b6105d4565b604051901515815260200161021c565b61028261027d366004611bea565b6105ec565b005b610297610292366004611b31565b6106f9565b604080516001600160801b0390941684526001600160401b03928316602085015291169082015260600161021c565b61023e60095481565b60025461023e565b6102826102e5366004611c23565b61073e565b6102826102f8366004611c53565b610816565b61025f61030b366004611c75565b6108ee565b61028261031e366004611c23565b610914565b610282610331366004611c23565b610a6b565b6040516012815260200161021c565b7f000000000000000000000000000000000000000000000000000000000000000061023e565b61025f610379366004611bbe565b610af3565b61028261038c366004611bbe565b610b15565b61023e61039f366004611c23565b610b2b565b6102826103b2366004611cb6565b610c98565b61023e6103c5366004611cb6565b6001600160a01b031660009081526020819052604090205490565b610282610ca8565b6103fb6103f6366004611b31565b610cbc565b6040805182516001600160801b031681526020808401516001600160401b0390811691830191909152928201519092169082015260600161021c565b6005546001600160a01b0316610208565b610282610456366004611bea565b610e55565b61023e670de0b6b3a764000081565b61049c610478366004611c23565b60066020908152600092835260408084209091529082529020805460019091015482565b6040805192835260208301919091520161021c565b61022d610f53565b61025f6104c7366004611bbe565b610f62565b61025f6104da366004611bbe565b610fed565b6102826104ed366004611bea565b610ffb565b61023e610500366004611cd3565b611182565b610282610513366004611cb6565b6111ad565b6008818154811061052857600080fd5b6000918252602090912001546001600160a01b0316905081565b60606003805461055190611d01565b80601f016020809104026020016040519081016040528092919081815260200182805461057d90611d01565b80156105ca5780601f1061059f576101008083540402835291602001916105ca565b820191906000526020600020905b8154815290600101906020018083116105ad57829003601f168201915b5050505050905090565b6000336105e2818585611223565b5060019392505050565b60006105f784610cbc565b60008581526006602090815260408083203380855292529091208251929350909164e8d4a5100090610632906001600160801b031687611d52565b61063c9190611d71565b81600101600082825461064f9190611d93565b9091555050805485908290600090610668908490611dd2565b925050819055506106a384866008898154811061068757610687611de9565b6000918252602090912001546001600160a01b0316919061133f565b836001600160a01b031686836001600160a01b03167f8166bf25f8a2b7ed3c85049207da4358d16edbed977d23fa2ee6f0dde3ec2132886040516106e991815260200190565b60405180910390a4505050505050565b6007818154811061070957600080fd5b6000918252602090912001546001600160801b03811691506001600160401b03600160801b8204811691600160c01b90041683565b600061074983610cbc565b6000848152600660209081526040808320338085529252822083518154949550919390929164e8d4a5100091610788916001600160801b031690611d52565b6107929190611d71565b905060008260010154826107a69190611d93565b60018401839055905080156107bf576107bf86826113a7565b856001600160a01b031687856001600160a01b03167f21cbb56dd6543339d498c80d96e1552af32e753decefef74da4c5efef932dbd48460405161080591815260200190565b60405180910390a450505050505050565b61081e6113d5565b806007838154811061083257610832611de9565b60009182526020909120015460095461085b91600160c01b90046001600160401b031690611dd2565b6108659190611dff565b600981905550806007838154811061087f5761087f611de9565b9060005260206000200160000160186101000a8154816001600160401b0302191690836001600160401b03160217905550817fc0cfd54d2de2b55f1e6e108d3ec53ff0a1abe6055401d32c61e9433b747ef9f8826040516108e291815260200190565b60405180910390a25050565b6000336108fc85828561142f565b6109078585856114a9565b60019150505b9392505050565b61091c6113d5565b600043905082600960008282546109339190611dff565b909155505060088054600181810183557ff3f7a9fe364faab93b216da50a3214154f22a0a2b415b23a84c8169e8b636ee390910180546001600160a01b0386166001600160a01b031990911681179091556040805160608101825260008082526001600160401b03808816602084019081528a8216948401948552600780548089018255935292517fa66cc928b5edb82af9bd49922954155ab7b0942694bea4ce44661d9a8736c6889092018054935194518216600160c01b026001600160c01b0395909216600160801b026001600160c01b03199094166001600160801b03939093169290921792909217929092161790559154610a329190611dd2565b6040518581527f44f06e62408d549dc25356ed3ab6326c665b66ce934c0e8d13bd1957a6031d4c906020015b60405180910390a3505050565b60008281526006602090815260408083203380855292528220805483825560018201939093559091610a9e30858361133f565b836001600160a01b031685846001600160a01b03167f2cac5e20e1541d836381527a43f651851e302817b71dc8e810284e69210c1c6b84604051610ae491815260200190565b60405180910390a45050505050565b6000336105e2818585610b068383611182565b610b109190611dff565b611223565b610b1d6113d5565b610b278282611677565b5050565b60008060078481548110610b4157610b41611de9565b600091825260208083206040805160608101825293909101546001600160801b0380821685526001600160401b03600160801b8304811686860152600160c01b90920490911684830152888552600683528185206001600160a01b03891686528352818520845130875293869052918520549395509093911691905083602001516001600160401b031643118015610bd857508015155b15610c6057600084602001516001600160401b031643610bf89190611dd2565b9050600060095486604001516001600160401b0316670de0b6b3a764000084610c219190611d52565b610c2b9190611d52565b610c359190611d71565b905082610c4764e8d4a5100083611d52565b610c519190611d71565b610c5b9085611dff565b935050505b6001830154835464e8d4a5100090610c79908590611d52565b610c839190611d71565b610c8d9190611d93565b979650505050505050565b610ca53382600019611223565b50565b610cb06113d5565b610cba60006116f8565b565b604080516060810182526000808252602082018190529181019190915260078281548110610cec57610cec611de9565b60009182526020918290206040805160608101825292909101546001600160801b03811683526001600160401b03600160801b82048116948401859052600160c01b90910416908201529150431115610e5057306000908152602081905260409020548015610df157600082602001516001600160401b031643610d709190611dd2565b9050600060095484604001516001600160401b0316670de0b6b3a764000084610d999190611d52565b610da39190611d52565b610dad9190611d71565b905082610dbf64e8d4a5100083611d52565b610dc99190611d71565b84518590610dd8908390611e17565b6001600160801b0316905250610dee3082611677565b50505b436001600160401b031660208381018290528351604080519384529183018490526001600160801b03169082015283907fce49b138f2621300a7043a61f472ccfd643162bdf3efb11354e22d5273b77a719060600160405180910390a2505b919050565b6000610e6084610cbc565b600085815260066020908152604080832033808552925282208054939450909290918691839190610e92908490611dff565b9091555050825164e8d4a5100090610eb3906001600160801b031687611d52565b610ebd9190611d71565b816001016000828254610ed09190611e42565b92505081905550610f0d82308760088a81548110610ef057610ef0611de9565b6000918252602090912001546001600160a01b031692919061174a565b836001600160a01b031686836001600160a01b03167f02d7e648dd130fc184d383e55bb126ac4c9c60e8f94bf05acdf557ba2d540b47886040516106e991815260200190565b60606004805461055190611d01565b60003381610f708286611182565b905083811015610fd55760405162461bcd60e51b815260206004820152602560248201527f45524332303a2064656372656173656420616c6c6f77616e63652062656c6f77604482015264207a65726f60d81b60648201526084015b60405180910390fd5b610fe28286868403611223565b506001949350505050565b6000336105e28185856114a9565b600061100684610cbc565b6000858152600660209081526040808320338085529252822083518154949550919390929164e8d4a5100091611045916001600160801b031690611d52565b61104f9190611d71565b905060008260010154826110639190611d93565b855190915064e8d4a5100090611082906001600160801b031689611d52565b61108c9190611d71565b6110969083611d93565b60018401558254879084906000906110af908490611dd2565b909155505080156110c4576110c486826113a7565b6110dc868860088b8154811061068757610687611de9565b856001600160a01b031688856001600160a01b03167f8166bf25f8a2b7ed3c85049207da4358d16edbed977d23fa2ee6f0dde3ec21328a60405161112291815260200190565b60405180910390a4856001600160a01b031688856001600160a01b03167f21cbb56dd6543339d498c80d96e1552af32e753decefef74da4c5efef932dbd48460405161117091815260200190565b60405180910390a45050505050505050565b6001600160a01b03918216600090815260016020908152604080832093909416825291909152205490565b6111b56113d5565b6001600160a01b03811661121a5760405162461bcd60e51b815260206004820152602660248201527f4f776e61626c653a206e6577206f776e657220697320746865207a65726f206160448201526564647265737360d01b6064820152608401610fcc565b610ca5816116f8565b6001600160a01b0383166112855760405162461bcd60e51b8152602060048201526024808201527f45524332303a20617070726f76652066726f6d20746865207a65726f206164646044820152637265737360e01b6064820152608401610fcc565b6001600160a01b0382166112e65760405162461bcd60e51b815260206004820152602260248201527f45524332303a20617070726f766520746f20746865207a65726f206164647265604482015261737360f01b6064820152608401610fcc565b6001600160a01b0383811660008181526001602090815260408083209487168084529482529182902085905590518481527f8c5be1e5ebec7d5bd14f71427d1e84f3dd0314c0f7b2291e5b200ac8c7c3b9259101610a5e565b6040516001600160a01b0383166024820152604481018290526113a290849063a9059cbb60e01b906064015b60408051601f198184030181529190526020810180516001600160e01b03166001600160e01b031990931692909217909152611782565b505050565b30600090815260208190526040902054808211156113ca576113a23084836114a9565b6113a23084846114a9565b6005546001600160a01b03163314610cba5760405162461bcd60e51b815260206004820181905260248201527f4f776e61626c653a2063616c6c6572206973206e6f7420746865206f776e65726044820152606401610fcc565b600061143b8484611182565b905060001981146114a357818110156114965760405162461bcd60e51b815260206004820152601d60248201527f45524332303a20696e73756666696369656e7420616c6c6f77616e63650000006044820152606401610fcc565b6114a38484848403611223565b50505050565b6001600160a01b03831661150d5760405162461bcd60e51b815260206004820152602560248201527f45524332303a207472616e736665722066726f6d20746865207a65726f206164604482015264647265737360d81b6064820152608401610fcc565b6001600160a01b03821661156f5760405162461bcd60e51b815260206004820152602360248201527f45524332303a207472616e7366657220746f20746865207a65726f206164647260448201526265737360e81b6064820152608401610fcc565b6001600160a01b038316600090815260208190526040902054818110156115e75760405162461bcd60e51b815260206004820152602660248201527f45524332303a207472616e7366657220616d6f756e7420657863656564732062604482015265616c616e636560d01b6064820152608401610fcc565b6001600160a01b0380851660009081526020819052604080822085850390559185168152908120805484929061161e908490611dff565b92505081905550826001600160a01b0316846001600160a01b03167fddf252ad1be2c89b69c2b068fc378daa952ba7f163c4a11628f55a4df523b3ef8460405161166a91815260200190565b60405180910390a36114a3565b7f0000000000000000000000000000000000000000000000000000000000000000816116a260025490565b6116ac9190611dff565b11156116ee57610b27826116bf60025490565b6116e9907f0000000000000000000000000000000000000000000000000000000000000000611dd2565b611854565b610b278282611854565b600580546001600160a01b038381166001600160a01b0319831681179093556040519116919082907f8be0079c531659141344cd1fd0a4f28419497f9722a3daafe3b4186f6b6457e090600090a35050565b6040516001600160a01b03808516602483015283166044820152606481018290526114a39085906323b872dd60e01b9060840161136b565b60006117d7826040518060400160405280602081526020017f5361666545524332303a206c6f772d6c6576656c2063616c6c206661696c6564815250856001600160a01b03166118e19092919063ffffffff16565b8051909150156113a257808060200190518101906117f59190611e83565b6113a25760405162461bcd60e51b815260206004820152602a60248201527f5361666545524332303a204552433230206f7065726174696f6e20646964206e6044820152691bdd081cdd58d8d9595960b21b6064820152608401610fcc565b7f00000000000000000000000000000000000000000000000000000000000000008161187f60025490565b6118899190611dff565b11156118d75760405162461bcd60e51b815260206004820152601960248201527f45524332304361707065643a20636170206578636565646564000000000000006044820152606401610fcc565b610b2782826118f8565b60606118f084846000856119d7565b949350505050565b6001600160a01b03821661194e5760405162461bcd60e51b815260206004820152601f60248201527f45524332303a206d696e7420746f20746865207a65726f2061646472657373006044820152606401610fcc565b80600260008282546119609190611dff565b90915550506001600160a01b0382166000908152602081905260408120805483929061198d908490611dff565b90915550506040518181526001600160a01b038316906000907fddf252ad1be2c89b69c2b068fc378daa952ba7f163c4a11628f55a4df523b3ef9060200160405180910390a35050565b606082471015611a385760405162461bcd60e51b815260206004820152602660248201527f416464726573733a20696e73756666696369656e742062616c616e636520666f6044820152651c8818d85b1b60d21b6064820152608401610fcc565b6001600160a01b0385163b611a8f5760405162461bcd60e51b815260206004820152601d60248201527f416464726573733a2063616c6c20746f206e6f6e2d636f6e74726163740000006044820152606401610fcc565b600080866001600160a01b03168587604051611aab9190611ea5565b60006040518083038185875af1925050503d8060008114611ae8576040519150601f19603f3d011682016040523d82523d6000602084013e611aed565b606091505b5091509150610c8d82828660608315611b0757508161090d565b825115611b175782518084602001fd5b8160405162461bcd60e51b8152600401610fcc9190611b76565b600060208284031215611b4357600080fd5b5035919050565b60005b83811015611b65578181015183820152602001611b4d565b838111156114a35750506000910152565b6020815260008251806020840152611b95816040850160208701611b4a565b601f01601f19169190910160400192915050565b6001600160a01b0381168114610ca557600080fd5b60008060408385031215611bd157600080fd5b8235611bdc81611ba9565b946020939093013593505050565b600080600060608486031215611bff57600080fd5b83359250602084013591506040840135611c1881611ba9565b809150509250925092565b60008060408385031215611c3657600080fd5b823591506020830135611c4881611ba9565b809150509250929050565b60008060408385031215611c6657600080fd5b50508035926020909101359150565b600080600060608486031215611c8a57600080fd5b8335611c9581611ba9565b92506020840135611ca581611ba9565b929592945050506040919091013590565b600060208284031215611cc857600080fd5b813561090d81611ba9565b60008060408385031215611ce657600080fd5b8235611cf181611ba9565b91506020830135611c4881611ba9565b600181811c90821680611d1557607f821691505b60208210811415611d3657634e487b7160e01b600052602260045260246000fd5b50919050565b634e487b7160e01b600052601160045260246000fd5b6000816000190483118215151615611d6c57611d6c611d3c565b500290565b600082611d8e57634e487b7160e01b600052601260045260246000fd5b500490565b60008083128015600160ff1b850184121615611db157611db1611d3c565b6001600160ff1b0384018313811615611dcc57611dcc611d3c565b50500390565b600082821015611de457611de4611d3c565b500390565b634e487b7160e01b600052603260045260246000fd5b60008219821115611e1257611e12611d3c565b500190565b60006001600160801b03808316818516808303821115611e3957611e39611d3c565b01949350505050565b600080821280156001600160ff1b0384900385131615611e6457611e64611d3c565b600160ff1b8390038412811615611e7d57611e7d611d3c565b50500190565b600060208284031215611e9557600080fd5b8151801515811461090d57600080fd5b60008251611eb7818460208701611b4a565b919091019291505056fea2646970667358221220aa5ecfeca7653986095d39c1f7149dbac699faf5b1a38b23a09b36051a1db7d264736f6c63430008090033",
  "linkReferences": {},
  "deployedLinkReferences": {}
}