{
  "_format": "hh-sol-artifact-1",
  "contractName": "NIS",
  "sourceName": "contracts/tokens/SIN.sol",
  "abi": [
    {
      "inputs": [],
      "stateMutability": "nonpayable",
      "type": "constructor"
    },
    {
      "anonymous": false,
      "inputs": [
        {
          "indexed": false,
          "internalType": "address",
          "name": "newAddr",
          "type": "address"
        }
      ],
      "name": "AddAllowlist",
      "type": "event"
    },
    {
      "anonymous": false,
      "inputs": [
        {
          "indexed": false,
          "internalType": "bool",
          "name": "prevAllowAll",
          "type": "bool"
        },
        {
          "indexed": false,
          "internalType": "bool",
          "name": "currAllowAll",
          "type": "bool"
        }
      ],
      "name": "AllowAll",
      "type": "event"
    },
    {
      "anonymous": false,
      "inputs": [
        {
          "indexed": true,
          "internalType": "address",
          "name": "owner",
          "type": "address"
        },
        {
          "indexed": true,
          "internalType": "address",
          "name": "spender",
          "type": "address"
        },
        {
          "indexed": false,
          "internalType": "uint256",
          "name": "value",
          "type": "uint256"
        }
      ],
      "name": "Approval",
      "type": "event"
    },
    {
      "anonymous": false,
      "inputs": [
        {
          "indexed": true,
          "internalType": "address",
          "name": "previousOwner",
          "type": "address"
        },
        {
          "indexed": true,
          "internalType": "address",
          "name": "newOwner",
          "type": "address"
        }
      ],
      "name": "OwnershipTransferred",
      "type": "event"
    },
    {
      "anonymous": false,
      "inputs": [
        {
          "indexed": false,
          "internalType": "address",
          "name": "targetAddr",
          "type": "address"
        }
      ],
      "name": "RemoveAllowlist",
      "type": "event"
    },
    {
      "anonymous": false,
      "inputs": [
        {
          "indexed": true,
          "internalType": "address",
          "name": "from",
          "type": "address"
        },
        {
          "indexed": true,
          "internalType": "address",
          "name": "to",
          "type": "address"
        },
        {
          "indexed": false,
          "internalType": "uint256",
          "name": "value",
          "type": "uint256"
        }
      ],
      "name": "Transfer",
      "type": "event"
    },
    {
      "inputs": [
        {
          "internalType": "address",
          "name": "newAddr",
          "type": "address"
        }
      ],
      "name": "addAllowlist",
      "outputs": [],
      "stateMutability": "nonpayable",
      "type": "function"
    },
    {
      "inputs": [
        {
          "internalType": "address",
          "name": "owner",
          "type": "address"
        },
        {
          "internalType": "address",
          "name": "spender",
          "type": "address"
        }
      ],
      "name": "allowance",
      "outputs": [
        {
          "internalType": "uint256",
          "name": "",
          "type": "uint256"
        }
      ],
      "stateMutability": "view",
      "type": "function"
    },
    {
      "inputs": [
        {
          "internalType": "address",
          "name": "spender",
          "type": "address"
        },
        {
          "internalType": "uint256",
          "name": "amount",
          "type": "uint256"
        }
      ],
      "name": "approve",
      "outputs": [
        {
          "internalType": "bool",
          "name": "",
          "type": "bool"
        }
      ],
      "stateMutability": "nonpayable",
      "type": "function"
    },
    {
      "inputs": [
        {
          "internalType": "address",
          "name": "spender",
          "type": "address"
        }
      ],
      "name": "approveMax",
      "outputs": [],
      "stateMutability": "nonpayable",
      "type": "function"
    },
    {
      "inputs": [
        {
          "internalType": "address",
          "name": "account",
          "type": "address"
        }
      ],
      "name": "balanceOf",
      "outputs": [
        {
          "internalType": "uint256",
          "name": "",
          "type": "uint256"
        }
      ],
      "stateMutability": "view",
      "type": "function"
    },
    {
      "inputs": [
        {
          "internalType": "uint256",
          "name": "amount",
          "type": "uint256"
        }
      ],
      "name": "burn",
      "outputs": [],
      "stateMutability": "nonpayable",
      "type": "function"
    },
    {
      "inputs": [
        {
          "internalType": "address",
          "name": "account",
          "type": "address"
        },
        {
          "internalType": "uint256",
          "name": "amount",
          "type": "uint256"
        }
      ],
      "name": "burnFrom",
      "outputs": [],
      "stateMutability": "nonpayable",
      "type": "function"
    },
    {
      "inputs": [],
      "name": "decimals",
      "outputs": [
        {
          "internalType": "uint8",
          "name": "",
          "type": "uint8"
        }
      ],
      "stateMutability": "view",
      "type": "function"
    },
    {
      "inputs": [
        {
          "internalType": "address",
          "name": "spender",
          "type": "address"
        },
        {
          "internalType": "uint256",
          "name": "subtractedValue",
          "type": "uint256"
        }
      ],
      "name": "decreaseAllowance",
      "outputs": [
        {
          "internalType": "bool",
          "name": "",
          "type": "bool"
        }
      ],
      "stateMutability": "nonpayable",
      "type": "function"
    },
    {
      "inputs": [
        {
          "internalType": "address",
          "name": "spender",
          "type": "address"
        },
        {
          "internalType": "uint256",
          "name": "addedValue",
          "type": "uint256"
        }
      ],
      "name": "increaseAllowance",
      "outputs": [
        {
          "internalType": "bool",
          "name": "",
          "type": "bool"
        }
      ],
      "stateMutability": "nonpayable",
      "type": "function"
    },
    {
      "inputs": [
        {
          "internalType": "address",
          "name": "account",
          "type": "address"
        },
        {
          "internalType": "uint256",
          "name": "amount",
          "type": "uint256"
        }
      ],
      "name": "mintTo",
      "outputs": [],
      "stateMutability": "nonpayable",
      "type": "function"
    },
    {
      "inputs": [],
      "name": "name",
      "outputs": [
        {
          "internalType": "string",
          "name": "",
          "type": "string"
        }
      ],
      "stateMutability": "view",
      "type": "function"
    },
    {
      "inputs": [],
      "name": "owner",
      "outputs": [
        {
          "internalType": "address",
          "name": "",
          "type": "address"
        }
      ],
      "stateMutability": "view",
      "type": "function"
    },
    {
      "inputs": [
        {
          "internalType": "address",
          "name": "targetAddr",
          "type": "address"
        }
      ],
      "name": "removeAllowlist",
      "outputs": [],
      "stateMutability": "nonpayable",
      "type": "function"
    },
    {
      "inputs": [],
      "name": "renounceOwnership",
      "outputs": [],
      "stateMutability": "nonpayable",
      "type": "function"
    },
    {
      "inputs": [
        {
          "internalType": "bool",
          "name": "newAllowAll",
          "type": "bool"
        }
      ],
      "name": "setAllowAll",
      "outputs": [],
      "stateMutability": "nonpayable",
      "type": "function"
    },
    {
      "inputs": [],
      "name": "symbol",
      "outputs": [
        {
          "internalType": "string",
          "name": "",
          "type": "string"
        }
      ],
      "stateMutability": "view",
      "type": "function"
    },
    {
      "inputs": [],
      "name": "totalSupply",
      "outputs": [
        {
          "internalType": "uint256",
          "name": "",
          "type": "uint256"
        }
      ],
      "stateMutability": "view",
      "type": "function"
    },
    {
      "inputs": [
        {
          "internalType": "address",
          "name": "to",
          "type": "address"
        },
        {
          "internalType": "uint256",
          "name": "amount",
          "type": "uint256"
        }
      ],
      "name": "transfer",
      "outputs": [
        {
          "internalType": "bool",
          "name": "",
          "type": "bool"
        }
      ],
      "stateMutability": "nonpayable",
      "type": "function"
    },
    {
      "inputs": [
        {
          "internalType": "address",
          "name": "from",
          "type": "address"
        },
        {
          "internalType": "address",
          "name": "to",
          "type": "address"
        },
        {
          "internalType": "uint256",
          "name": "amount",
          "type": "uint256"
        }
      ],
      "name": "transferFrom",
      "outputs": [
        {
          "internalType": "bool",
          "name": "",
          "type": "bool"
        }
      ],
      "stateMutability": "nonpayable",
      "type": "function"
    },
    {
      "inputs": [
        {
          "internalType": "address",
          "name": "newOwner",
          "type": "address"
        }
      ],
      "name": "transferOwnership",
      "outputs": [],
      "stateMutability": "nonpayable",
      "type": "function"
    }
  ],
  "bytecode": "0x60806040523480156200001157600080fd5b506040518060400160405280600c81526020016b2732b3b0ba34bb329029a4a760a11b815250604051806040016040528060038152602001624e495360e81b81525081600390805190602001906200006b929190620000fa565b50805162000081906004906020840190620000fa565b5050506200009e62000098620000a460201b60201c565b620000a8565b620001dd565b3390565b600580546001600160a01b038381166001600160a01b0319831681179093556040519116919082907f8be0079c531659141344cd1fd0a4f28419497f9722a3daafe3b4186f6b6457e090600090a35050565b8280546200010890620001a0565b90600052602060002090601f0160209004810192826200012c576000855562000177565b82601f106200014757805160ff191683800117855562000177565b8280016001018555821562000177579182015b82811115620001775782518255916020019190600101906200015a565b506200018592915062000189565b5090565b5b808211156200018557600081556001016200018a565b600181811c90821680620001b557607f821691505b60208210811415620001d757634e487b7160e01b600052602260045260246000fd5b50919050565b61104680620001ed6000396000f3fe608060405234801561001057600080fd5b50600436106101375760003560e01c80635f6928e2116100b8578063906904501161007c578063906904501461028457806395d89b4114610297578063a457c2d71461029f578063a9059cbb146102b2578063dd62ed3e146102c5578063f2fde38b146102d857600080fd5b80635f6928e21461021257806370a0823114610225578063715018a61461024e57806379cc6790146102565780638da5cb5b1461026957600080fd5b806339509351116100ff57806339509351146101b157806342966c68146101c4578063449a52f8146101d95780634d7d9c01146101ec578063571ac8b0146101ff57600080fd5b806306fdde031461013c578063095ea7b31461015a57806318160ddd1461017d57806323b872dd1461018f578063313ce567146101a2575b600080fd5b6101446102eb565b6040516101519190610de0565b60405180910390f35b61016d610168366004610e51565b61037d565b6040519015158152602001610151565b6002545b604051908152602001610151565b61016d61019d366004610e7b565b610395565b60405160128152602001610151565b61016d6101bf366004610e51565b6103f0565b6101d76101d2366004610eb7565b610412565b005b6101d76101e7366004610e51565b61041f565b6101d76101fa366004610ed0565b610435565b6101d761020d366004610ef2565b610446565b6101d7610220366004610ef2565b610453565b610181610233366004610ef2565b6001600160a01b031660009081526020819052604090205490565b6101d7610464565b6101d7610264366004610e51565b610478565b6005546040516001600160a01b039091168152602001610151565b6101d7610292366004610ef2565b61048a565b61014461049b565b61016d6102ad366004610e51565b6104aa565b61016d6102c0366004610e51565b610530565b6101816102d3366004610f0d565b610580565b6101d76102e6366004610ef2565b6105ab565b6060600380546102fa90610f40565b80601f016020809104026020016040519081016040528092919081815260200182805461032690610f40565b80156103735780601f1061034857610100808354040283529160200191610373565b820191906000526020600020905b81548152906001019060200180831161035657829003601f168201915b5050505050905090565b60003361038b818585610621565b5060019392505050565b60075460009060ff16806103b857503360009081526006602052604090205460ff165b6103dd5760405162461bcd60e51b81526004016103d490610f7b565b60405180910390fd5b6103e8848484610746565b949350505050565b60003361038b8185856104038383610580565b61040d9190610fe1565b610621565b61041c338261075f565b50565b6104276108a5565b61043182826108ff565b5050565b61043d6108a5565b61041c816109de565b61041c3382600019610621565b61045b6108a5565b61041c81610a39565b61046c6108a5565b6104766000610abd565b565b6104806108a5565b610431828261075f565b6104926108a5565b61041c81610b0f565b6060600480546102fa90610f40565b600033816104b88286610580565b9050838110156105185760405162461bcd60e51b815260206004820152602560248201527f45524332303a2064656372656173656420616c6c6f77616e63652062656c6f77604482015264207a65726f60d81b60648201526084016103d4565b6105258286868403610621565b506001949350505050565b60075460009060ff168061055357503360009081526006602052604090205460ff165b61056f5760405162461bcd60e51b81526004016103d490610f7b565b6105798383610b8a565b9392505050565b6001600160a01b03918216600090815260016020908152604080832093909416825291909152205490565b6105b36108a5565b6001600160a01b0381166106185760405162461bcd60e51b815260206004820152602660248201527f4f776e61626c653a206e6577206f776e657220697320746865207a65726f206160448201526564647265737360d01b60648201526084016103d4565b61041c81610abd565b6001600160a01b0383166106835760405162461bcd60e51b8152602060048201526024808201527f45524332303a20617070726f76652066726f6d20746865207a65726f206164646044820152637265737360e01b60648201526084016103d4565b6001600160a01b0382166106e45760405162461bcd60e51b815260206004820152602260248201527f45524332303a20617070726f766520746f20746865207a65726f206164647265604482015261737360f01b60648201526084016103d4565b6001600160a01b0383811660008181526001602090815260408083209487168084529482529182902085905590518481527f8c5be1e5ebec7d5bd14f71427d1e84f3dd0314c0f7b2291e5b200ac8c7c3b92591015b60405180910390a3505050565b600033610754858285610b98565b610525858585610c12565b6001600160a01b0382166107bf5760405162461bcd60e51b815260206004820152602160248201527f45524332303a206275726e2066726f6d20746865207a65726f206164647265736044820152607360f81b60648201526084016103d4565b6001600160a01b038216600090815260208190526040902054818110156108335760405162461bcd60e51b815260206004820152602260248201527f45524332303a206275726e20616d6f756e7420657863656564732062616c616e604482015261636560f01b60648201526084016103d4565b6001600160a01b0383166000908152602081905260408120838303905560028054849290610862908490610ff9565b90915550506040518281526000906001600160a01b038516907fddf252ad1be2c89b69c2b068fc378daa952ba7f163c4a11628f55a4df523b3ef90602001610739565b6005546001600160a01b031633146104765760405162461bcd60e51b815260206004820181905260248201527f4f776e61626c653a2063616c6c6572206973206e6f7420746865206f776e657260448201526064016103d4565b6001600160a01b0382166109555760405162461bcd60e51b815260206004820152601f60248201527f45524332303a206d696e7420746f20746865207a65726f20616464726573730060448201526064016103d4565b80600260008282546109679190610fe1565b90915550506001600160a01b03821660009081526020819052604081208054839290610994908490610fe1565b90915550506040518181526001600160a01b038316906000907fddf252ad1be2c89b69c2b068fc378daa952ba7f163c4a11628f55a4df523b3ef9060200160405180910390a35050565b6007805482151560ff19821681179092556040805160ff9283168015158252929093161515602084015290917fcf5a6e6e80ce33d91b3847410c4b01d12fb1f8dbf62cc9277af33334a61d55ab910160405180910390a15050565b6001600160a01b03811660009081526006602052604090205460ff16610a7d576001600160a01b0381166000908152600660205260409020805460ff191660011790555b6040516001600160a01b03821681527f7a2bbcb3d08b18c304a0e6eb430fcb9f4f68cc1b89e88f128890d75fd5c5e283906020015b60405180910390a150565b600580546001600160a01b038381166001600160a01b0319831681179093556040519116919082907f8be0079c531659141344cd1fd0a4f28419497f9722a3daafe3b4186f6b6457e090600090a35050565b6001600160a01b03811660009081526006602052604090205460ff1615610b51576001600160a01b0381166000908152600660205260409020805460ff191690555b6040516001600160a01b03821681527fd34eeb1d267e8bfb11aab9bc3009b72ca96b68103c69fdedfb1fa5fca7e65da890602001610ab2565b60003361038b818585610c12565b6000610ba48484610580565b90506000198114610c0c5781811015610bff5760405162461bcd60e51b815260206004820152601d60248201527f45524332303a20696e73756666696369656e7420616c6c6f77616e636500000060448201526064016103d4565b610c0c8484848403610621565b50505050565b6001600160a01b038316610c765760405162461bcd60e51b815260206004820152602560248201527f45524332303a207472616e736665722066726f6d20746865207a65726f206164604482015264647265737360d81b60648201526084016103d4565b6001600160a01b038216610cd85760405162461bcd60e51b815260206004820152602360248201527f45524332303a207472616e7366657220746f20746865207a65726f206164647260448201526265737360e81b60648201526084016103d4565b6001600160a01b03831660009081526020819052604090205481811015610d505760405162461bcd60e51b815260206004820152602660248201527f45524332303a207472616e7366657220616d6f756e7420657863656564732062604482015265616c616e636560d01b60648201526084016103d4565b6001600160a01b03808516600090815260208190526040808220858503905591851681529081208054849290610d87908490610fe1565b92505081905550826001600160a01b0316846001600160a01b03167fddf252ad1be2c89b69c2b068fc378daa952ba7f163c4a11628f55a4df523b3ef84604051610dd391815260200190565b60405180910390a3610c0c565b600060208083528351808285015260005b81811015610e0d57858101830151858201604001528201610df1565b81811115610e1f576000604083870101525b50601f01601f1916929092016040019392505050565b80356001600160a01b0381168114610e4c57600080fd5b919050565b60008060408385031215610e6457600080fd5b610e6d83610e35565b946020939093013593505050565b600080600060608486031215610e9057600080fd5b610e9984610e35565b9250610ea760208501610e35565b9150604084013590509250925092565b600060208284031215610ec957600080fd5b5035919050565b600060208284031215610ee257600080fd5b8135801515811461057957600080fd5b600060208284031215610f0457600080fd5b61057982610e35565b60008060408385031215610f2057600080fd5b610f2983610e35565b9150610f3760208401610e35565b90509250929050565b600181811c90821680610f5457607f821691505b60208210811415610f7557634e487b7160e01b600052602260045260246000fd5b50919050565b60208082526030908201527f416c6c6f776c6973743a6f6e6c79416c6c6f776c6973743a2053656e6465722060408201526f36bab9ba1031329030b63637bbb2b21760811b606082015260800190565b634e487b7160e01b600052601160045260246000fd5b60008219821115610ff457610ff4610fcb565b500190565b60008282101561100b5761100b610fcb565b50039056fea264697066735822122088b6d7f06ac4776e8163e460081cda63a74a4e146a531f4f83b228e759fb02ea64736f6c63430008090033",
  "linkReferences": {},
  "deployedLinkReferences": {}
}