{
  "_format": "hh-sol-artifact-1",
  "contractName": "SIN",
  "sourceName": "contracts/tokens/SIN.sol",
  "abi": [
    {
      "inputs": [
        {
          "internalType": "address",
          "name": "nis_",
          "type": "address"
        }
      ],
      "stateMutability": "nonpayable",
      "type": "constructor"
    },
    {
      "anonymous": false,
      "inputs": [
        {
          "indexed": true,
          "internalType": "address",
          "name": "owner",
          "type": "address"
        },
        {
          "indexed": true,
          "internalType": "address",
          "name": "spender",
          "type": "address"
        },
        {
          "indexed": false,
          "internalType": "uint256",
          "name": "value",
          "type": "uint256"
        }
      ],
      "name": "Approval",
      "type": "event"
    },
    {
      "anonymous": false,
      "inputs": [
        {
          "indexed": true,
          "internalType": "address",
          "name": "previousOwner",
          "type": "address"
        },
        {
          "indexed": true,
          "internalType": "address",
          "name": "newOwner",
          "type": "address"
        }
      ],
      "name": "OwnershipTransferred",
      "type": "event"
    },
    {
      "anonymous": false,
      "inputs": [
        {
          "indexed": true,
          "internalType": "address",
          "name": "from",
          "type": "address"
        },
        {
          "indexed": true,
          "internalType": "address",
          "name": "to",
          "type": "address"
        },
        {
          "indexed": false,
          "internalType": "uint256",
          "name": "value",
          "type": "uint256"
        }
      ],
      "name": "Transfer",
      "type": "event"
    },
    {
      "inputs": [
        {
          "internalType": "address",
          "name": "owner",
          "type": "address"
        },
        {
          "internalType": "address",
          "name": "spender",
          "type": "address"
        }
      ],
      "name": "allowance",
      "outputs": [
        {
          "internalType": "uint256",
          "name": "",
          "type": "uint256"
        }
      ],
      "stateMutability": "view",
      "type": "function"
    },
    {
      "inputs": [
        {
          "internalType": "address",
          "name": "spender",
          "type": "address"
        },
        {
          "internalType": "uint256",
          "name": "amount",
          "type": "uint256"
        }
      ],
      "name": "approve",
      "outputs": [
        {
          "internalType": "bool",
          "name": "",
          "type": "bool"
        }
      ],
      "stateMutability": "nonpayable",
      "type": "function"
    },
    {
      "inputs": [
        {
          "internalType": "address",
          "name": "spender",
          "type": "address"
        }
      ],
      "name": "approveMax",
      "outputs": [],
      "stateMutability": "nonpayable",
      "type": "function"
    },
    {
      "inputs": [
        {
          "internalType": "address",
          "name": "account",
          "type": "address"
        }
      ],
      "name": "balanceOf",
      "outputs": [
        {
          "internalType": "uint256",
          "name": "",
          "type": "uint256"
        }
      ],
      "stateMutability": "view",
      "type": "function"
    },
    {
      "inputs": [
        {
          "internalType": "uint256",
          "name": "amount",
          "type": "uint256"
        }
      ],
      "name": "burn",
      "outputs": [],
      "stateMutability": "nonpayable",
      "type": "function"
    },
    {
      "inputs": [
        {
          "internalType": "address",
          "name": "account",
          "type": "address"
        },
        {
          "internalType": "uint256",
          "name": "amount",
          "type": "uint256"
        }
      ],
      "name": "burnFrom",
      "outputs": [],
      "stateMutability": "nonpayable",
      "type": "function"
    },
    {
      "inputs": [],
      "name": "decimals",
      "outputs": [
        {
          "internalType": "uint8",
          "name": "",
          "type": "uint8"
        }
      ],
      "stateMutability": "view",
      "type": "function"
    },
    {
      "inputs": [
        {
          "internalType": "address",
          "name": "spender",
          "type": "address"
        },
        {
          "internalType": "uint256",
          "name": "subtractedValue",
          "type": "uint256"
        }
      ],
      "name": "decreaseAllowance",
      "outputs": [
        {
          "internalType": "bool",
          "name": "",
          "type": "bool"
        }
      ],
      "stateMutability": "nonpayable",
      "type": "function"
    },
    {
      "inputs": [
        {
          "internalType": "address",
          "name": "spender",
          "type": "address"
        },
        {
          "internalType": "uint256",
          "name": "addedValue",
          "type": "uint256"
        }
      ],
      "name": "increaseAllowance",
      "outputs": [
        {
          "internalType": "bool",
          "name": "",
          "type": "bool"
        }
      ],
      "stateMutability": "nonpayable",
      "type": "function"
    },
    {
      "inputs": [
        {
          "internalType": "address",
          "name": "account",
          "type": "address"
        },
        {
          "internalType": "uint256",
          "name": "amount",
          "type": "uint256"
        }
      ],
      "name": "mintTo",
      "outputs": [],
      "stateMutability": "nonpayable",
      "type": "function"
    },
    {
      "inputs": [],
      "name": "name",
      "outputs": [
        {
          "internalType": "string",
          "name": "",
          "type": "string"
        }
      ],
      "stateMutability": "view",
      "type": "function"
    },
    {
      "inputs": [],
      "name": "nis",
      "outputs": [
        {
          "internalType": "contract IERC20",
          "name": "",
          "type": "address"
        }
      ],
      "stateMutability": "view",
      "type": "function"
    },
    {
      "inputs": [],
      "name": "owner",
      "outputs": [
        {
          "internalType": "address",
          "name": "",
          "type": "address"
        }
      ],
      "stateMutability": "view",
      "type": "function"
    },
    {
      "inputs": [],
      "name": "renounceOwnership",
      "outputs": [],
      "stateMutability": "nonpayable",
      "type": "function"
    },
    {
      "inputs": [],
      "name": "symbol",
      "outputs": [
        {
          "internalType": "string",
          "name": "",
          "type": "string"
        }
      ],
      "stateMutability": "view",
      "type": "function"
    },
    {
      "inputs": [],
      "name": "totalSupply",
      "outputs": [
        {
          "internalType": "uint256",
          "name": "",
          "type": "uint256"
        }
      ],
      "stateMutability": "view",
      "type": "function"
    },
    {
      "inputs": [
        {
          "internalType": "address",
          "name": "to",
          "type": "address"
        },
        {
          "internalType": "uint256",
          "name": "amount",
          "type": "uint256"
        }
      ],
      "name": "transfer",
      "outputs": [
        {
          "internalType": "bool",
          "name": "",
          "type": "bool"
        }
      ],
      "stateMutability": "nonpayable",
      "type": "function"
    },
    {
      "inputs": [
        {
          "internalType": "address",
          "name": "from",
          "type": "address"
        },
        {
          "internalType": "address",
          "name": "to",
          "type": "address"
        },
        {
          "internalType": "uint256",
          "name": "amount",
          "type": "uint256"
        }
      ],
      "name": "transferFrom",
      "outputs": [
        {
          "internalType": "bool",
          "name": "",
          "type": "bool"
        }
      ],
      "stateMutability": "nonpayable",
      "type": "function"
    },
    {
      "inputs": [
        {
          "internalType": "address",
          "name": "newOwner",
          "type": "address"
        }
      ],
      "name": "transferOwnership",
      "outputs": [],
      "stateMutability": "nonpayable",
      "type": "function"
    }
  ],
  "bytecode": "0x60a06040523480156200001157600080fd5b506040516200113438038062001134833981016040819052620000349162000256565b6040518060400160405280601881526020017f537461626c6520494e7465726d69646961746520636f696e00000000000000008152506040518060400160405280600381526020016229a4a760e91b81525081600390805190602001906200009e929190620001b0565b508051620000b4906004906020840190620001b0565b505050620000d1620000cb6200015a60201b60201c565b6200015e565b806001600160a01b038116620001475760405162461bcd60e51b815260206004820152603160248201527f4e6f6e7a65726f3a3a6e6f6e7a65726f416464726573733a204163636f756e746044820152701036bab9ba103132903737b73d32b9379760791b606482015260840160405180910390fd5b506001600160a01b0316608052620002c5565b3390565b600580546001600160a01b038381166001600160a01b0319831681179093556040519116919082907f8be0079c531659141344cd1fd0a4f28419497f9722a3daafe3b4186f6b6457e090600090a35050565b828054620001be9062000288565b90600052602060002090601f016020900481019282620001e257600085556200022d565b82601f10620001fd57805160ff19168380011785556200022d565b828001600101855582156200022d579182015b828111156200022d57825182559160200191906001019062000210565b506200023b9291506200023f565b5090565b5b808211156200023b576000815560010162000240565b6000602082840312156200026957600080fd5b81516001600160a01b03811681146200028157600080fd5b9392505050565b600181811c908216806200029d57607f821691505b60208210811415620002bf57634e487b7160e01b600052602260045260246000fd5b50919050565b608051610e4c620002e860003960008181610289015261037f0152610e4c6000f3fe608060405234801561001057600080fd5b50600436106101215760003560e01c806370a08231116100ad578063a457c2d711610071578063a457c2d71461025e578063a9059cbb14610271578063c2b2559c14610284578063dd62ed3e146102ab578063f2fde38b146102be57600080fd5b806370a08231146101ed578063715018a61461021657806379cc67901461021e5780638da5cb5b1461023157806395d89b411461025657600080fd5b8063313ce567116100f4578063313ce56714610190578063395093511461019f57806342966c68146101b2578063449a52f8146101c7578063571ac8b0146101da57600080fd5b806306fdde0314610126578063095ea7b31461014457806318160ddd1461016757806323b872dd1461017d575b600080fd5b61012e6102d1565b60405161013b9190610c38565b60405180910390f35b610157610152366004610ca9565b610363565b604051901515815260200161013b565b61016f61037b565b60405190815260200161013b565b61015761018b366004610cd3565b610420565b6040516012815260200161013b565b6101576101ad366004610ca9565b610444565b6101c56101c0366004610d0f565b610466565b005b6101c56101d5366004610ca9565b610473565b6101c56101e8366004610d28565b610489565b61016f6101fb366004610d28565b6001600160a01b031660009081526020819052604090205490565b6101c5610496565b6101c561022c366004610ca9565b6104aa565b6005546001600160a01b03165b6040516001600160a01b03909116815260200161013b565b61012e6104bc565b61015761026c366004610ca9565b6104cb565b61015761027f366004610ca9565b61054b565b61023e7f000000000000000000000000000000000000000000000000000000000000000081565b61016f6102b9366004610d4a565b610559565b6101c56102cc366004610d28565b610584565b6060600380546102e090610d7d565b80601f016020809104026020016040519081016040528092919081815260200182805461030c90610d7d565b80156103595780601f1061032e57610100808354040283529160200191610359565b820191906000526020600020905b81548152906001019060200180831161033c57829003601f168201915b5050505050905090565b6000336103718185856105fa565b5060019392505050565b60007f00000000000000000000000000000000000000000000000000000000000000006001600160a01b03166318160ddd6040518163ffffffff1660e01b815260040160206040518083038186803b1580156103d657600080fd5b505afa1580156103ea573d6000803e3d6000fd5b505050506040513d601f19601f8201168201806040525081019061040e9190610db8565b60025461041b9190610de7565b905090565b60003361042e85828561071f565b610439858585610799565b506001949350505050565b6000336103718185856104578383610559565b6104619190610dfe565b6105fa565b6104703382610967565b50565b61047b610aad565b6104858282610b07565b5050565b61047033826000196105fa565b61049e610aad565b6104a86000610be6565b565b6104b2610aad565b6104858282610967565b6060600480546102e090610d7d565b600033816104d98286610559565b90508381101561053e5760405162461bcd60e51b815260206004820152602560248201527f45524332303a2064656372656173656420616c6c6f77616e63652062656c6f77604482015264207a65726f60d81b60648201526084015b60405180910390fd5b61043982868684036105fa565b600033610371818585610799565b6001600160a01b03918216600090815260016020908152604080832093909416825291909152205490565b61058c610aad565b6001600160a01b0381166105f15760405162461bcd60e51b815260206004820152602660248201527f4f776e61626c653a206e6577206f776e657220697320746865207a65726f206160448201526564647265737360d01b6064820152608401610535565b61047081610be6565b6001600160a01b03831661065c5760405162461bcd60e51b8152602060048201526024808201527f45524332303a20617070726f76652066726f6d20746865207a65726f206164646044820152637265737360e01b6064820152608401610535565b6001600160a01b0382166106bd5760405162461bcd60e51b815260206004820152602260248201527f45524332303a20617070726f766520746f20746865207a65726f206164647265604482015261737360f01b6064820152608401610535565b6001600160a01b0383811660008181526001602090815260408083209487168084529482529182902085905590518481527f8c5be1e5ebec7d5bd14f71427d1e84f3dd0314c0f7b2291e5b200ac8c7c3b92591015b60405180910390a3505050565b600061072b8484610559565b9050600019811461079357818110156107865760405162461bcd60e51b815260206004820152601d60248201527f45524332303a20696e73756666696369656e7420616c6c6f77616e63650000006044820152606401610535565b61079384848484036105fa565b50505050565b6001600160a01b0383166107fd5760405162461bcd60e51b815260206004820152602560248201527f45524332303a207472616e736665722066726f6d20746865207a65726f206164604482015264647265737360d81b6064820152608401610535565b6001600160a01b03821661085f5760405162461bcd60e51b815260206004820152602360248201527f45524332303a207472616e7366657220746f20746865207a65726f206164647260448201526265737360e81b6064820152608401610535565b6001600160a01b038316600090815260208190526040902054818110156108d75760405162461bcd60e51b815260206004820152602660248201527f45524332303a207472616e7366657220616d6f756e7420657863656564732062604482015265616c616e636560d01b6064820152608401610535565b6001600160a01b0380851660009081526020819052604080822085850390559185168152908120805484929061090e908490610dfe565b92505081905550826001600160a01b0316846001600160a01b03167fddf252ad1be2c89b69c2b068fc378daa952ba7f163c4a11628f55a4df523b3ef8460405161095a91815260200190565b60405180910390a3610793565b6001600160a01b0382166109c75760405162461bcd60e51b815260206004820152602160248201527f45524332303a206275726e2066726f6d20746865207a65726f206164647265736044820152607360f81b6064820152608401610535565b6001600160a01b03821660009081526020819052604090205481811015610a3b5760405162461bcd60e51b815260206004820152602260248201527f45524332303a206275726e20616d6f756e7420657863656564732062616c616e604482015261636560f01b6064820152608401610535565b6001600160a01b0383166000908152602081905260408120838303905560028054849290610a6a908490610de7565b90915550506040518281526000906001600160a01b038516907fddf252ad1be2c89b69c2b068fc378daa952ba7f163c4a11628f55a4df523b3ef90602001610712565b6005546001600160a01b031633146104a85760405162461bcd60e51b815260206004820181905260248201527f4f776e61626c653a2063616c6c6572206973206e6f7420746865206f776e65726044820152606401610535565b6001600160a01b038216610b5d5760405162461bcd60e51b815260206004820152601f60248201527f45524332303a206d696e7420746f20746865207a65726f2061646472657373006044820152606401610535565b8060026000828254610b6f9190610dfe565b90915550506001600160a01b03821660009081526020819052604081208054839290610b9c908490610dfe565b90915550506040518181526001600160a01b038316906000907fddf252ad1be2c89b69c2b068fc378daa952ba7f163c4a11628f55a4df523b3ef9060200160405180910390a35050565b600580546001600160a01b038381166001600160a01b0319831681179093556040519116919082907f8be0079c531659141344cd1fd0a4f28419497f9722a3daafe3b4186f6b6457e090600090a35050565b600060208083528351808285015260005b81811015610c6557858101830151858201604001528201610c49565b81811115610c77576000604083870101525b50601f01601f1916929092016040019392505050565b80356001600160a01b0381168114610ca457600080fd5b919050565b60008060408385031215610cbc57600080fd5b610cc583610c8d565b946020939093013593505050565b600080600060608486031215610ce857600080fd5b610cf184610c8d565b9250610cff60208501610c8d565b9150604084013590509250925092565b600060208284031215610d2157600080fd5b5035919050565b600060208284031215610d3a57600080fd5b610d4382610c8d565b9392505050565b60008060408385031215610d5d57600080fd5b610d6683610c8d565b9150610d7460208401610c8d565b90509250929050565b600181811c90821680610d9157607f821691505b60208210811415610db257634e487b7160e01b600052602260045260246000fd5b50919050565b600060208284031215610dca57600080fd5b5051919050565b634e487b7160e01b600052601160045260246000fd5b600082821015610df957610df9610dd1565b500390565b60008219821115610e1157610e11610dd1565b50019056fea264697066735822122072aa01eef5ebedd0378e81dfe6c06b962038232d0e531efa0f0ab264cca9ddef64736f6c63430008090033",
  "linkReferences": {},
  "deployedLinkReferences": {}
}