{
  "_format": "hh-sol-artifact-1",
  "contractName": "SIN",
  "sourceName": "contracts/tokens/SIN.sol",
  "abi": [
    {
      "inputs": [
        {
          "internalType": "address",
          "name": "nis_",
          "type": "address"
        }
      ],
      "stateMutability": "nonpayable",
      "type": "constructor"
    },
    {
      "anonymous": false,
      "inputs": [
        {
          "indexed": false,
          "internalType": "address",
          "name": "newAddr",
          "type": "address"
        }
      ],
      "name": "AddAllowlist",
      "type": "event"
    },
    {
      "anonymous": false,
      "inputs": [
        {
          "indexed": false,
          "internalType": "bool",
          "name": "prevAllowAll",
          "type": "bool"
        },
        {
          "indexed": false,
          "internalType": "bool",
          "name": "currAllowAll",
          "type": "bool"
        }
      ],
      "name": "AllowAll",
      "type": "event"
    },
    {
      "anonymous": false,
      "inputs": [
        {
          "indexed": true,
          "internalType": "address",
          "name": "owner",
          "type": "address"
        },
        {
          "indexed": true,
          "internalType": "address",
          "name": "spender",
          "type": "address"
        },
        {
          "indexed": false,
          "internalType": "uint256",
          "name": "value",
          "type": "uint256"
        }
      ],
      "name": "Approval",
      "type": "event"
    },
    {
      "anonymous": false,
      "inputs": [
        {
          "indexed": true,
          "internalType": "address",
          "name": "previousOwner",
          "type": "address"
        },
        {
          "indexed": true,
          "internalType": "address",
          "name": "newOwner",
          "type": "address"
        }
      ],
      "name": "OwnershipTransferred",
      "type": "event"
    },
    {
      "anonymous": false,
      "inputs": [
        {
          "indexed": false,
          "internalType": "address",
          "name": "targetAddr",
          "type": "address"
        }
      ],
      "name": "RemoveAllowlist",
      "type": "event"
    },
    {
      "anonymous": false,
      "inputs": [
        {
          "indexed": true,
          "internalType": "address",
          "name": "from",
          "type": "address"
        },
        {
          "indexed": true,
          "internalType": "address",
          "name": "to",
          "type": "address"
        },
        {
          "indexed": false,
          "internalType": "uint256",
          "name": "value",
          "type": "uint256"
        }
      ],
      "name": "Transfer",
      "type": "event"
    },
    {
      "inputs": [
        {
          "internalType": "address",
          "name": "newAddr",
          "type": "address"
        }
      ],
      "name": "addAllowlist",
      "outputs": [],
      "stateMutability": "nonpayable",
      "type": "function"
    },
    {
      "inputs": [
        {
          "internalType": "address",
          "name": "owner",
          "type": "address"
        },
        {
          "internalType": "address",
          "name": "spender",
          "type": "address"
        }
      ],
      "name": "allowance",
      "outputs": [
        {
          "internalType": "uint256",
          "name": "",
          "type": "uint256"
        }
      ],
      "stateMutability": "view",
      "type": "function"
    },
    {
      "inputs": [
        {
          "internalType": "address",
          "name": "spender",
          "type": "address"
        },
        {
          "internalType": "uint256",
          "name": "amount",
          "type": "uint256"
        }
      ],
      "name": "approve",
      "outputs": [
        {
          "internalType": "bool",
          "name": "",
          "type": "bool"
        }
      ],
      "stateMutability": "nonpayable",
      "type": "function"
    },
    {
      "inputs": [
        {
          "internalType": "address",
          "name": "spender",
          "type": "address"
        }
      ],
      "name": "approveMax",
      "outputs": [],
      "stateMutability": "nonpayable",
      "type": "function"
    },
    {
      "inputs": [
        {
          "internalType": "address",
          "name": "account",
          "type": "address"
        }
      ],
      "name": "balanceOf",
      "outputs": [
        {
          "internalType": "uint256",
          "name": "",
          "type": "uint256"
        }
      ],
      "stateMutability": "view",
      "type": "function"
    },
    {
      "inputs": [
        {
          "internalType": "uint256",
          "name": "amount",
          "type": "uint256"
        }
      ],
      "name": "burn",
      "outputs": [],
      "stateMutability": "nonpayable",
      "type": "function"
    },
    {
      "inputs": [
        {
          "internalType": "address",
          "name": "account",
          "type": "address"
        },
        {
          "internalType": "uint256",
          "name": "amount",
          "type": "uint256"
        }
      ],
      "name": "burnFrom",
      "outputs": [],
      "stateMutability": "nonpayable",
      "type": "function"
    },
    {
      "inputs": [],
      "name": "decimals",
      "outputs": [
        {
          "internalType": "uint8",
          "name": "",
          "type": "uint8"
        }
      ],
      "stateMutability": "view",
      "type": "function"
    },
    {
      "inputs": [
        {
          "internalType": "address",
          "name": "spender",
          "type": "address"
        },
        {
          "internalType": "uint256",
          "name": "subtractedValue",
          "type": "uint256"
        }
      ],
      "name": "decreaseAllowance",
      "outputs": [
        {
          "internalType": "bool",
          "name": "",
          "type": "bool"
        }
      ],
      "stateMutability": "nonpayable",
      "type": "function"
    },
    {
      "inputs": [
        {
          "internalType": "address",
          "name": "spender",
          "type": "address"
        },
        {
          "internalType": "uint256",
          "name": "addedValue",
          "type": "uint256"
        }
      ],
      "name": "increaseAllowance",
      "outputs": [
        {
          "internalType": "bool",
          "name": "",
          "type": "bool"
        }
      ],
      "stateMutability": "nonpayable",
      "type": "function"
    },
    {
      "inputs": [
        {
          "internalType": "address",
          "name": "account",
          "type": "address"
        },
        {
          "internalType": "uint256",
          "name": "amount",
          "type": "uint256"
        }
      ],
      "name": "mintTo",
      "outputs": [],
      "stateMutability": "nonpayable",
      "type": "function"
    },
    {
      "inputs": [],
      "name": "name",
      "outputs": [
        {
          "internalType": "string",
          "name": "",
          "type": "string"
        }
      ],
      "stateMutability": "view",
      "type": "function"
    },
    {
      "inputs": [],
      "name": "nis",
      "outputs": [
        {
          "internalType": "contract IERC20",
          "name": "",
          "type": "address"
        }
      ],
      "stateMutability": "view",
      "type": "function"
    },
    {
      "inputs": [],
      "name": "owner",
      "outputs": [
        {
          "internalType": "address",
          "name": "",
          "type": "address"
        }
      ],
      "stateMutability": "view",
      "type": "function"
    },
    {
      "inputs": [
        {
          "internalType": "address",
          "name": "targetAddr",
          "type": "address"
        }
      ],
      "name": "removeAllowlist",
      "outputs": [],
      "stateMutability": "nonpayable",
      "type": "function"
    },
    {
      "inputs": [],
      "name": "renounceOwnership",
      "outputs": [],
      "stateMutability": "nonpayable",
      "type": "function"
    },
    {
      "inputs": [
        {
          "internalType": "bool",
          "name": "newAllowAll",
          "type": "bool"
        }
      ],
      "name": "setAllowAll",
      "outputs": [],
      "stateMutability": "nonpayable",
      "type": "function"
    },
    {
      "inputs": [],
      "name": "symbol",
      "outputs": [
        {
          "internalType": "string",
          "name": "",
          "type": "string"
        }
      ],
      "stateMutability": "view",
      "type": "function"
    },
    {
      "inputs": [],
      "name": "totalSupply",
      "outputs": [
        {
          "internalType": "uint256",
          "name": "",
          "type": "uint256"
        }
      ],
      "stateMutability": "view",
      "type": "function"
    },
    {
      "inputs": [
        {
          "internalType": "address",
          "name": "to",
          "type": "address"
        },
        {
          "internalType": "uint256",
          "name": "amount",
          "type": "uint256"
        }
      ],
      "name": "transfer",
      "outputs": [
        {
          "internalType": "bool",
          "name": "",
          "type": "bool"
        }
      ],
      "stateMutability": "nonpayable",
      "type": "function"
    },
    {
      "inputs": [
        {
          "internalType": "address",
          "name": "from",
          "type": "address"
        },
        {
          "internalType": "address",
          "name": "to",
          "type": "address"
        },
        {
          "internalType": "uint256",
          "name": "amount",
          "type": "uint256"
        }
      ],
      "name": "transferFrom",
      "outputs": [
        {
          "internalType": "bool",
          "name": "",
          "type": "bool"
        }
      ],
      "stateMutability": "nonpayable",
      "type": "function"
    },
    {
      "inputs": [
        {
          "internalType": "address",
          "name": "newOwner",
          "type": "address"
        }
      ],
      "name": "transferOwnership",
      "outputs": [],
      "stateMutability": "nonpayable",
      "type": "function"
    }
  ],
  "bytecode": "0x60a06040523480156200001157600080fd5b506040516200142c3803806200142c833981016040819052620000349162000256565b6040518060400160405280601881526020017f537461626c6520494e7465726d69646961746520636f696e00000000000000008152506040518060400160405280600381526020016229a4a760e91b81525081600390805190602001906200009e929190620001b0565b508051620000b4906004906020840190620001b0565b505050620000d1620000cb6200015a60201b60201c565b6200015e565b806001600160a01b038116620001475760405162461bcd60e51b815260206004820152603160248201527f4e6f6e7a65726f3a3a6e6f6e7a65726f416464726573733a204163636f756e746044820152701036bab9ba103132903737b73d32b9379760791b606482015260840160405180910390fd5b506001600160a01b0316608052620002c5565b3390565b600580546001600160a01b038381166001600160a01b0319831681179093556040519116919082907f8be0079c531659141344cd1fd0a4f28419497f9722a3daafe3b4186f6b6457e090600090a35050565b828054620001be9062000288565b90600052602060002090601f016020900481019282620001e257600085556200022d565b82601f10620001fd57805160ff19168380011785556200022d565b828001600101855582156200022d579182015b828111156200022d57825182559160200191906001019062000210565b506200023b9291506200023f565b5090565b5b808211156200023b576000815560010162000240565b6000602082840312156200026957600080fd5b81516001600160a01b03811681146200028157600080fd5b9392505050565b600181811c908216806200029d57607f821691505b60208210811415620002bf57634e487b7160e01b600052602260045260246000fd5b50919050565b608051611144620002e8600039600081816102e301526103d901526111446000f3fe608060405234801561001057600080fd5b50600436106101425760003560e01c806370a08231116100b857806395d89b411161007c57806395d89b41146102b0578063a457c2d7146102b8578063a9059cbb146102cb578063c2b2559c146102de578063dd62ed3e14610305578063f2fde38b1461031857600080fd5b806370a0823114610234578063715018a61461025d57806379cc6790146102655780638da5cb5b14610278578063906904501461029d57600080fd5b8063395093511161010a57806339509351146101c057806342966c68146101d3578063449a52f8146101e85780634d7d9c01146101fb578063571ac8b01461020e5780635f6928e21461022157600080fd5b806306fdde0314610147578063095ea7b31461016557806318160ddd1461018857806323b872dd1461019e578063313ce567146101b1575b600080fd5b61014f61032b565b60405161015c9190610ec5565b60405180910390f35b610178610173366004610f36565b6103bd565b604051901515815260200161015c565b6101906103d5565b60405190815260200161015c565b6101786101ac366004610f60565b61047a565b6040516012815260200161015c565b6101786101ce366004610f36565b6104d5565b6101e66101e1366004610f9c565b6104f7565b005b6101e66101f6366004610f36565b610504565b6101e6610209366004610fb5565b61051a565b6101e661021c366004610fd7565b61052b565b6101e661022f366004610fd7565b610538565b610190610242366004610fd7565b6001600160a01b031660009081526020819052604090205490565b6101e6610549565b6101e6610273366004610f36565b61055d565b6005546001600160a01b03165b6040516001600160a01b03909116815260200161015c565b6101e66102ab366004610fd7565b61056f565b61014f610580565b6101786102c6366004610f36565b61058f565b6101786102d9366004610f36565b610615565b6102857f000000000000000000000000000000000000000000000000000000000000000081565b610190610313366004610ff2565b610665565b6101e6610326366004610fd7565b610690565b60606003805461033a90611025565b80601f016020809104026020016040519081016040528092919081815260200182805461036690611025565b80156103b35780601f10610388576101008083540402835291602001916103b3565b820191906000526020600020905b81548152906001019060200180831161039657829003601f168201915b5050505050905090565b6000336103cb818585610706565b5060019392505050565b60007f00000000000000000000000000000000000000000000000000000000000000006001600160a01b03166318160ddd6040518163ffffffff1660e01b815260040160206040518083038186803b15801561043057600080fd5b505afa158015610444573d6000803e3d6000fd5b505050506040513d601f19601f820116820180604052508101906104689190611060565b600254610475919061108f565b905090565b60075460009060ff168061049d57503360009081526006602052604090205460ff165b6104c25760405162461bcd60e51b81526004016104b9906110a6565b60405180910390fd5b6104cd84848461082b565b949350505050565b6000336103cb8185856104e88383610665565b6104f291906110f6565b610706565b6105013382610844565b50565b61050c61098a565b61051682826109e4565b5050565b61052261098a565b61050181610ac3565b6105013382600019610706565b61054061098a565b61050181610b1e565b61055161098a565b61055b6000610ba2565b565b61056561098a565b6105168282610844565b61057761098a565b61050181610bf4565b60606004805461033a90611025565b6000338161059d8286610665565b9050838110156105fd5760405162461bcd60e51b815260206004820152602560248201527f45524332303a2064656372656173656420616c6c6f77616e63652062656c6f77604482015264207a65726f60d81b60648201526084016104b9565b61060a8286868403610706565b506001949350505050565b60075460009060ff168061063857503360009081526006602052604090205460ff165b6106545760405162461bcd60e51b81526004016104b9906110a6565b61065e8383610c6f565b9392505050565b6001600160a01b03918216600090815260016020908152604080832093909416825291909152205490565b61069861098a565b6001600160a01b0381166106fd5760405162461bcd60e51b815260206004820152602660248201527f4f776e61626c653a206e6577206f776e657220697320746865207a65726f206160448201526564647265737360d01b60648201526084016104b9565b61050181610ba2565b6001600160a01b0383166107685760405162461bcd60e51b8152602060048201526024808201527f45524332303a20617070726f76652066726f6d20746865207a65726f206164646044820152637265737360e01b60648201526084016104b9565b6001600160a01b0382166107c95760405162461bcd60e51b815260206004820152602260248201527f45524332303a20617070726f766520746f20746865207a65726f206164647265604482015261737360f01b60648201526084016104b9565b6001600160a01b0383811660008181526001602090815260408083209487168084529482529182902085905590518481527f8c5be1e5ebec7d5bd14f71427d1e84f3dd0314c0f7b2291e5b200ac8c7c3b92591015b60405180910390a3505050565b600033610839858285610c7d565b61060a858585610cf7565b6001600160a01b0382166108a45760405162461bcd60e51b815260206004820152602160248201527f45524332303a206275726e2066726f6d20746865207a65726f206164647265736044820152607360f81b60648201526084016104b9565b6001600160a01b038216600090815260208190526040902054818110156109185760405162461bcd60e51b815260206004820152602260248201527f45524332303a206275726e20616d6f756e7420657863656564732062616c616e604482015261636560f01b60648201526084016104b9565b6001600160a01b038316600090815260208190526040812083830390556002805484929061094790849061108f565b90915550506040518281526000906001600160a01b038516907fddf252ad1be2c89b69c2b068fc378daa952ba7f163c4a11628f55a4df523b3ef9060200161081e565b6005546001600160a01b0316331461055b5760405162461bcd60e51b815260206004820181905260248201527f4f776e61626c653a2063616c6c6572206973206e6f7420746865206f776e657260448201526064016104b9565b6001600160a01b038216610a3a5760405162461bcd60e51b815260206004820152601f60248201527f45524332303a206d696e7420746f20746865207a65726f20616464726573730060448201526064016104b9565b8060026000828254610a4c91906110f6565b90915550506001600160a01b03821660009081526020819052604081208054839290610a799084906110f6565b90915550506040518181526001600160a01b038316906000907fddf252ad1be2c89b69c2b068fc378daa952ba7f163c4a11628f55a4df523b3ef9060200160405180910390a35050565b6007805482151560ff19821681179092556040805160ff9283168015158252929093161515602084015290917fcf5a6e6e80ce33d91b3847410c4b01d12fb1f8dbf62cc9277af33334a61d55ab910160405180910390a15050565b6001600160a01b03811660009081526006602052604090205460ff16610b62576001600160a01b0381166000908152600660205260409020805460ff191660011790555b6040516001600160a01b03821681527f7a2bbcb3d08b18c304a0e6eb430fcb9f4f68cc1b89e88f128890d75fd5c5e283906020015b60405180910390a150565b600580546001600160a01b038381166001600160a01b0319831681179093556040519116919082907f8be0079c531659141344cd1fd0a4f28419497f9722a3daafe3b4186f6b6457e090600090a35050565b6001600160a01b03811660009081526006602052604090205460ff1615610c36576001600160a01b0381166000908152600660205260409020805460ff191690555b6040516001600160a01b03821681527fd34eeb1d267e8bfb11aab9bc3009b72ca96b68103c69fdedfb1fa5fca7e65da890602001610b97565b6000336103cb818585610cf7565b6000610c898484610665565b90506000198114610cf15781811015610ce45760405162461bcd60e51b815260206004820152601d60248201527f45524332303a20696e73756666696369656e7420616c6c6f77616e636500000060448201526064016104b9565b610cf18484848403610706565b50505050565b6001600160a01b038316610d5b5760405162461bcd60e51b815260206004820152602560248201527f45524332303a207472616e736665722066726f6d20746865207a65726f206164604482015264647265737360d81b60648201526084016104b9565b6001600160a01b038216610dbd5760405162461bcd60e51b815260206004820152602360248201527f45524332303a207472616e7366657220746f20746865207a65726f206164647260448201526265737360e81b60648201526084016104b9565b6001600160a01b03831660009081526020819052604090205481811015610e355760405162461bcd60e51b815260206004820152602660248201527f45524332303a207472616e7366657220616d6f756e7420657863656564732062604482015265616c616e636560d01b60648201526084016104b9565b6001600160a01b03808516600090815260208190526040808220858503905591851681529081208054849290610e6c9084906110f6565b92505081905550826001600160a01b0316846001600160a01b03167fddf252ad1be2c89b69c2b068fc378daa952ba7f163c4a11628f55a4df523b3ef84604051610eb891815260200190565b60405180910390a3610cf1565b600060208083528351808285015260005b81811015610ef257858101830151858201604001528201610ed6565b81811115610f04576000604083870101525b50601f01601f1916929092016040019392505050565b80356001600160a01b0381168114610f3157600080fd5b919050565b60008060408385031215610f4957600080fd5b610f5283610f1a565b946020939093013593505050565b600080600060608486031215610f7557600080fd5b610f7e84610f1a565b9250610f8c60208501610f1a565b9150604084013590509250925092565b600060208284031215610fae57600080fd5b5035919050565b600060208284031215610fc757600080fd5b8135801515811461065e57600080fd5b600060208284031215610fe957600080fd5b61065e82610f1a565b6000806040838503121561100557600080fd5b61100e83610f1a565b915061101c60208401610f1a565b90509250929050565b600181811c9082168061103957607f821691505b6020821081141561105a57634e487b7160e01b600052602260045260246000fd5b50919050565b60006020828403121561107257600080fd5b5051919050565b634e487b7160e01b600052601160045260246000fd5b6000828210156110a1576110a1611079565b500390565b60208082526030908201527f416c6c6f776c6973743a6f6e6c79416c6c6f776c6973743a2053656e6465722060408201526f36bab9ba1031329030b63637bbb2b21760811b606082015260800190565b6000821982111561110957611109611079565b50019056fea26469706673582212203e5ff688d5d80d0f1fcd74263ba9bb712048cca0710029fadb3e8c04fa7bf2e364736f6c63430008090033",
  "linkReferences": {},
  "deployedLinkReferences": {}
}