{
  "_format": "hh-sol-artifact-1",
  "contractName": "WETH",
  "sourceName": "contracts/tokens/WETH.sol",
  "abi": [
    {
      "anonymous": false,
      "inputs": [
        {
          "indexed": true,
          "internalType": "address",
          "name": "owner",
          "type": "address"
        },
        {
          "indexed": true,
          "internalType": "address",
          "name": "spender",
          "type": "address"
        },
        {
          "indexed": false,
          "internalType": "uint256",
          "name": "value",
          "type": "uint256"
        }
      ],
      "name": "Approval",
      "type": "event"
    },
    {
      "anonymous": false,
      "inputs": [
        {
          "indexed": true,
          "internalType": "address",
          "name": "account_",
          "type": "address"
        },
        {
          "indexed": false,
          "internalType": "uint256",
          "name": "amount_",
          "type": "uint256"
        }
      ],
      "name": "Deposit",
      "type": "event"
    },
    {
      "anonymous": false,
      "inputs": [
        {
          "indexed": true,
          "internalType": "address",
          "name": "from",
          "type": "address"
        },
        {
          "indexed": true,
          "internalType": "address",
          "name": "to",
          "type": "address"
        },
        {
          "indexed": false,
          "internalType": "uint256",
          "name": "value",
          "type": "uint256"
        }
      ],
      "name": "Transfer",
      "type": "event"
    },
    {
      "anonymous": false,
      "inputs": [
        {
          "indexed": true,
          "internalType": "address",
          "name": "account_",
          "type": "address"
        },
        {
          "indexed": false,
          "internalType": "uint256",
          "name": "amount_",
          "type": "uint256"
        }
      ],
      "name": "Withdraw",
      "type": "event"
    },
    {
      "stateMutability": "payable",
      "type": "fallback"
    },
    {
      "inputs": [
        {
          "internalType": "address",
          "name": "owner",
          "type": "address"
        },
        {
          "internalType": "address",
          "name": "spender",
          "type": "address"
        }
      ],
      "name": "allowance",
      "outputs": [
        {
          "internalType": "uint256",
          "name": "",
          "type": "uint256"
        }
      ],
      "stateMutability": "view",
      "type": "function"
    },
    {
      "inputs": [
        {
          "internalType": "address",
          "name": "spender",
          "type": "address"
        },
        {
          "internalType": "uint256",
          "name": "amount",
          "type": "uint256"
        }
      ],
      "name": "approve",
      "outputs": [
        {
          "internalType": "bool",
          "name": "",
          "type": "bool"
        }
      ],
      "stateMutability": "nonpayable",
      "type": "function"
    },
    {
      "inputs": [
        {
          "internalType": "address",
          "name": "spender",
          "type": "address"
        }
      ],
      "name": "approveMax",
      "outputs": [],
      "stateMutability": "nonpayable",
      "type": "function"
    },
    {
      "inputs": [
        {
          "internalType": "address",
          "name": "account",
          "type": "address"
        }
      ],
      "name": "balanceOf",
      "outputs": [
        {
          "internalType": "uint256",
          "name": "",
          "type": "uint256"
        }
      ],
      "stateMutability": "view",
      "type": "function"
    },
    {
      "inputs": [],
      "name": "decimals",
      "outputs": [
        {
          "internalType": "uint8",
          "name": "",
          "type": "uint8"
        }
      ],
      "stateMutability": "view",
      "type": "function"
    },
    {
      "inputs": [
        {
          "internalType": "address",
          "name": "spender",
          "type": "address"
        },
        {
          "internalType": "uint256",
          "name": "subtractedValue",
          "type": "uint256"
        }
      ],
      "name": "decreaseAllowance",
      "outputs": [
        {
          "internalType": "bool",
          "name": "",
          "type": "bool"
        }
      ],
      "stateMutability": "nonpayable",
      "type": "function"
    },
    {
      "inputs": [],
      "name": "deposit",
      "outputs": [],
      "stateMutability": "payable",
      "type": "function"
    },
    {
      "inputs": [
        {
          "internalType": "address",
          "name": "spender",
          "type": "address"
        },
        {
          "internalType": "uint256",
          "name": "addedValue",
          "type": "uint256"
        }
      ],
      "name": "increaseAllowance",
      "outputs": [
        {
          "internalType": "bool",
          "name": "",
          "type": "bool"
        }
      ],
      "stateMutability": "nonpayable",
      "type": "function"
    },
    {
      "inputs": [],
      "name": "name",
      "outputs": [
        {
          "internalType": "string",
          "name": "",
          "type": "string"
        }
      ],
      "stateMutability": "view",
      "type": "function"
    },
    {
      "inputs": [],
      "name": "symbol",
      "outputs": [
        {
          "internalType": "string",
          "name": "",
          "type": "string"
        }
      ],
      "stateMutability": "view",
      "type": "function"
    },
    {
      "inputs": [],
      "name": "totalSupply",
      "outputs": [
        {
          "internalType": "uint256",
          "name": "",
          "type": "uint256"
        }
      ],
      "stateMutability": "view",
      "type": "function"
    },
    {
      "inputs": [
        {
          "internalType": "address",
          "name": "to",
          "type": "address"
        },
        {
          "internalType": "uint256",
          "name": "amount",
          "type": "uint256"
        }
      ],
      "name": "transfer",
      "outputs": [
        {
          "internalType": "bool",
          "name": "",
          "type": "bool"
        }
      ],
      "stateMutability": "nonpayable",
      "type": "function"
    },
    {
      "inputs": [
        {
          "internalType": "address",
          "name": "from",
          "type": "address"
        },
        {
          "internalType": "address",
          "name": "to",
          "type": "address"
        },
        {
          "internalType": "uint256",
          "name": "amount",
          "type": "uint256"
        }
      ],
      "name": "transferFrom",
      "outputs": [
        {
          "internalType": "bool",
          "name": "",
          "type": "bool"
        }
      ],
      "stateMutability": "nonpayable",
      "type": "function"
    },
    {
      "inputs": [
        {
          "internalType": "uint256",
          "name": "amount_",
          "type": "uint256"
        }
      ],
      "name": "withdraw",
      "outputs": [],
      "stateMutability": "nonpayable",
      "type": "function"
    },
    {
      "stateMutability": "payable",
      "type": "receive"
    }
  ],
  "bytecode": "0x60806040523480156200001157600080fd5b50604080518082018252600b81526a0aee4c2e0e0cac8408aa8960ab1b6020808301918252835180850190945260048452630ae8aa8960e31b908401528151919291620000619160039162000080565b5080516200007790600490602084019062000080565b50505062000163565b8280546200008e9062000126565b90600052602060002090601f016020900481019282620000b25760008555620000fd565b82601f10620000cd57805160ff1916838001178555620000fd565b82800160010185558215620000fd579182015b82811115620000fd578251825591602001919060010190620000e0565b506200010b9291506200010f565b5090565b5b808211156200010b576000815560010162000110565b600181811c908216806200013b57607f821691505b602082108114156200015d57634e487b7160e01b600052602260045260246000fd5b50919050565b610d5380620001736000396000f3fe6080604052600436106100e15760003560e01c8063571ac8b01161007f578063a457c2d711610059578063a457c2d714610256578063a9059cbb14610276578063d0e30db0146100eb578063dd62ed3e14610296576100eb565b8063571ac8b0146101eb57806370a082311461020b57806395d89b4114610241576100eb565b806323b872dd116100bb57806323b872dd1461016f5780632e1a7d4d1461018f578063313ce567146101af57806339509351146101cb576100eb565b806306fdde03146100f5578063095ea7b31461012057806318160ddd14610150576100eb565b366100eb57600080fd5b6100f36102b6565b005b34801561010157600080fd5b5061010a6102f7565b6040516101179190610b58565b60405180910390f35b34801561012c57600080fd5b5061014061013b366004610bc9565b610389565b6040519015158152602001610117565b34801561015c57600080fd5b506002545b604051908152602001610117565b34801561017b57600080fd5b5061014061018a366004610bf3565b6103a1565b34801561019b57600080fd5b506100f36101aa366004610c2f565b6103c5565b3480156101bb57600080fd5b5060405160128152602001610117565b3480156101d757600080fd5b506101406101e6366004610bc9565b6104d1565b3480156101f757600080fd5b506100f3610206366004610c48565b6104f3565b34801561021757600080fd5b50610161610226366004610c48565b6001600160a01b031660009081526020819052604090205490565b34801561024d57600080fd5b5061010a610503565b34801561026257600080fd5b50610140610271366004610bc9565b610512565b34801561028257600080fd5b50610140610291366004610bc9565b61058d565b3480156102a257600080fd5b506101616102b1366004610c6a565b61059b565b6102c033346105c6565b60405134815233907fe1fffcc4923d04b559f4d29a8bfc6cda04eb5b0d3c460751c2402c5c5cc9109c9060200160405180910390a2565b60606003805461030690610c9d565b80601f016020809104026020016040519081016040528092919081815260200182805461033290610c9d565b801561037f5780601f106103545761010080835404028352916020019161037f565b820191906000526020600020905b81548152906001019060200180831161036257829003601f168201915b5050505050905090565b6000336103978185856106a5565b5060019392505050565b6000336103af8582856107ca565b6103ba858585610844565b506001949350505050565b806103cf33610226565b10156104615760405162461bcd60e51b815260206004820152605060248201527f574554483a3a77697468647261773a20574554482062616c616e6365206f662060448201527f73656e646572206d7573742062652067726561746572207468616e206f72206560648201526f38bab0b6103a379030b6b7bab73a2f9760811b608482015260a4015b60405180910390fd5b61046b3382610a12565b604051339082156108fc029083906000818181858888f19350505050158015610498573d6000803e3d6000fd5b5060405181815233907f884edad9ce6fa2440d8a54cc123490eb96d2768479d49ff9c7366125a94243649060200160405180910390a250565b6000336103978185856104e4838361059b565b6104ee9190610cee565b6106a5565b61050033826000196106a5565b50565b60606004805461030690610c9d565b60003381610520828661059b565b9050838110156105805760405162461bcd60e51b815260206004820152602560248201527f45524332303a2064656372656173656420616c6c6f77616e63652062656c6f77604482015264207a65726f60d81b6064820152608401610458565b6103ba82868684036106a5565b600033610397818585610844565b6001600160a01b03918216600090815260016020908152604080832093909416825291909152205490565b6001600160a01b03821661061c5760405162461bcd60e51b815260206004820152601f60248201527f45524332303a206d696e7420746f20746865207a65726f2061646472657373006044820152606401610458565b806002600082825461062e9190610cee565b90915550506001600160a01b0382166000908152602081905260408120805483929061065b908490610cee565b90915550506040518181526001600160a01b038316906000907fddf252ad1be2c89b69c2b068fc378daa952ba7f163c4a11628f55a4df523b3ef9060200160405180910390a35050565b6001600160a01b0383166107075760405162461bcd60e51b8152602060048201526024808201527f45524332303a20617070726f76652066726f6d20746865207a65726f206164646044820152637265737360e01b6064820152608401610458565b6001600160a01b0382166107685760405162461bcd60e51b815260206004820152602260248201527f45524332303a20617070726f766520746f20746865207a65726f206164647265604482015261737360f01b6064820152608401610458565b6001600160a01b0383811660008181526001602090815260408083209487168084529482529182902085905590518481527f8c5be1e5ebec7d5bd14f71427d1e84f3dd0314c0f7b2291e5b200ac8c7c3b92591015b60405180910390a3505050565b60006107d6848461059b565b9050600019811461083e57818110156108315760405162461bcd60e51b815260206004820152601d60248201527f45524332303a20696e73756666696369656e7420616c6c6f77616e63650000006044820152606401610458565b61083e84848484036106a5565b50505050565b6001600160a01b0383166108a85760405162461bcd60e51b815260206004820152602560248201527f45524332303a207472616e736665722066726f6d20746865207a65726f206164604482015264647265737360d81b6064820152608401610458565b6001600160a01b03821661090a5760405162461bcd60e51b815260206004820152602360248201527f45524332303a207472616e7366657220746f20746865207a65726f206164647260448201526265737360e81b6064820152608401610458565b6001600160a01b038316600090815260208190526040902054818110156109825760405162461bcd60e51b815260206004820152602660248201527f45524332303a207472616e7366657220616d6f756e7420657863656564732062604482015265616c616e636560d01b6064820152608401610458565b6001600160a01b038085166000908152602081905260408082208585039055918516815290812080548492906109b9908490610cee565b92505081905550826001600160a01b0316846001600160a01b03167fddf252ad1be2c89b69c2b068fc378daa952ba7f163c4a11628f55a4df523b3ef84604051610a0591815260200190565b60405180910390a361083e565b6001600160a01b038216610a725760405162461bcd60e51b815260206004820152602160248201527f45524332303a206275726e2066726f6d20746865207a65726f206164647265736044820152607360f81b6064820152608401610458565b6001600160a01b03821660009081526020819052604090205481811015610ae65760405162461bcd60e51b815260206004820152602260248201527f45524332303a206275726e20616d6f756e7420657863656564732062616c616e604482015261636560f01b6064820152608401610458565b6001600160a01b0383166000908152602081905260408120838303905560028054849290610b15908490610d06565b90915550506040518281526000906001600160a01b038516907fddf252ad1be2c89b69c2b068fc378daa952ba7f163c4a11628f55a4df523b3ef906020016107bd565b600060208083528351808285015260005b81811015610b8557858101830151858201604001528201610b69565b81811115610b97576000604083870101525b50601f01601f1916929092016040019392505050565b80356001600160a01b0381168114610bc457600080fd5b919050565b60008060408385031215610bdc57600080fd5b610be583610bad565b946020939093013593505050565b600080600060608486031215610c0857600080fd5b610c1184610bad565b9250610c1f60208501610bad565b9150604084013590509250925092565b600060208284031215610c4157600080fd5b5035919050565b600060208284031215610c5a57600080fd5b610c6382610bad565b9392505050565b60008060408385031215610c7d57600080fd5b610c8683610bad565b9150610c9460208401610bad565b90509250929050565b600181811c90821680610cb157607f821691505b60208210811415610cd257634e487b7160e01b600052602260045260246000fd5b50919050565b634e487b7160e01b600052601160045260246000fd5b60008219821115610d0157610d01610cd8565b500190565b600082821015610d1857610d18610cd8565b50039056fea264697066735822122079a2d159ee67bf4c8e5860f2ff2fb8c542e0fc6aecc4907cf73a3d0039cf79ab64736f6c63430008090033",
  "linkReferences": {},
  "deployedLinkReferences": {}
}